:100000000C9467070C94AE070C94AE070C94AE07E3
:100010000C94AE070C94AE070C94AE070C94AE078C
:100020000C94AE070C94AE070C94F4190C94301990
:100030000C94E2200C94AE070C94AE070C94AE071F
:100040000C94AE070C94AE070C94AE070C94AE075C
:100050000C94AE070C9495200C94AE070C94AE074C
:100060000C94AE070C94AE070C94AE070C94AE073C
:100070000C94AE070C94AE070C94AE070C94AE072C
:100080000C94AE070C94AE070C94AE070C94AE071C
:100090000C94AE070C94AE070C94AE070C94AE070C
:1000A0000C94AE070C94AE070C94AE07B70CB70CCB
:1000B000F20CF20C4C0D6A0D740E740E750DE90DF8
:1000C000FA0DFA0D3E176517121965171219B117B7
:1000D000D4171219CA18DA18A41EA71EC81ED51ED6
:1000E000DC1EFC1E961F961F961F961F961FFF1E56
:1000F000011F061F2B1F4D1F501F531F761FE12589
:10010000E125F425F425EA25F425F425F425E12557
:10011000E125EF25F425F425EF2593298129A5294B
:100120000829522A522A7E29522A522AD229522A90
:10013000E629302A522A522A522A522A042A522ABC
:10014000522A012A522ABE29522A522A4C2A4C2AC1
:100150004C2A4C2A4C2A4C2A4C2A4C2A4C2A4E2AED
:10016000522A93297629522A522A522A522A522A4C
:10017000522A522A522A522A522A4E2A522A522AA3
:100180007E29522A4A2A4A2A4A2A4A2A4A2A4A2A94
:100190004A2A4A2A4A2A4E2A00000000000000008B
:1001A000000000000000000000000000000000004F
:1001B0000000000000000000000000007E0F00D4DE
:1001C000FFFFFFC7000000780000000000000000F3
:1001D0002A2B2800000000000000000000000000A2
:1001E00000000029000000002C1E342021222434AD
:1001F0002627252E362D3738271E1F20212223247F
:1002000025263333362E37381F0405060708090A1A
:100210000B0C0D0E0F101112131415161718191AB6
:100220001B1C1D2F3130232D350405060708090A34
:100230000B0C0D0E0F101112131415161718191A96
:100240001B1C1D2F3130354C44454255473A206424
:10025000697361626C65642E0A0044454255473AF1
:1002600020656E61626C65642E0A004F6E6573686E
:100270006F743A206163746976653A2025640A00D8
:100280000A002530325820006B6579626F61726414
:100290005F7265706F72743A20000631FF0974A1B5
:1002A000010975150026FF00952075088102097661
:1002B000150026FF00952075089102C0050109026E
:1002C000A10185020901A1000509190129081500EC
:1002D0002501950875018102050109300931158153
:1002E000257F95027508810609381581257F9501BE
:1002F00075088106050C0A38021581257F95017560
:10030000088106C0C005010980A101850319012AE1
:10031000B700150126B700950175108100C0050CC6
:100320000901A101850419012AA002150126A002D4
:10033000950175108100C005010906A1018505051B
:100340000719E029E71500250195087501810205C7
:1003500007190029EF1500250195F07501810205A7
:1003600008190129059505750191029501750391FB
:1003700001C00660FF0961A1010962150026FF00A6
:100380009520750881020963150026FF00952075E8
:10039000089102C005010906A101050719E029E736
:1003A00015002501950875018102950175088101E7
:1003B0000507190029FF150026FF0095067508811D
:1003C000000508190129059505750191029501752A
:1003D000039101C05B435D005B445D005B535D00C6
:1003E0005B575D005B525D0009027B00040100A0C9
:1003F000FA090400000103010100092111010001B3
:100400002240000705810308000A090401000203D5
:1004100000000009211101000122220007058203CA
:100420002000010705030320000109040200010365
:1004300000000009211101000122B6000705840314
:1004400020000A0904030002030000000921110131
:10045000000122220007058503200001070505038E
:10046000200001120100020000000845415C060165
:10047000000102000138034100450042006F0061A5
:1004800000720064007300200043006F006E007370
:1004900000740065006C006C006100740069006FFE
:1004A000006E00200052006500760031000000124E
:1004B000034100450042006F006100720064007358
:1004C000000000040309044B6579626F61726420C7
:1004D00073746172742E0A000A002530313662008E
:1004E0003A200025303258000A722F632030313212
:1004F000333435363738394142434445460A000AD9
:100500000025303258006B6579626F6172645F73E9
:1005100065745F6C65643A20005B735D004C256414
:100520000A00290A002575002F002575005D2800A6
:10053000256400200025640020002564002000259B
:1005400064007C0025303258006D6F7573656B65F3
:1005500079205B62746E7C782079207620685D2833
:100560007265702F61636C293A205B0029001E00C0
:100570001F00200021002200230024002500260067
:1005800027002D002E0031004A002B0014001A0015
:100590000800150017001C0018000C0012001300C2
:1005A0002F0030002A004B00E00004001600070076
:1005B00009000A000B000D000E000F00330034008C
:1005C00028004C004E00E1001D001B000600190031
:1005D0000500110010003600370038000000E5006B
:1005E00052004D00E000E300E200000000000000C7
:1005F000000000002C00E600E40000005000510064
:100600004F0035003A003B003C003D003E003F00FB
:100610004000410042004300440045004900010001
:10062000390001000100010001000100010001008A
:1006300046004700480001000100010001000100E0
:10064000AA00A900A800B0000100010001000100FB
:1006500001000100010001004C0001000100010047
:100660000100010001000100010001000100010082
:100670000100000001000100010001000100010073
:100680000000000000000000000001000100010067
:100690000000010001000100010001000100010053
:1006A0000100010001000100010001000100010042
:1006B0000100010001000100010001000100010032
:1006C0000100010001000100010001000100010022
:1006D0000100010001000100010001000100010012
:1006E0000100010001000100010001000100010002
:1006F00001000100010001000100010001000100F2
:1007000001000100010001000000010001000100E2
:1007100001000100010000000000000000000000D6
:1007200001000100010000000100010001000100C2
:1007300001000100010001000100010001000100B1
:1007400001000100010001000100010001000100A1
:100750000100010001000100010001000100010091
:100760000100010001000100010001000100010081
:100770000100010001000100010001000100010071
:100780000100010001000100010001000100010061
:100790000100010001000100010001000100000052
:1007A0000100010001000100010001000000000043
:1007B0000000000000000100010001000000010035
:1007C000010001006164645F6B65795F6269743A7E
:1007D0002063616E2774206164643A2025303258AA
:1007E0000A0064656C5F6B65795F6269743A2063C7
:1007F000616E27742064656C3A20253032580A00F7
:100800003F00433E20006B65796D61705F636F6EE2
:100810006669672E7261773A20253032580A2E7346
:100820007761705F636F6E74726F6C5F636170731A
:100830006C6F636B3A2025750A2E636170736C6F61
:10084000636B5F746F5F636F6E74726F6C3A2025B9
:10085000750A2E737761705F6C63746C5F6C67757B
:10086000693A2025750A2E737761705F7263746C24
:100870005F726775693A2025750A2E737761705F1C
:100880006C616C745F6C6775693A2025750A2E730C
:100890007761705F72616C745F726775693A202569
:1008A000750A2E6E6F5F6775693A2025750A2E737B
:1008B0007761705F67726176655F6573633A202563
:1008C000750A2E737761705F6261636B736C61731D
:1008D000685F6261636B73706163653A2025750AB6
:1008E0002E6E6B726F3A2025750A0064656275671B
:1008F0005F636F6E6669672E7261773A20253032CA
:10090000580A2E656E61626C653A2025750A2E6D57
:1009100061747269783A2025750A2E6B6579626F69
:100920006172643A2025750A2E6D6F7573653A20E1
:1009300025750A006565636F6E6669673A0A6465C6
:100940006661756C745F6C617965723A2025750A11
:10095000000A092D204D61676963202D0A443A0978
:100960004465627567204D65737361676520546FD8
:1009700067676C650A583A094D617472697820445A
:1009800065627567204D6F646520546F67676C659D
:10099000202D2053686F77206B65797072657373B3
:1009A000657320696E206D61747269782067726961
:1009B000640A4B3A094B6579626F61726420446541
:1009C00062756720546F67676C65202D2053686FD0
:1009D00077206B65797072657373207265706F72C2
:1009E000740A4D3A094465627567204D6F757365E9
:1009F00020546F67676C650A563A095665727369C9
:100A00006F6E0A533A095374617475730A433A0955
:100A1000416374697661746520436F6E736F6C65B2
:100A2000204D6F64650A46312D4631303A095377BF
:100A30006974636820746F204C6179657220302D71
:100A4000392028463130203D204C30290A302D39BC
:100A50003A0953776974636820746F204C61796533
:100A60007220302D390A47524156453A0953776969
:100A700074636820746F204C61796572203020287F
:100A8000616C7465726E617465290A423A094A752F
:100A90006D7020746F20426F6F746C6F616465724B
:100AA0000A4553433A094A756D7020746F20426FAE
:100AB0006F746C6F616465722028616C7465726E0E
:100AC000617465290A453A095072696E742045457A
:100AD00050524F4D2053657474696E67730A4253C8
:100AE000504143453A09436C656172204545505277
:100AF0004F4D0A4E3A094E4B524F20546F67676C68
:100B0000650A000A092D20436F6E736F6C65202DF6
:100B10000A4553432F713A09717569740A6D3A0990
:100B20006D6F7573656B65790A000A092D2056652E
:100B30007273696F6E202D0A5649443A203078341A
:100B4000313435284145426F617264732920504920
:100B5000443A20307830363543284145426F61723F
:100B6000647320436F6E7374656C6C6174696F6E2F
:100B7000205265763129205645523A20307830305F
:100B800030310A4255494C443A2020284F637420A2
:100B900031302032303231290A4F5054494F4E53B0
:100BA0003A204C554641204D4F5553454B45592011
:100BB00045585452414B455920434F4E534F4C4595
:100BC00020434F4D4D414E44204E4B524F204C54EC
:100BD0004F20343039360A4743433A20352E342EDD
:100BE00030204156522D4C4942433A20322E302E6D
:100BF00030204156525F415243483A206176723567
:100C00000A000A092D20537461747573202D0A6837
:100C10006F73745F6B6579626F6172645F6C65643A
:100C20007328293A20253032580A6B6579626F6142
:100C300072645F70726F746F636F6C3A202530322C
:100C4000580A6B6579626F6172645F69646C653ABA
:100C500020253032580A6B65796D61705F636F6E65
:100C60006669672E6E6B726F3A20253032580A74AF
:100C7000696D65725F72656164333228293A202597
:100C800030386C580A003F004E4B524F3A206F6686
:100C9000660A004E4B524F3A206F6E0A000A6D6F83
:100CA0007573653A206F66660A000A6D6F75736525
:100CB0003A206F6E0A000A6B6579626F6172643A5E
:100CC000206F66660A000A6B6579626F6172643A2A
:100CD000206F6E0A000A6D61747269783A206F663F
:100CE000660A000A6D61747269783A206F6E0A00B4
:100CF0000A64656275673A206F66660A000A646571
:100D00006275673A206F6E0A000A0A4A756D70694B
:100D10006E6720746F20626F6F746C6F61646572B0
:100D20002E2E2E2000433E2000436C656172696EBA
:100D30006720454550524F4D0A00313A0964656CB1
:100D40006179282A31306D73293A2025750A323AA3
:100D500009696E74657276616C286D73293A202575
:100D6000750A333A096D61785F73706565643A207E
:100D700025750A343A0974696D655F746F5F6D613A
:100D8000783A2025750A353A09776865656C5F6D94
:100D900061785F73706565643A2025750A363A0993
:100DA000776865656C5F74696D655F746F5F6D61B1
:100DB000783A2025750A00703A097072696E7420BD
:100DC00076616C7565730A643A09736574206465AD
:100DD0006661756C74730A75703A092B310A646E1A
:100DE0003A092D310A6C743A092B31300A72743A7F
:100DF000092D31300A4553432F713A0971756974D1
:100E00000A0A7370656564203D2064656C74612016
:100E10002A206D61785F7370656564202A202872CE
:100E20006570656174202F2074696D655F746F5FF4
:100E30006D6178290A77686572652064656C7461F4
:100E40003A20637572736F723D25642C2077686554
:100E5000656C3D25640A53656520687474703A2F8B
:100E60002F656E2E77696B6970656469612E6F728C
:100E7000672F77696B692F4D6F7573655F6B657948
:100E8000730A004D3E20004D25753A25733E200023
:100E90003F0A003D2025750A003F0A00646566612F
:100EA000756C74730A0025750A003F0A000A092D43
:100EB0002056616C756573202D0A00710A000A09BD
:100EC0002D204D6F7573656B6579202D0A001124F7
:100ED0001FBECFEFDAE0DEBFCDBF04B603FE27C0F2
:100EE0008091C3029091C402A091C502B091C60244
:100EF0008730904BA740B04BD1F41092C3021092B0
:100F0000C4021092C5021092C60214BE84B7877F35
:100F100084BF0FB6F894A895809160008861809393
:100F20006000109260000FBEE0E0F8E3099511E068
:100F3000A0E0B1E0E4EEF5E502C005900D92A83C1A
:100F4000B107D9F722E0A8ECB1E001C01D92A33CA3
:100F5000B207E1F70E947C1B0C94F02A0C9400006D
:100F6000FF93EF93E091C801F091C901309709F028
:100F70000995EF91FF910895FC018591803011F062
:100F8000EFDFFBCF0895FF27E0E230E247FF0CC020
:100F9000419597FF09C0EDE2609570958095909519
:100FA000611D711D811D911D27FF02C0219530E338
:100FB00050E2AA27660F771F881F991FAA1FA41740
:100FC00010F0A41B63955A95A9F7AA3008F0A95F01
:100FD000A05DAF93F395611571058105910541F70A
:100FE000ED3211F4EF93F395F21718F43F93F39564
:100FF000FBCF8F91B5DFFA95E1F70895E991F9916B
:101000008591803021F0853219F0AADFF9CF08955B
:1010100020E0E89455915532C1F3503311F46894AF
:1010200055915A3348F4505390F3220F022E220F59
:10103000220F200D250FF4CF0EF42195899199915F
:10104000533619F3533729F1533559F1BC01882729
:101050009927E8945C3621F4899199916894559187
:10106000543639F446EF7EF077FF0DC08FEF9FEFD7
:101070000AC055374AE039F0583540E121F0523680
:1010800042E009F00895FF93EF937DDFEF91FF9128
:10109000B7CFFF93EF93FC0181918030B9F360DF0C
:1010A000FBCFFF93EF9368DFF1CFDF93CF93CDB703
:1010B000DEB72596A3DFCF91DF9108951F93CF93DD
:1010C000DF93CDB7DEB767970FB6F894DEBF0FBEDC
:1010D000CDBF4B8B5C8B6D8B7E8B8F8B6111109298
:1010E000250286E09E01235F3F4FD901E82F1D9224
:1010F000EA95E9F795E0FE017396D90101900D920A
:101100009A95E1F79C894E895F897B897D879E87C7
:101110006F87598B488BF901DE01179601900D926C
:101120008A95E1F7CE0107960E948E1381113EC089
:1011300086E0FE013796DE01119601900D928A95A8
:10114000E1F7FF81E8856A857B856115710531F0DE
:10115000EF3F31F481E0FF3F19F403C081E001C0AB
:1011600080E080FD23C02091F10130E0C9010196AB
:10117000877099274091220250E08417950779F1F2
:10118000F983EA837D836C8396E0929FD001939FDD
:10119000B00D1124AE50BE4FFE01319601900D925C
:1011A0009A95E1F78093F1010E940B1316E080916C
:1011B00022029091F1018917F9F0189FC0011124C2
:1011C0008E509E4F0E948E138823B1F08091220290
:1011D00090E001968770992780932202E8CF0E94C1
:1011E000F8251092F10110922202EBEEF1E086E078
:1011F000DF011D928A95E9F767960FB6F894DEBF76
:101200000FBECDBFDF91CF911F9108953F924F92B6
:101210005F926F927F928F929F92AF92BF92CF9286
:10122000DF92EF92FF920F931F93CF93DF93CDB78F
:10123000DEB729970FB6F894DEBF0FBECDBFFC0115
:101240008081918123813481232B31F09F3F31F4C0
:1012500091E08F3F19F403C091E001C090E090FD50
:1012600080C57F0185E0DE01119601900D928A957F
:10127000E1F7F701228189819A81222349F00E94B6
:101280002725182F682F89819A810E94822503C003
:101290000E945625182F69817A81812F0E949F22F2
:1012A0008C01F7018281882309F4F2C09801225150
:1012B0003F452031310508F019C18FEF93E00E94BE
:1012C000602A8111EFC002513FE7832E32E0932E56
:1012D000002379F08114F4E09F0609F4E3C0C4010F
:1012E0000E94602A811101C001502FEF821A920AD8
:1012F000EFCF1E821F8218861986442443942AE069
:10130000322E84010F5F1F4FC4010E94602A8E831A
:101310001F82882309F4C6C09FEF980F933060F4B2
:101320008F834E8232E0830E911CC8010E94602A96
:101330008887811102C0B6C048018E010A5F1F4F25
:10134000F80120812223E9F2213009F04CC081818B
:10135000813049F46801F2E0CF0ED11CF80182819E
:101360000E9493270AC0823051F46801F2E0CF0E48
:10137000D11CF80182810E948926860186C08330B3
:1013800049F46801F2E0CF0ED11CF80182810E947D
:101390002226F3CF843019F00F5F1F4F76C0F8017B
:1013A00022810E5F1F4F80E090E030E02053310932
:1013B0002A30310568F4389EA001399E500D112461
:1013C000C901840F951F0F5F1F4FF8012081EDCFDA
:1013D000009709F45AC0EFE9FFE03197F1F700C038
:1013E00000000197F5CFE22FF0E0E853FE4F549054
:1013F000822F86958695869590E0FC01E854FE4FF5
:1014000064902770712C022E02C0759467940A9420
:10141000E2F7F1E06F227724FC01E855FE4FA4903B
:10142000B12C022E02C0B594A7940A94E2F731E0E1
:10143000A322BB24FC01E856FE4FC490D12C02C06D
:10144000D594C7942A95E2F781E0C822DD2461147F
:10145000710419F081EE0E948926A114B10419F0DB
:1014600086EE0E948926852D0E949327AB2819F0CD
:1014700086EE0E942226672819F081EE0E9422261D
:10148000CD2819F08CE20E9493270F5F1F4F58CF91
:1014900000313FE5130709F05BC481E00E94B125EC
:1014A0000E944C1680912302877009F45AC4F701F8
:1014B0008281882309F455C482E029960FB6F894F6
:1014C000DEBF0FBECDBFDF91CF911F910F91FF9077
:1014D000EF90DF90CF90BF90AF909F908F907F90D4
:1014E0006F905F904F903F900C94EE120031FFE5AB
:1014F0001F0711F481E005C001312FE5120721F427
:1015000082E00E94BD25CCCF033FFCE51F0799F484
:1015100006E221EE40EE63EF7CE509C0073DECE515
:101520001E0711F506E221EE41EE67ED7CE5C701ED
:101530000E94C221B7CF043F2CE5120708F03FC13B
:10154000083D3CE5130731F407E225EE45EE68ED72
:101550007CE5EDCF093D9CE5190701F708E221E0A4
:1015600045EE69ED7CE5E3CF882309F45DC1109277
:101570008D0202309CE5190708F440C10631ECE504
:101580001E0730F0C8018A5F9C45099708F036C1F4
:101590000E94BD1190939B0280939A020031FCE55A
:1015A0001F0709F4C3C008F041C008303CE5130729
:1015B00009F49AC0F0F404309CE5190709F487C0D7
:1015C00068F40230FCE51F0709F477C003301C45BE
:1015D00009F0E5C080919A02826076C006303CE551
:1015E000130709F46EC008F07BC080919A028860EE
:1015F0006BC00C309CE5190709F485C068F40A300B
:10160000FCE51F0709F474C008F079C00E94F825B2
:1016100080919A02806858C00E303CE5130709F4A7
:1016200076C008F07FC080919A028BC00B3F9CE58A
:10163000190709F44FC018F50331FCE51F0709F439
:101640007DC078F401313CE5130709F473C0023121
:101650001C4509F0A4C00E94F82580919A028F775A
:1016600033C005319CE5190709F472C008F486C03F
:101670000A3F1C4509F093C080919B023EC00F3F7A
:101680002CE5120709F45FC058F40D3F8CE51807EC
:1016900009F444C008F43FC080919B0282602DC0D1
:1016A0000130EDE51E0709F475C008F45DC0023095
:1016B0001D4509F074C060E06EC080919A0281609F
:1016C00003C080919A02806180939A0268C08091E1
:1016D0009A0211C080919B02826080939B025FC03E
:1016E00080919A028062F0CF80919A028064ECCF60
:1016F00080919A0288608460E7CF8160EECF80910C
:101700009A028E7FE1CF80919A028D7FDDCF80910A
:101710009A02877FD9CF80919B0218C080919B024B
:101720008D7FDBCF80919A028F7ECECF80919A02FF
:101730008F7DCACF80919A028F7BC6CF80919A020B
:10174000877F8B7FC1CF80919B028D7F8E7FC5CF9E
:1017500080919A0282FB222720F991E0922790FB48
:1017600082F990FB83F9B0CF80919B02982F9095DE
:1017700091708E7F892B90FB81F9AFCF0E94F82565
:1017800080919A0287FB222720F991E0922790FB13
:1017900087F99ACF61E08EE090E00E946E2A609116
:1017A0009A0210919B0284E090E00E946E2A612FC1
:1017B00082E290E00E946E2A0E94F82573CE053FD7
:1017C000FCE51F0731F406E221EE42EE65EF7CE511
:1017D000AECE053F2CE5120730F407E225EE44EECD
:1017E00064EF7CE5A4CE063F3CE5130709F0BCCED0
:1017F00007E225EE46EE66EF7CE599CE06318CE5F4
:10180000180719F5809126028A7A91E009F490E090
:101810009093CA01882311F065E301C069E28BEC63
:1018200091E00E9444210EC006311C4509F056C0CB
:101830008091CA01882309F492C265E38BEC91E0A0
:101840000E940B210E943E122DCE0E3D3CE5130757
:10185000B9F140F401159CE5190789F001301C45E8
:10186000E1F03CC00B35FDE51F07A9F10C352DE576
:10187000120749F10A351D4589F581E02DC00E9406
:10188000F8258FEF94E3ECE081509040E040E1F7E1
:1018900000C000000E94712005CE80919402982F14
:1018A0009095917090FB80F980939402992319F0A0
:1018B0008AE592E002C088E492E00E94BC07F2CD83
:1018C0000E94CE11EFCD80919B0282FB882780F988
:1018D00091E0892701C080E00E94C212F701828155
:1018E00000811181882349F0C8010E942725D82E44
:1018F000682FC8010E94822504C0C8010E94562595
:10190000D82EB8018D2D0E949F220E942310B82E40
:10191000192F982EF7010281A580A2949FE0A92299
:1019200080912302877099F0002389F0812F807FB6
:10193000803421F080E28B0D883048F082E00E94F4
:10194000EE12809123028770DD24D3948111D12C73
:10195000C12EC2948FE0C8228C2D90E08C3091056E
:1019600008F0C2C1FC01EA5AFF4F0C94C22A812F31
:10197000807F1F70882311F01295107F0023B9F02B
:10198000112309F49DC180E28B0D883010F0911075
:1019900006C080912602182B1093260205C0809164
:1019A0002502182B109325020E943E1289C18B2D0F
:1019B0000E942226112309F497C180E28B0D109515
:1019C000883010F0911006C08091260218231093E1
:1019D000260205C0809125021823109325020E943B
:1019E0003E1282C1812F807F1F70803211F01295CC
:1019F000107F8B2D992021F0F1E09F1611F130C05E
:101A00000023B1F0AA2081F021E0A2120DC0809144
:101A10009B0282FD69C180912702182B181709F4D7
:101A200063C11093270260C180912702812B10C0EF
:101A3000AA2021F031E0A31609F456C10E94381201
:101A400027C0002341F085E08A1508F44DC1812F9D
:101A50000E94182649C194E09A1508F445C118C09F
:101A6000002349F0AA2099F3F701858180FF28C15E
:101A70008F708583ECCFAA2059F0893309F031C1EA
:101A8000FFEF27EE33E0F15020403040E1F727C16F
:101A9000812F0E940D2628C1812F869586958370FF
:101AA00019F0813061F020C1002321F08B2D912F9E
:101AB000937002C080E090E00E94A0211BC100232F
:101AC00021F08B2D912F937002C080E090E00E9456
:101AD0008A2110C18B2D002319F00E94972402C087
:101AE0000E949E230E94F22205C1812F8370A9F5D6
:101AF0000111FEC04B2D429546954770440F440F8F
:101B00008B2D8F7090E09C01042E01C0220F0A944F
:101B1000EAF7B4FE08C08FE090E001C0880F4A9554
:101B2000EAF7809501C080E0169516951370123083
:101B300069F088F490912802113019F0822B8923E2
:101B400002C0922B892B0E94C825D2C0822B909173
:101B500028028927F8CF822BF6CF002319F0812F96
:101B6000817001C08695882309F4C2C04B2D42952F
:101B700046954770440F440F8B2D8F7090E09C0169
:101B8000042E01C0220F0A94EAF7B4FE08C08FE0C9
:101B900090E001C0880F4A95EAF7809501C080E087
:101BA000169516951370123059F078F490915E02E4
:101BB000113019F0822B892309C0922B892B06C082
:101BC000822B90915E02892701C0822B0E94AD2555
:101BD0008FC01F70002339F0812F0E94BD258B2DEF
:101BE0000E94182685C08B2D0E940D26812F0E94F1
:101BF000B1257EC08B2D92EF991659F1991538F0C9
:101C0000E0EF9E1659F0F1EF9F16F1F055C023EF6B
:101C1000921631F134EF931681F14EC0002379F022
:101C200084E08A1508F460C01F7181E090E001C073
:101C3000880F1A95EAF790915E0289271BC095E0FC
:101C40009A1508F451C0F0CF002329F0812F8F712D
:101C500026C00023D9F3812F8F710E94B12544C083
:101C6000002339F01F7181E001C0880F1A95EAF74F
:101C700001C080E00E94AD2537C0002399F01F719C
:101C8000812F0E94BD2580919B0282FD07C0E8E064
:101C90001E9FC0011124836080932302812F0E9424
:101CA000BD2522C081E00E94EE12F1E0FA15E0F4B9
:101CB00082E00E94EE1218C0002331F0AA2031F217
:101CC0008B2D0E94892610C0AA2029F2893349F45D
:101CD0002FEF37EE83E0215030408040E1F700C025
:101CE00000008B2D0E94222688EF8C0D843010F48A
:101CF0000E94B621DD20A9F18091230280FD31C030
:101D0000F70112828595859585950E94BD25C701AD
:101D10000E940609809123028595859585952996CF
:101D20000FB6F894DEBF0FBECDBFDF91CF911F91EC
:101D30000F91FF90EF90DF90CF90BF90AF909F906A
:101D40008F907F906F905F904F903F900C94B12553
:101D500001319FE5190709F0D7CB82E09FCB69E2FB
:101D60006DCD29960FB6F894DEBF0FBECDBFDF91C3
:101D7000CF911F910F91FF90EF90DF90CF90BF9088
:101D8000AF909F908F907F906F905F904F903F901B
:101D900008958295982F937344E0949F90011124A5
:101DA0008C7C86958695282B822F8575880F2A7ABC
:101DB0002695822B089590919A0292FF0DC0282FAC
:101DC0002871283019F4877F846006C0282F247179
:101DD000243011F48B7F886093FF0DC0282F287169
:101DE000283119F4877E846106C0282F247124319C
:101DF00011F48B7E886120919B0220FF0DC0382F4B
:101E00003871383019F4877F816006C0382F3171FE
:101E1000313011F48E7F886021FF0DC0282F28718A
:101E2000283119F4877E816106C0282F2171213164
:101E300011F48E7E886194FD877E0895F894E82FD2
:101E4000E295EF70F0E031A1282F2F7081E090E053
:101E500001C0880F2A95EAF7982F9095932391A3B4
:101E600092A1892B82A3789408956F927F928F928A
:101E70009F92AF92BF92CF92DF92EF92FF920F9319
:101E80001F93CF93DF93CDB7DEB72A970FB6F894A1
:101E9000DEBF0FBECDBFAE014F5F5F4F7A018AE05C
:101EA000DA011D928A95E9F706E511E06A018BE5F2
:101EB000682E81E0782E88248394912CF80180810B
:101EC0008F3F09F44DC0F894E82FE295EF70F0E0F1
:101ED00021A18F70A40102C0440F551F8A95E2F71B
:101EE000CA01922F982B91A392A18095892382A356
:101EF000789400C0EBE5F1E020E030E0A12CB12CBB
:101F000081918F3FC1F0A82FA295AF70B0E090965D
:101F10004C9150E08F70DA0102C0B595A7958A9573
:101F2000E2F7A0FD08C0C401022E02C0880F991F6D
:101F30000A94E2F702C080E090E0A82AB92A2F5F55
:101F40003F4F2F303105E1F6F80180818F3F11F0CE
:101F50000E941E0FF0EAFA95F1F7D601AD92BC92FD
:101F60000F5F1F4FB2E0CB0ED11C6016710609F057
:101F7000A5CF4AE050E0B7018FE592E00E94E32A46
:101F800011E0009709F410E0892B89F08AE0F7014D
:101F9000AFE5B2E001900D928A95E1F781E0809380
:101FA0002B020E94D62090932A02809329028091CE
:101FB0002B02882391F18091290290912A020E949C
:101FC000BB20059750F180915F0290916002909341
:101FD00075028093740280916102909162029093E5
:101FE00077028093760280916302909164029093CD
:101FF00079028093780280916502909166029093B5
:102000007B0280937A02809167029091680290939C
:102010007D0280937C0210922B02812F2A960FB6AC
:10202000F894DEBF0FBECDBFDF91CF911F910F910E
:10203000FF90EF90DF90CF90BF90AF909F908F90E8
:102040007F906F900895CF93DF938238910569F167
:10205000B0F48133910509F46FC048F489329105D9
:1020600009F465C08A32910509F46BC08AC08533D2
:10207000910509F457C089339105B9F082C0833EB8
:10208000910571F138F4803E9105B1F0823E9105E1
:1020900011F177C0863E9105B9F1873E9105C9F1EE
:1020A000843E910509F06DC024C020919A0220FD64
:1020B00053C021FD51C065C080919A0280FD46C089
:1020C00080919B0280FF48C080919A0284FD50C19C
:1020D00083EE90E04FC180919A0282FF3AC0F4CF24
:1020E00080919A0282FD35C080919B0280FD34C0B0
:1020F000EBCF80919B0281FF35C080919A0284FDD5
:1021000037C187EE90E036C180919A0283FF27C0E5
:10211000F4CF80919A0283FD22C080919B0281FDC1
:1021200021C0EBCF80919A0285FD1FC021C0809114
:102130009A0285FD1DC019C080919A0286FD1BC0C0
:102140001DC080919A0286FD19C015C089E390E0F8
:1021500011C182EE90E00EC180EE90E00BC186EEE0
:1021600090E008C184EE90E005C189E290E002C1F0
:1021700085E390E0FFC08AE290E0FCC081E390E05C
:10218000F9C0811531E5930708F069C0811540E574
:102190009407F0F09C0174E0369527957A95E1F765
:1021A000922F9370482F437021E030E002C0220F3D
:1021B000331F4A95E2F73C68392B982F9F7096950C
:1021C000969540E2949FC0011124822B932BD2C09C
:1021D000883E910568F5803E910508F0CBC0883AAD
:1021E0009105B8F4853A910548F0855AE82FF0E05A
:1021F000EF5EFE4F808190E09064BCC0813091051D
:1022000009F4B3C008F4B4C08430910508F4B0C038
:10221000B1C08F3B910508F0ABC0885AE82FF0E0C1
:10222000EE0FFF1FEC5EFE4F808191819464A2C08F
:10223000811520E2920758F4811531E0930708F0E8
:1022400099C0803F910508F493C0906593C08115B3
:1022500040E4940708F48CC09F70906A8BC081158D
:1022600025E5920708F042C0811534E5930728F070
:10227000982F8827846F906A7DC0811543E5940765
:10228000B0F09C012370332741E050E002C0440FBE
:10229000551F2A95E2F7282F2695269580E2289F3C
:1022A00090011124CA01822B932B9A6863C0811577
:1022B00022E5920728F4982F8827816F906A5AC0E8
:1022C0009C012370332741E050E002C0440F551FAA
:1022D0002A95E2F7282F2695269580E2289F9001DF
:1022E0001124CA01822B932B9C6844C0EC018115F8
:1022F00039E59307A8F48115984528F09C2F882785
:10230000806F906A37C0C11586E5D80788F58C2F95
:102310000E94DB0E8F7190E0982F882790622AC070
:1023200081152AE5920790F48C2F8F700E94DB0EA6
:1023300094E0D695C7959A95E1F7CF70D0E0DC2F61
:10234000CC27D0699E01282BC90114C09056811555
:10235000904270F48D2F8F710E94DB0E282F2F7109
:10236000CE0199279062922B05C081E090E002C0D7
:1023700080E090E0DF91CF910895CF9384E090E0EA
:102380000E94602AC82F82E290E00E94602A2C2FCF
:1023900030E0A901582BCA01CF91089569EE7EEF74
:1023A00080E090E00E948C2A60E082E090E00E9451
:1023B0006E2A60E083E090E00E946E2A109228026C
:1023C00060E084E090E00E946E2A60E082E290E0AB
:1023D0000E946E2A60E085E090E00E946E2A60E034
:1023E00086E090E00E946E2A6FEF87E090E00E9406
:1023F0006E2A40E050E0BA0188E090E00E94802A16
:1024000060E08DE090E00E946E2A40E050E0BA016A
:1024100088E190E00E94802A60E087E190E00E94DD
:102420006E2A40E050E0BA018CE190E00E94802AE0
:1024300060E070E080E290E00E948C2A40E050E092
:10244000BA0188E190E00E94802A80E00E94AC22DC
:102450000E94CA2240E050E0BA018FE090E00E9462
:10246000802A40E050E0BA0183E190E00C94802A99
:10247000809127028111109227020895EF92FF9216
:102480000F931F93CF939091260280912502892B61
:1024900020912402982F922B9093CB0180912702B8
:1024A0008823D9F0892B8093CB0180910001882368
:1024B00031F080919A0287FF02C08EE101C086E070
:1024C000EDECF1E090E0815028F021912223D9F346
:1024D0009F5FF9CF91110E943812E0919002F09124
:1024E0009102309709F448C080910001882359F087
:1024F00080919A0287FF07C08091CB018093CC0125
:1025000085E08093CB010280F381E02D8BEC91E09C
:1025100009958091940282FF2FC080FF04C088E853
:1025200092E00E94BC070BEC11E0C8E082E8E82EC4
:1025300082E0F82E8091940280FF0CC0F801808127
:102540001F928F93FF92EF920E9455080F900F9069
:102550000F900F90C1500F5F1F4FC111EBCF8091B3
:10256000940280FF09C080E892E0CF911F910F9103
:10257000FF90EF900C94BC07CF911F910F91FF90AB
:10258000EF900895CF93DF93C0919B02C2FB9927F0
:1025900090F9981701F1D82F80FBC2F9C0939B02E4
:1025A00060919A0284E090E00E946E2A6C2F82E291
:1025B00090E00E946E2A8091940280FF0CC01F92CE
:1025C000DF938BE692E09F938F930E9455080F90C4
:1025D0000F900F900F90DF91CF91089520912302DB
:1025E0008095822380932302982F977041F430E0E6
:1025F000482F082E000C550B2417350721F4909115
:102600009B0292FF07C08595859585950E94B1250F
:10261000109223020895809122029091F10189176E
:1026200019F08F5F8770FBCF08950F931F93CF939F
:10263000DF938091F00182958F7009F05DC08091E9
:10264000ED01882309F458C0809122021091F10114
:102650006091EB017091EC01C091EE01D091EF011E
:1026600091E06F3F09F090E0292F06E0811709F40F
:1026700043C0209721F07F3F21F030E003C031E0DC
:1026800001C0322F90E030FD34C0089FF001099F57
:10269000F00D1124DF01AE50BE4F11963C91119701
:1026A000371327C03C91361324C012963C911297E1
:1026B00031111FC013964D915C9114974C1B5D0B0B
:1026C000483C5105B0F48091F0018F708061809397
:1026D000F001E950FE4F80818F70806180838BEE26
:1026E00091E00E940609DF91CF911F910F910C9408
:1026F0000B1301968770BACFDF91CF911F910F9185
:102700000895CF93DF93EC010E942725BE010E941C
:102710009F220E942310DF91CF9108959F92AF9244
:10272000BF92CF92DF92EF92FF920F931F93CF93BE
:10273000DF93CDB7DEB761970FB6F894DEBF0FBE5B
:10274000CDBF8C0185E0F801DE011D9601900D9250
:102750008A95E1F7F801E2809091EB016091EC013C
:102760004091EE015091EF014115510531F06F3F5D
:1027700031F481E09F3F19F403C081E001C080E0A3
:10278000F82FF1709F2E80FD1AC1F8013081218150
:10279000C380D4808BEEA82E81E0B82EF090ED019E
:1027A000F601E41BF50BFF2009F4C6C08091F0018F
:1027B000E83CF10508F091C0482F407F09F050C077
:1027C000621311C093130FC0FE2CE1100CC08F7068
:1027D00080618093F001C5010E9406098091F0019B
:1027E000F801858329C1CD2831F02F3F31F481E0F4
:1027F0003F3F19F403C081E001C080E080FD03C0C9
:1028000081E08E2502C080E090E0F82FF170FF2E6D
:1028100080FF1CC0809122024091F10156E0841794
:1028200009F4E8C090E0589FF001599FF00D112481
:10283000EE50FE4F6181261306C06081631303C012
:102840006281E61203C001968770E9CFFE2CEE206C
:1028500009F4F2C08091F00181608093F00149C0D9
:10286000621306C0931304C0E11002C0F80186C0D1
:10287000C8010E94CC25882351F1EE2041F120911E
:10288000F001822F82958F7090E0029774F0809112
:10289000EB019091EC0198878F831986DB86CA86BD
:1028A0002C87CE0107960E94060986E0F801ABEE60
:1028B000B1E001900D928A95E1F70E9415130AC0CC
:1028C0006217C9F0C8010E94CC2581111EC0C80141
:1028D0000E940609FF24F394AFC0482F407F81F780
:1028E0008BEE91E00E94060986E0F50111928A952F
:1028F000E9F7F12CA1C09313E5CFE110E3CFF80184
:102900008583C8010E94060954C0EE2001F320917E
:10291000F001822F82958F7090E0029734F28091BF
:10292000EB019091EC019A8389831B82DD82CC823A
:102930002E83CE010196B7CFE83CF105D0F5FE2CF1
:10294000EE2029F2621327C0931325C02091F001D5
:1029500020FD18C0822F82958F70482F50E04115BE
:10296000510581F0F80125834F30510541F08F5F0B
:10297000982F9295907F822F8F70892B8583C80125
:102980000E94060986E0F801ABEEB1E001900D92DD
:102990008A95E1F751C0C8010E94CC25811185CFED
:1029A0008091F00181608093F001C8010E940609C6
:1029B00043C086E0F50111928A95E9F73DC0EE200B
:1029C00009F485CFC8010E94CC25F82E882309F48C
:1029D0007ECF86E0F801ABEEB1E001900D928A95D2
:1029E000E1F78091EB019091EC010E9481130E942C
:1029F000151322C03D872E878D859E850E948113E9
:102A0000292F22952F70223028F49F7039F08111E0
:102A100005C00BC0243028F49F7049F4805E8830D4
:102A200020F0C8010E9406099F2CF92C05C0F8016E
:102A30009581907F99F7F9CF8F2D61960FB6F89415
:102A4000DEBF0FBECDBFDF91CF911F910F91FF90E1
:102A5000EF90DF90CF90BF90AF909F9008958091BE
:102A6000560287FF11C08091E80082FD05C0809169
:102A700054028111F8CF11C08091E8008B770BC010
:102A800080915402882349F08091E80080FFF8CFBC
:102A90008091E8008E778093E8000895982F973012
:102AA00068F59093E900981739F07091EC00209147
:102AB000ED005091F00003C0242F762F50E021FD4F
:102AC00002C09F5FECCF3091EB003E7F3093EB0074
:102AD0003091ED003D7F3093ED003091EB0031609F
:102AE0003093EB007093EC002093ED005093F000D6
:102AF0002091EE0027FDE5CF80E008958F70809350
:102B0000E90081E0089520915C0230915D02261772
:102B1000370748F06115710539F42091E8002E77E8
:102B20002093E80001C0B901FC0120E061157105A6
:102B300079F1809154028823F1F18530F1F180918F
:102B4000E80083FD3CC08091E80082FD2EC08091AA
:102B5000E80080FFEBCF2091F3008091F20090E03D
:102B6000922B6115710551F08830910538F421914F
:102B70002093F100615071090196F3CF21E008978D
:102B800009F020E08091E8008E778093E800CECFB6
:102B90002111CFCF0AC080915402882361F0853083
:102BA00061F08091E80083FD0AC08091E80082FF17
:102BB000F2CF80E0089582E0089583E0089581E0F7
:102BC00008959FB7F89410922D029FBF90915402E0
:102BD000943009F057C09091E9009F703091EC005B
:102BE000232F217030FD20E8922B25E02093E9006F
:102BF0002091EB0020FF43C02091EE0027FF3FC053
:102C000020912C02222321F02091E80025FF37C0DB
:102C100010922C0226E03091E80035FD15C030916D
:102C20005402343061F53091EB0035FD28C021505D
:102C300021F481E080932C0222C0EFE9FFE031977C
:102C4000F1F700C00000E7CF8093F1008091E80029
:102C500085FD0AC08091E80080FFFCCF8091E800EC
:102C60008E778093E80006C08FB7F89421E0209318
:102C70002D028FBF9F709093E90080E008959F70B0
:102C80009093E9008FEF0895BC0184E00C944720F5
:102C9000BC0183E00C94472080915E02982F9670CF
:102CA000963011F4886001C0877F0C94AD251F9386
:102CB000CF93DF93CDB7DEB7AA970FB6F894DEBFF8
:102CC0000FBECDBFE6E5F2E08EE592E02091F10087
:102CD00021938E179F07D1F780915702833009F413
:102CE00062C030F4813071F0823009F49CC0B3C00E
:102CF0008A3009F488C08B3009F46DC0893009F03E
:102D0000AAC020C080915602813A09F0A4C08091E7
:102D1000E800877F8093E80080915A0290915B02DF
:102D2000892B21F460E282E392E003C060E080E05E
:102D300090E070E00E9483158091E8008B7780938B
:102D4000E80089C080915602813209F084C08091E8
:102D50005A0290915B02009719F0029709F07BC02C
:102D60008091E800877F8093E8008091E80082FDF1
:102D700005C0809154028111F8CF6DC02091F300FD
:102D80008091F20090E0922B029729F48091F1005B
:102D90008B7F813021F48091F1008093310280910A
:102DA000E8008B7754C080915602813A09F053C0F5
:102DB00080915A0290915B02892B09F04CC080915E
:102DC000E800877F8093E8008091E80080FFFCCFD7
:102DD0008091000137C0809156028132E1F58091E7
:102DE0005A0290915B02892BB1F58091E800877FB0
:102DF0008093E8000E942F15809158028093000173
:102E00000E94F82528C080915602813221F58091D8
:102E1000E800877F8093E8000E942F158091590277
:102E20008093300218C080915602813AA1F48091BB
:102E3000E800877F8093E8008091E80080FFFCCF66
:102E4000809130028093F1008091E8008E7780932A
:102E5000E8000E942F158091E80083FFE3C1809174
:102E6000560290915702492F50E04A30510508F020
:102E7000D9C1FA01EE59FF4F0C94C22A803821F0D3
:102E8000823809F0CFC108C080915202909153025C
:102E9000992389F082600FC080915A028F70873029
:102EA00008F0C0C18093E9008091EB0085FB882782
:102EB00080F91092E9009091E800977F9093E800E4
:102EC0008093F1001092F10071C1282F2D7F09F03D
:102ED000A9C1882319F0823061F0A4C18091580201
:102EE000813009F09FC1933009F080E08093530254
:102EF0002EC08091580281112AC080915A028F7091
:102F00002FEF280F263008F08DC18093E900209123
:102F1000EB0020FF1CC0933021F48091EB00806215
:102F200014C09091EB0090619093EB0021E030E0B1
:102F3000A90102C0440F551F8A95E2F74093EA00A9
:102F40001092EA008091EB0088608093EB00109271
:102F5000E9008091E800877F8093E8000E942F15A8
:102F600061C181115FC1109158021F778091E30008
:102F70008078812B8093E3008091E800877F8093A5
:102F8000E8000E942F158091E80080FFFCCF80911F
:102F9000E30080688093E300111102C082E001C069
:102FA00083E0809354023EC18058823008F03AC1D9
:102FB00020915802309159022C3D53E0350779F5A4
:102FC00083E08A838AE289834FB7F894DE011396FF
:102FD00020E03EE051E2E32FF0E050935700E4910F
:102FE00020FF03C0E295EF703F5FEF708E2F90E0FF
:102FF000EA3010F0C79601C0C0968D939D932F5F65
:10300000243149F74FBF8091E800877F8093E80023
:103010006AE270E0CE0101960E948315B5C08091EE
:103020005A0290915B02432F552743305105A9F076
:1030300068F44130510509F404C14230510509F0EA
:10304000F1C08BE790E0E8EEF3E04BC04132510570
:1030500029F14232510589F1E5C0C9019927813032
:103060009105A1F058F0029709F0DCC0E5E7F4E023
:10307000E4918E2F90E0E5E7F4E030C0E3ECF4E07B
:10308000E4918E2F90E0E3ECF4E028C0EFEAF4E066
:10309000E4918E2F90E0EFEAF4E020C084309105B7
:1030A00008F0C0C0880F991FFC01E25BFE4F019041
:1030B000F081E02D89E090E014C08430910508F0A3
:1030C000B1C0FC01EE0FFF1FEA5BFE4F0190F081E3
:1030D000E02DDC01AE5BBE4F8C9190E0009709F4CF
:1030E000A1C02091E800277F2093E80020915C0296
:1030F00030915D028217930708F49C0140E021158E
:10310000310589F180915402882309F43DC085304E
:10311000D9F18091E80083FD37C08091E80082FDFD
:103120002FC08091E80080FFEACF4091F3008091AA
:10313000F20090E0942B2115310559F0883091056B
:1031400040F444914093F1003196215031090196A9
:10315000F2CF41E0089709F040E08091E8008E77D7
:103160008093E800CCCF4111CDCF0AC080915402AA
:10317000882351F0853041F08091E80083FD04C040
:103180008091E80082FFF2CF8091E8008B778093F6
:10319000E80048C0803809F045C08091E800877F8A
:1031A0008093E800809155028093F1008091E800BF
:1031B0008E77D2CE811136C08091580290915902FB
:1031C000992702977CF58091E800877F8093E8003B
:1031D00010915802109355020E942F15111106C02C
:1031E0008091E30087FD02C081E001C084E080930C
:1031F000540242E061EC81E00E944E1542E261EC33
:1032000084E00E944E1542E261EC82E00E944E157D
:1032100042E260EC83E00E944E1542E261EC85E000
:103220000E944E158091E80083FF10C08091E80055
:10323000877F8093E8008091EB0080628093EB00B1
:1032400005C082E190E0E3E6F4E04BCFAA960FB62A
:10325000F894DEBF0FBECDBFDF91CF911F910895CF
:103260001F920F920FB60F9211242F933F934F93FB
:103270005F936F937F938F939F93AF93BF93CF93FE
:10328000DF93EF93FF93C091E900CF708091EC0042
:10329000D82FD17080FDD0E81092E9008091F00025
:1032A000877F8093F00078940E9457161092E9006F
:1032B0008091F00088608093F000CD2BCF70C09398
:1032C000E900FF91EF91DF91CF91BF91AF919F9175
:1032D0008F917F916F915F914F913F912F910F90BF
:1032E0000FBE0F901F901895E8EDF0E080818E7F63
:1032F00080831092E2001092DA001092E100A0EEBA
:10330000B0E08C9181608C9380818F77808319BC31
:10331000A7EDB0E08C918E7F8C9380818F7E80832F
:1033200010922F020895CF92DF92EF92FF920F93A7
:103330001F93CF93DF93C8EDD0E088818F7E888381
:10334000E7EDF0E080818160808384E082BF81E0EE
:1033500080932F0288818E7F888302EE10E0F8012F
:1033600010821092DA0081EEC82ED12CF601108264
:1033700088818F77888388818068888388818F7D22
:10338000888319BC10925402109255021092530275
:103390001092520290EEE92EF12CF70180818B7F82
:1033A000808388818160888342E060E080E00E94C1
:1033B0004E15F60180818E7F8083F80180818160C7
:1033C0008083808188608083F70180818E7F808305
:1033D000888180618883DF91CF911F910F91FF9049
:1033E000EF90DF90CF9008951F920F920FB60F923B
:1033F00011242F933F934F935F936F937F938F93FA
:103400009F93AF93BF93EF93FF938091E10082FF6F
:1034100049C08091E20082FF45C08091E1008B7F2E
:103420008093E10020912E022F5F822F62E30E94A1
:10343000A22A992319F020932E0234C010922E0252
:1034400080912D02882371F180915402843041F5DE
:103450008091E9008F702091EC00922F917020FDF7
:1034600090E8892B95E09093E9009091EB0090FF14
:1034700014C09091EE0097FF10C09091E80095FF66
:1034800003C01092F100F9CF9091E80090FF05C0C1
:103490009091E8009E779093E8008F708093E90008
:1034A00010922D028091DA0080FF32C08091D80006
:1034B00080FF2EC08091DA008E7F8093DA008091A9
:1034C000D90080FF1CC080E189BD82E189BD09B4BB
:1034D00000FEFDCF81E08093540284ED93E00E94D2
:1034E000BC0780912F02811113C00E9474190E94A1
:1034F00093198091E20084608093E20009C019BCB6
:103500001092540288ED93E00E94BC0710922F02A3
:103510008091E10080FF1BC08091E20080FF17C016
:103520008091E2008E7F8093E2008091E2008061D2
:103530008093E2008091D80080628093D80019BC0B
:1035400085E0809354028CED93E00E94BC0780914B
:10355000E10084FF32C08091E20084FF2EC080E150
:1035600089BD82E189BD09B400FEFDCF8091D800FC
:103570008F7D8093D8008091E1008F7E8093E10061
:103580008091E2008F7E8093E2008091E200816072
:103590008093E20080915502882311F084E007C0F7
:1035A0008091E30087FD02C081E001C083E0809349
:1035B000540280EE93E00E94BC078091E10083FFFB
:1035C0002BC08091E20083FF27C08091E100877FBC
:1035D0008093E10082E08093540210925502809122
:1035E000E1008E7F8093E1008091E2008E7F8093E6
:1035F000E2008091E20080618093E20042E060E0BE
:1036000080E00E944E158091F00088608093F00069
:1036100084EE93E00E94BC07FF91EF91BF91AF91C0
:103620009F918F917F916F915F914F913F912F91DA
:103630000F900FBE0F901F9018952091E4003091CD
:10364000E50095E64091EC00842F817040FF23C097
:103650008091E80080FD1DC080915402882399F07C
:10366000853099F08091EB0085FD11C04091E40018
:103670005091E5002417350729F3915011F09A0174
:10368000E1CF84E0089582E0089583E0089581E029
:10369000089580E008954091E80042FFDDCF08954D
:1036A000EF92FF920F931F93CF93DF937C018B01D7
:1036B0000E941D1B811119C0E70101151105A1F020
:1036C0008091E80085FD0AC08091E8008E778093A4
:1036D000E8000E941D1B882381F307C08991809315
:1036E000F10001501109E9CF80E0DF91CF911F91E6
:1036F0000F91FF90EF900895CF93DF93CDB7DEB792
:10370000AB970FB6F894DEBF0FBECDBF84B7877FEF
:1037100084BF0FB6F894A89580916000886180936B
:103720006000109260000FBE90E080E80FB6F89441
:1037300080936100909361000FBE85B7806885BF5C
:1037400085B7806885BF81EE95E19093C90180932C
:10375000C8010E9474190E9493198091E20084604C
:103760008093E2007894809154028823A1F0109114
:10377000E9001F709091EC00892F817090FD80E826
:10378000182B1092E9008091E80083FD0E945716E3
:103790001F701093E90082E084BD93E095BD9AEF1D
:1037A00097BD80936E000E94D922811102C00E94B1
:1037B000CA2206E511E0BBE5EB2EB1E0FB2EF801D5
:1037C00081918F018F3F11F00E941E0FE016F106CC
:1037D000B1F70BE511E0AAE6EA2EA1E0FA2EF80116
:1037E00081918F018F3F11F00E941E0FE016F106AC
:1037F000B1F7EFE5F2E089E692E0A4E7B2E01192DA
:1038000011921D921D928E179F07C9F780E090E0DC
:103810000E94682A893E9E4F21F40E94D92281117C
:1038200002C00E94CE1182E090E00E94602A809344
:1038300094020E94BD1190939B0280939A020E9471
:10384000350F8FE39CE90197F1F700C000000E945B
:10385000350F8091740280FF08C06FEF7FEF80E02A
:1038600090E00E948C2A0E94712083E090E00E94E8
:10387000602A0E94C82581E091E090939102809394
:10388000900287EC94E00E94BC078091540285303E
:1038900009F04CC089E195E00E94BC07F0E4FF2EDE
:1038A00000E112E180915402853009F03BC0809123
:1038B0005402843019F110929502E8E1F0E00FB65D
:1038C000F894A895E09360000FBEF092600083B773
:1038D000817F846083BF83B7816083BF789488953C
:1038E00083B78E7F83BF0FB6F894A8958091600050
:1038F000886180936000109260000FBE8091530237
:10390000882309F4CFCF0E94350FE4E7F2E08191DC
:103910009191892B09F034C32EE732E02E173F072F
:10392000B1F7C0CF0E94F8250E94B6210E94350F42
:1039300081110E94CA207AE6672E72E0772EE4E7B2
:103940004E2EE2E05E2E00E010E00BA7F201A19007
:10395000B1902F01F301C190D1903F01CA24DB2423
:10396000C114D104B1F40F5F1F4F0530110569F781
:103970008FEF8EA38FA318A60E94D6208160782F88
:103980009AA789A74EA15FA168A58AA50E945E0893
:1039900077C08091940281FD05C080E0EE24E3941D
:1039A000F12C48C088EE94E00E94BC0754E7852EB5
:1039B00052E0952EE12CF12CFF92EF9223EE34E0B1
:1039C0003F932F930E94550880EE94E00E94BC071D
:1039D000F40180812180F2E08F0E911C0E94C90EBB
:1039E000382E822D0E94C90E232D30E0322F22273F
:1039F000A901482BCA019F938F938AED94E09F936E
:103A00008F930E94550888ED94E00E94BC07FFEF59
:103A1000EF1AFF0A0FB6F894DEBF0FBECDBF35E038
:103A2000E316F10449F6B9CF8F5FEE0CFF1C8F301F
:103A300009F499CF96012E213F21232BA9F389A3C5
:103A40004BA54AA3AE20BF2081E0AB2809F480E05B
:103A50008BA30E94D6208160782F9DA38CA349A1BF
:103A60005AA16BA18DA10E945E08000F111FF801E1
:103A7000E659FD4F80819181E826F926F182E082A6
:103A800086E0E5E8F2E08E010F5F1F4FD80101905C
:103A90000D928A95E1F7C0908702D0908802E0905D
:103AA0008902F0908A021092870210928802109286
:103AB000890210928A02C11003C0DD2009F45DC0A2
:103AC00080918302909184020E94BB20AC0190916E
:103AD0008002992339F020910F0130E02417350737
:103AE00058F04BC0209110018AE0289F90011124CA
:103AF0002417350718F041C09F3F19F09F5F90933E
:103B00008002CC2061F00E944E241C1414F491E039
:103B100001C09FEF899F802D112480938702DD20B3
:103B200061F00E944E241D1414F491E001C09FEF37
:103B3000899F802D1124809388023091870233233E
:103B4000E1F0209188022223C1F045EB3403C0014B
:103B50001124992319F09093870203C081E0809388
:103B6000870255EB2503C0011124992319F0909386
:103B7000880203C081E080938802E11003C0FF2027
:103B800009F451C080918102909182020E94BB2071
:103B90009C0190917E02992309F411C225363105CA
:103BA00008F441C09F3F19F09F5F90937E02EE2082
:103BB00061F00E9415241E1414F491E001C09FEFDF
:103BC000899F802D112480938902FF2061F00E943B
:103BD00015241F1414F491E001C09FEF899F802DDC
:103BE000112480938A02309189023323E1F02091DD
:103BF0008A022223C1F045EB3403C001112499232A
:103C000019F09093890203C081E08093890255EBFB
:103C10002503C0011124992319F090938A0203C04F
:103C200081E080938A028091870281110BC080918C
:103C30008802811107C080918902811103C080919F
:103C40008A0281110E94F222CB82DC82ED82FE8206
:103C500086E0F801A5E8B2E001900D928A95E1F7BF
:103C60000E94B62190916902891739F10E94B6210C
:103C7000F82E809369028091940282FF1EC080FF1B
:103C800004C086E095E00E94BC078091940280FF0A
:103C90000CC01F92FF9281E095E09F938F930E944A
:103CA00055080F900F900F900F908091940280FF15
:103CB00004C08FEF94E00E94BC07809154028430CE
:103CC00009F0E3CD83E08093E9008091E80082FF72
:103CD000DCCD8091E80085FF21C00E941D1B811171
:103CE0001BC080E2E82EF12C680109C08091F10030
:103CF000F60181936F01F1E0EF1AF10869F080910C
:103D0000E80085FDF3CF8091E8008B778093E80091
:103D10000E941D1B882399F391E001C090E08091DF
:103D2000E8008B778093E800992309F4AECDE98110
:103D30008E2F90E0FC013197E331F10508F0F6C0D9
:103D4000E459FF4F0C94C22A1A8289E05DC08A812F
:103D5000823009F42BC1833051F0813009F0E6C084
:103D60000E94CA209B838C837D836E83E1C0F8010F
:103D7000CE010B96A4E7B2E02C9111963C911197DD
:103D800012963283238332968E179F07A9F7D0C0ED
:103D90008A81823009F0CAC06B817C818D819E81CD
:103DA0000E94C82A86E290E024C04C816B818A81FF
:103DB0000E9479229D8301C1CD80DE80DC24CD2448
:103DC000DC248C81EB809A812EE1E29E700111242B
:103DD00036E9939FE00CF11C1124E80EF11CE80E6B
:103DE000F11C6D2DC70187960E946E2A6C2DC701AC
:103DF00088960E946E2A9CC00E94452299C080E14C
:103E000050C081E08A8381E88B8392C0EA80FB8086
:103E1000FE24EF24FE24AC80B12C6801C701815838
:103E20009D4F9601201B310B2A153B0508F080C0E1
:103E300041E8E41641E0F40628F40E94602AF60105
:103E4000848302C0F6011482FFEFEF1AFF0A2FEFFE
:103E5000C21AD20AE3CFEA80FB80FE24EF24FE24BC
:103E6000AC80B12C6801C70181589D4F9601201B81
:103E7000310B2A153B0508F05BC031E8E31631E051
:103E8000F30620F4F60164810E946E2AFFEFEF1A18
:103E9000FF0A2FEFC21AD20AE6CF0E94352248C08D
:103EA00084E08A8345C0EA80FB80FE24EF24FE2460
:103EB000AC80B12C6801C70187969601201B310B9D
:103EC0002A153B05A8F538E5E31632E0F30628F499
:103ED0000E94602AF601848302C0F6011482FFEF7B
:103EE000EF1AFF0A2FEFC21AD20AE5CFEA80FB8051
:103EF000FE24EF24FE24AC80B12C6801C701879614
:103F00009601201B310B2A153B0590F438E5E3168A
:103F100032E0F30620F4F60164810E946E2AFFEF7E
:103F2000EF1AFF0A2FEFC21AD20AE8CF8FEF898368
:103F300080915402843009F0A8CC8091E9008F7000
:103F40002091EC00922F917020FD90E8F92EF82A34
:103F500082E08093E9008091E80080FF0CC040E09F
:103F600050E060E270E0C8010E94501B8091E800C0
:103F70008E778093E8008F2D8F708093E90085CC39
:103F800009BD19BD09B400FEFDCF8091D8008F7D19
:103F90008093D8008091E00082608093E00080915F
:103FA000E00081FDFCCF0E94F8257CCC86E290E009
:103FB0000E94602A1B821C821D828E83B9CF2D3203
:103FC000314008F0F1CD2FCE80913102089524E0E8
:103FD0002093E9002FEF3091E800215035FD06C015
:103FE00035ED3A95F1F700002111F5CF2091E80069
:103FF00025FF0BC040E050E066E070E00E94501BDF
:104000008091E8008E778093E8000895CF93DF9346
:1040100020910001222339F020919A0227FF03C04A
:1040200060E224E002C068E021E02093E9002FEF85
:104030003091E800215035FD06C035ED3A95F1F795
:1040400000002111F5CF2091E80025FF1DC0EC01F3
:1040500080910001811105C040E050E068E070E00F
:1040600003C070E040E050E0CE010E94501B809100
:10407000E8008E778093E80080E2FE01A2E3B2E0E0
:1040800001900D928A95E1F7DF91CF91089590917B
:104090005402943029F580939C0270939E026093A1
:1040A0009D029093E9008FEF9091E800815095FD7B
:1040B00006C095ED9A95F1F700008111F5CF80913A
:1040C000E80085FF0DC040E050E063E070E08CE95F
:1040D00092E00E94501B8091E8008E778093E80068
:1040E000089581E08093E00080E28093D8001092F0
:1040F000C9008FE19EE40197F1F700C0000087E05E
:1041000090EBDC018093C3029093C402A093C5029C
:10411000B093C6029CE088E10FB6F894A89580930E
:1041200060000FBE90936000FFCF78941F920F92B3
:104130000FB60F9211248F939F93AF93BF938091EB
:10414000960290919702A0919802B09199020196DF
:10415000A11DB11D8093960290939702A09398029F
:10416000B0939902BF91AF919F918F910F900FBE25
:104170000F901F9018959C014FB7F894809196026C
:1041800090919702A0919802B09199024FBF821B23
:10419000930B08952FB7F89460919602709197024F
:1041A00080919802909199022FBF08952FB7F894AB
:1041B0008091960290919702A0919802B0919902F5
:1041C0002FBF08951F920F920FB60F9211248F9355
:1041D0009F93AF93BF9380919502811113C08091FB
:1041E000960290919702A0919802B09199024196FF
:1041F000A11DB11D8093960290939702A0939802FF
:10420000B0939902BF91AF919F918F910F900FBE84
:104210000F901F90189520910001222351F12091B9
:104220009A0227FF26C0262F2695269526952E3101
:1042300078F4FC01E20FF11D677081E090E001C0AD
:10424000880F6A95EAF78095928189238283089581
:104250008091940280FF17C01F926F9382EE97E0C7
:104260009F938F930E9455080F900F900F900F907F
:104270000895FC0106962281621301C012823196D4
:10428000E817F907C1F7089520910001222349F1A9
:1042900020919A0227FF25C0262F26952695269540
:1042A0002E3170F4FC01E20FF11D677081E090E0A7
:1042B00001C0880F6A95EAF79281892B828308955D
:1042C0008091940280FF25C01F926F9384EC97E049
:1042D0009F938F930E9455080F900F900F900F900F
:1042E0000895FC0132962FEF30E04191641789F078
:1042F0002F3F19F4411101C0232F3F5F3630A9F73A
:104300002F3F39F0FC01E20FF11D27FDFA95628382
:104310000895089520919202309193022817390749
:1043200071F09093930280939202E0919002F09149
:104330009102309721F00084F185E02D09940895D1
:1043400020918E0230918F022817390771F09093D7
:104350008F0280938E02E0919002F091910230974B
:1043600021F00680F781E02D09940895E0919002F4
:10437000F0919102309721F00190F081E02D0994A5
:1043800080E008950F931F93CF93DF93C42FD22F14
:10439000FC0182818823C9F040938D020E94D620BF
:1043A00090938C0280938B0280E28C0F883008F00F
:1043B00057C0C77081E001C0880FCA95EAF7DF9146
:1043C000CF911F910F910C94182680918D02481364
:1043D00030C080918B0290918C020E94BB20883C5F
:1043E000910538F510E21D0FCD17B9F080E28C0F62
:1043F000883040F4C77081E001C0880FCA95EAF7A1
:104400000E940D26183028F581E09D2F977001C07D
:10441000880F9A95EAF70E941826802F0E9493270A
:104420001830F0F4D77081E001C0880FDA95EAF710
:104430000AC080E28C0F883098F4C77081E001C018
:10444000880FCA95EAF7DF91CF911F910F910C94D5
:104450000D26802FDF91CF911F910F910C94932700
:10446000DF91CF911F910F910895CF93DF93CFE705
:10447000D2E060E0CE010E946E2A2196C11584E050
:10448000D807B9F7DF91CF910895CF92DF92EF92DD
:10449000FF920F931F93CF93DF93C0E0D0E08E0184
:1044A0000A561F4F6E018EE1C80ED11CFE01E45961
:1044B000FA4FE590F4906F2DCE0187960E946E2AF8
:1044C0006E2DCE0188960E946E2A2296CC15DD05AF
:1044D00069F70C171D0731F7E80108351240F9F6A6
:1044E000DF91CF911F910F91FF90EF90DF90CF90D0
:1044F00008950F931F93CF93DF93C42FD0E0CC0F79
:10450000DD1F2EE1629FC00DD11D112436E9839F6E
:10451000C00DD11D1124CE0187960E94602A082F5C
:1045200010E0102F0027CE0188960E94602A980183
:10453000282BC901DF91CF911F910F910895462F2C
:10454000843038F4753028F46F3018F4672F0C94E9
:10455000792280E090E00895CF93C82F811102C0A6
:104560006FEF01C061E283E290E00E946E2AC11108
:1045700002C06FEF01C060E184E290E00E946E2A09
:10458000C11102C06FEF01C060E185E290E0CF9100
:104590000C946E2A80E00E94AC2260E086E290E0FB
:1045A0000E946E2A0E9445220E94352281E00C94CE
:1045B000AC2283E290E00E94602A813281F484E29E
:1045C00090E00E94602A803151F485E290E00E94E0
:1045D000602A91E0803109F090E0892F01C080E0ED
:1045E000817008958091940283FF7EC089E495E0F4
:1045F0000E94BC07809186021F928F9384E495E00D
:104600009F938F930E94550882E495E00E94BC0717
:1046100080918702282F082E000C330B3F938F9335
:104620008FE395E09F938F930E9455088DE395E06B
:104630000E94BC0780918802282F082E000C330BA3
:104640003F938F938AE395E09F938F930E94550841
:1046500088E395E00E94BC0780918902282F082EEC
:10466000000C330B3F938F9385E395E09F938F93DB
:104670000E94550883E395E00E94BC0780918A025E
:10468000282F082E000C330B3F938F9380E395E087
:104690009F938F930E9455088DE295E00E94BC077E
:1046A000809180021F928F938AE295E09F938F936F
:1046B0000E94550888E295E00E94BC0780917F0225
:1046C0001F928F9385E295E09F938F930E945508E8
:1046D00082E295E00E94BC078DB79EB74C960FB65C
:1046E000F8949EBF0FBE8DBF0E94D62020918702F6
:1046F000211104C020918802222321F0909384028A
:104700008093830220918902211104C020918A02A2
:10471000222321F09093820280938102E091900203
:10472000F0919102309749F082E0809385020480F5
:10473000F581E02D85E892E009940895803F39F4F1
:104740009091880297FF35C01092880259C0813F2E
:1047500029F4909188021916BCF32BC0909187021E
:10476000823F29F497FF25C01092870249C0833FFA
:1047700019F41916CCF31DC090918902893F29F4D0
:104780001916BCF4109289023BC08A3F19F497FFB6
:1047900010C0F8CF8B3F39F490918A0297FF09C07F
:1047A00010928A022DC08C3F21F490918A02191632
:1047B000BCF39CE0980F953080F421E030E0A90133
:1047C00002C0440F551F9A95E2F7CA018095909157
:1047D000860289238093860213C08D3F21F4809145
:1047E0007F028E7F0BC08E3F21F480917F028D7FF0
:1047F00005C08F3F29F480917F028B7F80937F02D9
:1048000080918702811106C080918802811102C0C7
:104810001092800280918902811106C080918A02E3
:10482000811102C010927E02089580917F0280FF64
:1048300008C060910E0170E0759567957595679554
:1048400021C081FF06C060910E0170E075956795EB
:1048500019C082FF04C060910E0170E010C09091F9
:104860007E02992399F060910D019617A0F780912F
:104870000E01899FC001112470E00E94AE2A6038A9
:10488000710540F46115710519F406C061E070E02E
:10489000862F08958FE7089581E0089580917F0223
:1048A00080FF0BC060910C0185E0689FB00111246E
:1048B00075956795759567952BC081FF09C06091C7
:1048C0000C0185E0689FB00111247595679520C0A3
:1048D00082FF07C060910C0185E0689FB001112440
:1048E00017C0909180029923D1F060910B01961727
:1048F00088F720910C0185E0289F90011124929F58
:10490000A001939F500D112470E0CA010E94AE2AAD
:104910006038710540F46115710519F406C065E051
:1049200070E0862F08958FE7089581E00895803F15
:1049300021F40E944E24819504C0813F29F40E94F5
:104940004E24809388020895823F21F40E944E24D1
:10495000819504C0833F29F40E944E2480938702EE
:104960000895893F19F40E94152405C08A3F31F447
:104970000E94152481958093890208958B3F21F42C
:104980000E941524819504C08C3F29F40E941524AF
:1049900080938A0208959CE0980F953078F421E086
:1049A00030E0A90102C0440F551F9A95E2F7CA01F1
:1049B00090918602892B8093860208958D3F21F481
:1049C00080917F0281600BC08E3F21F480917F0235
:1049D000826005C08F3F29F480917F0284608093BC
:1049E0007F020895CF93C82F1F928F938DE195E09A
:1049F0009F938F930E94550881E001C0880FCA954C
:104A0000EAF70E94C8250F900F900F900F90CF915A
:104A10000C94F82580E090E00E94A02180E090E0D6
:104A20000E948A2110922502109224020E943E12B6
:104A3000E5E8F2E086E0DF011D928A95E9F7109241
:104A4000800210927E0210927F020C94F222CF928A
:104A5000DF92FF920F931F93CF93DF936C0100912E
:104A60005E0280912802082BC7E0D0E010E0C80168
:104A70000C2E02C0959587950A94E2F780FD04C03C
:104A80002197A8F7F12C09C0FC2EB6018C2F0E94AB
:104A90009F220E942310019799F38F2DDF91CF91D0
:104AA0001F910F91FF90DF90CF9008952FE0929F7C
:104AB000800D1124682F669566956695982F9770DE
:104AC00083E0689FB001112440E050E080E0FB01EA
:104AD000E40FF51FE156FD4F208130E0092E02C0A2
:104AE000369527950A94E2F721703327042E01C0EA
:104AF000220F0A94EAF7822B4F5F5F4F4330510534
:104B000031F708952FE0929F800D1124E82FE6954C
:104B1000E695E695877051E001C0550F8A95EAF752
:104B200083E0E89FF0011124E156FD4F20E030E0E2
:104B300070E04081CB01022E02C0969587950A94C1
:104B4000E2F78170819584278523842781932F5FE5
:104B50003F4F2330310569F7089580935E020C942E
:104B60000A2521E030E001C0220F8A95EAF720955E
:104B700080915E0282230C94AD2521E030E001C0DB
:104B8000220F8A95EAF780915E02822B0C94AD2564
:104B9000809328020C940A25FC01808191810E9457
:104BA0008113292F2F70E92FE295EF704E2F50E0DF
:104BB000FA013297EE30F105B8F4E158FF4F0C944A
:104BC000C22A803F99F018F4883E70F40FC0843FE9
:104BD00059F40CC0883E50F0813F31F407C0822F59
:104BE000869586958695089580E0089581E00895DC
:104BF0001092260280910001882331F080919A0260
:104C000087FF02C08EE101C086E0EDECF1E0DF013C
:104C10001D928A95E9F70C940A25882341F0809526
:104C2000909126028923809326020C943E120895C7
:104C3000882339F090912602892B809326020C94C8
:104C40003E120895882309F463C0823869F40E94F3
:104C5000B62181FF5DC069E38BEC91E00E944421A5
:104C60000E943E1269E30EC0833891F40E94B6217F
:104C700080FF4EC063E58BEC91E00E9444210E94CE
:104C80003E1263E58BEC91E00E940B210C943E12E6
:104C9000843869F40E94B62182FF3AC067E48BEC45
:104CA00091E00E9444210E943E1267E4EBCF9CEF0A
:104CB000980F913A10F4682FE5CF90E2980F983052
:104CC00088F4877021E030E0A90102C0440F551F2D
:104CD0008A95E2F7CA0180959091260289238093F4
:104CE0002602D4CF9BE5980F933020F480E090E02B
:104CF0000C94A02198E5980F973120F480E090E083
:104D00000C948A21803F20F00E949E230C94F22272
:104D10000895CF93882309F404C1C82F8238B1F4D1
:104D20000E94B62181FDFDC069E38BEC91E00E94F9
:104D300044210E943E122FEF81EE94E021508040EA
:104D40009040E1F700C0000069E317C08338E1F448
:104D50000E94B62180FDE5C063E58BEC91E00E94E6
:104D600044210E943E122FEF81EE94E021508040BA
:104D70009040E1F700C0000063E58BEC91E00E94F9
:104D80000B21CF910C943E128438B1F40E94B621CD
:104D900082FDC7C067E48BEC91E00E9444210E9431
:104DA0003E122FEF81EE94E0215080409040E1F7D9
:104DB00000C0000067E4E1CF8CEF8C0F813AF0F582
:104DC0008091BD02813081F030F08230A1F58C2FCE
:104DD000CF910C94D82780912602823209F069C0C5
:104DE0008C2F0E94F52863C0809126028232C1F385
:104DF000C431C9F058F4CB3069F0C031B9F482E065
:104E00008093BD0288E30E94D8274CC0C93259F074
:104E1000C83361F483E09BE00E94BC0782E098E025
:104E20000E94BC073FC01092BD023FC080E098E0E6
:104E30000E94BC073AC01092BD023BC080E28C0FBA
:104E4000883068F4C77081E090E001C0880FCA958F
:104E5000EAF790912602892B8093260292CFEBE508
:104E6000EC0FE33040F4F0E0EF5EFE4F808190E025
:104E7000CF910C94A021E8E5EC0FE73150F4F0E07D
:104E8000EE0FFF1FEC5EFE4F80819181CF910C945D
:104E90008A21C03F08F445C08C2F0E949724CF91EF
:104EA0000C94F22281E0817002C080E0FCCF81117D
:104EB00038C0809100018823E1F080919A0287FF39
:104EC00018C0EC2FE695E695E695F0E0E553FE4F29
:104ED0008281282F30E04C2F477081E090E002C0A3
:104EE000880F991F4A95E2F782239323892B61F457
:104EF00012C0EDECF1E083ED91E02191C21721F0B9
:104F00008E179F07D1F707C06C2F8BEC91E00E94A2
:104F10000B210E943E126C2F8BEC91E00E944421E9
:104F200030CFCF9108951F93CF93DF93182F8933FC
:104F300019F0C0E0D0E002C0C0E5D0E0812F0E94AF
:104F40008926209741F08FE99FE00197F1F700C093
:104F500000002197F6CF812FDF91CF911F910C9404
:104F6000222680910D011F928F9380910E011F9236
:104F70008F9380910B011F928F9380910C011F9250
:104F80008F9380910F011F928F93809110011F9238
:104F90008F938AE39DE09F938F930E9455088DB76E
:104FA0009EB70E960FB6F8949EBF0FBE8DBF0895A4
:104FB000883220F58E3108F068C08B3091F1C0F452
:104FC000873009F0BEC08EE18093100182E38093A8
:104FD0000F018AE080930C0184E180930B0188E04B
:104FE00080930E0188E280930D018CE99EE0C6C09B
:104FF000833109F443C0843169F1A3C08F3409F4CB
:105000009EC028F4893231F1883359F09AC0813535
:1050100031F008F4D4C0823509F4A7C092C08FEFF4
:10502000A5C08EEB9EE00E94BC070E94B1271F9294
:1050300081E08F931F9285E08F9387EB9DE09F9394
:105040008F930E9455080F900F900F900F900F9024
:105050000F9096C08BEB9EE00E94BC078091C2022D
:10506000882309F4AAC01092C2021092C1021092C1
:10507000C0021092BF021092BE02B1C08DEA9EE043
:105080000E94BC070E94B1277BC08D518093C20251
:10509000833031F170F48130D1F0823009F03FC0BB
:1050A0008FE091E09093C1028093C00287E791E086
:1050B0001FC0853059F108F1863089F58DE091E007
:1050C0009093C1028093C00282EB91E011C080E115
:1050D00091E09093C1028093C0028EE691E008C0F7
:1050E0008CE091E09093C1028093C00283E891E04C
:1050F0009093BF028093BE0218C08BE091E0909322
:10510000C1028093C00280E991E0F2CF8EE091E08D
:105110009093C1028093C0028FE991E0E9CF109291
:10512000C2028AEA9EE00E94BC078091C2028823E4
:1051300009F455C01F928F9386EA9EE00DC08AE065
:1051400015C089E99EE01AC097FF47C01082808190
:105150001F928F9383E99EE09F938F930E9455083F
:105160000F900F900F900F900BC081E0E091C00264
:10517000F091C102309729F580E99EE00E94BC07BA
:105180002091C202222359F18091BE029091BF0268
:10519000009711F48AE691E09F938F931F922F93CB
:1051A00087E89EE09F938F930E9455080F900F9081
:1051B0000F900F900F900F9016C080E0089586EF2B
:1051C000D5CF2081082E000C990B820F911D8F3FA7
:1051D000910509F00CF4B8CF8FEF8083B8CF83E846
:1051E0009EE00E94BC0781E00895DF92EF92FF925B
:1051F0000F931F93CF93DF93482F50E0FA01359719
:10520000EF33F10508F04EC1E357FF4F0C94C22A6B
:1052100083E090E00E94602A1F928F9384E399E0DC
:105220009F938F930E94550882E090E00E94602A2D
:1052300083FB992790F91F929F9382FB992790F9FE
:105240001F929F9381FB992790F91F929F93982F0C
:1052500091701F929F931F928F938BEE98E09F9374
:105260008F930E9455080E94BD1187FB222720F9C9
:105270001F922F9386FB222720F91F922F9385FBE5
:10528000222720F91F922F9384FB222720F91F92B7
:105290002F9383FB222720F91F922F9382FB222733
:1052A00020F91F922F9391FB222720F91F922F9311
:1052B000292F21701F922F9381FB222720F91F9203
:1052C0002F93282F21701F922F939F938F9386E007
:1052D00098E09F938F930E9455088DB79EB788964C
:1052E0000FB6F8949EBF0FBE8DBF06C089E29DE049
:1052F0000E94BC070E94CE11C1E0D9C081E599E0AF
:10530000C6C080919402817F8E7F8093940283E057
:105310009BE00E94BC0785E29DE00E94BC0781E003
:105320008093BD02E9CF89E09DE00E94BC070E9406
:10533000F8259FEF24E38CE0915020408040E1F776
:1053400000C000000E947120D7CF80919402C82F26
:10535000C095C170C0FB80F980939402CC2319F0F2
:105360008DEF9CE08FC080EF9CE00E94BC07809195
:105370009402897F877F80939402BECF909194029C
:1053800091FBCC27C0F981E0C827892FC0FB81F9A8
:1053900080939402CC2319F083EE9CE027C085ED26
:1053A0009CE075C09091940292FBCC27C0F981E0FB
:1053B000C827892FC0FB82F980939402CC2319F06F
:1053C00086EC9CE013C086EB9CE061C09091940257
:1053D00093FBCC27C0F981E0C827892FC0FB83F954
:1053E00080939402CC2351F08AEA9CE00E94BC078F
:1053F0008091940281608093940259C08DE99CE071
:1054000046C08AE29BE043C00E94CA20062FF72EC6
:10541000E82ED92EC0919A02C7FBCC27C0F9109173
:105420003002D09100010E94B621DF92EF92FF92EC
:105430000F931F92CF931F921F931F92DF931F9280
:105440008F9382E09CE09F938F930E9455088DB7C5
:105450009EB70E960FB6F8949EBF0FBE8DBF4CCF71
:105460000E94F82590919A0297FBCC27C0F981E021
:10547000C827892FC0FB87F980939A02CC2329F093
:1054800083E99CE00E94BC0712C088E89CE00E946F
:10549000BC0732CF895303C08D5101C080E00E9408
:1054A000F2242ACF86E89CE00E94BC07C0E08C2F43
:1054B000DF91CF911F910F91FF90EF90DF900895B2
:1054C000F999FECF92BD81BDF89A992780B50895CC
:1054D000A8E1B0E042E050E00C94942A262FF9991C
:1054E000FECF92BD81BDF89A019700B4021639F043
:1054F0001FBA20BD0FB6F894FA9AF99A0FBE089514
:105500000396272F0E946F2A0E946E2A252F0E9441
:105510006F2A242F0C946F2A0196272F0E946F2A3E
:105520000C946E2ADC01CB01FC01F999FECF06C078
:10553000F2BDE1BDF89A319600B40D924150504051
:10554000B8F70895991B79E004C0991F961708F0E1
:10555000961B881F7A95C9F78095089597FB072EAB
:1055600016F4009407D077FD09D00E94CF2A07FCDB
:1055700005D03EF4909581959F4F08957095619563
:105580007F4F0895EE0FFF1F0590F491E02D0994D1
:105590006927962769277827872778270895AA1BE0
:1055A000BB1B51E107C0AA1FBB1FA617B70710F00E
:1055B000A61BB70B881F991F5A95A9F78095909540
:1055C000BC01CD010895FB01DC0104C08D91019067
:1055D000801921F441505040C8F7881B990B089559
:0455E000F894FFCF6D
:1055E40001E41F0620E71F48164416140A2808324F
:1055F4001E818283E200E900EA00B500B600B7002C
:10560400CD008301CC008A0192019401210223027E
:1056140024022502260227022A02B300B4006F00E6
:1056240070004022B62294037203BC029A02FA0369
:10563400130433044C043031F0F1F4C6953233933F
:10564400F6F767663635349796943F3F3F006D6BA7
:105654005F64656C6179006D6B5F696E7465727609
:10566400616C006D6B5F6D61785F7370656564007C
:105674006D6B5F74696D655F746F5F6D6178006DEC
:105684006B5F776865656C5F6D61785F7370656586
:1056940064006D6B5F776865656C5F74696D655FE9
:0856A400746F5F6D6178000076
:00000001FF
