:100000000C9478060C9440270C94BF060C94BF0601
:100010000C94BF060C94BF060C94BF060C94BF064C
:100020000C94BF060C94BF060C9497300C94693165
:100030000C943E2A0C94BF060C94BF060C94BF0689
:100040000C94BF060C94BF060C94BF060C94BF061C
:100050000C94BF060C94B32A0C94BF060C94BF06F4
:100060000C94BF060C94BF060C94BF060C94BF06FC
:100070000C94BF060C94BF060C94BF060C94BF06EC
:100080000C94BF060C94BF060C94BF060C94BF06DC
:100090000C94BF060C94BF060C94BF060C94BF06CC
:1000A0000C94BF060C94BF060C94BF06390B390B99
:1000B0006B0B6B0BB80BD60BB90CB90CE10B490CE5
:1000C0005A0C5A0C590D590D6B0D6B0D620D6B0DC1
:1000D0006B0D6B0D590D590D670D6B0D6B0D670D8C
:1000E000452248226822792281228C22D222D222E1
:1000F000D222D222D2228F2292229722A422B1226D
:10010000B422B822C522D631FD31F532FD31F532A7
:1001100049326C32F532C332D232290014001A004F
:10012000080015001700E000040016000700090091
:100130000A00E1001D001B00060019000500035124
:100140002B00E300E20002512C001C0018000C0000
:10015000120013002A000B000D000E000F003300E8
:1001600034001100100036003700380028002C0041
:1001700001512B004C004600035101001E001F00DE
:100180002000210022000100350038002F00260247
:100190002D000100350238022F0200002D0201005F
:1001A00001000100010001000100230024002500DE
:1001B0002600270001002E00270230003100000039
:1001C00001002E0200003002310201000100010096
:1001D0000100010001000100010001000000000019
:1001E0004B0000000000010000004A004E004D00DE
:1001F000000001000000500900004F09000001004C
:100200000100010001000100010000000000520097
:100210000000000001000000500051004F000000ED
:10022000010000002B0300002B0100000100010071
:1002300001000100010001000100005C00003A0023
:100240003B003C000000010000003D003E003F007C
:10025000000001000000AA000000A9000000010049
:100260000100010001000100010000004000410008
:1002700042000000005C0000430044004500000014
:1002800001000000AC00AE00AB0000000100010066
:100290000100010001000100010044454255473AB8
:1002A0002064697361626C65642E0A00444542559E
:1002B000473A20656E61626C65642E0A000000009A
:1002C00000000000002A2B280000000000000000B1
:1002D000000000000000000029000000002C1E3477
:1002E00020212224342627252E362D3738271E1F7D
:1002F000202122232425263333362E37381F0405A8
:10030000060708090A0B0C0D0E0F10111213141515
:10031000161718191A1B1C1D2F3130232D350405F3
:10032000060708090A0B0C0D0E0F101112131415F5
:10033000161718191A1B1C1D2F3130354C000000E0
:1003400000000000000000000000000000000000AD
:10035000000000000000000000000000000000009D
:10036000007E0F00D4FFFFFFC7000000784F6E65CE
:1003700073686F743A206163746976653A20256406
:100380000A000A0025303258006B6579626F61728D
:10039000645F7365745F6C65643A20000A00253001
:1003A0003862003A200025303258000A722F63204C
:1003B00030313233343536370A0054617267657430
:1003C00020636F6E6E65637465640D0A005461721C
:1003D00067657420646973636F6E6E6563746564CA
:1003E0002C207468726F74746C696E6720636F6E12
:1003F0006E656374696F6E20617474656D7074737B
:100400000D0A004661696C656420746F206578652B
:10041000637574652025730A00313A0964656C615F
:1004200079282A31306D73293A2025750A323A0924
:10043000696E74657276616C286D73293A20257532
:100440000A333A096D61785F73706565643A2025F7
:10045000750A343A0974696D655F746F5F6D617810
:100460003A2025750A353A09776865656C5F6D61D4
:10047000785F73706565643A2025750A363A0977A6
:100480006865656C5F74696D655F746F5F6D6178D9
:100490003A2025750A00703A097072696E742076E8
:1004A000616C7565730A643A0973657420646566E6
:1004B00061756C74730A75703A092B310A646E3A6F
:1004C000092D310A6C743A092B31300A72743A09D9
:1004D0002D31300A4553432F713A09717569740AF9
:1004E0000A7370656564203D2064656C7461202A20
:1004F000206D61785F7370656564202A20287265BD
:1005000070656174202F2074696D655F746F5F6D15
:100510006178290A77686572652064656C74613A50
:1005200020637572736F723D25642C207768656552
:100530006C3D25640A53656520687474703A2F2FEA
:10054000656E2E77696B6970656469612E6F72677D
:100550002F77696B692F4D6F7573655F6B65797365
:100560000A004D3E20004D25753A25733E20003F80
:100570000A003D2025750A003F0A00646566617522
:100580006C74730A0025750A003F0A000A092D20C1
:1005900056616C756573202D0A00710A000A092DD9
:1005A000204D6F7573656B6579202D0A003F004300
:1005B0003E20004C25640A000A092D205374617402
:1005C0007573202D0A686F73745F6B6579626F6154
:1005D00072645F6C65647328293A20253032580AAA
:1005E0006B6579626F6172645F70726F746F636F55
:1005F0006C3A20253032580A6B6579626F617264FB
:100600005F69646C653A20253032580A74696D65FB
:10061000725F72656164333228293A202530386C64
:10062000580A000A092D2056657273696F6E202DD5
:100630000A5649443A2030784131303328616930D4
:10064000332044657369676E2053747564696F293C
:10065000205049443A20307830303134284F72628B
:1006600069745829205645523A203078303030315C
:100670000A4255494C443A2020284F6374203130B7
:100680002032303231290A4F5054494F4E533A20CC
:100690004C554641204D4F5553454B4559204558E3
:1006A0005452414B455920434F4E534F4C452043E4
:1006B0004F4D4D414E4420343039360A4743433A7A
:1006C00020352E342E30204156522D4C4942433A8B
:1006D00020322E302E30204156525F415243483A4C
:1006E00020617672350A000A092D20436F6E736F00
:1006F0006C65202D0A4553432F713A097175697451
:100700000A6D3A096D6F7573656B65790A000A09A0
:100710002D204D61676963202D0A443A09446562C2
:100720007567204D65737361676520546F67676CEB
:10073000650A583A094D617472697820446562759A
:1007400067204D6F646520546F67676C65202D20AE
:1007500053686F77206B657970726573736573206A
:10076000696E206D617472697820677269640A4BE2
:100770003A094B6579626F617264204465627567FE
:1007800020546F67676C65202D2053686F77206B4E
:1007900065797072657373207265706F72740A4D3B
:1007A0003A094465627567204D6F75736520546F13
:1007B00067676C650A563A0956657273696F6E0A07
:1007C000533A095374617475730A433A0941637467
:1007D000697661746520436F6E736F6C65204D6F31
:1007E00064650A46312D4631303A0953776974639E
:1007F0006820746F204C6179657220302D39202873
:10080000463130203D204C30290A302D393A0953E9
:10081000776974636820746F204C61796572203049
:100820002D390A47524156453A095377697463682E
:1008300020746F204C6179657220302028616C74BF
:1008400065726E617465290A423A094A756D7020B5
:10085000746F20426F6F746C6F616465720A4553E8
:10086000433A094A756D7020746F20426F6F746C43
:100870006F616465722028616C7465726E61746565
:10088000290A453A095072696E7420454550524F05
:100890004D2053657474696E67730A425350414327
:1008A000453A09436C65617220454550524F4D0AE7
:1008B000006B65796D61705F636F6E6669672E723C
:1008C00061773A20253032580A2E737761705F6362
:1008D0006F6E74726F6C5F636170736C6F636B3A91
:1008E0002025750A2E636170736C6F636B5F746F84
:1008F0005F636F6E74726F6C3A2025750A2E737782
:1009000061705F6C63746C5F6C6775693A20257504
:100910000A2E737761705F7263746C5F72677569BA
:100920003A2025750A2E737761705F6C616C745F75
:100930006C6775693A2025750A2E737761705F724E
:10094000616C745F726775693A2025750A2E6E6F47
:100950005F6775693A2025750A2E737761705F6746
:10096000726176655F6573633A2025750A2E737729
:1009700061705F6261636B736C6173685F62616316
:100980006B73706163653A2025750A2E6E6B726F0A
:100990003A2025750A0064656275675F636F6E664D
:1009A00069672E7261773A20253032580A2E656EBB
:1009B00061626C653A2025750A2E6D6174726978E2
:1009C0003A2025750A2E6B6579626F6172643A2050
:1009D00025750A2E6D6F7573653A2025750A0065B9
:1009E00065636F6E6669673A0A64656661756C7403
:1009F0005F6C617965723A2025750A003F000A6DC7
:100A00006F7573653A206F66660A000A6D6F7573BD
:100A1000653A206F6E0A000A6B6579626F617264D5
:100A20003A206F66660A000A6B6579626F617264CC
:100A30003A206F6E0A000A6D61747269783A206F0D
:100A400066660A000A6D61747269783A206F6E0AF0
:100A5000000A64656275673A206F66660A000A6478
:100A6000656275673A206F6E0A000A0A4A756D70F2
:100A7000696E6720746F20626F6F746C6F6164655C
:100A8000722E2E2E2000433E2000436C6561726959
:100A90006E6720454550524F4D0A00290A002575C2
:100AA000002F002575005D280025640020002564C6
:100AB00000200025640020002564007C00253032E1
:100AC00058006D6F7573656B6579205B62746E7C21
:100AD000782079207620685D287265702F61636CBC
:100AE000293A205B000A002530325820006B6579D6
:100AF000626F6172645F7265706F72743A20005B3E
:100B0000735D004B6579626F61726420737461720A
:100B1000742E0A005B575D005B535D005B525D0005
:100B20005B445D005B435D000E034F00720062009A
:100B3000690074005800000026036100690030005D
:100B400033002000440065007300690067006E00F8
:100B50002000530074007500640069006F000000FD
:100B60000403090409027B00040100A0FA0904003F
:100B700000010301010009211101000122400007C9
:100B800005810308000A09040100020300000009AE
:100B90002111010001222200070582032000010724
:100BA00005030320000109040200010300000009FD
:100BB0002111010001227B000705840320000A099E
:100BC0000403000203000000092111010001222298
:100BD0000007058503200001070505032000011219
:100BE0000100020000000803A1140001000102003E
:100BF000010631FF0974A1010975150026FF009552
:100C000020750881020976150026FF0095207508D9
:100C10009102C00660FF0961A1010962150026FF6B
:100C2000009520750881020963150026FF009520B4
:100C300075089102C005010902A10185020901A1FF
:100C4000000509190129081500250195087501817C
:100C5000020501093009311581257F95027508814A
:100C60000609381581257F950175088106050C0A4E
:100C700038021581257F950175088106C0C00501E0
:100C80000980A101850319012AB700150126B700C3
:100C9000950175108100C0050C0901A10185041999
:100CA000012AA002150126A002950175108100C03D
:100CB00005010906A101050719E029E7150025012D
:100CC00095087501810295017508810105071900D4
:100CD00029FF150026FF00950675088100050819F3
:100CE000012905950575019102950175039101C0D2
:100CF00011241FBECFEFDAE0DEBFCDBF04B603FE86
:100D000027C080911D0390911E03A0911F03B091F5
:100D100020038730904BA740B04BD1F410921D03B5
:100D200010921E0310921F031092200314BE84B76A
:100D3000877F84BF0FB6F894A89580916000886182
:100D400080936000109260000FBEE0E0F8E3099528
:100D500012E0A0E0B1E0ECE9F7E602C005900D92E8
:100D6000A633B107D9F723E0A6E3B2E001C01D9294
:100D7000AD31B207E1F70E944D1B0C94CC330C94BB
:100D80000000FF93EF93E0913602F0913702309725
:100D900009F00995EF91FF910895FC01859180304C
:100DA00011F0EFDFFBCF0895FF27E0E230E247FFCD
:100DB0000CC0419597FF09C0EDE260957095809554
:100DC0009095611D711D811D911D27FF02C0219508
:100DD00030E350E2AA27660F771F881F991FAA1FCA
:100DE000A41710F0A41B63955A95A9F7AA3008F030
:100DF000A95FA05DAF93F39561157105810591051C
:100E000041F7ED3211F4EF93F395F21718F43F9395
:100E1000F395FBCF8F91B5DFFA95E1F70895E9914E
:100E2000F9918591803021F0853219F0AADFF9CF50
:100E3000089520E0E89455915532C1F3503311F4F0
:100E4000689455915A3348F4505390F3220F022E70
:100E5000220F220F200D250FF4CF0EF4219589913A
:100E60009991533619F3533729F1533559F1BC0190
:100E700088279927E8945C3621F4899199916894A0
:100E80005591543639F446EF7EF077FF0DC08FEF61
:100E90009FEF0AC055374AE039F0583540E121F05C
:100EA000523642E009F00895FF93EF937DDFEF9112
:100EB000FF91B7CFFF93EF93FC0181918030B9F39D
:100EC00060DFFBCFFF93EF9368DFF1CFDF93CF932A
:100ED000CDB7DEB72596A3DFCF91DF91089581E0EE
:100EE000089581E008950C94710708950C94750796
:100EF0001F93CF93DF9300D000D01F92CDB7DEB702
:100F000049835A836B833091380289819A813111E8
:100F100014C0662359F0222349F00E94510E182F65
:100F2000682F89819A810E94F80D03C00E94240EC7
:100F3000182F69817A81812F04C00E94510E698126
:100F40007A810F900F900F900F900F90DF91CF91BB
:100F50001F910C94A423FC01262F408151816281B2
:100F6000738184810C94780781E00895CF93DF9397
:100F7000EC0160E00E94AB07BE01DF91CF910C94C1
:100F80007607E1E0F0E0DF0102C0AA0FBB1F6A951F
:100F9000E2F7BD01DF0102C0AA0FBB1F4A95E2F7CD
:100FA000AD01462B01C0EE0F2A95EAF7942F982346
:100FB000491302C08E2B0895E0958E230895242FA7
:100FC000462F682F80914B020E94C1070C94B50DEB
:100FD0000E9476160E9463090C94EB160C94E71697
:100FE00008950E94470D0E94F0072FEF84E39CE0D4
:100FF000215080409040E1F700C000000C94D92AB5
:101000000F931F93CF93DF938C0161E00E94AB0796
:10101000EC01B8010E94F421882309F462C0B801F0
:10102000CE010E947307882309F45BC0B801CE018A
:101030000E94F124882309F454C0B801CE010E9413
:101040004325882309F44DC0B801CE010E946E26C5
:10105000882309F446C0F80182818823D9F1CE3D66
:101060008CE5D80779F140F4C115FCE5DF0791F074
:10107000C130DC4591F02EC0CB35EDE5DE0741F106
:10108000CC35FDE5DF0709F1CA35DD4519F50E94CC
:10109000FB1120C00E94F10724C08091A302C82F39
:1010A000C095C170C0FB80F98093A302CC2329F0C6
:1010B0008CEA92E00E94CD0614C08AE992E00E9478
:1010C000CD0610C00E9460130CC00E94F21102C035
:1010D0000E94FE11C801DF91CF911F910F910C94D6
:1010E0006F07C0E08C2FDF91CF911F910F91089572
:1010F000DF92EF92FF920F931F93CF93DF93E82F2E
:10110000F0E0E354FD4FD490282F269526952695A0
:1011100030E0F901E35AFC4F0491877010E0082E8B
:1011200002C0159507950A94E2F701701127F9019D
:10113000E35BFC4FE490F12C082E02C0F594E79499
:101140000A94E2F791E0E922FF24F901E35CFC4F05
:10115000C491D0E002C0D595C7958A95E2F7C170D9
:10116000DD270115110519F081EE0E94BD09E1147A
:10117000F10419F086EE0E94BD098D2D0E94EB0A44
:10118000EF2819F086EE0E946C0A012B19F081EE0F
:101190000E946C0ACD2B51F08CE2DF91CF911F9110
:1011A0000F91FF90EF90DF900C94EB0ADF91CF91BD
:1011B0001F910F91FF90EF90DF900895EF92FF92B3
:1011C0000F931F93CF93DF93EC01162F0AE08881D2
:1011D000882309F455C0813009F043C089818130EA
:1011E00041F47E0182E0E80EF11C8A810E94EB0A44
:1011F00009C0823049F47E01E2E0EE0EF11C8A81E2
:101200000E94BD09E7012FC0833041F47E01F2E066
:10121000EF0EF11C8A810E946C0AF4CF843011F029
:10122000219621C02A81229680E090E030E0205370
:1012300031092A30310558F4089FA001099F500D4B
:101240001124C901840F951F21962881EFCF0097A3
:1012500051F0EFE9FFE03197F1F700C0000001978E
:10126000F6CF0E9478082196812F882309F4AFCF0A
:10127000EFE9FFE03197F1F700C000008150F5CFB2
:10128000DF91CF911F910F91FF90EF90089560E053
:101290000C94DE088295982F937344E0949F9001FC
:1012A00011248C7C86958695282B822F8575880F36
:1012B0002A7A2695822B089508950C945C0981E082
:1012C00008950C945F090895CF93C82F0E945D097B
:1012D0008C2F0E946109CF910895CF93DF93CDB7F2
:1012E000DEB72B970FB6F894DEBF0FBECDBF4F838E
:1012F000588769877A878B8761110E9421129E0126
:101300002F5F3F4F86E0F90111928A95E9F785E05A
:10131000FE013796D90101900D928A95E1F78981F6
:101320009A814C815D81452B31F09F3F31F491E0F2
:101330008F3F19F403C091E001C090E090FF09C015
:1013400049815A816B817C818D819E810E940D1122
:1013500005C0C9010E94B4078111F2CF2B960FB6C8
:10136000F894DEBF0FBECDBFDF91CF910895FC0191
:10137000808191810E947E0E0895CF93882309F485
:10138000A9C0C82F8238C1F40E94C42881FDA2C020
:1013900069E380910001909101010E949C290E94C3
:1013A00046122FEF81EE94E0215080409040E1F70B
:1013B00000C0000069E319C0833801F50E94C42809
:1013C00080FD88C063E580910001909101010E9439
:1013D0009C290E9446122FEF81EE94E0215080401C
:1013E0009040E1F700C0000063E58091000190911A
:1013F00001010E949E29CF910C9446128438C1F4B9
:101400000E94C42882FD66C067E48091000190912B
:1014100001010E949C290E9446122FEF81EE94E068
:10142000215080409040E1F700C0000067E4DDCF2C
:101430008CEF8C0F813AF8F48C2F0E942B1E8111B7
:1014400049C06C2F80910001909101010E94662992
:10145000882349F06C2F80910001909101010E9436
:101460009E290E9446126C2F8091000190910101EB
:101470000E949C29C0CF80E28C0F883048F4C7704E
:1014800081E001C0880FCA95EAF70E940412B3CF29
:10149000EBE5EC0FE33040F4F0E0EA58FE4F8081DA
:1014A00090E0CF910C942E29E8E5EC0FE73150F451
:1014B000F0E0EE0FFF1FE85BFE4F80819181CF913E
:1014C0000C944429C03F30F08C2F0E94041FCF9110
:1014D0000C94D61FCF910895882309F464C08238F4
:1014E00079F40E94C42881FF5EC069E38091000105
:1014F000909101010E949C290E94461269E310C04C
:101500008338B1F40E94C42880FF4DC063E5809108
:101510000001909101010E949C290E94461263E5FE
:1015200080910001909101010E949E290C94461225
:10153000843879F40E94C42882FF35C067E4809122
:101540000001909101010E949C290E94461267E4CB
:10155000E7CF9CEF980F913A10F4682FE1CF90E21B
:10156000980F983050F4877091E001C0990F8A95D8
:10157000EAF7892F0E940A12D9CF9BE5980F933082
:1015800020F480E090E00C942E2998E5980F973194
:1015900020F480E090E00C944429803F20F00E94E9
:1015A0005F1F0C94D61F08951F93CF93DF93182FBE
:1015B000EB010E94BD09209741F08FE99FE0019760
:1015C000F1F700C000002197F6CF812FDF91CF9176
:1015D0001F910C946C0A893319F060E070E002C02E
:1015E00060E570E00C94D40A882321F00E94041274
:1015F0000C9446120895882321F00E940A120C943C
:1016000046120895CF92DF92EF92FF920F931F93AD
:10161000CF93DF937C01062FC72FFC01D281158168
:1016200012951F700E94C511882399F0DD2389F05F
:101630008C2F807F803421F080E2800F883048F04A
:1016400082E00E9496120E94C51191E0D82ED92600
:1016500001C0D12CCC2EC2948FE0C8228C2D90E0FA
:101660008C30910508F085C1FC01EA5AFF4F0C94BB
:1016700053338C2F807FCF70882311F0C295C07FA9
:10168000DD2399F0CC2309F460C180E2800F88301B
:1016900010F0011104C08C2F0E94041203C08C2F83
:1016A0000E9414120E94461250C1802F0E946C0AA0
:1016B000CC2309F45EC180E2800F883010F0011164
:1016C00004C08C2F0E940A1203C08C2F0E941A1291
:1016D0000E9446124EC18C2F807FCF70803211F055
:1016E000C295C07F002319F00130C9F022C0DD236C
:1016F00071F0112341F0113031F40E9427128C2B2C
:101700000E942F1236C10E9427128C2B1DC011235C
:1017100019F0113009F42DC10E943C1225C0DD23BF
:1017200021F0163008F025C10EC0153008F021C197
:101730001BC0DD2361F0112331F0F701858180FFAB
:1017400004C18F7085838C2F0E94F40A12C111236B
:1017500059F0093309F00AC1FFEF27EE83E0F15099
:1017600020408040E1F700C18C2F0E94FB0A01C19C
:101770008C2F86958695837019F0813061F0F9C0C1
:10178000DD2321F0802F9C2F937002C080E090E039
:101790000E942E29F6C0DD2321F0802F9C2F93700C
:1017A00002C080E090E00E944429EBC0802FDD233E
:1017B00019F00E94041F02C00E945F1F0E94D61FE2
:1017C000E0C08C2F837079F5D111D7C0402F42959E
:1017D00046954770440F440F202F2F70042E01C0F0
:1017E000220F0A94EAF704FF08C08FE090E001C0DE
:1017F000880F4A95EAF7809501C080E0C695C695A6
:10180000C370822BC23049F058F4C13019F00E94E5
:10181000A90DB3C00E94A40DB0C00E94AE0DADC012
:101820000E94A20DAAC0DD2319F08C2F817001C087
:101830008695882309F4A1C0402F429546954770AC
:10184000440F440F202F2F70042E01C0220F0A9442
:10185000EAF704FF08C08FE090E001C0880F4A95C6
:10186000EAF7809501C080E0C695C695C370822BCB
:10187000C23049F058F4C13019F00E94ED0D7DC01E
:101880000E94E80D7AC00E94F20D77C00E94B50D4B
:1018900074C0CF70DD2339F08C2F0E94C60D802FCD
:1018A0000E94F40A6AC0802F0E94FB0A8C2F0E94BB
:1018B000D10D63C0023F01F128F4003F41F0013F28
:1018C000A1F03FC0033FF9F0043F39F13AC0DD23F6
:1018D00041F0153008F04DC08C2F8F710E94DD0D46
:1018E00048C0163008F045C0F7CFDD2339F08C2F03
:1018F0008F710E94C60D3DC0DD23C9F38C2F8F71FF
:101900000E94D10D36C0DD2329F08C2F8F710E94EB
:10191000BE0D2FC00E94BB0D2CC0DD2349F0CF713E
:101920008C2F0E94C60D63E08C2F0E947B1221C079
:1019300081E00E9496121230E0F082E00E9496123E
:1019400018C0DD2331F0112391F2802F0E94BD09D0
:1019500010C0112399F2093349F49FEFE7EEF3E049
:101960009150E040F040E1F700C00000802F0E945D
:101970006C0A88EF8C0D843020F40E94C4280E94E9
:101980006409DD20C9F00E94C11180FD15C0F70176
:1019900012820E94BB110E94C60DC7010E94FD0C5D
:1019A0000E94BB11DF91CF911F910F91FF90EF909B
:1019B000DF90CF900C94D10DDF91CF911F910F91BB
:1019C000FF90EF90DF90CF9008950F931F93CF93E8
:1019D000DF93EC01688179818A810E94890E8C01F4
:1019E0000E94F70D0E94960DB801CE010E94020BD5
:1019F000DF91CF911F910F910895CF93DF93EC0169
:101A0000988189812B813C81232B31F08F3F31F4E8
:101A100081E09F3F19F403C081E001C080E080FDB8
:101A200019C0CE010E94000881110CC00E94C5118E
:101A3000882381F08A81882369F082E0DF91CF9149
:101A40000C949612CE010E94E50CCE01DF91CF914D
:101A50000C94B607DF91CF91089580E090E00E944A
:101A60002E2980E090E00E9444290E9421120E94C9
:101A700024120E9446120E9489210C94D61F809144
:101A80000001909101010E94A0290C942D0D0E944B
:101A900011120C943F0DE92FE295EF704E2F50E09C
:101AA000FA013297EE30F105B0F4EE59FF4F0C9485
:101AB0005333803F91F018F4883E68F40EC0843FA1
:101AC00051F40BC0883E48F0813F29F406C093FBD7
:101AD000882780F9089580E0089581E00895FC0149
:101AE000808191810E947E0E0E944B0D0895CF93BC
:101AF000DF9300D000D01F92CDB7DEB70F900F90CC
:101B00000F900F900F90DF91CF910895CF93DF93B7
:101B100000D000D000D0CDB7DEB726960FB6F8942F
:101B2000DEBF0FBECDBFDF91CF9108950895089518
:101B30000C94970D0C94980D0E949A0D80934C0272
:101B40000C942D0D0C949C0D90914C02892B0C94AF
:101B50009C0D90914C0289230C949C0D90914C0209
:101B600089270C949C0D0C94970D0E94B30D8093C3
:101B70004B020C942D0D80E00C94B50D91E001C04A
:101B8000990F8A95EAF7892F0C94B50D21E030E082
:101B900001C0220F8A95EAF780914B02822B0C94A8
:101BA000B50D21E030E001C0220F8A95EAF72095BB
:101BB00080914B0282230C94B50D21E030E001C0EE
:101BC000220F8A95EAF780914B0282270C94B50D7B
:101BD00090914B02892B0C94B50D90914B02892367
:101BE0000C94B50D90914B0289270C94B50D089576
:101BF000292F220F920F990F890FE82FE695E6956E
:101C0000E695877051E001C0550F8A95EAF783E0A9
:101C1000E89FF0011124E75CFD4F20E030E070E028
:101C20004081CB01022E02C0969587950A94E2F777
:101C30008170819584278523842781932F5F3F4F6F
:101C40002330310569F70895292F220F920F990F3C
:101C5000890F682F669566956695982F977083E033
:101C6000689FB001112440E050E080E0FB01E40FE8
:101C7000F51FE75CFD4F208130E0092E02C036954C
:101C800027950A94E2F721703327042E01C0220F12
:101C90000A94EAF7822B4F5F5F4F4330510531F7CB
:101CA0000895CF92DF92FF920F931F93CF93DF930C
:101CB0006C0100914B0280914C02082BC7E0D0E0F0
:101CC00010E0C8010C2E02C0959587950A94E2F7A2
:101CD00080FD04C02197A8F7F12C07C0FC2EB601A7
:101CE0008C2F0E9482150197A9F38F2DDF91CF9140
:101CF0001F910F91FF90DF90CF900895CF93DF93C6
:101D0000EC010E94510EBE010E948215DF91CF911D
:101D100008951F93CF93DF93EB019091380299239D
:101D200021F0CB010E947E0E13C0882349F0CB0125
:101D30000E94510E182F682FCE010E94F80D04C08A
:101D4000CB010E94240E182FBE01812F0E94821504
:101D5000DF91CF911F9108951F93CF93DF93C0918F
:101D60004D0216E080914E02C81799F0D0E01C9FFA
:101D7000F0011D9FF00D1124E15BFD4F4081518169
:101D800062817381848195810E94860D2196C7703E
:101D9000E9CFDF91CF911F91089540917F0250913B
:101DA0008002609181027091820280918302909101
:101DB00084020C94860D0F931F93CF93DF93809131
:101DC000840282958F7009F05DC080918102882322
:101DD00009F458C080914D0210914E0260917F022B
:101DE00070918002C0918202D091830291E06F3F96
:101DF00009F090E0292F06E0811709F443C02097ED
:101E000021F07F3F21F030E003C031E001C0322FEC
:101E100090E030FD34C0089FF001099FF00D1124BF
:101E2000DF01A15BBD4F11963C911197371327C07D
:101E30003C91361324C012963C91129731111FC069
:101E400013964D915C9114974C1B5D0B483C5105CA
:101E5000B0F4809184028F70806180938402EC5A88
:101E6000FD4F80818F70806180838FE792E00E94B8
:101E7000FD0CDF91CF911F910F910C94AC0E019648
:101E80008770BACFDF91CF911F910F9108959F92E4
:101E9000AF92BF92CF92DF92EF92FF920F931F9378
:101EA000CF93DF93CDB7DEB761970FB6F894DEBF5F
:101EB0000FBECDBF8C0185E0F801DE011D960190BB
:101EC0000D928A95E1F7F801E28090917F0260918E
:101ED000800220918202309183022115310531F078
:101EE0006F3F31F481E09F3F19F403C081E001C0EE
:101EF00080E0F82FF1709F2E80FD3FC1F8014081F6
:101F00005181A380B4808FE7C82E82E0D82EF09054
:101F10008102F501E21BF30BFF2009F4D9C0809187
:101F20008402E83CF10508F095C0282F207F09F0D5
:101F300052C0561313C0491311C0FE2CE1100EC03D
:101F40008F708061809384020E94CD0EC6010E9432
:101F5000FD0C80918402F80185834CC1AB2831F0DF
:101F60005F3F31F481E04F3F19F403C081E001C0CD
:101F700080E080FD03C081E08E2502C080E090E01B
:101F8000F82FF170FF2E80FF1CC080914D02209130
:101F90004E0236E0821709F40BC190E0389FF00141
:101FA000399FF00D1124E15BFD4F6181561306C08E
:101FB0006081461303C06281E61203C001968770F8
:101FC000E9CFFE2CEE2009F415C1809184028160D6
:101FD0008093840254C0561306C0491304C0E11014
:101FE00002C0F80199C0C8010E946F0D882361F1F9
:101FF000EE2051F120918402822F82958F7090E023
:10200000029774F080917F029091800298878F836D
:102010001986BB86AA862C87CE0107960E94FD0CE6
:1020200086E0F801AFE7B2E001900D928A95E1F702
:102030000E94DB0E0E94CD0E0AC0561711F1C80196
:102040000E946F0D81112CC0C8010E94FD0CFF245D
:10205000F394D0C0282F207F81F77A2DB98AA88ADF
:102060006E2D89890E94770D8FE792E00E94FD0C0A
:1020700086E0F60111928A95E9F70E94CD0EF12CC7
:10208000B9C04913DCCFE110DACFF8018583C8016C
:102090000E94FD0C86E0F60111928A95E9F7AAC02C
:1020A000EE2091F220918402822F82958F7090E031
:1020B00002970CF4B5CF80917F02909180029A83B1
:1020C00089831B82BD82AC822E83CE010196A6CF6E
:1020D000E83CF10508F044C0FE2CEE2009F4B4CF32
:1020E000561330C049132EC02091840220FD21C018
:1020F000822F82958F70482F50E041155105C9F00D
:10210000F80125834F30510541F08F5F982F92954C
:10211000907F822F8F70892B8583C8010E94FD0CD0
:1021200086E0F801AFE7B2E001900D928A95E1F701
:102130003CC086E0F801AFE7B2E001900D928A95CD
:10214000E1F758C0C8010E946F0D811169CF8091DD
:102150008402816080938402C8010E94FD0C4AC001
:102160007A2DB98AA88A6E2D89890E94770D86E01A
:10217000F60111928A95E9F718C0EE2009F464CFB0
:10218000C8010E946F0DF82E882309F45DCF86E008
:10219000F801AFE7B2E001900D928A95E1F78FE781
:1021A00092E00E94B7090E94DB0E0E94CD0E22C071
:1021B0004D875E878D859E850E947E0E292F2295F4
:1021C0002F70223028F49F7039F0811105C00BC0A8
:1021D000243028F49F7049F4805E883020F0C801D4
:1021E0000E94FD0C9F2CF92C05C0F8019581907F71
:1021F00099F7F9CF8F2D61960FB6F894DEBF0FBE19
:10220000CDBFDF91CF911F910F91FF90EF90DF90A5
:10221000CF90BF90AF909F9008951F93CF93DF937F
:10222000CDB7DEB72C970FB6F894DEBF0FBECDBF8B
:102230004F83588769877A878B879C87CE0107965B
:102240000E94470F8823D1F09F8188852A853B858E
:10225000232B31F08F3F31F481E09F3F19F403C00D
:1022600081E001C080E080FD47C04F8158856985CD
:102270007A858B859C850E94860D3EC086E0FE0196
:102280003796DE01119601900D928A95E1F7FF8154
:10229000E8856A857B856115710531F0EF3F31F482
:1022A00081E0FF3F19F403C081E001C080E080FDC0
:1022B00023C020914E0230E0C90101968770992712
:1022C00040914D0250E084179507F1F1F983EA83BC
:1022D0007D836C8396E0929FD001939FB00D112473
:1022E000A15BBD4FFE01319601900D929A95E1F7E9
:1022F00080934E020E94AC0E16E080914D029091A8
:102300004E02891771F1189FC0011124815B9D4F06
:102310000E94470F882329F1E0914D021E9FF00192
:102320001124E15BFD4F4081518162817381848181
:1023300095810E94860D80914D0290E001968770F4
:10234000992780934D02D9CF0E94470D10924E02DB
:1023500010924D02EFE7F2E086E0DF011D928A95D0
:10236000E9F72C960FB6F894DEBF0FBECDBFDF9114
:10237000CF911F91089580918502859585958595CA
:1023800008958091850287700895909185029770D5
:1023900081E009F480E00895CF939091F40292FBDC
:1023A000222720F92817E1F0C82F892FC0FB82F9D6
:1023B0008093F4028091F3029091F4020E94DD1266
:1023C0008091A30280FF0CC01F92CF938DE693E013
:1023D0009F938F930E9466070F900F900F900F901E
:1023E000CF9108958091F40282FB882780F991E0D3
:1023F00089270C94CC1181E00C94CC1180E00C94D2
:10240000CC1180919102089590919102892B809333
:102410009102089580959091910289238093910271
:10242000089510929102089590919002892B8093C3
:102430009002089580959091900289238093900254
:10244000089510929002089510928F02089580913D
:102450008602089508950C942A120C942B129091E0
:10246000F40292FD08C090918602981721F08093A3
:1024700086020C942D12089580918602882329F0FB
:102480001092860280E00C942D120895E0910001D4
:10249000F0910101809191028083E0910001F0911F
:1024A0000101908180919002892B8083E09100014D
:1024B000F0910101908180918F02892B808380911E
:1024C0008602882381F0E0910001F0910101908162
:1024D000892B808380910001909101010E945A29EB
:1024E00081110E943C1280910001909101010C9495
:1024F000D7280C942A129091F40292FD10C098E013
:10250000899F90011124262B209385020E94C60DDD
:10251000809185028595859585950C9479120C940A
:10252000C60D1092850280E00C94791220918502EC
:102530008095822380938502982F977041F430E034
:10254000482F082E000C550B2417350721F49091C5
:10255000F40292FF07C08595859585950E94D10D5F
:102560000C94911208956FEF7FEF80E090E00C944F
:10257000B63380E090E00E949233893E9E4F11F482
:102580000C94972180E0089582E090E00C948A33C7
:1025900083E090E00C948A33CF9384E090E00E9433
:1025A0008A33C82F82E290E00E948A332C2F30E0D9
:1025B000A901582BCA01CF910895CF93C92F682F35
:1025C00084E090E00E9498336C2F82E290E0CF91FB
:1025D0000C949833AB01BC018FE090E00C94AA33CB
:1025E000AB01BC0183E190E00C94AA3360E070E0A1
:1025F000CB010C94F01260E070E0CB010E94EA1273
:102600000C94F61269EE7EEF80E090E00E94B63303
:1026100060E082E090E00E94983360E083E090E028
:102620000E94983310924C0260E084E090E00E9497
:10263000983360E082E290E00E94983360E085E0A9
:1026400090E00E94983360E086E090E00E9498332A
:102650006FEF87E090E00E94983340E050E0BA01CD
:1026600088E090E00E94AA3360E08DE090E00E9454
:10267000983340E050E0BA0188E190E00E94AA332C
:1026800060E087E190E00E94983340E050E0BA01BA
:102690008CE190E00E94AA3360E070E080E290E07C
:1026A0000E94B63340E050E0BA0188E190E00E9419
:1026B000AA3380E00E94B0210E94DC210C94FB121E
:1026C0000C940213682F8EE090E00C9498330E94D3
:1026D0007C2A60939F027093A0028093A102909342
:1026E000A20260939B0270939C0280939D02909340
:1026F0009E02089585B7806885BF85B7806885BFCD
:1027000008950C94DB1808950C9483130C94831390
:102710000C9486130C9483130C948A130C948313D7
:102720000E947A1388EE9CE20E94FD2A0E948E137A
:102730000C948C130E9484130C9483130E94672AB8
:102740000E94A7290E94EB210E9491170E946624F3
:102750000C948813CF93C82F8091A30282FF1EC0D0
:1027600080FF04C089E893E00E94CD068091A30217
:1027700080FF0CC01F92CF9384E893E09F938F93C8
:102780000E9466070F900F900F900F908091A30208
:1027900080FF04C082E893E00E94CD068C2FCF9189
:1027A0000C9464099F92AF92BF92CF92DF92EF9206
:1027B000FF920F931F93CF93DF93CDB7DEB72A9786
:1027C0000FB6F894DEBF0FBECDBF0E94491881112D
:1027D0000E94671383E9A82E82E0B82E00E010E083
:1027E000902E802F0E949016D82EF501C1905F0187
:1027F000C826B1F40F5F1F4F0830110589F78FEF1E
:1028000089838A831B820E94702A8160782F9D832E
:102810008C8349815A816B818D810E946D092FC003
:102820008091A30281FD0E949616E12CFF24F3946F
:102830008C2D8F21F1F00E948113882399F0EE8274
:102840009F82DF2081E009F480E088870E94702A5F
:102850008160782F9A8789874E815F8168858A8514
:102860000E946D09F801ED56FD4F8081F826F08237
:1028700006C0E394FF0CF6E0EF12DACFBBCF0E9464
:1028800076200E94C428909192028917B9F00E9484
:10289000C428809392022A960FB6F894DEBF0FBE2A
:1028A000CDBFDF91CF911F910F91FF90EF90DF90FF
:1028B000CF90BF90AF909F900C94AA132A960FB61A
:1028C000F894DEBF0FBECDBFDF91CF911F910F9166
:1028D000FF90EF90DF90CF90BF90AF909F900895C2
:1028E000CF93DF930E948715EC01811521E59207B4
:1028F00008F045C0811530E5930708F094C0883E84
:10290000910528F5803E910508F0F8C0883A9105B8
:1029100070F4853A910508F07CC08130910509F486
:1029200075C008F4E8C0049708F0E8C0E4C08F3B25
:10293000910508F0E0C0C85AD0E0CC0FDD1FC758A1
:10294000DE4F0990D881C02DCE019464D8C0811586
:1029500040E2940758F4811551E0950708F0CEC085
:10296000803F910508F4C7C09065C9C0C11580E4D7
:10297000D80708F4C0C0DF70CE01906AC0C08115CE
:1029800025E59207A8F4811534E5930708F095C072
:10299000811543E5940708F07BC0811552E5950742
:1029A00008F061C0D82FCC27CE01816F906AA7C0F4
:1029B000C11589E5D807A0F4C11528E5D20708F0AC
:1029C00082C0C11536E5D30708F095C08C2F0E9450
:1029D0001B168F7190E0D82FCC27CE0190628FC04C
:1029E000C1154AE5D40708F474C0CE01905681158C
:1029F000904208F080C08D2F8F710E941B16DD273A
:102A0000D0628F71AE01582BCA0179C081E090E08D
:102A100076C0C55AD0E0C955DE4F8881C82FD0E0B6
:102A2000CE0190646CC074E0969587957A95E1F735
:102A3000282F23703C2F337081E090E002C0880F74
:102A4000991F3A95E2F79C68AC01522B9A019C2F92
:102A50009F709695969550E2959FE0011124C901CB
:102A60008C2B9D2B4CC08370992721E030E002C055
:102A7000220F331F8A95E2F79C2F9695969580E258
:102A8000989FE0011124C22BD32BCE019C6837C044
:102A90008370992721E030E002C0220F331F8A950E
:102AA000E2F79C2F9695969540E2949FE0011124C1
:102AB000C22BD32BCE019A6822C0D82FCC27CE01AF
:102AC000846F906A1CC0DC2FCC27CE01806F906A87
:102AD00016C08C2F8F700E941B1694E0D695C79558
:102AE0009A95E1F7CF70D0E0DC2FCC27D0699E011A
:102AF000282BC90104C080E090E001C0CE01DF9125
:102B0000CF9108950E94A4230E94701408958238E2
:102B1000910569F1B0F48133910509F46DC048F471
:102B20008932910509F463C08A32910509F469C0BC
:102B300008958533910509F455C089339105B9F09D
:102B40000895833E910569F138F4803E9105B1F016
:102B5000823E910509F10895863E9105A9F1873ECF
:102B60009105B9F1843E910509F064C023C020911C
:102B7000F30220FD4FC021FD4DC008958091F30266
:102B800080FD44C08091F40280FF44C08091F30234
:102B900084FD42C083EE4DC08091F30282FF38C0B5
:102BA000F5CF8091F30282FD33C08091F40280FD65
:102BB00031C0ECCF8091F40281FF32C08091F302EA
:102BC00084FD2AC087EE35C08091F30283FF26C0C2
:102BD000F5CF8091F30283FD21C08091F40281FD45
:102BE0001FC0ECCF8091F30285FD1CC01DC08091F9
:102BF000F30285FD19C016C08091F30286FD16C050
:102C000017C08091F30286FD13C010C089E311C084
:102C100082EE0FC080EE0DC080E00BC086EE09C0D2
:102C200084EE07C089E205C085E303C08AE201C0E3
:102C300081E390E008959091F30292FF0DC0282F58
:102C40002871283019F4877F846006C0282F2471EA
:102C5000243011F48B7F886093FF0DC0282F2871DA
:102C6000283119F4877E846106C0282F247124310D
:102C700011F48B7E88612091F40220FF0DC0382F63
:102C80003871383019F4877F816006C0382F317170
:102C9000313011F48E7F886021FF0DC0282F2871FC
:102CA000283119F4877E816106C0282F21712131D6
:102CB00011F48E7E886194FD877E08950C94B31282
:102CC0000E9449188FE39CE90197F1F700C00000CA
:102CD0000E94491880E00E94901680FF04C00E9464
:102CE0005E160C94D92A08950C9460160E94B912AD
:102CF000811102C00E9460130E94C4128093A3023B
:102D00000E94CC129093F4028093F3020E947416F6
:102D10000E94C8120E94A20D80914B020C94B30D28
:102D2000E82FF0E0E350FD4F80810895CF92DF92CD
:102D3000EF92FF920F931F93CF93DF938BEA93E071
:102D40000E94CD068DEFE82E82E0F82EC0E0D0E0A4
:102D500096EAC92E93E0D92E0EE913E0DF93CF93C4
:102D6000DF92CF920E94660783EA93E00E94CD062D
:102D7000F70181917F010E944A091F928F931F934F
:102D80000F930E9466078CE993E00E94CD0621967E
:102D90008DB79EB708960FB6F8949EBF0FBE8DBF35
:102DA000C830D105D9F6DF91CF911F910F91FF90D7
:102DB000EF90DF90CF90089580EA8A95F1F708951B
:102DC00000C008950C94DC1608950C94E4160C943D
:102DD000E5160C94E4160C94E916F894E82FE295A5
:102DE000EF70F0E031A1282F2F7081E090E001C05A
:102DF000880F2A95EAF7982F9095932391A392A193
:102E0000892B82A37894089508950C9404170F9346
:102E10001F93CF93DF93C8E0D1E089918F3F11F0EA
:102E20000E94ED1681E0CC30D807B9F7C2E0D1E0BE
:102E300008E011E089918F3F11F00E94ED160C1708
:102E40001D07C1F7DF91CF911F910F910895CF9288
:102E5000DF92EF92FF920F931F93CF93DF938C013A
:102E6000C62FD0E0CE01885F9E4F7C01FC0190818F
:102E70009F3F09F44DC0D62EF894E92FE295EF70EC
:102E8000F0E081A19F7021E030E001C0220F9A950F
:102E9000EAF7822B81A382A12095282322A378948C
:102EA0000E94E016E2E0F1E020E030E0C12C51E0C9
:102EB00041914F3FB1F0A42FA295AF70B0E0909632
:102EC0008C9190E04F7002C0959587954A95E2F7F6
:102ED00080FD07C0852F022E01C0880F0A94EAF7F3
:102EE00001C080E0C82A2F5F3F4F2630310501F72F
:102EF000F70180818F3F11F00E94ED1661E0C11053
:102F000001C060E08D2D0E94E216C00FD11FC88263
:102F1000DF91CF911F910F91FF90EF90DF90CF90B5
:102F20000895CF93DF93CDB7DEB72E970FB6F89401
:102F3000DEBF0FBECDBF0E94FE188091100181112F
:102F40002FC0FE01319628E0DF011D922A95E9F796
:102F500025E3298327E92A8324E32B8324E92C838F
:102F6000CF01E8E0F1E09E01275F3F4FDC014D918A
:102F7000CD014193A217B307C9F726E0E2E4F1E0DF
:102F8000DE01199601900D922A95E1F7FC01A2E06D
:102F9000B1E0CE010F9621912D93E817F907D9F7EB
:102FA00080911001811102C094E001C090E09093E3
:102FB000060384E0891B809305030E940717E5EF51
:102FC000F2E0ADEFB2E011921D9282E0ED3FF80722
:102FD000D1F784E00E949D180E94E8072E960FB654
:102FE000F894DEBF0FBECDBFDF91CF910C940819CE
:102FF0001F93CF93DF9300D000D0CDB7DEB70E94F0
:10300000DB1860910603882371F119821A821B82F2
:103010001C82862F90E0BE016F5F7F4F83509D4FD3
:103020000E941619E09105039E012B5F3F4FF0E0CF
:10303000E350FD4FDE011196882361F010E08D9181
:103040009081981711F0808311E03196A217B30791
:10305000B1F706C011921D92A217B307D9F711E07C
:103060000E94EE070DC070E063507D4F8091050314
:1030700090E083509D4F0E94B8190E94051710E000
:10308000812F0F900F900F900F90DF91CF911F9194
:103090000895EF92FF920F931F93CF93DF93CDB7D5
:1030A000DEB728970FB6F894DEBF0FBECDBF8E01F6
:1030B0000F5F1F4F88E0F80111928A95E9F7F12C14
:1030C0006F2DC8010E942717F394F4E0FF12F8CF88
:1030D00048E050E0B80185EF92E00E9474337C0133
:1030E00021E0892B09F420E0E114F10441F088E0AB
:1030F000F801A5EFB2E001900D928A95E1F7609199
:10310000060370E063507D4F44E085EF92E00E943B
:103110009E18EF2819F40E94F81702C081E090E091
:1031200028960FB6F894DEBF0FBECDBFDF91CF91CA
:103130001F910F91FF90EF9008950895FF920F93C4
:103140001F93CF93DF938C01F62ED72FC42F22230A
:1031500049F081E08093A6020E94702A9093A50214
:103160008093A4028091A6028823C1F08091A402DA
:103170009091A5020E94882A059780F0EF2DFD2FDF
:10318000D8014C2F50E0CD01801B910B841795077F
:103190001CF48D918193F7CF1092A602DF91CF910D
:1031A0001F910F91FF90089555985D9889B185FB07
:1031B000882780F90895CF938091A902811116C0C4
:1031C000CAEF0E942D3381110AC08FE39CE9019759
:1031D000F1F700C00000C150A1F782E001C081E01A
:1031E0008093A902823011F40E94283381E09091EB
:1031F000A902913009F080E0CF9108950E94D4187F
:10320000809310010E94DB1881110C9460190895BD
:103210000E94DB18811102C00C946219089581E0AC
:103220009091AA029A3008F080E00895EF92FF9200
:103230000F931F93CF938C017B01C091AA02CA30D8
:1032400038F4B701C8010E94B619811126C00AC01E
:103250008091A7029091A8020E94882A843F914001
:1032600080F719C08091AA028F3F19F08F5F809379
:10327000AA028091AA028A30E0F00E94702A9093FC
:10328000A8028093A7028091A30280FF04C08DEC66
:1032900093E00E94CD0680E00DC0CA3040F08091DE
:1032A000A30280FF04C08AEB93E00E94CD06109237
:1032B000AA0281E0CF911F910F91FF90EF900895A6
:1032C0000C94FA260C94FD26EF92FF920F931F9315
:1032D000CF93DF937901C82F880FDD0B411551057E
:1032E000A9F08AE08C9FF0018D9FF00D1124EF5E14
:1032F000FE4F8381948185559D4F228130E0421796
:10330000530708F49A01A9010E948133CE010E945B
:103310000728892B09F50115110501F18AE08C9F19
:10332000F0018D9FF00D1124EF5EFE4F458150E0BE
:103330000417150708F4A8018AE08C9FF0018D9FFF
:10334000F00D1124EF5EFE4F6681778165557D4F4C
:10335000C7010E94813302C080E001C081E0DF919B
:10336000CF911F910F91FF90EF9008950C94F31A55
:103370000C94131B0F931F93CF93DF9300D000D0B7
:10338000CDB7DEB76091C0027091C1028091C202D8
:103390009091C3020E94972A6436710581059105B8
:1033A00028F10E94CD29DC01CB010296A11DB11D9F
:1033B00089839A83AB83BC8300E010E020E030E097
:1033C00044E050E0BE016F5F7F4F82E00E946419CD
:1033D000182F882361F00E947C2A6093C0027093AA
:1033E000C1028093C2029093C30201C011E0812FF9
:1033F0000F900F900F900F90DF91CF911F910F9131
:1034000008958F929F92AF92BF92CF92DF92EF92E8
:10341000FF920F931F93CF93DF937C015B01942E58
:10342000852E69010E940F19811103C001E010E08F
:1034300002C00AE010E0C1E0D0E0F894B501C70195
:10344000F60109957894811129C021960C171D0762
:103450008CF0CC9F9001CD9F300D300D112480E079
:1034600090E045E34A95F1F70000019628173907E7
:10347000C1F7E3CF9091A302892F817090FF0FC015
:103480008F929F9283E094E09F938F930E946607B0
:103490000F900F900F900F9080E001C081E0DF91BE
:1034A000CF911F910F91FF90EF90DF90CF90BF9041
:1034B000AF909F908F900895AF92BF92CF92DF927E
:1034C000EF92FF920F931F93CF93DF9300D000D022
:1034D0001F92CDB7DEB75B01E090AA01F090AB017F
:1034E00001E010E09E012B5F3F4F40E050E060E0C4
:1034F00070E080E00E946419182F882309F43EC010
:1035000067018FEFC81AD80A6091BC027091BD02A2
:103510008091BE029091BF020E94972A6436710585
:103520008105910518F104E010E09E012F5F3F4FE7
:1035300040E050E060E070E081E00E946419182FE4
:1035400064E070E0C6010E94672491E02D81281399
:1035500090E0192351F10E947C2A6093BC02709381
:10356000BD028093BE029093BF0211C064E070E080
:10357000C6010E9467249D818913D5CFF7018181FF
:103580009281A381B48189839A83AB83BC83112305
:1035900061F089819A81AB81BC818093B80290935C
:1035A000B902A093BA02B093BB028091B802909185
:1035B000B902A091BA02B091BB02F5018083918358
:1035C000A283B383812F0F900F900F900F900F90D5
:1035D000DF91CF911F910F91FF90EF90DF90CF90EF
:1035E000BF90AF9008950F931F93CF93DF93EC019B
:1035F0008B012CE53AE14CEA51E00E94011A882344
:1036000061F02AEB39E149EB51E0B801CE01DF91DD
:10361000CF911F910F910C94011A80E0DF91CF910F
:103620001F910F9108950F931F93CF93DF93F894F9
:10363000C091AA01D091AB01CE01019624E0FB011B
:10364000DC0101900D922A95E1F764E070E00E94A0
:10365000672488837894F8946D817E818F81988522
:103660000091B4021091B5022091B6023091B702D8
:10367000601771078207930751F06093B40270934B
:10368000B5028093B6029093B7020E94B029789455
:10369000DF91CF911F910F9108950E94E8290E9418
:1036A0004B2D0E94642D0E947A2D0E949A13FBCF0D
:1036B00080912F011F928F93809130011F928F93E1
:1036C000809133011F928F93809134011F928F93C9
:1036D000809135011F928F93809136011F928F93B5
:1036E00089E194E09F938F930E9466078DB79EB700
:1036F0000E960FB6F8949EBF0FBE8DBF0895883208
:1037000020F58E3108F068C08B3091F1C0F487301D
:1037100009F0BEC08EE18093360182E380933501CB
:103720008AE08093340184E18093330188E08093C0
:10373000300188E280932F018BE795E0C6C083318A
:1037400009F443C0843169F1A3C08F3409F49EC0E9
:1037500028F4893231F1883359F09AC0813531F03B
:1037600008F4D4C0823509F4A7C092C08FEFA5C079
:103770008DE995E00E94CD060E94581B1F9281E0C2
:103780008F931F9285E08F9386E994E09F938F93A8
:103790000E9466070F900F900F900F900F900F9060
:1037A00096C08AE995E00E94CD068091C8028823E0
:1037B00009F4AAC01092C8021092C7021092C60261
:1037C0001092C5021092C402B1C08CE895E00E942C
:1037D000CD060E94581B7BC08D518093C802833058
:1037E00031F170F48130D1F0823009F03FC085E3CF
:1037F00091E09093C7028093C60281ED91E01FC0D3
:10380000853059F108F1863089F58FE291E0909387
:10381000C7028093C6028CE092E011C086E391E07B
:103820009093C7028093C60288EC91E008C084E3BD
:1038300091E09093C7028093C6028DED91E0909342
:10384000C5028093C40218C083E391E09093C7023D
:103850008093C6028AEE91E0F2CF80E391E09093EC
:10386000C7028093C60289EF91E0E9CF1092C802A7
:1038700089E895E00E94CD068091C802882309F46A
:1038800055C01F928F9385E895E00DC08AE015C062
:1038900088E795E01AC097FF47C0108280811F9289
:1038A0008F9382E795E09F938F930E9466070F9016
:1038B0000F900F900F900BC081E0E091C602F09145
:1038C000C702309729F58FE695E00E94CD0620913A
:1038D000C802222359F18091C4029091C502009739
:1038E00011F484EC91E09F938F931F922F9386E6BF
:1038F00095E09F938F930E9466070F900F900F9013
:103900000F900F900F9016C080E0089586EFD5CFEE
:103910002081082E000C990B820F911D8F3F91057D
:1039200009F00CF4B8CF8FEF8083B8CF82E695E032
:103930000E94CD0681E00895CF93C82F1F928F93E8
:1039400083EB95E09F938F930E94660781E001C00F
:10395000880FCA95EAF70E94A20D0F900F900F9062
:103960000F90CF910C94470DEF92FF920F931F93FE
:10397000CF93DF938B3109F4EDC008F08EC08B300C
:1039800009F4B1C008F078C0863009F4AFC020F463
:10399000853009F4BDC04EC1873009F4C0C08830FD
:1039A00009F048C10E94C8121F928F938FED99E0D1
:1039B0009F938F930E9466070E94C41283FB9927EE
:1039C00090F91F929F9382FB992790F91F929F93E2
:1039D00081FB992790F91F929F93982F91701F92C6
:1039E0009F931F928F9386E999E09F938F930E94F4
:1039F00066070E94CC1287FB222720F91F922F9383
:103A000086FB222720F91F922F9385FB222720F97E
:103A10001F922F9384FB222720F91F922F9383FB61
:103A2000222720F91F922F9382FB222720F91F9231
:103A30002F9391FB222720F91F922F93292F21707A
:103A40001F922F9381FB222720F91F922F93282F5B
:103A500021701F922F939F938F9381EB98E09F93F8
:103A60008F930E9466078DB79EB788960FB6F8941D
:103A70009EBF0FBE8DBF35C0803109F495C020F4C4
:103A80008E3009F47BC0D6C0863109F4A8C08931D4
:103A900009F0D0C083E296E084C08A32E1F060F49D
:103AA000873209F4C3C028F48E3108F4C3C08D51A5
:103AB000BEC0893269F1BEC0833448F48A3308F04D
:103AC000B3C0853309F4B2C0883369F0B3C083341E
:103AD00009F4ACC0AFC08AE89AE00E94CD060E940B
:103AE0006013C1E0ACC08EE097E05BC08091A302A0
:103AF000817F8E7F8093A30287EE96E00E94CD06A1
:103B000086E89AE00E94CD0681E08093C902E9CF61
:103B10008AE69AE00E94CD060E94F107E2CF8091EA
:103B2000A302C82FC095C170C0FB80F98093A30287
:103B3000CC2329F08EE59AE00E94CD0680C081E575
:103B40009AE00E94CD068091A302897F877F8093AF
:103B5000A302C7CF9091A30291FBCC27C0F981E0CB
:103B6000C827892FC0FB81F98093A302CC2319F0C9
:103B700084E49AE029C086E39AE013C09091A302FE
:103B800092FBCC27C0F981E0C827892FC0FB82F9BE
:103B90008093A302CC2319F087E29AE015C087E155
:103BA0009AE00E94CD069DCF9091A30293FBCC2773
:103BB000C0F981E0C827892FC0FB83F98093A30255
:103BC000CC2351F08BE09AE00E94CD068091A302B5
:103BD00081608093A30233C08EEF99E0E2CF0E9410
:103BE0007C2A162F072FF82EE92ED091F202C091D1
:103BF00041010E94C428EF92FF920F931F931F92DE
:103C0000DF931F92CF931F928F9388EB95E09F9342
:103C10008F930E9466078DB79EB70C960FB6F894E7
:103C20009EBF0FBE8DBF5DCF895301C080E00E9453
:103C30009C1C57CF8CEF99E00E94CD06C0E08C2FE2
:103C4000DF91CF911F910F91FF90EF90089580E049
:103C500008950C94271ECF93C82F8091C9028130FC
:103C600071F040F0823009F045C08C2F0E947F1B1C
:103C700081E046C00E9401128232F1F504C00E9428
:103C80000112823261F48C2F0E94291E811104C01E
:103C90008C2F0E94B41C2CC081E090E029C08C2F96
:103CA0000E94271E811123C0C431C9F058F4CB30C3
:103CB00069F0C031B9F482E08093C90288E30E94C0
:103CC0007F1B15C0C93259F0C83361F487EE96E006
:103CD0000E94CD068FEA95E00E94CD0608C01092A2
:103CE000C9020CC08DEA95E00E94CD0607C081E0B4
:103CF000817006C01092C90280E002C080E0F8CF57
:103D0000CF9108958091D00280FF0BC06091340163
:103D100085E0689FB0011124759567957595679545
:103D20002BC081FF09C06091340185E0689FB0011C
:103D300011247595679520C082FF07C060913401FA
:103D400085E0689FB001112417C09091CF0299239C
:103D5000D1F060913301961788F72091340185E006
:103D6000289F90011124929FA001939F500D112430
:103D700070E0CA010E943F336038710540F461155C
:103D8000710519F406C065E070E0862F08958FE78D
:103D9000089581E008958091D00280FF08C060916D
:103DA000300170E0759567957595679521C081FF25
:103DB00006C06091300170E07595679519C082FF6B
:103DC00004C06091300170E010C09091CE02992340
:103DD00099F060912F019617A0F780913001899F8B
:103DE000C001112470E00E943F336038710540F437
:103DF0006115710519F406C061E070E0862F089521
:103E00008FE7089581E00895803F21F40E94821E8B
:103E1000819504C0813F29F40E94821E8093D402C0
:103E20000895823F21F40E94821E819504C0833F41
:103E300029F40E94821E8093D3020895893F19F4C9
:103E40000E94CB1E05C08A3F31F40E94CB1E819593
:103E50008093D50208958B3F21F40E94CB1E81955B
:103E600004C08C3F29F40E94CB1E8093D602089593
:103E70009CE0980F953078F421E030E0A90102C071
:103E8000440F551F9A95E2F7CA019091D202892BEF
:103E90008093D20208958D3F21F48091D0028160F9
:103EA0000BC08E3F21F48091D002826005C08F3F0D
:103EB00029F48091D00284608093D0020895803FDD
:103EC00039F49091D40297FF35C01092D40259C0B2
:103ED000813F29F49091D4021916BCF32BC0909124
:103EE000D302823F29F497FF25C01092D30249C024
:103EF000833F19F41916CCF31DC09091D502893F68
:103F000029F41916BCF41092D5023BC08A3F19F46B
:103F100097FF10C0F8CF8B3F39F49091D60297FFEE
:103F200009C01092D6022DC08C3F21F49091D60288
:103F30001916BCF39CE0980F953080F421E030E036
:103F4000A90102C0440F551F9A95E2F7CA01809556
:103F50009091D20289238093D20213C08D3F21F425
:103F60008091D0028E7F0BC08E3F21F48091D002D1
:103F70008D7F05C08F3F29F48091D0028B7F809385
:103F8000D0028091D302811106C08091D4028111A8
:103F900002C01092CF028091D502811106C080919B
:103FA000D602811102C01092CE0208958091A30220
:103FB00083FF7EC082EC9AE00E94CD068091D202FF
:103FC0001F928F938DEB9AE09F938F930E946607C9
:103FD0008BEB9AE00E94CD068091D302282F082E09
:103FE000000C330B3F938F9388EB9AE09F938F9352
:103FF0000E94660786EB9AE00E94CD068091D4026B
:10400000282F082E000C330B3F938F9383EB9AE0FD
:104010009F938F930E94660781EB9AE00E94CD06E2
:104020008091D502282F082E000C330B3F938F93DD
:104030008EEA9AE09F938F930E9466078CEA9AE03B
:104040000E94CD068091D602282F082E000C330B3B
:104050003F938F9389EA9AE09F938F930E9466071C
:1040600086EA9AE00E94CD068091CF021F928F933C
:1040700083EA9AE09F938F930E94660781EA9AE011
:104080000E94CD068091D0021F928F938EE99AE014
:104090009F938F930E9466078BE99AE00E94CD065A
:1040A0008DB79EB74C960FB6F8949EBF0FBE8DBFCE
:1040B0000E94702A2091D302211104C02091D402C1
:1040C000222321F09093CD028093CC022091D5023F
:1040D000211104C02091D602222321F09093CB021B
:1040E0008093CA0281ED92E00C942029EF92FF9216
:1040F0000F931F93CF93DF9300D000D000D0CDB7A4
:10410000DEB786E0E1EDF2E0DE01119601900D925E
:104110008A95E1F7E090D302F090D4020091D502A5
:104120001091D6021092D3021092D4021092D502AE
:104130001092D602E11003C0FF2009F45DC0809107
:10414000CC029091CD020E94882AAC019091CF02BE
:10415000992339F02091350130E02417350758F0C4
:104160004BC0209136018AE0289F9001112424172A
:10417000350718F041C09F3F19F09F5F9093CF0221
:10418000EE2061F00E94821E1E1414F09FEF01C009
:1041900091E0989F902D11249093D302FF2061F01D
:1041A0000E94821E1F1414F09FEF01C091E0989F9F
:1041B000902D11249093D4023091D3023323E1F057
:1041C0002091D4022223C1F045EB3403C001112415
:1041D000992319F09093D30203C081E08093D30216
:1041E00035EB2303C0011124992319F09093D402D5
:1041F00003C081E08093D402011103C0112309F4AC
:104200005DC08091CA029091CB020E94882AAC01C5
:104210009091CE02992339F02091310130E024179A
:10422000350758F04BC0209132018AE0289F900159
:1042300011242417350718F041C09F3F19F09F5FE4
:104240009093CE02002361F00E94CB1E101614F052
:104250009FEF01C091E0989F902D11249093D5027B
:10426000112361F00E94CB1E111614F09FEF01C0C4
:1042700091E0989F902D11249093D6023091D50211
:104280003323E1F02091D6022223C1F045EB340321
:10429000C0011124992319F09093D50203C081E045
:1042A0008093D50235EB2303C0011124992319F023
:1042B0009093D60203C081E08093D6028091D3020E
:1042C00081110BC08091D402811107C08091D50269
:1042D000811103C08091D60281110E94D61FEB820A
:1042E000FC820D831E8386E0FE013196A1EDB2E0D3
:1042F00001900D928A95E1F726960FB6F894DEBFED
:104300000FBECDBFDF91CF911F910F91FF90EF9026
:104310000895E1EDF2E086E0DF011D928A95E9F76C
:104320001092CF021092CE021092D002089583E232
:1043300090E00E948A33813281F484E290E00E940E
:104340008A33803151F485E290E00E948A3391E013
:10435000803109F090E0892F01C080E081700895DC
:10436000CF93C82F811102C06FEF01C061E283E2D9
:1043700090E00E949833C11102C06FEF01C060E16C
:1043800084E290E00E949833C11102C06FEF01C037
:1043900060E185E290E0CF910C949833089586E235
:1043A00090E00E948A33682F70E080E090E00895EA
:1043B00086E290E00C94983380E00E94B02160E0A7
:1043C00070E0CB010E94D8210E941F230E94FE238F
:1043D00081E00C94B0210E94CE210E94972181118E
:1043E00002C00C94DC210895CF93FB01C281CC2341
:1043F000E9F09C0122513F452031310520F48251E2
:104400000E940E240CC08031FFE59F0751F481E02B
:104410000E94C60D43E062E081E00E94DF07C0E039
:1044200018C081319F45A9F482E0F2CF8031EFE5D9
:104430009E0711F481E004C081319F4549F482E078
:104440000E94D10D43E062E081E00E94DF0701C0DD
:10445000C1E08C2FCF9108952FEFFC0120830895A8
:10446000EF92FF920F931F93CF93DF93EC01062FF0
:10447000E8818E2F90E0FC013197E331F10508F0DF
:1044800091C0E059FF4F0C945333198289E04DC01D
:104490008981823039F0833061F0813029F50E94C2
:1044A0007C2A02C00E94CF219A838B837C836D83F8
:1044B0007BC07E0182E0E80EF11C10E0812F0E949B
:1044C0009016F70181937F011F5F1830B9F76CC018
:1044D0008981823049F46A817B818C819D810E942F
:1044E00059330E94D82160C0602FCE010E942C2237
:1044F0005BC04B816A8189810E94F1229C838D83FC
:1045000053C02C813D813227232732274B816A817A
:1045100089810E940A2348C00E941F2345C00E942F
:10452000B12324C00E94B32399838A833DC06B8149
:1045300070E089819A81AE014C5F5F4F982789278F
:1045400098270E94B62330C06B8170E089819A81E0
:10455000AE014C5F5F4F9827892798270E94DB2385
:1045600023C00E94FE2320C00E94DE2289831CC03B
:104570006B8170E089819A81AE014C5F5F4F982713
:10458000892798270E945E230FC06B8170E0898184
:104590009A81AE014C5F5F4F9827892798270E9428
:1045A000822302C08FEF8883602FCE01DF91CF91ED
:1045B0001F910F91FF90EF900C94822B84E008954F
:1045C00050E0440F551F2CE0629F400D511D1124F7
:1045D0009A0160E6869F200D311D1124C90187963E
:1045E00008950F931F93CF93DF930E94E0228C01D5
:1045F0000E948A33C82FD0E0DC2FCC27C801019657
:104600000E948A339E01282BC901DF91CF911F910F
:104610000F9108950F931F93CF93DF93122F032FC2
:104620000E94E022EC01602F0E949833612FCE019E
:104630000196DF91CF911F910F910C949833AF9217
:10464000BF92CF92DF92EF92FF920F931F93CF937F
:10465000DF93A12CE12CF12CB12C00E010E0C0E0A4
:10466000D0E06701C00ED11EFE01EE0FFF1FEC0D62
:10467000FD1DE65EFE4F259134914C2F6B2D8A2D4A
:104680000E940A232196C630D10571F7045F1F4F9F
:10469000B39488E0B812E3CF80E6E80EF11CA3944F
:1046A00084E0A812D9CFDF91CF911F910F91FF9095
:1046B000EF90DF90CF90BF90AF900895EF92FF9270
:1046C0000F931F93CF93DF93EA017A01E60EF71E53
:1046D0008C01C8018796CE15DF0569F0003821E00E
:1046E000120720F40E948A33888301C01882219621
:1046F0000F5F1F4FEECFDF91CF911F910F91FF9072
:10470000EF900895EF92FF920F931F93CF93DF9353
:10471000EA017A01E60EF71E8C01C8018796CE15D4
:10472000DF0559F0003821E0120718F468810E9473
:10473000983321960F5F1F4FF0CFDF91CF911F91DC
:104740000F91FF90EF900895462F843038F4783021
:1047500028F4663018F4672F0C94F12280E090E082
:10476000089580E1089589E592E00895EF92FF921F
:104770000F931F93CF93DF93EA017A01E60EF71EA2
:104780008C01C80189559E4FCE15DF0569F00935AA
:1047900022E0120720F40E948A33888301C0188225
:1047A00021960F5F1F4FEDCFDF91CF911F910F919A
:1047B000FF90EF900895EF92FF920F931F93CF9386
:1047C000DF93EA017A01E60EF71E8C01C8018955D4
:1047D0009E4FCE15DF0559F0093522E0120718F477
:1047E00068810E94983321960F5F1F4FEFCFDF91B2
:1047F000CF911F910F91FF90EF900895CF93DF938A
:10480000C7EAD1E060E0CE010E9498332196C1153D
:1048100084E0D807B9F7DF91CF910895DF92EF9246
:10482000FF920F931F93CF93DF9300D000D0CDB7AB
:10483000DEB7F82E8FE08F15E8F18FEF93E00E943E
:104840008A33811137C007EA11E0FF2069F00115B2
:1048500084E0180779F1C8010E948A33811101C0F0
:10486000FA940F5F1F4FF1CF19821A821B821C82AC
:10487000DD24D39478018FEFE81AF80AC8010E946A
:104880008A3389831A828823A9F09FEF980F933087
:1048900058F48A83D9820E5F1F4FC7010E948A3362
:1048A0008B83882339F07801CE0101960E94470955
:1048B0008701E0CF0F900F900F900F90DF91CF9175
:1048C0001F910F91FF90EF90DF9008950895FC01E4
:1048D000680F791F8FEF91E3E617F70771F02191C9
:1048E000822728E030E087FF03C0880F892701C0B6
:1048F000880F21503109B9F7EFCF08950F931F9317
:10490000CF93DF93C42FD22FFC0182818823C9F07B
:104910004093D9020E94702A9093D8028093D702C4
:1049200080E28C0F883008F057C0C77081E001C06A
:10493000880FCA95EAF7DF91CF911F910F910C94E0
:10494000F40A8091D902481330C08091D702909127
:10495000D8020E94882A883C910538F510E21D0F84
:10496000CD17B9F080E28C0F883040F4C77081E039
:1049700001C0880FCA95EAF70E94FB0A183028F593
:1049800081E09D2F977001C0880F9A95EAF70E94E9
:10499000F40A802F0E94EB0A1830F0F4D77081E0FF
:1049A00001C0880FDA95EAF70AC080E28C0F8830E0
:1049B00098F4C77081E001C0880FCA95EAF7DF91CB
:1049C000CF911F910F910C94FB0A802FDF91CF9113
:1049D0001F910F910C94EB0ADF91CF911F910F91D2
:1049E00008950F939C01CB01233F4CE5340731F12F
:1049F00088F4283DFCE53F07D9F0293D4CE5340714
:104A000079F1273D3C45A9F506E221EE41EE67ED3F
:104A10007CE52BC0253FFCE53F07E1F0A8F0263FF1
:104A20003C4539F507E225EE46EE66EF7CE51DC014
:104A300007E225EE45EE68ED7CE517C006E221EEC3
:104A400040EE63EF7CE511C007E225EE44EE64EF33
:104A50007CE50BC006E221EE42EE65EF7CE505C089
:104A600008E221E045EE69ED7CE50E947E2480E0CD
:104A700008C0FC018281882319F01092D90201C07C
:104A800081E00F910895CF93DF93EC01FB018281C8
:104A9000882309F41FC1C230FCE5DF0708F41BC1FD
:104AA000C6319CE5D90738F09E012A5F3C45293084
:104AB000310508F010C10E94CC129093F40280934B
:104AC000F302C031ECE5DE0709F4C3C008F041C0D1
:104AD000C8308CE5D80709F49AC0F0F4C430ECE58E
:104AE000DE0709F487C068F4C2308CE5D80709F402
:104AF00077C0C330DC4509F0E3C08091F3028260E7
:104B000076C0C630ECE5DE0709F46EC008F07BC065
:104B10008091F30288606BC0CC308CE5D80709F433
:104B200085C068F4CA30ECE5DE0709F474C008F00B
:104B300079C00E94470D8091F302806858C0CE3042
:104B40008CE5D80709F476C008F07FC08091F302A5
:104B50008BC0CB3FECE5DE0709F44FC018F5C3313D
:104B60008CE5D80709F47DC078F4C131ECE5DE07A7
:104B700009F473C0C231DC4509F0A2C00E94470DA0
:104B80008091F3028F7733C0C5318CE5D80709F4E3
:104B900072C008F486C0CA3FDC4509F091C080911C
:104BA000F4023EC0CF3FFCE5DF0709F45FC058F4D4
:104BB000CD3F9CE5D90709F444C008F43FC080917B
:104BC000F40282602DC0C130FDE5DF0709F475C035
:104BD00008F45DC0C230DD4509F072C080E06EC0EF
:104BE0008091F302816003C08091F3028061809321
:104BF000F30266C08091F30211C08091F4028260DA
:104C00008093F4025DC08091F3028062F0CF8091C6
:104C1000F3028064ECCF8091F30288608460E7CF78
:104C20008160EECF8091F3028E7FE1CF8091F3021D
:104C30008D7FDDCF8091F302877FD9CF8091F40201
:104C400018C08091F4028D7FDBCF8091F3028F7EBC
:104C5000CECF8091F3028F7DCACF8091F3028F7BFC
:104C6000C6CF8091F302877F8B7FC1CF8091F40202
:104C70008D7F8E7FC5CF8091F30282FB222720F9A2
:104C800091E0922790FB82F990FB83F9B0CF80915D
:104C9000F402982F909591708E7F892B90FB81F96B
:104CA000AFCF0E94470D8091F30287FB222720F9A6
:104CB00091E0922790FB87F99ACF81E00E946213DE
:104CC0008091F3029091F4020E94DD120E94470D40
:104CD00080E001C081E0DF91CF910895CF93DF9311
:104CE00086319C4541F5EB010E940112982F8A8183
:104CF0002091000130910101882379F09A7A81E0B6
:104D000009F480E08093DA02911102C069E201C0E7
:104D100065E3C9010E949C290AC08091DA028111D1
:104D200002C069E201C065E3C9010E949E290E9498
:104D3000461280E001C081E0DF91CF9108958EE1BD
:104D4000489B02C08150E1F7489BFECF08955898D8
:104D500080E28A95F1F7589A0895FC012AE02A9595
:104D6000F1F728E090E080E031E040E14A95F1F78A
:104D7000880F489B02C08160932700C0000040E17B
:104D80004A95F1F7215089F720E12A95F1F729B1E9
:104D900000C0000030E13A95F1F7217092272081A0
:104DA000920F90830895EF92FF920F931F93CF93EA
:104DB000DF931F92CDB7DEB719828C017C01E60E1E
:104DC000F11C0E151F0551F00E949F26CE01019681
:104DD0000E94AD26F80181938F01F3CF81E0998184
:104DE000911180E00F90DF91CF911F910F91FF9073
:104DF000EF900895509A589A08955098589AE89AC2
:104E0000E9E6F0E080818C7F80830895615091E035
:104E100001C0990F6A95EAF720E031E0992361F02B
:104E2000492F482319F0589A232701C0589840E287
:104E30004A95F1F79695F2CF222311F0589A01C0C6
:104E4000589880E28A95F1F758980895FF920F9349
:104E50001F93CF93DF93EC018C01060F111DC01738
:104E6000D10741F0F9900E94A72668E08F2D0E949B
:104E70000627F5CFDF91CF911F910F91FF900895F5
:104E80001F920F920FB60F921124EF92FF920F9381
:104E90001F932F933F934F935F936F937F938F93C2
:104EA0009F93AF93BF93EF93FF93CF93DF931F92A3
:104EB000CDB7DEB719820E949F26CE0101960E94CF
:104EC000AD26A82FA695A695A6959A2F969595708E
:104ED0002A2F2570920F292F237096959695920F61
:104EE000877089137CC08981811179C0A43008F052
:104EF00076C080E18A95F1F7589A509AB2E0BA9557
:104F0000F1F700C05898EA2EF12CEAE0AE9FD001EC
:104F10001124AF5EBE4F1896ED91FC911997309712
:104F2000B1F06091AA017091AB0116962D913C9160
:104F30001797260F371F13968D919C911497680F22
:104F4000791F15964C91159712968C9109958AE0C8
:104F50008E9DF0018F9DF00D1124EF5EFE4F658157
:104F6000662351F08091AA019091AB01268137818F
:104F7000820F931F0E9426270E94A726F0E1FA9530
:104F8000F1F758985098589A80E18A95F1F78AE09D
:104F90008E9D80018F9D100D11240F5E1E4FD80134
:104FA00012966C911297662399F08091AA019091C4
:104FB000AB0113962D913C911497820F931F0E9481
:104FC000D326D801ED91FC91811105C082E004C087
:104FD000D801ED91FC9188E080830E949F260F907C
:104FE000DF91CF91FF91EF91BF91AF919F918F9101
:104FF0007F916F915F914F913F912F911F910F91F1
:10500000FF90EF900F900FBE0F901F9018950F9389
:105010001F93CF93DF93843091050CF0A9C02AE051
:10502000289FF001299FF00D1124EF5EFE4F208193
:105030003181232B09F49CC0EC01F894509A5898C4
:1050400085E08A95F1F700008C2F869585709C2F5E
:105050009570890F982F9370869586958E0123E021
:10506000000F111F2A95E1F7890F082B0E94A72630
:10507000A4E0AA95F1F700C068E0802F0E940627FF
:10508000B0E1BA95F1F75098589A489902C000C01B
:10509000FCCF87E090E0489B17C0019799F4509AA5
:1050A000589A8AE08C9FF0018D9FF00D1124EF5EDD
:1050B000FE4F0190F081E02D81E08083789481E0C3
:1050C00090E058C000C0E7CF8AE08C9F80018D9FA0
:1050D000100D11240F5E1E4FF80165816623B9F093
:1050E0008091AA019091AB0126813781820F931F95
:1050F0000E94D32681110BC0509A589AD801ED9185
:10510000FC9182E08083789482E090E033C00E943A
:105110009F26B0E2BA95F1F75898509AE0E1EA95E7
:10512000F1F78AE08C9FF0018D9FF00D1124EF5E66
:10513000FE4F6281662351F08091AA019091AB01EC
:1051400023813481820F931F0E9426270E94A72665
:105150008AE08C9FF0018D9FF00D1124EF5EFE4FD1
:105160000190F081E02D1082789480E090E002C000
:1051700084E090E0DF91CF911F910F91089590937B
:10518000E1028093E00208950E94DB18811103C0C0
:105190008091DB020895E091E002F091E102309706
:1051A00021F00190F081E02D099480E00895EF92C4
:1051B000FF920F931F93CF93DF93E091E002F09162
:1051C000E1023097B1F18C010280F381E02D099565
:1051D0008091A30282FF2DC080FF04C08DEE9AE073
:1051E0000E94CD06E80118E087EEE82E8AE0F82E4E
:1051F0008091A30280FF0BC088811F928F93FF9242
:10520000EF920E9466070F900F900F900F90115031
:1052100021961111EDCF8091A30280FF0AC085EE87
:105220009AE0DF91CF911F910F91FF90EF900C9436
:10523000CD06DF91CF911F910F91FF90EF900895D0
:10524000E091E002F091E102309739F022E0DC01D8
:105250002C930480F581E02D099408952091DE02BD
:105260003091DF022817390771F09093DF028093A5
:10527000DE02E091E002F091E102309721F0068039
:10528000F781E02D099408952091DC023091DD0230
:105290002817390771F09093DD028093DC02E091CA
:1052A000E002F091E102309721F00084F185E02DD9
:1052B00009940895FC01329697E080E0915029F01E
:1052C00021912223D9F38F5FF9CF0895662349F006
:1052D000FC01329608962191621729F0E817F90728
:1052E000D1F780E0089581E008959C01FC01329699
:1052F0009FEF80E04191461789F09F3F19F44111DB
:1053000001C0982F8F5F8630A9F79F3F39F0F901D0
:10531000E90FF11D97FDFA956283089508959C01A8
:105320002A5F3F4FFC014281461301C01282019661
:1053300082179307B9F708950C9475290C948F2957
:10534000029626E0FC0111922A95E9F70895109241
:1053500008031092090310920A0310920B03089598
:10536000CF92DF92EF92FF926B017C010E94DB18DB
:1053700081110EC00E947C2AC61AD70AE80AF90ACF
:10538000C0920803D0920903E0920A03F0920B0343
:10539000FF90EF90DF90CF9008950F931F930E949E
:1053A000DB18882321F01F910F910C947C2A0E9416
:1053B0007C2A009108031091090320910A0330917F
:1053C0000B03600F711F821F931F1F910F91089590
:1053D000089508950C94E9290C94E929CF930E942B
:1053E000EC290E9449180E94EA29C0E08C2F0E94F3
:1053F0009016811104C0CF5FC830C1F701C081E0B1
:10540000CF9108950C94E9290C94022A80911403F9
:10541000843049F10E94042A80E00E9464091092BD
:10542000E20220E488E190E00FB6F894A89580931A
:1054300060000FBE2093600083B7817F846083BFCC
:1054400083B7816083BF7894889583B78E7F83BF4D
:105450000FB6F894A89580916000886180936000F1
:10546000109260000FBE08950C94E9290E94470D28
:105470000E94C4280E9464090C94342A1F920F923F
:105480000FB60F9211248F939F93AF93BF93809188
:10549000E202811113C080910C0390910D03A09141
:1054A0000E03B0910F034196A11DB11D80930C0313
:1054B00090930D03A0930E03B0930F03BF91AF9190
:1054C0009F918F910F900FBE0F901F90189582E0C3
:1054D00084BD93E095BD9AEF97BD80936E000895CB
:1054E0002FB7F89480910C0390910D03A0910E03B7
:1054F000B0910F032FBF08952FB7F89460910C035C
:1055000070910D0380910E0390910F032FBF0895AA
:105510009C014FB7F89480910C0390910D03A091DA
:105520000E03B0910F034FBF821B930B0895CF92D0
:10553000DF92EF92FF922FB7F894C0900C03D090B7
:105540000D03E0900E03F0900F032FBFA70196010B
:10555000261B370B480B590BCA01B901FF90EF907E
:10556000DF90CF90089578941F920F920FB60F920C
:1055700011248F939F93AF93BF9380910C039091CD
:105580000D03A0910E03B0910F030196A11DB11D53
:1055900080930C0390930D03A0930E03B0930F031D
:1055A000BF91AF919F918F910F900FBE0F901F9061
:1055B000189581E08093E00080E28093D8001092FB
:1055C000C9008FE19EE40197F1F700C0000087E079
:1055D00090EBDC0180931D0390931E03A0931F03A7
:1055E000B09320039CE088E10FB6F894A8958093CF
:1055F00060000FBE90936000FFCF909337028093BE
:10560000360208958091F102089590911403943028
:1056100029F58093E5027093E7026093E602909388
:10562000E9008FEF9091E800815095FD06C095ED5F
:105630009A95F1F700008111F5CF8091E80085FF80
:105640000DC040E050E063E070E085EE92E00E9423
:10565000402E8091E8008E778093E8000895BC0189
:1056600084E00C94052BBC0183E00C94052B24E012
:105670002093E9002FEF3091E800215035FD06C05E
:1056800035ED3A95F1F700002111F5CF2091E800B2
:1056900025FF0BC040E050E066E070E00E94402E25
:1056A0008091E8008E778093E8000895CF93DF9390
:1056B00021E02093E9002FEF3091E800215035FDE3
:1056C00006C035ED3A95F1F700002111F5CF209194
:1056D000E80025FF14C0EC0140E050E068E070E015
:1056E0000E94402E8091E8008E778093E80088E049
:1056F000FE01A9EEB2E001900D928A95E1F7DF91EB
:10570000CF910895CF93603219F52091140324307E
:10571000F9F4C091E900CF703091EC00232F217093
:1057200030FD20E8C22B22E02093E9002091E80020
:1057300020FF0BC040E050E060E270E00E94402E8D
:105740008091E8008E778093E800CF70C093E900E5
:10575000CF91089584E29BE00E94CD0680911303CF
:10576000811109C00E941C300E9479308091E200B2
:1057700084608093E200089580E29BE00E94CD0661
:105780001092130308958CE19BE00C94CD0688E100
:105790009BE00C94CD0684E19BE00C94CD06209117
:1057A000E4022F5F822F62E30E943333992319F0C2
:1057B0002093E40208951092E4028091E802882385
:1057C00071F180911403843041F58091E9008F706C
:1057D0002091EC00922F917020FD90E8892B95E0AC
:1057E0009093E9009091EB0090FF14C09091EE002F
:1057F00097FF10C09091E80095FF03C01092F10050
:10580000F9CF9091E80090FF05C09091E8009E7755
:105810009093E8008F708093E9001092E802089559
:1058200042E061EC81E00E94952F42E261EC84E06D
:105830000E94952F42E261EC82E00E94952F42E2A5
:1058400060EC83E00E94952F42E261EC85E00C94CD
:10585000952F80911603833009F462C030F48130B3
:1058600071F0823009F49BC008958A3009F487C032
:105870008B3009F46DC0893009F0A9C020C0809137
:105880001503813A09F0A3C08091E800877F8093D7
:10589000E8008091190390911A03892B21F468E0A4
:1058A00089EE92E003C060E080E090E070E00E944A
:1058B000D62E8091E8008B778093E8000895809140
:1058C0001503813209F083C08091190390911A0366
:1058D000009719F0029709F07AC08091E800877F5D
:1058E0008093E8008091E80082FD05C08091140358
:1058F0008111F8CF6CC02091F3008091F20090E00C
:10590000922B029729F48091F1008B7F813021F452
:105910008091F1008093F1028091E8008B7753C071
:1059200080911503813A09F052C08091190390913A
:105930001A03892B09F04BC08091E800877F809380
:10594000E8008091E80080FFFCCF8091410136C0E3
:10595000809115038132D9F58091190390911A0332
:10596000892BA9F58091E800877F8093E8000E9449
:10597000CA2F80911703809341010C94470D8091A9
:105980001503813221F58091E800877F8093E8003C
:105990000E94CA2F809118038093F202089580918B
:1059A0001503813AA1F48091E800877F8093E80095
:1059B0008091E80080FFFCCF8091F2028093F1009B
:1059C0008091E8008E778093E8000C94CA2F0895A8
:1059D0009FB7F8941092E8029FBF909114039430FF
:1059E00009F057C09091E9009F703091EC00232F8F
:1059F000217030FD20E8922B25E02093E9002091D2
:105A0000EB0020FF43C02091EE0027FF3FC0209114
:105A1000E302222321F02091E80025FF37C01092F5
:105A2000E30226E03091E80035FD15C03091140303
:105A3000343061F53091EB0035FD28C0215021F460
:105A400081E08093E30222C0EFE9FFE03197F1F7B4
:105A500000C00000E7CF8093F1008091E80085FD51
:105A60000AC08091E80080FFFCCF8091E8008E772B
:105A70008093E80006C08FB7F89421E02093E802F5
:105A80008FBF9F709093E90080E008959F7090937E
:105A9000E9008FEF089584B7877F84BF0FB6F8942D
:105AA000A8958091600088618093600010926000EA
:105AB0000FBE90E080E80FB6F89480936100909359
:105AC00061000FBE0C9490130E941C300E9479302C
:105AD000E2EEF0E080818460808378940E940D3350
