:100000000C9485040C94CC040C94CC040C94CC0477
:100010000C94CC040C94CC040C94CC040C94CC0420
:100020000C94CC040C94CC040C94B5150C94F114E1
:100030000C9498230C94CC040C94CC040C94CC0415
:100040000C94CC040C94CC040C94CC040C94CC04F0
:100050000C94CC040C949F170C94CC040C94CC04FA
:100060000C94CC040C94CC040C94CC040C94CC04D0
:100070000C94CC040C94CC040C94CC040C94CC04C0
:100080000C94CC040C94CC040C94CC040C94CC04B0
:100090000C94CC040C94CC040C94CC040C94CC04A0
:1000A0000C94CC040C94CC040C94CC040D0A0D0AD2
:1000B000480A480AA20AC00ACA0BCA0BCB0A3F0B5D
:1000C000500B500BAA0FAD0FD30FE00FE70F071027
:1000D0000A104C106E100C110C1179107B107E1050
:1000E000A210C310C610C910EC1005132C13D314A2
:1000F0002C13D31478139B13D3149014A0147526C7
:100100007526882688267E268826882688267526AF
:100110007526832688268826832600000000000096
:1001200000000000000000000000000000000000CF
:1001300000000000000000000000000000007E0F32
:1001400000D4FFFFFFC7000000780000000000009F
:1001500000002A2B28000000000000000000000022
:10016000000000000029000000002C1E3420212285
:1001700024342627252E362D3738271E1F202122EE
:10018000232425263333362E37381F040506070867
:10019000090A0B0C0D0E0F10111213141516171857
:1001A000191A1B1C1D2F3130232D35040506070895
:1001B000090A0B0C0D0E0F10111213141516171837
:1001C000191A1B1C1D2F3130354C00047F3F1F6452
:1001D0003214643214783C1E1E140A05050109020B
:1001E000A10185020901A1000509190129081500CD
:1001F0002501950875018102050109300931158134
:10020000257F95027508810609381581257F95019E
:1002100075088106050C0A38021581257F95017540
:10022000088106C0C005010980A101850319012AC2
:10023000B700150126B700950175108100C0050CA7
:100240000901A101850419012AA002150126A002B5
:10025000950175108100C005010906A101850505FC
:100260000719E029E71500250195087501810205A8
:1002700007190029EF1500250195F0750181020588
:1002800008190129059505750191029501750391DC
:1002900001C00660FF0961A1010962150026FF0087
:1002A0009520750881020963150026FF00952075C9
:1002B000089102C005010906A101050719E029E717
:1002C00015002501950875018102950175088101C8
:1002D0000507190029FF150026FF009506750881FE
:1002E000000508190129059505750191029501750B
:1002F000039101C009025B00030100A0FA09040098
:100300000001030101000921110100012240000741
:1003100005810308000A0904010002030000000926
:10032000211101000122220007058203200001079C
:100330000503032000010904020001030000000975
:10034000211101000122B6000705840320000A12D2
:1003500001000200000008424318180100010200D9
:10036000010E03430042003100380030003000002D
:10037000001E0343006800650072007200790042AD
:10038000002E00530074007500640069006F0000C7
:10039000000403090400010101010101010101023E
:1003A0000202020202020202030303030303030325
:1003B00004040404040404050505050506060606F0
:1003C00006070707070708080808090909090A0AAC
:1003D0000A0B0B0B0C0C0C0D0D0D0E0E0E0F0F0F50
:1003E00010101111111212131314141515161617DB
:1003F00017181819191A1A1B1B1C1D1D1E1E1F2049
:1004000020212222232424252626272829292A2B95
:100410002C2D2D2E2F3031323233343536373839BA
:100420003A3B3C3D3E3F40414243444546474849B4
:100430004A4C4D4E4F50515354555658595A5B5D86
:100440005E5F616264656668696B6C6D6F70727324
:100450007577787A7B7D7E8082838587888A8C8E8B
:100460008F91939596989A9C9EA0A2A3A5A7A9ABBD
:10047000ADAFB1B3B5B7BABCBEC0C2C4C6C9CBCDAF
:10048000CFD1D4D6D8DBDDDFE2E4E7E9EBEEF0F361
:10049000F5F8FAFDFFFFAA7F5540222325262829DB
:1004A0002A2C2D2F3032333536383A3B3D3E4042F0
:1004B000434547494A4C4E5051535557595A5C5E33
:1004C0006062646668696B6D6F71737577797B7D47
:1004D0007F81838587898A8C8E90929496989A9C46
:1004E0009E9FA1A3A5A7A8AAACAEAFB1B3B4B6B85E
:1004F000B9BBBCBEBFC1C2C3C5C6C7C9CACBCCCDC0
:10050000CED0D1D2D2D3D4D5D6D7D7D8D9D9DADA9A
:10051000DBDBDBDCDCDCDCDCDDDDDDDDDCDCDCDC1A
:10052000DCDBDBDBDADAD9D9D8D7D7D6D5D4D3D24E
:10053000D2D1D0CECDCCCBCAC9C7C6C5C3C2C1BF2C
:10054000BEBCBBB9B8B6B4B3B1AFAEACAAA8A7A590
:10055000A3A19F9E9C9A98969492908E8C8A89874C
:100560008583817F7D7B79777573716F6D6B69682A
:10057000666462605E5C5A5957555351504E4C4AFE
:100580004947454342403E3D3B3A383635333230A9
:100590002F2D2C2A29282625232229003A003B002A
:1005A0003C003D003E003F0040004100420043004F
:1005B0004400450049004A004B0046004C004D00F5
:1005C0004E00470035001E001F00200021002200C1
:1005D000230024002500260027002D002E002A00DD
:1005E0002A0053005400550048002B0014001A0044
:1005F0000800150017001C0018000C001200130062
:100600002F00300031005F006000610056003900AB
:1006100004001600070009000A000B000D000E0080
:100620000F0033003400320028005C005D005E00E3
:100630005700E10064001D001B00060019000500C2
:1006400011001000360037003800E5005200590054
:100650005A005B005800E000E300E2002C00E600D6
:10066000E7006500E400500051004F0062006300A5
:100670005800005C000001000100010001000100C1
:100680000100010001000100010001000100010062
:100690000100010001000100010001000100010052
:1006A0000100010001000100010001000100010042
:1006B0000100010001000100010001000100010032
:1006C0000100010001000100010001000100010022
:1006D0000100010001000100010001000100010012
:1006E0000100010001000100010001000100010002
:1006F00001000100010001000100010001000100F2
:1007000001000100010001000100010001000100E1
:1007100001000100010001000100010001000100D1
:1007200001000100010001000100010001000100C1
:1007300001000100010001000100010001000100B1
:1007400001000100010001000100010001000100A1
:100750000000010001000100010001000100010092
:100760000100010001000100010001000100010081
:100770000100010001000100010001000100010071
:100780000100010001000100010001000100010061
:100790000100010001000100010001000100010051
:1007A0000100010001000100010001000100010041
:1007B0000100010001000100010001000100010031
:1007C0000100010001000100010001000100010021
:1007D0000100010001000100010001000100010011
:1007E0000100010001000100010001000100010001
:1007F00001000100010001000100010001000100F1
:1008000001000100010001000100010001000100E0
:1008100001000100010001000100010001000100D0
:1008200001000100010001000100010000000100C1
:1008300001000100010001000100010001000100B0
:1008400001000100010001000100010001000100A0
:100850000100010001000100010001000100010090
:100860000100010001000100010001000100010080
:100870000100010001000100010001000100010070
:100880000100010001000100010001000100010060
:100890000100010001000100010001000100010050
:1008A0000100010001000100010001000100010040
:1008B0000100010001000100010001000100010030
:1008C0000100010001000100010001000100010020
:1008D0000100010001000100010001000100010010
:1008E0000100010001000100010001000100010000
:1008F00001000100010001000100010001000100F0
:100900000100010001000100000011241FBECFEF13
:10091000DAE0DEBFCDBF04B603FE27C08091FD0242
:100920009091FE02A091FF02B09100038730904B9E
:10093000A740B04BD1F41092FD021092FE0210922B
:10094000FF021092000314BE84B7877F84BF0FB6E6
:10095000F894A8958091600088618093600010925F
:1009600060000FBEE0E0F8E3099511E0A0E0B1E01F
:10097000E6E1F1E502C005900D92A439B107D9F77F
:1009800022E0A4E9B1E001C01D92AD3FB207E1F75A
:100990000E94210C0C9489280C9400001F93CF9383
:1009A000DF93CDB7DEB767970FB6F894DEBF0FBE03
:1009B000CDBF4B8B5C8B6D8B7E8B8F8B61111092BF
:1009C000690286E09E01235F3F4FD901E82F1D9207
:1009D000EA95E9F795E0FE017396D90101900D9231
:1009E0009A95E1F79C894E895F897B897D879E87EF
:1009F0006F87598B488BF901DE01179601900D9294
:100A00008A95E1F7CE0107960E942D1C81113EC008
:100A100086E0FE013796DE01119601900D928A95CF
:100A2000E1F7FF81E8856A857B856115710531F005
:100A3000EF3F31F481E0FF3F19F403C081E001C0D2
:100A400080E080FD23C02091350230E0C90101968D
:100A5000877099274091660250E08417950779F1D5
:100A6000F983EA837D836C8396E0929FD001939F04
:100A7000B00D1124AA5CBD4FFE01319601900D927C
:100A80009A95E1F7809335020E94AA1B16E08091A7
:100A90006602909135028917F9F0189FC001112460
:100AA0008A5C9D4F0E942D1C8823B1F080916602C4
:100AB00090E001968770992780936602E8CF0E94A4
:100AC0008C261092350210926602EFE2F2E086E088
:100AD000DF011D928A95E9F767960FB6F894DEBF9D
:100AE0000FBECDBFDF91CF911F91089581FB2227CB
:100AF00020F982FB992790F980FF02C08E9A01C0ED
:100B00008E98222311F08D9A01C08D98992311F0AF
:100B10008F9A08958F9808953F924F925F926F92A7
:100B20007F928F929F92AF92BF92CF92DF92EF927D
:100B3000FF920F931F93CF93DF93CDB7DEB7299723
:100B40000FB6F894DEBF0FBECDBFFC01808191814E
:100B500023813481232B31F09F3F31F491E08F3F8B
:100B600019F403C091E001C090E090FD52C67F01EE
:100B700085E0DE01119601900D928A95E1F7F7016B
:100B8000228189819A81222349F00E94BB25182F56
:100B9000682F89819A810E94162603C00E94EA2547
:100BA000182F69817A81812F0E9433258C01F701EA
:100BB0008281882309F4F2C0980122513F452031F7
:100BC000310508F019C18FEF93E00E94852781114C
:100BD000EFC0025137E9832E33E0932E002379F0E2
:100BE0008114F4E09F0609F4E3C0C4010E94852744
:100BF000811101C001502FEF821A920AEFCF1E829D
:100C00001F8218861986442443942AE0322E8401D8
:100C10000F5F1F4FC4010E9485278E831F82882388
:100C200009F4C6C09FEF980F933060F48F834E8213
:100C300032E0830E911CC8010E94852788878111AC
:100C400002C0B6C048018E010A5F1F4FF801208123
:100C50002223E9F2213009F04CC08181813049F42E
:100C60006801F2E0CF0ED11CF80182810E94672753
:100C70000AC0823051F46801F2E0CF0ED11CF801B5
:100C800082810E94EF26860186C0833049F4680184
:100C9000F2E0CF0ED11CF80182810E94B626F3CF7C
:100CA000843019F00F5F1F4F76C0F80122810E5F6C
:100CB0001F4F80E090E030E0205331092A303105A9
:100CC00068F4389EA001399E500D1124C901840F8B
:100CD000951F0F5F1F4FF8012081EDCF009709F49A
:100CE0005AC0EFE9FFE03197F1F700C0000001972B
:100CF000F5CFE22FF0E0E65BFE4F5490822F869511
:100D00008695869590E0FC01E65CFE4F6490277026
:100D1000712C022E02C0759467940A94E2F7F1E0F8
:100D20006F227724FC01E65DFE4FA490B12C022EC9
:100D300002C0B594A7940A94E2F731E0A322BB2441
:100D4000FC01E65EFE4FC490D12C02C0D594C7943E
:100D50002A95E2F781E0C822DD246114710419F0BC
:100D600081EE0E94EF26A114B10419F086EE0E94D4
:100D7000EF26852D0E946727AB2819F086EE0E948A
:100D8000B626672819F081EE0E94B626CD2819F004
:100D90008CE20E9467270F5F1F4F58CF00313FE55D
:100DA000130709F02DC581E00E9445260E94141208
:100DB00080916702877009F42CC5F701828188232E
:100DC00009F427C582E029960FB6F894DEBF0FBE5E
:100DD000CDBFDF91CF911F910F91FF90EF90DF90EA
:100DE000CF90BF90AF909F908F907F906F905F90CB
:100DF0004F903F900C948D1B0031FFE51F0711F4BD
:100E000081E005C001312FE5120721F482E00E9444
:100E10005126CCCF033FFCE51F0749F406E221EE43
:100E200040EE63EF7CE5C7010E945624C1CF043F2A
:100E30002CE5120708F049C1083D3CE5130731F4E1
:100E400007E225EE45EE68ED7CE5EDCF093D9CE53A
:100E5000190731F408E221E045EE69ED7CE5E3CFC6
:100E6000073DECE51E0731F406E221EE41EE67EDA9
:100E70007CE5D9CF882309F45DC11092CB02023002
:100E80009CE5190708F440C10631ECE51E0730F077
:100E9000C8018A5F9C45099708F036C10E94A11AD3
:100EA0009093DB018093DA010031FCE51F0709F420
:100EB000C3C008F041C008303CE5130709F49AC0EC
:100EC000F0F404309CE5190709F487C068F4023097
:100ED000FCE51F0709F477C003301C4509F0E5C0A5
:100EE0008091DA01826076C006303CE5130709F490
:100EF0006EC008F07BC08091DA0188606BC00C3056
:100F00009CE5190709F485C068F40A30FCE51F0761
:100F100009F474C008F079C00E948C268091DA012F
:100F2000806858C00E303CE5130709F476C008F01D
:100F30007FC08091DA018BC00B3F9CE5190709F453
:100F40004FC018F50331FCE51F0709F47DC078F4A4
:100F500001313CE5130709F473C002311C4509F067
:100F6000A4C00E948C268091DA018F7733C00531AE
:100F70009CE5190709F472C008F486C00A3F1C45B5
:100F800009F093C08091DB013EC00F3F2CE51207B2
:100F900009F45FC058F40D3F8CE5180709F444C00C
:100FA00008F43FC08091DB0182602DC00130EDE587
:100FB0001E0709F475C008F45DC002301D4509F034
:100FC00074C060E06EC08091DA01816003C08091DE
:100FD000DA0180618093DA0168C08091DA0111C082
:100FE0008091DB0182608093DB015FC08091DA0138
:100FF0008062F0CF8091DA018064ECCF8091DA01D9
:1010000088608460E7CF8160EECF8091DA018E7FC7
:10101000E1CF8091DA018D7FDDCF8091DA01877F8A
:10102000D9CF8091DB0118C08091DB018D7FDBCFB0
:101030008091DA018F7ECECF8091DA018F7DCACF89
:101040008091DA018F7BC6CF8091DA01877F8B7F19
:10105000C1CF8091DB018D7F8E7FC5CF8091DA017A
:1010600082FB222720F991E0922790FB82F990FBE6
:1010700083F9B0CF8091DB01982F909591708E7F8E
:10108000892B90FB81F9AFCF0E948C268091DA01E9
:1010900087FB222720F991E0922790FB87F99ACFCE
:1010A00061E08EE090E00E9499276091DA01109152
:1010B000DB0184E090E00E949927612F82E290E0BA
:1010C0000E9499270E948C2673CE053FFCE51F07DE
:1010D00031F406E221EE42EE65EF7CE5A4CE053F59
:1010E0002CE5120730F407E225EE44EE64EF7CE5D0
:1010F0009ACE063F3CE5130709F0BCCE07E225EE89
:1011000046EE66EF7CE58FCE80916A0206319CE563
:10111000190709F58A7A91E009F490E09093960115
:10112000882311F065E301C069E28FE092E00E943C
:10113000E9230EC006311C4509F026C180919601B5
:10114000882309F464C365E38FE092E00E94C12321
:101150000E942D1B2DCE82720C3C3CE5130709F436
:10116000C2C008F045C0063CECE51E0709F4A7C064
:10117000D8F4033C2CE5120709F497C030F4023C84
:101180008CE5180709F46CC0CEC0043C9CE5190737
:1011900009F490C0053CECE51E0709F0C4C046EE1A
:1011A0005FE16FEE7FE1A3C0093CFCE51F0709F496
:1011B00090C078F4073C3CE5130709F485C0083C6F
:1011C0009CE5190709F0AFC04AED5FE16EEC7FE1E5
:1011D0008EC00A3CECE51E0709F480C00B3CFCE520
:1011E0001F0709F0A0C04AE35EE16BE47EE17FC027
:1011F000013D2CE5120709F486C0A0F40E3C8CE5F5
:10120000180709F47AC008F475C00F3CECE51E0716
:1012100009F476C0003DFCE51F0709F084C06EE0CC
:1012200089E079C0043D2CE5120709F472C068F426
:10123000023D8CE5180709F469C0033D9CE51907D8
:1012400009F071C061E088E16BC0053DECE51E0767
:1012500009F464C00D35FDE51F0709F4A9CD63C08D
:101260008091C40280FF1BC08E7F8093C402609176
:10127000C4027091C5028091C6029091C7020E947B
:10128000281E109284022FEF30E782E02150304078
:101290008040E1F700C000000E94CE1D89CD816032
:1012A0008093C40261E086953BC04AE350E263E468
:1012B00070E21DC043E450E26AE370E218C04FEEF2
:1012C0005FE166EE7FE113C04EEC5FE16AED7FE126
:1012D0000EC046EB5FE162EC7FE109C042EC5FE1EA
:1012E00066EB7FE104C04BE45EE16AE37EE10E94CD
:1012F00098255ECD61E081E013C065E082E00BC01F
:1013000068E086E008C064E18FE005C067E185E140
:1013100002C062E289E10E9486254ACD61E083E253
:101320000E94F81F45CD0A359DE5190741F150F49B
:101330000115FCE51F07A9F00E3D1C4529F50E948B
:10134000BD1A36CD0B353DE51307D9F00C351D45DB
:10135000D9F48091DB0182FB882780F991E089270D
:1013600011C00E948C269FEFE4E3FCE09150E04026
:10137000F040E1F700C000000E947B1719CD81E02A
:1013800001C080E00E94731BF701828100811181FE
:10139000882349F0C8010E94BB25D82E682FC801B8
:1013A0000E94162604C0C8010E94EA25D82EB80162
:1013B0008D2D0E9433250E940719B82E192F982EC3
:1013C000F7010281A580A2949FE0A9228091670283
:1013D000877099F0002389F0812F807F803421F07D
:1013E00080E28B0D883048F082E00E948D1B809156
:1013F00067028770DD24D3948111D12CC12EC29451
:101400008FE0C8228C2D90E08C30910508F0C2C18D
:10141000FC01EA5AFF4F0C942528812F807F1F7012
:10142000882311F01295107F0023B9F0112309F4DD
:101430009DC180E28B0D883010F0911006C0809124
:101440006A02182B10936A0205C080916902182B5A
:10145000109369020E942D1B89C18B2D0E94B62614
:10146000112309F497C180E28B0D1095883010F09C
:10147000911006C080916A02182310936A0205C079
:10148000809169021823109369020E942D1B82C16A
:10149000812F807F1F70803211F01295107F8B2D6D
:1014A000992021F0F1E09F1611F130C00023B1F036
:1014B000AA2081F021E0A2120DC08091DB0182FD03
:1014C00069C180916B02182B181709F463C110933E
:1014D0006B0260C180916B02812B10C0AA2021F0A9
:1014E00031E0A31609F456C10E94271B27C0002330
:1014F00041F085E08A1508F44DC1812F0E94AC2689
:1015000049C194E09A1508F445C118C0002349F078
:10151000AA2099F3F701858180FF28C18F70858308
:10152000ECCFAA2059F0893309F031C1FFEF27EE43
:1015300033E0F15020403040E1F727C1812F0E9475
:10154000A12628C1812F86958695837019F0813058
:1015500061F020C1002321F08B2D912F937002C0E8
:1015600080E090E00E9434241DC1002321F08B2DE7
:10157000912F937002C080E090E00E941E2412C15F
:101580008B2D002319F00E94302102C00E94772089
:101590000E944D2007C1812F8370A9F50111FEC063
:1015A0004B2D429546954770440F440F8B2D8F70FD
:1015B00090E09C01042E01C0220F0A94EAF7B4FEC9
:1015C00008C08FE090E001C0880F4A95EAF7809547
:1015D00001C080E0169516951370123069F088F4FA
:1015E00090916C02113019F0822B892302C0922B4A
:1015F000892B0E945C26D2C0822B90916C02892795
:10160000F8CF822BF6CF002319F0812F817001C013
:101610008695882309F4C2C04B2D429546954770A4
:10162000440F440F8B2D8F7090E09C01042E01C05D
:10163000220F0A94EAF7B4FE08C08FE090E001C0E0
:10164000880F4A95EAF7809501C080E016951695B7
:101650001370123059F078F490910E02113019F095
:10166000822B892309C0922B892B06C0822B909153
:101670000E02892701C0822B0E9441268FC01F7055
:10168000002339F0812F0E9451268B2D0E94AC2619
:1016900085C08B2D0E94A126812F0E9445267EC0E9
:1016A0008B2D92EF991659F1991538F0E0EF9E16AF
:1016B00059F0F1EF9F16F1F055C023EF921631F17A
:1016C00034EF931681F14EC0002379F084E08A153F
:1016D00008F460C01F7181E090E001C0880F1A9586
:1016E000EAF790910E0289271BC095E09A1508F43D
:1016F00051C0F0CF002329F0812F8F7126C0002325
:10170000D9F3812F8F710E94452644C0002339F000
:101710001F7181E001C0880F1A95EAF701C080E0CF
:101720000E94412637C0002399F01F71812F0E942B
:1017300051268091DB0182FD07C0E8E01E9FC001B9
:101740001124836080936702812F0E94512622C05A
:1017500081E00E948D1BF1E0FA15E0F482E00E9426
:101760008D1B18C0002331F0AA2031F28B2D0E946E
:10177000EF2610C0AA2029F2893349F42FEF37EE63
:1017800083E0215030408040E1F700C000008B2D05
:101790000E94B62688EF8C0D843020F40E944A24E3
:1017A0000E947605DD20A9F18091670280FD31C09D
:1017B000F70112828595859585950E945126C7016E
:1017C0000E948C058091670285958595859529965F
:1017D0000FB6F894DEBF0FBECDBFDF91CF911F9142
:1017E0000F91FF90EF90DF90CF90BF90AF909F90C0
:1017F0008F907F906F905F904F903F900C94452614
:1018000001319FE5190709F005CB82E0CDCA69E2F5
:101810009BCC29960FB6F894DEBF0FBECDBFDF91EB
:10182000CF911F910F91FF90EF90DF90CF90BF90DD
:10183000AF909F908F907F906F905F904F903F9070
:101840000895CF93DF93CDB7DEB7AA970FB6F8947C
:10185000DEBF0FBECDBF84B7877F84BF0FB6F894BD
:10186000A89580916000886180936000109260006C
:101870000FBE90E080E80FB6F894809361009093DB
:1018800061000FBE85B7806885BF85B7806885BF5A
:1018900080EE97E190939501809394010E94351515
:1018A0000E9454158091E20084608093E200789455
:1018B000809104028823A1F01091E9001F7090919B
:1018C000EC00892F817090FD80E8182B1092E900C0
:1018D0008091E80083FD0E941F121F701093E900A1
:1018E00082E084BD93E095BD9AEF97BD80936E0032
:1018F0000E946D25811102C00E945E2509E111E060
:10190000F80181918F018F3F11F00E942518F1E0BD
:1019100003321F07A9F703E211E0AEE2EA2EA1E0CD
:10192000FA2EF80181918F018F3F11F00E94251846
:10193000E016F106B1F7E7E9F1E0A2ECB1E01192AF
:1019400011921D921D9221E0EB3AF207C1F70E941D
:10195000B21A811102C00E94BD1A82E090E00E947A
:1019600085278093AD010E94A11A9093DB0180939B
:10197000DA010E943C188FE39CE90197F1F700C05F
:1019800000000E943C188091C20180FF08C06FEFE8
:101990007FEF80E090E00E94B7270E947B1783E0F2
:1019A00090E00E9485270E945C26869A8E98859AF0
:1019B0008D98879A8F988091AB01811133C00E94D6
:1019C000B21A811104C00E94BD1A0E945C1E88E0F8
:1019D00090E00E948D276093C4027093C5028093AB
:1019E000C6029093C7026E7F71F40E945C1E88E06D
:1019F00090E00E948D276093C4027093C50280938B
:101A0000C6029093C7020E94151E10928402809114
:101A1000C40280FF04C060E086950E94F81F81E048
:101A20008093AB0180E091E09093CF028093CE024F
:101A300068E1662E712C70E4372EE0E14E2EF0E165
:101A40005F2E8E010F5F1F4F6E0195E1C90ED11CF5
:101A500080910402853009F048C052E1F52E809152
:101A60000402853009F03BC080910402843021F1EA
:101A700080E00E9476051092D2020FB6F894A895E5
:101A8000609260000FBE3092600083B7817F8460F7
:101A900083BF83B7816083BF7894889583B78E7F37
:101AA00083BF0FB6F894A8958091600088618093F9
:101AB0006000109260000FBE80910302882309F439
:101AC000CECF0E943C18E2ECF1E081919191892BFC
:101AD00009F0CCC321E0E63DF207B9F7C0CF0E9480
:101AE0008C260E944A240E9476050E943C18882376
:101AF00059F08FB7F8944091D6015091D701609179
:101B0000D8017091D9018FBFAEEAB1E0E2ECF1E00B
:101B1000E12CF12C7E2D219131918D919D91822787
:101B20009327009779F160E0AA24A394B12CA50132
:101B300048235923452B09F169A37AA32A213B2184
:101B400081E0232B09F480E08BA30E94D4178160ED
:101B5000782F9DA38CA349A15AA16BA18DA10E94AE
:101B6000CE04F701EE0FFF1FE255FE4F80819181F9
:101B7000A826B926B182A0821CC06F5FAA0CBB1C2C
:101B80006B30A9F63FEFE31AF30A4AE0E416F104DA
:101B900009F68FEF8EA38FA318A60E94D417816039
:101BA000782F9AA789A74EA15FA168A58AA50E9450
:101BB000CE0480918402882309F498C08091830226
:101BC000E091C402E695E81BE0937F02823059F46D
:101BD000F0E0E852FE4FE491EE2EF12C84E8A82EBE
:101BE00083E2B82E5EC0863059F4F0E0EB52FE4F2F
:101BF000E491EE2EF12CB4E7AB2EB3E2BB2E51C034
:101C0000893061F4E695F0E0EE52FE4FE491EE2E5D
:101C1000F12CAAE0AA2EA3E2BA2E43C08F3061F4C1
:101C2000E695F0E0E153FE4FE491EE2EF12CFDE954
:101C3000AF2EF2E2BF2E35C0853159F4F0E0E45307
:101C4000FE4FE491EE2EF12CEFE4AE2EE2E2BE2E3A
:101C500028C08831B1F0833249F4EAECF1E0E59034
:101C6000F49074E3A72E73E2B72E1BC0843289F080
:101C700050EDE52E57E0F52E6BE8A62E61E2B62E6C
:101C800010C038E2E32EF12C46ECA42E41E2B42E33
:101C900008C094EFE92EFF24F3942CE8A22E21E251
:101CA000B22E80918002882361F0109280020E94FF
:101CB000D41790937E0280937D021092820210923C
:101CC00081020E94D417E0917D02F0917E028E1B6A
:101CD0009F0B8F3F9F4750F4EE0EFF1EF0927E0247
:101CE000E0927D028DE792E0F501099586E0E7E755
:101CF000F2E0D80101900D928A95E1F7A090790267
:101D0000B0907A02E0907B02F0907C02109279020F
:101D100010927A0210927B0210927C02A11003C0F2
:101D2000BB2009F451C080917502909176020E9407
:101D3000C5179C0190917102992309F4B6C223330F
:101D4000310508F441C09F3F19F09F5F90937102E5
:101D5000AA2061F00E9410211A1414F491E001C02D
:101D60009FEF899F802D112480937902BB2061F021
:101D70000E9410211B1414F491E001C09FEF899F71
:101D8000802D112480937A02309179023323E1F07F
:101D900020917A022223C1F045EB3403C0011124C3
:101DA000992319F09093790203C081E0809379021E
:101DB00035EB2303C0011124992319F090937A0283
:101DC00003C081E080937A02E11003C0FF2009F490
:101DD00051C080917302909174020E94C5179C01BA
:101DE00090917002992309F465C22536310508F4F3
:101DF00041C09F3F19F09F5F90937002EE2061F009
:101E00000E94EE201E1414F491E001C09FEF899F00
:101E1000802D112480937B02FF2061F00E94EE2030
:101E20001F1414F491E001C09FEF899F802D1124AD
:101E300080937C0230917B023323E1F020917C027D
:101E40002223C1F045EB3403C0011124992319F07A
:101E500090937B0203C081E080937B0235EB2303E8
:101E6000C0011124992319F090937C0203C081E0F2
:101E700080937C028091790281110BC080917A025B
:101E8000811107C080917B02811103C080917C0287
:101E900081110E944D20AB82BC82ED82FE8286E0E1
:101EA000F801A7E7B2E001900D928A95E1F70E9450
:101EB0004A249091AC01891731F00E944A24809302
:101EC000AC010E94760580910402843009F0C0CDF7
:101ED00083E08093E9008091E80082FFB9CD809192
:101EE000E80085FF21C00E948A1681111BC080E294
:101EF000A82EB12C780109C08091F100F7018193DF
:101F00007F01F1E0AF1AB10869F08091E80085FD2A
:101F1000F3CF8091E8008B778093E8000E948A16C7
:101F2000882399F391E001C090E08091E8008B77DD
:101F30008093E800992309F48BCDE9818E2F90E0FE
:101F4000FC013197E331F10508F066C1EE59FF4F0E
:101F50000C9425281A8289E0BFC08A81823009F456
:101F60009BC1833089F0813009F056C12FB7F894B6
:101F70008091D6019091D701A091D801B091D9015B
:101F80002FBFBB83AC8321C0F801A2ECB1E08C91E0
:101F900011969C9111971296928383833296CE1656
:101FA000DF06A9F73BC18A81823009F035C16B8118
:101FB0007C818D819E810E942B2886E290E024C046
:101FC0004C816B818A810E940D259D836CC1ED80BF
:101FD000FE80FE24EF24FE248C81AB809A8126E1D2
:101FE000A29E500111243CED939FA00CB11C112422
:101FF000A80EB11CA80EB11C6F2DC50187960E94BA
:1020000099276E2DC50188960E94992707C10E94C5
:10201000D92404C18A818138B1F050F4803809F0A4
:10202000FDC020E04B816091C6028091C50231C0A5
:10203000823859F1833809F0F1C020E04091C7029D
:102040006C818B8126C060E08B810E94F81F9B8190
:102050008091C402911111C08E7F8093C4021092AE
:1020600084024FEF80E792E0415080409040E1F7DA
:1020700000C000000E94CE1DD1C081608093C402C8
:1020800060E086950E94F81FC9C08B818093C802CA
:10209000C5C00E941B1FC2C08A81813899F030F4EC
:1020A000803809F0BBC08091C70216C0823891F019
:1020B000833809F0B3C08091C5028B838091C6023A
:1020C0008C83ACC08091C40280FF02C0869504C09E
:1020D00080E002C08091C8028B83A0C06091C402DE
:1020E0007091C5028091C6029091C7020E94281E7D
:1020F00095C05A8293C01A8289E6EECFEA80FB80AF
:10210000FE24EF24FE248C80912C5801C7018956AF
:102110009C4F9501201B310B2815390508F07EC016
:10212000E9E6EE16F10428F40E948527F501848380
:1021300002C0F5011482FFEFEF1AFF0A2FEFA21A77
:10214000B20AE4CFEA80FB80FE24EF24FE248C80D8
:10215000912C5801C70189569C4F9501201B310BCA
:102160002815390508F05AC039E6E316F10420F4C1
:10217000F50164810E949927FFEFEF1AFF0A2FEF04
:10218000A21AB20AE7CF0E94C92448C084E08A8319
:1021900045C0EA80FB80FE24EF24FE248C80912C35
:1021A0005801C70187969501201B310B2815390569
:1021B000A8F530E7E31633E0F30628F40E948527FC
:1021C000F501848302C0F5011482FFEFEF1AFF0AC4
:1021D0002FEFA21AB20AE5CFEA80FB80FE24EF249B
:1021E000FE248C80912C5801C70187969501201BF5
:1021F000310B2815390590F430E7E31633E0F30688
:1022000020F4F50164810E949927FFEFEF1AFF0A7D
:102210002FEFA21AB20AE8CF8FEF898380910402D0
:10222000843009F015CC8091E9008F702091EC008A
:10223000922F917020FD90E8F92EF82A82E0809389
:10224000E9008091E80080FF0CC040E050E060E2CF
:1022500070E0C8010E94BD168091E8008E778093DF
:10226000E8008F2D8F708093E900F2CB49BCF9BC58
:1022700009B400FEFDCF8091D8008F7D8093D800F7
:102280008091E00082608093E0008091E00081FD19
:10229000FCCF0E948C26E3CB86E290E00E9485274B
:1022A0001B821C821D828E83B9CF2D32314008F0F3
:1022B0004CCD8ACD2D32314008F09DCDDBCD8091C3
:1022C000060287FF11C08091E80082FD05C0809161
:1022D00004028111F8CF11C08091E8008B770BC008
:1022E00080910402882349F08091E80080FFF8CFB4
:1022F0008091E8008E778093E8000895982F9730BA
:1023000068F59093E900981739F07091EC002091EE
:10231000ED005091F00003C0242F762F50E021FDF6
:1023200002C09F5FECCF3091EB003E7F3093EB001B
:102330003091ED003D7F3093ED003091EB00316046
:102340003093EB007093EC002093ED005093F0007D
:102350002091EE0027FDE5CF80E008958F708093F7
:10236000E90081E0089520910C0230910D022617BA
:10237000370748F06115710539F42091E8002E7790
:102380002093E80001C0B901FC0120E0611571054E
:1023900079F1809104028823F1F18530F1F1809187
:1023A000E80083FD3CC08091E80082FD2EC0809152
:1023B000E80080FFEBCF2091F3008091F20090E0E5
:1023C000922B6115710551F08830910538F42191F7
:1023D0002093F100615071090196F3CF21E0089735
:1023E00009F020E08091E8008E778093E800CECF5E
:1023F0002111CFCF0AC080910402882361F085307B
:1024000061F08091E80083FD0AC08091E80082FFBE
:10241000F2CF80E0089582E0089583E0089581E09E
:1024200008958091E101089580910E02982F967091
:10243000963011F4886001C0877F0C9441261F9369
:10244000CF93DF93CDB7DEB7AA970FB6F894DEBF70
:102450000FBECDBFE6E0F2E08091F100819342E053
:10246000EE30F407C9F780910702833009F462C0A7
:1024700030F4813071F0823009F49CC0B3C08A30EE
:1024800009F488C08B3009F46DC0893009F0AAC006
:1024900020C080910602813A09F0A4C08091E80032
:1024A000877F8093E80080910A0290910B02892B2C
:1024B00021F460E282EE91E003C060E080E090E011
:1024C00070E00E94B3118091E8008B778093E80060
:1024D00089C080910602813209F084C080910A028D
:1024E00090910B02009719F0029709F07BC0809140
:1024F000E800877F8093E8008091E80082FD05C0B6
:10250000809104028111F8CF6DC02091F300809179
:10251000F20090E0922B029729F48091F1008B7FDA
:10252000813021F48091F1008093E1018091E800F5
:102530008B7754C080910602813A09F053C0809194
:102540000A0290910B02892B09F04CC08091E8009F
:10255000877F8093E8008091E80080FFFCCF809126
:102560000A0137C0809106028132E1F580910A02AA
:1025700090910B02892BB1F58091E800877F8093C1
:10258000E8000E945F118091080280930A010E9476
:102590008C2628C080910602813221F58091E800C6
:1025A000877F8093E8000E945F11809109028093E9
:1025B000E00118C080910602813AA1F48091E80000
:1025C000877F8093E8008091E80080FFFCCF8091B6
:1025D000E0018093F1008091E8008E778093E8001D
:1025E0000E945F118091E80083FFDDC180910602A7
:1025F00090910702492F50E04A30510508F0D3C1AD
:10260000FA01EB58FF4F0C942528803821F08238CE
:1026100009F0C9C108C08091020290910302992378
:1026200089F082600FC080910A028F70873008F0B5
:10263000BAC18093E9008091EB0085FB882780F97F
:102640001092E9009091E800977F9093E8008093C2
:10265000F1001092F10070C1282F2D7F09F0A3C165
:10266000882319F0823061F09EC180910802813088
:1026700009F099C1933009F080E0809303022EC0E5
:102680008091080281112AC080910A028F702FEF79
:10269000280F263008F087C18093E9002091EB00D5
:1026A00020FF1CC0933021F48091EB00806214C0A5
:1026B0009091EB0090619093EB0021E030E0A90154
:1026C00002C0440F551F8A95E2F74093EA0010922A
:1026D000EA008091EB0088608093EB001092E900A3
:1026E0008091E800877F8093E8000E945F115BC1C2
:1026F000811159C1109108021F778091E300807801
:10270000812B8093E3008091E800877F8093E8002D
:102710000E945F118091E80080FFFCCF8091E30070
:1027200080688093E300111102C082E001C083E061
:102730008093040238C18058823008F034C120915F
:102740000802309109022C3D53E0350779F583E00A
:102750008A838AE289834FB7F894DE01139620E0DA
:102760003EE051E2E32FF0E050935700E49120FF68
:1027700003C0E295EF703F5FEF708E2F90E0EA307C
:1027800010F0C79601C0C0968D939D932F5F2431A2
:1027900049F74FBF8091E800877F8093E8006AE2A5
:1027A00070E0CE0101960E94B311B4C080910A027C
:1027B00090910B02432F552743305105A9F068F43F
:1027C0004130510509F4FEC04230510509F0EBC01B
:1027D0008BE590E0E4EFF2E04BC04132510529F186
:1027E0004232510589F1DFC0C90199278130910535
:1027F000A1F058F0029709F0D6C0E1E6F3E0E491C9
:102800008E2F90E0E1E6F3E030C0E1E9F3E0E491FF
:102810008E2F90E0E1E9F3E028C0E1E7F3E0E491F6
:102820008E2F90E0E1E7F3E020C08330910508F0BF
:10283000BAC0880F991FFC01E95CFE4F0190F0813E
:10284000E02D89E090E014C08330910508F0ABC022
:10285000FC01EE0FFF1FEF5CFE4F0190F081E02DB9
:10286000DC01A25DBE4F8C9190E0009709F49BC003
:102870002091E800277F2093E80020910C023091FE
:102880000D022817390708F4C90140E0009789F1C3
:1028900020910402222309F43DC02530D9F1209172
:1028A000E80023FD37C02091E80022FD2FC02091D1
:1028B000E80020FFEBCF4091F3002091F20030E0E0
:1028C000342B009759F02830310540F4449140935F
:1028D000F100319601972F5F3F4FF3CF41E0283051
:1028E000310509F040E02091E8002E772093E800C0
:1028F000CDCF4111CDCF0AC080910402882351F081
:10290000853041F08091E80083FD04C08091E800AB
:1029100082FFF2CF8091E8008B778093E80043C07C
:10292000803809F040C08091E800877F8093E800FC
:10293000809105028093F1008091E8008E77D3CEDC
:10294000811131C080910802909109029927029764
:1029500054F58091E800877F8093E8001091080289
:10296000109305020E945F11111106C08091E300CF
:1029700087FD02C081E001C084E08093040242E050
:1029800061EC81E00E947E1142E261EC84E00E94F1
:102990007E1142E261EC82E00E947E1142E260EC34
:1029A00083E00E947E118091E80083FF10C0809137
:1029B000E800877F8093E8008091EB00806280933D
:1029C000EB0005C082E190E0EFE4F3E051CFAA967E
:1029D0000FB6F894DEBF0FBECDBFDF91CF911F9130
:1029E00008951F920F920FB60F9211242F933F93C9
:1029F0004F935F936F937F938F939F93AF93BF9307
:102A0000CF93DF93EF93FF93C091E900CF70809154
:102A1000EC00D82FD17080FDD0E81092E9008091B1
:102A2000F000877F8093F00078940E941F1210922C
:102A3000E9008091F00088608093F000CD2BCF708A
:102A4000C093E900FF91EF91DF91CF91BF91AF91DA
:102A50009F918F917F916F915F914F913F912F91B6
:102A60000F900FBE0F901F901895E8EDF0E0808159
:102A70008E7F80831092E2001092DA001092E100C3
:102A8000A0EEB0E08C9181608C9380818F77808301
:102A900019BCA7EDB0E08C918E7F8C9380818F7EE6
:102AA00080831092DF010895CF92DF92EF92FF9220
:102AB0000F931F93CF93DF93C8EDD0E088818F7E73
:102AC0008883E7EDF0E080818160808384E082BFCD
:102AD00081E08093DF0188818E7F888302EE10E0A1
:102AE000F80110821092DA0081EEC82ED12CF60186
:102AF000108288818F778883888180688883888125
:102B00008F7D888319BC10920402109205021092E6
:102B100003021092020290EEE92EF12CF70180815F
:102B20008B7F808388818160888342E060E080E0E1
:102B30000E947E11F60180818E7F8083F801808162
:102B400081608083808188608083F70180818E7FAF
:102B50008083888180618883DF91CF911F910F915D
:102B6000FF90EF90DF90CF9008951F920F920FB6D5
:102B70000F9211242F933F934F935F936F937F9303
:102B80008F939F93AF93BF93EF93FF938091E10057
:102B900082FF09C08091E20082FF05C08091E100C0
:102BA0008B7F8093E1008091DA0080FF2AC08091C2
:102BB000D80080FF26C08091DA008E7F8093DA00F3
:102BC0008091D90080FF18C080E189BD82E189BD74
:102BD00009B400FEFDCF81E0809304028091DF0103
:102BE00081110FC00E9435150E9454158091E2009A
:102BF00084608093E20005C019BC10920402109218
:102C0000DF018091E10080FF17C08091E20080FF2A
:102C100013C08091E2008E7F8093E2008091E200F9
:102C200080618093E2008091D80080628093D80018
:102C300019BC85E0809304028091E10084FF2EC0DE
:102C40008091E20084FF2AC080E189BD82E189BDD4
:102C500009B400FEFDCF8091D8008F7D8093D8000D
:102C60008091E1008F7E8093E1008091E2008F7E71
:102C70008093E2008091E20081608093E200809185
:102C80000502882311F084E007C08091E30087FDEE
:102C900002C081E001C083E0809304028091E100E2
:102CA00083FF27C08091E20083FF23C08091E10071
:102CB000877F8093E10082E08093040210920502F6
:102CC0008091E1008E7F8093E1008091E2008E7F11
:102CD0008093E2008091E20080618093E20042E014
:102CE00060E080E00E947E118091F0008860809317
:102CF000F000FF91EF91BF91AF919F918F917F91E4
:102D00006F915F914F913F912F910F900FBE0F9058
:102D10001F9018952091E4003091E50095E64091D0
:102D2000EC00842F817040FF23C08091E80080FD7B
:102D30001DC080910402882399F0853099F080911C
:102D4000EB0085FD11C04091E4005091E50024178F
:102D5000350729F3915011F09A01E1CF84E00895ED
:102D600082E0089583E0089581E0089580E0089569
:102D70004091E80042FFDDCF0895EF92FF920F935C
:102D80001F93CF93DF937C018B010E948A168111E0
:102D900019C0E70101151105A1F08091E80085FD3A
:102DA0000AC08091E8008E778093E8000E948A161E
:102DB000882381F307C089918093F10001501109A4
:102DC000E9CF80E0DF91CF911F910F91FF90EF90BD
:102DD000089590910402943029F58093DC0170935A
:102DE000DE016093DD019093E9008FEF9091E800A0
:102DF000815095FD06C095ED9A95F1F7000081117F
:102E0000F5CF8091E80085FF0DC040E050E063E021
:102E100070E08CED91E00E94BD168091E8008E7705
:102E20008093E8000895BC0184E00C94E916BC018D
:102E300083E00C94E91624E02093E9002FEF309111
:102E4000E800215035FD06C035ED3A95F1F7000058
:102E50002111F5CF2091E80025FF0BC040E050E0A4
:102E600066E070E00E94BD168091E8008E77809346
:102E7000E8000895CF93DF9320910A01222339F0CF
:102E80002091DA0127FF03C060E224E002C068E07D
:102E900021E02093E9002FEF3091E800215035FD2B
:102EA00006C035ED3A95F1F700002111F5CF2091DC
:102EB000E80025FF1DC0EC0180910A01811105C0C9
:102EC00040E050E068E070E003C070E040E050E0B7
:102ED000CE010E94BD168091E8008E778093E800B5
:102EE00080E2FE01A2EEB1E001900D928A95E1F739
:102EF000DF91CF91089581E08093E00080E280939C
:102F0000D8001092C9008FE19EE40197F1F700C04C
:102F1000000087E090EBDC018093FD029093FE02BD
:102F2000A093FF02B09300039CE088E10FB6F894F1
:102F3000A895809360000FBE90936000FFCF7894B7
:102F40001F920F920FB60F9211248F939F93AF93FE
:102F5000BF938091D6019091D701A091D801B091F3
:102F6000D9010196A11DB11D8093D6019093D7017F
:102F7000A093D801B093D901BF91AF919F918F9148
:102F80000F900FBE0F901F9018959C014FB7F894AB
:102F90008091D6019091D701A091D801B091D9012B
:102FA0004FBF821B930B08952FB7F8948091D601E1
:102FB0009091D701A091D801B091D9012FBF089568
:102FC00080E008959091DA0192FF0DC0282F2871BA
:102FD000283019F4877F846006C0282F247124309C
:102FE00011F48B7F886093FF0DC0282F2871283142
:102FF00019F4877E846106C0282F2471243111F4CE
:103000008B7E88612091DB0120FF0DC0382F387145
:10301000383019F4877F816006C0382F3171313024
:1030200011F48E7F886021FF0DC0282F2871283170
:1030300019F4877E816106C0282F2171213111F496
:103040008E7E886194FD877E0895F894E82FE2953E
:10305000EF70F0E031A1282F2F7081E090E001C0E7
:10306000880F2A95EAF7982F9095932391A392A120
:10307000892B82A3789408958F929F92AF92BF92EA
:10308000CF92DF92EF92FF920F931F93CF93DF9334
:10309000CDB7DEB764970FB6F894DEBF0FBECDBFD5
:1030A000AE014F5F5F4F7A0184E1DA011D928A958C
:1030B000E9F709E111E06A01AA24A394B12CF8010F
:1030C00080818F3F09F44DC0F894E82FE295EF70AE
:1030D000F0E021A18F70A50102C0440F551F8A9511
:1030E000E2F7CA01922F982B91A392A18095892390
:1030F00082A3789400C0E3E2F1E020E030E0812C8C
:10310000912C81918F3FC1F0A82FA295AF70B0E0B4
:1031100090964C9150E08F70DA0102C0B595A7955A
:103120008A95E2F7A0FD08C0C501022E02C0880FF3
:10313000991F0A94E2F702C080E090E0882A992A59
:103140002F5F3F4F2B303105E1F6F80180818F3F33
:1031500011F00E942518F0EAFA95F1F7D6018D9248
:103160009C920F5F1F4FB2E0CB0ED11CE1E0033207
:103170001E0709F0A4CF44E150E0B70187E991E0D0
:103180000E947C2811E0009709F410E0892B89F057
:1031900084E1F701A7E9B1E001900D928A95E1F78A
:1031A00081E080936F020E94D41790936E02809307
:1031B0006D0280916F028823B1F080916D02909131
:1031C0006E020E94C517059770F0E7E9F1E0A2ECE6
:1031D000B1E0819191918D939D9341E0EB3AF40799
:1031E000C1F710926F02812F64960FB6F894DEBF7C
:1031F0000FBECDBFDF91CF911F910F91FF90EF9048
:10320000DF90CF90BF90AF909F908F900895CF9315
:10321000DF938238910569F1B0F48133910509F4A7
:103220006FC048F48932910509F465C08A3291056E
:1032300009F46BC08AC08533910509F457C08933FE
:103240009105B9F082C0833E910571F138F4803E5A
:103250009105B1F0823E910511F177C0863E91054E
:10326000B9F1873E9105C9F1843E910509F06DC021
:1032700024C02091DA0120FD53C021FD51C065C05A
:103280008091DA0180FD46C08091DB0180FF48C05B
:103290008091DA0184FD50C183EE90E04FC18091AE
:1032A000DA0182FF3AC0F4CF8091DA0182FD35C0A5
:1032B0008091DB0180FD34C0EBCF8091DB0181FF89
:1032C00035C08091DA0184FD37C187EE90E036C1C8
:1032D0008091DA0183FF27C0F4CF8091DA0183FD6A
:1032E00022C08091DB0181FD21C0EBCF8091DA010A
:1032F00085FD1FC021C08091DA0185FD1DC019C068
:103300008091DA0186FD1BC01DC08091DA0186FD27
:1033100019C015C089E390E011C182EE90E00EC1A2
:1033200080EE90E00BC186EE90E008C184EE90E064
:1033300005C189E290E002C185E390E0FFC08AE226
:1033400090E0FCC081E390E0F9C0811531E593077E
:1033500008F069C0811540E59407F0F09C0174E025
:10336000369527957A95E1F7922F9370482F437001
:1033700021E030E002C0220F331F4A95E2F73C689B
:10338000392B982F9F709695969540E2949FC00197
:103390001124822B932BD2C0883E910568F5803E84
:1033A000910508F0CBC0883A9105B8F4853A9105AB
:1033B00048F0855AE82FF0E0E35CFE4F808190E012
:1033C0009064BCC08130910509F4B3C008F4B4C066
:1033D0008430910508F4B0C0B1C08F3B910508F06E
:1033E000ABC0885AE82FF0E0EE0FFF1FE05CFE4F05
:1033F000808191819464A2C0811520E2920758F4E3
:10340000811531E0930708F099C0803F910508F4D9
:1034100093C0906593C0811540E4940708F48CC074
:103420009F70906A8BC0811525E5920708F042C015
:10343000811534E5930728F0982F8827846F906AC8
:103440007DC0811543E59407B0F09C0123703327BC
:1034500041E050E002C0440F551F2A95E2F7282FA3
:103460002695269580E2289F90011124CA01822B7F
:10347000932B9A6863C0811522E5920728F4982F50
:103480008827816F906A5AC09C012370332741E0DE
:1034900050E002C0440F551F2A95E2F7282F2695C9
:1034A000269580E2289F90011124CA01822B932B3C
:1034B0009C6844C0EC01811539E59307A8F4811597
:1034C000984528F09C2F8827806F906A37C0C115D7
:1034D00086E5D80788F58C2F0E94E2178F7190E05F
:1034E000982F882790622AC081152AE5920790F4C8
:1034F0008C2F8F700E94E21794E0D695C7959A950D
:10350000E1F7CF70D0E0DC2FCC27D0699E01282BCB
:10351000C90114C090568115904270F48D2F8F719F
:103520000E94E217282F2F71CE0199279062922BCB
:1035300005C081E090E002C080E090E0DF91CF9193
:103540000895CF9384E090E00E948527C82F82E2FF
:1035500090E00E9485272C2F30E0A901582BCA014A
:10356000CF91089580E090E00E949327893E9E4F7E
:1035700011F40C946D2580E0089569EE7EEF80E0F3
:1035800090E00E94B72760E082E090E00E949927D7
:1035900060E083E090E00E94992710926C0260E066
:1035A00084E090E00E94992760E082E290E00E942F
:1035B000992760E085E090E00E94992760E086E02E
:1035C00090E00E9499276FEF87E090E00E94992792
:1035D00040E050E0BA0188E090E00E94AB2760E054
:1035E0008DE090E00E94992740E050E0BA0188E128
:1035F00090E00E94AB2760E087E190E00E9499276D
:1036000040E050E0BA018CE190E00E94AB2760E01E
:1036100070E080E290E00E94B72740E050E0BA01FD
:1036200088E190E00E94AB2780E00E9440250E9444
:103630005E2540E050E0BA018FE090E00E94AB27A9
:1036400040E050E0BA0183E190E00C94AB27809118
:103650006B02811110926B02089590916A02809121
:103660006902892B20916802982F922B90930F0268
:1036700080916B028823D9F0892B80930F0280916F
:103680000A01882331F08091DA0187FF02C08EE1C0
:1036900001C086E0E1E1F2E090E0815028F0219164
:1036A0002223D9F39F5FF9CF91110E94271BE0914C
:1036B000CE02F091CF023097A9F080910A018823C1
:1036C00059F08091DA0187FF07C080910F02809343
:1036D000100285E080930F020280F381E02D8FE0DD
:1036E00092E009940895CF93C091DB01C2FB992722
:1036F00090F9981781F080FBC2F9C093DB016091CB
:10370000DA0184E090E00E9499276C2F82E290E039
:10371000CF910C949927CF910895209167028095BD
:10372000822380936702982F977041F430E0482FEE
:10373000082E000C550B2417350721F49091DB015E
:1037400092FF07C08595859585950E944526109224
:10375000670208958091660290913502891719F0E9
:103760008F5F8770FBCF08950F931F93CF93DF93E5
:103770008091340282958F7009F05DC08091310292
:10378000882309F458C08091660210913502609137
:103790002F0270913002C0913202D091330291E039
:1037A0006F3F09F090E0292F06E0811709F443C02C
:1037B000209721F07F3F21F030E003C031E001C0CD
:1037C000322F90E030FD34C0089FF001099FF00DCA
:1037D0001124DF01AA5CBD4F11963C91119737135C
:1037E00027C03C91361324C012963C911297311198
:1037F0001FC013964D915C9114974C1B5D0B483C78
:103800005105B0F4809134028F708061809334024E
:10381000E55CFD4F80818F70806180838FE292E054
:103820000E948C05DF91CF911F910F910C94AA1BE0
:1038300001968770BACFDF91CF911F910F910895B4
:10384000CF93DF93EC010E94BB25BE010E9433257C
:103850000E940719DF91CF9108959F92AF92BF9276
:10386000CF92DF92EF92FF920F931F93CF93DF934C
:10387000CDB7DEB761970FB6F894DEBF0FBECDBFF0
:103880008C0185E0F801DE011D9601900D928A956C
:10389000E1F7F801E28090912F02609130024091AF
:1038A0003202509133024115510531F06F3F31F42E
:1038B00081E09F3F19F403C081E001C080E0F82F50
:1038C000F1709F2E80FD1AC1F80130812181C380E3
:1038D000D4808FE2A82E82E0B82EF0903102F6015B
:1038E000E41BF50BFF2009F4C6C080913402E83CCC
:1038F000F10508F091C0482F407F09F050C06213D5
:1039000011C093130FC0FE2CE1100CC08F708061AA
:1039100080933402C5010E948C0580913402F80125
:10392000858329C1CD2831F02F3F31F481E03F3F1D
:1039300019F403C081E001C080E080FD03C081E094
:103940008E2502C080E090E0F82FF170FF2E80FFFE
:103950001CC0809166024091350256E0841709F43C
:10396000E8C090E0589FF001599FF00D1124EA5CE7
:10397000FD4F6181261306C06081631303C062811D
:10398000E61203C001968770E9CFFE2CEE2009F401
:10399000F2C08091340281608093340249C0621386
:1039A00006C0931304C0E11002C0F80186C0C8012C
:1039B0000E946026882351F1EE2041F120913402CB
:1039C000822F82958F7090E0029774F080912F0281
:1039D0009091300298878F831986DB86CA862C8760
:1039E000CE0107960E948C0586E0F801AFE2B2E0B6
:1039F00001900D928A95E1F70E94B41B0AC06217EC
:103A0000C9F0C8010E94602681111EC0C8010E9431
:103A10008C05FF24F394AFC0482F407F81F78FE2DD
:103A200092E00E948C0586E0F50111928A95E9F7F3
:103A3000F12CA1C09313E5CFE110E3CFF80185830A
:103A4000C8010E948C0554C0EE2001F3209134027D
:103A5000822F82958F7090E0029734F280912F022E
:103A6000909130029A8389831B82DD82CC822E83DF
:103A7000CE010196B7CFE83CF105D0F5FE2CEE2043
:103A800029F2621327C0931325C02091340220FD30
:103A900018C0822F82958F70482F50E04115510534
:103AA00081F0F80125834F30510541F08F5F982F49
:103AB0009295907F822F8F70892B8583C8010E94F9
:103AC0008C0586E0F801AFE2B2E001900D928A9594
:103AD000E1F751C0C8010E946026811185CF809115
:103AE0003402816080933402C8010E948C0543C077
:103AF00086E0F50111928A95E9F73DC0EE2009F4C0
:103B000085CFC8010E946026F82E882309F47ECF55
:103B100086E0F801AFE2B2E001900D928A95E1F7FC
:103B200080912F02909130020E94201C0E94B41BB1
:103B300022C03D872E878D859E850E94201C292FBF
:103B400022952F70223028F49F7039F0811105C022
:103B50000BC0243028F49F7049F4805E883020F038
:103B6000C8010E948C059F2CF92C05C0F801958195
:103B7000907F99F7F9CF8F2D61960FB6F894DEBF3D
:103B80000FBECDBFDF91CF911F910F91FF90EF90AE
:103B9000DF90CF90BF90AF909F9008958091C40226
:103BA00080FF0AC06E9A8EB18F7B9EB190642FB752
:103BB000F894E8E8F2E00BC0E8E8F2E01182108245
:103BC0001282339632E0E43CF307C1F7EBCF32E0E8
:103BD000E43CF30789F0319148E09EB9000000C051
:103BE00037FF8EB9330F000000C000C000C08EB98F
:103BF00000C04A9591F7EBCF2FBF8FE594E0019776
:103C0000F1F700C0000008959091C40290FF0CC02D
:103C1000E8E8F2E0818360834283339692E0E43CFB
:103C2000F907C1F70C94CE1D08958091C402282F86
:103C3000269530E02115310519F48170826005C0A8
:103C40002532310524F0817088648093C402089580
:103C5000CF92DF92EF92FF926B017C010E94151EC2
:103C6000B701A60188E090E0FF90EF90DF90CF9041
:103C70000C94AB278091C802882319F0815080935F
:103C8000C8026091C4027091C5028091C6029091F1
:103C9000C7020C94281E8091C802833018F48F5FED
:103CA0008093C8026091C4027091C5028091C602DF
:103CB0009091C7020C94281EE4ECF2E083E080832C
:103CC00011828FEF8283838314826081718182816C
:103CD00093810C94281EAF92BF92CF92DF92EF9205
:103CE000FF920F931F93CF93DF93E82EF62EE901F7
:103CF000E42FF0E0611106C0EB56FC4FE4914E2F2B
:103D00002E2F71C0062F10E0EB56FC4F4491F42F7C
:103D1000C42ED12C26E0829FC00111242FEF30E069
:103D2000B9010E94DB275BEA5603C001579F900D43
:103D300011248E0D911D8E0D911D582F550F580F6A
:103D4000D901A01BB10BAC9DC001AD9D900DBC9DD8
:103D5000900D1124E92FF59ED0011124AB2FBB2724
:103D60007901EA1AFB0AEC9CD001ED9CB00DFC9C99
:103D7000B00D11245901A51AB108A09E7001A19E91
:103D8000F00CB09EF00C1124EF2CFF242E193F09EB
:103D90002C9D80012D9D100D3C9D100D1124212F77
:103DA0006230710591F048F461157105E1F0613000
:103DB0007105B9F4242F4B2F16C06430710569F0DA
:103DC00040F06630710579F00CC0242F492FE12FA7
:103DD0000AC0492FEF2F2B2F06C0292FE42F412F88
:103DE00002C0292FEB2F49832883EA83DF91CF91EB
:103DF0001F910F91FF90EF90DF90CF90BF90AF9009
:103E00000895CF93DF9300D01F92CDB7DEB7909186
:103E1000C40290FF0AC09E012F5F3F4F0E946B1E9D
:103E20004B8169818A810E94041E0F900F900F9030
:103E3000DF91CF9108955F926F927F928F929F92C0
:103E4000AF92BF92CF92DF92EF92FF920F931F93A8
:103E5000CF93DF9300D01F92CDB7DEB7182F762E09
:103E6000042F622E9091C40290FF6DC0E92FE69559
:103E7000AE2FB0E0A259BE4F8C91809383029E7FFB
:103E8000923061F49E012F5F3F4F812F0E946B1E85
:103E90004B8169818A810E94041E43C0823019F4DB
:103EA0000091C7023EC0863019F41091C50239C096
:103EB0008930D9F38931A9F5E9518E2F8170582EB7
:103EC000E695F0E0EB56FB4FA590B49088E8C82E3D
:103ED00082E0D82EE12CF12CBB2494E1892E912C88
:103EE000AE9CC001AF9C900DBE9C900D1124B401FE
:103EF0000E94DB27812F511002C0860F01C0861B54
:103F00009601402F672D0E946B1E8FEFE81AF80A6A
:103F100083E0C80ED11C84E1E816F10409F70E9481
:103F2000CE1D1093C5027092C6020093C702662090
:103F300051F06091C4027091C5028091C6029091C7
:103F4000C7020E94281E0F900F900F90DF91CF9113
:103F50001F910F91FF90EF90DF90CF90BF90AF90A7
:103F60009F908F907F906F905F900895E4ECF2E0C7
:103F7000438128E0421B08F440E021E06281818116
:103F80000C941B1FE4ECF2E0438128E0420F08F49C
:103F90004FEF21E0628181810C941B1FE4ECF2E081
:103FA000628128E0621B08F460E021E043818181A6
:103FB0000C941B1FE4ECF2E0628128E0620F08F42D
:103FC0006FEF21E0438181810C941B1FE4ECF2E050
:103FD000818121E04381628188500C941B1FE4ECB5
:103FE000F2E0818121E043816281885F0C941B1F94
:103FF0009091C40290FF3DC09170811102C0926007
:1040000006C0853210F0986402C0880F982B9093F8
:10401000C402662351F06091C4027091C502809180
:10402000C6029091C7020E94281E6091C402669544
:1040300070E04BE050E08BE091E00E946F28892B0C
:1040400019F01092840209C081E0809384020E94DA
:10405000D41790937E0280937D0281E0809380024A
:1040600020E04091C7026091C6028091C5020C9485
:104070001B1F08958091C4028695815009F484E243
:1040800061E00C94F81F8091C40286958F5F8532A1
:1040900008F081E061E00C94F81F0E94D417209191
:1040A0007902211104C020917A02222321F09093F9
:1040B00076028093750220917B02211104C0209129
:1040C0007C02222321F09093740280937302E0918A
:1040D000CE02F091CF02309749F082E080937702D0
:1040E0000480F581E02D87E792E009940895803FF0
:1040F00039F490917A0297FF35C010927A0259C034
:10410000813F29F490917A021916BCF32BC090914B
:104110007902823F29F497FF25C01092790249C0A5
:10412000833F19F41916CCF31DC090917B02893F8F
:1041300029F41916BCF410927B023BC08A3F19F493
:1041400097FF10C0F8CF8B3F39F490917C0297FF16
:1041500009C010927C022DC08C3F21F490917C020A
:104160001916BCF39CE0980F953080F421E030E004
:10417000A90102C0440F551F9A95E2F7CA01809524
:104180009091780289238093780213C08D3F21F4A7
:10419000809172028E7F0BC08E3F21F4809172025B
:1041A0008D7F05C08F3F29F4809172028B7F8093B1
:1041B000720280917902811106C080917A02811188
:1041C00002C01092710280917B02811106C0809121
:1041D0007C02811102C010927002089580917202D7
:1041E00080FD16C081FD16C082FD18C0809170024E
:1041F000882391F0883290F428E0829FC001112436
:1042000068E270E00E94EF27862F672B29F007C035
:1042100082E0089584E0089581E0089588E008959B
:104220008091720280FD14C081FD14C082FD16C011
:1042300080917102882381F0843180F422E3829F8F
:10424000C001112464E170E00E94EF27862F0895D9
:104250008CE0089589E1089585E0089582E308954A
:10426000803F21F40E941021819504C0813F29F4F0
:104270000E94102180937A020895823F21F40E94C7
:104280001021819504C0833F29F40E94102180935E
:1042900079020895893F19F40E94EE2005C08A3FF3
:1042A00031F40E94EE20819580937B0208958B3F2C
:1042B00021F40E94EE20819504C08C3F29F40E94D5
:1042C000EE2080937C0208959CE0980F953078F45E
:1042D00021E030E0A90102C0440F551F9A95E2F792
:1042E000CA0190917802892B8093780208958D3FBE
:1042F00021F48091720281600BC08E3F21F4809185
:104300007202826005C08F3F29F48091720284603E
:104310008093720208950895EF92FF920F931F9376
:10432000CF93DF938C01C8E8D2E0E12CF12CF801A7
:104330008481FAE0EF16F1041CF4882339F002C0FE
:10434000811104C09E014091C70202C09E0140E05D
:104350006091C6028091C5020E946B1E8FEFE81A21
:10436000F80A239694E1E916F10409F70E94CE1D9C
:10437000F801848190E00196817099278483DF9110
:10438000CF911F910F91FF90EF9008958F929F9280
:10439000AF92BF92CF92DF92EF92FF920F931F9353
:1043A000CF93DF93EC014C81042F10E09801D801EA
:1043B0000E943A289B01AC010E9450286B017C01AD
:1043C000E0E2F0E0E01BF10BA5E5B0E09B01AC0101
:1043D0000E9450284B015C019F01DF010E9432289E
:1043E0009B01AC010E945B289B01AC012C0D3D1D83
:1043F0004E1D5F1DC501B4010E940328822FF22EBD
:1044000099E2921728F093E0299F900111240DC0A2
:1044100025E530E0281B3109C901880F991F280FB5
:10442000391F37FF02C02F5F3F4F35952795122F59
:10443000109598E8C92E92E0D92E00E085E5E82E87
:10444000EF1801FD02C08E2D01C08F2D9601412F66
:104450006091C6020E946B1E0F5F83E0C80ED11CE4
:10446000043179F70E94CE1D8C81811102C091E048
:1044700003C0803219F49FEF9093180190911801B6
:10448000890F8C83DF91CF911F910F91FF90EF9057
:10449000DF90CF90BF90AF909F908F9008950F9333
:1044A0001F93CF93DF93C8E8D2E0FE011182108200
:1044B0001282339682E0E43CF807C1F700E010E096
:1044C00080918602082E000C990B0817190794F0AA
:1044D00080911701082E000C990B8017910754F05A
:1044E0009E014091C7026091C6028091C5020E9460
:1044F0006B1E03C0198218821A820F5F1F4F23960A
:1045000004311105E9F60E94CE1D809116019091AB
:104510008602980F9093860220911701280F20930E
:104520001701121614F493311CF081958093160133
:10453000DF91CF911F910F910895BF92CF92DF929B
:10454000EF92FF920F931F93CF93DF93FC01828131
:1045500080FF03C0DD24DA9402C0DD24D39408E890
:1045600012E0C0E0D0E024E1B22EF8011182108206
:10457000128294E0E92EF12CC12C809185028C0DE1
:1045800085312CF06B2D0E94CD27892F02C087FD2D
:104590008C5E082E000C990BC817D90791F48091F6
:1045A000C7028E9DA0018F9D500D112455954795F2
:1045B0005595479598016091C6028091C5020E9469
:1045C0006B1ECD0CF1E0EF1AF108B9F621960D5FE4
:1045D0001F4FC431D10549F60E94CE1D809185023E
:1045E00091E0D91206C0811102C083E107C0815059
:1045F00005C090E00196BE010E94EF2780938502DE
:10460000DF91CF911F910F91FF90EF90DF90CF90AE
:10461000BF900895EF92FF921F93CF93DF93EC0129
:1046200088E8E82E82E0F82E10E08C819701409116
:10463000C7026091C602810F0E946B1E145F83E067
:10464000E80EF11C103F89F70E94CE1D9A818C81E3
:1046500090FF02C08F5F01C081508C83DF91CF91AA
:104660001F91FF90EF9008950F931F93CF93DF93C7
:1046700000D01F92CDB7DEB78C01809187028111E7
:104680000AC09E012F5F3F4F4FEF6FEF0E946B1EDE
:104690008A8180938702F8018481813051F028F06B
:1046A000823061F4409187020AC08091870240E025
:1046B00007C06091870240E080E003C040E080E0F6
:1046C00060E00E94041EF801848190E0019663E09E
:1046D00070E00E94EF2784830F900F900F90DF917E
:1046E000CF911F910F910895CF93DF93EC01E4ECEC
:1046F000F2E0438162818C810E94011F8C818F5F77
:104700008C83DF91CF910895CF93DF93EC01EC81FF
:10471000F0E0E656FB4F4491E4ECF2E062818181E7
:104720000E94011F8C818F5F8C83DF91CF91089550
:104730001F920F920FB60F9211248F939F93AF93F6
:10474000BF938091D202811113C08091D6019091C4
:10475000D701A091D801B091D9014196A11DB11DF9
:104760008093D6019093D701A093D801B093D9013B
:10477000BF91AF919F918F910F900FBE0F901F909F
:10478000189520910A012223C9F02091DA0127FF10
:1047900015C0262F2695269526952E31C8F4FC01A6
:1047A000E20FF11D677081E090E001C0880F6A950B
:1047B000EAF780959281892382830895FC01069609
:1047C0002281621301C012823196E817F907C1F7FE
:1047D000089520910A012223C1F02091DA0127FFD8
:1047E00014C0262F2695269526952E3130F5FC01EE
:1047F000E20FF11D677081E090E001C0880F6A95BB
:10480000EAF79281892B82830895FC0132962FEF7B
:1048100030E04191641789F02F3F19F4411101C034
:10482000232F3F5F3630A9F72F3F39F0FC01E20F0D
:10483000F11D27FDFA956283089508952091D00215
:104840003091D1022817390771F09093D1028093EB
:10485000D002E091CE02F091CF02309721F0008497
:10486000F185E02D099408952091CC023091CD027C
:104870002817390771F09093CD028093CC02E09114
:10488000CE02F091CF02309721F00680F781E02D23
:1048900009940895E091CE02F091CF02309721F073
:1048A0000190F081E02D099480E008950F931F930B
:1048B000CF93DF93C42FD22FFC0182818823C9F0CC
:1048C0004093CB020E94D4179093CA028093C902EE
:1048D00080E28C0F883008F057C0C77081E001C0BB
:1048E000880FCA95EAF7DF91CF911F910F910C9431
:1048F000AC268091CB02481330C08091C9029091C0
:10490000CA020E94C517883C910538F510E21D0FB8
:10491000CD17B9F080E28C0F883040F4C77081E089
:1049200001C0880FCA95EAF70E94A126183028F521
:1049300081E09D2F977001C0880F9A95EAF70E9439
:10494000AC26802F0E9467271830F0F4D77081E0E2
:1049500001C0880FDA95EAF70AC080E28C0F883030
:1049600098F4C77081E001C0880FCA95EAF7DF911B
:10497000CF911F910F910C94A126802FDF91CF91A1
:104980001F910F910C946727DF91CF911F910F9189
:104990000895CF93DF93C7E9D3E060E0CE010E9492
:1049A00099272196C11584E0D807B9F7DF91CF91F7
:1049B0000895CF92DF92EF92FF920F931F93CF93C0
:1049C000DF93C0E0D0E08E0104521F4F6E0186E1FC
:1049D000C80ED11CFE01E656FA4FE590F4906F2DFB
:1049E000CE0187960E9499276E2DCE0188960E944F
:1049F00099272296CC15DD0569F70C171D0731F7AD
:104A0000E80100371340F9F6DF91CF911F910F9124
:104A1000FF90EF90DF90CF9008950F931F93CF9367
:104A2000DF93C42FD0E0CC0FDD1F26E1629FC00DC5
:104A3000D11D11243CED839FC00DD11D1124CE0149
:104A400087960E948527082F10E0102F0027CE019F
:104A500088960E9485279801282BC901DF91CF9164
:104A60001F910F910895462F843038F47A3028F43E
:104A70006B3018F4672F0C940D2580E090E00895BA
:104A8000CF93C82F811102C06FEF01C061E283E2B2
:104A900090E00E949927C11102C06FEF01C060E150
:104AA00084E290E00E949927C11102C06FEF01C01B
:104AB00060E185E290E0CF910C94992780E00E941C
:104AC000402560E086E290E00E9499270E94D92468
:104AD0000E94C92481E00C94402583E290E00E946A
:104AE0008527813281F484E290E00E94852780311D
:104AF00051F485E290E00E94852791E0803109F031
:104B000090E0892F01C080E0817008959091C402E7
:104B100090FF04C09695981740F003C0811105C01E
:104B200090E0961710F40C94432061E00C94F81F69
:104B3000882311F0FA0101C0FB01099480E090E0A4
:104B40000E94342480E090E00E941E2410926902AA
:104B5000109268020E942D1BE7E7F2E086E0DF0179
:104B60001D928A95E9F710927102109270021092CC
:104B700072020C944D20CF92DF92FF920F931F93FD
:104B8000CF93DF936C0100910E0280916C02082B91
:104B9000C7E0D0E010E0C8010C2E02C095958795C3
:104BA0000A94E2F780FD04C02197A8F7F12C09C010
:104BB000FC2EB6018C2F0E9433250E940719019705
:104BC00099F38F2DDF91CF911F910F91FF90DF907F
:104BD000CF9008952BE0929F800D1124682F669549
:104BE00066956695982F977083E0689FB0011124B1
:104BF00040E050E080E0FB01E40FF51FED52FD4F77
:104C0000208130E0092E02C0369527950A94E2F7FC
:104C100021703327042E01C0220F0A94EAF7822B59
:104C20004F5F5F4F4330510531F708952BE0929F5E
:104C3000800D1124E82FE695E695E695877051E002
:104C400001C0550F8A95EAF783E0E89FF00111242F
:104C5000ED52FD4F20E030E070E04081CB01022EAC
:104C600002C0969587950A94E2F781708195842712
:104C70008523842781932F5F3F4F2330310569F7C8
:104C8000089580930E020C949E2521E030E001C02F
:104C9000220F8A95EAF7209580910E0282230C94C8
:104CA000412621E030E001C0220F8A95EAF7809189
:104CB0000E02822B0C94412680936C020C949E254C
:104CC000FC01808191810E94201C292F2F70E92FE7
:104CD000E295EF704E2F50E0FA013297EE30F10579
:104CE000B8F4E158FF4F0C942528803F99F018F450
:104CF000883E70F40FC0843F59F40CC0883E50F0D9
:104D0000813F31F407C0822F869586958695089558
:104D100080E0089581E0089510926A0280910A016E
:104D2000882331F08091DA0187FF02C08EE101C053
:104D300086E0E1E1F2E0DF011D928A95E9F70C944B
:104D40009E25882341F0809590916A028923809363
:104D50006A020C942D1B0895882339F090916A0201
:104D6000892B80936A020C942D1B08958823B1F13E
:104D70009CEF980F913A30F4682F8FE092E00E94F8
:104D8000C12314C090E2980F983090F4877021E00E
:104D900030E0A90102C0440F551F8A95E2F7CA010D
:104DA000809590916A02892380936A020C942D1B4E
:104DB0009BE5980F933020F480E090E00C9434242D
:104DC00098E5980F973120F480E090E00C941E2431
:104DD000803F20F00E9477200C944D200895CF93BF
:104DE000882309F472C0C82F8CEF8C0F813AC0F56C
:104DF00080910A018823E1F08091DA0187FF18C0D1
:104E0000EC2FE695E695E695F0E0E15FFD4F8281B7
:104E1000282F30E04C2F477081E090E002C0880FCF
:104E2000991F4A95E2F782239323892B61F412C0DC
:104E3000E1E1F2E087E192E02191C21721F08E17C3
:104E40009F07D1F707C06C2F8FE092E00E94C1232B
:104E50000E942D1B6C2F8FE092E00E94E92310C06E
:104E600080E28C0F883078F4C77081E090E001C058
:104E7000880FCA95EAF790916A02892B80936A029B
:104E8000CF910C942D1BEBE5EC0FE33040F4F0E0F8
:104E9000E35CFE4F808190E0CF910C943424E8E5F0
:104EA000EC0FE73150F4F0E0EE0FFF1FE05CFE4F37
:104EB00080819181CF910C941E24C03F30F08C2FC3
:104EC0000E943021CF910C944D20CF9108951F93D3
:104ED000CF93DF93182F893319F0C0E0D0E002C0E0
:104EE000C0E5D0E0812F0E94EF26209741F08FE9A6
:104EF0009FE00197F1F700C000002197F6CF812FC6
:104F0000DF91CF911F910C94B626F999FECF92BDF7
:104F100081BDF89A992780B50895A6E1B0E044E0F4
:104F200050E00C94BF27A8E1B0E042E050E00C94C0
:104F3000BF27262FF999FECF92BD81BDF89A019720
:104F400000B4021639F01FBA20BD0FB6F894FA9AD1
:104F5000F99A0FBE08950396272F0E949A270E9460
:104F60009927252F0E949A27242F0C949A2701967F
:104F7000272F0E949A270C949927DC01CB01FC0172
:104F8000F999FECF06C0F2BDE1BDF89A319600B4A2
:104F90000D9241505040B8F7089587FB082E062621
:104FA00087FD819567FD61950E9463280EF49195B8
:104FB00007FC81950895AA1BBB1B51E107C0AA1FDE
:104FC000BB1FA617B70710F0A61BB70B881F991FAA
:104FD0005A95A9F780959095BC01CD01089597FB4E
:104FE000072E16F4009407D077FD09D00E94DB2726
:104FF00007FC05D03EF4909581959F4F08957095DC
:1050000061957F4F0895A1E21A2EAA1BBB1BFD01DB
:105010000DC0AA1FBB1FEE1FFF1FA217B307E40797
:10502000F50720F0A21BB30BE40BF50B661F771FEF
:10503000881F991F1A9469F76095709580959095CF
:105040009B01AC01BD01CF010895EE0FFF1F05903C
:10505000F491E02D099469279627692778278727F7
:10506000782708950E943A28332312F48A1B9B0B59
:105070000C944B28A29FB001B39FC001A39F700D59
:10508000811D1124911DB29F700D811D1124911D50
:1050900008950E943A28B7FF0895821B930B089544
:1050A0000E943A28A59F900DB49F900DA49F800D5B
:1050B000911D11240895B7FF0C9450280E94502888
:1050C000821B930B0895991B79E004C0991F9617D2
:1050D00008F0961B881F7A95C9F780950895FC0102
:1050E0004150504030F001900616D1F73197CF0172
:1050F0000895882799270895FB01DC0104C08D914C
:105100000190801921F441505040C8F7881B990B39
:065110000895F894FFCFA2
:1051160011123A171B17171713170101191A1B1C1F
:105126001D1E1F2021220102013031323334353653
:105136003766679091929394959697F0F1F4402292
:10514600B6B4029202DC0106031F033F0381828389
:10515600E200E900EA00B500B600B700CD00830121
:10516600CC008A0192019401210223022402250225
:10517600260227022A02B300B4006F007000000165
:10518600020202020606060909090909090F0F0F9C
:105196000F0F0F15151518191919191919191919A4
:0451A60019232400A5
:00000001FF
