:100000000C9419030C9460030C9460030C9460032B
:100010000C9460030C9460030C9460030C946003D4
:100020000C9460030C9460030C943D280C940F29ED
:100030000C94C2220C9460030C9460030C94600333
:100040000C9460030C9460030C9460030C946003A4
:100050000C9460030C941B230C9460030C946003B9
:100060000C9460030C9460030C9460030C94600384
:100070000C9460030C9460030C9460030C94600374
:100080000C9460030C9460030C9460030C94600364
:100090000C9460030C9460030C9460030C94600354
:1000A0000C9460030C9460030C946003FD06FD0641
:1000B0002F072F077C079A077D087D08A5070D08E5
:1000C0001E081E081D091D092F092F0926092F09C1
:1000D0002F092F091D091D092B092F092F092B098C
:1000E000731D761D961DA71DAF1DBA1DBD1DC01D1C
:1000F000C31D091E091EC61DC91DCE1DDB1DE81D21
:10010000EB1DEF1DFC1D7C29A3299B2AA3299B2AFB
:10011000EF29122A9B2A692A782A35001E001F001F
:100120002000210024002500260027002A002B00A3
:1001300014001A000800150018000C00120013002B
:100140003100290004001600070009000D000E0010
:100150000F0033002800E1001D001B0006001900FD
:1001600010003600370038003472E000E200E3008F
:10017000635D2C002C00645DE600510052004C00D1
:1001800005000A00170022002A0011000B001C00C5
:1001900023003A003B003C003D003E00410042008D
:1001A0004300440045002A003800240025002600B2
:1001B0002F0030001F021E0201002E002700210028
:1001C0002200230026022702200234020100280018
:1001D00055001E001F0020002F02300224022202C0
:1001E0000100010001000100010001000100010007
:1001F0000100010001004F002D022D0057003F00BB
:1002000050002102310223024000010001000100E0
:1002100001000100010001000100010001000100D6
:1002200001000100010001004A002A004C004D00BD
:100230000100010001000100010001005100520015
:100240004F00340001000100010001000100010025
:100250004B0001004E0001000100010001000100FF
:100260000100010001000100010001000100510036
:1002700001000100010001005200010050000100D6
:100280000100005C0100010001000100010001000B
:1002900001000100015C0100C25CC45CC35CCA5C7B
:1002A0000100010001000100010039000100C65CED
:1002B000C55CC85C010001000100010001000100F3
:1002C0001D5C1E5C01000100010001000100010035
:1002D0000100010001000100010001000100010016
:1002E000010001000100AA000100C75CC95C010017
:1002F000A900010001000100010000000000000051
:1003000000002A2B28000000000000000000000070
:10031000000000000029000000002C1E34202122D3
:1003200024342627252E362D3738271E1F2021223C
:10033000232425263333362E37381F0405060708B5
:10034000090A0B0C0D0E0F101112131415161718A5
:10035000191A1B1C1D2F3130232D350405060708E3
:10036000090A0B0C0D0E0F10111213141516171885
:10037000191A1B1C1D2F3130354C000000000000E5
:10038000000000000000000000000000000000006D
:1003900000000000000000000000000000007E0FD0
:1003A00000D4FFFFFFC700000078643214783C1EC1
:1003B000FFAA7F5540000101010101010101010275
:1003C0000202020202020202030303030303030305
:1003D00004040404040404050505050506060606D0
:1003E00006070707070708080808090909090A0A8C
:1003F0000A0B0B0B0C0C0C0D0D0D0E0E0E0F0F0F30
:1004000010101111111212131314141515161617BA
:1004100017181819191A1A1B1B1C1D1D1E1E1F2028
:1004200020212222232424252626272829292A2B75
:100430002C2D2D2E2F30313232333435363738399A
:100440003A3B3C3D3E3F4041424344454647484994
:100450004A4C4D4E4F50515354555658595A5B5D66
:100460005E5F616264656668696B6C6D6F70727304
:100470007577787A7B7D7E8082838587888A8C8E6B
:100480008F91939596989A9C9EA0A2A3A5A7A9AB9D
:10049000ADAFB1B3B5B7BABCBEC0C2C4C6C9CBCD8F
:1004A000CFD1D4D6D8DBDDDFE2E4E7E9EBEEF0F341
:1004B000F5F8FAFDFF1803560061006E0061006E4A
:1004C000006100200072006500760032000000121A
:1004D00003640045004C0049004B004500450062A4
:1004E0000000000403090409025B00030100A0FAF4
:1004F000090400000103010100092111010001228A
:1005000040000705810308000A09040100020300F6
:1005100000000921110100012222000705820320A9
:100520000001070503032000010904020001030084
:100530000000092111010001227B0007058403202E
:10054000000A1201000200000008069913000200D0
:10055000010200010660FF0961A101096215002680
:10056000FF009520750881020963150026FF00959C
:100570002075089102C005010902A1018502090147
:10058000A100050919012908150025019508750123
:1005900081020501093009311581257F9502750811
:1005A000810609381581257F950175088106050C9E
:1005B0000A38021581257F950175088106C0C0059E
:1005C000010980A101850319012AB700150126B789
:1005D00000950175108100C0050C0901A101850479
:1005E00019012AA002150126A002950175108100AB
:1005F000C005010906A101050719E029E715002535
:100600000195087501810295017508810105071999
:100610000029FF150026FF009506750881000508D2
:10062000190129059505750191029501750391013F
:10063000C00011241FBECFEFDAE0DEBFCDBF04B68D
:1006400003FE27C08091E5029091E602A091E702A7
:10065000B091E8028730904BA740B04BD1F4109294
:10066000E5021092E6021092E7021092E80214BE30
:1006700084B7877F84BF0FB6F894A89580916000F7
:10068000886180936000109260000FBEE0E0F8E3A4
:10069000099511E0A0E0B1E0E0EDF6E502C00590BB
:1006A0000D92A03DB107D9F722E0A0EDB1E001C065
:1006B0001D92A53EB207E1F70E94AF130C94662B82
:1006C0000C94000081E0089581E008950C94640387
:1006D00008950C9468031F93CF93DF9300D000D04C
:1006E0001F92CDB7DEB749835A836B833091D20115
:1006F00089819A81311114C0662359F0222349F06F
:100700000E94130A182F682F89819A810E94BC09C0
:1007100003C00E94E709182F69817A81812F04C0E4
:100720000E94130A69817A810F900F900F900F90A9
:100730000F90DF91CF911F910C94DB1EFC01262FAF
:10074000408151816281738184810C946B0381E0CB
:100750000895CF93DF93EC0160E00E949E03BE01F9
:10076000DF91CF910C946903E1E0F0E0DF0102C07A
:10077000AA0FBB1F6A95E2F7BD01DF0102C0AA0FF5
:10078000BB1F4A95E2F7AD01462B01C0EE0F2A953B
:10079000EAF7942F9823491302C08E2B0895E09511
:1007A0008E230895242F462F682F8091EB010E94FD
:1007B000B4030C9479090E9432120E942C050C9407
:1007C00065120C94611208950E940B090E94E303C4
:1007D0002FEF84E39CE0215080409040E1F700C07F
:1007E00000000C9441230F931F93CF93DF938C0150
:1007F00061E00E949E03EC01B8010E94CB1C88239B
:1008000009F44BC0B801CE010E946603882309F4A5
:1008100044C0B801CE010E9410208823F1F1B80134
:10082000CE010E9462208823C1F1B801CE010E944E
:100830008D21882391F1B801CE010E94891A882365
:1008400061F1F8018281882309F1CA358DE5D80765
:10085000C1F050F4C115FCE5DF0781F0CE3DDC4569
:10086000A9F40E940E0F19C0CB35EDE5DE0761F04B
:10087000CC35DD4559F40E94A00D08C00E94E40368
:100880000CC00E94A90D02C00E94AC0DC801DF91EE
:10089000CF911F910F910C94620380E0DF91CF9173
:1008A0001F910F910895DF92EF92FF920F931F9384
:1008B000CF93DF93E82FF0E0E650FD4FD490282F40
:1008C00026952695269530E0F901E656FC4F0491D1
:1008D000877010E0082E02C0159507950A94E2F77C
:1008E00001701127F901E657FC4FE490F12C082E16
:1008F00002C0F594E7940A94E2F791E0E922FF241C
:10090000F901E658FC4FC491D0E002C0D595C795D7
:100910008A95E2F7C170DD270115110519F081EE06
:100920000E948605E114F10419F086EE0E94860506
:100930008D2D0E94AF06EF2819F086EE0E9430063A
:10094000012B19F081EE0E943006CD2B51F08CE284
:10095000DF91CF911F910F91FF90EF90DF900C945A
:10096000AF06DF91CF911F910F91FF90EF90DF9035
:100970000895EF92FF920F931F93CF93DF93EC01B3
:10098000162F0AE08881882309F455C0813009F0C8
:1009900043C08981813041F47E0182E0E80EF11C80
:1009A0008A810E94AF0609C0823049F47E01E2E0EC
:1009B000EE0EF11C8A810E948605E7012FC083306C
:1009C00041F47E01F2E0EF0EF11C8A810E943006B4
:1009D000F4CF843011F0219621C02A81229680E044
:1009E00090E030E0205331092A30310558F4089F57
:1009F000A001099F500D1124C901840F951F219654
:100A00002881EFCF009751F0EFE9FFE03197F1F740
:100A100000C000000197F6CF0E9453042196812F59
:100A2000882309F4AFCFEFE9FFE03197F1F700C079
:100A300000008150F5CFDF91CF911F910F91FF9072
:100A4000EF90089560E00C94B90408950C94250586
:100A500081E008950C9428050895CF93C82F0E9433
:100A600026058C2F0E942A05CF910895CF93DF93FE
:100A7000CDB7DEB72B970FB6F894DEBF0FBECDBF54
:100A80004F83588769877A878B8761110E94CF0DC2
:100A90009E012F5F3F4F86E0F90111928A95E9F799
:100AA00085E0FE013796D90101900D928A95E1F714
:100AB00089819A814C815D81452B31F09F3F31F4D2
:100AC00091E08F3F19F403C091E001C090E090FFE6
:100AD00009C049815A816B817C818D819E810E94F0
:100AE000CF0C05C0C9010E94A7038111F2CF2B963C
:100AF0000FB6F894DEBF0FBECDBFDF91CF91089542
:100B0000FC01808191810E94400A0895CF9388233F
:100B100009F4A4C0C82F8238C1F40E94C92181FD04
:100B20009DC069E380910001909101010E945C22C7
:100B30000E94F40D2FEF81EE94E021508040904010
:100B4000E1F700C0000069E319C0833801F50E9495
:100B5000C92180FD83C063E580910001909101016E
:100B60000E945C220E94F40D2FEF81EE94E0215050
:100B700080409040E1F700C0000063E580910001F3
:100B8000909101010E945E22CF910C94F40D843863
:100B9000C1F40E94C92182FD61C067E48091000117
:100BA000909101010E945C220E94F40D2FEF81EED2
:100BB00094E0215080409040E1F700C0000067E4DD
:100BC000DDCF8CEF8C0F813AD0F46C2F8091000137
:100BD000909101010E942622882349F06C2F809178
:100BE0000001909101010E945E220E94F40D6C2F81
:100BF00080910001909101010E945C22C5CF80E2AA
:100C00008C0F883048F4C77081E001C0880FCA9506
:100C1000EAF70E94B20DB8CFEBE5EC0FE33040F4F9
:100C2000F0E0ED5AFE4F808190E0CF910C94EE21E0
:100C3000E8E5EC0FE73150F4F0E0EE0FFF1FEB5D5D
:100C4000FE4F80819181CF910C940422C03F30F0FF
:100C50008C2F0E943C14CF910C940E15CF910895C7
:100C6000882309F464C0823879F40E94C92181FF85
:100C70005EC069E380910001909101010E945C22B5
:100C80000E94F40D69E310C08338B1F40E94C921B9
:100C900080FF4DC063E580910001909101010E94A9
:100CA0005C220E94F40D63E58091000190910101A6
:100CB0000E945E220C94F40D843879F40E94C921BC
:100CC00082FF35C067E480910001909101010E948C
:100CD0005C220E94F40D67E4E7CF9CEF980F913AF5
:100CE00010F4682FE1CF90E2980F983050F487709D
:100CF00091E001C0990F8A95EAF7892F0E94B80DFB
:100D0000D9CF9BE5980F933020F480E090E00C94CD
:100D1000EE2198E5980F973120F480E090E00C9454
:100D20000422803F20F00E9497140C940E15089521
:100D30001F93CF93DF93182FEB010E948605209716
:100D400041F08FE99FE00197F1F700C00000219783
:100D5000F6CF812FDF91CF911F910C94300689330C
:100D600019F060E070E002C060E570E00C94980655
:100D7000882321F00E94B20D0C94F40D089588236D
:100D800021F00E94B80D0C94F40D0895CF92DF92DB
:100D9000EF92FF920F931F93CF93DF937C01062F67
:100DA000C72FFC01D281158112951F700E94870DFB
:100DB000882399F0DD2389F08C2F807F803421F007
:100DC00080E2800F883048F082E00E94440E0E944A
:100DD000870D91E0D82ED92601C0D12CCC2EC294FB
:100DE0008FE0C8228C2D90E08C30910508F085C1F1
:100DF000FC01EA5AFF4F0C94F72A8C2F807FCF70AA
:100E0000882311F0C295C07FDD2399F0CC2309F42B
:100E100060C180E2800F883010F0011104C08C2F77
:100E20000E94B20D03C08C2F0E94C20D0E94F40DCF
:100E300050C1802F0E943006CC2309F45EC180E2AD
:100E4000800F883010F0011104C08C2F0E94B80D63
:100E500003C08C2F0E94C80D0E94F40D4EC18C2F30
:100E6000807FCF70803211F0C295C07F002319F0CF
:100E70000130C9F022C0DD2371F0112341F011309F
:100E800031F40E94D50D8C2B0E94DD0D36C10E94DD
:100E9000D50D8C2B1DC0112319F0113009F42DC173
:100EA0000E94EA0D25C0DD2321F0163008F025C18F
:100EB0000EC0153008F021C11BC0DD2361F01123E5
:100EC00031F0F701858180FF04C18F7085838C2FFD
:100ED0000E94B80612C1112359F0093309F00AC162
:100EE000FFEF27EE83E0F15020408040E1F700C1A2
:100EF0008C2F0E94BF0601C18C2F8695869583702A
:100F000019F0813061F0F9C0DD2321F0802F9C2F92
:100F1000937002C080E090E00E94EE21F6C0DD23D5
:100F200021F0802F9C2F937002C080E090E00E94FF
:100F30000422EBC0802FDD2319F00E943C1402C074
:100F40000E9497140E940E15E0C08C2F837079F5D3
:100F5000D111D7C0402F429546954770440F440F9A
:100F6000202F2F70042E01C0220F0A94EAF704FFED
:100F700008C08FE090E001C0880F4A95EAF780959D
:100F800001C080E0C695C695C370822BC23049F07F
:100F900058F4C13019F00E946D09B3C00E9468096D
:100FA000B0C00E947209ADC00E946609AAC0DD23CC
:100FB00019F08C2F817001C08695882309F4A1C097
:100FC000402F429546954770440F440F202F2F70B5
:100FD000042E01C0220F0A94EAF704FF08C08FE034
:100FE00090E001C0880F4A95EAF7809501C080E043
:100FF000C695C695C370822BC23049F058F4C130F3
:1010000019F00E94B1097DC00E94AC097AC00E940B
:10101000B60977C00E94790974C0CF70DD2339F01A
:101020008C2F0E948A09802F0E94B8066AC0802FE8
:101030000E94BF068C2F0E94950963C0023F01F1F8
:1010400028F4003F41F0013FA1F03FC0033FF9F019
:10105000043F39F13AC0DD2341F0153008F04DC0AE
:101060008C2F8F710E94A10948C0163008F045C02E
:10107000F7CFDD2339F08C2F8F710E948A093DC094
:10108000DD23C9F38C2F8F710E94950936C0DD23B3
:1010900029F08C2F8F710E9482092FC00E947F0936
:1010A0002CC0DD2349F0CF718C2F0E948A0963E0A8
:1010B0008C2F0E94290E21C081E00E94440E123024
:1010C000E0F082E00E94440E18C0DD2331F01123CD
:1010D00091F2802F0E94860510C0112399F20933E6
:1010E00049F49FEFE7EEF3E09150E040F040E1F784
:1010F00000C00000802F0E94300688EF8C0D8430E5
:1011000020F40E94C9210E942D05DD20C9F00E9413
:10111000830D80FD15C0F70112820E947D0D0E9493
:101120008A09C7010E94C1080E947D0DDF91CF91FD
:101130001F910F91FF90EF90DF90CF900C94950945
:10114000DF91CF911F910F91FF90EF90DF90CF90A3
:1011500008950F931F93CF93DF93EC0168817981FA
:101160008A810E944B0A8C010E94BB090E945A0985
:10117000B801CE010E94C606DF91CF911F910F9159
:101180000895CF93DF93EC01988189812B813C8175
:10119000232B31F08F3F31F481E09F3F19F403C0DE
:1011A00081E001C080E080FD19C0CE010E94F30300
:1011B00081110CC00E94870D882381F08A818823C9
:1011C00069F082E0DF91CF910C94440ECE010E9431
:1011D000A908CE01DF91CF910C94A903DF91CF91A3
:1011E000089580E090E00E94EE2180E090E00E946F
:1011F00004220E94CF0D0E94D20D0E94F40D0E9485
:101200003F160C940E1580910001909101010E94EF
:1012100060220C94F1080E94BF0D0C940309E92F81
:10122000E295EF704E2F50E0FA013297EE30F10563
:10123000B0F4EE59FF4F0C94F72A803F91F018F468
:10124000883E68F40EC0843F51F40BC0883E48F0DD
:10125000813F29F406C093FB882780F9089580E038
:10126000089581E00895FC01808191810E94400AE7
:101270000E940F090895CF93DF9300D000D01F92F2
:10128000CDB7DEB70F900F900F900F900F90DF91BA
:10129000CF910895CF93DF9300D000D000D0CDB789
:1012A000DEB726960FB6F894DEBF0FBECDBFDF9136
:1012B000CF910895089508950C945B090C945C09EE
:1012C0000E945E098093EC010C94F1080C94600973
:1012D0009091EC01892B0C9460099091EC01892389
:1012E0000C9460099091EC0189270C9460090C948E
:1012F0005B090E9477098093EB010C94F10880E070
:101300000C94790991E001C0990F8A95EAF7892F29
:101310000C94790921E030E001C0220F8A95EAF7A8
:101320008091EB01822B0C94790921E030E001C01F
:10133000220F8A95EAF720958091EB0182230C9485
:10134000790921E030E001C0220F8A95EAF7809107
:10135000EB0182270C9479099091EB01892B0C9475
:1013600079099091EB0189230C9479099091EB0113
:1013700089270C94790908952AE0929F800D112401
:10138000E82FE695E695E695877051E001C0550F88
:101390008A95EAF783E0E89FF0011124ED52FE4FB1
:1013A00020E030E070E04081CB01022E02C0969533
:1013B00087950A94E2F78170819584278523842795
:1013C00081932F5F3F4F2330310569F708952AE05D
:1013D000929F800D1124682F669566956695982FCB
:1013E000977083E0689FB001112440E050E080E0F6
:1013F000FB01E40FF51FED52FE4F208130E0092E76
:1014000002C0369527950A94E2F721703327042EFF
:1014100001C0220F0A94EAF7822B4F5F5F4F4330DF
:10142000510531F70895CF92DF92FF920F931F93EA
:10143000CF93DF936C010091EB018091EC01082BBD
:10144000C7E0D0E010E0C8010C2E02C0959587954A
:101450000A94E2F780FD04C02197A8F7F12C07C099
:10146000FC2EB6018C2F0E943C110197A9F38F2D01
:10147000DF91CF911F910F91FF90DF90CF90089552
:10148000CF93DF93EC010E94130ABE010E943C112E
:10149000DF91CF9108951F93CF93DF93EB0190914C
:1014A000D201992321F0CB010E94400A13C0882366
:1014B00049F0CB010E94130A182F682FCE010E9419
:1014C000BC0904C0CB010E94E709182FBE01812F7F
:1014D0000E943C11DF91CF911F9108951F93CF93EC
:1014E000DF93C091ED0116E08091EE01C81799F0ED
:1014F000D0E01C9FF0011D9FF00D1124E151FE4F23
:101500004081518162817381848195810E944A0961
:101510002196C770E9CFDF91CF911F910895409137
:101520001F0250912002609121027091220280914D
:101530002302909124020C944A090F931F93CF9396
:10154000DF938091240282958F7009F05DC08091B5
:101550002102882309F458C08091ED011091EE0119
:1015600060911F0270912002C0912202D09123024B
:1015700091E06F3F09F090E0292F06E0811709F410
:1015800043C0209721F07F3F21F030E003C031E0DD
:1015900001C0322F90E030FD34C0089FF001099F58
:1015A000F00D1124DF01A151BE4F11963C9111970E
:1015B000371327C03C91361324C012963C911297E2
:1015C00031111FC013964D915C9114974C1B5D0B0C
:1015D000483C5105B0F4809124028F708061809363
:1015E0002402EC50FE4F80818F70806180838FE1F8
:1015F00092E00E94C108DF91CF911F910F910C944E
:101600006E0A01968770BACFDF91CF911F910F912B
:1016100008959F92AF92BF92CF92DF92EF92FF9286
:101620000F931F93CF93DF93CDB7DEB761970FB6BC
:10163000F894DEBF0FBECDBF8C0185E0F801DE015E
:101640001D9601900D928A95E1F7F801E280909144
:101650001F02609120022091220230912302211565
:10166000310531F06F3F31F481E09F3F19F403C041
:1016700081E001C080E0F82FF1709F2E80FD3FC116
:10168000F80140815181A380B4808FE1C82E82E0AF
:10169000D82EF0902102F501E21BF30BFF2009F494
:1016A000D9C080912402E83CF10508F095C0282FAC
:1016B000207F09F052C0561313C0491311C0FE2CED
:1016C000E1100EC08F708061809324020E948F0A07
:1016D000C6010E94C10880912402F80185834CC193
:1016E000AB2831F05F3F31F481E04F3F19F403C084
:1016F00081E001C080E080FD03C081E08E2502C052
:1017000080E090E0F82FF170FF2E80FF1CC08091E8
:10171000ED012091EE0136E0821709F40BC190E053
:10172000389FF001399FF00D1124E151FE4F618186
:10173000561306C06081461303C06281E61203C0DF
:1017400001968770E9CFFE2CEE2009F415C1809137
:10175000240281608093240254C0561306C04913AA
:1017600004C0E11002C0F80199C0C8010E94330909
:10177000882361F1EE2051F120912402822F82957D
:101780008F7090E0029774F080911F029091200278
:1017900098878F831986BB86AA862C87CE010796E9
:1017A0000E94C10886E0F801AFE1B2E001900D921D
:1017B0008A95E1F70E949D0A0E948F0A0AC0561777
:1017C00011F1C8010E94330981112CC0C8010E9487
:1017D000C108FF24F394D0C0282F207F81F77A2DF1
:1017E000B98AA88A6E2D89890E943B098FE192E00F
:1017F0000E94C10886E0F60111928A95E9F70E94DD
:101800008F0AF12CB9C04913DCCFE110DACFF8010F
:101810008583C8010E94C10886E0F60111928A956D
:10182000E9F7AAC0EE2091F220912402822F82953E
:101830008F7090E002970CF4B5CF80911F029091C9
:1018400020029A8389831B82BD82AC822E83CE01C3
:101850000196A6CFE83CF10508F044C0FE2CEE202E
:1018600009F4B4CF561330C049132EC0209124027E
:1018700020FD21C0822F82958F70482F50E04115A6
:101880005105C9F0F80125834F30510541F08F5FB4
:10189000982F9295907F822F8F70892B8583C80116
:1018A0000E94C10886E0F801AFE1B2E001900D921C
:1018B0008A95E1F73CC086E0F801AFE1B2E0019023
:1018C0000D928A95E1F758C0C8010E943309811131
:1018D00069CF80912402816080932402C8010E9414
:1018E000C1084AC07A2DB98AA88A6E2D89890E94BA
:1018F0003B0986E0F60111928A95E9F718C0EE20BF
:1019000009F464CFC8010E943309F82E882309F432
:101910005DCF86E0F801AFE1B2E001900D928A95CB
:10192000E1F78FE192E00E9480050E949D0A0E94EB
:101930008F0A22C04D875E878D859E850E94400A52
:10194000292F22952F70223028F49F7039F08111B1
:1019500005C00BC0243028F49F7049F4805E8830A5
:1019600020F0C8010E94C1089F2CF92C05C0F80185
:101970009581907F99F7F9CF8F2D61960FB6F894E6
:10198000DEBF0FBECDBFDF91CF911F910F91FF90B2
:10199000EF90DF90CF90BF90AF909F9008951F93EE
:1019A000CF93DF93CDB7DEB72C970FB6F894DEBF99
:1019B0000FBECDBF4F83588769877A878B879C87F7
:1019C000CE0107960E94090B8823D1F09F8188855C
:1019D0002A853B85232B31F08F3F31F481E09F3FF7
:1019E00019F403C081E001C080E080FD47C04F8151
:1019F000588569857A858B859C850E944A093EC0F9
:101A000086E0FE013796DE01119601900D928A95CF
:101A1000E1F7FF81E8856A857B856115710531F005
:101A2000EF3F31F481E0FF3F19F403C081E001C0D2
:101A300080E080FD23C02091EE0130E0C9010196D5
:101A4000877099274091ED0150E084179507F1F1D7
:101A5000F983EA837D836C8396E0929FD001939F04
:101A6000B00D1124A151BE4FFE01319601900D928F
:101A70009A95E1F78093EE010E946E0A16E080913C
:101A8000ED019091EE01891771F1189FC0011124A9
:101A900081519E4F0E94090B882329F1E091ED01AD
:101AA0001E9FF0011124E151FE4F4081518162815E
:101AB0007381848195810E944A098091ED0190E0B3
:101AC0000196877099278093ED01D9CF0E940B0969
:101AD0001092EE011092ED01EFE1F2E086E0DF01FD
:101AE0001D928A95E9F72C960FB6F894DEBF0FBECB
:101AF000CDBFDF91CF911F910895809125028595EB
:101B00008595859508958091250287700895909117
:101B10002502977081E009F480E008959091860293
:101B200092FB222720F9281751F080FB92F990931D
:101B3000860280918502909186020C948B0E089506
:101B40008091860282FB882780F991E089270C9496
:101B50008E0D81E00C948E0D80E00C948E0D8091A2
:101B60003102089590913102892B809331020895BA
:101B700080959091310289238093310208951092CB
:101B80003102089590913002892B8093300208959C
:101B900080959091300289238093300208951092AD
:101BA0003002089510922F02089580912602089520
:101BB00008950C94D80D0C94D90D9091860292FD45
:101BC00008C090912602981721F0809326020C9469
:101BD000DB0D089580912602882329F010922602B9
:101BE00080E00C94DB0D0895E0910001F09101017B
:101BF000809131028083E0910001F0910101908198
:101C000080913002892B8083E0910001F0910101E5
:101C1000908180912F02892B8083809126028823D6
:101C200081F0E0910001F09101019081892B808386
:101C300080910001909101010E941A2281110E945D
:101C4000EA0D80910001909101010C94D5210C9432
:101C5000D80D9091860292FD10C098E0899F900166
:101C60001124262B209325020E948A0980912502A7
:101C70008595859585950C94270E0C948A0910926C
:101C8000250280E00C94270E209125028095822366
:101C900080932502982F977041F430E0482F082E4A
:101CA000000C550B2417350721F49091860292FF02
:101CB00007C08595859585950E9495090C943F0EE2
:101CC00008956FEF7FEF80E090E00C94502B80E060
:101CD00090E00E942C2B893E9E4F11F40C946E1CB8
:101CE00080E0089582E090E00C941E2B83E090E069
:101CF0000C941E2BCF9384E090E00E941E2BC82FE3
:101D000082E290E00E941E2B2C2F30E0A901582B7C
:101D1000CA01CF910895CF93C92F682F84E090E036
:101D20000E94322B6C2F82E290E0CF910C94322BE8
:101D3000AB01BC018FE090E00C94442BAB01BC01E3
:101D400083E190E00C94442B60E070E0CB010C94B4
:101D50009E0E60E070E0CB010E94980E0C94A40EE1
:101D600069EE7EEF80E090E00E94502B60E082E020
:101D700090E00E94322B60E083E090E00E94322BE2
:101D80001092EC0160E084E090E00E94322B60E071
:101D900082E290E00E94322B60E085E090E00E94B9
:101DA000322B60E086E090E00E94322B6FEF87E0FC
:101DB00090E00E94322B40E050E0BA0188E090E0D1
:101DC0000E94442B60E08DE090E00E94322B40E0C6
:101DD00050E0BA0188E190E00E94442B60E087E186
:101DE00090E00E94322B40E050E0BA018CE190E09C
:101DF0000E94442B60E070E080E290E00E94502B53
:101E000040E050E0BA0188E190E00E94442B80E07D
:101E10000E94871C0E94B31C0C94A90E0C94B00E57
:101E2000682F8EE090E00C94322B0E940023609388
:101E30004702709348028093490290934A0260934C
:101E400043027093440280934502909346020895A2
:101E50000E940023609347027093480280934902D6
:101E600090934A0260933F02709340028093410234
:101E700090934202089585B7806885BF85B78068D2
:101E800085BF089581E008950C94420F08950C9445
:101E9000460F0C94460F0C94490F0C94460F0C946B
:101EA0004D0F0C94460F0E943B0F88E192E10E9477
:101EB00065230E94510F0C944F0F0E94470F0C9402
:101EC000460F0E94EB220E94C21C0E9416130E9421
:101ED000D0190E94651B0C944B0F6F927F928F92CA
:101EE0009F92AF92BF92CF92DF92EF92FF920F93A9
:101EF0001F93CF93DF93CDB7DEB72A970FB6F89431
:101F0000DEBF0FBECDBF0E94291381110E94150FA5
:101F100033E3832E32E0932E00E010E0C02E802FBA
:101F20000E944C125C01F401619071904F0168268F
:101F3000792661147104B1F40F5F1F4F063011054B
:101F400069F78FEF89838A831B820E94F422816064
:101F5000782F9D838C8349815A816B818D810E946A
:101F600036053AC080914B0281FD0E945512D12C5A
:101F7000EE24E394F12CC3018E219F21892B29F1BA
:101F80000E94440F8823A9F0DE82CF82AE20BF20BA
:101F900081E0AB2809F480E088870E94F422816008
:101FA000782F9A8789874E815F8168858A850E940C
:101FB0003605000F111FF801ED5CFD4F8081918106
:101FC000E826F926F182E08207C0D394EE0CFF1CCC
:101FD000FAE0DF12D0CFB0CF0E94141A0E94C91BC2
:101FE00081110E94280F0E942C150E94C9219091F6
:101FF00032028917D1F00E94C921809332022A96B9
:102000000FB6F894DEBF0FBECDBFDF91CF911F9109
:102010000F91FF90EF90DF90CF90BF90AF909F9087
:102020008F907F906F900C942D052A960FB6F894A0
:10203000DEBF0FBECDBFDF91CF911F910F91FF90FB
:10204000EF90DF90CF90BF90AF909F908F907F9058
:102050006F900895CF93DF930E944111EC01811599
:1020600021E5920708F045C0811530E5930708F097
:1020700094C0883E910528F5803E910508F0F8C08F
:10208000883A910570F4853A910508F07CC081305A
:10209000910509F475C008F4E8C0049708F0E8C099
:1020A000E4C08F3B910508F0E0C0C85AD0E0CC0FE7
:1020B000DD1FCA5ADE4F0990D881C02DCE0194642D
:1020C000D8C0811540E2940758F4811551E0950776
:1020D00008F0CEC0803F910508F4C7C09065C9C024
:1020E000C11580E4D80708F4C0C0DF70CE01906A43
:1020F000C0C0811525E59207A8F4811534E5930742
:1021000008F095C0811543E5940708F07BC0811560
:1021100052E5950708F061C0D82FCC27CE01816F1A
:10212000906AA7C0C11589E5D807A0F4C11528E5B4
:10213000D20708F082C0C11536E5D30708F095C074
:102140008C2F0E94D5118F7190E0D82FCC27CE0113
:1021500090628FC0C1154AE5D40708F474C0CE015F
:1021600090568115904208F080C08D2F8F710E948B
:10217000D511DD27D0628F71AE01582BCA0179C00D
:1021800081E090E076C0C55AD0E0CC57DE4F888120
:10219000C82FD0E0CE0190646CC074E0969587950E
:1021A0007A95E1F7282F23703C2F337081E090E07F
:1021B00002C0880F991F3A95E2F79C68AC01522B38
:1021C0009A019C2F9F709695969550E2959FE001FD
:1021D0001124C9018C2B9D2B4CC08370992721E0C1
:1021E00030E002C0220F331F8A95E2F79C2F9695AC
:1021F000969580E2989FE0011124C22BD32BCE014B
:102200009C6837C08370992721E030E002C0220F1C
:10221000331F8A95E2F79C2F9695969540E2949FFE
:10222000E0011124C22BD32BCE019A6822C0D82FF3
:10223000CC27CE01846F906A1CC0DC2FCC27CE0146
:10224000806F906A16C08C2F8F700E94D51194E019
:10225000D695C7959A95E1F7CF70D0E0DC2FCC27C3
:10226000D0699E01282BC90104C080E090E001C024
:10227000CE01DF91CF9108950E94DB1E0E942A10AB
:1022800008958238910569F1B0F48133910509F41C
:102290006DC048F48932910509F463C08A32910512
:1022A00009F469C008958533910509F455C089334F
:1022B0009105B9F00895833E910569F138F4803EA7
:1022C0009105B1F0823E910509F10895863E910590
:1022D000A9F1873E9105B9F1843E910509F064C0EA
:1022E00023C02091850220FD4FC021FD4DC00895DF
:1022F0008091850280FD44C08091860280FF44C0A9
:102300008091850284FD42C083EE4DC0809185029C
:1023100082FF38C0F5CF8091850282FD33C0809165
:10232000860280FD31C0ECCF8091860281FF32C0F1
:102330008091850284FD2AC087EE35C08091850298
:1023400083FF26C0F5CF8091850283FD21C0809157
:10235000860281FD1FC0ECCF8091850285FD1CC0E7
:102360001DC08091850285FD19C016C0809185022F
:1023700086FD16C017C08091850286FD13C010C06F
:1023800089E311C082EE0FC080EE0DC080E00BC06B
:1023900086EE09C084EE07C089E205C085E303C06C
:1023A0008AE201C081E390E008959091850292FF56
:1023B0000DC0282F2871283019F4877F846006C04B
:1023C000282F2471243011F48B7F886093FF0DC077
:1023D000282F2871283119F4877E846106C0282FA0
:1023E0002471243111F48B7E88612091860220FFB4
:1023F0000DC0382F3871383019F4877F816006C0DE
:10240000382F3171313011F48E7F886021FF0DC07B
:10241000282F2871283119F4877E816106C0282F62
:102420002171213111F48E7E886194FD877E08959B
:1024300080E008950C94610E0E9429138FE39CE9BB
:102440000197F1F700C000000E94291380E00E946C
:102450004C1280FF04C00E941A120C94412308956C
:102460000C941C120E94670E811102C00E940E0F74
:102470000E94720E80934B020E947A0E9093860205
:10248000809385020E9430120E94760E0E94660997
:102490008091EB010C947709E82FF0E0EE0FFF1F1D
:1024A000ED56FD4F808191810895089580EA8A95C7
:1024B000F1F7089500C008950C94561208950C94F5
:1024C0005E120C945F120C945E120C946312F894DA
:1024D000E82FE295EF70F0E031A1282F2F7081E016
:1024E00090E001C0880F2A95EAF7982F90959323E2
:1024F00091A392A1892B82A3789408950F931F939F
:10250000CF93DF93C1E9D1E089918F3F11F00E9411
:10251000671281E0C739D807B9F7C7E8D1E001E908
:1025200011E089918F3F11F00E9467120C171D076F
:10253000C1F7DF91CF911F910F910895AF92BF9294
:10254000CF92DF92EF92FF920F931F93CF93DF937F
:102550008C01C62FD0E0CE018F569E4F6C01DC015E
:102560009C919F3F09F457C0B62EF894E92FE2954D
:10257000EF70F0E081A19F7021E030E001C0220FF8
:102580009A95EAF7822B81A382A12095282322A382
:1025900078940E945A12E7E8F1E020E030E0E12C64
:1025A000F12C41E050E081918F3FC1F0A82FA2951E
:1025B000AF70B0E090966C9170E08F70DB0102C05C
:1025C000B595A7958A95E2F7A0FD08C0CA01022E2D
:1025D00002C0880F991F0A94E2F702C080E090E0E1
:1025E000E82AF92A2F5F3F4F2A303105E1F6F6013C
:1025F00080818F3F11F00E94671261E0E114F104C5
:1026000009F460E08B2D0E945C12CC0FDD1FC00F1F
:10261000D11FF982E882DF91CF911F910F91FF9036
:10262000EF90DF90CF90BF90AF9008950E947E1200
:10263000E7E8F2E0A3E9B2E0119211921D921D9237
:1026400082E0E339F807C1F786E00E9474130C9426
:10265000DB03FF920F931F93CF93DF93CDB7DEB7CA
:102660002C970FB6F894DEBF0FBECDBF8E010F5F63
:102670001F4F8CE0F80111928A95E9F7F12C6F2D2C
:10268000C8010E949E12F394F6E0FF12F8CF4CE0CE
:1026900050E0B80187E892E00E94112BFF24F394E8
:1026A000009709F4F12C892B41F08CE0F801A7E8A0
:1026B000B2E001900D928A95E1F72F2D46E063E993
:1026C00072E087E892E00E9475130E94E1038F2D6B
:1026D0002C960FB6F894DEBF0FBECDBFDF91CF9121
:1026E0001F910F91FF9008950895FF920F931F93EC
:1026F000CF93DF93F82E092F162FD72FC42F222325
:1027000049F081E080934E020E94F42290934D02A2
:1027100080934C0280914E028823D9F080914C0224
:1027200090914D020E940C23059798F0EF2DF02F09
:10273000A12FBD2F80E090E04C2F50E0841795072B
:1027400034F4219131912D933D930196F7CF10925E
:102750004E02DF91CF911F910F91FF9008950E943B
:1027600067220E94F9240E9412250E9424250E94BB
:102770005D0FFBCF8091550280FF0BC06091070178
:1027800085E0689FB00111247595679575956795EB
:102790002BC081FF09C06091070185E0689FB001EF
:1027A00011247595679520C082FF07C060910701CD
:1027B00085E0689FB001112417C0909154029923BD
:1027C000D1F060910601961788F72091070185E006
:1027D000289F90011124929FA001939F500D1124D6
:1027E00070E0CA010E94E32A6038710540F4611567
:1027F000710519F406C065E070E0862F08958FE733
:10280000089581E008958091550280FF08C060918D
:10281000030170E0759567957595679521C081FFF7
:1028200006C06091030170E07595679519C082FF3D
:1028300004C06091030170E010C09091530299238D
:1028400099F0609102019617A0F780910301899F8A
:10285000C001112470E00E94E32A6038710540F441
:102860006115710519F406C061E070E0862F0895C6
:102870008FE7089581E00895803F21F40E94BA1304
:10288000819504C0813F29F40E94BA1380935902B4
:102890000895823F21F40E94BA13819504C0833FBA
:1028A00029F40E94BA13809358020895893F19F4BD
:1028B0000E94031405C08A3F31F40E9403148195DD
:1028C00080935A0208958B3F21F40E94031481954E
:1028D00004C08C3F29F40E94031480935B02089586
:1028E0009CE0980F953078F421E030E0A90102C017
:1028F000440F551F9A95E2F7CA0190915702892B10
:102900008093570208958D3F21F480915502816094
:102910000BC08E3F21F480915502826005C08F3F2D
:1029200029F4809155028460809355020895803F78
:1029300039F49091590297FF35C01092590259C04D
:10294000813F29F4909159021916BCF32BC0909144
:102950005802823F29F497FF25C01092580249C0BF
:10296000833F19F41916CCF31DC090915A02893F88
:1029700029F41916BCF410925A023BC08A3F19F48C
:1029800097FF10C0F8CF8B3F39F490915B0297FF0F
:1029900009C010925B022DC08C3F21F490915B0224
:1029A0001916BCF39CE0980F953080F421E030E0DC
:1029B000A90102C0440F551F9A95E2F7CA018095FC
:1029C0009091570289238093570213C08D3F21F4C1
:1029D000809155028E7F0BC08E3F21F4809155026D
:1029E0008D7F05C08F3F29F4809155028B7F8093A6
:1029F000550280915802811106C0809159028111BF
:102A000002C01092540280915A02811106C0809136
:102A10005B02811102C01092530208950E94F422B9
:102A200020915802211104C020915902222321F043
:102A3000909352028093510220915A02211104C0B6
:102A400020915B02222321F09093500280934F0249
:102A500086E592E00C94E021EF92FF920F931F9392
:102A6000CF93DF9300D000D000D0CDB7DEB786E0A3
:102A7000E6E5F2E0DE01119601900D928A95E1F70C
:102A8000E0905802F090590200915A0210915B02B6
:102A9000109258021092590210925A0210925B0240
:102AA000E11003C0FF2009F45DC0809151029091B4
:102AB00052020E940C23AC0190915402992339F0E8
:102AC0002091080130E02417350758F04BC02091C1
:102AD00009018AE0289F900111242417350718F076
:102AE00041C09F3F19F09F5F90935402EE2061F028
:102AF0000E94BA131E1414F09FEF01C091E0989F3A
:102B0000902D112490935802FF2061F00E94BA1377
:102B10001F1414F09FEF01C091E0989F902D112495
:102B200090935902309158023323E1F020915902D9
:102B30002223C1F045EB3403C0011124992319F07D
:102B40009093580203C081E08093580235EB230331
:102B5000C0011124992319F09093590203C081E018
:102B600080935902011103C0112309F45DC08091C3
:102B70004F02909150020E940C23AC01909153029D
:102B8000992339F02091040130E02417350758F0DB
:102B90004BC0209105018AE0289F90011124241741
:102BA000350718F041C09F3F19F09F5F9093530283
:102BB000002361F00E940314101614F09FEF01C06F
:102BC00091E0989F902D112490935A02112361F067
:102BD0000E940314111614F09FEF01C091E0989F1A
:102BE000902D112490935B0230915A023323E1F02F
:102BF00020915B022223C1F045EB3403C001112474
:102C0000992319F090935A0203C081E080935A02ED
:102C100035EB2303C0011124992319F090935B0233
:102C200003C081E080935B028091580281110BC048
:102C300080915902811107C080915A02811103C00D
:102C400080915B0281110E940E15EB82FC820D8344
:102C50001E8386E0FE013196A6E5B2E001900D925A
:102C60008A95E1F726960FB6F894DEBF0FBECDBF6A
:102C7000DF91CF911F910F91FF90EF900895E6E5BE
:102C8000F2E086E0DF011D928A95E9F71092540286
:102C900010925302109255020895EF92FF920F93F3
:102CA0001F93CF93DF938B01682F11110AC0442328
:102CB00029F0E82FF0E0EB54FC4F6491762F862F3B
:102CC00075C0212F30E0E82FF0E0442321F0EB54D1
:102CD000FC4FE491F0E046E0049FC0011124CFEFE7
:102CE000D0E0BE010E94CF2A4BEA4603C001479FB5
:102CF000900D1124800F911D800F911D982F990F19
:102D0000890FAE01421B530B4E9FD0014F9FB00D58
:102D10005E9FB00D11249B2F189FA0011124452FF9
:102D200055278E01041B150B0E9FA0010F9F500D00
:102D30001E9F500D11247E01E81AF108E29E8001C9
:102D4000E39E100DF29E100D1124212F3327C21B7C
:102D5000D30BCE9F9001CF9F300DDE9F300D1124FD
:102D600062307105A9F048F46115710569F06130B0
:102D70007105C9F48B2F752F0DC06430710581F07A
:102D800058F06630710579F47E2F8B2F932F0DC08C
:102D9000832F7B2F9E2F09C08E2F7B2F952F05C051
:102DA0008E2F732F02C07E2F852F692FDF91CF9139
:102DB0001F910F91FF90EF90089541E00E944D16F2
:102DC000089508950E94DD160895CF93DF93762F1E
:102DD000E901682F842F0E94E216798368838A8331
:102DE000DF91CF91089580919F02282F269530E0A2
:102DF0002115310519F48170826005C02531310536
:102E000024F08170886280939F02089588E090E0AA
:102E10000C94262BCF92DF92EF92FF926B017C01F4
:102E20000E94F316B701A60188E090E0FF90EF90B2
:102E3000DF90CF900C94442B60919F027091A00280
:102E40008091A1029091A2020C940A17EFE9F2E09E
:102E500083E0808311828FEF828383831482608179
:102E60007181828193810C940A1780919F0280FF67
:102E700002C08695089580E008959091A302933052
:102E800018F49F5F9093A302882351F060919F02F2
:102E90007091A0028091A1029091A2020C940A1755
:102EA000089581E00C943D179091A302992319F0A5
:102EB00091509093A302882351F060919F027091EA
:102EC000A0028091A1029091A2020C940A17089589
:102ED00081E00C9454178091A30208958093A3027B
:102EE000662351F060919F027091A0028091A1022F
:102EF0009091A2020C940A17089560E00C946E174A
:102F00008091A00208958091A10208958091A2026B
:102F1000089570E00C94361B60910B0180919F0224
:102F200080FF0AC080910A0123E0829FC001112422
:102F30008C559D4F0C94891780910C0190910D0137
:102F4000891780F7E82FF0E09F01220F331FE20F6F
:102F5000F31FEC55FD4F1182108212828F5FF0CF6C
:102F600090919F0290FF16C090910C0120910D014D
:102F7000921770F4E92FF0E0DF01AA0FBB1FEA0FF0
:102F8000FB1FEC55FD4F8183608342839F5FF0CF31
:102F90000C948C170895CF93DF9300D01F92CDB778
:102FA000DEB790919F0290FF0AC09E012F5F3F4FB6
:102FB0000E94E5164B8169818A810E94B0170F90AB
:102FC0000F900F90DF91CF910895CF93DF93EC0195
:102FD000EFE9F2E0438162818C810E94CB178C8102
:102FE0008F5F8C83DF91CF910895AF92BF92CF9284
:102FF000DF92EF92FF920F931F93CF93DF9300D056
:103000001F92CDB7DEB7182FF62E042FE22E809137
:103010009F0280FF68C0E82FE695AE2FB0E0A9566A
:10302000BE4F9C91909365028E7F823061F49E0129
:103030002F5F3F4F812F0E94E5164B8169818A8166
:103040000E94B0173EC0923019F41091A00239C00E
:103050009530D9F39B30A9F5EB508E2F8170D82E87
:10306000E695F0E0E055FC4FA590B490C12CBB2450
:1030700060910E01C61618F52C2D30E0A29EC001FD
:10308000A39E900DB29E900D112470E00E94CF2A55
:10309000812FD11002C0860F01C0861B90910C01B8
:1030A000290F311DA901440F551F240F351F2C5521
:1030B0003D4F402F6F2D0E94E516C394D9CF0E943B
:1030C0008C171093A002F092A1020093A202EE20AE
:1030D00051F060919F027091A0028091A1029091A5
:1030E000A2020E940A170F900F900F90DF91CF91CC
:1030F0001F910F91FF90EF90DF90CF90BF90AF9016
:103100000895EFE9F2E09181282F4381628188E000
:10311000890F0C94F51781E00C948118EFE9F2E027
:103120009181282F4381628188EF890F0C94F517D4
:1031300081E00C948E18EFE9F2E0628128E0620FE2
:1031400008F46FEF282F438181810C94F51781E0FB
:103150000C949B18EFE9F2E0628128E0621B08F40E
:1031600060E0282F438181810C94F51781E00C9455
:10317000AA18EFE9F2E0438128E0420F08F44FEF8C
:10318000282F628181810C94F51781E00C94B91885
:10319000EFE9F2E0438128E0421B08F440E0282FE9
:1031A000628181810C94F51781E00C94C81820E0AD
:1031B0000C94F517FF920F931F93CF93DF93EC01BD
:1031C000F12C0FEF10E060910E01F616F0F48091F3
:1031D0000C012F2D30E0280F311DC901880F991FD8
:1031E000280F391F2C553D4F70E0C8010E94E32A7B
:1031F000962F8C814091A2026091A102F99E800DD0
:1032000011240E94E516F394DECF0E948C179A8158
:103210008C8190FF02C08F5F01C081508C83DF9151
:10322000CF911F910F91FF900895EFE9F2E0808117
:103230008E7F808360817181828193810E940A17D1
:10324000109266022FEF80E792E02150804090407C
:10325000E1F700C000000C948C17EFE9F2E08081E8
:103260008E7F8083109266022FEF80E792E02150DC
:1032700080409040E1F700C000000C948C17109241
:1032800066028091630281110AC081E0809363022B
:1032900080919F028170809362020C942D19089591
:1032A00060919F02669570E04BE050E08FE091E006
:1032B0000E94042B892B19F481E0809366020E94FE
:1032C000F42290935D0280935C02089590919F0296
:1032D00090FF35C09170811102C0926006C08531A7
:1032E00010F0986202C0880F982B90939F0266237B
:1032F00051F060919F027091A0028091A102909183
:10330000A2020E940A1760919F02669570E04BE04E
:1033100050E08FE091E00E94042B892B19F010926D
:10332000660202C00E94501981E080935F024091C2
:10333000A2026091A1028091A0020C94D718089576
:10334000682F90919F02969581E0890F853108F052
:1033500081E00C94661981E00C94A019682F90917B
:103360009F0296958FEF890F09F484E10C946619FA
:1033700081E00C94AE1961E00C946619EFE9F2E07B
:1033800080818160808386950C94BB1980919F0217
:1033900080FD0C9415190C94BE1960E00C9466190C
:1033A0008091640281112EC00E94670E811104C0B9
:1033B0000E940E0F0E9426170E94061760939F021C
:1033C0007093A0028093A1029093A2026E7F61F499
:1033D0000E9426170E94061760939F027093A00216
:1033E0008093A1029093A2020E94F31610926602AB
:1033F00080919F0280FF03C086950E94CD1981E0D5
:10340000809364020895EFE9F2E080818160808317
:1034100086950C94CD1910926302809162028111FD
:103420000E94031A0C9450190F931F93CF93DF93AC
:1034300080916602882309F44CC080916502E09176
:103440009F02E695E81BE0935E02823049F4F0E0CB
:10345000E355FC4FE491CE2FD0E005EE17E110C00C
:10346000853051F4E695F0E0E655FC4FE491CE2F1F
:10347000D0E00AED18E104C0C0EDD7E001EE16E19E
:1034800080915F02882361F010925F020E94F42213
:1034900090935D0280935C02109261021092600230
:1034A0000E94F422E0915C02F0915D028E1B9F0B62
:1034B0008F3F9F4770F4CE0FDF1FD0935D02C09304
:1034C0005C028CE592E0F801DF91CF911F910F91A2
:1034D0000994DF91CF911F910F910895882311F0E6
:1034E000FA0101C0FB010994CF93DF93C82FD62FB7
:1034F0000E9435178C1740F00E9435178D1720F465
:10350000DF91CF910C94AB198C2FDF91CF910C945C
:10351000BB191F93CF93DF93FB011281112309F491
:103520009DC0EC010E94AF0D8272CB3CFCE5DF0731
:1035300009F47EC0B0F5C63CECE5DE0709F464C0D2
:10354000D8F4C33C9CE5D90709F452C038F4C23C16
:10355000DC4509F086C00E94C61982C0C43C9CE5C7
:10356000D90709F44AC0C53CDC4509F07AC048E9EE
:1035700058E16BE878E145C0C83CFCE5DF0709F499
:103580004DC008F446C0C93CECE5DE0709F44BC069
:10359000CA3CDC4509F065C045EC58E164ED78E1D2
:1035A00030C0C03D9CE5D90709F450C098F4CD3C2B
:1035B000FCE5DF0709F446C008F43FC0CE3CECE56B
:1035C000DE0709F44DC0CF3CDC4509F04AC064E099
:1035D00082E041C0C43D8CE5D807D9F108F440C071
:1035E000C53DECE5DE07E1F1CD35DD45C9F139C07A
:1035F00048EB59E16BEA79E104C04BEA59E168EB29
:1036000079E10E946E1A2CC04BE858E168E978E134
:10361000F8CF46EB58E167EA78E1F3CF47EA58E1A3
:1036200066EB78E1EECF44ED58E165EC78E1E9CF67
:1036300048E657E161E577E1E4CF41E557E168E627
:1036400077E1DFCF81E00E94BB190AC06AE085E024
:1036500002C064E18BE00E94741A02C011E001C054
:1036600010E0812FDF91CF911F9108953F9A28B1EB
:103670002F7738B130684FB7F894FC01CB01880F31
:10368000991F680F791F6E0F7F1FE617F70789F0E4
:10369000819198E038B9000000C087FF28B9880FF1
:1036A000000000C000C000C028B900C09A9591F782
:1036B000ECCF4FBF8FE594E00197F1F700C0000019
:1036C000089581E008950C94611BFF920F931F935E
:1036D000CF93DF93CBE6D2E04EEB51E02CEB31E021
:1036E00061E070E0F2E0CD36DF0709F44CC0FA018A
:1036F0000191AF01A02FA295AF70B0E09196EC912F
:1037000091970F70CB01002E01C0880F0A94EAF741
:10371000982F90959E2391969C93919792969C9129
:103720009297892B92968C939297F90111919F0110
:10373000E12FE295EF70F0E0F1A01F70CB01012EB8
:1037400001C0880F0A94EAF7982F90959F2191A3C2
:1037500092A1892B82A390968C9190E002C09595BE
:1037600087950A95E2F78170E0A1F0E002C0F59537
:10377000E7951A95E2F7E0FD02C090E001C092E003
:10378000892B8993AFCFDF91CF911F910F91FF903C
:1037900008952F923F924F925F926F927F928F92F5
:1037A0009F92AF92BF92CF92DF92EF92FF920F93D0
:1037B0001F93CF93DF938BE6682E82E0782E9EEBEB
:1037C000E92E91E0F92E0CEB11E029E6822E22E0A1
:1037D000922EC7E6D2E063015301312C212C34E054
:1037E000432E512CD501ED915D014E2F440F440F16
:1037F000F60141936F01D7012D917D01E22FE295F2
:10380000EF70F0E080A190E02F7002C09595879551
:103810002A95E2F781709927F80151918F01E52FE0
:10382000E295EF70F0E020A130E05F7002C03595C6
:1038300027955A95E2F7F901E170FF2720FF02C0B2
:10384000E2E0F0E0E82BF92BE42BD301ED933D010E
:10385000EF70F0E0E455FE4F9081F4018081890F14
:10386000808384304CF088818F5F888360E0832D73
:103870000E94631B21E001C020E0D4018C918D3FA8
:1038800044F488818150888361E0832D0E94631B0A
:1038900021E0F4018081082E000C990BB2010E94F6
:1038A000E32AD4018D934D01222A33942196B2E06C
:1038B0003B1298CF822DDF91CF911F910F91FF90F6
:1038C000EF90DF90CF90BF90AF909F908F907F90C0
:1038D0006F905F904F903F902F90089583E290E01B
:1038E0000E941E2B813281F484E290E00E941E2B04
:1038F000803151F485E290E00E941E2B91E08031EE
:1039000009F090E0892F01C080E081700895CF9385
:10391000C82F811102C06FEF01C061E283E290E025
:103920000E94322BC11102C06FEF01C060E184E23E
:1039300090E00E94322BC11102C06FEF01C060E124
:1039400085E290E0CF910C94322B089586E290E0CE
:103950000E941E2B682F70E080E090E0089586E2C0
:1039600090E00C94322B80E00E94871C60E070E0B5
:10397000CB010E94AF1C0E94561E0E94351F81E0A1
:103980000C94871C0E94A51C0E946E1C811102C011
:103990000C94B31C0895CF93FB01C281CC23E9F0B2
:1039A0009C0122513F452031310520F482510E9473
:1039B000451F0CC08031FFE59F0751F481E00E9454
:1039C0008A0943E062E081E00E94D203C0E018C0AF
:1039D00081319F45A9F482E0F2CF8031EFE59E0767
:1039E00011F481E004C081319F4549F482E00E94D6
:1039F000950943E062E081E00E94D20301C0C1E08A
:103A00008C2FCF9108952FEFFC0120830895CF9341
:103A1000DF93EC018881813889F028F48038A1F4A3
:103A20000E94861710C0823861F0833869F40E94C2
:103A3000801789830E9483178A8306C00E943517E6
:103A400002C00E946B178983DF91CF910895CF93B5
:103A5000DF93EC0188818138B1F058F4803851F55A
:103A6000D9810E948317C82F0E9480174D2F6C2F79
:103A70001DC08238B1F08338E9F40E948617482FC0
:103A80006A81898113C089810E94CD198981811140
:103A900004C0DF91CF910C942D19DF91CF910C943C
:103AA000031A8981DF91CF910C947D17DF91CF911B
:103AB0000C94D718DF91CF910895EF92FF920F9356
:103AC0001F93CF93DF93EC01062F0196E8814E2FD1
:103AD00050E0FA013197E331F10508F09AC0E0595E
:103AE000FF4F0C94F72A198289E056C089818230F1
:103AF00039F0833061F0813029F50E94002302C043
:103B00000E94A61C9A838B837C836D8384C07E0174
:103B100010E0812F0E944C12F701928383831F5F74
:103B2000F2E0EF0EF11C1630A1F775C089818230EA
:103B300049F46A817B818C819D810E94FD2A0E94CB
:103B4000AF1C69C0602FCE010E94031D64C04B8171
:103B50006A8189810E94281E9C838D835CC02C8190
:103B60003D813227232732274B816A8189810E9438
:103B7000411E51C00E94561E4EC00E94271D4BC0C0
:103B80000E94071D48C00E941C1745C00E94E81EE5
:103B900024C00E94EA1E99838A833DC06B8170E035
:103BA00089819A81AE014C5F5F4F982789279827BA
:103BB0000E94ED1E30C06B8170E089819A81AE0158
:103BC0004C5F5F4F9827892798270E94121F23C0B8
:103BD0000E94351F20C00E94151E89831CC06B8166
:103BE00070E089819A81AE014C5F5F4F98278927E9
:103BF00098270E94951E0FC06B8170E089819A8181
:103C0000AE014C5F5F4F9827892798270E94B91E05
:103C100002C08FEF8883602FCE01DF91CF911F917B
:103C20000F91FF90EF900C94EA2384E0089550E008
:103C3000440F551F24E1629F400D511D11249A012C
:103C400068E7869F200D311D1124C90187960895CC
:103C50000F931F93CF93DF930E94171E8C010E9436
:103C60001E2BC82FD0E0DC2FCC27C80101960E9464
:103C70001E2B9E01282BC901DF91CF911F910F911F
:103C800008950F931F93CF93DF93122F032F0E945A
:103C9000171EEC01602F0E94322B612FCE0101967E
:103CA000DF91CF911F910F910C94322BAF92BF9265
:103CB000CF92DF92EF92FF920F931F93CF93DF93F8
:103CC000A12CE12CF12CB12C00E010E0C0E0D0E000
:103CD0006701C00ED11EFE01EE0FFF1FEC0DFD1D92
:103CE000E65EFE4F259134914C2F6B2D8A2D0E945C
:103CF000411E2196CA30D10571F70C5E1F4FB39457
:103D000086E0B812E3CF88E7E80EF11CA39484E0C4
:103D1000A812D9CFDF91CF911F910F91FF90EF9013
:103D2000DF90CF90BF90AF900895EF92FF920F93E6
:103D30001F93CF93DF93EA017A01E60EF71E8C0101
:103D4000C8018796CE15DF0569F0003E21E0120715
:103D500020F40E941E2B888301C0188221960F5FD9
:103D60001F4FEECFDF91CF911F910F91FF90EF90FA
:103D70000895EF92FF920F931F93CF93DF93EA0181
:103D80007A01E60EF71E8C01C8018796CE15DF0575
:103D900059F0003E21E0120718F468810E94322B8E
:103DA00021960F5F1F4FF0CFDF91CF911F910F91A1
:103DB000FF90EF900895462F843038F4763028F441
:103DC0006A3018F4672F0C94281E80E090E0089564
:103DD00080E1089589EF91E00895EF92FF920F93AB
:103DE0001F93CF93DF93EA017A01E60EF71E8C0151
:103DF000C801895F9D4FCE15DF0569F0093F21E0BD
:103E0000120720F40E941E2B888301C0188221967D
:103E10000F5F1F4FEDCFDF91CF911F910F91FF905B
:103E2000EF900895EF92FF920F931F93CF93DF933C
:103E3000EA017A01E60EF71E8C01C801895F9D4FE9
:103E4000CE15DF0559F0093F21E0120718F468810B
:103E50000E94322B21960F5F1F4FEFCFDF91CF9142
:103E60001F910F91FF90EF900895CF93DF93C7E0DC
:103E7000D2E060E0CE010E94322B2196C11584E091
:103E8000D807B9F7DF91CF910895DF92EF92FF92B3
:103E90000F931F93CF93DF9300D000D0CDB7DEB741
:103EA000F82E8FE08F15E8F18FEF93E00E941E2B24
:103EB000811137C007E012E0FF2069F0011584E0AE
:103EC000180779F1C8010E941E2B811101C0FA94D4
:103ED0000F5F1F4FF1CF19821A821B821C82DD24D3
:103EE000D39478018FEFE81AF80AC8010E941E2BBC
:103EF00089831A828823A9F09FEF980F933058F492
:103F00008A83D9820E5F1F4FC7010E941E2B8B83AD
:103F1000882339F07801CE0101960E94220587019D
:103F2000E0CF0F900F900F900F90DF91CF911F91E6
:103F30000F91FF90EF90DF9008950F931F93CF9311
:103F4000DF93C42FD22FFC0182818823C9F04093D4
:103F50006F020E94F42290936E0280936D0280E2C1
:103F60008C0F883008F057C0C77081E001C0880FFF
:103F7000CA95EAF7DF91CF911F910F910C94B80683
:103F800080916F02481330C080916D0290916E0253
:103F90000E940C23883C910538F510E21D0FCD17C7
:103FA000B9F080E28C0F883040F4C77081E001C026
:103FB000880FCA95EAF70E94BF06183028F581E0FD
:103FC0009D2F977001C0880F9A95EAF70E94B80656
:103FD000802F0E94AF061830F0F4D77081E001C046
:103FE000880FDA95EAF70AC080E28C0F883098F4DF
:103FF000C77081E001C0880FCA95EAF7DF91CF91C1
:104000001F910F910C94BF06802FDF91CF911F91CC
:104010000F910C94AF06DF91CF911F910F910895EE
:104020000F939C01CB01233F4CE5340731F188F419
:10403000283DFCE53F07D9F0293D4CE5340779F1EF
:10404000273D3C45A9F506E221EE41EE67ED7CE512
:104050002BC0253FFCE53F07E1F0A8F0263F3C459B
:1040600039F507E225EE46EE66EF7CE51DC007E276
:1040700025EE45EE68ED7CE517C006E221EE40EE48
:1040800063EF7CE511C007E225EE44EE64EF7CE5CA
:104090000BC006E221EE42EE65EF7CE505C008E2CA
:1040A00021E045EE69ED7CE50E949D1F80E008C09F
:1040B000FC018281882319F010926F0201C081E017
:1040C0000F910895CF93DF93EC01FB018281882348
:1040D00009F41FC1C230FCE5DF0708F41BC1C6317B
:1040E0009CE5D90738F09E012A5F3C45293031050F
:1040F00008F010C10E947A0E909386028093850288
:10410000C031ECE5DE0709F4C3C008F041C0C83097
:104110008CE5D80709F49AC0F0F4C430ECE5DE076A
:1041200009F487C068F4C2308CE5D80709F477C079
:10413000C330DC4509F0E3C080918502826076C01F
:10414000C630ECE5DE0709F46EC008F07BC0809154
:10415000850288606BC0CC308CE5D80709F485C037
:1041600068F4CA30ECE5DE0709F474C008F079C0E1
:104170000E940B0980918502806858C0CE308CE582
:10418000D80709F476C008F07FC0809185028BC003
:10419000CB3FECE5DE0709F44FC018F5C3318CE5E1
:1041A000D80709F47DC078F4C131ECE5DE0709F4E5
:1041B00073C0C231DC4509F0A2C00E940B09809196
:1041C00085028F7733C0C5318CE5D80709F472C0FA
:1041D00008F486C0CA3FDC4509F091C08091860290
:1041E0003EC0CF3FFCE5DF0709F45FC058F4CD3F88
:1041F0009CE5D90709F444C008F43FC080918602C9
:1042000082602DC0C130FDE5DF0709F475C008F4F8
:104210005DC0C230DD4509F072C080E06EC08091A3
:104220008502816003C08091850280618093850250
:1042300066C08091850211C0809186028260809361
:1042400086025DC0809185028062F0CF80918502F8
:104250008064ECCF8091850288608460E7CF8160C4
:10426000EECF809185028E7FE1CF809185028D7F98
:10427000DDCF80918502877FD9CF8091860218C0DB
:10428000809186028D7FDBCF809185028F7ECECF9D
:10429000809185028F7DCACF809185028F7BC6CFAA
:1042A00080918502877F8B7FC1CF809186028D7F31
:1042B0008E7FC5CF8091850282FB222720F991E075
:1042C000922790FB82F990FB83F9B0CF8091860210
:1042D000982F909591708E7F892B90FB81F9AFCFAD
:1042E0000E940B098091850287FB222720F991E02B
:1042F000922790FB87F99ACF81E00E94100F80915E
:104300008502909186020E948B0E0E940B0980E02C
:1043100001C081E0DF91CF910895CF93DF93863183
:104320009C4571F5EB010E94AF0D982F917119F426
:10433000982F9A7A01C090E08A81209100013091F3
:104340000101882379F081E0911101C080E0809320
:104350007002911102C069E201C065E3C9010E94C7
:104360005C220AC080917002811102C069E201C022
:1043700065E3C9010E945E220E94F40D80E001C045
:1043800081E0DF91CF91089590937602809375023A
:104390000895E0917502F0917602309721F0019036
:1043A000F081E02D099480E00895E0917502F0918C
:1043B0007602309721F00280F381E02D0994089570
:1043C000E0917502F0917602309739F022E0DC013D
:1043D0002C930480F581E02D0994089520917302B7
:1043E000309174022817390771F09093740280930A
:1043F0007302E0917502F0917602309721F0068009
:10440000F781E02D09940895209171023091720294
:104410002817390771F09093720280937102E0912E
:104420007502F0917602309721F00084F185E02D3D
:1044300009940895FC01329697E080E0915029F0AC
:1044400021912223D9F38F5FF9CF0895662349F094
:10445000FC01329608962191621729F0E817F907B6
:10446000D1F780E0089581E008959C01FC01329627
:104470009FEF80E04191461789F09F3F19F4411169
:1044800001C0982F8F5F8630A9F79F3F39F0F9015F
:10449000E90FF11D97FDFA956283089508959C0137
:1044A0002A5F3F4FFC014281461301C012820196F0
:1044B00082179307B9F708950C9435220C944F2274
:1044C000029626E0FC0111922A95E9F708950895D5
:1044D00008950C9468220C946822CF930E946B225A
:1044E0000E9429130E946922C0E08C2F0E944C1266
:1044F000892B29F4CF5FC630C1F780E001C081E08D
:10450000CF9108950C9468220C9482228091DC0251
:10451000843059F10E94842280E00E942D050E947F
:104520003F191092770220E488E190E00FB6F894EA
:10453000A895809360000FBE2093600083B7817FB1
:10454000846083BF83B7816083BF7894889583B785
:104550008E7F83BF0FB6F894A89580916000886124
:1045600080936000109260000FBE08950C94682242
:104570000E940B090E94C9210E942D050E940B1A5E
:104580000C94B6221F920F920FB60F9211248F93A4
:104590009F93AF93BF9380917702811113C0809155
:1045A000D4029091D502A091D602B091D702419643
:1045B000A11DB11D8093D4029093D502A093D60281
:1045C000B093D702BF91AF919F918F910F900FBE83
:1045D0000F901F90189582E084BD93E095BD9AEFEF
:1045E00097BD80936E0008952FB7F8948091D40200
:1045F0009091D502A091D602B091D7022FBF089515
:104600002FB7F8946091D4027091D5028091D602B0
:104610009091D7022FBF08959C014FB7F8948091D5
:10462000D4029091D502A091D602B091D7024FBF8B
:10463000821B930B089578941F920F920FB60F92DE
:1046400011248F939F93AF93BF938091D402909145
:10465000D502A091D602B091D7020196A11DB11D3D
:104660008093D4029093D502A093D602B093D70240
:10467000BF91AF919F918F910F900FBE0F901F90A0
:10468000189581E08093E00080E28093D80010923A
:10469000C9008FE19EE40197F1F700C0000087E0B8
:1046A00090EBDC018093E5029093E602A093E70291
:1046B000B093E8029CE088E10FB6F894A895809347
:1046C00060000FBE90936000FFCF9093D101809364
:1046D000D00108958091830208959091DC02943076
:1046E00029F58093780270937A026093790290930F
:1046F000E9008FEF9091E800815095FD06C095ED9F
:104700009A95F1F700008111F5CF8091E80085FFBF
:104710000DC040E050E063E070E088E792E00E9466
:10472000E6258091E8008E778093E8000895BC012B
:1047300084E00C946D23BC0183E00C946D2324E091
:104740002093E9002FEF3091E800215035FD06C09D
:1047500035ED3A95F1F700002111F5CF2091E800F1
:1047600025FF0BC040E050E066E070E00E94E625C7
:104770008091E8008E778093E8000895CF93DF93CF
:1047800021E02093E9002FEF3091E800215035FD22
:1047900006C035ED3A95F1F700002111F5CF2091D3
:1047A000E80025FF14C0EC0140E050E068E070E054
:1047B0000E94E6258091E8008E778093E80088E0EB
:1047C000FE01ABE7B2E001900D928A95E1F7DF912F
:1047D000CF910895CF93603219F52091DC022430F7
:1047E000F9F4C091E900CF703091EC00232F2170D3
:1047F00030FD20E8C22B22E02093E9002091E80060
:1048000020FF0BC040E050E060E270E00E94E6252F
:104810008091E8008E778093E800CF70C093E90024
:10482000CF9108958091DB02811109C00E94C227B7
:104830000E941F288091E20084608093E200089526
:104840001092DB02089508950895089542E061EC06
:1048500081E00E943B2742E261EC84E00E943B271A
:1048600042E261EC82E00E943B2742E260EC83E09E
:104870000C943B278091DE02833009F462C030F44F
:10488000813071F0823009F49BC008958A3009F4B8
:1048900087C08B3009F46DC0893009F0A9C020C0F1
:1048A0008091DD02813A09F0A3C08091E800877F02
:1048B0008093E8008091E1029091E202892B21F43B
:1048C00068E08BE792E003C060E080E090E070E099
:1048D0000E947C268091E8008B778093E800089501
:1048E0008091DD02813209F083C08091E1029091D4
:1048F000E202009719F0029709F07AC08091E8006F
:10490000877F8093E8008091E80082FD05C0809158
:10491000DC028111F8CF6CC02091F3008091F2008D
:1049200090E0922B029729F48091F1008B7F8130E7
:1049300021F48091F100809383028091E8008B77CD
:1049400053C08091DD02813A09F052C08091E102AA
:104950009091E202892B09F04BC08091E800877F9B
:104960008093E8008091E80080FFFCCF80912401D3
:1049700036C08091DD028132D9F58091E1029091BB
:10498000E202892BA9F58091E800877F8093E800F7
:104990000E9470278091DF02809324010C940B0900
:1049A0008091DD02813221F58091E800877F80933C
:1049B000E8000E9470278091E002809384020895AD
:1049C0008091DD02813AA1F48091E800877F809395
:1049D000E8008091E80080FFFCCF80918402809302
:1049E000F1008091E8008E778093E8000C947027A6
:1049F000089584B7877F84BF0FB6F894A8958091F7
:104A00006000886180936000109260000FBE90E0AB
:104A100080E80FB6F89480936100909361000FBE18
:104A20000C94530F0E94C2270E941F28E2EEF0E070
:104A300080818460808378940E94B42A0E94610FF0
:104A40008AE191E00C94C421CF93DF93CDB7DEB718
:104A5000A0970FB6F894DEBF0FBECDBF8091DC02E9
:104A60008530A9F48091DC02853079F40E94862299
:104A70008091DA028823B1F30E946D22882391F39A
:104A80000E94D0250E940B09EDCF0E94B8220E94FF
:104A90006D0F8091DC02843011F583E08093E90092
:104AA0008091E80082FF1BC08091E80085FF0AC06A
:104AB00040E050E060E270E0CE0101960E943126B5
:104AC00091E001C090E08091E8008B778093E8004E
:104AD000992329F060E2CE0101960E945D1DA09607
:104AE0000FB6F894DEBF0FBECDBFDF91CF91089512
:104AF0000C947A25292F332723303105C9F060F42F
:104B00002130310581F02230310509F041C08BE5BB
:104B100090E027EE34E040C021323105E1F022324E
:104B2000310531F135C082E190E022E435E034C056
:104B300099278130910549F028F0029749F5E5EB76
:104B4000F4E005C0E3EEF4E002C0EFECF4E08491A1
:104B500090E09F0121C063307105D0F4660F771F8C
:104B6000FB01E753FE4F2081318189E090E014C0C2
:104B70006330710568F4FB01EE0FFF1FED53FE4F2C
:104B800020813181FB01E054FE4F808190E004C020
:104B900080E090E020E030E0FA0131832083089546
:104BA00080E189BD82E189BD09B400FEFDCF80911D
:104BB000D8008F7D8093D8008091E0008260809340
:104BC000E0008091E00081FDFCCF0895CF92DF925C
:104BD000EF92FF920F931F93CF93DF93EC018B0122
:104BE0007A010E948F27811133C0E114F10439F05A
:104BF000F70180819181081B190BC80FD91FC12CA7
:104C0000D12C0115110519F18091E80085FD16C020
:104C10008091E8008E778093E800E114F10449F078
:104C2000F70180819181C80ED91ED182C08285E0B2
:104C30000FC00E948F27882321F30AC08991809397
:104C4000F10001501109FFEFCF1ADF0ADACF80E03F
:104C5000DF91CF911F910F91FF90EF90DF90CF9058
:104C60000895CF92DF92EF92FF920F931F93CF930D
:104C7000DF93EC018B017A010E948F27811133C0F1
:104C8000E114F10439F0F70180819181081B190BBF
:104C9000C80FD91FC12CD12C0115110519F1809114
:104CA000E80085FD16C08091E8008B778093E800CE
:104CB000E114F10449F0F70180819181C80ED91EF9
:104CC000D182C08285E00FC00E948F27882321F304
:104CD0000AC08091F100899301501109FFEFCF1AAA
:104CE000DF0ADACF80E0DF91CF911F910F91FF9023
:104CF000EF90DF90CF9008952091E3023091E4028D
:104D00002617370748F06115710539F42091E8003E
:104D10002E772093E80001C0B901FC0120E0611565
:104D2000710579F18091DC028823F1F18530F1F190
:104D30008091E80083FD3CC08091E80082FD2EC098
:104D40008091E80080FFEBCF2091F3008091F2008A
:104D500090E0922B6115710551F08830910538F47F
:104D600021912093F100615071090196F3CF21E068
:104D7000089709F020E08091E8008E778093E800A2
:104D8000CECF2111CFCF0AC08091DC02882361F001
:104D9000853061F08091E80083FD0AC08091E800D1
:104DA00082FFF2CF80E0089582E0089583E00895C5
:104DB00081E008952091E3023091E402261737073D
:104DC00048F06115710539F42091E8002E772093A1
:104DD000E80001C0B901FC0120E06115710591F105
:104DE0008091DC02882309F440C0853009F43FC07B
:104DF0008091E80083FD3DC08091E80082FD2FC0D6
:104E00008091E80080FFE9CF2091F3008091F200CB
:104E100090E0922B6115710559F08830910540F4AE
:104E200024912093F1003196615071090196F2CFDF
:104E300021E0089709F020E08091E8008E778093C8
:104E4000E800CBCF2111CCCF0AC08091DC028823AF
:104E500061F0853061F08091E80083FD0AC08091A7
:104E6000E80082FFF2CF80E0089582E0089583E0B9
:104E7000089581E00895982F973068F59093E900A0
:104E8000981739F07091EC002091ED005091F000EE
:104E900003C0242F762F50E021FD02C09F5FECCF8E
:104EA0003091EB003E7F3093EB003091ED003D7F81
:104EB0003093ED003091EB0031603093EB00709354
:104EC000EC002093ED005093F0002091EE0027FDC0
:104ED000E5CF80E008958F708093E90081E0089528
:104EE0008091DD0287FF11C08091E80082FD05C03E
:104EF0008091DC028111F8CF11C08091E8008B779E
:104F00000BC08091DC02882349F08091E80080FF8B
:104F1000F8CF8091E8008E778093E8000895209183
:104F2000E4003091E50095E64091EC00842F81701B
:104F300040FF23C08091E80080FD1DC08091DC020D
:104F4000882399F0853099F08091EB0085FD11C0A0
:104F50004091E4005091E5002417350729F3915062
:104F600011F09A01E1CF84E0089582E0089583E092
:104F7000089581E0089580E008954091E80042FF9F
:104F8000DDCF08950E9430280E943828E0EEF0E03E
:104F9000808181608083E8EDF0E080818F7780837D
:104FA00019BCA7EDB0E08C918E7F8C9380818F7EB1
:104FB00080831092DB0208950F931F93CF93DF93AA
:104FC0000E9430280E943828C8EDD0E088818F7771
:104FD000888388818068888388818F7D888319BCD5
:104FE0001092DC021092D8021092DA021092D902CA
:104FF00000EE10E0F80180818B7F808388818160E2
:10500000888342E060E080E00E943B27E1EEF0E030
:1050100080818E7F8083E2EEF0E0808181608083FA
:10502000808188608083F80180818E7F8083888181
:1050300080618883DF91CF911F910F910895E8EDF2
:10504000F0E080818F7E8083E7EDF0E080818160F9
:10505000808384E082BF81E08093DB020C94DC27B4
:10506000E8EDF0E080818E7F80831092E200089569
:105070001092DA001092E10008951F920F920FB67D
:105080000F9211242F933F934F935F936F937F93CE
:105090008F939F93AF93BF93EF93FF938091E10022
:1050A00082FF0BC08091E20082FF07C08091E10087
:1050B0008B7F8093E1000E94B32A8091DA0080FF09
:1050C0001FC08091D80080FF1BC08091DA008E7FC6
:1050D0008093DA008091D90080FF0DC080E189BD06
:1050E00082E189BD09B400FEFDCF81E08093DC023E
:1050F0000E94122405C019BC1092DC020E942024D8
:105100008091E10080FF19C08091E20080FF15C00E
:105110008091E2008E7F8093E2008091E2008061C6
:105120008093E2008091D80080628093D80019BCFF
:1051300085E08093DC020E9424248091E10084FFBA
:1051400030C08091E20084FF2CC080E189BD82E103
:1051500089BD09B400FEFDCF8091D8008F7D80937A
:10516000D8008091E1008F7E8093E1008091E20081
:105170008F7E8093E2008091E20081608093E20064
:105180008091D802882311F084E007C08091E30069
:1051900087FD02C081E001C083E08093DC020E94B1
:1051A00025248091E10083FF29C08091E20083FFE4
:1051B00025C08091E100877F8093E10082E08093A9
:1051C000DC021092D8028091E1008E7F8093E10092
:1051D0008091E2008E7F8093E2008091E200806106
:1051E0008093E20042E060E080E00E943B278091F3
:1051F000F00088608093F0000E942324FF91EF91DB
:10520000BF91AF919F918F917F916F915F914F91DE
:105210003F912F910F900FBE0F901F9018951F92E6
:105220000F920FB60F9211242F933F934F935F93DA
:105230006F937F938F939F93AF93BF93CF93DF939E
:10524000EF93FF93C091E900CF708091EC00D82FCD
:10525000D17080FDD0E81092E9008091F000877F46
:105260008093F00078940E9453291092E900809175
:10527000F00088608093F000CD2BCF70C093E900E0
:10528000FF91EF91DF91CF91BF91AF919F918F915E
:105290007F916F915F914F913F912F910F900FBE32
:1052A0000F901F9018951F93CF93DF93CDB7DEB764
:1052B000AA970FB6F894DEBF0FBECDBFEDEDF2E0BA
:1052C0008091F100819322E0E53EF207C9F70E9448
:1052D0003A248091E80083FF2EC18091DD029091F5
:1052E000DE02492F50E04A30510508F024C1FA018E
:1052F000ED57FF4F0C94F72A803821F0823809F0DF
:105300001AC108C08091D9029091DA02992389F0DC
:1053100082600FC08091E1028F70873008F00BC16E
:105320008093E9008091EB0085FB882780F910923B
:10533000E9009091E800977F9093E8008093F10056
:105340001092F100D1C0282F2D7F09F0F4C08823DE
:1053500019F0823061F0EFC08091DF02813009F0F6
:10536000EAC0933009F080E08093DA022EC0809189
:10537000DF0281112AC08091E1028F702FEF280F88
:10538000263008F0D8C08093E9002091EB0020FF80
:105390001CC0933021F48091EB00806214C0909186
:1053A000EB0090619093EB0021E030E0A90102C096
:1053B000440F551F8A95E2F74093EA001092EA00E5
:1053C0008091EB0088608093EB001092E90080915F
:1053D000E800877F8093E8000E947027ACC08111AD
:1053E000AAC01091DF021F778091E3008078812BA3
:1053F0008093E3008091E800877F8093E8000E941B
:1054000070278091E80080FFFCCF8091E3008068E6
:105410008093E300111102C082E001C083E0809319
:10542000DC0289C08058823008F085C08091DF029C
:105430009091E0028C3D53E0950779F583E08A83F3
:105440008AE289834FB7F894DE01139620E03EE0AC
:1054500051E2E32FF0E050935700E49120FF03C0A6
:10546000E295EF703F5FEF708E2F90E0EA3010F022
:10547000C79601C0C0968D939D932F5F243149F745
:105480004FBF8091E800877F8093E8006AE270E078
:10549000CE0101960E947C2616C06091E1027091B7
:1054A000E202AE014F5F5F4F0E947825BC01892B5D
:1054B00009F441C09091E800977F9093E8008981BA
:1054C0009A810E94DA268091E8008B778093E80029
:1054D00032C0803881F58091E800877F8093E800B2
:1054E0008091D8028093F1008091E8008E7772CF8E
:1054F000811121C08091DF029091E00299270297EB
:10550000D4F48091E800877F8093E8008091DF02E7
:105510008093D8020E9470278091D802811106C022
:105520008091E30087FD02C081E001C084E08093A8
:10553000DC020E9426248091E80083FF0AC080914B
:10554000E800877F8093E8008091EB008062809381
:10555000EB00AA960FB6F894DEBF0FBECDBFDF9169
:10556000CF911F9108950895CF938091DC028823F5
:10557000A1F0C091E900CF709091EC00892F81706B
:1055800090FD80E8C82B1092E9008091E80083FD2F
:105590000E945329CF70C093E900CF910895AA1BB0
:1055A000BB1B51E107C0AA1FBB1FA617B70710F00E
:1055B000A61BB70B881F991F5A95A9F78095909540
:1055C000BC01CD01089597FB072E16F4009407D077
:1055D00077FD09D00E94CF2A07FC05D03EF49095B4
:1055E00081959F4F0895709561957F4F0895EE0FB7
:1055F000FF1F0590F491E02D0994692796276927EC
:105600007827872778270895FC014150504030F0D3
:1056100001900616D1F73197CF0108958827992771
:105620000895FB01DC0104C08D910190801921F4E3
:1056300041505040C8F7881B990B0895F999FECF47
:1056400092BD81BDF89A992780B50895A6E1B0E092
:1056500044E050E00C94582BA8E1B0E042E050E068
:105660000C94582B262FF999FECF92BD81BDF89A44
:10567000019700B4021639F01FBA20BD0FB6F89496
:10568000FA9AF99A0FBE08950396272F0E94332B9A
:105690000E94322B252F0E94332B242F0C94332B66
:1056A0000196272F0E94332B0C94322BDC01CB0167
:1056B000FC01F999FECF06C0F2BDE1BDF89A319622
:1056C00000B40D9241505040B8F70895F894FFCFC0
:1056D00027022808641E140A321E00100010100150
:1056E0000B0C0D0E0F10111213146A23BE239F23EF
:1056F0009B23972301E200E900EA00B500B600B75A
:1057000000CD008301CC008A019201940121022383
:105710000224022502260227022A02B300B4006FE7
:10572000007000818283E200E900EA00B500B60063
:10573000B700CD008301CC008A01920194012102BF
:10574000230224022502260227022A02B300B40003
:105750006F0070008182833331F7F6F49293909456
:10576000979166C63435F50001020202050505056C
:1057700005050B0B0B0B0B0B0B0B0B0B00FF0100B1
:10578000010000FFFF0000010001FF0032F136F0D0
:1057900040227BF10554057605F904120532050017
:00000001FF
