:100000000C9445060C948C060C948C060C948C066F
:100010000C948C060C948C060C948C060C948C0618
:100020000C948C060C948C060C949F200C94DB1F73
:100030000C94C7290C948C060C948C060C948C069A
:100040000C948C060C948C060C948C060C948C06E8
:100050000C948C060C947A290C948C060C948C06C7
:100060000C948C060C948C060C948C060C948C06C8
:100070000C948C060C948C060C948C060C948C06B8
:100080000C948C060C948C060C948C060C948C06A8
:100090000C948C060C948C060C948C060C948C0698
:1000A0000C948C060C948C060C948C06110C140C7D
:1000B000350C420C490C690C6C0CE00C020DA30DC4
:1000C000A30D0D0D0F0D130D380D5A0D5D0D600DA7
:1000D000830D71137113AC13AC13061424142E1575
:1000E0002E152F14A314B414B414E91D101EBD1F33
:1000F000101EBD1F5C1E7F1EBD1F751F851F9B2C04
:100100009B2CAE2CAE2CA42CAE2CAE2CAE2C9B2C4F
:100110009B2CA92CAE2CAE2CA92C7267626C696743
:1001200068745F636F6E6669672E737065656420BF
:100130003D2025640A007267626C696768745F63BA
:100140006F6E6669672E76616C203D2025640A001B
:100150007267626C696768745F636F6E6669672E49
:10016000736174203D2025640A007267626C6967C0
:1001700068745F636F6E6669672E687565203D20E1
:1001800025640A007267686C696768745F636F6EE4
:100190006669672E6D6F6465203D2025640A0072D4
:1001A00067626C696768745F636F6E6669672E6506
:1001B0006E61626C65203D2025640A007267626C86
:1001C000696768745F636F6E666967204545505262
:1001D0004F4D3A0A007267626C696768745F696EB6
:1001E0006974207267626C696768745F636F6E66BA
:1001F00069672E6D6F6465203D20302E205772692F
:1002000074652064656661756C742076616C7565D3
:100210007320746F20454550524F4D2E0A0072676F
:10022000626C696768745F696E6974206565636F85
:100230006E666967206973206E6F7420656E6162F7
:100240006C65642E0A007267626C696768745F6926
:100250006E6974207374617274210A007267626C33
:10026000696768745F696E69742063616C6C65644A
:100270002E0A004B6579626F61726420737461723B
:10028000742E0A000A002530313662003A2000251B
:10029000303258000A722F63203031323334353611
:1002A0003738394142434445460A0000047F3F1F26
:1002B000643214643214783C1E1E140A050A0025A8
:1002C000303258006B6579626F6172645F73657478
:1002D0005F6C65643A20007267626C6967687420BD
:1002E00064697361626C65205B4E4F454550524FA7
:1002F0004D5D3A207267626C696768745F636F6E08
:100300006669672E656E61626C65203D2025750A01
:10031000007267626C6967687420656E61626C6503
:10032000205B4E4F454550524F4D5D3A20726762FB
:100330006C696768745F636F6E6669672E656E616E
:10034000626C65203D2025750A007267626C6967E2
:10035000687420736574207370656564205B4E4F0C
:10036000454550524F4D5D3A2025750A005B735D3F
:10037000000000000000000000000000000000007D
:10038000000000000000000000000000000000006D
:1003900000000000007E0F00D4FFFFFFC700000038
:1003A0007800000000000000002A2B280000000058
:1003B0000000000000000000000000002900000014
:1003C000002C1E3420212224342627252E362D37BA
:1003D00038271E1F202122232425263333362E378B
:1003E000381F0405060708090A0B0C0D0E0F101123
:1003F00012131415161718191A1B1C1D2F31302330
:100400002D350405060708090A0B0C0D0E0F1011F7
:1004100012131415161718191A1B1C1D2F313035FD
:100420004C7267626C696768742064697361626C9E
:1004300065205B454550524F4D5D3A207267626CB6
:10044000696768745F636F6E6669672E656E616267
:100450006C65203D2025750A007267626C696768CB
:100460007420656E61626C65205B454550524F4D4E
:100470005D3A207267626C696768745F636F6E666D
:1004800069672E656E61626C65203D2025750A00E6
:100490007267626C6967687420746F67676C652047
:1004A0005B454550524F4D5D3A207267626C6967FB
:1004B00068745F636F6E6669672E656E61626C65F6
:1004C000203D2025750A0044454255473A2064697D
:1004D0007361626C65642E0A0044454255473A20B8
:1004E000656E61626C65642E0A004F6E6573686F9D
:1004F000743A206163746976653A2025640A000ABB
:10050000002530325820006B6579626F6172645F3C
:100510007265706F72743A20000631FF0974A10190
:100520000975150026FF00952075088102097615CA
:100530000026FF00952075089102C005010902A15F
:100540000185020901A100050919012908150025E5
:1005500001950875018102050109300931158125D0
:100560007F95027508810609381581257F950175EB
:10057000088106050C0A38021581257F950175084A
:100580008106C0C005010980A101850319012AB7B0
:1005900000150126B700950175108100C0050C09F2
:1005A00001A101850419012AA002150126A00295C6
:1005B0000175108100C00660FF0961A10109621583
:1005C0000026FF009520750881020963150026FFAB
:1005D00000952075089102C005010906A1010507D3
:1005E00019E029E71500250195087501810295019B
:1005F000750881010507190029FF150026FF0095E0
:1006000006750881000508190129059505750191F0
:1006100002950175039101C05B435D005B445D0081
:100620005B535D005B575D005B525D0009027B0020
:10063000040100A0FA0904000001030101000921DE
:10064000110100012240000705810308000A090486
:100650000100020300000009211101000122220013
:100660000705820320000107050303200001090498
:1006700002000103000000092111010001227B009A
:100680000705840320000A09040300020300000098
:100690000921110100012222000705850320000124
:1006A00007050503200001120100020000000805F3
:1006B0004765740100010200010C03740061002D04
:1006C000003600350000000E034500760079006416
:1006D0000031003300000004030904290A002575D5
:1006E000002F002575005D2800256400200025648A
:1006F00000200025640020002564007C00253032A5
:1007000058006D6F7573656B6579205B62746E7CE4
:10071000782079207620685D287265702F61636C7F
:10072000293A205B000001010101010101010102E0
:100730000202020202020202030303030303030391
:10074000040404040404040505050505060606065C
:1007500006070707070708080808090909090A0A18
:100760000A0B0B0B0C0C0C0D0D0D0E0E0E0F0F0FBC
:100770001010111111121213131414151516161747
:1007800017181819191A1A1B1B1C1D1D1E1E1F20B5
:1007900020212222232424252626272829292A2B02
:1007A0002C2D2D2E2F303132323334353637383927
:1007B0003A3B3C3D3E3F4041424344454647484921
:1007C0004A4C4D4E4F50515354555658595A5B5DF3
:1007D0005E5F616264656668696B6C6D6F70727391
:1007E0007577787A7B7D7E8082838587888A8C8EF8
:1007F0008F91939596989A9C9EA0A2A3A5A7A9AB2A
:10080000ADAFB1B3B5B7BABCBEC0C2C4C6C9CBCD1B
:10081000CFD1D4D6D8DBDDDFE2E4E7E9EBEEF0F3CD
:10082000F5F8FAFDFF7267626C6967687420746995
:100830006D657220656E61626C65642E0A00726778
:10084000626C69676874206D6F6465205B4E4F450C
:100850004550524F4D5D3A2025750A007267626C13
:1008600069676874206D6F6465205B454550524F21
:100870004D5D3A2025750A007267626C696768747D
:100880002073657420687376205B4E4F4545505247
:100890004F4D5D3A2025752C25752C25750A007263
:1008A00067626C696768742073657420687376206A
:1008B0005B454550524F4D5D3A2025752C25752CD2
:1008C00025750A007267626C6967687420726169D5
:1008D0006E626F7720736574206873763A202564A2
:1008E0002C25642C25642C25750A00FFAA7F554011
:1008F0007267626C696768742074696D65722064E0
:10090000697361626C652E0A002223252628292A34
:100910002C2D2F3032333536383A3B3D3E40424362
:100920004547494A4C4E5051535557595A5C5E60A1
:1009300062646668696B6D6F71737577797B7D7FB3
:1009400081838587898A8C8E90929496989A9C9EB2
:100950009FA1A3A5A7A8AAACAEAFB1B3B4B6B8B9CE
:10096000BBBCBEBFC1C2C3C5C6C7C9CACBCCCDCE36
:10097000D0D1D2D2D3D4D5D6D7D7D8D9D9DADADB19
:10098000DBDBDCDCDCDCDCDDDDDDDDDCDCDCDCDCA5
:10099000DBDBDBDADAD9D9D8D7D7D6D5D4D3D2D2E4
:1009A000D1D0CECDCCCBCAC9C7C6C5C3C2C1BFBECC
:1009B000BCBBB9B8B6B4B3B1AFAEACAAA8A7A5A337
:1009C000A19F9E9C9A98969492908E8C8A898785F6
:1009D00083817F7D7B79777573716F6D6B696866D5
:1009E0006462605E5C5A5957555351504E4C4A49A7
:1009F00047454342403E3D3B3A3836353332302F4F
:100A00002D2C2A29282625232229001E001F0020FC
:100A10000021002200230024002500260027002DAD
:100A2000002E00310049002A002B0014001A000893
:100A300000150017001C0018000C00120013002FF6
:100A400000300031004C000000E0000400160007F8
:100A50000009000A000B000D000E000F00330034E7
:100A600000310028004B000000E10064001D001B65
:100A7000000600190005001100100036003700388C
:100A800000E50052004E0000003900E300E20000E3
:100A900000000000002C0000000000E600E400025E
:100AA00051500051004F00000035003A003B003C1F
:100AB000003D003E003F0040004100420043004432
:100AC0000045000100460001000100010001000195
:100AD00000010001000100010052000100010001BD
:100AE00000010001004900000001000100010001B7
:100AF00000010001000100500051004F0001000101
:100B000000010001004A0000000100010001000195
:100B10000001000100010001000100AA00A900A8D5
:100B200000010001004D0000000100010001000073
:100B300000000000000100000000000100010001B1
:100B4000000100010001000000010001000100019E
:100B5000000100010001000100010001000100018D
:100B6000000100010001000100010001000100017D
:100B7000000100010001000100010001000100016D
:100B8000000100010001000000010001000100015E
:100B9000000100010001000100010001000100014D
:100BA000000100010001000000010001000100013E
:100BB000000100010001000100010001000100012D
:100BC000000100010001000000010001000100001F
:100BD0000000000000010000000000010001000111
:100BE00000010001000100000001000100010001FE
:100BF00000010001000100010001000100010001ED
:100C000000010001000100010001000100010001DC
:100C100000010001000100010001000100010001CC
:100C200000010001000100000001000100010001BD
:100C300000010001000100010001000100010001AC
:100C4000000100010001000000010001000100019D
:100C5000000100010001000100010001000100018C
:100C6000000100010001000000010001000100007E
:100C70000000000000010000000000010001000170
:100C80000001000100010000000011241FBECFEF91
:100C9000DAE0DEBFCDBF04B603FE27C08091990223
:100CA00090919A02A0919B02B0919C028730904B48
:100CB000A740B04BD1F41092990210929A02109270
:100CC0009B0210929C0214BE84B7877F84BF0FB62C
:100CD000F894A895809160008861809360001092DC
:100CE00060000FBEE0E0F8E3099511E0A0E0B1E09C
:100CF000E6EEFDE502C005900D92A83AB107D9F7DE
:100D000022E0A8EAB1E001C01D92A939B207E1F7DB
:100D10000E943C070C94F12E0C940000FF93EF937B
:100D2000E091A801F091A901309709F00995EF91A0
:100D3000FF910895FC018591803011F0EFDFFBCF2A
:100D40000895FF27E0E230E247FF0CC0419597FF8E
:100D500009C0EDE26095709580959095611D711DBB
:100D6000811D911D27FF02C0219530E350E2AA2783
:100D7000660F771F881F991FAA1FA41710F0A41BC6
:100D800063955A95A9F7AA3008F0A95FA05DAF93C3
:100D9000F395611571058105910541F7ED3211F467
:100DA000EF93F395F21718F43F93F395FBCF8F91E0
:100DB000B5DFFA95E1F70895E991F99185918030D1
:100DC00021F0853219F0AADFF9CF089520E0E894E8
:100DD00055915532C1F3503311F4689455915A33FB
:100DE00048F4505390F3220F022E220F220F200DB1
:100DF000250FF4CF0EF4219589919991533619F36B
:100E0000533729F1533559F1BC0188279927E894C4
:100E10005C3621F48991999168945591543639F44E
:100E200046EF7EF077FF0DC08FEF9FEF0AC055377A
:100E30004AE039F0583540E121F0523642E009F0FD
:100E40000895FF93EF937DDFEF91FF91B7CFFF936D
:100E5000EF93FC0181918030B9F360DFFBCFFF930A
:100E6000EF9368DFF1CFDF93CF93CDB7DEB7259651
:100E7000A3DFCF91DF910895CF93DF93CDB7DEB796
:100E8000AD970FB6F894DEBF0FBECDBF84B7877F96
:100E900084BF0FB6F894A895809160008861809314
:100EA0006000109260000FBE90E080E80FB6F894EA
:100EB00080936100909361000FBE85B7806885BF05
:100EC00085B7806885BF8CE89CE19093A9018093E9
:100ED000A8010E941F200E943E208091E2008460B1
:100EE0008093E2007894809129028823A1F01091E8
:100EF000E9001F709091EC00892F817090FD80E8CF
:100F0000182B1092E9008091E80083FD0E94021DD9
:100F10001F701093E90082E084BD93E095BD9AEFC5
:100F200097BD80936E000E94842B811102C00E94A5
:100F3000752B09E111E0F80181918F018F3F11F0CC
:100F40000E94D815F1E00E311F07A9F70EE111E05C
:100F5000F80181918F018F3F11F00E94D815F1E0C7
:100F60000E321F07A9F7ECEAF1E086EB91E0A5EC61
:100F7000B1E0119211921D921D928E179F07C9F731
:100F80000E948818811102C00E94931882E090E0AC
:100F90000E94FB2D809347020E9477189093AB012B
:100FA0008093AA010E94EF158FE39CE90197F1F766
:100FB00000C000000E94EF158091C50180FF08C0AD
:100FC0006FEF7FEF80E090E00E942D2E0E94562967
:100FD00083E090E00E94FB2D0E94822C8091B6015C
:100FE0008111DDC08091470280FF08C08CE592E04E
:100FF0009F938F930E9433070F900F908091470229
:1010000080FF08C086E492E09F938F930E9433078D
:101010000F900F900E948818811110C08091470294
:1010200080FF08C08EE192E09F938F930E94330768
:101030000F900F900E9493180E94B52288E090E0D4
:101040000E94032E6093650270936602809367028C
:10105000909368026E7FD1F48091470280FF08C0B0
:1010600085ED91E09F938F930E9433070F900F902F
:101070000E94B52288E090E00E94032E60936502F2
:101080007093660280936702909368020E946E22BA
:101090008091470280FF08C08CEB91E09F938F9373
:1010A0000E9433070F900F908091470280FF0FC07E
:1010B0008091650281701F928F938FE991E09F93D9
:1010C0008F930E9433070F900F900F900F90809195
:1010D000470280FF0FC08091650286951F928F9313
:1010E00084E891E09F938F930E9433070F900F90B5
:1010F0000F900F908091470280FF0EC08091660292
:101100001F928F938AE691E09F938F930E943307FB
:101110000F900F900F900F908091470280FF0EC0AC
:10112000809167021F928F9380E591E09F938F9348
:101130000E9433070F900F900F900F9080914702FD
:1011400080FF0EC0809168021F928F9386E391E02A
:101150009F938F930E9433070F900F900F900F90E3
:101160008091470280FF0EC0809169021F928F9389
:101170008AE191E09F938F930E9433070F900F9025
:101180000F900F90109249028091650280FF04C079
:1011900060E086950E949A2481E08093B6012298AF
:1011A0002A9A2198299A83B182FB882780F9199B72
:1011B00002C092E001C090E0892B8093B90180E0E9
:1011C00091E09093700280936F0283E792E00E9417
:1011D0009A0680912902853009F04AC08DE693E095
:1011E0000E949A0600E112E180912902853009F0FF
:1011F0003BC080912902843021F110927302E8E112
:10120000F0E020E40FB6F894A895E09360000FBEDC
:101210002093600083B7817F846083BF83B7816040
:1012200083BF7894889583B78E7F83BF0FB6F89479
:10123000A8958091600088618093600010926000A2
:101240000FBE80912802882309F4CECF0E94EF15AB
:10125000E5ECF1E081919191892B09F09EC431E098
:10126000EF3CF307B9F7C0CF0E94B22C0E94432A8B
:101270000E94EF1581110E94AF294BEB51E05CA752
:101280004BA745EC442E41E0542E00E010E00DA7A2
:10129000F201A190B1902F01EBA5FCA5C190D190D6
:1012A000FCA7EBA7CA24DB24C114D104B1F40F5F5F
:1012B0001F4F0530110559F78FEF8EA38FA318A686
:1012C0000E94BB298160782F9AA789A74EA15FA1B0
:1012D00068A58AA50E94F60D77C08091470281FD1E
:1012E00005C080E0EE24E394F12C48C084E992E04C
:1012F0000E949A0625EC822E21E0922EE12CF12C00
:10130000FF92EF922FE832E03F932F930E94330732
:101310008CE892E00E949A06F40180812180F2E03C
:101320008F0E911C0E948315382E822D0E948315EA
:10133000232D30E0322F2227A901482BCA019F9389
:101340008F9386E892E09F938F930E94330784E8FF
:1013500092E00E949A06FFEFEF1AFF0A0FB6F89488
:10136000DEBF0FBECDBF35E0E316F10449F6B9CFBD
:101370008F5FEE0CFF1C803109F499CF96012E216E
:101380003F21232BA9F389A34DA54AA3AE20BF205B
:1013900081E0AB2809F480E08BA30E94BB29816027
:1013A000782F9DA38CA349A15AA16BA18DA10E9466
:1013B000F60D000F111FF801E554FE4F8081918159
:1013C000E826F926F182E08280914902882309F417
:1013D00093C080914802E0916502E695E81BE09396
:1013E0004302823059F4F0E0E754FD4FE4910E2FB0
:1013F00010E0F8E1EF2EF9E2FF2E59C0863059F4E3
:10140000F0E0EA54FD4FE4910E2F10E0E8E0EE2EFC
:10141000E9E2FE2E4CC0893061F4E695F0E0ED542F
:10142000FD4FE4910E2F10E07EE9E72E78E2F72ED3
:101430003EC08F3061F4E695F0E0E055FD4FE49159
:101440000E2F10E06AE3E62E68E2F62E30C08531FA
:1014500059F4F0E0E355FD4FE4910E2F10E05CEEFF
:10146000E52E57E2F52E23C08831A1F0833249F4EE
:10147000EBEAF2E00591149148ECE42E48E2F42EF8
:1014800016C0843271F000ED17E03DEDE32E36E238
:10149000F32E0DC008E210E023E6E22E27E2F22E42
:1014A00006C004EF11E099E2E92E97E2F92E80914F
:1014B0004402882361F0109244020E94BB29909359
:1014C00042028093410210924602109245020E940D
:1014D000BB29E0914102F09142028E1B9F0B8F3F8E
:1014E0009F4750F40E0F1F1F1093420200934102BA
:1014F00081E492E0F70109958091B901E82FEE0FA0
:10150000EE0FE093B90183B182FB662460F8712C81
:10151000199B03C082E090E002C080E090E0862941
:1015200097298E2B8093B9018F70E82FF0E0E25D50
:10153000FE4F90818091B801890F843024F0909102
:10154000B7019F5F05C08D3F3CF49091B70191506A
:101550009093B70121E001C020E0082E000C990B08
:1015600064E070E00E94632E8093B80121110E9414
:10157000AF2986E0EBE3F2E08E010F5F1F4FD80149
:1015800001900D928A95E1F7C0903D02D0903E0205
:10159000E0903F02F090400210923D0210923E0215
:1015A00010923F0210924002C11003C0DD2009F4E6
:1015B00051C08091390290913A020E94A0299C0169
:1015C00090913602992309F407C32333310508F4B7
:1015D00041C09F3F19F09F5F90933602CC2061F08D
:1015E0000E945F261C1414F491E001C09FEF899FB4
:1015F000802D112480933D02DD2061F00E945F2642
:101600001D1414F491E001C09FEF899F802D1124D7
:1016100080933E0230913D023323E1F020913E025F
:101620002223C1F045EB3403C0011124992319F0A2
:1016300090933D0203C081E080933D0255EB25036A
:10164000C0011124992319F090933E0203C081E058
:1016500080933E02E11003C0FF2009F451C0809145
:101660003702909138020E94A0299C019091340287
:10167000992309F4B6C22536310508F441C09F3FCD
:1016800019F09F5F90933402EE2061F00E943D2696
:101690001E1414F491E001C09FEF899F802D112446
:1016A00080933F02FF2061F00E943D261F1414F436
:1016B00091E001C09FEF899F802D1124809340020B
:1016C00030913F023323E1F0209140022223C1F008
:1016D00045EB3403C0011124992319F090933F0284
:1016E00003C081E080933F0255EB2503C001112424
:1016F000992319F09093400203C081E08093400247
:1017000080913D0281110BC080913E02811107C082
:1017100080913F02811103C08091400281110E949B
:101720001A25CB82DC82ED82FE8286E0F801ABE3F3
:10173000B2E001900D928A95E1F70E94432A9091C0
:10174000BA01891739F10E94432AF82E8093BA0111
:101750008091470282FF1EC080FF04C084EC92E0AB
:101760000E949A068091470280FF0CC01F92FF9250
:101770008FEB92E09F938F930E9433070F900F900F
:101780000F900F908091470280FF04C08DEB92E094
:101790000E949A0680912902843009F01ACD83E0D4
:1017A0008093E9008091E80082FF13CD8091E800EA
:1017B00085FF21C00E94C82181111BC080E2E82E54
:1017C000F12C680109C08091F100F60181936F014D
:1017D000F1E0EF1AF10869F08091E80085FDF3CFA0
:1017E0008091E8008B778093E8000E94C8218823CD
:1017F00099F391E001C090E08091E8008B778093AD
:10180000E800992309F4E5CCE9818E2F90E0FC01F2
:101810003197E331F10508F096C1EA5AFF4F0C9475
:10182000992E1A8289E0E7C08A81823009F4CBC1FF
:10183000833051F0813009F086C10E94AF299B832B
:101840008C837D836E8381C1F801CE010B96A5EC5C
:10185000B1E02C9111963C9111971296328323831B
:1018600032968E179F07A9F770C18A81823009F0DE
:101870006AC16B817C818D819E810E949F2E86E250
:1018800090E024C04C816B818A810E94242B9D832F
:10189000A1C1CD80DE80DC24CD24DC248C81EB80D2
:1018A0009A8120E2E29E7001112430EA939FE00CBD
:1018B000F11C1124E80EF11CE80EF11C6D2DC7017E
:1018C00087960E940F2E6C2DC70188960E940F2EBE
:1018D0003CC10E94D22A39C18A818138B9F050F4C2
:1018E000803809F032C120E04B816091670280911D
:1018F000660263C0823809F44CC0833809F025C100
:1019000020E0409168026C818B8157C060E08B8140
:101910000E949A242B8190914702809165022111A7
:101920001FC08E7F8093650290FF0CC01F921F9294
:1019300087ED92E09F938F930E9433070F900F9053
:101940000F900F900E94B52B4FEF50E782E041506F
:1019500050408040E1F700C000000E942722F5C0FF
:1019600081608093650290FF0DC01F9281E08F938C
:1019700081E193E09F938F930E9433070F900F9024
:101980000F900F908091650260E086950E949A24E6
:10199000DCC08B81809369029091470290FFD5C093
:1019A0001F928F938AE493E09F938F930E94330753
:1019B0000F900F900F900F90C8C00E947423C5C065
:1019C0008A81813899F030F4803809F0BEC0809166
:1019D000680211C0823899F0833809F0B6C080914E
:1019E00066028B83809167028C83AFC08091650211
:1019F00080FF03C086958B83A8C080E0FCCF8091D8
:101A00006902F9CF60916502709166028091670268
:101A1000909168020E94812298C080E14FC081E0CD
:101A20008A8389E5E8CFEA80FB80FE24EF24FE2448
:101A3000AC80B12C6801C70189559D4F9601201BD0
:101A4000310B2A153B0508F080C0E9E5EE16E1E010
:101A5000FE0628F40E94FB2DF601848302C0F601E5
:101A60001482FFEFEF1AFF0A2FEFC21AD20AE3CF58
:101A7000EA80FB80FE24EF24FE24AC80B12C6801B8
:101A8000C70189559D4F9601201B310B2A153B0537
:101A900008F05BC039E5E31631E0F30620F4F60107
:101AA00064810E940F2EFFEFEF1AFF0A2FEFC21A78
:101AB000D20AE6CF0E94C22A48C084E08A8345C089
:101AC000EA80FB80FE24EF24FE24AC80B12C680168
:101AD000C70187969601201B310B2A153B05A8F5F7
:101AE00030E8E31632E0F30628F40E94FB2DF601FD
:101AF000848302C0F6011482FFEFEF1AFF0A2FEF72
:101B0000C21AD20AE5CFEA80FB80FE24EF24FE242D
:101B1000AC80B12C6801C70187969601201B310B60
:101B20002A153B0590F430E8E31632E0F30620F482
:101B3000F60164810E940F2EFFEFEF1AFF0A2FEFCC
:101B4000C21AD20AE8CF8FEF8983809129028430AC
:101B500009F03FCB8091E9008F702091EC00922F2B
:101B6000917020FD90E8F92EF82A82E08093E90038
:101B70008091E80080FF0CC040E050E060E270E03F
:101B8000C8010E94FB218091E8008E778093E800D5
:101B90008F2D8F708093E9001CCB09BD19BD09B44E
:101BA00000FEFDCF8091D8008F7D8093D80080917A
:101BB000E00082608093E0008091E00081FDFCCF36
:101BC0000E94B22C11CB86E290E00E94FB2D1B827A
:101BD0001C821D828E83B9CF2D32314008F0FBCCA0
:101BE00039CD2D32314008F04CCD8ACD1F93CF93A3
:101BF000DF93CDB7DEB767970FB6F894DEBF0FBEA1
:101C0000CDBF4B8B5C8B6D8B7E8B8F8B611110925C
:101C1000120286E09E01235F3F4FD901E82F1D92FB
:101C2000EA95E9F795E0FE017396D90101900D92CE
:101C30009A95E1F79C894E895F897B897D879E878C
:101C40006F87598B488BF901DE01179601900D9231
:101C50008A95E1F7CE0107960E94391A81113EC09C
:101C600086E0FE013796DE01119601900D928A956D
:101C7000E1F7FF81E8856A857B856115710531F0A3
:101C8000EF3F31F481E0FF3F19F403C081E001C070
:101C900080E080FD23C02091DE0130E0C901019683
:101CA0008770992740910F0250E08417950779F1CA
:101CB000F983EA837D836C8396E0929FD001939FA2
:101CC000B00D1124A152BE4FFE01319601900D922C
:101CD0009A95E1F78093DE010E94B61916E0809193
:101CE0000F029091DE018917F9F0189FC0011124AD
:101CF00081529E4F0E94391A8823B1F080910F02C1
:101D000090E001968770992780930F02E8CF0E9498
:101D1000B22C1092DE0110920F02E8EDF1E086E0A5
:101D2000DF011D928A95E9F767960FB6F894DEBF3A
:101D30000FBECDBFDF91CF911F9108953F924F927B
:101D40005F926F927F928F929F92AF92BF92CF924B
:101D5000DF92EF92FF920F931F93CF93DF93CDB754
:101D6000DEB729970FB6F894DEBF0FBECDBFFC01DA
:101D70008081918123813481232B31F09F3F31F485
:101D800091E08F3F19F403C091E001C090E090FD15
:101D9000A2C67F0185E0DE01119601900D928A9521
:101DA000E1F7F701228189819A81222349F00E947B
:101DB000E12B182F682F89819A810E943C2C03C047
:101DC0000E94102C182F69817A81812F0E944A2B42
:101DD0008C01F7018281882309F4F2C09801225115
:101DE0003F452031310508F019C18FEF93E00E9483
:101DF000FB2D8111EFC0025137EA832E32E0932E82
:101E0000002379F08114F4E09F0609F4E3C0C401D3
:101E10000E94FB2D811101C001502FEF821A920AFE
:101E2000EFCF1E821F8218861986442443942AE02D
:101E3000322E84010F5F1F4FC4010E94FB2D8E8341
:101E40001F82882309F4C6C09FEF980F933060F477
:101E50008F834E8232E0830E911CC8010E94FB2DBD
:101E60008887811102C0B6C048018E010A5F1F4FEA
:101E7000F80120812223E9F2213009F04CC0818150
:101E8000813049F46801F2E0CF0ED11CF801828163
:101E90000E94DD2D0AC0823051F46801F2E0CF0EBD
:101EA000D11CF80182810E94392D860186C08330C1
:101EB00049F46801F2E0CF0ED11CF80182810E9442
:101EC000D22CF3CF843019F00F5F1F4F76C0F8018A
:101ED00022810E5F1F4F80E090E030E020533109F7
:101EE0002A30310568F4389EA001399E500D112426
:101EF000C901840F951F0F5F1F4FF8012081EDCF9F
:101F0000009709F45AC0EFE9FFE03197F1F700C0FC
:101F100000000197F5CFE22FF0E0EF55FC4F549011
:101F2000822F86958695869590E0FC01EF56FC4FB2
:101F300064902770712C022E02C0759467940A94E5
:101F4000E2F7F1E06F227724FC01EF57FC4FA490F9
:101F5000B12C022E02C0B594A7940A94E2F731E0A6
:101F6000A322BB24FC01EF58FC4FC490D12C02C02B
:101F7000D594C7942A95E2F781E0C822DD24611444
:101F8000710419F081EE0E94392DA114B10419F0E9
:101F900086EE0E94392D852D0E94DD2DAB2819F08B
:101FA00086EE0E94D22C672819F081EE0E94D22C76
:101FB000CD2819F08CE20E94DD2D0F5F1F4F58CF06
:101FC00000313FE5130709F07DC581E00E946B2CCD
:101FD0000E94F71C80911002877009F47CC5F701FC
:101FE0008281882309F477C582E029960FB6F89498
:101FF000DEBF0FBECDBFDF91CF911F910F91FF903C
:10200000EF90DF90CF90BF90AF909F908F907F9098
:102010006F905F904F903F900C9499190031FFE5BD
:102020001F0711F481E005C001312FE5120721F4EB
:1020300082E00E94772CCCCF033FFCE51F0749F4D8
:1020400006E221EE40EE63EF7CE5C7010E944F2AD5
:10205000C1CF043F2CE5120708F049C1083D3CE51B
:10206000130731F407E225EE45EE68ED7CE5EDCF90
:10207000093D9CE5190731F408E221E045EE69EDE0
:102080007CE5E3CF073DECE51E0731F406E221EEE7
:1020900041EE67ED7CE5D9CF882309F45DC110924C
:1020A0006C0202309CE5190708F440C10631ECE5EA
:1020B0001E0730F0C8018A5F9C45099708F036C1B9
:1020C0000E9477189093AB018093AA010031FCE540
:1020D0001F0709F4C3C008F041C008303CE51307EE
:1020E00009F49AC0F0F404309CE5190709F487C09C
:1020F00068F40230FCE51F0709F477C003301C4583
:1021000009F0E5C08091AA01826076C006303CE506
:10211000130709F46EC008F07BC08091AA018860A3
:102120006BC00C309CE5190709F485C068F40A30CF
:10213000FCE51F0709F474C008F079C00E94B22CB6
:102140008091AA01806858C00E303CE5130709F45D
:1021500076C008F07FC08091AA018BC00B3F9CE540
:10216000190709F44FC018F50331FCE51F0709F4FE
:102170007DC078F401313CE5130709F473C00231E6
:102180001C4509F0A4C00E94B22C8091AA018F774F
:1021900033C005319CE5190709F472C008F486C004
:1021A0000A3F1C4509F093C08091AB013EC00F3F30
:1021B0002CE5120709F45FC058F40D3F8CE51807B1
:1021C00009F444C008F43FC08091AB0182602DC087
:1021D0000130EDE51E0709F475C008F45DC002305A
:1021E0001D4509F074C060E06EC08091AA01816055
:1021F00003C08091AA0180618093AA0168C0809188
:10220000AA0111C08091AB0182608093AB015FC0D5
:102210008091AA018062F0CF8091AA018064ECCF06
:102220008091AA0188608460E7CF8160EECF8091C1
:10223000AA018E7FE1CF8091AA018D7FDDCF8091B1
:10224000AA01877FD9CF8091AB0118C08091AB01E3
:102250008D7FDBCF8091AA018F7ECECF8091AA01A6
:102260008F7DCACF8091AA018F7BC6CF8091AA01B2
:10227000877F8B7FC1CF8091AB018D7F8E7FC5CF54
:102280008091AA0182FB222720F991E0922790FBFE
:1022900082F990FB83F9B0CF8091AB01982F909594
:1022A00091708E7F892B90FB81F9AFCF0E94B22C69
:1022B0008091AA0187FB222720F991E0922790FBC9
:1022C00087F99ACF61E08EE090E00E940F2E609136
:1022D000AA011091AB0184E090E00E940F2E612FC3
:1022E00082E290E00E940F2E0E94B22C73CE053F36
:1022F000FCE51F0731F406E221EE42EE65EF7CE5D6
:10230000A4CE053F2CE5120730F407E225EE44EE9B
:1023100064EF7CE59ACE063F3CE5130709F0BCCE9E
:1023200007E225EE46EE66EF7CE58FCE8091130244
:1023300006319CE5190709F58A7A91E009F490E0E5
:102340009093CF01882311F065E301C069E280ED2D
:1023500091E00E94FD290EC006311C4509F078C1AC
:102360008091CF01882309F4B4C365E380ED91E047
:102370000E94F0290E9403192DCE82720C3C3CE58C
:10238000130709F4FCC008F045C0063CECE51E0745
:1023900009F4E1C0D8F4033C2CE5120709F4D1C0DC
:1023A00030F4023C8CE5180709F46CC008C1043C09
:1023B0009CE5190709F4CAC0053CECE51E0709F0C5
:1023C000FEC048E854E261E974E2DDC0093CFCE586
:1023D0001F0709F4CAC078F4073C3CE5130709F469
:1023E000BFC0083C9CE5190709F0E9C04CE754E27E
:1023F00060E774E2C8C00A3CECE51E0709F4BAC005
:102400000B3CFCE51F0709F0DAC043E952E264EA3D
:1024100072E2B9C0013D2CE5120709F4C0C0A0F476
:102420000E3C8CE5180709F4B4C008F4AFC00F3CAB
:10243000ECE51E0709F4B0C0003DFCE51F0709F0FC
:10244000BEC06EE089E0B3C0043D2CE5120709F47C
:10245000ACC068F4023D8CE5180709F4A3C0033D45
:102460009CE5190709F0ABC061E088E1A5C0053D16
:10247000ECE51E0709F49EC00D35FDE51F0709F4C4
:10248000A9CD9DC08091470280FF10C08091650258
:10249000809581701F928F9380E994E09F938F9332
:1024A0000E9433070F900F900F900F90809165025C
:1024B00080FF2EC08E7F80936502609165027091CF
:1024C000660280916702909168020E948122809149
:1024D000470280FF0FC08091650281701F928F9329
:1024E00081E294E09F938F930E9433070F900F90A7
:1024F0000F900F900E94B52B2FEF30E782E0215014
:1025000030408040E1F700C000000E94272262CDE9
:102510008160809365028091470280FF0DC01F9209
:1025200081E08F9389E594E09F938F930E94330716
:102530000F900F900F900F908091650261E086954B
:102540003BC047E055E260E175E21DC040E155E265
:1025500067E075E218C041E954E268E874E213C02C
:1025600040E754E26CE774E20EC048E554E264E6EA
:1025700074E209C044E654E268E574E204C044EA47
:1025800052E263E972E20E94AF2B24CD61E081E068
:1025900013C065E082E00BC068E086E008C064E13B
:1025A0008FE005C067E185E102C062E289E10E9437
:1025B0009D2B10CD61E083E20E949A240BCD0E3D4D
:1025C0009CE51907B9F140F40115FCE51F0789F0F6
:1025D00001301C45E1F03CC00B353DE51307A9F186
:1025E0000C358DE5180749F10A351D4589F581E05F
:1025F0002DC00E94B22CEFEFF4E32CE0E150F0404C
:102600002040E1F700C000000E945629E3CC8091F1
:102610004702982F9095917090FB80F98093470224
:10262000992319F089ED94E002C087EC94E00E94B0
:102630009A06D0CC0E949318CDCC8091AB0182FB3E
:10264000882780F991E0892701C080E00E946D19F8
:10265000F701828100811181882349F0C8010E941D
:10266000E12BD82E682FC8010E943C2C04C0C80161
:102670000E94102CD82EB8018D2D0E944A2B0E944A
:10268000DD16B82E192F982EF7010281A580A2948D
:102690009FE0A92280911002877099F0002389F0B1
:1026A000812F807F803421F080E28B0D883048F0CC
:1026B00082E00E949919809110028770DD24D394E2
:1026C0008111D12CC12EC2948FE0C8228C2D90E0B4
:1026D0008C30910508F0C2C1FC01E759FF4F0C9402
:1026E000992E812F807F1F70882311F01295107F03
:1026F0000023B9F0112309F49DC180E28B0D8830CD
:1027000010F0911006C080911302182B1093130241
:1027100005C080911202182B109312020E94031917
:1027200089C18B2D0E94D22C112309F497C180E21C
:102730008B0D1095883010F0911006C08091130217
:1027400018231093130205C08091120218231093CE
:1027500012020E94031982C1812F807F1F70803274
:1027600011F01295107F8B2D992021F0F1E09F162A
:1027700011F130C00023B1F0AA2081F021E0A212B3
:102780000DC08091AB0182FD69C180911402182BAC
:10279000181709F463C11093140260C180911402E8
:1027A000812B10C0AA2021F031E0A31609F456C1F4
:1027B0000E94FD1827C0002341F085E08A1508F427
:1027C0004DC1812F0E94C82C49C194E09A1508F48C
:1027D00045C118C0002349F0AA2099F3F70185816B
:1027E00080FF28C18F708583ECCFAA2059F08933F0
:1027F00009F031C1FFEF27EE33E0F15020403040C7
:10280000E1F727C1812F0E94BD2C28C1812F869519
:102810008695837019F0813061F020C1002321F08A
:102820008B2D912F937002C080E090E00E942D2AA2
:102830001BC1002321F08B2D912F937002C080E0EB
:1028400090E00E94172A10C18B2D002319F00E94DE
:102850007F2602C00E94C6250E941A2505C1812F2D
:102860008370A9F50111FEC04B2D42954695477026
:10287000440F440F8B2D8F7090E09C01042E01C0FB
:10288000220F0A94EAF7B4FE08C08FE090E001C07E
:10289000880F4A95EAF7809501C080E01695169555
:1028A0001370123069F088F490911502113019F00C
:1028B000822B892302C0922B892B0E94822CD2C0AA
:1028C000822B909115028927F8CF822BF6CF002317
:1028D00019F0812F817001C08695882309F4C2C048
:1028E0004B2D429546954770440F440F8B2D8F70AA
:1028F00090E09C01042E01C0220F0A94EAF7B4FE76
:1029000008C08FE090E001C0880F4A95EAF78095F3
:1029100001C080E0169516951370123059F078F4C6
:1029200090913302113019F0822B892309C0922B28
:10293000892B06C0822B90913302892701C0822BFC
:102940000E94672C8FC01F70002339F0812F0E94D6
:10295000772C8B2D0E94C82C85C08B2D0E94BD2CFE
:10296000812F0E946B2C7EC08B2D92EF991659F10E
:10297000991538F0E0EF9E1659F0F1EF9F16F1F03F
:1029800055C023EF921631F134EF931681F14EC00A
:10299000002379F084E08A1508F460C01F7181E09B
:1029A00090E001C0880F1A95EAF7909133028927C9
:1029B0001BC095E09A1508F451C0F0CF002329F010
:1029C000812F8F7126C00023D9F3812F8F710E9430
:1029D0006B2C44C0002339F01F7181E001C0880FC7
:1029E0001A95EAF701C080E00E94672C37C00023E7
:1029F00099F01F71812F0E94772C8091AB0182FD8D
:102A000007C0E8E01E9FC00111248360809310027C
:102A1000812F0E94772C22C081E00E949919F1E059
:102A2000FA15E0F482E00E94991918C0002331F0F1
:102A3000AA2031F28B2D0E94392D10C0AA2029F234
:102A4000893349F42FEF37EE83E021503040804046
:102A5000E1F700C000008B2D0E94D22C88EF8C0D76
:102A6000843010F40E94432ADD20A9F180911002E5
:102A700080FD31C0F70112828595859585950E946C
:102A8000772CC7010E949E0E809110028595859536
:102A9000859529960FB6F894DEBF0FBECDBFDF91A6
:102AA000CF911F910F91FF90EF90DF90CF90BF904B
:102AB000AF909F908F907F906F905F904F903F90DE
:102AC0000C946B2C01319FE5190709F0B5CA82E01F
:102AD0007DCA69E24BCC29960FB6F894DEBF0FBED3
:102AE000CDBFDF91CF911F910F91FF90EF90DF90BD
:102AF000CF90BF90AF909F908F907F906F905F909E
:102B00004F903F9008958295982F937344E0949F3F
:102B1000900111248C7C86958695282B822F8575B3
:102B2000880F2A7A2695822B08959091AA0192FF08
:102B30000DC0282F2871283019F4877F846006C0C3
:102B4000282F2471243011F48B7F886093FF0DC0EF
:102B5000282F2871283119F4877E846106C0282F18
:102B60002471243111F48B7E88612091AB0120FF08
:102B70000DC0382F3871383019F4877F816006C056
:102B8000382F3171313011F48E7F886021FF0DC0F4
:102B9000282F2871283119F4877E816106C0282FDB
:102BA0002171213111F48E7E886194FD877E089514
:102BB000F894E82FE295EF70F0E031A1282F2F7004
:102BC00081E090E001C0880F2A95EAF7982F909550
:102BD000932391A392A1892B82A3789408956F9255
:102BE0007F928F929F92AF92BF92CF92DF92EF929D
:102BF000FF920F931F93CF93DF93CDB7DEB72A9742
:102C00000FB6F894DEBF0FBECDBFAE014F5F5F4F72
:102C10007A018AE0DA011D928A95E9F709E111E06B
:102C20006A018EE1682E81E0782E88248394912CAD
:102C3000F80180818F3F09F44DC0F894E82FE295A8
:102C4000EF70F0E021A18F70A40102C0440F551F66
:102C50008A95E2F7CA01922F982B91A392A18095B1
:102C6000892382A3789400C0EEE1F1E020E030E017
:102C7000A12CB12C81918F3FC1F0A82FA295AF70EC
:102C8000B0E090964C9150E08F70DA0102C0B5959B
:102C9000A7958A95E2F7A0FD08C0C401022E02C0E4
:102CA000880F991F0A94E2F702C080E090E0A82AFA
:102CB000B92A2F5F3F4F20313105E1F6F8018081BD
:102CC0008F3F11F00E94D815F0EAFA95F1F7D6017E
:102CD000AD92BC920F5F1F4FB2E0CB0ED11C6016BD
:102CE000710609F0A5CF4AE050E0B7018CEA91E007
:102CF0000E94E42E11E0009709F410E0892B89F07E
:102D00008AE0F701ACEAB1E001900D928A95E1F713
:102D100081E0809318020E94BB2990931702809350
:102D2000160280911802882391F1809116029091E9
:102D300017020E94A029059750F18091AC01909153
:102D4000AD019093C6018093C5018091AE01909131
:102D5000AF019093C8018093C7018091B001909119
:102D6000B1019093CA018093C9018091B201909101
:102D7000B3019093CC018093CB018091B4019091E9
:102D8000B5019093CE018093CD0110921802812F4E
:102D90002A960FB6F894DEBF0FBECDBFDF91CF915C
:102DA0001F910F91FF90EF90DF90CF90BF90AF9069
:102DB0009F908F907F906F900895CF93DF9382388C
:102DC000910569F1B0F48133910509F46FC048F4BD
:102DD0008932910509F465C08A32910509F46BC006
:102DE0008AC08533910509F457C089339105B9F03C
:102DF00082C0833E910571F138F4803E9105B1F0B7
:102E0000823E910511F177C0863E9105B9F1873E6A
:102E10009105C9F1843E910509F06DC024C020914F
:102E2000AA0120FD53C021FD51C065C08091AA01B7
:102E300080FD46C08091AB0180FF48C08091AA010F
:102E400084FD50C183EE90E04FC18091AA0182FFC2
:102E50003AC0F4CF8091AA0182FD35C08091AB01C8
:102E600080FD34C0EBCF8091AB0181FF35C08091F4
:102E7000AA0184FD37C187EE90E036C18091AA0196
:102E800083FF27C0F4CF8091AA0183FD22C08091E7
:102E9000AB0181FD21C0EBCF8091AA0185FD1FC050
:102EA00021C08091AA0185FD1DC019C08091AA0191
:102EB00086FD1BC01DC08091AA0186FD19C015C0EA
:102EC00089E390E011C182EE90E00EC180EE90E0C7
:102ED0000BC186EE90E008C184EE90E005C189E266
:102EE00090E002C185E390E0FFC08AE290E0FCC080
:102EF00081E390E0F9C0811531E5930708F069C0DE
:102F0000811540E59407F0F09C0174E03695279513
:102F10007A95E1F7922F9370482F437021E030E0CB
:102F200002C0220F331F4A95E2F73C68392B982FD5
:102F30009F709695969540E2949FC0011124822B34
:102F4000932BD2C0883E910568F5803E910508F02C
:102F5000CBC0883A9105B8F4853A910548F0855A76
:102F6000E82FF0E0E25CFE4F808190E09064BCC00E
:102F70008130910509F4B3C008F4B4C084309105E0
:102F800008F4B0C0B1C08F3B910508F0ABC0885ABF
:102F9000E82FF0E0EE0FFF1FEF5BFE4F8081918185
:102FA0009464A2C0811520E2920758F4811531E0A3
:102FB000930708F099C0803F910508F493C090658D
:102FC00093C0811540E4940708F48CC09F70906A08
:102FD0008BC0811525E5920708F042C0811534E5C4
:102FE000930728F0982F8827846F906A7DC08115F9
:102FF00043E59407B0F09C012370332741E050E093
:1030000002C0440F551F2A95E2F7282F26952695D2
:1030100080E2289F90011124CA01822B932B9A6889
:1030200063C0811522E5920728F4982F8827816FC5
:10303000906A5AC09C012370332741E050E002C0DF
:10304000440F551F2A95E2F7282F2695269580E2F2
:10305000289F90011124CA01822B932B9C6844C0A5
:10306000EC01811539E59307A8F48115984528F0FE
:103070009C2F8827806F906A37C0C11586E5D807D6
:1030800088F58C2F0E9495158F7190E0982F8827D6
:1030900090622AC081152AE5920790F48C2F8F70D8
:1030A0000E94951594E0D695C7959A95E1F7CF7053
:1030B000D0E0DC2FCC27D0699E01282BC90114C099
:1030C00090568115904270F48D2F8F710E94951546
:1030D000282F2F71CE0199279062922B05C081E095
:1030E00090E002C080E090E0DF91CF910895CF930F
:1030F00084E090E00E94FB2DC82F82E290E00E94C5
:10310000FB2D2C2F30E0A901582BCA01CF91089537
:1031100080E090E00E94092E893E9E4F11F40C94AD
:10312000842B80E0089569EE7EEF80E090E00E94BD
:103130002D2E60E082E090E00E940F2E60E083E0A0
:1031400090E00E940F2E1092150260E084E090E063
:103150000E940F2E60E082E290E00E940F2E60E05D
:1031600085E090E00E940F2E60E086E090E00E94F3
:103170000F2E6FEF87E090E00E940F2E40E050E0AE
:10318000BA0188E090E00E94212E60E08DE090E09E
:103190000E940F2E40E050E0BA0188E190E00E94CA
:1031A000212E60E087E190E00E940F2E40E050E089
:1031B000BA018CE190E00E94212E60E070E080E294
:1031C00090E00E942D2E40E050E0BA0188E190E0AE
:1031D0000E94212E80E00E94572B0E94752B40E018
:1031E00050E0BA018FE090E00E94212E40E050E0D4
:1031F000BA0183E190E00C94212E80911402811198
:10320000109214020895EF92FF920F931F93CF93A1
:103210009091130280911202892B20911102982F14
:10322000922B9093D00180911402882389F0892BEE
:103230008093D001E2EDF1E097E080E0915029F039
:1032400021912223D9F38F5FF9CF81110E94FD18BC
:10325000E0916F02F09170023097C9F10280F38122
:10326000E02D80ED91E009958091470282FF2FC00B
:1032700080FF04C087E095E00E949A0600ED11E00F
:10328000C8E081E0E82E85E0F82E8091470280FFBB
:103290000CC0F80180811F928F93FF92EF920E94E1
:1032A00033070F900F900F900F90C1500F5F1F4F7B
:1032B000C111EBCF8091470280FF09C08FEF94E0EE
:1032C000CF911F910F91FF90EF900C949A06CF91A0
:1032D0001F910F91FF90EF900895CF93DF93C091CE
:1032E000AB01C2FB992790F9981701F1D82F80FB09
:1032F000C2F9C093AB016091AA0184E090E00E9402
:103300000F2E6C2F82E290E00E940F2E80914702D8
:1033100080FF0CC01F92DF938AEE94E09F938F93FF
:103320000E9433070F900F900F900F90DF91CF9175
:103330000895209110028095822380931002982F87
:10334000977041F430E0482F082E000C550B2417DD
:10335000350721F49091AB0192FF07C085958595C3
:1033600085950E946B2C10921002089580910F0297
:103370009091DE01891719F08F5F8770FBCF089558
:103380000F931F93CF93DF938091DD0182958F7010
:1033900009F05DC08091DA01882309F458C080915A
:1033A0000F021091DE016091D8017091D901C09196
:1033B000DB01D091DC0191E06F3F09F090E0292F13
:1033C00006E0811709F443C0209721F07F3F21F0E8
:1033D00030E003C031E001C0322F90E030FD34C056
:1033E000089FF001099FF00D1124DF01A152BE4F8B
:1033F00011963C911197371327C03C91361324C086
:1034000012963C91129731111FC013964D915C9109
:1034100014974C1B5D0B483C5105B0F48091DD01C5
:103420008F7080618093DD01EC51FE4F80818F7041
:103430008061808388ED91E00E949E0EDF91CF91A4
:103440001F910F910C94B61901968770BACFDF9136
:10345000CF911F910F910895CF93DF93EC010E94BC
:10346000E12BBE010E944A2B0E94DD16DF91CF9115
:1034700008959F92AF92BF92CF92DF92EF92FF9208
:103480000F931F93CF93DF93CDB7DEB761970FB63E
:10349000F894DEBF0FBECDBF8C0185E0F801DE01E0
:1034A0001D9601900D928A95E1F7F801E2809091C6
:1034B000D8016091D9014091DB015091DC014115A7
:1034C000510531F06F3F31F481E09F3F19F403C0A3
:1034D00081E001C080E0F82FF1709F2E80FD1AC1BD
:1034E000F80130812181C380D48088EDA82E81E04D
:1034F000B82EF090DA01F601E41BF50BFF2009F479
:10350000C6C08091DD01E83CF10508F091C0482F6C
:10351000407F09F050C0621311C093130FC0FE2CFE
:10352000E1100CC08F7080618093DD01C5010E94A5
:103530009E0E8091DD01F801858329C1CD2831F0EF
:103540002F3F31F481E03F3F19F403C081E001C017
:1035500080E080FD03C081E08E2502C080E090E025
:10356000F82FF170FF2E80FF1CC080910F02409158
:10357000DE0156E0841709F4E8C090E0589FF0019E
:10358000599FF00D1124E152FE4F6181261306C0B0
:103590006081631303C06281E61203C001968770E5
:1035A000E9CFFE2CEE2009F4F2C08091DD018160AC
:1035B0008093DD0149C0621306C0931304C0E1107B
:1035C00002C0F80186C0C8010E94862C882351F1F0
:1035D000EE2041F12091DD01822F82958F7090E0E5
:1035E000029774F08091D8019091D90198878F83C8
:1035F0001986DB86CA862C87CE0107960E949E0E0E
:1036000086E0F801A8EDB1E001900D928A95E1F70E
:103610000E94C0190AC06217C9F0C8010E94862C16
:1036200081111EC0C8010E949E0EFF24F394AFC0FA
:10363000482F407F81F788ED91E00E949E0E86E042
:10364000F50111928A95E9F7F12CA1C09313E5CF0A
:10365000E110E3CFF8018583C8010E949E0E54C09B
:10366000EE2001F32091DD01822F82958F7090E092
:10367000029734F28091D8019091D9019A8389837D
:103680001B82DD82CC822E83CE010196B7CFE83C2F
:10369000F105D0F5FE2CEE2029F2621327C093131A
:1036A00025C02091DD0120FD18C0822F82958F70EA
:1036B000482F50E04115510581F0F80125834F3026
:1036C000510541F08F5F982F9295907F822F8F70D8
:1036D000892B8583C8010E949E0E86E0F801A8ED23
:1036E000B1E001900D928A95E1F751C0C8010E94A6
:1036F000862C811185CF8091DD0181608093DD0171
:10370000C8010E949E0E43C086E0F50111928A9581
:10371000E9F73DC0EE2009F485CFC8010E94862C50
:10372000F82E882309F47ECF86E0F801A8EDB1E0F9
:1037300001900D928A95E1F78091D8019091D9017D
:103740000E942C1A0E94C01922C03D872E878D85A9
:103750009E850E942C1A292F22952F70223028F442
:103760009F7039F0811105C00BC0243028F49F7080
:1037700049F4805E883020F0C8010E949E0E9F2C84
:10378000F92C05C0F8019581907F99F7F9CF8F2D1D
:1037900061960FB6F894DEBF0FBECDBFDF91CF911B
:1037A0001F910F91FF90EF90DF90CF90BF90AF905F
:1037B0009F90089580912B0287FF11C08091E800AF
:1037C00082FD05C0809129028111F8CF11C080913E
:1037D000E8008B770BC080912902882349F0809103
:1037E000E80080FFF8CF8091E8008E778093E800B2
:1037F0000895982F973068F59093E900981739F05D
:103800007091EC002091ED005091F00003C0242F46
:10381000762F50E021FD02C09F5FECCF3091EB008E
:103820003E7F3093EB003091ED003D7F3093ED0013
:103830003091EB0031603093EB007093EC002093FB
:10384000ED005093F0002091EE0027FDE5CF80E0E1
:1038500008958F708093E90081E0089520913102EE
:10386000309132022617370748F06115710539F497
:103870002091E8002E772093E80001C0B901FC01F7
:1038800020E06115710579F1809129028823F1F119
:103890008530F1F18091E80083FD3CC08091E80023
:1038A00082FD2EC08091E80080FFEBCF2091F300D5
:1038B0008091F20090E0922B6115710551F08830F3
:1038C000910538F421912093F1006150710901961E
:1038D000F3CF21E0089709F020E08091E8008E778F
:1038E0008093E800CECF2111CFCF0AC0809129026A
:1038F000882361F0853061F08091E80083FD0AC083
:103900008091E80082FFF2CF80E0089582E0089580
:1039100083E0089581E008959FB7F89410921A0209
:103920009FBF90912902943009F057C09091E9000F
:103930009F703091EC00232F217030FD20E8922BF6
:1039400025E02093E9002091EB0020FF43C0209167
:10395000EE0027FF3FC020911902222321F0209181
:10396000E80025FF37C01092190226E03091E800E8
:1039700035FD15C030912902343061F53091EB00EE
:1039800035FD28C0215021F481E08093190222C026
:10399000EFE9FFE03197F1F700C00000E7CF809337
:1039A000F1008091E80085FD0AC08091E80080FF69
:1039B000FCCF8091E8008E778093E80006C08FB737
:1039C000F89421E020931A028FBF9F709093E90032
:1039D00080E008959F709093E9008FEF0895BC01F7
:1039E00084E00C942C29BC0183E00C942C29809158
:1039F0003302982F9670963011F4886001C0877F4B
:103A00000C94672C1F93CF93DF93CDB7DEB7AA97A3
:103A10000FB6F894DEBF0FBECDBFEBE2F2E083E35A
:103A200092E02091F10021938E179F07D1F78091AA
:103A30002C02833009F462C030F4813071F082309E
:103A400009F49CC0B3C08A3009F488C08B3009F4F3
:103A50006DC0893009F0AAC020C080912B02813A44
:103A600009F0A4C08091E800877F8093E8008091EE
:103A70002F0290913002892B21F468E08FE192E0CF
:103A800003C060E080E090E070E00E942E1C809116
:103A9000E8008B778093E80089C080912B02813207
:103AA00009F084C080912F0290913002009719F0A4
:103AB000029709F07BC08091E800877F8093E8003F
:103AC0008091E80082FD05C0809129028111F8CF24
:103AD0006DC02091F3008091F20090E0922B02974C
:103AE00029F48091F1008B7F813021F48091F100E5
:103AF00080931E028091E8008B7754C080912B0246
:103B0000813A09F053C080912F0290913002892BA5
:103B100009F04CC08091E800877F8093E800809195
:103B2000E80080FFFCCF80910A0137C080912B0212
:103B30008132E1F580912F0290913002892BB1F50D
:103B40008091E800877F8093E8000E94DA1B8091D3
:103B50002D0280930A010E94B22C28C080912B0272
:103B6000813221F58091E800877F8093E8000E94F0
:103B7000DA1B80912E0280931D0218C080912B02C7
:103B8000813AA1F48091E800877F8093E8008091DA
:103B9000E80080FFFCCF80911D028093F1008091AE
:103BA000E8008E778093E8000E94DA1B8091E8009D
:103BB00083FFE3C180912B0290912C02492F50E0AA
:103BC0004A30510508F0D9C1FA01EB58FF4F0C9467
:103BD000992E803821F0823809F0CFC108C0809139
:103BE000270290912802992389F082600FC080916A
:103BF0002F028F70873008F0C0C18093E900809158
:103C0000EB0085FB882780F91092E9009091E8008D
:103C1000977F9093E8008093F1001092F10071C1BA
:103C2000282F2D7F09F0A9C1882319F0823061F077
:103C3000A4C180912D02813009F09FC1933009F019
:103C400080E0809328022EC080912D0281112AC02D
:103C500080912F028F702FEF280F263008F08DC132
:103C60008093E9002091EB0020FF1CC0933021F4E9
:103C70008091EB00806214C09091EB009061909372
:103C8000EB0021E030E0A90102C0440F551F8A95E6
:103C9000E2F74093EA001092EA008091EB0088601E
:103CA0008093EB001092E9008091E800877F809379
:103CB000E8000E94DA1B61C181115FC110912D02E1
:103CC0001F778091E3008078812B8093E3008091BF
:103CD000E800877F8093E8000E94DA1B8091E8006B
:103CE00080FFFCCF8091E30080688093E300111196
:103CF00002C082E001C083E0809329023EC1805867
:103D0000823008F03AC120912D0230912E022C3DD4
:103D100053E0350779F583E08A838AE289834FB7D8
:103D2000F894DE01139620E03EE051E2E32FF0E04C
:103D300050935700E49120FF03C0E295EF703F5F7E
:103D4000EF708E2F90E0EA3010F0C79601C0C09659
:103D50008D939D932F5F243149F74FBF8091E800E9
:103D6000877F8093E8006AE270E0CE0101960E94AE
:103D70002E1CB5C080912F0290913002432F552701
:103D800043305105A9F068F44130510509F404C1EC
:103D90004230510509F0F1C08BE790E0ECE2F6E02B
:103DA0004BC04132510529F14232510589F1E5C03C
:103DB000C901992781309105A1F058F0029709F0C7
:103DC000DCC0E9EBF6E0E4918E2F90E0E9EBF6E061
:103DD00030C0E7EDF6E0E4918E2F90E0E7EDF6E0FD
:103DE00028C0E7ECF6E0E4918E2F90E0E7ECF6E0F7
:103DF00020C08430910508F0C0C0880F991FFC01D5
:103E0000E558FE4F0190F081E02D89E090E014C06C
:103E10008430910508F0B1C0FC01EE0FFF1FED5892
:103E2000FE4F0190F081E02DDC01A159BE4F8C9135
:103E300090E0009709F4A1C02091E800277F20932B
:103E4000E80020913102309132028217930708F482
:103E50009C0140E02115310589F1809129028823D8
:103E600009F43DC08530D9F18091E80083FD37C069
:103E70008091E80082FD2FC08091E80080FFEACFAA
:103E80004091F3008091F20090E0942B21153105D0
:103E900059F08830910540F444914093F1003196F7
:103EA000215031090196F2CF41E0089709F040E036
:103EB0008091E8008E778093E800CCCF4111CDCF80
:103EC0000AC080912902882351F0853041F0809109
:103ED000E80083FD04C08091E80082FFF2CF80916A
:103EE000E8008B778093E80048C0803809F045C02F
:103EF0008091E800877F8093E80080912A02809378
:103F0000F1008091E8008E77D2CE811136C0809189
:103F10002D0290912E02992702977CF58091E8005E
:103F2000877F8093E80010912D0210932A020E944F
:103F3000DA1B111106C08091E30087FD02C081E009
:103F400001C084E08093290242E061EC81E00E949C
:103F5000F91B42E261EC84E00E94F91B42E261EC51
:103F600082E00E94F91B42E260EC83E00E94F91BB0
:103F700042E261EC85E00E94F91B8091E80083FF3A
:103F800010C08091E800877F8093E8008091EB006B
:103F900080628093EB0005C082E190E0E7EAF6E002
:103FA0004BCFAA960FB6F894DEBF0FBECDBFDF9100
:103FB000CF911F9108951F920F920FB60F92112467
:103FC0002F933F934F935F936F937F938F939F9321
:103FD000AF93BF93CF93DF93EF93FF93C091E9002B
:103FE000CF708091EC00D82FD17080FDD0E8109276
:103FF000E9008091F000877F8093F00078940E9420
:10400000021D1092E9008091F00088608093F0001A
:10401000CD2BCF70C093E900FF91EF91DF91CF914D
:10402000BF91AF919F918F917F916F915F914F91D0
:104030003F912F910F900FBE0F901F901895E8EDB4
:10404000F0E080818E7F80831092E2001092DA008F
:104050001092E100A0EEB0E08C9181608C938081A1
:104060008F77808319BCA7EDB0E08C918E7F8C9305
:1040700080818F7E808310921C020895CF92DF9200
:10408000EF92FF920F931F93CF93DF93C8EDD0E091
:1040900088818F7E8883E7EDF0E080818160808376
:1040A00084E082BF81E080931C0288818E7F8883B8
:1040B00002EE10E0F80110821092DA0081EEC82EB4
:1040C000D12CF601108288818F778883888180685F
:1040D000888388818F7D888319BC10922902109271
:1040E0002A02109228021092270290EEE92EF12C5B
:1040F000F70180818B7F808388818160888342E0A3
:1041000060E080E00E94F91BF60180818E7F808351
:10411000F801808181608083808188608083F701DD
:1041200080818E7F8083888180618883DF91CF91B9
:104130001F910F91FF90EF90DF90CF9008951F9205
:104140000F920FB60F9211242F933F934F935F93CB
:104150006F937F938F939F93AF93BF93EF93FF934F
:104160008091E10082FF49C08091E20082FF45C05A
:104170008091E1008B7F8093E10020911B022F5FF3
:10418000822F62E30E94432E992319F020931B0291
:1041900034C010921B0280911A02882371F1809121
:1041A0002902843041F58091E9008F702091EC0064
:1041B000922F917020FD90E8892B95E09093E90073
:1041C0009091EB0090FF14C09091EE0097FF10C00B
:1041D0009091E80095FF03C01092F100F9CF909103
:1041E000E80090FF05C09091E8009E779093E8006A
:1041F0008F708093E90010921A028091DA0080FF9C
:1042000032C08091D80080FF2EC08091DA008E7F6E
:104210008093DA008091D90080FF1CC080E189BDC5
:1042200082E189BD09B400FEFDCF81E080932902BF
:1042300088E196E00E949A0680911C02811113C0C9
:104240000E941F200E943E208091E20084608093A3
:10425000E20009C019BC109229028CE196E00E948C
:104260009A0610921C028091E10080FF1BC0809191
:10427000E20080FF17C08091E2008E7F8093E20011
:104280008091E20080618093E2008091D80080629A
:104290008093D80019BC85E08093290280E296E0E3
:1042A0000E949A068091E10084FF32C08091E20072
:1042B00084FF2EC080E189BD82E189BD09B400FE82
:1042C000FDCF8091D8008F7D8093D8008091E10050
:1042D0008F7E8093E1008091E2008F7E8093E200E8
:1042E0008091E20081608093E20080912A0288231D
:1042F00011F084E007C08091E30087FD02C081E0F7
:1043000001C083E08093290284E296E00E949A062D
:104310008091E10083FF2BC08091E20083FF27C0E2
:104320008091E100877F8093E10082E08093290201
:1043300010922A028091E1008E7F8093E1008091AB
:10434000E2008E7F8093E2008091E20080618093A2
:10435000E20042E060E080E00E94F91B8091F00002
:1043600088608093F00088E296E00E949A06FF91B0
:10437000EF91BF91AF919F918F917F916F915F91DD
:104380004F913F912F910F900FBE0F901F90189556
:104390002091E4003091E50095E64091EC00842FF7
:1043A000817040FF23C08091E80080FD1DC0809196
:1043B0002902882399F0853099F08091EB0085FDE2
:1043C00011C04091E4005091E5002417350729F30E
:1043D000915011F09A01E1CF84E0089582E00895B0
:1043E00083E0089581E0089580E008954091E80019
:1043F00042FFDDCF0895EF92FF920F931F93CF936B
:10440000DF937C018B010E94C821811119C0E70153
:1044100001151105A1F08091E80085FD0AC0809189
:10442000E8008E778093E8000E94C821882381F3FA
:1044300007C089918093F10001501109E9CF80E014
:10444000DF91CF911F910F91FF90EF900895809190
:10445000650280FF0AC06E9A8EB18F7B9EB1906418
:104460002FB7F894EDE4F2E00BC0EDE4F2E0118236
:1044700010821282339632E0E536F307C1F7EBCFB4
:1044800032E0E536F30789F0319148E09EB900004B
:1044900000C037FF8EB9330F000000C000C000C05D
:1044A0008EB900C04A9591F7EBCF2FBF8FE594E00E
:1044B0000197F1F700C0000008959091650290FF08
:1044C0000CC0EDE4F2E0818360834283339692E096
:1044D000E536F907C1F70C9427220895809165020B
:1044E000282F269530E02115310519F4817082605E
:1044F00005C02532310524F08170886480936502FF
:104500000895CF92DF92EF92FF926B017C010E949F
:104510006E22B701A60188E090E0FF90EF90DF9057
:10452000CF900C94212E80916902882319F081503C
:1045300080936902609165027091660280916702C2
:10454000909168020C94812280916902833018F462
:104550008F5F80936902609165027091660280911D
:104560006702909168020C948122E5E6F2E083E014
:10457000808311828FEF82838383148260817181B3
:10458000828193810C948122AF92BF92CF92DF926D
:10459000EF92FF920F931F93CF93DF93E82EF62EA7
:1045A000E901E42FF0E0611106C0EB5DF84FE49102
:1045B0004E2F2E2F71C0062F10E0EB5DF84F449167
:1045C000F42FC42ED12C26E0829FC00111242FEF9E
:1045D00030E0B9010E944F2E5BEA5603C001579F9D
:1045E000900D11248E0D911D8E0D911D582F550F7C
:1045F000580FD901A01BB10BAC9DC001AD9D900D12
:10460000BC9D900D1124E92FF59ED0011124AB2FF4
:10461000BB277901EA1AFB0AEC9CD001ED9CB00D96
:10462000FC9CB00D11245901A51AB108A09E70017F
:10463000A19EF00CB09EF00C1124EF2CFF242E193B
:104640003F092C9D80012D9D100D3C9D100D1124C6
:10465000212F6230710591F048F461157105E1F088
:1046600061307105B9F4242F4B2F16C064307105E9
:1046700069F040F06630710579F00CC0242F492FA5
:10468000E12F0AC0492FEF2F2B2F06C0292FE42F2F
:10469000412F02C0292FEB2F49832883EA83DF9122
:1046A000CF911F910F91FF90EF90DF90CF90BF902F
:1046B000AF900895CF93DF9300D01F92CDB7DEB7B0
:1046C0009091650290FF0AC09E012F5F3F4F0E94AC
:1046D000C4224B8169818A810E945D220F900F90D4
:1046E0000F90DF91CF9108953F924F925F926F921A
:1046F0007F928F929F92AF92BF92CF92DF92EF9272
:10470000FF920F931F93CF93DF9300D01F92CDB7EB
:10471000DEB7182F762E042F422E9091650290FF5F
:10472000B2C0E92FE695AE2FB0E0AD57BE4F8C91E9
:10473000809348029E7F923061F49E012F5F3F4F2D
:10474000812F0E94C4224B8169818A810E945D224F
:1047500060C0823019F4009168025BC0863019F4A1
:104760001091660256C08930D9F3893109F051C0E1
:10477000E9518E2F8170582E81E0652C6826E695D0
:10478000F0E0E551F74FC590D4903DE4A32E32E020
:10479000B32EE12CF12CDD2444EC842E48E0942E41
:1047A000EC9CC001ED9C900DFC9C900D112423E02D
:1047B000969587952A95E1F7312E511002C0380E53
:1047C00001C0381A8091470280FF11C0DF92CF925A
:1047D0001F926F921F923F92FF92EF929F928F9241
:1047E0000E9433070FB6F894DEBF0FBECDBF950110
:1047F000402F672D832D0E94C4229FEFE91AF90AEA
:1048000083E0A80EB11C98E0E916F10449F60E9475
:104810002722109366027092670200936802442078
:10482000E9F0609165027091660280916702909153
:1048300068020E9481228091470280FF24C08091FB
:1048400068021F928F93809167021F928F938091CD
:1048500066021F928F938FE998E00CC08091470207
:1048600080FF11C01F920F931F927F921F921F9380
:1048700088E798E09F938F930E9433070FB6F894D0
:10488000DEBF0FBECDBF0F900F900F90DF91CF9185
:104890001F910F91FF90EF90DF90CF90BF90AF905E
:1048A0009F908F907F906F905F904F903F90089572
:1048B000E5E6F2E0438121E1421B08F440E021E01B
:1048C000628181810C947423E5E6F2E0438121E169
:1048D000420F08F44FEF21E0628181810C94742330
:1048E000E5E6F2E0628121E1621B08F460E021E08C
:1048F000438181810C947423E5E6F2E0628121E139
:10490000620F08F46FEF21E0438181810C947423DE
:10491000E5E6F2E0818121E04381628188500C94D8
:104920007423E5E6F2E0818121E043816281885FC2
:104930000C9474239091650290FF68C0917081116E
:1049400002C0926006C0853210F0986402C0880FE1
:10495000982B909365026623B1F060916502709187
:10496000660280916702909168020E948122809184
:10497000470280FF1BC08091650286951F928F932E
:104980008CE598E00BC08091470280FF0FC08091BA
:10499000650286951F928F938EE398E09F938F9385
:1049A0000E9433070F900F900F900F906091650257
:1049B000669570E04BE050E08BE091E00E94D72ECE
:1049C000892B19F00E94B52B15C081E08093490214
:1049D0000E94BB299093420280934102809147023A
:1049E00080FF08C085E298E09F938F930E94330771
:1049F0000F900F9081E08093440220E04091680284
:104A000060916702809166020C94742308958091EE
:104A100065028695815009F484E261E00C949A2441
:104A20008091650286958F5F853208F081E061E0B4
:104A30000C949A248091470283FF7EC082E097E025
:104A40000E949A0680913C021F928F938DEF96E010
:104A50009F938F930E9433078BEF96E00E949A06F4
:104A600080913D02282F082E000C330B3F938F932B
:104A700088EF96E09F938F930E94330786EF96E02E
:104A80000E949A0680913E02282F082E000C330BBC
:104A90003F938F9383EF96E09F938F930E9433070A
:104AA00081EF96E00E949A0680913F02282F082EFF
:104AB000000C330B3F938F938EEE96E09F938F9372
:104AC0000E9433078CEE96E00E949A068091400285
:104AD000282F082E000C330B3F938F9389EE96E01E
:104AE0009F938F930E94330786EE96E00E949A066A
:104AF000809136021F928F9383EE96E09F938F935F
:104B00000E94330781EE96E00E949A06809135025A
:104B10001F928F938EED96E09F938F930E943307A1
:104B20008BED96E00E949A068DB79EB74C960FB615
:104B3000F8949EBF0FBE8DBF0E94BB2920913D02FD
:104B4000211104C020913E02222321F090933A02C9
:104B50008093390220913F02211104C0209140022C
:104B6000222321F09093380280933702E0916F0264
:104B7000F0917002309749F082E080933B0204800C
:104B8000F581E02D8BE392E009940895803F39F49C
:104B900090913E0297FF35C010923E0259C0813F6E
:104BA00029F490913E021916BCF32BC090913D025E
:104BB000823F29F497FF25C010923D0249C0833FF0
:104BC00019F41916CCF31DC090913F02893F29F4C6
:104BD0001916BCF410923F023BC08A3F19F497FFAC
:104BE00010C0F8CF8B3F39F49091400297FF09C075
:104BF000109240022DC08C3F21F490914002191672
:104C0000BCF39CE0980F953080F421E030E0A901DE
:104C100002C0440F551F9A95E2F7CA018095909102
:104C20003C02892380933C0213C08D3F21F4809184
:104C300035028E7F0BC08E3F21F4809135028D7F2F
:104C400005C08F3F29F4809135028B7F8093350218
:104C500080913D02811106C080913E02811102C007
:104C60001092360280913F02811106C0809140026D
:104C7000811102C01092340208958091350280FDA6
:104C800016C081FD16C082FD18C0809134028823B1
:104C900091F0883290F428E0829FC001112468E2EC
:104CA00070E00E94632E862F672B29F007C082E0F8
:104CB000089584E0089581E0089588E00895809142
:104CC000350280FD14C081FD14C082FD16C08091A4
:104CD0003602882381F0843180F422E3829FC00170
:104CE000112464E170E00E94632E862F08958CE009
:104CF000089589E1089585E0089582E30895803F4D
:104D000021F40E945F26819504C0813F29F40E940E
:104D10005F2680933E020895823F21F40E945F2621
:104D2000819504C0833F29F40E945F2680933D0251
:104D30000895893F19F40E943D2605C08A3F31F449
:104D40000E943D26819580933F0208958B3F21F478
:104D50000E943D26819504C08C3F29F40E943D2687
:104D60008093400208959CE0980F953078F421E0FC
:104D700030E0A90102C0440F551F9A95E2F7CA011D
:104D800090913C02892B80933C0208958D3F21F441
:104D90008091350281600BC08E3F21F480913502F5
:104DA000826005C08F3F29F4809135028460809332
:104DB0003502089580911E020895089524E02093FD
:104DC000E9002FEF3091E800215035FD06C035EDA8
:104DD0003A95F1F700002111F5CF2091E80025FF69
:104DE0000BC040E050E066E070E00E94FB21809143
:104DF000E8008E778093E8000895CF93DF9321E059
:104E00002093E9002FEF3091E800215035FD06C0D6
:104E100035ED3A95F1F700002111F5CF2091E8002A
:104E200025FF14C0EC0140E050E068E070E00E9413
:104E3000FB218091E8008E778093E80088E0FE01F6
:104E4000AFE1B2E001900D928A95E1F7DF91CF9149
:104E50000895EF92FF920F931F93CF93DF938C01EE
:104E6000CDE4D2E0E12CF12CF8018481F4E0EF16DE
:104E7000F1041CF4882339F002C0811104C09E01A2
:104E80004091680202C09E0140E0609167028091FB
:104E900066020E94C4228FEFE81AF80A239698E06F
:104EA000E916F10409F70E942722F801848190E0B5
:104EB0000196817099278483DF91CF911F910F9183
:104EC000FF90EF9008958F929F92AF92BF92CF92F2
:104ED000DF92EF92FF920F931F93CF93DF93EC013A
:104EE0004C81042F10E09801D8010E94AE2E9B0146
:104EF000AC010E94C42E6B017C01E0E2F0E0E01BFB
:104F0000F10BA5E5B0E09B01AC010E94C42E4B0162
:104F10005C019F01DF010E94A62E9B01AC010E9453
:104F2000CF2E9B01AC012C0D3D1D4E1D5F1DC501FB
:104F3000B4010E94772E822FF22E99E2921728F068
:104F400093E0299F900111240DC025E530E0281B36
:104F50003109C901880F991F280F391F37FF02C077
:104F60002F5F3F4F35952795122F10959DE4C92E41
:104F700092E0D92E00E085E5E82EEF1801FD02C091
:104F80008E2D01C08F2D9601412F609167020E94E6
:104F9000C4220F5F83E0C80ED11C083079F70E944D
:104FA00027228C81811102C091E003C0803219F464
:104FB0009FEF9093180190911801890F8C83DF91D6
:104FC000CF911F910F91FF90EF90DF90CF90BF9006
:104FD000AF909F908F9008950F931F93CF93DF937F
:104FE000CDE4D2E0FE01118210821282339682E07B
:104FF000E536F807C1F700E010E080914B02082E7B
:10500000000C990B0817190794F080911701082ECE
:10501000000C990B8017910754F09E014091680293
:1050200060916702809166020E94C42203C01982C7
:1050300018821A820F5F1F4F239608301105E9F678
:105040000E9427228091160190914B02980F909315
:105050004B0220911701280F20931701121614F408
:1050600097301CF0819580931601DF91CF911F91AD
:105070000F910895CF92DF92EF92FF920F931F93BB
:10508000CF93DF93FC01828180FF03C0DD24DA949B
:1050900002C0DD24D394CDE4D2E000E010E0198218
:1050A00018821A8294E0E92EF12CC12C80914A02D8
:1050B0008C0D893014F0877002C087FD885F082E40
:1050C000000C990B0817190791F4809168028E9DC6
:1050D000A0018F9D500D11245595479555954795E5
:1050E0009E0160916702809166020E94C422CD0CED
:1050F000F1E0EF1AF108D1F60F5F1F4F2396083049
:10510000110569F60E94272280914A0291E0D91286
:1051100006C0811102C087E006C0815004C090E043
:1051200001968770992780934A02DF91CF911F9152
:105130000F91FF90EF90DF90CF900895EF92FF9244
:105140001F93CF93DF93EC018DE4E82E82E0F82EDD
:1051500010E08C8197014091680260916702810F95
:105160000E94C422115E83E0E80EF11C183F89F70B
:105170000E9427229A818C8190FF02C08F5F01C01C
:1051800081508C83DF91CF911F91FF90EF90089514
:105190000F931F93CF93DF9300D01F92CDB7DEB74D
:1051A0008C0180914C0281110AC09E012F5F3F4FFC
:1051B0004FEF6FEF0E94C4228A8180934C02F80166
:1051C0008481813051F028F0823061F440914C02AA
:1051D0000AC080914C0240E007C060914C0240E060
:1051E00080E003C040E080E060E00E945D22F801C2
:1051F000848190E0019663E070E00E94632E8483D6
:105200000F900F900F90DF91CF911F910F91089504
:10521000CF93DF93EC01E5E6F2E0438162818C817C
:105220000E945A238C818F5F8C83DF91CF910895E8
:10523000CF93DF93EC01EC81F0E0E75FF64F449110
:10524000E5E6F2E0628181810E945A238C818F5FC2
:105250008C83DF91CF91089590912902943029F5A4
:105260008093780270937A02609379029093E900B8
:105270008FEF9091E800815095FD06C095ED9A95CD
:10528000F1F700008111F5CF8091E80085FF0DC096
:1052900040E050E063E070E088E792E00E94FB218C
:1052A0008091E8008E778093E800089581E08093F4
:1052B000E00080E28093D8001092C9008FE19EE464
:1052C0000197F1F700C0000087E090EBDC018093CC
:1052D000990290939A02A0939B02B0939C029CE047
:1052E00088E10FB6F894A895809360000FBE909364
:1052F0006000FFCF78941F920F920FB60F92112487
:105300008F939F93AF93BF93809174029091750296
:10531000A0917602B09177020196A11DB11D8093F4
:10532000740290937502A0937602B0937702BF91B6
:10533000AF919F918F910F900FBE0F901F90189576
:105340009C014FB7F8948091740290917502A091DE
:105350007602B09177024FBF821B930B08952FB74F
:10536000F894609174027091750280917602909128
:1053700077022FBF08952FB7F8948091740290910F
:105380007502A0917602B09177022FBF08951F9207
:105390000F920FB60F9211248F939F93AF93BF93E9
:1053A00080917302811113C08091740290917502F3
:1053B000A0917602B09177024196A11DB11D809314
:1053C000740290937502A0937602B0937702BF9116
:1053D000AF919F918F910F900FBE0F901F901895D6
:1053E0009C012A5F3F4FFC014281461301C012829B
:1053F000019682179307B9F708959C01FC01329634
:105400009FEF80E04191461789F09F3F19F44111C9
:1054100001C0982F8F5F8630A9F79F3F39F0F901BF
:10542000E90FF11D97FDFA95628308950895209183
:105430007102309172022817390771F0909372024D
:1054400080937102E0916F02F0917002309721F029
:105450000084F185E02D0994089520916D0230912A
:105460006E022817390771F090936E0280936D02D7
:10547000E0916F02F0917002309721F00680F78181
:10548000E02D09940895E0916F02F0917002309739
:1054900021F00190F081E02D099480E008950F93B0
:1054A0001F93CF93DF93C42FD22FFC0182818823D7
:1054B000C9F040936C020E94BB2990936B028093C9
:1054C0006A0280E28C0F883008F057C0C77081E014
:1054D00001C0880FCA95EAF7DF91CF911F910F9114
:1054E0000C94C82C80916C02481330C080916A02E1
:1054F00090916B020E94A029883C910538F510E23A
:105500001D0FCD17B9F080E28C0F883040F4C770C2
:1055100081E001C0880FCA95EAF70E94BD2C1830BF
:1055200028F581E09D2F977001C0880F9A95EAF7C2
:105530000E94C82C802F0E94DD2D1830F0F4D77007
:1055400081E001C0880FDA95EAF70AC080E28C0F8B
:10555000883098F4C77081E001C0880FCA95EAF7D7
:10556000DF91CF911F910F910C94BD2C802FDF9173
:10557000CF911F910F910C94DD2DDF91CF911F9151
:105580000F910895CF93DF93C7EAD2E060E0CE0198
:105590000E940F2E2196C11584E0D807B9F7DF913C
:1055A000CF9108956F927F928F929F92AF92BF9208
:1055B000CF92DF92EF92FF920F931F93CF93DF93DF
:1055C000C0E0D0E000E010E03E0187E2680E711C10
:1055D0006301C00ED11EE12CF12C4E01800E911EF4
:1055E000F401EE0DFF1DE75FF54FA590B4906B2D14
:1055F000C6010E940F2E6A2DC60101960E940F2E31
:1056000082E0E80EF11C82E0C80ED11C80E2E816B0
:10561000F10431F7005E1F4F003A1105C9F6C0567C
:10562000DF4FC03882E0D80769F6DF91CF911F9134
:105630000F91FF90EF90DF90CF90BF90AF909F9031
:105640008F907F906F9008950F931F93CF93DF9368
:10565000C42FD0E0CC0FDD1F20E2629FC00DD11D12
:10566000112430EA839FC00DD11D1124CE018796ED
:105670000E94FB2D082F10E0102F0027CE018896E6
:105680000E94FB2D9801282BC901DF91CF911F911A
:105690000F910895462F843038F4753028F4603126
:1056A00018F4672F0C94242B80E090E00895CF939A
:1056B000C82F811102C06FEF01C061E283E290E068
:1056C0000E940F2EC11102C06FEF01C060E184E2A1
:1056D00090E00E940F2EC11102C06FEF01C060E187
:1056E00085E290E0CF910C940F2E80E00E94572B22
:1056F00060E086E290E00E940F2E0E94D22A0E9473
:10570000C22A81E00C94572B83E290E00E94FB2D8B
:10571000813281F484E290E00E94FB2D803151F4CB
:1057200085E290E00E94FB2D91E0803109F090E04D
:10573000892F01C080E0817008959091650290FFEB
:1057400004C09695981740F003C0811105C090E001
:10575000961710F40C94102561E00C949A24882379
:1057600011F0FA0101C0FB010994109249028091E5
:10577000470280FF08C080EF98E09F938F930E94BC
:1057800033070F900F90089580E090E00E942D2A3B
:1057900080E090E00E94172A1092120210921102EB
:1057A0000E940319EBE3F2E086E0DF011D928A9587
:1057B000E9F71092360210923402109235020C94DE
:1057C0001A25CF92DF92FF920F931F93CF93DF930F
:1057D0006C010091330280911502082BC7E0D0E0E4
:1057E00010E0C8010C2E02C0959587950A94E2F747
:1057F00080FD04C02197A8F7F12C09C0FC2EB6014A
:105800008C2F0E944A2B0E94DD16019799F38F2D51
:10581000DF91CF911F910F91FF90DF90CF9008956E
:1058200020E1929F800D1124682F669566956695FC
:10583000982F977083E0689FB001112440E050E0FA
:1058400080E0FB01E40FF51FE558FD4F208130E0BB
:10585000092E02C0369527950A94E2F72170332766
:10586000042E01C0220F0A94EAF7822B4F5F5F4F8C
:105870004330510531F7089520E1929F800D1124A6
:10588000E82FE695E695E695877051E001C0550F43
:105890008A95EAF783E0E89FF0011124E558FD4F6F
:1058A00020E030E070E04081CB01022E02C09695EE
:1058B00087950A94E2F78170819584278523842750
:1058C00081932F5F3F4F2330310569F7089580930F
:1058D00033020C94C42B21E030E001C0220F8A95E2
:1058E000EAF720958091330282230C94672C21E003
:1058F00030E001C0220F8A95EAF780913302822BB3
:105900000C94672C809315020C94C42BFC018081AD
:1059100091810E942C1A292F2F70E92FE295EF70A8
:105920004E2F50E0FA013297EE30F105B8F4E1580D
:10593000FF4F0C94992E803F99F018F4883E70F434
:105940000FC0843F59F40CC0883E50F0813F31F4C1
:1059500007C0822F869586958695089580E00895E4
:1059600081E008951092130286E0E2EDF1E0DF019C
:105970001D928A95E9F70C94C42B882341F08095F9
:10598000909113028923809313020C9403190895B4
:10599000882339F090911302892B809313020C9481
:1059A00003190895882309F463C0823869F40E94BA
:1059B000432A81FF5DC069E380ED91E00E94FD29EB
:1059C0000E94031969E30EC0833891F40E94432AB0
:1059D00080FF4EC063E580ED91E00E94FD290E94AA
:1059E000031963E580ED91E00E94F0290C940319FE
:1059F000843869F40E94432A82FF3AC067E480ED4C
:105A000091E00E94FD290E94031967E4EBCF9CEF0F
:105A1000980F913A10F4682FE5CF90E2980F9830E4
:105A200088F4877021E030E0A90102C0440F551FBF
:105A30008A95E2F7CA018095909113028923809399
:105A40001302D4CF9BE5980F933020F480E090E0D0
:105A50000C942D2A98E5980F973120F480E090E07F
:105A60000C94172A803F20F00E94C6250C941A251A
:105A70000895CF93882309F49EC0C82F8238B1F4CB
:105A80000E94432A81FD97C069E380ED91E00E9466
:105A9000FD290E9403192FEF81EE94E021508040F0
:105AA0009040E1F700C0000069E317C08338E1F4DB
:105AB0000E94432A80FD7FC063E580ED91E00E9453
:105AC000FD290E9403192FEF81EE94E021508040C0
:105AD0009040E1F700C0000063E580ED91E00E9496
