:100000000C949A040C94E1040C94E1040C94E10423
:100010000C94E1040C94E1040C94E1040C94E104CC
:100020000C94E1040C94E1040C94122E0C94E42E34
:100030000C9485280C94E1040C94E1040C94E104E4
:100040000C94E1040C94E1040C94E1040C94E1049C
:100050000C94E1040C94DE280C94E1040C94E1046B
:100060000C94E1040C94E1040C94E1040C94E1047C
:100070000C94E1040C94E1040C94E1040C94E1046C
:100080000C94E1040C94E1040C94E1040C94E1045C
:100090000C94E1040C94E10497089708C908C90876
:1000A00016093409170A170A3F09A709B809B80938
:1000B000B70AB70AC90AC90AC00AC90AC90AC90AD5
:1000C000B70AB70AC50AC90AC90AC50A2216181604
:1000D0002516751679167916751679167916461637
:1000E000791650165A1679167916791679167516E4
:1000F00079167916751679163316791679166A16E1
:100100006A166A166A166A166A166A166A166A16EF
:100110007716791622161516791679167916791624
:100120007916791679167916791679167716791659
:1001300079167516791668166816681668166816A0
:1001400068166816681668167716BD22C022E12266
:10015000F222FA22052308230B230E2354235423CF
:100160001123142319232623332336233A23472329
:10017000512F782F7030782F7030C42FE72F7030C8
:100180003E304D30290000003A003B003C003D006D
:100190003E003F0040004100420043004400450053
:1001A00046004700480035001E001F0020002100C7
:1001B0002200230024002500260027002D002E0009
:1001C0002A0049004A004B002B0014001A000800C6
:1001D000150017001C0018000C00120013002F005F
:1001E000300031004C004D004E0039000400160074
:1001F000070009000A000B000D000E000F0033007D
:10020000340000002800000000000000E1001D0094
:100210001B00060019000500110010003600370011
:1002200038000000E5000000000052000000E0007F
:10023000E300E200000000002C00000000000000CD
:10024000E600E70076000000E400500051004F0097
:100250000100000001000100010001000100010097
:100260000100010001000100010001000100010086
:100270000100010001000100010001000100010076
:100280000100010001000100010001000100010066
:100290000100010001000100010001000100010056
:1002A0000100010001000100010001000100010046
:1002B0000100010001000100010001000100010036
:1002C0000100010001000100010001000100000027
:1002D0000100000000000000010001000100010019
:1002E0000100010001000100010001000100000007
:1002F00001000000000001000000010001000100F9
:1003000000000000010000000000000001000100EA
:1003100001000000010001000100010001000000D7
:1003200001000100010001000100010001000100C5
:1003300001000100010001000100010001000100B5
:1003400001000100010001000100010001000100A5
:100350000100010001000100010001000100010095
:100360000100010001000100010001000100010085
:100370000100010001000100010001000100010075
:100380000100010001000100010001000100010065
:100390000100010001000100010000000100000057
:1003A0000000000001000100010001000100010047
:1003B0000100010001000100010000000100000037
:1003C0000000010000000100010001000000000029
:1003D0000100000000000000010001000100000019
:1003E0000100010001000100010000000100010006
:1003F00001000100010001000100010001000100F5
:1004000001000100010001000100010001000100E4
:1004100001000100010001000100010001000100D4
:1004200001000100010001000100010001000100C4
:1004300001000100010001000100010001000100B4
:1004400001000100010001000100010001000100A4
:100450000100010001000100010001000100010094
:100460000100010001000000010000000000000088
:100470000100010001000100010001000100010074
:100480000100010001000000010000000000010067
:100490000000010001000100000000000100000058
:1004A0000000000001000100010000000100010047
:1004B0000100010000000000000000002A2B2800BD
:1004C0000000000000000000000000000000002903
:1004D000000000002C1E3420212224342627252E43
:1004E000362D3738271E1F2021222324252633337B
:1004F000362E37381F0405060708090A0B0C0D0EA7
:100500000F101112131415161718191A1B1C1D2F72
:100510003130232D350405060708090A0B0C0D0E92
:100520000F101112131415161718191A1B1C1D2F52
:100530003130354C000000000000000000000000D9
:1005400000000000000000000000000000000000AB
:1005500000000000000000007E0F00D4FFFFFFC776
:10056000000000781E0F0500047F3F1F64321464F2
:100570003214783C1E1E140A052223252628292A17
:100580002C2D2F3032333536383A3B3D3E404243F6
:100590004547494A4C4E5051535557595A5C5E6035
:1005A00062646668696B6D6F71737577797B7D7F47
:1005B00081838587898A8C8E90929496989A9C9E46
:1005C0009FA1A3A5A7A8AAACAEAFB1B3B4B6B8B962
:1005D000BBBCBEBFC1C2C3C5C6C7C9CACBCCCDCECA
:1005E000D0D1D2D2D3D4D5D6D7D7D8D9D9DADADBAD
:1005F000DBDBDCDCDCDCDCDDDDDDDDDCDCDCDCDC39
:10060000DBDBDBDADAD9D9D8D7D7D6D5D4D3D2D277
:10061000D1D0CECDCCCBCAC9C7C6C5C3C2C1BFBE5F
:10062000BCBBB9B8B6B4B3B1AFAEACAAA8A7A5A3CA
:10063000A19F9E9C9A98969492908E8C8A89878589
:1006400083817F7D7B79777573716F6D6B69686668
:100650006462605E5C5A5957555351504E4C4A493A
:1006600047454342403E3D3B3A3836353332302FE2
:100670002D2C2A292826252322FFAA7F5540000158
:100680000101010101010101020202020202020252
:100690000203030303030303030404040404040424
:1006A00005050505050606060606070707070708E8
:1006B000080808090909090A0A0A0B0B0B0C0C0C9B
:1006C0000D0D0D0E0E0E0F0F0F1010111111121235
:1006D00013131414151516161717181819191A1AB2
:1006E0001B1B1C1D1D1E1E1F202021222223242413
:1006F000252626272829292A2B2C2D2D2E2F30314F
:100700003232333435363738393A3B3C3D3E3F4060
:100710004142434445464748494A4C4D4E4F50514B
:100720005354555658595A5B5D5E5F616264656605
:1007300068696B6C6D6F7072737577787A7B7D7E8C
:100740008082838587888A8C8E8F91939596989ADC
:100750009C9EA0A2A3A5A7A9ABADAFB1B3B5B7BAF4
:10076000BCBEC0C2C4C6C9CBCDCFD1D4D6D8DBDDC8
:10077000DFE2E4E7E9EBEEF0F3F5F8FAFDFF0A0358
:100780004B0046003800370000001E0346004A00B8
:100790004C00610062006F007200610074006F0025
:1007A0007200690065007300000004030904090277
:1007B0005B00030100A0FA0904000001030101002D
:1007C0000921110100012240000705810308000AE8
:1007D00009040100020300000009211101000122A7
:1007E0002200070582032000010705030320000102
:1007F0000904020001030000000921110100012287
:10080000B6000705840320000A1201000200000060
:1008100008747006000100010200010660FF096112
:10082000A1010962150026FF0095207508810209C3
:1008300063150026FF00952075089102C005010987
:1008400002A10185020901A1000509190129081564
:10085000002501950875018102050109300931154E
:1008600081257F95027508810609381581257F95B8
:100870000175088106050C0A38021581257F95014E
:1008800075088106C0C005010980A1018503190111
:100890002AB700150126B700950175108100C00523
:1008A0000C0901A101850419012AA002150126A045
:1008B00002950175108100C005010906A101850599
:1008C000050719E029E71500250195087501810242
:1008D0000507190029EF1500250195F07501810222
:1008E0000508190129059505750191029501750302
:1008F0009101C005010906A101050719E029E715C5
:100900000025019508750181029501750881010591
:1009100007190029FF150026FF00950675088100BC
:1009200005081901290595057501910295017503C1
:100930009101C00011241FBECFEFD0E1DEBFCDBFBB
:1009400004B603FE27C08091DB059091DC05A091E1
:10095000DD05B091DE058730904BA740B04BD1F458
:100960001092DB051092DC051092DD051092DE0579
:1009700014BE84B7877F84BF0FB6F894A895809182
:100980006000886180936000109260000FBEE0E01C
:10099000F8E7099511E0A0E0B1E0EAE4F4E602C06E
:1009A00005900D92A03EB107D9F725E0A0EEB1E089
:1009B00001C01D92AB3DB207E1F70E947C150C947B
:1009C00023320C94000081E0089581E008950C9496
:1009D000E50408950C94E9041F93CF93DF9300D0AE
:1009E00000D01F92CDB7DEB749835A836B83309115
:1009F000E20189819A81311114C0662359F02223C2
:100A000049F00E94AD0B182F682F89819A810E94AE
:100A1000560B03C00E94810B182F69817A81812FA8
:100A200004C00E94AD0B69817A810F900F900F90E6
:100A30000F900F90DF91CF911F910C942624FC0111
:100A4000262F408151816281738184810C94EC0452
:100A500081E00895CF93DF93EC0160E00E941F05D1
:100A6000BE01DF91CF910C94EA04E1E0F0E0DF01F8
:100A700002C0AA0FBB1F6A95E2F7BD01DF0102C0E9
:100A8000AA0FBB1F4A95E2F7AD01462B01C0EE0F3E
:100A90002A95EAF7942F9823491302C08E2B0895C4
:100AA000E0958E230895242F462F682F80910A0207
:100AB0000E9435050C94130B0E94DD130E94BD06A5
:100AC0000C9413140C940F1408950E94A50A0E940C
:100AD00064052FE78AE196E0215080409040E1F7DD
:100AE00000C000000C9404290F931F93CF93DF9351
:100AF0008C0161E00E941F05EC01B8010E941522E3
:100B0000882309F44BC0B801CE010E94E704882372
:100B100009F444C0B801CE010E945B258823F1F19D
:100B2000B801CE010E94AD258823C1F1B801CE01E4
:100B30000E94D826882391F1B801CE010E94C320DB
:100B4000882361F1F8018281882309F1CA358DE596
:100B5000D807C1F050F4C115FCE5DF0781F0CE3DA8
:100B6000DC45A9F40E94A81019C0CB35EDE5DE07DD
:100B700061F0CC35DD4559F40E943A0F08C00E945F
:100B800065050CC00E94430F02C00E94460FC801B9
:100B9000DF91CF911F910F910C94E30480E0DF91DE
:100BA000CF911F910F910895DF92EF92FF920F93D3
:100BB0001F93CF93DF93E82FF0E0EC54FB4FD490DA
:100BC000282F26952695269530E0F901EC5AFA4F04
:100BD0000491877010E0082E02C0159507950A94BD
:100BE000E2F701701127F901EC5BFA4FE490F12C68
:100BF000082E02C0F594E7940A94E2F791E0E92206
:100C0000FF24F901EC5CFA4FC491D0E002C0D59505
:100C1000C7958A95E2F7C170DD270115110519F016
:100C200081EE0E941B07E114F10419F086EE0E9488
:100C30001B078D2D0E944908EF2819F086EE0E94AF
:100C4000CA07012B19F081EE0E94CA07CD2B51F083
:100C50008CE2DF91CF911F910F91FF90EF90DF9089
:100C60000C944908DF91CF911F910F91FF90EF9065
:100C7000DF900895EF92FF920F931F93CF93DF932E
:100C8000EC01162F0AE08881882309F455C08130D1
:100C900009F043C08981813041F47E0182E0E80E91
:100CA000F11C8A810E94490809C0823049F47E0102
:100CB000E2E0EE0EF11C8A810E941B07E7012FC0C3
:100CC000833041F47E01F2E0EF0EF11C8A810E9434
:100CD000CA07F4CF843011F0219621C02A812296D0
:100CE00080E090E030E0205331092A30310558F49B
:100CF000089FA001099F500D1124C901840F951F61
:100D000021962881EFCF009751F0EFECF7E0319773
:100D1000F1F700C000000197F6CF0E94D40521969C
:100D2000812F882309F4AFCFEFECF7E03197F1F78B
:100D300000C000008150F5CFDF91CF911F910F913E
:100D4000FF90EF90089560E00C943A0608950C949B
:100D5000A60681E00895CF93C82F0E94A906882394
:100D600051F0C1FF02C0449A01C04498C2FF02C0C2
:100D7000469A01C04698CF9108953C9A44983E9A6D
:100D800046980895CF93C82F0E94A7068C2F0E94E3
:100D9000AB06CF910895CF93DF93CDB7DEB72B97F6
:100DA0000FB6F894DEBF0FBECDBF4F83588769875B
:100DB0007A878B8761110E94690F9E012F5F3F4FD9
:100DC00086E0F90111928A95E9F785E0FE013796F0
:100DD000D90101900D928A95E1F789819A814C8120
:100DE0005D81452B31F09F3F31F491E08F3F19F445
:100DF00003C091E001C090E090FF09C049815A8191
:100E00006B817C818D819E810E94690E05C0C90124
:100E10000E9428058111F2CF2B960FB6F894DEBF01
:100E20000FBECDBFDF91CF910895FC0180819181EC
:100E30000E94DA0B0895CF93882309F4A9C0C82F24
:100E40008238C1F40E940E2781FDA2C069E380911F
:100E50000401909105010E9404280E948E0F2FEF3B
:100E600080E792E0215080409040E1F700C0000010
:100E700069E319C0833801F50E940E2780FD88C000
:100E800063E580910401909105010E9404280E946D
:100E90008E0F2FEF80E792E0215080409040E1F7E5
:100EA00000C0000063E580910401909105010E945B
:100EB0000F28CF910C948E0F8438C1F40E940E2716
:100EC00082FD66C067E480910401909105010E9453
:100ED00004280E948E0F2FEF80E792E0215080407F
:100EE0009040E1F700C0000067E4DDCF8CEF8C0F8D
:100EF000813AF8F48C2F0E947F16811149C06C2F23
:100F000080910401909105010E948427882349F073
:100F10006C2F80910401909105010E940F280E947E
:100F20008E0F6C2F80910401909105010E9404287E
:100F3000C0CF80E28C0F883048F4C77081E001C0D8
:100F4000880FCA95EAF70E944C0FB3CFEBE5EC0F80
:100F5000E33040F4F0E0E65AFE4F808190E0CF911C
:100F60000C944227E8E5EC0FE73150F4F0E0EE0F87
:100F7000FF1FE45DFE4F80819181CF910C94582733
:100F8000C03F30F08C2F0E944A17CF910C941C1850
:100F9000CF910895882309F464C0823879F40E94BF
:100FA0000E2781FF5EC069E38091040190910501E5
:100FB0000E9404280E948E0F69E310C08338B1F4A8
:100FC0000E940E2780FF4DC063E58091040190913F
:100FD00005010E9404280E948E0F63E580910401A0
:100FE000909105010E940F280C948E0F843879F49B
:100FF0000E940E2782FF35C067E480910401909122
:1010000005010E9404280E948E0F67E4E7CF9CEF41
:10101000980F913A10F4682FE1CF90E2980F983032
:1010200050F4877091E001C0990F8A95EAF7892FF3
:101030000E94520FD9CF9BE5980F933020F480E0A7
:1010400090E00C94422798E5980F973120F480E0C7
:1010500090E00C945827803F20F00E94A5170C9434
:101060001C1808951F93CF93DF93182FEB010E9454
:101070001B07209741F08FEC97E00197F1F700C034
:1010800000002197F6CF812FDF91CF911F910C9413
:10109000CA07893319F060E070E002C060E570E0D3
:1010A0000C943208882321F00E944C0F0C948E0F70
:1010B0000895882321F00E94520F0C948E0F0895FA
:1010C000CF92DF92EF92FF920F931F93CF93DF9314
:1010D0007C01062FC72FFC01D281158112951F704C
:1010E0000E94210F882399F0DD2389F08C2F807FC7
:1010F000803421F080E2800F883048F082E00E9446
:10110000DE0F0E94210F91E0D82ED92601C0D12CEC
:10111000CC2EC2948FE0C8228C2D90E08C309105AB
:1011200008F085C1FC01E45BFF4F0C9408318C2F63
:10113000807FCF70882311F0C295C07FDD2399F0A6
:10114000CC2309F460C180E2800F883010F00111D7
:1011500004C08C2F0E944C0F03C08C2F0E945C0F88
:101160000E948E0F50C1802F0E94CA07CC2309F421
:101170005EC180E2800F883010F0011104C08C2F16
:101180000E94520F03C08C2F0E94620F0E948E0F8C
:101190004EC18C2F807FCF70803211F0C295C07FFE
:1011A000002319F00130C9F022C0DD2371F01123B2
:1011B00041F0113031F40E946F0F8C2B0E94770F99
:1011C00036C10E946F0F8C2B1DC0112319F01130F6
:1011D00009F42DC10E94840F25C0DD2321F01630B3
:1011E00008F025C10EC0153008F021C11BC0DD2359
:1011F00061F0112331F0F701858180FF04C18F7008
:1012000085838C2F0E94520812C1112359F0093393
:1012100009F00AC1FFEF23EF81E0F1502040804048
:10122000E1F700C18C2F0E94590801C18C2F8695CF
:101230008695837019F0813061F0F9C0DD2321F0CB
:10124000802F9C2F937002C080E090E00E94422784
:10125000F6C0DD2321F0802F9C2F937002C080E028
:1012600090E00E945827EBC0802FDD2319F00E94E8
:101270004A1702C00E94A5170E941C18E0C08C2FBC
:10128000837079F5D111D7C0402F429546954770AC
:10129000440F440F202F2F70042E01C0220F0A94F8
:1012A000EAF704FF08C08FE090E001C0880F4A957C
:1012B000EAF7809501C080E0C695C695C370822B81
:1012C000C23049F058F4C13019F00E94070BB3C086
:1012D0000E94020BB0C00E940C0BADC00E94000B1C
:1012E000AAC0DD2319F08C2F817001C08695882358
:1012F00009F4A1C0402F429546954770440F440F12
:10130000202F2F70042E01C0220F0A94EAF704FF49
:1013100008C08FE090E001C0880F4A95EAF78095F9
:1013200001C080E0C695C695C370822BC23049F0DB
:1013300058F4C13019F00E944B0B7DC00E94460B3F
:101340007AC00E94500B77C00E94130B74C0CF70FC
:10135000DD2339F08C2F0E94240B802F0E9452082D
:101360006AC0802F0E9459088C2F0E942F0B63C0E7
:10137000023F01F128F4003F41F0013FA1F03FC0DE
:10138000033FF9F0043F39F13AC0DD2341F0153055
:1013900008F04DC08C2F8F710E943B0B48C0163057
:1013A00008F045C0F7CFDD2339F08C2F8F710E94F4
:1013B000240B3DC0DD23C9F38C2F8F710E942F0BAE
:1013C00036C0DD2329F08C2F8F710E941C0B2FC09B
:1013D0000E94190B2CC0DD2349F0CF718C2F0E9485
:1013E000240B63E08C2F0E94C30F21C081E00E9478
:1013F000DE0F1230E0F082E00E94DE0F18C0DD2325
:1014000031F0112391F2802F0E941B0710C011238D
:1014100099F2093349F49FEFE3EFF1E09150E04096
:10142000F040E1F700C00000802F0E94CA0788EF5B
:101430008C0D843020F40E940E270E94C206DD200D
:10144000C9F00E941D0F80FD15C0F70112820E9495
:10145000170F0E94240BC7010E945B0A0E94170FFE
:10146000DF91CF911F910F91FF90EF90DF90CF9080
:101470000C942F0BDF91CF911F910F91FF90EF9064
:10148000DF90CF9008950F931F93CF93DF93EC01DC
:10149000688179818A810E94E50B8C010E94550B3D
:1014A0000E94F40AB801CE010E946008DF91CF913A
:1014B0001F910F910895CF93DF93EC01988189815B
:1014C0002B813C81232B31F08F3F31F481E09F3F12
:1014D00019F403C081E001C080E080FD19C0CE0195
:1014E0000E94740581110CC00E94210F882381F095
:1014F0008A81882369F082E0DF91CF910C94DE0F1E
:10150000CE010E94430ACE01DF91CF910C942A05AF
:10151000DF91CF91089580E090E00E94422780E023
:1015200090E00E9458270E94690F0E946C0F0E9451
:101530008E0F0E944D190C941C18809104019091FB
:1015400005010E941A280C948B0A0E94590F0C94D2
:101550009D0AE92FE295EF704E2F50E0FA01329785
:10156000EE30F105B0F4E85AFF4F0C940831803F9B
:1015700091F018F4883E68F40EC0843F51F40BC01B
:10158000883E48F0813F29F406C093FB882780F904
:10159000089580E0089581E00895FC0180819181A3
:1015A0000E94DA0B0E94A90A0895CF93DF9300D01E
:1015B00000D01F92CDB7DEB70F900F900F900F9015
:1015C0000F90DF91CF910895CF93DF9300D000D09B
:1015D00000D0CDB7DEB726960FB6F894DEBF0FBEAB
:1015E000CDBFDF91CF910895089508950C94F50A29
:1015F0000C94F60A0E94F80A80930B020C948B0A52
:101600000C94FA0A90910B02892B0C94FA0A90918F
:101610000B0289230C94FA0A90910B0289270C94EF
:10162000FA0A0C94F50A0E94110B80930A020C949A
:101630008B0A80E00C94130B91E001C0990F8A95FE
:10164000EAF7892F0C94130B21E030E001C0220F40
:101650008A95EAF780910A02822B0C94130B21E001
:1016600030E001C0220F8A95EAF7209580910A02A6
:1016700082230C94130B21E030E001C0220F8A95E5
:10168000EAF780910A0282270C94130B90910A02C8
:10169000892B0C94130B90910A0289230C94130B41
:1016A00090910A0289270C94130B089521E1929FCF
:1016B000800D1124E82FE695E695E695877051E0B8
:1016C00001C0550F8A95EAF783E0E89FF0011124E5
:1016D000ED51FE4F20E030E070E04081CB01022E62
:1016E00002C0969587950A94E2F7817081958427C8
:1016F0008523842781932F5F3F4F2330310569F77E
:10170000089521E1929F800D1124682F66956695BA
:101710006695982F977083E0689FB001112440E090
:1017200050E080E0FB01E40FF51FED51FE4F2081FA
:1017300030E0092E02C0369527950A94E2F7217011
:101740003327042E01C0220F0A94EAF7822B4F5F41
:101750005F4F4330510531F70895CF92DF92FF92EA
:101760000F931F93CF93DF936C0100910A02809136
:101770000B02082BC7E0D0E010E0C8010C2E02C01D
:10178000959587950A94E2F780FD04C02197A8F704
:10179000F12C07C0FC2EB6018C2F0E94E712019796
:1017A000A9F38F2DDF91CF911F910F91FF90DF90C3
:1017B000CF900895CF93DF93EC010E94AD0BBE0153
:1017C0000E94E712DF91CF9108951F93CF93DF938B
:1017D000EB019091E201992321F0CB010E94DA0BF9
:1017E00013C0882349F0CB010E94AD0B182F682F3E
:1017F000CE010E94560B04C0CB010E94810B182F12
:10180000BE01812F0E94E712DF91CF911F910895B1
:101810001F93CF93DF93C0910C0216E080910D02CD
:10182000C81799F0D0E01C9FF0011D9FF00D112406
:10183000E25FFD4F40815181628173818481958196
:101840000E94E40A2196C770E9CFDF91CF911F91E2
:10185000089540913E0250913F0260914002709184
:10186000410280914202909143020C94E40A0F934A
:101870001F93CF93DF938091430282958F7009F07D
:101880005DC080914002882309F458C080910C0209
:1018900010910D0260913E0270913F02C091410291
:1018A000D091420291E06F3F09F090E0292F06E0CD
:1018B000811709F443C0209721F07F3F21F030E0E9
:1018C00003C031E001C0322F90E030FD34C0089FEA
:1018D000F001099FF00D1124DF01A25FBD4F1196A9
:1018E0003C911197371327C03C91361324C01296B0
:1018F0003C91129731111FC013964D915C91149732
:101900004C1B5D0B483C5105B0F4809143028F7035
:10191000806180934302ED5EFD4F80818F70806116
:1019200080838EE392E00E945B0ADF91CF911F914A
:101930000F910C94080C01968770BACFDF91CF916C
:101940001F910F9108959F92AF92BF92CF92DF9215
:10195000EF92FF920F931F93CF93DF93CDB7DEB734
:1019600061970FB6F894DEBF0FBECDBF8C0185E046
:10197000F801DE011D9601900D928A95E1F7F801BC
:10198000E28090913E0260913F02209141023091AD
:1019900042022115310531F06F3F31F481E09F3F64
:1019A00019F403C081E001C080E0F82FF1709F2E90
:1019B00080FD3FC1F80140815181A380B4808EE356
:1019C000C82E82E0D82EF0904002F501E21BF30B06
:1019D000FF2009F4D9C080914302E83CF10508F0EA
:1019E00095C0282F207F09F052C0561313C0491309
:1019F00011C0FE2CE1100EC08F70806180934302F5
:101A00000E94290CC6010E945B0A80914302F801E2
:101A100085834CC1AB2831F05F3F31F481E04F3F0B
:101A200019F403C081E001C080E080FD03C081E0C3
:101A30008E2502C080E090E0F82FF170FF2E80FF2D
:101A40001CC080910C0220910D0236E0821709F42F
:101A50000BC190E0389FF001399FF00D1124E25F37
:101A6000FD4F6181561306C06081461303C0628139
:101A7000E61203C001968770E9CFFE2CEE2009F430
:101A800015C18091430281608093430254C0561374
:101A900006C0491304C0E11002C0F80199C0C80192
:101AA0000E94CD0A882361F1EE2051F1209143027A
:101AB000822F82958F7090E0029774F080913E02A1
:101AC00090913F0298878F831986BB86AA862C87C0
:101AD000CE0107960E945B0A86E0F801AEE3B2E011
:101AE00001900D928A95E1F70E94370C0E94290C13
:101AF0000AC0561711F1C8010E94CD0A81112CC0ED
:101B0000C8010E945B0AFF24F394D0C0282F207FD5
:101B100081F77A2DB98AA88A6E2D89890E94D50A03
:101B20008EE392E00E945B0A86E0F60111928A95AC
:101B3000E9F70E94290CF12CB9C04913DCCFE11060
:101B4000DACFF8018583C8010E945B0A86E0F601BE
:101B500011928A95E9F7AAC0EE2091F220914302F2
:101B6000822F82958F7090E002970CF4B5CF809110
:101B70003E0290913F029A8389831B82BD82AC8290
:101B80002E83CE010196A6CFE83CF10508F044C0B3
:101B9000FE2CEE2009F4B4CF561330C049132EC0EA
:101BA0002091430220FD21C0822F82958F70482F03
:101BB00050E041155105C9F0F80125834F3051051A
:101BC00041F08F5F982F9295907F822F8F70892B95
:101BD0008583C8010E945B0A86E0F801AEE3B2E0AB
:101BE00001900D928A95E1F73CC086E0F801AEE3E2
:101BF000B2E001900D928A95E1F758C0C8010E94A9
:101C0000CD0A811169CF80914302816080934302A4
:101C1000C8010E945B0A4AC07A2DB98AA88A6E2D33
:101C200089890E94D50A86E0F60111928A95E9F722
:101C300018C0EE2009F464CFC8010E94CD0AF82E26
:101C4000882309F45DCF86E0F801AEE3B2E00190AD
:101C50000D928A95E1F78EE392E00E9415070E94AB
:101C6000370C0E94290C22C04D875E878D859E858A
:101C70000E94DA0B292F22952F70223028F49F70B2
:101C800039F0811105C00BC0243028F49F7049F44D
:101C9000805E883020F0C8010E945B0A9F2CF92CDE
:101CA00005C0F8019581907F99F7F9CF8F2D619646
:101CB0000FB6F894DEBF0FBECDBFDF91CF911F915D
:101CC0000F91FF90EF90DF90CF90BF90AF909F90DB
:101CD00008951F93CF93DF93CDB7DEB72C970FB640
:101CE000F894DEBF0FBECDBF4F83588769877A87D0
:101CF0008B879C87CE0107960E94A30C8823D1F086
:101D00009F8188852A853B85232B31F08F3F31F4D5
:101D100081E09F3F19F403C081E001C080E080FDB5
:101D200047C04F81588569857A858B859C850E943F
:101D3000E40A3EC086E0FE013796DE01119601906E
:101D40000D928A95E1F7FF81E8856A857B856115AB
:101D5000710531F0EF3F31F481E0FF3F19F403C02A
:101D600081E001C080E080FD23C020910D0230E0C1
:101D7000C90101968770992740910C0250E08417A1
:101D80009507F1F1F983EA837D836C8396E0929F56
:101D9000D001939FB00D1124A25FBD4FFE0131967B
:101DA00001900D929A95E1F780930D020E94080C24
:101DB00016E080910C0290910D02891771F1189F25
:101DC000C0011124825F9D4F0E94A30C882329F13A
:101DD000E0910C021E9FF0011124E25FFD4F408153
:101DE000518162817381848195810E94E40A80918E
:101DF0000C0290E001968770992780930C02D9CF4E
:101E00000E94A50A10920D0210920C02EEE3F2E07D
:101E100086E0DF011D928A95E9F72C960FB6F894BB
:101E2000DEBF0FBECDBFDF91CF911F91089580918E
:101E30004402859585958595089580914402877023
:101E4000089590914402977081E009F480E008952C
:101E500090918F0492FB222720F9281751F080FBE4
:101E600092F990938F0480918E0490918F040C943A
:101E70002510089580918F0482FB882780F991E0D6
:101E800089270C94280F81E00C94280F80E00C9493
:101E9000280F80916802089590916802892B8093A1
:101EA0006802089580959091680289238093680262
:101EB000089510926802089590916702892B80938B
:101EC0006702089580959091670289238093670245
:101ED0000895109267020895109266020895809105
:101EE0004502089508950C94720F0C94730F90910D
:101EF0008F0492FD08C090914502981721F08093BD
:101F000045020C94750F089580914502882329F0AD
:101F10001092450280E00C94750F0895E091040141
:101F2000F0910501809168028083E0910401F091B5
:101F30000501908180916702892B8083E0910401E3
:101F4000F0910501908180916602892B80838091B8
:101F50004502882381F0E0910401F0910501908110
:101F6000892B808380910401909105010E946E2746
:101F700081110E94840F80910401909105010C94BD
:101F80001A270C94720F90918F0492FD10C098E064
:101F9000899F90011124262B209344020E94240B38
:101FA000809144028595859585950C94C10F0C947C
:101FB000240B1092440280E00C94C10F2091440243
:101FC0008095822380934402982F977041F430E0EB
:101FD000482F082E000C550B2417350721F490913B
:101FE0008F0492FF07C08595859585950E942F0BDC
:101FF0000C94D90F08956FEF7FEF80E090E00C9480
:10200000EE3180E090E00E94CA31893E9E4F11F48B
:102010000C94B82180E0089582E090E00C94BC31EB
:1020200083E090E00C94BC31CF9384E090E00E9478
:10203000BC31C82F82E290E00E94BC312C2F30E0EE
:10204000A901582BCA01CF910895CF93C92F682FAA
:1020500084E090E00E94D0316C2F82E290E0CF913A
:102060000C94D031AB01BC018FE090E00C94E231D4
:10207000AB01BC0183E190E00C94E23160E070E0E0
:10208000CB010C94381060E070E0CB010E9432105C
:102090000C943E1069EE7EEF80E090E00E94EE31FD
:1020A00060E082E090E00E94D03160E083E090E068
:1020B0000E94D03110920B0260E084E090E00E9418
:1020C000D03160E082E290E00E94D03160E085E0B3
:1020D00090E00E94D03160E086E090E00E94D03134
:1020E0006FEF87E090E00E94D03140E050E0BA010D
:1020F00088E090E00E94E23160E08DE090E00E9494
:10210000D03140E050E0BA0188E190E00E94E23135
:1021100060E087E190E00E94D03140E050E0BA01F9
:102120008CE190E00E94E23160E070E080E290E0BB
:102130000E94EE3140E050E0BA0188E190E00E9458
:10214000E23180E00E94D1210E94FD210C944310D5
:102150000C944A10682F8EE090E00C94D0310E94CD
:10216000C3286093860270938702809388029093BD
:102170008902609382027093830280938402909319
:102180008502089585B7806885BF85B7806885BF5B
:10219000089581E008950C94C91008950C94CD1011
:1021A0000C94CD100C94D0100C94CD100C94D41031
:1021B0000C94CD100E94C21083EC93E10E94282958
:1021C0000E94D8100C94D6100E94CE100C94CD1002
:1021D0000E94AE280E940C220E94DD140E94CA1F99
:1021E0000C94D2102F923F924F925F926F927F92F7
:1021F0008F929F92AF92BF92CF92DF92EF92FF9217
:102200000F931F93CF93DF93CDB7DEB72C970FB605
:10221000F894DEBF0FBECDBF0E94F41481110E945E
:10222000AF108AE692E09C878B8700E010E0302EAA
:10223000802F0E94F7132B013C01EB85FC858191D7
:102240009191A191B191FC87EB87530142018826BE
:102250009926AA26BB2681149104A104B104B1F4E5
:102260000F5F1F4F0630110511F78FEF89838A83A7
:102270001B820E94B7288160782F9D838C834981BF
:102280005A816B818D810E94CB064EC080918A025B
:1022900081FD0E940314212CC12CD12C7601C39402
:1022A000D501C4018C219D21AE21BF21892B8A2B10
:1022B0008B2B89F10E94CB108823C9F02E823F829C
:1022C0004C205D206E207F2081E04528462847284D
:1022D00009F480E088870E94B7288160782F9A8768
:1022E00089874E815F8168858A850E94CB06000FB1
:1022F000111F000F111FF801E659FD4F80819181D8
:10230000A281B381C826D926EA26FB26C082D182C3
:10231000E282F38209C02394CC0CDD1CEE1CFF1C6E
:10232000F1E12F12BDCF9CCF0E9405200E943A18E8
:102330000E940E27909169028917F1F00E940E27E2
:10234000809369022C960FB6F894DEBF0FBECDBF06
:10235000DF91CF911F910F91FF90EF90DF90CF9081
:10236000BF90AF909F908F907F906F905F904F90B5
:102370003F902F900C94C2062C960FB6F894DEBFB7
:102380000FBECDBFDF91CF911F910F91FF90EF90C6
:10239000DF90CF90BF90AF909F908F907F906F9085
:1023A0005F904F903F902F900895CF93DF930E94BE
:1023B000EC12EC01811521E5920708F045C081156A
:1023C00030E5930708F094C0883E910528F5803EDB
:1023D000910508F0F8C0883A910570F4853A9105A6
:1023E00008F07CC08130910509F475C008F4E8C09C
:1023F000049708F0E8C0E4C08F3B910508F0E0C006
:10240000C85AD0E0CC0FDD1FC35ADE4F0990D881E7
:10241000C02DCE019464D8C0811540E2940758F4D1
:10242000811551E0950708F0CEC0803F910508F472
:10243000C7C09065C9C0C11580E4D80708F4C0C002
:10244000DF70CE01906AC0C0811525E59207A8F41F
:10245000811534E5930708F095C0811543E594078D
:1024600008F07BC0811552E5950708F061C0D82FB0
:10247000CC27CE01816F906AA7C0C11589E5D80726
:10248000A0F4C11528E5D20708F082C0C11536E5D1
:10249000D30708F095C08C2F0E9480138F7190E0B5
:1024A000D82FCC27CE0190628FC0C1154AE5D40742
:1024B00008F474C0CE0190568115904208F080C097
:1024C0008D2F8F710E948013DD27D0628F71AE0136
:1024D000582BCA0179C081E090E076C0C55AD0E09F
:1024E000C557DE4F8881C82FD0E0CE0190646CC004
:1024F00074E0969587957A95E1F7282F23703C2F05
:10250000337081E090E002C0880F991F3A95E2F79E
:102510009C68AC01522B9A019C2F9F7096959695C2
:1025200050E2959FE0011124C9018C2B9D2B4CC0DA
:102530008370992721E030E002C0220F331F8A9573
:10254000E2F79C2F9695969580E2989FE0011124E2
:10255000C22BD32BCE019C6837C08370992721E012
:1025600030E002C0220F331F8A95E2F79C2F969528
:10257000969540E2949FE0011124C22BD32BCE010B
:102580009A6822C0D82FCC27CE01846F906A1CC0D5
:10259000DC2FCC27CE01806F906A16C08C2F8F70F5
:1025A0000E94801394E0D695C7959A95E1F7CF7075
:1025B000D0E0DC2FCC27D0699E01282BC90104C0B4
:1025C00080E090E001C0CE01DF91CF9108950E949C
:1025D00026240E94D51108958238910569F1B0F43E
:1025E0008133910509F46DC048F48932910509F4ED
:1025F00063C08A32910509F469C008958533910555
:1026000009F455C089339105B9F00895833E9105C9
:1026100069F138F4803E9105B1F0823E910509F1EF
:102620000895863E9105A9F1873E9105B9F1843E52
:10263000910509F064C023C020918E0420FD4FC095
:1026400021FD4DC0089580918E0480FD44C080918D
:102650008F0480FF44C080918E0484FD42C083EECD
:102660004DC080918E0482FF38C0F5CF80918E04DA
:1026700082FD33C080918F0480FD31C0ECCF80910A
:102680008F0481FF32C080918E0484FD2AC087EEC2
:1026900035C080918E0483FF26C0F5CF80918E04D3
:1026A00083FD21C080918F0481FD1FC0ECCF8091FC
:1026B0008E0485FD1CC01DC080918E0485FD19C04F
:1026C00016C080918E0486FD16C017C080918E04BE
:1026D00086FD13C010C089E311C082EE0FC080EEEA
:1026E0000DC080E00BC086EE09C084EE07C089E211
:1026F00005C085E303C08AE201C081E390E008954C
:1027000090918E0492FF0DC0282F2871283019F463
:10271000877F846006C0282F2471243011F48B7FBA
:10272000886093FF0DC0282F2871283119F4877E07
:10273000846106C0282F2471243111F48B7E8861B6
:1027400020918F0420FF0DC0382F3871383019F4D4
:10275000877F816006C0382F3171313011F48E7F50
:10276000886021FF0DC0282F2871283119F4877E39
:10277000816106C0282F2171213111F48E7E88617C
:1027800094FD877E089580E008950C94FB0F0E94CD
:10279000F4148FE19EE40197F1F700C000000E945D
:1027A000F41480E00E94F71360FF04C00E94C51378
:1027B0000C94042908950C94C7130E9401108111F0
:1027C00002C00E94A8100E940C1080938A020E94EE
:1027D000141090938F0480938E040E94DB130E9448
:1027E00010100E94000B80910A020C94110B24E03F
:1027F000829FC0011124FC01E855FB4F608171816B
:10280000828193810895089580E58A95F1F708956E
:1028100000C008950C94041408950C940C140C94A6
:102820000D140C940C140C941114F894E82FE295E8
:10283000EF70F0E031A1282F2F7081E090E001C00F
:10284000880F2A95EAF7982F9095932391A392A148
:10285000892B82A3789408950F931F93CF93DF93CE
:10286000CFE9D1E089918F3F11F00E94151481E0EA
:10287000C53AD807B9F7CEE8D1E00FE911E0899160
:102880008F3F11F00E9415140C171D07C1F7DF913F
:10289000CF911F910F9108954F925F926F927F9207
:1028A0008F929F92AF92BF92DF92EF92FF920F931F
:1028B0001F93CF93DF938C01C62FD0E0CE018156BA
:1028C0009E4F7C01DC019C919F3F09F466C0D62E8F
:1028D000F894E92FE295EF70F0E081A19F7021E07C
:1028E00030E001C0220F9A95EAF7822B81A382A1E2
:1028F0002095282322A378940E940814EEE8F1E0A2
:1029000020E030E0812C912C5401412C512C3201DB
:10291000439481918F3FD9F0A82FA295AF70B0E07A
:1029200090964C9150E08F70DA0102C0B595A79552
:102930008A95E2F7A0FD0BC0D301C201022E04C0AC
:10294000880F991FAA1FBB1F0A94D2F703C080E00B
:1029500090E0DC01882A992AAA2ABB2A2F5F3F4FE0
:1029600021313105B1F6F70180818F3F11F00E94CE
:10297000151461E081149104A104B10409F460E02C
:102980008D2D0E940A14CC0FDD1FCC0FDD1FC00F50
:10299000D11F88829982AA82BB82DF91CF911F9139
:1029A0000F91FF90EF90DF90BF90AF909F908F902E
:1029B0007F906F905F904F9008950E942C14E0E9F3
:1029C000F4E0A8EAB4E011921192119211921D92D2
:1029D0001D921D921D9284E0E83AF807A1F786E067
:1029E0000E943F150C945C05FF920F931F93CF93A9
:1029F000DF93CDB7DEB768970FB6F894DEBF0FBE92
:102A0000CDBF8E010F5F1F4F88E1F80111928A95AB
:102A1000E9F7F12C6F2DC8010E944C14F394F6E0F5
:102A2000FF12F8CF48E150E0B80180E994E00E943D
:102A3000AF31FF24F394009709F4F12C892B41F076
:102A400088E1F801A0E9B4E001900D928A95E1F7E0
:102A50002F2D46E068EA74E080E994E00E9440157A
:102A60000E9462058F2D68960FB6F894DEBF0FBEE8
:102A7000CDBFDF91CF911F910F91FF9008950895E1
:102A8000FF920F931F93CF93DF93F82ED92F8B01D3
:102A9000C42F222349F081E080938D020E94B72841
:102AA00090938C0280938B0280918D028823F1F0A9
:102AB00080918B0290918C020E94CF280597B0F0F4
:102AC000EF2DFD2FD80180E090E04C2F50E08417CF
:102AD000950754F401911191219131910D931D931A
:102AE0002D933D930196F3CF10928D02DF91CF91FC
:102AF0001F910F91FF9008950E942C280E94CF2AC9
:102B00000E94E82A0E94FA2A0E94E410FBCF893230
:102B100089F1F0F4843171F1B0F4873009F077C0B5
:102B20008EE180930D0182E380930C018AE0809313
:102B30000B0184E180930A0188E08093070188E219
:102B40008093060164C092EE980F9A30F0F05FC057
:102B5000803509F444C028F48F3409F058C08AE065
:102B60003FC0813529F0823509F051C081E038C07D
:102B70008FEF36C080919002882379F110929002F5
:102B800010928F0210928E0242C08D51809390025B
:102B9000833099F038F4813069F08230D9F48CE0D8
:102BA00091E00DC0853099F078F0863099F486E098
:102BB00091E005C08DE091E002C08BE091E0909340
:102BC0008F0280938E0223C08AE091E0F8CF87E0E5
:102BD00091E0F5CF109290021AC080E0089586EF40
:102BE000E0918E02F0918F02309789F02081082EBB
:102BF000000C990B820F911D8F3F910519F014F075
:102C00008FEF04C097FF02C0108201C0808381E073
:102C10000895482F50E0FA013597EF33F10508F099
:102C200068C0EA59FF4F0C9408310E94A8105DC09B
:102C300080918A02817F8E7F80938A0281E08093D7
:102C4000910208950E94650550C080918A02982FD4
:102C50009095917090FB80F980938A02911145C004
:102C6000897F877F10C080918A0281FB222720F90B
:102C700091E0922790FB81F980938A029923A9F130
:102C800080918A02816080938A022FC080918A029B
:102C900082FB222720F991E0922790FB82F9ECCF6A
:102CA00080918A0283FB222720F991E0922790FBF2
:102CB00083F9E2CF0E94A50A80918E0487FB222728
:102CC00020F991E0922790FB87F980938E040DC044
:102CD000895301C08D5191E001C0990F8A95EAF79F
:102CE000892F0E94000B0E94A50A81E0089581E0CF
:102CF000F8CF80E0089580E008950C947B16CF9380
:102D0000C82F80919102813069F038F08230C1F58E
:102D10008C2F0E94871581E039C00E94490F8232B2
:102D200089F504C00E94490F823261F48C2F0E9401
:102D30007D16811104C08C2F0E9409161FC081E0EE
:102D400090E01CC08C2F0E947B16811116C0C431EC
:102D500089F058F4CB3089F0C031B1F482E080932F
:102D6000910288E30E94871508C0C93219F0C83360
:102D700021F00AC01092910207C081E0817006C064
:102D80001092910280E002C080E0F8CFCF910895C8
:102D90008091980280FF0BC060910B0185E0689FD5
:102DA000B001112475956795759567952BC081FFC6
:102DB00009C060910B0185E0689FB00111247595F1
:102DC000679520C082FF07C060910B0185E0689F76
:102DD000B001112417C0909197029923D1F060910E
:102DE0000A01961788F720910B0185E0289F900132
:102DF0001124929FA001939F500D112470E0CA01ED
:102E00000E94D2306038710540F46115710519F4E3
:102E100006C065E070E0862F08958FE7089581E091
:102E200008958091980280FF08C06091070170E0CA
:102E3000759567957595679521C081FF06C060916E
:102E4000070170E07595679519C082FF04C0609115
:102E5000070170E010C090919602992399F060915B
:102E600006019617A0F780910701899FC0011124E0
:102E700070E00E94D2306038710540F46115710530
:102E800019F406C061E070E0862F08958FE7089579
:102E900081E00895803F21F40E94C816819504C006
:102EA000813F29F40E94C81680939C020895823FB6
:102EB00021F40E94C816819504C0833F29F40E9422
:102EC000C81680939B020895893F19F40E94111738
:102ED00005C08A3F31F40E941117819580939D02AD
:102EE00008958B3F21F40E941117819504C08C3FF7
:102EF00029F40E94111780939E0208959CE0980F78
:102F0000953078F421E030E0A90102C0440F551F4C
:102F10009A95E2F7CA0190919A02892B80939A02BE
:102F200008958D3F21F48091980281600BC08E3FFF
:102F300021F480919802826005C08F3F29F480912E
:102F400098028460809398020895803F39F49091AC
:102F50009C0297FF35C010929C0259C0813F29F412
:102F600090919C021916BCF32BC090919B02823F5A
:102F700029F497FF25C010929B0249C0833F19F4A2
:102F80001916CCF31DC090919D02893F29F41916A2
:102F9000BCF410929D023BC08A3F19F497FF10C009
:102FA000F8CF8B3F39F490919E0297FF09C01092A1
:102FB0009E022DC08C3F21F490919E021916BCF305
:102FC0009CE0980F953080F421E030E0A90102C028
:102FD000440F551F9A95E2F7CA01809590919A0285
:102FE000892380939A0213C08D3F21F48091980227
:102FF0008E7F0BC08E3F21F4809198028D7F05C09B
:103000008F3F29F4809198028B7F80939802809162
:103010009B02811106C080919C02811102C0109216
:10302000970280919D02811106C080919E028111BC
:1030300002C01092960208950E94B72820919B0228
:10304000211104C020919C02222321F0909395022B
:103050008093940220919D02211104C020919E0230
:10306000222321F0909393028093920289E992E0C7
:103070000C943427EF92FF920F931F93CF93DF931B
:1030800000D000D000D0CDB7DEB786E0E9E9F2E0AD
:10309000DE01119601900D928A95E1F7E0909B0276
:1030A000F0909C0200919D0210919E0210929B0252
:1030B00010929C0210929D0210929E02E11003C099
:1030C000FF2009F45DC080919402909195020E94C6
:1030D000CF28AC0190919702992339F020910C01EF
:1030E00030E02417350758F04BC020910D018AE0DD
:1030F000289F900111242417350718F041C09F3FE5
:1031000019F09F5F90939702EE2061F00E94C8161D
:103110001E1414F09FEF01C091E0989F902D112490
:1031200090939B02FF2061F00E94C8161F1414F0B8
:103130009FEF01C091E0989F902D112490939C02E5
:1031400030919B023323E1F020919C022223C1F0B5
:1031500045EB3403C0011124992319F090939B028D
:1031600003C081E080939B0235EB2303C00111244F
:10317000992319F090939C0203C081E080939C02F4
:10318000011103C0112309F45DC080919202909156
:1031900093020E94CF28AC0190919602992339F0B6
:1031A0002091080130E02417350758F04BC02091DA
:1031B00009018AE0289F900111242417350718F08F
:1031C00041C09F3F19F09F5F90939602002361F0EA
:1031D0000E941117101614F09FEF01C091E0989F04
:1031E000902D112490939D02112361F00E941117DC
:1031F000111614F09FEF01C091E0989F902D1124BB
:1032000090939E0230919D023323E1F020919E0223
:103210002223C1F045EB3403C0011124992319F096
:1032200090939D0203C081E080939D0235EB2303C0
:10323000C0011124992319F090939E0203C081E0EC
:1032400080939E0280919B0281110BC080919C0211
:10325000811107C080919D02811103C080919E025F
:1032600081110E941C18EB82FC820D831E8386E074
:10327000FE013196A9E9B2E001900D928A95E1F73D
:1032800026960FB6F894DEBF0FBECDBFDF91CF916B
:103290001F910F91FF90EF900895E9E9F2E086E029
:1032A000DF011D928A95E9F710929702109296021B
:1032B000109298020895EF92FF920F931F93CF936D
:1032C000DF938B01682F11110AC0442329F0E82FE6
:1032D000F0E0E258F94F6491762F862F75C0212FC8
:1032E00030E0E82FF0E0442321F0E258F94FE49178
:1032F000F0E046E0049FC0011124CFEFD0E0BE0112
:103300000E94BE304BEA4603C001479F900D112436
:10331000800F911D800F911D982F990F890FAE017D
:10332000421B530B4E9FD0014F9FB00D5E9FB00DBF
:1033300011249B2F189FA0011124452F55278E0182
:10334000041B150B0E9FA0010F9F500D1E9F500DCB
:1033500011247E01E81AF108E29E8001E39E100D1F
:10336000F29E100D1124212F3327C21BD30BCE9FA9
:103370009001CF9F300DDE9F300D1124623071051A
:10338000A9F048F46115710569F061307105C9F45F
:103390008B2F752F0DC06430710581F058F06630A9
:1033A000710579F47E2F8B2F932F0DC0832F7B2FE8
:1033B0009E2F09C08E2F7B2F952F05C08E2F732F28
:1033C00002C07E2F852F692FDF91CF911F910F9122
:1033D000FF90EF90089541E00E945B1908950895D1
:1033E0000E94EB190895CF93DF93762FE901682FA0
:1033F000842F0E94F019798368838A83DF91CF91AB
:103400000895473508F046E50C94F3198091C004FF
:10341000282F269530E02115310519F4817082603E
:1034200005C02B32310524F0817084658093C0047F
:103430008091C304873518F086E58093C30408950E
:1034400088E090E00C94C431CF92DF92EF92FF922B
:103450006B017C010E94061AB701A60188E090E08A
:10346000FF90EF90DF90CF900C94E2316091C00418
:103470007091C1048091C2049091C3040C94241AE9
:10348000E0ECF4E083E0808311828FEF828386E5B5
:103490008383148260817181828193810C94241AC8
:1034A0008091C00480FF02C08695089580E0089551
:1034B0009091C404933018F49F5F9093C4048823C0
:1034C00051F06091C0047091C1048091C204909148
:1034D000C3040C94241A089581E00C94581A909116
:1034E000C404992319F091509093C404882351F097
:1034F0006091C0047091C1048091C2049091C30492
:103500000C94241A089581E00C946F1A8091C404DD
:1035100008958093C404662351F06091C0047091B3
:10352000C1048091C2049091C3040C94241A08959C
:1035300060E00C94891A8091C10408958091C204BE
:1035400008958091C304089570E00C9492216091D5
:1035500012018091C00480FF0AC08091110123E014
:10356000829FC00111248B539B4F0C94A41A80910D
:10357000130190911401891780F7E82FF0E09F0163
:10358000220F331FE20FF31FEB53FB4F1182108208
:1035900012828F5FF0CF9091C00490FF16C090917F
:1035A000130120911401921770F4E92FF0E0DF016C
:1035B000AA0FBB1FEA0FFB1FEB53FB4F81836083F6
:1035C00042839F5FF0CF0C94A71A0895CF93DF93A7
:1035D00000D01F92CDB7DEB79091C00490FF0AC013
:1035E0009E012F5F3F4F0E94011A4B8169818A81A2
:1035F0000E94CB1A0F900F900F90DF91CF910895FA
:10360000CF93DF93EC01EC81F0E0E758FA4F44915F
:10361000E0ECF4E0628181810E94E61A8C818F5F88
:103620008C83DF91CF910895CF93DF93EC01E0EC91
:10363000F4E0438162818C810E94E61A8C818F5F65
:103640008C83DF91CF9108950F931F93CF93DF93D6
:1036500000D01F92CDB7DEB78C0180919F028111FF
:103660000AC09E012F5F3F4F46E56FEF0E94011A8F
:103670008A8180939F02F8018481813051F028F083
:10368000823061F440919F020AC080919F0240E025
:1036900007C060919F0240E080E003C040E080E00E
:1036A00060E00E94CB1AF801848190E0019663E00B
:1036B00070E00E94D23084830F900F900F90DF91C2
:1036C000CF911F910F910895AF92BF92CF92DF9249
:1036D000EF92FF920F931F93CF93DF9300D01F922F
:1036E000CDB7DEB7182FF62E042FE22E9091C0042E
:1036F00090FF6DC0E92FE695AE2FB0E0AB55BE4F01
:103700008C9180935C049E7F923061F49E012F5FC8
:103710003F4F812F0E94011A4B8169818A810E944B
:10372000CB1A43C0823019F40091C3043EC08630E6
:1037300019F41091C10439C08930D9F38931A9F540
:10374000E9518E2F8170D82EE695F0E0E758F94FB9
:10375000A590B490C12CBB2460911501C61618F534
:103760002C2D30E0A29EC001A39E900DB29E900D24
:10377000112470E00E94BE30812FD11002C0860F4C
:1037800001C0861B90911301290F311DA901440F1F
:10379000551F240F351F2B533B4F402F6F2D0E9479
:1037A000011AC394D9CF0E94A71A1093C104F092B2
:1037B000C2040093C304EE2051F06091C0047091E4
:1037C000C1048091C2049091C3040E94241A0F90F6
:1037D0000F900F90DF91CF911F910F91FF90EF907D
:1037E000DF90CF90BF90AF900895E0ECF4E091812E
:1037F000282F4381628188E0890F0C94641B81E04B
:103800000C94F51BE0ECF4E09181282F4381628158
:1038100088EF890F0C94641B81E00C94021CE0EC8F
:10382000F4E0628121E1620F08F46FEF282F4381F9
:1038300081810C94641B81E00C940F1CE0ECF4E09B
:10384000628121E1621B08F460E0282F43818181BD
:103850000C94641B81E00C941E1CE0ECF4E04381AA
:1038600021E1420F08F44FEF282F628181810C94EF
:10387000641B81E00C942D1CE0ECF4E0438121E119
:10388000421B08F440E0282F628181810C94641B64
:1038900081E00C943C1C20E00C94641BFF920F937D
:1038A0001F93CF93DF93EC01F12C0FEF10E06091A9
:1038B0001501F616F0F4809113012F2D30E0280F3A
:1038C000311DC901880F991F280F391F2B533B4FFA
:1038D00070E0C8010E94D230962F8C814091C304C1
:1038E0006091C204F99E800D11240E94011AF39484
:1038F000DECF0E94A71A9A818C8190FF02C08F5F51
:1039000001C081508C83DF91CF911F910F91FF9067
:103910000895AF92BF92CF92DF92EF92FF920F93F2
:103920001F93CF93DF93FC01828180FF02C00FEFD2
:1039300001C001E010E047E5A42E809115011817A1
:1039400008F043C080911301C12ED12CE601C80FAD
:10395000D11DCE01880F991FC80FD91FCB53DB4F44
:10396000198218821A8234E0E32EF12CB12C809156
:10397000A1028B0D88352CF06A2D0E94B030892F62
:1039800005C087FF03C090911501890F082E000C18
:10399000990BC816D90691F48091C3048E9DA0019D
:1039A0008F9D500D112455954795559547959E012E
:1039B0006091C2048091C1040E94011AB00EF1E02E
:1039C000EF1AF108A1F61F5FB8CF0E94A71A8091E5
:1039D000A102013031F4811102C0809115018150A2
:1039E00007C090E001966091150170E00E94D2300E
:1039F0008093A102DF91CF911F910F91FF90EF90E3
:103A0000DF90CF90BF90AF900895CF938091130136
:103A100090911401891770F4E82FF0E09F01220FB4
:103A2000331FE20FF31FEB53FB4F11821082128200
:103A30008F5FF0CFC0E060911501C617C0F5EC2F85
:103A4000F0E070E0CF010E94D23020911301820F8C
:103A50002091A002022E000C330B90E0E217F30736
:103A6000CCF020911001022E000C330B2E173F07D3
:103A70008CF09C01220F331F820F931F9C012B534C
:103A80003B4F4091C3046091C2048091C1040E94E5
:103A9000011A0BC0FC01EE0FFF1F8E0F9F1FFC01D0
:103AA000EB53FB4F118210821282CF5FC4CF0E9472
:103AB000A71A20910F018091A002820F8093A0028B
:103AC00090911001920F9093100119165CF4082E3A
:103AD000000C990B4091150150E041505109841799
:103AE00095071CF0219520930F01CF9108958F9297
:103AF0009F92AF92BF92CF92DF92EF92FF920F937D
:103B00001F93CF93DF938C01FC014481C42FD0E03D
:103B10009E01DE010E941D319B01AC010E943331E8
:103B20006B017C01E0E2F0E0EC1BFD0BA5E5B0E0F1
:103B30009B01AC010E9433314B015C019F01DF010D
:103B40000E9415319B01AC010E943E319B01AC01EA
:103B50002C0D3D1D4E1D5F1DC501B4010E94E630B8
:103B6000C22FD22F2A3228F4F3E02F9F9001112484
:103B70000DC025E530E02C1B3109C901880F991FC4
:103B8000280F391F37FF02C02F5F3F4F359527950C
:103B9000C22FC095F12C85E5E82EED1A8091150114
:103BA000F816C8F4F1FC02C08E2D01C08D2F909143
:103BB00013012F2D30E0290F311DA901440F551F8E
:103BC000240F351F2B533B4F4C2F6091C2040E9492
:103BD000011AF394E3CF0E94A71AF801848181119E
:103BE00002C091E003C0803219F49FEF90930E0160
:103BF00090910E01890FF8018483DF91CF911F917D
:103C00000F91FF90EF90DF90CF90BF90AF909F907B
:103C10008F9008950F931F93CF93DF93EC0100E0F3
:103C200010E080911501282F30E00217130724F5CA
:103C3000909113019801290F311DA901440F551FBF
:103C4000240F351F2B533B4F869590E04C8108176E
:103C500019071CF4442331F002C0411103C0409104
:103C6000C30401C040E06091C2048091C1040E947D
:103C7000011A0F5F1F4FD5CF0E94A71A8C8190E0C9
:103C80000196817099278C83DF91CF911F910F91BD
:103C900008957F928F929F92AF92BF92CF92DF92C0
:103CA000EF92FF920F931F93CF93DF93FC018280DB
:103CB000748081E08483E9E7F5E09490E8EFF5E033
:103CC000E491A12CF5E0BF2ECC24CA94D12CE919A3
:103CD0000E2F10E080911501A81608F0A2C0EA2C62
:103CE000F12C22E0281568F0BE9CF001BF9CF00D7D
:103CF0001124EE55FD4F8091C10480838091C20450
:103D0000818371100AC0BE9CF001BF9CF00D11248C
:103D1000EE55FD4F138212826AC0BE9CE001BF9C2B
:103D2000D00D1124CE55DD4F8B818823F9F08150C1
:103D30008B832FEF829FC00111246C8170E00E9461
:103D4000BE30FB01FF27E758FA4F8491E82FE919AD
:103D50002FEFE29FC0011124B8010E94BE30809174
:103D6000C304689FB00111247A8341C00E9492313C
:103D70002091C3042695215830E0A901440F551F16
:103D8000322F2227240F351F232F33278217930723
:103D900074F582E0881588F40E949231B6010E9481
:103DA000D23088830E9492312091C2042695622FDE
:103DB00070E00E94D230280F2983BE9CF001BF9C86
:103DC000F00D1124EE55FD4F12828091C304843111
:103DD00020F0893C18F088EC01C084E1BE9CF00121
:103DE000BF9CF00D1124EE55FD4F84838383809199
:103DF00013019701280F311DC901880F991F280F42
:103E0000391F2B533B4FBE9CF001BF9CF00D11247A
:103E1000EE55FD4F4281618180810E94011AA39479
:103E200059CFDF91CF911F910F91FF90EF90DF90CD
:103E3000CF90BF90AF909F908F907F900C94A71AD7
:103E4000E0ECF4E080818E7F8083608171818281EB
:103E500093810E94241A10925D042FE788E391E079
:103E6000215080409040E1F700C000000C94A71A58
:103E7000E0ECF4E080818E7F808310925D042FE778
:103E800088E391E0215080409040E1F700C00000BD
:103E90000C94A71A6091C004669570E04BE050E066
:103EA00086E191E00E94A231892B19F481E0809390
:103EB0005D040E94B728909356048093550408959A
:103EC0009091C00490FF35C09170811102C0926042
:103ED00006C08B3210F0946502C0880F982B909327
:103EE000C004662351F06091C0047091C1048091B8
:103EF000C2049091C3040E94241A6091C004669584
:103F000070E04BE050E086E191E00E94A231892B05
:103F100019F010925D0402C00E944A1F81E0809354
:103F200058044091C3046091C2048091C1040C9470
:103F30004B1C0895682F9091C004969581E0890FDD
:103F40008B3208F081E00C94601F81E00C949A1F82
:103F5000682F9091C00496958FEF890F09F48AE23B
:103F60000C94601F81E00C94A81F61E00C94601F0A
:103F7000E0ECF4E080818160808386950C94B51F2D
:103F80008091C00480FD0C94201F0C94B81F60E049
:103F90000C94601F80915B0481112EC00E9401105F
:103FA000811104C00E94A8100E94401A0E94201A89
:103FB0006093C0047093C1048093C2049093C304BF
:103FC0006E7F61F40E94401A0E94201A6093C00420
:103FD0007093C1048093C2049093C3040E94061A94
:103FE00010925D048091C00480FF03C086950E94FA
:103FF000C71F81E080935B040895E0ECF4E08081CA
:104000008160808386950C94C71F0F931F93CF9375
:10401000DF9380915D04882309F495C080915C044E
:10402000E091C004E695E81BE0935704823049F420
:10403000F0E0EB58FA4FE491CE2FD0E000E01BE126
:1040400059C0863049F4F0E0EE58FA4FE491CE2F93
:10405000D0E004E11BE14EC0893051F4E695F0E078
:10406000E159FA4FE491CE2FD0E00EE41CE142C0BA
:104070008F3051F4E695F0E0E459FA4FE491CE2FF9
:10408000D0E009E81CE136C0853149F4F0E0E75999
:10409000FA4FE491CE2FD0E005E01DE12BC088312E
:1040A000D9F0833239F4E7E6F5E0C591D49104E222
:1040B0001BE120C08432A9F08532C1F48E2F63E069
:1040C0000E94A430E92FF0E0EC59FA4FE491CE2F92
:1040D000D0E009E41EE10EC0C8E2D0E007E71DE130
:1040E00009C0C4EFD1E00AE01EE104C0C0EDD7E092
:1040F0000FEE19E180915804882361F01092580462
:104100000E94B728909356048093550410925A0445
:10411000109259040E94B728E0915504F09156047A
:104120008E1B9F0B8F3F9F4770F4EC0FFD1FF0938A
:104130005604E093550485E594E0F801DF91CF91B2
:104140001F910F910994DF91CF911F910F910895C5
:10415000882311F0FA0101C0FB010994CF93DF938A
:10416000C82FD62F0E94501A8C1740F00E94501A68
:104170008D1720F4DF91CF910C94A51F8C2FDF9128
:10418000CF910C94B51F1F93CF93DF93FB01128146
:10419000112309F4C1C0EC010E94490F8272CC3C8A
:1041A000FCE5DF0709F49BC008F043C0C63CECE522
:1041B000DE0709F480C0D8F4C33C9CE5D90709F4B4
:1041C0006DC038F4C23CDC4509F0A7C00E94C01F96
:1041D0006BC0C43C9CE5D90709F468C0C53CDC450C
:1041E00009F09BC04CE05CE16FEF7BE15BC0C93C38
:1041F000FCE5DF0709F469C070F4C73CECE5DE07B5
:1042000009F45EC0C83CDC4509F087C04BE15CE1C5
:104210006AE27CE147C0CA3C9CE5D90709F45AC070
:10422000CB3CDC4509F079C043E85AE16CE67AE121
:1042300039C0C13DFCE5DF0709F45EC098F4CE3C0F
:104240009CE5D90709F452C008F44EC0CF3CFCE508
:10425000DF0709F44EC0C03DDC4509F05EC06EE0EA
:1042600089E057C0C43D9CE5D90709F44BC058F418
:10427000C23DFCE5DF0709F442C0C33DDC4509F05F
:104280004CC088E143C0C53D9CE5D907F1F1CD356F
:10429000DD4509F042C06AE285E23BC042EB5FE1E6
:1042A00065EA7FE10E94A82010E037C045EA5FE19F
:1042B00062EB7FE1F7CF4FEF5BE16CE07CE1F2CFA7
:1042C0004AE25CE16BE17CE1EDCF48E45CE169E36B
:1042D0007CE1E8CF49E35CE168E47CE1E3CF4CE6D4
:1042E0005AE163E87AE1DECF81E010C065E082E068
:1042F00010C068E086E00DC064E18FE00AC067E1AD
:1043000085E107C062E289E104C083E20E94B51F33
:10431000CBCF0E94AE20C8CF11E0812FDF91CF918B
:104320001F9108953A9A28B12B7F38B134604FB766
:10433000F894FC01CB01880F991F680F791F6E0F4D
:104340007F1FE617F70761F0819198E038B987FF82
:1043500028B9880F000000C028B99A95B9F7F1CFA5
:104360004FBF8FE292E00197F1F700C0000008957F
:1043700083E290E00E94BC31813281F484E290E0DB
:104380000E94BC31803151F485E290E00E94BC3142
:1043900091E0803109F090E0892F01C080E08170C8
:1043A0000895CF93C82F811102C06FEF01C061E261
:1043B00083E290E00E94D031C11102C06FEF01C0D2
:1043C00060E184E290E00E94D031C11102C06FEF41
:1043D00001C060E185E290E0CF910C94D031089566
:1043E00086E290E00E94BC31682F70E080E090E0AF
:1043F000089586E290E00C94D03180E00E94D121B3
:1044000060E070E0CB010E94F9210E94A1230E948C
:10441000802481E00C94D1210E94EF210E94B821D8
:10442000811102C00C94FD210895CF93FB01C2813C
:10443000CC23E9F09C0122513F452031310520F485
:1044400082510E9490240CC08031FFE59F0751F4F7
:1044500081E00E94240B43E062E081E00E9453056A
:10446000C0E018C081319F45A9F482E0F2CF8031CD
:10447000EFE59E0711F481E004C081319F4549F4C6
:1044800082E00E942F0B43E062E081E00E9453052E
:1044900001C0C1E08C2FCF9108952FEFFC01208344
:1044A0000895CF93DF93EC018881813889F028F457
:1044B0008038A1F40E94A11A10C0823861F08338BC
:1044C00069F40E949B1A89830E949E1A8A8306C0FF
:1044D0000E94501A02C00E94861A8983DF91CF91F0
:1044E0000895CF93DF93EC0188818138B1F058F4BF
:1044F000803851F5D9810E949E1AC82F0E949B1ABC
:104500004D2F6C2F1DC08238B1F08338E9F40E9422
:10451000A11A482F6A81898113C089810E94C71F0F
:104520008981811104C0DF91CF910C94381FDF91F4
:10453000CF910C94FD1F8981DF91CF910C94981A33
:10454000DF91CF910C944B1CDF91CF910895EF92A6
:10455000FF920F931F93CF93DF93EC01E62E01960A
:10456000E8814E2F50E0FA013197E331F10508F070
:104570009BC0EB55FF4F0C940831198289E057C05E
:104580008981823039F0833061F0813031F50E94C9
:10459000C32802C00E94F0219A838B837C836D83A1
:1045A00085C08E01F12C8F2D0E94F713F8018283B4
:1045B00073836483F3940D5F1F4FF6E0FF12F3CF14
:1045C00075C08981823049F46A817B818C819D81AB
:1045D0000E940E310E94F92169C06E2DCE010E9409
:1045E0004D2264C04B816A8189810E9473239C8320
:1045F0008D835CC02C813D813227232732274B815C
:104600006A8189810E948C2351C00E94A1234EC0DF
:104610000E9471224BC00E94512248C00E94361A4B
:1046200045C00E94332424C00E94352499838A8384
:104630003DC06B8170E089819A81AE014C5F5F4F14
:104640009827892798270E94382430C06B8170E012
:1046500089819A81AE014C5F5F4F982789279827FF
:104660000E945D2423C00E94802420C00E946023F9
:1046700089831CC06B8170E089819A81AE014C5F97
:104680005F4F9827892798270E94E0230FC06B81EE
:1046900070E089819A81AE014C5F5F4F982789272E
:1046A00098270E94042402C08FEF88836E2DCE01CC
:1046B000DF91CF911F910F91FF90EF900C94C22941
:1046C00084E0089550E0440F551F22E2629F400DA0
:1046D000511D11249A016CEC869F200D311D11246F
:1046E000C901879608950F931F93CF93DF930E947C
:1046F00062238C010E94BC31C82FD0E0DC2FCC2774
:10470000C80101960E94BC319E01282BC901DF918E
:10471000CF911F910F9108950F931F93CF93DF9324
:10472000122F032F0E946223EC01602F0E94D031D0
:10473000612FCE010196DF91CF911F910F910C94C3
:10474000D031AF92BF92CF92DF92EF92FF920F9350
:104750001F93CF93DF93A12CE12CF12CB12C00E01F
:1047600010E0C0E0D0E06701C00ED11EFE01EE0FE8
:10477000FF1FEC0DFD1DEC57FE4F259134914C2F82
:104780006B2D8A2D0E948C232196C131D10571F7A2
:104790000E5D1F4FB39486E0B812E3CF8CECE80EA9
:1047A000F11CA39484E0A812D9CFDF91CF911F917F
:1047B0000F91FF90EF90DF90CF90BF90AF90089552
:1047C000EF92FF920F931F93CF93DF93EA017A0149
:1047D000E60EF71E8C01C8018796CE15DF0569F03D
:1047E000003323E0120720F40E94BC31888301C00B
:1047F000188221960F5F1F4FEECFDF91CF911F914F
:104800000F91FF90EF900895EF92FF920F931F93F7
:10481000CF93DF93EA017A01E60EF71E8C01C801FF
:104820008796CE15DF0559F0003323E0120718F400
:1048300068810E94D03121960F5F1F4FF0CFDF912A
:10484000CF911F910F91FF90EF900895462F8430E4
:1048500038F4763028F4613118F4672F0C94732300
:1048600080E090E0089580E1089589EA94E0089559
:10487000EF92FF920F931F93CF93DF93EA017A0198
:10488000E60EF71E8C01C801895A9C4FCE15DF0534
:1048900069F0093A24E0120720F40E94BC318883B1
:1048A00001C0188221960F5F1F4FEDCFDF91CF918E
:1048B0001F910F91FF90EF900895EF92FF920F9349
:1048C0001F93CF93DF93EA017A01E60EF71E8C0166
:1048D000C801895A9C4FCE15DF0559F0093A24E0EA
:1048E000120718F468810E94D03121960F5F1F4F84
:1048F000EFCFDF91CF911F910F91FF90EF9008952F
:10490000CF93DF93C7E5D3E060E0CE010E94D031C2
:104910002196C11588E0D807B9F7DF91CF910895A6
:10492000DF92EF92FF920F931F93CF93DF9300D00C
:1049300000D0CDB7DEB7F82E8FE08F15E8F18FEFFE
:1049400097E00E94BC31811137C007E513E0FF20DA
:1049500069F0011588E0180779F1C8010E94BC319F
:10496000811101C0FA940F5F1F4FF1CF19821A8293
:104970001B821C82DD24D39478018FEFE81AF80A99
:10498000C8010E94BC3189831A828823A9F09FEF55
:10499000980F933058F48A83D9820E5F1F4FC70156
:1049A0000E94BC318B83882339F07801CE010196B7
:1049B0000E94A3068701E0CF0F900F900F900F90F9
:1049C000DF91CF911F910F91FF90EF90DF900895AD
:1049D0000F931F93CF93DF93C42FD22FFC018281BB
:1049E0008823C9F0409360040E94B72890935F0425
:1049F00080935E0480E28C0F883008F057C0C77047
:104A000081E001C0880FCA95EAF7DF91CF911F912D
:104A10000F910C94520880916004481330C080912B
:104A20005E0490915F040E94CF28883C910538F580
:104A300010E21D0FCD17B9F080E28C0F883040F4E2
:104A4000C77081E001C0880FCA95EAF70E94590833
:104A5000183028F581E09D2F977001C0880F9A9536
:104A6000EAF70E945208802F0E9449081830F0F49B
:104A7000D77081E001C0880FDA95EAF70AC080E2BA
:104A80008C0F883098F4C77081E001C0880FCA95F8
:104A9000EAF7DF91CF911F910F910C945908802F65
:104AA000DF91CF911F910F910C944908DF91CF9125
:104AB0001F910F9108950F939C01CB01233F4CE56B
:104AC000340731F188F4283DFCE53F07D9F0293D52
:104AD0004CE5340779F1273D3C45A9F506E221EE86
:104AE00041EE67ED7CE52BC0253FFCE53F07E1F09B
:104AF000A8F0263F3C4539F507E225EE46EE66EF85
:104B00007CE51DC007E225EE45EE68ED7CE517C0AB
:104B100006E221EE40EE63EF7CE511C007E225EEF0
:104B200044EE64EF7CE50BC006E221EE42EE65EF59
:104B30007CE505C008E221E045EE69ED7CE50E94D8
:104B4000E82480E008C0FC018281882319F01092DB
:104B5000600401C081E00F910895CF93DF93EC01D1
:104B6000FB018281882309F41FC1C230FCE5DF0705
:104B700008F41BC1C6319CE5D90738F09E012A5FB5
:104B80003C452930310508F010C10E941410909363
:104B90008F0480938E04C031ECE5DE0709F4C3C0B6
:104BA00008F041C0C8308CE5D80709F49AC0F0F489
:104BB000C430ECE5DE0709F487C068F4C2308CE548
:104BC000D80709F477C0C330DC4509F0E3C0809111
:104BD0008E04826076C0C630ECE5DE0709F46EC054
:104BE00008F07BC080918E0488606BC0CC308CE56F
:104BF000D80709F485C068F4CA30ECE5DE0709F48B
:104C000074C008F079C00E94A50A80918E04806863
:104C100058C0CE308CE5D80709F476C008F07FC0C4
:104C200080918E048BC0CB3FECE5DE0709F44FC0CA
:104C300018F5C3318CE5D80709F47DC078F4C1318B
:104C4000ECE5DE0709F473C0C231DC4509F0A2C00F
:104C50000E94A50A80918E048F7733C0C5318CE500
:104C6000D80709F472C008F486C0CA3FDC4509F0D1
:104C700091C080918F043EC0CF3FFCE5DF0709F46F
:104C80005FC058F4CD3F9CE5D90709F444C008F44F
:104C90003FC080918F0482602DC0C130FDE5DF07E9
:104CA00009F475C008F45DC0C230DD4509F072C07A
:104CB00080E06EC080918E04816003C080918E047C
:104CC000806180938E0466C080918E0411C08091B3
:104CD0008F04826080938F045DC080918E04806217
:104CE000F0CF80918E048064ECCF80918E04886038
:104CF0008460E7CF8160EECF80918E048E7FE1CF1C
:104D000080918E048D7FDDCF80918E04877FD9CFF7
:104D100080918F0418C080918F048D7FDBCF8091AC
:104D20008E048F7ECECF80918E048F7DCACF8091EE
:104D30008E048F7BC6CF80918E04877F8B7FC1CFFF
:104D400080918F048D7F8E7FC5CF80918E0482FBF2
:104D5000222720F991E0922790FB82F990FB83F9BA
:104D6000B0CF80918F04982F909591708E7F892B72
:104D700090FB81F9AFCF0E94A50A80918E0487FB3A
:104D8000222720F991E0922790FB87F99ACF81E0C2
:104D90000E94AA1080918E0490918F040E94251089
:104DA0000E94A50A80E001C081E0DF91CF910895C3
:104DB000CF93DF9386319C4541F5EB010E94490F6B
:104DC000982F8A812091040130910501882379F080
:104DD0009A7A81E009F480E080936104911102C025
:104DE00069E201C065E3C9010E9404280AC08091FC
:104DF0006104811102C069E201C065E3C9010E943A
:104E00000F280E948E0F80E001C081E0DF91CF91DA
:104E1000089590936704809366040895E091660472
:104E2000F0916704309721F00190F081E02D099412
:104E300080E00895E0916604F0916704309799F05E
:104E400020912B01222359F020918E0427FF07C0C7
:104E5000DC012C9111962C93119725E02C93028064
:104E6000F381E02D09940895E0916604F0916704C0
:104E7000309739F022E0DC012C930480F581E02D9D
:104E80000994089520916404309165042817390726
:104E900071F09093650480936404E0916604F0914E
:104EA0006704309721F00680F781E02D099408957A
:104EB00020916204309163042817390771F09093B0
:104EC000630480936204E0916604F0916704309774
:104ED00021F00084F185E02D09940895FC013296BB
:104EE00080912B01882331F080918E0487FF02C0CE
:104EF0009EE101C096E080E0915028F021912223AC
:104F0000D9F38F5FF9CF0895662351F120912B01DA
:104F10002223E9F020918E0427FF19C0462F4695E1
:104F2000469546954E31E0F4677021E030E002C0CE
:104F3000220F331F6A95E2F7FC01E40FF11D828115
:104F400090E02823392381E0232B69F409C0FC0178
:104F5000329608962191621729F0E817F907D1F7E0
:104F600080E0089581E008959C01FC0132969FEF56
:104F700080E04191461789F09F3F19F4411101C02B
:104F8000982F8F5F8630A9F79F3F39F0F901E90F1D
:104F9000F11D97FDFA956283089508959C012A5F9B
:104FA0003F4FFC014281461301C0128201968217D5
:104FB0009307B9F70895262F2695269526952E3125
:104FC00068F4FC01E20FF11D677021E030E001C0E0
:104FD000220F6A95EAF78281282B22830895262FD3
:104FE0002695269526952E3170F4FC01E20FF11DD1
:104FF000677021E030E001C0220F6A95EAF7209542
:10500000828128232283089520912B01222329F0D5
:1050100020918E0427FD0C94DB270C94B42720915B
:105020002B01222329F020918E0427FD0C94EF27D9
:105030000C94CE2720912B01FC013296222331F0D3
:1050400080918E0487FF02C08EE101C086E0DF01FF
:105050001D928A95E9F70895089508950C942D28D6
:105060000C942D28CF930E9430280E94F4140E94A3
:105070002E28C0E08C2F0E94F713672B682B692B1A
:1050800029F4CF5FC630B1F780E001C081E0CF9155
:1050900008950C942D280C9449288091D2058430D1
:1050A00049F10E944B2880E00E94C20610926804D9
:1050B00020E488E190E00FB6F894A8958093600012
:1050C0000FBE2093600083B7817F846083BF83B766
:1050D000816083BF7894889583B78E7F83BF0FB636
:1050E000F894A89580916000886180936000109288
:1050F00060000FBE08950C942D280E94A50A0E94FE
:105100000E270E94C2060C947B281F920F920FB6A6
:105110000F9211248F939F93AF93BF938091680454
:10512000811113C08091CA059091CB05A091CC0547
:10513000B091CD054196A11DB11D8093CA059093F4
:10514000CB05A093CC05B093CD05BF91AF919F91B6
:105150008F910F900FBE0F901F90189582E084BD25
:1051600093E095BD9DE797BD80936E0008952FB79E
:10517000F8948091CA059091CB05A091CC05B0918F
:10518000CD052FBF08952FB7F8946091CA0570918F
:10519000CB058091CC059091CD052FBF08959C0142
:1051A0004FB7F8948091CA059091CB05A091CC059A
:1051B000B091CD054FBF821B930B089578941F9239
:1051C0000F920FB60F9211248F939F93AF93BF93BB
:1051D0008091CA059091CB05A091CC05B091CD05E9
:1051E0000196A11DB11D8093CA059093CB05A09394
:1051F000CC05B093CD05BF91AF919F918F910F904A
:105200000FBE0F901F90189581E08093E00080E220
:105210008093D8001092C9008FE097E20197F1F7D0
:1052200000C0000087E090EBDC018093DB059093E9
:10523000DC05A093DD05B093DE059CE088E10FB6A8
:10524000F894A895809360000FBE90936000FFCF04
:105250009093E1018093E001089580918C0408957A
:105260009091D205943029F58093690470936B0472
:1052700060936A049093E9008FEF9091E800815069
:1052800095FD06C09AE69A95F1F700C08111F5CF19
:105290008091E80085FF0DC040E050E063E070E0E1
:1052A00089E694E00E94BC2B8091E8008E77809381
:1052B000E8000895BC0184E00C943029BC0183E02F
:1052C0000C94302924E02093E9002FEF3091E8007E
:1052D000215035FD06C03AE63A95F1F700C021119C
:1052E000F5CF2091E80025FF0BC040E050E066E0DC
:1052F00070E00E94BC2B8091E8008E778093E800DC
:105300000895CF93DF9320912B01222339F0209130
:105310008E0427FF03C060E224E002C068E021E0C1
:105320002093E9002FEF3091E800215035FD06C0B1
:105330003AE63A95F1F700C02111F5CF2091E80047
:1053400025FF1DC0EC0180912B01811105C040E0BB
:1053500050E068E070E003C070E040E050E0CE0153
:105360000E94BC2B8091E8008E778093E80080E259
:10537000FE01ACE6B4E001900D928A95E1F7DF9171
:10538000CF910895CF93603219F52091D205243042
:10539000F9F4C091E900CF703091EC00232F217017
:1053A00030FD20E8C22B22E02093E9002091E800A4
:1053B00020FF0BC040E050E060E270E00E94BC2B98
:1053C0008091E8008E778093E800CF70C093E90069
:1053D000CF9108958091D105811109C00E94942D2B
:1053E0000E94F62D8091E20084608093E20008958F
:1053F0001092D105089508950895089542E061EC52
:1054000081E00E940D2D42E261EC84E00E940D2DAE
:1054100042E261EC82E00E940D2D42E260EC83E00A
:105420000C940D2D8091D405833009F460C030F4C4
:10543000813071F0823009F499C008958A3009F4FE
:1054400085C08B3009F46BC0893009F0A7C020C03B
:105450008091D305813A09F0A1C08091E800877F4F
:105460008093E8008091D7059091D805892B21F48D
:1054700060E28CE694E003C060E080E090E070E0E1
:105480000E94522C8091E8008B778093E800089569
:105490008091D305813209F081C08091D705909128
:1054A000D805009719F0029709F078C08091E800BC
:1054B000877F8093E8008091E80082FD05C080919D
:1054C000D2058111F8CF6AC08091F2009091F3006B
:1054D000029729F48091F1008B7F813021F4809133
:1054E000F10080938C048091E8008B7753C0809109
:1054F000D305813A09F052C08091D7059091D80523
:10550000892B09F04BC08091E800877F8093E800E9
:105510008091E80080FFFCCF80912B0136C0809104
:10552000D3058132D9F58091D7059091D805892B83
:10553000A9F58091E800877F8093E8000E94422DC2
:105540008091D50580932B010C94A50A8091D305F9
:10555000813221F58091E800877F8093E8000E94E6
:10556000422D8091D60580938D0408958091D305B6
:10557000813AA1F48091E800877F8093E8008091D0
:10558000E80080FFFCCF80918D048093F100809132
:10559000E8008E778093E8000C94422D089584B73C
:1055A000877F84BF0FB6F894A895809160008861CA
:1055B00080936000109260000FBE90E080E80FB60C
:1055C000F89480936100909361000FBE0C94DA1000
:1055D0000E94942D0E94F62DE2EEF0E0808184601E
:1055E000808378940E9489300E94E81081E291E0E3
:1055F0000C940927CF93DF93CDB7DEB7A0970FB6F2
:10560000F894DEBF0FBECDBF8091D2058530A9F4DE
:105610008091D205853079F40E944D288091D00583
:105620008823B1F30E943228882391F30E94A62B8D
:105630000E94A50AEDCF0E947D280E94F210809161
:10564000D205843011F583E08093E9008091E80071
:1056500082FF1BC08091E80085FF0AC040E050E057
:1056600060E270E0CE0101960E94072C91E001C03B
:1056700090E08091E8008B778093E800992329F0EF
:1056800060E2CE0101960E94A722A0960FB6F89480
:10569000DEBF0FBECDBFDF91CF9108950C94502B8C
:1056A000292F332723303105C9F060F4213031052B
:1056B00081F02230310509F041C08BE590E02EEAFF
:1056C00037E040C021323105E1F02232310531F1BD
:1056D00035C082E190E029E038E034C0992781307C
:1056E000910549F028F0029749F5EEE7F7E005C08B
:1056F000EAEAF7E002C0EAE8F7E0849190E09F016F
:1057000021C063307105D0F4660F771FFB01E752AB
:10571000FE4F2081318189E090E014C06330710533
:1057200068F4FB01EE0FFF1FED52FE4F2081318127
:10573000FB01E053FE4F808190E004C080E090E0E8
:1057400020E030E0FA013183208308958CE089BDA8
:105750008EE089BD09B400FEFDCF8091D8008F7D19
:105760008093D8008091E00082608093E000809177
:10577000E00081FDFCCF0895CF92DF92EF92FF927F
:105780000F931F93CF93DF93EC018B017A010E945B
:10579000612D811133C0E114F10439F0F7018081EA
:1057A0009181081B190BC80FD91FC12CD12C0115D1
:1057B000110519F18091E80085FD16C08091E8007F
:1057C0008E778093E800E114F10449F0F7018081BD
:1057D0009181C80ED91ED182C08285E00FC00E947F
:1057E000612D882321F30AC089918093F100015033
:1057F0001109FFEFCF1ADF0ADACF80E0DF91CF91F6
:105800001F910F91FF90EF90DF90CF900895CF926E
:10581000DF92EF92FF920F931F93CF93DF93EC01F0
:105820008B017A010E94612D811133C0E114F104D2
:1058300039F0F70180819181081B190BC80FD91F1E
:10584000C12CD12C0115110519F18091E80085FDBD
:1058500016C08091E8008B778093E800E114F10492
:1058600049F0F70180819181C80ED91ED182C08292
:1058700085E00FC00E94612D882321F30AC080912A
:10588000F100899301501109FFEFCF1ADF0ADACF37
:1058900080E0DF91CF911F910F91FF90EF90DF900B
:1058A000CF9008952091D9053091DA052617370752
:1058B00048F06115710539F42091E8002E772093A6
:1058C000E80001C0B901FC0120E06115710569F132
:1058D0008091D2058823E1F18530E1F18091E800E3
:1058E00083FD3AC08091E80082FD2CC08091E800E1
:1058F00080FFEBCF8091F2009091F300611571056C
:1059000051F08830910538F421912093F1006150D5
:1059100071090196F3CF21E0089709F020E080910A
:10592000E8008E778093E800D0CF2111D1CF0AC054
:105930008091D205882361F0853061F08091E80084
:1059400083FD0AC08091E80082FFF2CF80E00895D5
:1059500082E0089583E0089581E008952091D905BB
:105960003091DA052617370748F06115710539F4CB
:105970002091E8002E772093E80001C0B901FC01D6
:1059800020E06115710581F18091D205882309F429
:105990003EC0853009F43DC08091E80083FD3BC0E6
:1059A0008091E80082FD2DC08091E80080FFE9CF62
:1059B0008091F2009091F3006115710559F08830E3
:1059C000910540F424912093F100319661507109C2
:1059D0000196F2CF21E0089709F020E08091E800DD
:1059E0008E778093E800CDCF2111CECF0AC0809171
:1059F000D205882361F0853061F08091E80083FD55
:105A00000AC08091E80082FFF2CF80E0089582E032
:105A1000089583E0089581E00895982F973068F500
:105A20009093E900981739F07091EC002091ED0007
:105A30005091F00003C0242F762F50E021FD02C0CA
:105A40009F5FECCF3091EB003E7F3093EB003091C5
:105A5000ED003D7F3093ED003091EB0031603093ED
:105A6000EB007093EC002093ED005093F000209138
:105A7000EE0027FDE5CF80E008958F708093E90068
:105A800081E008958091D30587FF11C08091E800DF
:105A900082FD05C08091D2058111F8CF11C080919F
:105AA000E8008B770BC08091D205882349F0809164
:105AB000E80080FFF8CF8091E8008E778093E800BF
:105AC00008952091E4003091E50095E64091EC00C6
:105AD000842F817040FF23C08091E80080FD1DC0AD
