:100000000C9430040C9474040C948F040C947404B9
:100010000C9474040C9474040C9474040C94740480
:100020000C9474040C9474040C94BC1E0C9474040E
:100030000C9474040C9474040C9474040C94740460
:100040000C9474040C9474040C9474040C94740450
:100050000C947404380B380B720B720BCB0BE60C40
:10006000E60CE60CE70B5B0C6C0C6C0C48104B10B0
:10007000751087109210B710BA1013114F11061295
:1000800006125E11601165118E11B411B711BB110A
:10009000E211282328233B233B2331233B233B230B
:1000A0003B232823282336233B233B2336230000EE
:1000B0000000000000000000000000000000000040
:1000C0000000000000000000000000000000000030
:1000D00000007E0F00D4FFFFFFC700000078000083
:1000E0000000000000002A2B280000000000000093
:1000F00000000000000000000029000000002C1E8D
:100100003420212224342627252E362D3738271E49
:100110001F202122232425263333362E37381F046F
:1001200005060708090A0B0C0D0E0F101112131407
:1001300015161718191A1B1C1D2F3130232D3504C5
:1001400005060708090A0B0C0D0E0F1011121314E7
:1001500015161718191A1B1C1D2F3130354C0004A9
:100160007F3F1F643214643214783C1E1E140A054B
:10017000FFAA7F55402223252628292A2C2D2F30FF
:1001800032333536383A3B3D3E4042434547494A93
:100190004C4E5051535557595A5C5E6062646668C4
:1001A000696B6D6F71737577797B7D7F81838587CF
:1001B000898A8C8E90929496989A9C9E9FA1A3A5D2
:1001C000A7A8AAACAEAFB1B3B4B6B8B9BBBCBEBFFA
:1001D000C1C2C3C5C6C7C9CACBCCCDCED0D1D2D27D
:1001E000D3D4D5D6D7D7D8D9D9DADADBDBDBDCDC88
:1001F000DCDCDCDDDDDDDDDCDCDCDCDCDBDBDBDA40
:10020000DAD9D9D8D7D7D6D5D4D3D2D2D1D0CECDAA
:10021000CCCBCAC9C7C6C5C3C2C1BFBEBCBBB9B8B7
:10022000B6B4B3B1AFAEACAAA8A7A5A3A19F9E9C3C
:100230009A98969492908E8C8A89878583817F7D07
:100240007B79777573716F6D6B6968666462605EE8
:100250005C5A5957555351504E4C4A4947454342B1
:10026000403E3D3B3A3836353332302F2D2C2A294B
:1002700028262523223C003D003E003F004000414F
:100280000042004300440045003B003A00290000C2
:10029000004C002200230024002500260027002D0A
:1002A000002E002A002A00210020001F001E003519
:1002B0000017001C0018000C00120013002F003063
:1002C0000031005F00150008001A0014002B000A1E
:1002D000000B000D000E000F00330034002800005A
:1002E000005C000900070016000400390019000531
:1002F000001100100036003700E5005200380059A8
:10030000001B001D001D000000E1000000000000B7
:10031000000000000061006000560055005400001D
:1003200000000000000000000000002C00000000A1
:1003300000E600E700500051004F0062000000009E
:1003400000E200E0000000000000000000000000EB
:10035000005E005D005B005A0063000000000000CA
:100360000000000000010001000100010001000187
:1003700000010001000100010001000100005C001B
:100380000001000100010001000100010001000165
:100390000001000100010001000100010001000155
:1003A00000C75CC85CC95CCA5C01000100010001B7
:1003B0000001000100C65CC55CC35CC25C010001B9
:1003C0000001000100010001000100010001000026
:1003D0000001000100010001000100010001000115
:1003E0000001000100010001000100010001000105
:1003F00000010001000100010001000000000000F8
:1004000000000000000100010001000100010000E7
:1004100000000000000000000000000100000000DB
:1004200000010001000100010001000100000000C6
:1004300000010001000000000000000000000000BA
:1004400000010001000100010001000000000000A7
:100450000000000000010001000100010001000196
:100460000001000100010001000100010001000085
:100470000001000100010001000100010001000174
:100480000001000100010001000100010001000164
:100490000001000100010001000100010001000154
:1004A0000001000100010001000100010001000144
:1004B0000001000100010001000100010001000035
:1004C0000001000100010001000100010001000124
:1004D0000001000100010001000100010001000114
:1004E0000001000100010001000100000000000007
:1004F00000000000000100010001000100010000F7
:1005000000000000000000000000000100000000EA
:1005100000010001000100010001000100000000D5
:1005200000010001000000000000000000000000C9
:1005300000010001000100010001000000000000B6
:1005400000000000000100010001000100010001A5
:100550000001000100010001000100010001000094
:100560000001000100010001000100010001000183
:100570000001000100010001000100010001000173
:100580000001000100010001000100010001000163
:100590000001000100010001000100010001000153
:1005A0000001000100010001000100010001000044
:1005B0000001000100010001000100010001000133
:1005C0000001000100010001000100010001000123
:1005D0000001000100010001000100000000000016
:1005E0000000000000010001000100010001000006
:1005F00000000000000000000000000100000000FA
:1006000000010001000100010001000100000000E4
:1006100000010001000000000000000000000000D8
:1006200000010001000100010001000000000000C5
:10063000000000000005010980A101850319012ABD
:10064000B700150126B700950175108100C0050C93
:100650000901A101850419012AA002150126A002A1
:10066000950175108100C00660FF0961A101096252
:10067000150026FF009520750881020963150026E4
:10068000FF00952075089102C005010906A101052A
:100690000719E029E71500250195087501810295E4
:1006A00001750881030507190029FF150026FF00C1
:1006B000950675088100050819012905950575013C
:1006C0009102950175039103C00A03480042003866
:1006D0000035000000180347007200610079002017
:1006E00000530074007500640069006F000000048E
:1006F00003090409025B00030100A0FA09040000D9
:100700000103010100092101010001224000070548
:10071000810308000109040100020300000009210F
:1007200001010001222200070584030800010705DA
:10073000040308000109040200010300000009216C
:1007400001010001223200070583030800011201A4
:1007500010010000000853470020000201020001C0
:100760000001010101010101010102020202020274
:100770000202020303030303030303040404040447
:10078000040405050505050606060606070707070E
:100790000708080808090909090A0A0A0B0B0B0CC3
:1007A0000C0C0D0D0D0E0E0E0F0F0F101011111160
:1007B00012121313141415151616171718181919E1
:1007C0001A1A1B1B1C1D1D1E1E1F20202122222346
:1007D0002424252626272829292A2B2C2D2D2E2F87
:1007E00030313232333435363738393A3B3C3D3E9E
:1007F0003F404142434445464748494A4C4D4E4F8D
:1008000050515354555658595A5B5D5E5F6162644E
:10081000656668696B6C6D6F7072737577787A7BDB
:100820007D7E8082838587888A8C8E8F9193959632
:10083000989A9C9EA0A2A3A5A7A9ABADAFB1B3B552
:10084000B7BABCBEC0C2C4C6C9CBCDCFD1D4D6D82E
:10085000DBDDDFE2E4E7E9EBEEF0F3F5F8FAFDFFCC
:1008600011241FBECFE5D8E0DEBFCDBF04B603FE26
:1008700024C08091CF029091D002A091D102B0917A
:10088000D2028730904BA740B04BB9F41092CF0200
:100890001092D0021092D1021092D20214BE84B7EC
:1008A000877F84BF0FB6F894A89581B5886181BD14
:1008B00011BC0FBEE0E0F8E3099510E0A0E6B0E05F
:1008C000ECE6FCE402C005900D92A83EB107D9F712
:1008D00022E0A8EEB0E001C01D92AF3CB207E1F704
:1008E0000E94C40D0C9434260C940000A82FB92F3C
:1008F00080E090E041E050EA609530E009C02D9141
:1009000082279795879510F084279527305EC8F346
:100910006F5FA8F30895EADF8D939D930895CF93B9
:10092000CFB7CF93C395839BE9F7839B0EC0839B7F
:100930000CC0839B0AC0839B08C0839B06C0C091E8
:100940008402C395C0938402A6C0DF93C091AA021B
:10095000DD27C355DD4F839B02C0DF91E6CF2F9388
:100960000F931F9300B32FEF03FB20F94F933F9397
:1009700010B34FEF012703FB21F93BE031C04E7F5D
:10098000012F10B3216028C0102F4D7F226000007E
:1009900000B329C04B7F2460012F000010B32BC08F
:1009A00010B3477F28602AC04F7E00B320612CC05F
:1009B0004F7D10B320622FC04F7B00B3206432C044
:1009C000422700B349934FEF0000102713FB20F993
:1009D00010B31C70C9F1297F91F2012703FB21F9A3
:1009E00000B3237F89F2315058F1102713FB22F90D
:1009F00010B3277E79F2012703FB23F92F7C81F2C4
:100A000000B3102713FB24F92F7971F200C010B343
:100A1000012703FB25F92F7359F200C000B31027FB
:100A200013FB26F9223040F200C010B3012703FB6C
:100A300027F9243028F64F77206810B30000F9CF4B
:100A400010E81ABF00271CC03B503195C31BD04093
:100A500010E81ABF0881033C11F10B3401F1209119
:100A6000A8021981110F1213EDCF4A81441F0936D4
:100A700069F10D3211F0013E29F74F7009F0042F92
:100A8000009383023F914F911F910F912F91DF911E
:100A9000CAB7C7FD47CFCF91CFBFCF91189520914F
:100AA0008302222379F31091AB02112309F044C091
:100AB00034300AF443C03093AB022093A902109162
:100AC000AA023BE0311B3093AA0238C00091AB026E
:100AD000013094F50AE54F7049F430916E0034FD11
:100AE0002FC000936E00C5E8D2E02EC0433059F00D
:100AF000443091F03091900234FD22C00093900276
:100B0000C1E9D2E021C03091C30234FD19C0009385
:100B1000C302C4ECD2E018C030919C0234FD10C076
:100B200000939C02CDE9D2E00FC02795A8F4515064
:100B3000A9F4220F0000F9CF4AE503C042ED01C03D
:100B4000432FC4E1D0E032E011B31C60939A11BB93
:100B500002B320E41CE05F93012756E002BB279517
:100B600020F4515021F4220FF9CF012756E0000064
:100B70003B5A02BBD0F2279528F4515029F4220F9A
:100B80000000F9CF012756E0279502BB20F4515011
:100B900021F4220FF9CF012756E02991332302BB1C
:100BA00021F6037F1091AC02110FC651D04002BB59
:100BB00011F01093A80210E81ABF086011B3137F58
:100BC000402F437F5F9100C000C002BB11BB42BBFE
:100BD00059CF1F93CF93DF93CDB7DEB767970FB68B
:100BE000F894DEBF0FBECDBF4B8B5C8B6D8B7E8BC5
:100BF0008F8B61111092630186E09E01235F3F4F4E
:100C0000D901E82F1D92EA95E9F795E0FE01739668
:100C1000D90101900D929A95E1F79C894E895F89DF
:100C20007B897D879E876F87598B488BF901DE0111
:100C3000179601900D928A95E1F7CE0107960E94D2
:100C4000AE1581113EC086E0FE013796DE01119699
:100C500001900D928A95E1F7FF81E8856A857B8591
:100C60006115710531F0EF3F31F481E0FF3F19F478
:100C700003C081E001C080E080FD23C020912F01EE
:100C800030E0C9010196877099274091600150E0DA
:100C90008417950779F1F983EA837D836C8396E065
:100CA000929FD001939FB00D1124A05DBE4FFE0115
:100CB000319601900D929A95E1F780932F010E9451
:100CC0002B1516E08091600190912F018917F9F0A2
:100CD000189FC0011124805D9E4F0E94AE1588238D
:100CE000B1F08091600190E0019687709927809320
:100CF0006001E8CF0E943F2310922F011092600103
:100D0000E9E2F1E086E0DF011D928A95E9F7679656
:100D10000FB6F894DEBF0FBECDBFDF91CF911F910C
:100D2000089581FB222720F982FB992790F980FF03
:100D300002C0909A01C09098222311F0919A01C0AC
:100D40009198992311F0969A0895969808953F9254
:100D50004F925F926F927F928F929F92AF92BF92CB
:100D6000CF92DF92EF92FF920F931F93CF93DF9377
:100D7000CDB7DEB729970FB6F894DEBF0FBECDBF53
:100D8000FC018081918123813481232B31F09F3FAD
:100D900031F491E08F3F19F403C091E001C090E07D
:100DA00090FDDAC67F0185E0DE01119601900D927B
:100DB0008A95E1F7F701228189819A81222349F0FE
:100DC0000E946E22182F682F89819A810E94C92261
:100DD00003C00E949D22182F69817A81812F0E9471
:100DE000DD1F8C01F7018281882309F4F2C098018C
:100DF00022513F452031310508F01FC68FEF93E0A7
:100E00000E9428258111EEC0025137EF832E32E077
:100E1000932E002379F08114F4E09F0609F4E2C0D8
:100E2000C4010E942825811101C001502FEF821AB0
:100E3000920AEFCF1E821F8218861986442443949B
:100E40002AE0322E84010F5F1F4FC4010E94282523
:100E50008E831F82882309F4C5C09FEF980F9330BB
:100E600060F48F834E8232E0830E911CC8010E9491
:100E700028258887811102C0B5C048018E010A5F0C
:100E80001F4FF80120812223E9F2213009F04CC0E4
:100E90008181813049F46801F2E0CF0ED11CF80164
:100EA00082810E941D240AC0823051F46801F2E060
:100EB000CF0ED11CF80182810E949723860186C043
:100EC000833049F46801F2E0CF0ED11CF801828131
:100ED0000E945F23F3CF843019F00F5F1F4F76C05D
:100EE000F80122810E5F1F4F80E090E030E0205338
:100EF00031092A30310568F4389EA001399E500D21
:100F00001124C901840F951F0F5F1F4FF801208125
:100F1000EDCF009709F45AC0E7EBFBE03197F1F70A
:100F200000C000000197F5CFE22FF0E0E252FF4F42
:100F30005490822F86958695869590E0FC01E25329
:100F4000FF4F64902770712C022E02C07594679435
:100F50000A94E2F7F1E06F227724FC01E254FF4F9C
:100F6000A490B12C022E02C0B594A7940A94E2F783
:100F700031E0A322BB24FC01E255FF4FC490D12CE9
:100F800002C0D594C7942A95E2F781E0C822DD24F7
:100F90006114710419F081EE0E949723A114B10429
:100FA00019F086EE0E949723852D0E941D24AB2800
:100FB00019F086EE0E945F23672819F081EE0E94E7
:100FC0005F23CD2819F08CE20E941D240F5F1F4F74
:100FD00058CF0031FFE51F0749F581E00E94F82254
:100FE0000E94991C80916101877009F4B5C5F701D1
:100FF0008281882309F4B0C582E029960FB6F8945F
:10100000DEBF0FBECDBFDF91CF911F910F91FF903B
:10101000EF90DF90CF90BF90AF909F908F907F9098
:101020006F905F904F903F900C940E1501312FE51B
:101030001207A9F482E0D2CF0D3B3CE5130709F477
:101040000BC508F44CC50F3B2CE5120709F43AC553
:1010500008F463C5003C9CE5190709F40DC5033F7E
:10106000FCE51F0799F406E221EE40EE63EF7CE514
:1010700009C0073DECE51E0711F506E221EE41EE41
:1010800067ED7CE5C7010E945A1FACCF043F2CE5F9
:10109000120708F03FC1083D3CE5130731F407E2B1
:1010A00025EE45EE68ED7CE5EDCF093D9CE51907A1
:1010B00001F708E221E045EE69ED7CE5E3CF882306
:1010C00009F45DC11092870102309CE5190708F40C
:1010D00040C10631ECE51E0730F0C8018A5F9C452F
:1010E000099708F036C10E943B149093EC0080935E
:1010F000EB000031FCE51F0709F4C3C008F041C054
:1011000008303CE5130709F49AC0F0F404309CE57C
:10111000190709F487C068F40230FCE51F0709F4D9
:1011200077C003301C4509F0E5C08091EB00826078
:1011300076C006303CE5130709F46EC008F07BC0AA
:101140008091EB0088606BC00C309CE5190709F4B6
:1011500085C068F40A30FCE51F0709F474C008F084
:1011600079C00E943F238091EB00806858C00E3008
:101170003CE5130709F476C008F07FC08091EB00CE
:101180008BC00B3F9CE5190709F44FC018F50331DC
:10119000FCE51F0709F47DC078F401313CE5130735
:1011A00009F473C002311C4509F0A4C00E943F231A
:1011B0008091EB008F7733C005319CE5190709F466
:1011C00072C008F486C00A3F1C4509F093C08091A4
:1011D000EC003EC00F3F2CE5120709F45FC058F445
:1011E0000D3F8CE5180709F444C008F43FC0809116
:1011F000EC0082602DC00130EDE51E0709F475C0DA
:1012000008F45DC002301D4509F074C060E06EC096
:101210008091EB00816003C08091EB00806180933E
:10122000EB0068C08091EB0011C08091EC008260FF
:101230008093EC005FC08091EB008062F0CF8091E2
:10124000EB008064ECCF8091EB0088608460E7CF96
:101250008160EECF8091EB008E7FE1CF8091EB003B
:101260008D7FDDCF8091EB00877FD9CF8091EC001F
:1012700018C08091EC008D7FDBCF8091EB008F7EDA
:10128000CECF8091EB008F7DCACF8091EB008F7B1A
:10129000C6CF8091EB00877F8B7FC1CF8091EC0020
:1012A0008D7F8E7FC5CF8091EB0082FB222720F9B6
:1012B00091E0922790FB82F990FB83F9B0CF809167
:1012C000EC00982F909591708E7F892B90FB81F97F
:1012D000AFCF0E943F238091EB0087FB222720F9AC
:1012E00091E0922790FB87F99ACF61E08EE090E041
:1012F0000E943C256091EB001091EC0084E090E0AE
:101300000E943C25612F82E290E00E943C250E94D1
:101310003F2368CE053FFCE51F0731F406E221EECE
:1013200042EE65EF7CE5AECE053F2CE5120730F4CA
:1013300007E225EE44EE64EF7CE5A4CE063F3CE5F3
:10134000130709F0BCCE07E225EE46EE66EF7CE51A
:1013500099CE8091640106319CE5190741F58A7A9E
:1013600091E009F490E09093EA00882311F065E39E
:1013700001C069E281E291E00E94081F15C00631B8
:101380001C4509F02DC18091EA00882309F4E2C3CD
:1013900085E3E1E2F1E09281891301C01282319686
:1013A00031E0E732F307B9F70E94C7141BCE82720F
:1013B0000C3C9CE5190709F4C2C008F045C0063C86
:1013C000FCE51F0709F4A7C0D8F4033C3CE513076C
:1013D00009F497C030F4023CECE51E0709F46CC038
:1013E000CEC0043CFCE51F0709F490C0053C2CE589
:1013F000120709F0C4C04EE450E267E570E2A3C0F2
:10140000093C3CE5130709F490C078F4073CECE58F
:101410001E0709F485C0083CFCE51F0709F0AFC0B2
:1014200042E450E266E370E28EC00A3C2CE512070B
:1014300009F480C00B3C3CE5130709F0A0C045E867
:1014400050E266E970E27FC0013D8CE5180709F4BF
:1014500086C0A0F40E3CECE51E0709F47AC008F43F
:1014600075C00F3C2CE5120709F476C0003D3CE541
:10147000130709F084C06EE089E079C0043D8CE573
:10148000180709F472C068F4023DECE51E0709F480
:1014900069C0033DFCE51F0709F071C061E088E108
:1014A0006BC0053D2CE5120709F464C00D353DE520
:1014B000130709F497CD63C080917F0180FF1BC0A3
:1014C0008E7F80937F0160917F0170918001809178
:1014D0008101909182010E94732010926B018FEB29
:1014E00094EDE1E081509040E040E1F700C0000061
:1014F0000E946B1977CD816080937F0161E08695B2
:101500003BC04DE452E266E572E21DC046E552E2A0
:101510006DE472E218C047E550E26EE470E213C079
:1015200046E350E262E470E20EC04EE150E26AE24D
:1015300070E209C04AE250E26EE170E204C046E99E
:1015400050E265E870E20E9465194CCD61E081E0EF
:1015500013C065E082E00BC068E086E008C064E18B
:101560008FE005C067E185E102C062E289E10E9487
:10157000531938CD61E083E20E940B2233CD0A3546
:10158000FDE51F0741F150F401153CE51307A9F0F3
:101590000E3D1C4529F50E94571424CD0B359DE5C1
:1015A0001907D9F00C351D45D9F48091EC0082FB68
:1015B000882780F991E0892711C00E943F23FFEB23
:1015C00027E239E0F15020403040E1F700C0000050
:1015D0000E94A31E07CD81E001C080E00E94F414A8
:1015E000F701828100811181882349F0C8010E949E
:1015F0006E22D82E682FC8010E94C92204C0C801DB
:101600000E949D22D82EB8018D2D0E94DD1F0E94C0
:10161000B2128C01982EF701B280A580A2949FE0AF
:10162000A92280916101877099F0BB2089F0812FF8
:10163000807F803421F080E2800F883048F082E0A3
:101640000E940E15809161018770DD24D394811171
:10165000D12CC12EC2948FE0C8228C2D90E08C300A
:10166000910508F0B3C1FC01E65DFF4F0C94F22533
:10167000812F807F1F70882311F01295107FBB206F
:10168000B9F0112309F48EC180E2800F883010F088
:10169000911006C080916401182B1093640105C05D
:1016A00080916301182B109363010E94C7147AC1C3
:1016B000802F0E945F23112309F488C1005E1095DA
:1016C000083010F0911006C0809164011823109327
:1016D000640105C0809163011823109363010E9487
:1016E000C71474C1812F807F1F70803211F0129552
:1016F000107F992021F0F1E09F1611F130C0BB203E
:10170000B1F0AA2081F021E0A2120DC08091EC007E
:1017100082FD5CC180916501182B181709F456C130
:101720001093650153C180916501812B10C0AA20DF
:1017300021F031E0A31609F449C10E94C11427C069
:10174000BB2041F085E08A1508F440C1812F0E943A
:1017500055233CC194E09A1508F438C118C0BB2049
:1017600049F0AA2099F3F701858180FF1BC18F7092
:101770008583ECCFAA2059F0093309F024C1FFEF8B
:101780002DEE32E0F15020403040E1F71AC1812FB8
:101790000E944A231BC1812F86958695837019F07C
:1017A000813059F013C1BB2019F0C801937002C0F9
:1017B00080E090E00E94381F11C1BB2019F0C801E1
:1017C000937002C080E090E00E94221F07C1812F29
:1017D0008370A9F5B110FEC0402F42954695477021
:1017E000440F440F802F8F7090E09C01042E01C0A5
:1017F000220F0A94EAF704FF08C08FE090E001C0CE
:10180000880F4A95EAF7809501C080E016951695F5
:101810001370123069F088F490916601113019F05C
:10182000822B892302C0922B892B0E940F23D2C0C6
:10183000822B909166018927F8CF822BF6CFBB20AF
:1018400019F0812F817001C08695882309F4C2C0E8
:10185000402F429546954770440F440F802F8F705C
:1018600090E09C01042E01C0220F0A94EAF704FFC5
:1018700008C08FE090E001C0880F4A95EAF7809594
:1018800001C080E0169516951370123059F078F467
:1018900090914D02113019F0822B892309C0922BAF
:1018A000892B06C0822B90914D02892701C0822B83
:1018B0000E94F4228FC01F70BB2039F0812F0E943C
:1018C0000423802F0E94552385C0802F0E944A2325
:1018D000812F0E94F8227EC0802F92EF991659F135
:1018E000991538F0E0EF9E1659F0F1EF9F16F1F0E0
:1018F00055C023EF921631F134EF931681F14EC0AB
:10190000BB2079F084E08A1508F460C01F7181E083
:1019100090E001C0880F1A95EAF790914D0289274F
:101920001BC095E09A1508F451C0F0CFBB2029F0F8
:10193000812F8F7126C0BB20D9F3812F8F710E9418
:10194000F82244C0BB2039F01F7181E001C0880F2C
:101950001A95EAF701C080E00E94F42237C0BB204C
:1019600099F01F71812F0E9404238091EC0082FD69
:1019700007C0E8E01E9FC0011124836080936101CD
:10198000812F0E94042322C081E00E940E15F1E005
:10199000FA15E0F482E00E940E1518C0BB2031F069
:1019A000AA2031F2802F0E94972310C0AA2029F28A
:1019B000893349F42FEF3DEE82E0215030408040E2
:1019C000E1F700C00000802F0E945F2388EF8C0D9C
:1019D000843020F40E944E1F0E949106DD2009F4FD
:1019E000BBC08091610180FDB7C0F701128285956F
:1019F000859585950E940423C7010E94A7068091C2
:101A0000610185958595859529960FB6F894DEBF79
:101A10000FBECDBFDF91CF911F910F91FF90EF903F
:101A2000DF90CF90BF90AF909F908F907F906F90FE
:101A30005F904F903F900C94F8220031EFE51E0725
:101A400011F481E006C00131FFE51F0709F0F4CA77
:101A500082E00E940423C4CA80918401982F969545
:101A60009695969549F1915E990F990F990F877008
:101A7000892B8093840114C090918401892F8695CD
:101A8000869586958F5F8F71843008F05FC0880FD0
:101A9000880F880F9770892B80938401809184012F
:101AA000887F91E009F490E08091840190FB80F9B7
:101AB000809384010E940A198091840186958695FD
:101AC00086950AC08091840180FF1CC08E7F809320
:101AD00084010E940A1980E00E94AB1883CA0B3B64
:101AE000ECE51E0711F483E006C00C3BFCE51F0784
:101AF00009F0B5CA80E00E940F19809184010E940C
:101B00000A1970CA816080938401813019F489E0D8
:101B10008093840180918401CDCF20918401822F14
:101B2000869586958695482F50E04330510554F4AC
:101B30008F5F982F990F990F990F822F8770892B9C
:101B400080938401809184018160B2CF97709093DB
:101B50008401A4CF89E21DCC29960FB6F894DEBF8C
:101B60000FBECDBFDF91CF911F910F91FF90EF90EE
:101B7000DF90CF90BF90AF909F908F907F906F90AD
:101B80005F904F903F900895CF93DF93CDB7DEB72E
:101B90002A970FB6F894DEBF0FBECDBF0E94F11E8C
:101BA0009093200180931F0184B7806884BF84B71D
:101BB000806884BF86E592E19093E9008093E80015
:101BC00085B7886085BF8BB780688BBF8BE48093B7
:101BD00091028093C40280939D028AE580939002D3
:101BE0008093C30280939C028B9A80E0815041F0E5
:101BF000A895E7EBFBE03197F1F700C00000F6CFC6
:101C00008B9878948BE083BF8BEB8CBF82E089BF8D
:101C10000E949218811102C00E9483180AE710E006
:101C2000A2E8EA2EA0E0FA2EF80181918F018F3F01
:101C300011F00E949B12E016F106B1F702E810E0E5
:101C4000F1E9EF2EF0E0FF2EF80181918F018F3F37
:101C500011F00E949B12E016F106B1F7EDEEF0E0F4
:101C60008DEF90E0AFE0B1E0119211921D921D92C4
:101C70008E179F07C9F70E944C14811102C00E9461
:101C8000571482E090E00E94282580934F020E9422
:101C90003B149093EC008093EB000E944F17FFE3FE
:101CA00029E131E0F15020403040E1F700C0000070
:101CB0000E944F1780910F0180FF08C06FEF7FEFE8
:101CC00080E090E00E9459250E94A31E83E090E0EE
:101CD0000E9428250E940F23889A9098899A9198AB
:101CE0008E9A96988C9A949882E28FBD89E18EBDE7
:101CF0008FEF9FEF97BD86BD0E9428190E9428197B
:101D00008091FD00811133C00E944C14811104C0E8
:101D10000E9457140E94A72088E090E00E9430257E
:101D200060937F0170938001809381019093820181
:101D30006E7F71F40E94A72088E090E00E94302519
:101D400060937F0170938001809381019093820161
:101D50000E94602010926B0180917F0180FF04C07F
:101D600060E086950E940B2281E08093FD0080E672
:101D700090E090938B0180938A014FEB84ED91E08A
:101D8000415080409040E1F700C0000053E0452EF4
:101D9000512C66246A94712C7BE2E72E72E0F72EB8
:101DA000EEE5CE2EE1E0DE2E809184028823B9F0AC
:101DB000109284020E94F11E9093200180931F01D3
:101DC00080918E018823A1F110928E010E943F2301
:101DD0000E9428190E944E1F0E94910611C08091F6
:101DE0008E01811111C080911F01909120010E94EC
:101DF000E21E069728F081E080938E010E94FD1E6E
:101E000080918E018823A1F081E080938E010E9451
:101E1000FD1E0E944F178FE191E0EFE0F1E021916C
:101E20003191232B09F01BC38E179F07C1F7BCCF3D
:101E30000E94A41C80914502882309F409C1809165
:101E4000900284FF05C10E944F17882359F08FB775
:101E5000F89440918F01509190016091910170919F
:101E600092018FBFAFEFB0E0EFE0F1E000E010E0F3
:101E7000702F219131918D919D9182279327009709
:101E800079F160E0AA24A394B12CAC014A215B2132
:101E9000452B09F169837A832A213B2181E0232B99
:101EA00009F480E08B830E94F11E8160782F9D836E
:101EB0008C8349815A816B818D810E94E905000FD5
:101EC000111FF801E150FF4F80819181A826B926AA
:101ED000B182A0821AC06F5FAA0CBB1C6F30A9F63A
:101EE0000F5F1F4F0830110519F68FEF8E838F8318
:101EF00018860E94F11E8160782F9A8789874E810B
:101F00005F8168858A850E94E90580916B0188233D
:101F100009F492C080916A01E0917F01E695E81B87
:101F2000E0935202823059F4F0E0E459FE4FE4911C
:101F30000E2F10E08BE2A82E88E1B82E58C0863014
:101F400059F4F0E0E759FE4FE4910E2F10E0BBE1A9
:101F5000AB2EB8E1BB2E4BC0893061F4E695F0E0C2
:101F6000EA59FE4FE4910E2F10E0ABE0AA2EABE150
:101F7000BA2E3DC08F3061F4E695F0E0ED59FE4F8A
:101F8000E4910E2F10E0FEE9AF2EFAE1BF2E2FC034
:101F9000853159F4F0E0E05AFE4FE4910E2F10E045
:101FA000E0E5AE2EEAE1BE2E22C0883199F0833200
:101FB00041F4F6010591149176E4A72E7BE1B72E4A
:101FC00016C0843271F000ED17E06AE1A62E68E1D8
:101FD000B62E0DC008E210E057ECA52E59E1B52E43
:101FE00006C004EF11E04DE8A42E49E1B42E809123
:101FF0005302882361F0109253020E94F11E9093C5
:1020000051028093500210925502109254020E9485
:10201000F11EE0915002F09151028E1B9F0B8F3FF9
:102020009F4750F40E0F1F1F109351020093500250
:1020300080E592E0F50109950E944E1F9091FE0007
:10204000891731F00E944E1F8093FE000E94910676
:102050000E94481E0E94A41C80914502882309F416
:10206000A3CE8091C30284FF9FCE80913B02803239
:1020700009F09ACEE0911B028E2F90E0FC0131977F
:10208000E331F10508F0C2C1EA5CFF4F0C94F22580
:1020900010921C0218C180911C02823009F4F9C10F
:1020A000833099F0813009F0B1C12FB7F894809155
:1020B0008F0190919001A0919101B09192012FBF59
:1020C000B0931D02A0931E022AC0EBE1F2E0AFE044
:1020D000B1E08C9111969C91119712969283838313
:1020E0003296EE16FF06A9F794C180911C02823049
:1020F00009F08CC160911D0270911E0280911F0237
:10210000909120020E94F82586E290E02DC0409137
:102110001E0260911D0280911C020E943F18909344
:102120001F02C1C1A0901F02B0902002BA24AB24AC
:10213000BA2480911E0200911D0290911C02FEE1C2
:102140000F9F8001112420EF929F000D111D11247B
:10215000080F111D080F111D6B2DC80187960E94D5
:102160003C256A2DC80188960E943C2552C10E94D8
:10217000EA1F4FC180911C02893061F480911D02D9
:1021800033E0839FC0011124B3010E941425862FE0
:102190000E940F1980911C028138C9F058F48038D0
:1021A00009F037C120E040911D02609181018091CA
:1021B000800136C0823879F1833809F02AC120E0E5
:1021C0004091820160911E0280911D0229C060E051
:1021D00080911D020E940B2290911D0280917F012F
:1021E000911111C08E7F80937F0110926B014FEB94
:1021F00084ED91E0415080409040E1F700C0000044
:102200000E946B1906C1816080937F0160E0869512
:102210000E940B22FEC080911D0280938301F9C0B1
:102220000E94861BF6C080911C02893029F08A30FA
:1022300091F410921D02EDC08091840186958695DF
:102240008695EFEF8E9FC0011124B2010E941425E4
:1022500060931D02DEC08138A9F030F4803809F0A7
:10226000D8C08091820113C08238B1F0833809F060
:10227000D0C08091800180931D0280918101809364
:102280001E02C7C080917F0180FF04C086958093A5
:102290001D02BFC080E0FBCF80918301F8CF809109
:1022A00084010E940A1960917F01709180018091E0
:1022B0008101909182010E947320ABC080E158C0DF
:1022C00081E080931C0289E0E2CF00911C02109112
:1022D0001D0210270127102780901E02912C3BE140
:1022E000A32E32E0B32EC80189509D4F95012B518A
:1022F00032402815390508F08CC00930F1E01F077D
:1023000028F40E942825F501848302C0F501148277
:102310000F5F1F4FFFEFAF1ABF0AE5CF00911C02FE
:1023200010911D0210270127102780901E02912C6A
:102330002BE1A22E22E0B22EC80189509D4F9501BB
:102340002B5132402815390508F063C0093021E0CF
:10235000120720F4F50164810E943C250F5F1F4F96
:10236000FFEFAF1ABF0AE8CF0E94CD1F52C083E033
:1023700080931C024EC000911C0210911D02102778
:102380000127102780901E02912C9BE1A92E92E03C
:10239000B92EC801879695012B5132402815390571
:1023A000C0F5003D22E0120728F40E942825F5011F
:1023B000848302C0F50114820F5F1F4FFFEFAF1A35
:1023C000BF0AE7CF00911C0210911D0210270127C0
:1023D000102780901E02912C8BE1A82E82E0B82E4F
:1023E000C801879695012B5132402815390588F48C
:1023F000003D22E0120720F4F50164810E943C2593
:102400000F5F1F4FFFEFAF1ABF0AEACF8FEF809326
:102410001B020BE112E080919C0284FD03C00E942C
:10242000A41CF9CF4CE952E068E0C8010E94FB1DF2
:10243000085F1F4F22E00B33120769F780919C025F
:1024400084FD03C00E94A41CF9CF4CE952E060E077
:1024500080E090E00E94FB1D10923B02A5CCF89416
:1024600021B3939A822F8C6081BB92B38CE0982722
:1024700092BB3FE54AEE90E0315040409040E1F79A
:1024800000C0000092B3892782BB21BB9398789447
:102490008BCC86E290E00E94282510921D021092BB
:1024A0001E0210921F0280932002B3CF80E0089595
:1024B0009091EB0092FF0DC0282F2871283019F45D
:1024C000877F846006C0282F2471243011F48B7F0D
:1024D000886093FF0DC0282F2871283119F4877E5A
:1024E000846106C0282F2471243111F48B7E886109
:1024F0002091EC0020FF0DC0382F3871383019F4CE
:10250000877F816006C0382F3171313011F48E7FA2
:10251000886021FF0DC0282F2871283119F4877E8B
:10252000816106C0282F2171213111F48E7E8861CE
:1025300094FD877E0895F894E82FE295EF70F0E01F
:1025400031A9282F2F7081E090E001C0880F2A95D3
:10255000EAF7982F9095932391AB92A9892B82ABA0
:1025600078940895CF93DF938238910569F1B0F4A0
:102570008133910509F46FC048F48932910509F45B
:1025800065C08A32910509F46BC08AC08533910514
:1025900009F457C089339105B9F082C0833E910593
:1025A00071F138F4803E9105B1F0823E910511F150
:1025B00077C0863E9105B9F1873E9105C9F1843E09
:1025C000910509F06DC024C02091EB0020FD53C09F
:1025D00021FD51C065C08091EB0080FD46C0809117
:1025E000EC0080FF48C08091EB0084FD3FC183EE8A
:1025F00090E03EC18091EB0082FF3AC0F4CF809121
:10260000EB0082FD35C08091EC0080FD34C0EBCF43
:102610008091EC0081FF35C08091EB0084FD26C1E4
:1026200087EE90E025C18091EB0083FF27C0F4CFB7
:102630008091EB0083FD22C08091EC0081FD21C0E0
:10264000EBCF8091EB0085FD1FC021C08091EB0096
:1026500085FD1DC019C08091EB0086FD1BC01DC00B
:102660008091EB0086FD19C015C089E390E000C1A0
:1026700082EE90E0FDC080EE90E0FAC086EE90E041
:10268000F7C084EE90E0F4C089E290E0F1C085E309
:1026900090E0EEC08AE290E0EBC081E390E0E8C019
:1026A000811532E5930708F069C0811541E594076B
:1026B00028F0982F8827816F906ADAC0883E9105AC
:1026C00068F5803E910508F0D3C0883A9105B8F4CA
:1026D000853A910548F0855AE82FF0E0EF56FF4F14
:1026E000808190E09064C4C08130910509F4BBC042
:1026F00008F4BCC08430910508F4B8C0B9C08F3B61
:10270000910508F0B3C0885AE82FF0E0EE0FFF1FE4
:10271000EC56FF4F808191819464AAC0811520E519
:102720009207F0F09C0174E0369527957A95E1F7D1
:10273000922F9370482F437021E030E002C0220FA7
:10274000331F4A95E2F73C68392B8F70982F969586
:10275000969540E2949FC0011124822B932B88C050
:10276000811530E4930718F09F70906A81C09C0136
:102770003A9521153F4108F47BC078C0EC01C115A2
:1027800086E5D807E8F5C11525E5D20748F08C2F76
:102790000E9458128F7190E0982F8827906268C02D
:1027A000C11534E5D30728F09C2F8827846F906AE1
:1027B0005FC0AE01437055272C2F26952695C11575
:1027C000D34578F481E090E002C0880F991F4A95C4
:1027D000E2F740E2249F90011124822B932B9C6806
:1027E00047C081E090E002C0880F991F4A95E2F748
:1027F00040E2249F90011124822B932B9A6838C0C9
:10280000C1152AE5D207F8F4C11539E5D30790F0D0
:102810008C2F8F700E94581294E0D695C7959A9588
:10282000E1F7CF70D0E0DC2FCC27D0699E01282BB8
:10283000C9011EC0C11548E5D407C0F09C2F8827E8
:10284000806F906A15C0CE0190568115904270F449
:102850008D2F8F710E945812282F2F71CE0199272A
:102860009062922B05C081E090E002C080E090E091
:10287000DF91CF910895CF9384E090E00E942825C6
:10288000C82F82E290E00E9428252C2F30E0A90179
:10289000582BCA01CF91089580E090E00E94362520
:1028A000893E9E4F11F40C94921880E0089569EED1
:1028B0007EEF80E090E00E94592560E082E090E0A9
:1028C0000E943C2560E083E090E00E943C2510924D
:1028D000660160E084E090E00E943C2560E082E2D6
:1028E00090E00E943C2560E085E090E00E943C255D
:1028F00060E086E090E00E943C256FEF87E090E08A
:102900000E943C2540E050E0BA0188E090E00E943F
:102910004D2560E08DE090E00E943C2540E050E0D5
:10292000BA0188E190E00E944D2560E087E190E0E7
:102930000E943C2540E050E0BA018CE190E00E940A
:102940004D2560E070E080E290E00E94592540E073
:1029500050E0BA0188E190E00E944D2580E00E949D
:1029600065180E94831840E050E0BA018FE090E0C3
:102970000E944D2540E050E0BA0183E190E00C94C4
:102980004D25809165018111109265010895909106
:10299000640180916301892B20916201982F922B11
:1029A0009093210180916501882389F0892B809380
:1029B0002101E3E2F1E097E080E0915029F02191DC
:1029C0002223D9F38F5FF9CF81110E94C114E091C6
:1029D0008A01F0918B01309731F00280F381E02D74
:1029E00081E291E009940895CF93C091EC00C2FB7D
:1029F000992790F9981781F080FBC2F9C093EC00F9
:102A00006091EB0084E090E00E943C256C2F82E214
:102A100090E0CF910C943C25CF91089520916101D5
:102A20008095822380936101982F977041F430E064
:102A3000482F082E000C550B2417350721F49091D0
:102A4000EC0092FF07C08595859585950E94F82238
:102A50001092610108958091600190912F01891772
:102A600019F08F5F8770FBCF08950F931F93CF935B
:102A7000DF9380912E0182958F7009F05DC0809167
:102A80002B01882309F458C08091600110912F0117
:102A90006091290170912A01C0912C01D0912D01E2
:102AA00091E06F3F09F090E0292F06E0811709F4CB
:102AB00043C0209721F07F3F21F030E003C031E098
:102AC00001C0322F90E030FD34C0089FF001099F13
:102AD000F00D1124DF01A05DBE4F11963C911197BE
:102AE000371327C03C91361324C012963C9112979D
:102AF00031111FC013964D915C9114974C1B5D0BC7
:102B0000483C5105B0F480912E018F708061809314
:102B10002E01EB5CFE4F80818F708061808389E2A3
:102B200091E00E94A706DF91CF911F910F910C9425
:102B30002B1501968770BACFDF91CF911F910F911E
:102B40000895CF93DF93EC010E946E22BE010E9494
:102B5000DD1F0E94B212DF91CF9108959F92AF9234
:102B6000BF92CF92DF92EF92FF920F931F93CF937A
:102B7000DF93CDB7DEB761970FB6F894DEBF0FBE17
:102B8000CDBF8C0185E0F801DE011D9601900D920C
:102B90008A95E1F7F801E2809091290160912A017C
:102BA00040912C0150912D014115510531F06F3F9D
:102BB00031F481E09F3F19F403C081E001C080E05F
:102BC000F82FF1709F2E80FD1AC1F801308121810C
:102BD000C380D48089E2A82E81E0B82EF0902B012A
:102BE000F601E41BF50BFF2009F4C6C080912E010D
:102BF000E83CF10508F091C0482F407F09F050C033
:102C0000621311C093130FC0FE2CE1100CC08F7023
:102C1000806180932E01C5010E94A70680912E013C
:102C2000F801858329C1CD2831F02F3F31F481E0AF
:102C30003F3F19F403C081E001C080E080FD03C084
:102C400081E08E2502C080E090E0F82FF170FF2E29
:102C500080FF1CC08091600140912F0156E08417D5
:102C600009F4E8C090E0589FF001599FF00D11243D
:102C7000E05DFE4F6181261306C06081631303C0CF
:102C80006281E61203C001968770E9CFFE2CEE2028
:102C900009F4F2C080912E01816080932E0149C019
:102CA000621306C0931304C0E11002C0F80186C08D
:102CB000C8010E941323882351F1EE2041F1209195
:102CC0002E01822F82958F7090E0029774F0809190
:102CD000290190912A0198878F831986DB86CA86FD
:102CE0002C87CE0107960E94A70686E0F801A9E28C
:102CF000B1E001900D928A95E1F70E9435150AC066
:102D00006217C9F0C8010E94132381111EC0C801B7
:102D10000E94A706FF24F394AFC0482F407F81F79D
:102D200089E291E00E94A70686E0F50111928A955A
:102D3000E9F7F12CA1C09313E5CFE110E3CFF8013F
:102D40008583C8010E94A70654C0EE2001F320919C
:102D50002E01822F82958F7090E0029734F280913D
:102D6000290190912A019A8389831B82DD82CC827A
:102D70002E83CE010196B7CFE83CF105D0F5FE2CAD
:102D8000EE2029F2621327C0931325C020912E0153
:102D900020FD18C0822F82958F70482F50E041157A
:102DA000510581F0F80125834F30510541F08F5FC7
:102DB000982F9295907F822F8F70892B8583C801E1
:102DC0000E94A70686E0F801A9E2B1E001900D9209
:102DD0008A95E1F751C0C8010E941323811185CF64
:102DE00080912E01816080932E01C8010E94A70668
:102DF00043C086E0F50111928A95E9F73DC0EE20C7
:102E000009F485CFC8010E941323F82E882309F402
:102E10007ECF86E0F801A9E2B1E001900D928A959B
:102E2000E1F78091290190912A010E94A1150E9449
:102E3000351522C03D872E878D859E850E94A11560
:102E4000292F22952F70223028F49F7039F081119C
:102E500005C00BC0243028F49F7049F4805E883090
:102E600020F0C8010E94A7069F2CF92C05C0F8018C
:102E70009581907F99F7F9CF8F2D61960FB6F894D1
:102E8000DEBF0FBECDBFDF91CF911F910F91FF909D
:102E9000EF90DF90CF90BF90AF909F9008958F926A
:102EA0009F92AF92BF92CF92DF92EF92FF920F93D9
:102EB0001F93CF93DF93CDB7DEB760970FB6F8942B
:102EC000DEBF0FBECDBFAE014F5F5F4F7A0180E125
:102ED000DA011D928A95E9F70AE710E06A01AA244F
:102EE000A394B12CF80180818F3F09F44DC0F89470
:102EF000E82FE295EF70F0E021A98F70A50102C0E4
:102F0000440F551F8A95E2F7CA01922F982B91AB77
:102F100092A98095892382AB789400C0E2E8F0E022
:102F200020E030E0812C912C81918F3FC1F0A82FBF
:102F3000A295AF70B0E0D0964C9150E08F70DA015E
:102F400002C0B595A7958A95E2F7A0FD08C0C50116
:102F5000022E02C0880F991F0A94E2F702C080E097
:102F600090E0882A992A2F5F3F4F2F303105E1F6F4
:102F7000F80180818F3F11F00E949B12F8E7FA95CB
:102F8000F1F7D6018D929C920F5F1F4FB2E0CB0EEE
:102F9000D11CE0E002381E0709F0A4CF40E150E068
:102FA000B7018DEE90E00E94272611E0009709F40A
:102FB00010E0892B89F080E1F701ADEEB0E00190DF
:102FC0000D928A95E1F781E0809369010E94F11EDC
:102FD0009093680180936701809169018823B1F023
:102FE00080916701909168010E94E21E059770F040
:102FF000EDEEF0E0AFE0B1E0819191918D939D9382
:1030000040E0ED3FF407C1F710926901812F60960F
:103010000FB6F894DEBF0FBECDBFDF91CF911F91E9
:103020000F91FF90EF90DF90CF90BF90AF909F9067
:103030008F9008950895CF93DF93EC01EFE7F1E0CF
:10304000438162818C810E944C218C818F5F8C83B3
:10305000DF91CF910895CF93DF93EC01EC81F0E005
:10306000EB58FE4F4491EFE7F1E0628181810E94CD
:103070004C218C818F5F8C83DF91CF9108950F93CA
:103080001F93CF93DF93C42FD0E0CC0FDD1F2EE131
:10309000629FC00DD11D112430EF839FC00DD11D43
:1030A0001124CE0187960E942825082F10E0102FAA
:1030B0000027CE0188960E9428259801282BC90157
:1030C000DF91CF911F910F910895CF93C82F811158
:1030D00002C06FEF01C061E283E290E00E943C25F4
:1030E000C11102C06FEF01C060E184E290E00E9474
:1030F0003C25C11102C06FEF01C060E185E290E0A4
:10310000CF910C943C2580E00E94651860E086E237
:1031100090E00E943C250E94EA1F0E94CD1F81E0A2
:103120000C94651883E290E00E942825813281F496
:1031300084E290E00E942825803151F485E290E0FD
:103140000E94282591E0803109F090E0892F01C08C
:1031500080E081700895CF92DF92EF92FF928430E9
:1031600038F4811106C09FB59F7D9FBD949804C01F
:1031700083E09FB590629FBD282F30E0AFEFBFEF97
:103180000E94B12523E030E040E050E00E948F250E
:10319000B42FA32F922F8827492F5A2F6B2F7727D1
:1031A000CA014C3724E1520728F469E070E00E941C
:1031B000142529C0DB01CA018A50974DAF4FBF4F7C
:1031C0006627782F892F9A2F25EF38E241E050E0CB
:1031D0000E948F2569017A01CA01B9010E94C025A8
:1031E0009B01AC01C701B6010E94C025BB27A92FD6
:1031F000982F872F009721E0A207B10511F0BC019D
:1032000002C06FEF7FEF79BD68BDFF90EF90DF9058
:10321000CF900895682F86E090E00C943C25843090
:1032200008F083E0909184019770282F220F220FDD
:10323000220F922B90938401987F21E009F420E0E3
:103240009091840120FB90F9909384010C94AB1829
:103250000E944C1481110AC00E945714809184016D
:1032600084708961809384010E940A1986E090E04D
:103270000E94282580938401282F2695269526953F
:1032800030E02430310524F0877088618093840118
:103290008091840180FF04C086958695869501C043
:1032A00080E00C94AB1890917F0190FF04C096953C
:1032B000981740F003C0811105C090E0961710F4F4
:1032C0000C94562261E00C940B22882311F0FA0131
:1032D00001C0FB01099480917F0180FF0AC08091A9
:1032E0006C01811111C00E943B2481E080936C012C
:1032F0000BC0E0E7F1E0118210821282339681E088
:10330000EF37F807C1F7EBCF24E630E04FE050E0AD
:1033100060E771E080EB0C94EE24EF92FF920F9344
:103320001F93CF93DF938C01C0E7D1E0E12CF12C08
:10333000F8018481F2E0EF16F1041CF4882339F0DF
:1033400002C0811104C09E014091820102C09E0111
:1033500040E060918101809180010E94B6208FEF52
:10336000E81AF80A239695E0E916F10409F70E9495
:103370006B19F801848190E001968170992784830C
:10338000DF91CF911F910F91FF90EF9008958F9251
:103390009F92AF92BF92CF92DF92EF92FF920F93E4
:1033A0001F93CF93DF93EC014C81042F10E0980121
:1033B000D8010E94B1259B01AC010E947C256B01C4
:1033C0007C01E0E2F0E0E01BF10BA5E5B0E09B0141
:1033D000AC010E947C254B015C019F01DF010E9432
:1033E000FF259B01AC010E9487259B01AC012C0DA0
:1033F0003D1D4E1D5F1DC501B4010E948F25822F0A
:10340000F22E99E2921728F093E0299F900111245F
:103410000DC025E530E0281B3109C901880F991F2F
:10342000280F391F37FF02C02F5F3F4F3595279573
:10343000122F109590E7C92E91E0D92E00E085E576
:10344000E82EEF1801FD02C08E2D01C08F2D9601D0
:10345000412F609181010E94B6200F5F83E0C80E6A
:10346000D11C053079F70E946B198C81811102C043
:1034700091E003C0803219F49FEF90936C0090911B
:103480006C00890F8C83DF91CF911F910F91FF907A
:10349000EF90DF90CF90BF90AF909F908F90089566
:1034A0000F931F93CF93DF93C0E7D1E0FE0111820A
:1034B00010821282339681E0EF37F807C1F700E0FF
:1034C00010E080916E01082E000C990B0817190767
:1034D00094F080916B00082E000C990B80179107D7
:1034E00054F09E01409182016091810180918001A0
:1034F0000E94B62003C0198218821A820F5F1F4FE4
:10350000239605301105E9F60E946B1980916A0037
:1035100090916E01980F90936E0120916B00280F8F
:1035200020936B00121614F494301CF08195809354
:103530006A00DF91CF911F910F910895BF92CF92B2
:10354000DF92EF92FF920F931F93CF93DF93FC01D3
:10355000828180FF03C0DD24DA9402C0DD24D3948D
:1035600000E711E0C0E0D0E025E0B22EF8011182C2
:103570001082128294E0E92EF12CC12C80916D0111
:103580008C0D86302CF06B2D0E94D025892F02C027
:1035900087FD8B5F082E000C990BC817D90791F493
:1035A000809182018E9DA0018F9D500D1124559513
:1035B00047955595479598016091810180918001CB
:1035C0000E94B620CD0CF1E0EF1AF108B9F6219671
:1035D0000D5F1F4FC530D10549F60E946B198091D0
:1035E0006D0191E0D91206C0811102C084E007C0CC
:1035F000815005C090E00196BE010E94DE258093B7
:103600006D01DF91CF911F910F91FF90EF90DF90AF
:10361000CF90BF900895EF92FF921F93CF93DF93C7
:10362000EC0180E7E82E81E0F82E10E08C81970114
:103630004091820160918101810F0E94B6201D5C42
:1036400083E0E80EF11C1F3F89F70E946B199A81F5
:103650008C8190FF02C08F5F01C081508C83DF910D
:10366000CF911F91FF90EF90089590917F0190FF6F
:103670000CC0E0E7F1E0818360834283339691E000
:10368000EF37F907C1F70C946B1908950F931F9347
:10369000CF93DF9300D01F92CDB7DEB78C0180911E
:1036A0006F0181110AC09E012F5F3F4F4FEF6FEFF7
:1036B0000E94B6208A8180936F01F8018481813055
:1036C00051F028F0823061F440916F010AC080917E
:1036D0006F0140E007C060916F0140E080E003C0EF
:1036E00040E080E060E00E94351BF801848190E0BA
:1036F000019663E070E00E94DE2584830F900F90B6
:103700000F90DF91CF911F910F9108955F926F926B
:103710007F928F929F92AF92BF92CF92DF92EF9261
:10372000FF920F931F93CF93DF9300D01F92CDB7DB
:10373000DEB7182F762E042F622E90917F0190FF16
:103740006DC0E92FE695AE2FB0E0AE53BF4F8C9120
:1037500080936A019E7F923061F49E012F5F3F4FFC
:10376000812F0E94B6204B8169818A810E94351B7E
:1037700043C0823019F4009182013EC0863019F4B2
:103780001091800139C08930D9F38931A9F5E95107
:103790008E2F8170582EE695F0E0E059FE4FA590EF
:1037A000B49080E7C82E81E0D82EE12CF12CBB2408
:1037B00095E0892E912CAE9CC001AF9C900DBE9CD3
:1037C000900D1124B4010E941425812F511002C0C4
:1037D000860F01C0861B9601402F672D0E94B620E0
:1037E0008FEFE81AF80A83E0C80ED11C85E0E816CE
:1037F000F10409F70E946B19109380017092810106
:1038000000938201662051F060917F0170918001E8
:1038100080918101909182010E9473200F900F90FE
:103820000F90DF91CF911F910F91FF90EF90DF905C
:10383000CF90BF90AF909F908F907F906F905F9050
:103840000895FC0193819330D9F068F4913081F0B0
:10385000923009F068C083EF96E090934C02809319
:103860004B028BE50895913251F19232E1F15BC048
:103870008EE497E090934C0280934B0282E108958E
:1038800082818130A1F058F0823009F04CC089EC7F
:1038900096E090934C0280934B028AE008958FEE5D
:1038A00096E090934C0280934B0284E0089585ED5E
:1038B00096E090934C0280934B0288E108958281B8
:1038C000813049F028F0823071F58EE397E005C031
:1038D00085E097E002C08EE197E090934C028093E0
:1038E0004B0289E00895848195818130910599F09A
:1038F00050F00297C1F485E396E090934C028093D8
:103900004B0282E3089589E896E090934C028093FD
:103910004B0280E4089587E696E090934C028093F2
:103920004B0282E2089580E0089508958091460256
:10393000089580914D02982F9670963011F488600A
:1039400001C0877F0C94F422CF93DF938091AB0268
:10395000835087FDE4C09091AA02CCE0D0E0C91B5F
:10396000D109C355DD4F9091A9029031D0F4883030
:1039700019F010923B02D1C080913B02E82FF0E099
:10398000E931F105B4F7E55EFD4F9E01285F3F4F39
:10399000999191932C173D07D9F7885F80933B024B
:1039A000BCC09D3209F0A0C0883009F0B6C083ECDD
:1039B000809385028AE580936E0010924A02888186
:1039C0008076D9F1803209F084C08981813069F430
:1039D0008C819D81892B09F07CC08DE392E09093CE
:1039E0004C0280934B0288E075C0823041F48CE336
:1039F00092E090934C0280934B0281E06BC08A303E
:103A000021F48B8180933C0264C0893009F061C04D
:103A10008A819B818115924009F0DCC08C819D8157
:103A2000892B09F0D7C081E0809349028E819F8164
:103A30009093480280934702CDC09A8110928E02E3
:103A40008981811106C010928F022EE832E082E057
:103A50003BC0853019F49093AC0233C08630B9F482
:103A60008B81813041F0823031F0833021F081321E
:103A700011F0823221F4CE010E94211C01C080E0AD
:103A800090E490934A028F3F09F4A4C023C0883089
:103A900089F0893019F49093450213C08A3069F097
:103AA0008B3079F48BE4809391028093C4028093ED
:103AB0009D0207C025E432E002C02EE832E081E03A
:103AC00003C02EE832E080E030934C0220934B029A
:103AD00001C080E09F81911104C09E81981708F475
:103AE000892F80936D0019C080914A0287FF15C00D
:103AF0008091470290914802892B09F475C080910A
:103B00004902813009F070C088818093460210928A
:103B100048021092470210926D001092AB02809101
:103B20006E0084FF4CC080916D008F3F09F447C048
:103B3000C82F893008F0C8E08C1B80936D009091ED
:103B4000850288E8892780938502CC2359F18091EA
:103B50004B0290914C0220914A0226FF12C0A5E828
:103B6000B2E02C2FAC0145585240FA01EA0FFB1F7E
:103B7000E4911196EC931197215011962111F5CFF4
:103B800008C0E6E8F2E0DC012C2F3D913193215092
:103B9000E1F701962FEF2C0F820F911D90934C02AD
:103BA00080934B026C2F86E892E00E948B04CC5FDE
:103BB000CC3019F08FEF80936D00C0936E0084E1DC
:103BC00090B39C70A9F48150D9F71092AC02109276
:103BD000A8020EC0888187FF05C08E8190E890936F
:103BE0004A027FCF8FEFFACF8EE180936E0095CFA0
:103BF000DF91CF9108951F93CF93DF93162FEA01A2
:103C0000288124FF05C0398128E82327298302C0A1
:103C10002AE52883212FFC01CE010296DC01319197
:103C20003D9321501216DCF3612F0E948B041C5F20
:103C30001883DF91CF911F91089590911A029813E4
:103C400007C0209118023091190226173707B9F0E2
:103C500080931A02709319026093180280931502E0
:103C600070931702609316028091C30284FF07C00D
:103C700043EC52E063E085E192E00C94FB1D089573
:103C8000BC0184E00C941D1EBC0183E00C941D1E3D
:103C9000CF93DF93CAE0D0E08091900284FF1AC0F6
:103CA00080911302909114029817F1F028E0829FFE
:103CB000C001112440E952E068E08D569E4F0E94F9
:103CC000FB1D8091130290E001968F7099278093DD
:103CD00013020AC00E94A41C87EB9BE00197F1F736
:103CE00000C000002197C1F6DF91CF910895CF93D6
:103CF000DF93EC01A0911402B0E0CD0101968F702A
:103D0000992720911302281779F093E0AA0FBB1F7F
:103D10009A95E1F7AD56BE4F98E0FE0101900D92E5
:103D20009A95E1F7809314020E94A41C0E94481EF9
:103D300088E0FE01ADE3B2E001900D928A95E1F7D3
:103D4000DF91CF91089560E081E090E00E945F25CF
:103D500087E090EBDC018093CF029093D002A09398
:103D6000D102B093D2029CE088E10FB6F894A895F6
:103D700081BD0FBE91BDFFCF78941F920F920FB6F9
:103D80000F9211248F939F93AF93BF9380918F01D4
:103D900090919001A0919101B09192010196A11D85
:103DA000B11D80938F0190939001A0939101B093E6
:103DB0009201BF91AF919F918F910F900FBE0F9085
:103DC0001F9018959C014FB7F89480918F019091A6
:103DD0009001A0919101B09192014FBF821B930B72
:103DE00008952FB7F89480918F0190919001A09140
:103DF0009101B09192012FBF089580918E01882387
:103E000031F080E00E94AB1880E00C949106089598
:103E10009C01FC0132969FEF80E04191461789F0AA
:103E20009F3F19F4411101C0982F8F5F8630A9F789
:103E30009F3F39F0F901E90FF11D97FDFA95628373
:103E40000895089520918C0130918D01281739072C
:103E500071F090938D0180938C01E0918A01F09133
:103E60008B01309721F00084F185E02D09940895AD
:103E700020918801309189012817390771F09093BA
:103E8000890180938801E0918A01F0918B0130973C
:103E900021F00680F781E02D09940895E0918A01D0
:103EA000F0918B01309721F00190F081E02D099481
:103EB00080E008950F931F93CF93DF93C42FD22FE9
:103EC000FC0182818823C9F0409387010E94F11E82
:103ED000909386018093850180E28C0F883008F0F2
:103EE00057C0C77081E001C0880FCA95EAF7DF911B
:103EF000CF911F910F910C94552380918701481306
:103F000030C080918501909186010E94E21E883C1C
:103F1000910538F510E21D0FCD17B9F080E28C0F36
:103F2000883040F4C77081E001C0880FCA95EAF775
:103F30000E944A23183028F581E09D2F977001C018
:103F4000880F9A95EAF70E945523802F0E941D241E
:103F50001830F0F4D77081E001C0880FDA95EAF7E5
:103F60000AC080E28C0F883098F4C77081E001C0ED
:103F7000880FCA95EAF7DF91CF911F910F910C94AA
:103F80004A23802FDF91CF911F910F910C941D2414
:103F9000DF91CF911F910F910895CF93DF93C7EFDA
:103FA000D2E060E0CE010E943C252196C11584E05C
:103FB000D807B9F7DF91CF910895462F833038F4B1
:103FC000783028F46F3018F4672F0C943F1880E095
:103FD00090E00895CF92DF92EF92FF920F931F939C
:103FE000CF93DF93C0E0D0E08E0100511F4F6E01F0
:103FF0008EE1C80ED11CFE01EB58FD4FE590F49008
:104000006F2DCE0187960E943C256E2DCE0188969D
:104010000E943C252296CC15DD0569F70C171D077B
:1040200031F7E801003D1240F9F6DF91CF911F9181
:104030000F91FF90EF90DF90CF900895EFE7F1E0C0
:10404000438121E1421B08F440E021E0628181814B
:104050000C94861BEFE7F1E0438121E1420F08F465
:104060004FEF21E0628181810C94861BEFE7F1E044
:10407000628121E1621B08F460E021E043818181DB
:104080000C94861BEFE7F1E0628121E1620F08F4F6
:104090006FEF21E0438181810C94861BEFE7F1E013
:1040A000818121E04381628188500C94861BEFE777
:1040B000F1E0818121E043816281885F0C94861B5D
:1040C00080917F01282F269530E02115310519F4C4
:1040D0008170826005C02532310524F081708864CA
:1040E00080937F010895CF92DF92EF92FF926B0150
:1040F0007C010E946020B701A60188E090E0FF905B
:10410000EF90DF90CF900C944D2580918301882310
:1041100019F081508093830160917F01709180013B
:1041200080918101909182010C9473208091830190
:10413000833018F48F5F8093830160917F017091C9
:10414000800180918101909182010C947320EFE7AE
:10415000F1E083E0808311828FEF82838383148276
:1041600060817181828193810C947320AF92BF92A0
:10417000CF92DF92EF92FF920F931F93CF93DF9333
:10418000E82EF62EE901E42FF0E0611106C0E05AB6
:10419000F84FE4914E2F2E2F71C0062F10E0E05AF9
:1041A000F84F4491F42FC42ED12C26E0829FC001F9
:1041B00011242FEF30E0B9010E9414255BEA560369
:1041C000C001579F900D11248E0D911D8E0D911DD4
:1041D000582F550F580FD901A01BB10BAC9DC00132
:1041E000AD9D900DBC9D900D1124E92FF59ED00141
:1041F0001124AB2FBB277901EA1AFB0AEC9CD001F2
:10420000ED9CB00DFC9CB00D11245901A51AB1080C
:10421000A09E7001A19EF00CB09EF00C1124EF2C1A
:10422000FF242E193F092C9D80012D9D100D3C9DD2
:10423000100D1124212F6230710591F048F46115A1
:104240007105E1F061307105B9F4242F4B2F16C0D0
:104250006430710569F040F06630710579F00CC08A
:10426000242F492FE12F0AC0492FEF2F2B2F06C0F3
:10427000292FE42F412F02C0292FEB2F49832883B8
:10428000EA83DF91CF911F910F91FF90EF90DF9024
:10429000CF90BF90AF900895CF93DF9300D01F923F
:1042A000CDB7DEB790917F0190FF0AC09E012F5FCE
:1042B0003F4F0E94B6204B8169818A810E94351B45
:1042C0000F900F900F90DF91CF9108958B3109F4EB
:1042D00074C058F58B3009F49AC078F4863009F42C
:1042E00046C020F4853009F44CC093C0873009F4EF
:1042F00056C0883009F48BC08CC0803109F470C07E
:1043000068F48E3009F085C080914F0282FB22272D
:1043100020F991E0922790FB82F958C0863109F488
:1043200076C0893109F473C074C08A32E9F060F450
:10433000873209F467C028F48E3108F46AC08D51C1
:104340005AC08932F1F065C0833450F48A3308F0E2
:1043500051C0853309F456C0883309F458C059C098
:10436000833409F44FC055C00E94571450C0809147
:104370004F02817F8E7F80934F0281E080934E02B7
:1043800008950E943F232FEB87E299E0215080405F
:104390009040E1F700C000000E94A31E38C0809149
:1043A0004F02982F9095917090FB80F980934F0267
:1043B00091112DC0897F877F10C080914F0281FBB2
:1043C000222720F991E0922790FB81F980934F02F8
:1043D0009923E9F080914F02816080934F0217C0CA
:1043E00080914F0283FB222720F991E0922790FBD6
:1043F00083F9ECCF895391E001C0990F8A95EAF7D0
:10440000892F01C081E00E940F230E943F2381E099
:10441000089580E0089590917F0190FF3DC09170D4
:10442000811102C0926006C0853210F0986402C00B
:10443000880F982B90937F01662351F060917F0144
:104440007091800180918101909182010E9473207E
:1044500060917F01669570E04BE050E08FE690E060
:104460000E941A26892B19F010926B0109C081E075
:1044700080936B010E94F11E909351028093500231
:1044800081E08093530220E040918201609181019C
:10449000809180010C94861B089580917F01869500
:1044A000815009F484E261E00C940B2280917F0139
:1044B00086958F5F853208F081E061E00C940B22D5
:1044C00080E090E00E94381F80E090E00E94221F70
:1044D00010926301109262010C94C714CF92DF9284
:1044E000FF920F931F93CF93DF936C0100914D02C6
:1044F00080916601082BC7E0D0E010E0C8010C2EC7
:1045000002C0959587950A94E2F780FD04C0219733
:10451000A8F7F12C09C0FC2EB6018C2F0E94DD1FDC
:104520000E94B212019799F38F2DDF91CF911F91C5
:104530000F91FF90DF90CF9008952FE0929F800D14
:104540001124682F669566956695982F977083E07D
:10455000689FB001112440E050E080E0FB01E40FCF
:10456000F51FEA5AFD4F208130E0092E02C0369532
:1045700027950A94E2F721703327042E01C0220FF9
:104580000A94EAF7822B4F5F5F4F4330510531F7B2
:1045900008952FE0929F800D1124E82FE695E6956F
:1045A000E695877051E001C0550F8A95EAF783E0E0
:1045B000E89FF0011124EA5AFD4F20E030E070E05E
:1045C0004081CB01022E02C0969587950A94E2F7AE
:1045D0008170819584278523842781932F5F3F4FA6
:1045E0002330310569F7089580934D020C946022C1
:1045F00021E030E001C0220F8A95EAF720958091F2
:104600004D0282230C94F42221E030E001C0220FFD
:104610008A95EAF780914D02822B0C94F4228093C4
:1046200066010C946022FC01808191810E94A11599
:10463000292F2F70E92FE295EF704E2F50E0FA01ED
:104640003297EE30F105B8F4E75BFF4F0C94F2259A
:10465000803F99F018F4883E70F40FC0843F59F4FD
:104660000CC0883E50F0813F31F407C0822F869500
:1046700086958695089580E0089581E008951092CA
:10468000640186E0E3E2F1E0DF011D928A95E9F73B
:104690000C946022882341F08095909164018923D5
:1046A000809364010C94C7140895882339F0909185
:1046B0006401892B809364010C94C71408958823A6
:1046C000A9F19CEF980F913A60F4E1E2F1E0928158
:1046D000891301C01282319641E0E732F407B9F73D
:1046E00014C090E2980F983090F4877021E030E089
:1046F000A90102C0440F551F8A95E2F7CA018095AF
:10470000909164018923809364010C94C7149BE504
:10471000980F933020F480E090E00C94381F885A72
:10472000873120F480E090E00C94221F0895CF930D
:10473000882309F480C09CEF980F913A60F5C82F48
:1047400080914E02882319F0813051F01EC0809173
:104750006401823209F051C08C2F0E94662118C07A
:10476000809164018232C1F3C43149F018F4CB3036
:1047700049F041C0C93219F0C83321F03CC0109251
:104780004E0239C081E0817003C010924E0235C0E4
:10479000811151C032C090E2980F983090F4877028
:1047A00021E030E0A90102C0440F551F8A95E2F7CD
:1047B000CA0190916401892B80936401CF910C947C
:1047C000C714EBE5E80FE33040F4F0E0EF56FF4F9D
:1047D000808190E0CF910C94381F885A873158F52A
:1047E000E82FF0E0EE0FFF1FEC56FF4F8081918124
:1047F000CF910C94221F80E0C6CFE3E2F1E08191DB
:10480000C81729F041E0E932F407C9F70EC0E1E228
:10481000F1E087E291E02281C21301C01282319659
:104820008E179F07C1F70E94C7146C2F81E291E099
:104830000E94081FC3CFCF9108951F93CF93DF939A
:10484000182F893319F0C0E0D0E002C0C0E5D0E0F5
:10485000812F0E949723209741F087EB9BE00197DF
:10486000F1F700C000002197F6CF812FDF91CF91A3
:104870001F910C945F2311B887E080B985B38360E2
:1048800085BB86B7846086BF86B7816086BF86B7E2
:10489000806486BF08959F92AF92BF92CF92DF92BD
:1048A000EF92FF920F931F93CF93DF93B82EEB01FC
:1048B0000E94F11E6C01C431D10558F0CF3F8FEF3B
:1048C000D80759F0CE0164E170E00E9414257B0105
:1048D00007C0EE24E394F12C03C025E0E22EF12C76
:1048E00084E8A82E94EA992E16BE96BE0E94F11E68
:1048F0008C0106B607FC08C00E94F11E801B910BBC
:104900008E159F05B0F324C081B1887F883039F0BF
:1049100081B1887F803119F00FEF1FEF1BC0B3B852
:10492000A6BE0E94F11E8C0106B607FC08C00E94BC
:10493000F11E801B910B8E159F05B0F309C081B14C
:10494000887F883111F0803439F700E010E00DC025
:104950000EEF1FEFCF3F8FEFD80731F2C6010E9455
:10496000E21E8C179D0708F4BFCFC801DF91CF91DD
:104970001F910F91FF90EF90DF90CF90BF90AF907D
:104980009F9008950F931F93CF93DF93EB0183B90B
:1049900084E886BF0E94F11E8C0106B607FC0EC09B
:1049A000CF3F8FEFD807C9F30E94F11E801B910BF8
:1049B0008C179D0790F38EEF9FEF0BC021B1287FDE
:1049C00081E090E0283211F480E090E091958195AB
:1049D0009109DF91CF911F910F910895CF92DF92AE
:1049E000EF92FF920F931F93CF93DF936B018A0196
:1049F0007901B9010E944B24E6010C0D1D1DC01761
:104A0000D10759F424E926BFDF91CF911F910F916F
:104A1000FF90EF90DF90CF90089597FDF3CFB7010F
:104A200089910E94C224EBCFAA1BBB1B51E107C096
:104A3000AA1FBB1FA617B70710F0A61BB70B881F2E
:104A4000991F5A95A9F780959095BC01CD010895BD
:104A5000E199FECF9FBB8EBBE09A99278DB3089555
:104A6000A6E1B0E044E050E00C946E25A8E1B0E08F
:104A700042E050E00C946E25262FE199FECF9FBBBB
:104A80008EBBE09A01970DB2021631F02DBB0FB626
:104A9000F894E29AE19A0FBE08950396272F0E9498
:104AA0003D250E943C25252F0E943D25242F0C9456
:104AB0003D250196272F0E943D250C943C25262F4D
:104AC000E199FECF9FBB8EBB2DBB0FB6F894E29A47
:104AD000E19A0FBE01960895DC01CB01FC01E1993A
:104AE000FECF06C0FFBBEEBBE09A31960DB20D9231
:104AF00041505040B8F708950E94B125A59F900DF0
:104B0000B49F900DA49F800D911D11240895B7FFAF
:104B10000C947C250E947C25821B930B0895A1E2B6
:104B20001A2EAA1BBB1BFD010DC0AA1FBB1FEE1F27
:104B3000FF1FA217B307E407F50720F0A21BB30B72
:104B4000E40BF50B661F771F881F991F1A9469F7EE
:104B500060957095809590959B01AC01BD01CF014A
:104B60000895A29FB001B39FC001A39F700D811D46
:104B70001124911DB29F700D811D1124911D089566
:104B8000DB018F939F930E947C25BF91AF91A29FE1
:104B9000800D911DA39F900DB29F900D112408953B
:104BA00087FB082E062687FD819567FD61950E948B
:104BB0000E260EF4919507FC8195089597FB072E1C
:104BC00016F4009407D077FD09D00E94142507FC45
:104BD00005D03EF4909581959F4F0895709561950D
:104BE0007F4F0895EE0FFF1F0590F491E02D09947B
:104BF00069279627692778278727782708950E94AD
:104C0000B125332312F48A1B9B0B0C9409260E94B6
:104C1000B125B7FF0895821B930B0895991B79E086
:104C200004C0991F961708F0961B881F7A95C9F73C
:104C300080950895FC014150504030F001900616D7
:104C4000D1F73197CF010895882799270895FB015F
:104C5000DC0104C08D910190801921F44150504035
:0C4C6000C8F7881B990B0895F894FFCF4B
:104C6C00961C771E951C441E401E010201FF5A0122
:104C7C00191A1B1C1D1E1F202122606162636465B2
:104C8C006667909192939495969737363534333274
:104C9C0007818283E200E900EA00B500B600B700A4
:104CAC00CD008301CC008A019201940121022302E0
:104CBC0024022502260227022A02B300B4006F0048
:104CCC007000000102020202060606090909090920
:104CDC00090F0F0F0F0F0F15151518191919191991
:084CEC001919191919232400FC
:00000001FF
