:100000000C94EA020C9431030C9431030C943103E8
:100010000C9431030C9431030C9431030C94310390
:100020000C9431030C9431030C94840E0C94C00D89
:100030000C94221B0C9431030C9431030C94310367
:100040000C9431030C9431030C9431030C94310360
:100050000C9431030C946E100C9431030C94310306
:100060000C9431030C9431030C9431030C94310340
:100070000C9431030C9431030C9431030C94310330
:100080000C9431030C9431030C9431030C94310320
:100090000C9431030C9431030C9431030C94310310
:1000A0000C9431030C9431030C943103E607E607FA
:1000B000210821087B089908A309A309A4081809A5
:1000C00029092909D40BFB0BA20DFB0BA20D470C30
:1000D0006A0CA20D5F0D6F0D75137813B913D81349
:1000E000E0130014031414142B14C714C714301491
:1000F000321437145C147E1481148414A714DC1F8A
:10010000DC1FEF1FEF1FE51FEF1FEF1FEF1FDC1FAF
:10011000DC1FEA1FEF1FEF1FEA1F000000000000B6
:1001200000000000000000000000000000000000CF
:1001300000000000000000000000000000007E0F32
:1001400000D4FFFFFFC7000000780000000000009F
:1001500000002A2B28000000000000000000000022
:10016000000000000029000000002C1E3420212285
:1001700024342627252E362D3738271E1F202122EE
:10018000232425263333362E37381F040506070867
:10019000090A0B0C0D0E0F10111213141516171857
:1001A000191A1B1C1D2F3130232D35040506070895
:1001B000090A0B0C0D0E0F10111213141516171837
:1001C000191A1B1C1D2F3130354C05010902A101E4
:1001D00085020901A1000509190129081500250159
:1001E0009508750181020501093009311581257FC6
:1001F00095027508810609381581257F95017508D6
:100200008106050C0A38021581257F950175088144
:1002100006C0C005010980A101850319012AB700A4
:10022000150126B700950175108100C0050C090164
:10023000A101850419012AA002150126A002950139
:1002400075108100C005010906A101850505071982
:10025000E029E715002501950875018102050719B8
:100260000029EF1500250195F07501810205081997
:10027000012905950575019102950175039101C04C
:100280000660FF0961A1010962150026FF009520A3
:10029000750881020963150026FF009520750891F5
:1002A00002C005010906A101050719E029E71500AB
:1002B00025019508750181029501750881010507E1
:1002C000190029FF150026FF009506750881000515
:1002D000081901290595057501910295017503918C
:1002E00001C009025B00030100A0FA09040000013B
:1002F00003010100092111010001224000070581CD
:100300000308000A0904010002030000000921118A
:1003100001000122220007058203200001070503D6
:10032000032000010904020001030000000921115B
:1003300001000122B6000705840320000A12010013
:1003400002000000085A44020001000102000116E8
:100350000356004F004C00430041004E004F003652
:10036000003600300000000E0344005A00540045DF
:10037000004300480000000403090429001E001F78
:100380000020002100220023002400250026002751
:10039000002D002E0035002A002B0014001A000842
:1003A00000150017001C0018000C00120013002F8D
:1003B00000300031004C003900040016000700092D
:1003C000000A000B000D000E000F00330034000087
:1003D0000028004900E10031001D001B0006001943
:1003E00000050011001000360037003800E500520B
:1003F000000000E000E300E2000000000000002C2C
:100400000000000000E600E700E400500051004F4B
:100410000035003A003B003C003D003E003F0040FC
:10042000004100420043004400450001000100017A
:1004300000010001000100010001000100010001B4
:1004400000010001000100010001000100010001A4
:100450000001000100010001000100010001000194
:100460000001000100000001000100010001000185
:100470000001000100010001000100010001000174
:100480000001000100010000000100010001000066
:100490000000000000010000000000010001000158
:1004A0000001000100010001000100010001000144
:1004B0000001000100010001000100010001000134
:1004C0000001000100010001000100010001000124
:1004D0000001000100010001000100010001000114
:1004E0000001000100010001000100010001000104
:1004F00000010001000100010001000000010001F5
:1005000000010001000100010001000100010001E3
:1005100000010001000100010001000100000001D4
:1005200000010001000000000000000100000000C8
:1005300000010001000100010001000100010001B3
:1005400000010001000100010001000100010001A3
:100550000001000100010001000100010001000193
:100560000001000100010001000100010001000183
:100570000001000100010001000100010001000173
:100580000001000100010001000100010001000163
:100590000000000100010001000100010001000154
:1005A0000001000100010001000100010001000143
:1005B0000001000000010001000100000000000037
:1005C0000001000000000001000100010001000125
:1005D0000001000011241FBECFEFDAE0DEBFCDBF67
:1005E00004B603FE27C08091530290915402A0915B
:1005F0005502B09156028730904BA740B04BD1F4D2
:100600001092530210925402109255021092560208
:1006100014BE84B7877F84BF0FB6F894A8958091E5
:100620006000886180936000109260000FBEE0E07F
:10063000F8E3099511E0A0E0B1E0E0E7F4E402C0DE
:1006400005900D92A036B107D9F722E0A0E6B1E0FF
:1006500001C01D92A335B207E1F70E94AF100C94C0
:1006600036220C9400001F93CF93DF93CDB7DEB7F3
:1006700067970FB6F894DEBF0FBECDBF4B8B5C8B78
:100680006D8B7E8B8F8B61111092160286E09E011E
:10069000235F3F4FD901E82F1D92EA95E9F795E0D6
:1006A000FE017396D90101900D929A95E1F79C890C
:1006B0004E895F897B897D879E876F87598B488BA1
:1006C000F901DE01179601900D928A95E1F7CE01AE
:1006D00007960E94811981113EC086E0FE0137967F
:1006E000DE01119601900D928A95E1F7FF81E88570
:1006F0006A857B856115710531F0EF3F31F481E04A
:10070000FF3F19F403C081E001C080E080FD23C0F9
:100710002091E20130E0C90101968770992740914C
:10072000130250E08417950779F1F983EA837D83FA
:100730006C8396E0929FD001939FB00D1124AD5130
:10074000BE4FFE01319601900D929A95E1F780938C
:10075000E2010E94FE1816E0809113029091E201DE
:100760008917F9F0189FC00111248D519E4F0E94E6
:1007700081198823B1F08091130290E0019687706F
:10078000992780931302E8CF0E94F31F1092E20191
:1007900010921302ECEDF1E086E0DF011D928A95E4
:1007A000E9F767960FB6F894DEBF0FBECDBFDF91B5
:1007B000CF911F91089581FB222720F982FB992771
:1007C00090F980FD02C0589A01C05898211102C0CA
:1007D0005A9A01C05A98911102C0599A089559988D
:1007E00008953F924F925F926F927F928F929F9265
:1007F000AF92BF92CF92DF92EF92FF920F931F932F
:10080000CF93DF93CDB7DEB729970FB6F894DEBF4D
:100810000FBECDBFFC018081918123813481232BC8
:1008200031F09F3F31F491E08F3F19F403C091E024
:1008300001C090E090FDFAC57F0185E0DE011196D0
:1008400001900D928A95E1F7F701228189819A81C1
:10085000222349F00E94221F182F682F89819A8134
:100860000E947D1F03C00E94511F182F69817A8149
:10087000812F0E94BD1C8C01F7018281882309F41D
:10088000F2C0980122513F452031310508F019C1CD
:100890008FEF93E00E9466218111EFC0025132E890
:1008A000832E32E0932E002379F08114F4E09F062A
:1008B00009F4E3C0C4010E946621811101C0015006
:1008C0002FEF821A920AEFCF1E821F821886198696
:1008D000442443942AE0322E84010F5F1F4FC40149
:1008E0000E9466218E831F82882309F4C6C09FEF71
:1008F000980F933060F48F834E8232E0830E911C08
:10090000C8010E9466218887811102C0B6C04801D3
:100910008E010A5F1F4FF80120812223E9F2213066
:1009200009F04CC08181813049F46801F2E0CF0EBA
:10093000D11CF80182810E9448210AC0823051F402
:100940006801F2E0CF0ED11CF80182810E94842060
:10095000860186C0833049F46801F2E0CF0ED11CD5
:10096000F80182810E941D20F3CF843019F00F5FBF
:100970001F4F76C0F80122810E5F1F4F80E090E08C
:1009800030E0205331092A30310568F4389EA00147
:10099000399E500D1124C901840F951F0F5F1F4F01
:1009A000F8012081EDCF009709F45AC0EFE9FFE08C
:1009B0003197F1F700C000000197F5CFE22FF0E08A
:1009C000E65BFE4F5490822F86958695869590E043
:1009D000FC01E65CFE4F64902770712C022E02C071
:1009E000759467940A94E2F7F1E06F227724FC0192
:1009F000E65DFE4FA490B12C022E02C0B594A794E0
:100A00000A94E2F731E0A322BB24FC01E65EFE4F2C
:100A1000C490D12C02C0D594C7942A95E2F781E006
:100A2000C822DD246114710419F081EE0E94842033
:100A3000A114B10419F086EE0E948420852D0E9435
:100A40004821AB2819F086EE0E941D20672819F076
:100A500081EE0E941D20CD2819F08CE20E944821D1
:100A60000F5F1F4F58CF0031EFE51E0709F0D5C4C7
:100A700081E00E94AC1F0E94E30A809114028770FB
:100A800009F4D4C4F7018281882309F4CFC482E039
:100A900029960FB6F894DEBF0FBECDBFDF91CF9180
:100AA0001F910F91FF90EF90DF90CF90BF90AF908C
:100AB0009F908F907F906F905F904F903F900C949D
:100AC000E11800313FE5130711F481E005C0013161
:100AD0009FE5190721F482E00E94B81FCCCF0D3B9F
:100AE000FCE51F0781F480912A02982F9695969530
:100AF0009695C1F1915E990F990F990F8770892B87
:100B000080932A0223C00E3B2CE5120798F10F3B7D
:100B1000ECE51E0709F44EC408F462C4003C2CE561
:100B20001207D1F590912A02892F86958695869590
:100B30008F5F8F71863008F06CC4880F880F880F24
:100B40009770892B80932A0280912A02887F91E0F6
:100B500009F490E080912A0290FB80F980932A02A8
:100B60000E947E1D80912A028695869586950E9418
:100B7000191D83CF0B3B3CE5130711F485E005C03D
:100B80000C3B9CE5190741F480E00E94831D809195
:100B90002A020E947E1D71CF033FFCE51F0799F4D6
:100BA00006E221EE40EE63EF7CE509C0073DECE58F
:100BB0001E0711F506E221EE41EE67ED7CE5C70167
:100BC0000E94E01B5ACF043F2CE5120708F03FC1FA
:100BD000083D3CE5130731F407E225EE45EE68EDEC
:100BE0007CE5EDCF093D9CE5190701F708E221E01E
:100BF00045EE69ED7CE5E3CF882309F45DC11092F1
:100C00002D0202309CE5190708F440C10631ECE5DD
:100C10001E0730F0C8018A5F9C45099708F036C16D
:100C20000E94F51790936801809367010031FCE5FD
:100C30001F0709F4C3C008F041C008303CE51307A2
:100C400009F49AC0F0F404309CE5190709F487C050
:100C500068F40230FCE51F0709F477C003301C4537
:100C600009F0E5C080916701826076C006303CE5FE
:100C7000130709F46EC008F07BC08091670188609B
:100C80006BC00C309CE5190709F485C068F40A3084
:100C9000FCE51F0709F474C008F079C00E94F31F37
:100CA00080916701806858C00E303CE5130709F455
:100CB00076C008F07FC0809167018BC00B3F9CE538
:100CC000190709F44FC018F50331FCE51F0709F4B3
:100CD0007DC078F401313CE5130709F473C002319B
:100CE0001C4509F0A4C00E94F31F809167018F7713
:100CF00033C005319CE5190709F472C008F486C0B9
:100D00000A3F1C4509F093C0809168013EC00F3F27
:100D10002CE5120709F45FC058F40D3F8CE5180765
:100D200009F444C008F43FC08091680182602DC07E
:100D30000130EDE51E0709F475C008F45DC002300E
:100D40001D4509F074C060E06EC08091670181604C
:100D500003C08091670180618093670168C08091C2
:100D6000670111C0809168018260809368015FC053
:100D7000809167018062F0CF809167018064ECCF41
:100D80008091670188608460E7CF8160EECF8091B9
:100D900067018E7FE1CF809167018D7FDDCF8091EC
:100DA0006701877FD9CF8091680118C08091680161
:100DB0008D7FDBCF809167018F7ECECF80916701E1
:100DC0008F7DCACF809167018F7BC6CF80916701ED
:100DD000877F8B7FC1CF809168018D7F8E7FC5CF4C
:100DE0008091670182FB222720F991E0922790FBF6
:100DF00082F990FB83F9B0CF80916801982F90958C
:100E000091708E7F892B90FB81F9AFCF0E94F31FE9
:100E10008091670187FB222720F991E0922790FBC0
:100E200087F99ACF61E08EE090E00E947421609192
:100E300067011091680184E090E00E947421612FA5
:100E400082E290E00E9474210E94F31F16CE053FBB
:100E5000FCE51F0731F406E221EE42EE65EF7CE58A
:100E6000AECE053F2CE5120730F407E225EE44EE46
:100E700064EF7CE5A4CE063F3CE5130709F0BCCE49
:100E800007E225EE46EE66EF7CE599CE06318CE56D
:100E9000180711F5809117028A7A91E009F490E021
:100EA00090936201882311F065E301C069E28CEB45
:100EB00091E00E94731B0DC006311C45F1F5809135
:100EC0006201882309F4B0C265E38CEB91E00E94D3
:100ED0004B1B0E948118D1CD0A353DE5130741F126
:100EE00050F401159CE51907A9F00E3D1C4529F5A4
:100EF0000E941118C2CD0B35FDE51F07D9F00C3546
:100F00001D45D9F48091680182FB882780F991E022
:100F1000892711C00E94F31F3FEF84E39CE031500A
:100F200080409040E1F700C000000E944A10A5CD2B
:100F300081E001C080E00E94C718F7018281008132
:100F40001181882349F0C8010E94221FD82E682FE2
:100F5000C8010E947D1F04C0C8010E94511FD82EE5
:100F6000B8018D2D0E94BD1C0E945B16B82E192F52
:100F7000982EF7010281A580A2949FE0A92280917A
:100F80001402877099F0002389F0812F807F8034CC
:100F900021F080E28B0D883048F082E00E94E11859
:100FA000809114028770DD24D3948111D12CC12E3D
:100FB000C2948FE0C8228C2D90E08C30910508F00F
:100FC000C2C1FC01EA5AFF4F0C940222812F807F9C
:100FD0001F70882311F01295107F0023B9F01123A0
:100FE00009F49DC180E28B0D883010F0911006C08D
:100FF00080911702182B1093170205C080911602DA
:10100000182B109316020E94811889C18B2D0E9403
:101010001D20112309F497C180E28B0D10958830B3
:1010200010F0911006C08091170218231093170238
:1010300005C0809116021823109316020E94811891
:1010400082C1812F807F1F70803211F01295107F36
:101050008B2D992021F0F1E09F1611F130C0002373
:10106000B1F0AA2081F021E0A2120DC080916801A8
:1010700082FD69C180911802182B181709F463C109
:101080001093180260C180911802812B10C0AA2011
:1010900021F031E0A31609F456C10E947B1827C045
:1010A000002341F085E08A1508F44DC1812F0E948C
:1010B000132049C194E09A1508F445C118C00023D3
:1010C00049F0AA2099F3F701858180FF28C18F702C
:1010D0008583ECCFAA2059F0893309F031C1FFEFA5
:1010E00027EE33E0F15020403040E1F727C1812F57
:1010F0000E94082028C1812F86958695837019F05B
:10110000813061F020C1002321F08B2D912F93704D
:1011100002C080E090E00E94BE1B1DC1002321F0B0
:101120008B2D912F937002C080E090E00E94A81B4D
:1011300012C18B2D002319F00E94AA1E02C00E942A
:10114000F11D0E94C71D07C1812F8370A9F50111F0
:10115000FEC04B2D429546954770440F440F8B2D92
:101160008F7090E09C01042E01C0220F0A94EAF7D0
:10117000B4FE08C08FE090E001C0880F4A95EAF7FE
:10118000809501C080E0169516951370123069F0B5
:1011900088F490911902113019F0822B892302C032
:1011A000922B892B0E94C31FD2C0822B90911902CF
:1011B0008927F8CF822BF6CF002319F0812F817079
:1011C00001C08695882309F4C2C04B2D42954695EF
:1011D0004770440F440F8B2D8F7090E09C01042EBC
:1011E00001C0220F0A94EAF7B4FE08C08FE090E035
:1011F00001C0880F4A95EAF7809501C080E01695F6
:1012000016951370123059F078F490919B011130BB
:1012100019F0822B892309C0922B892B06C0822BBF
:1012200090919B01892701C0822B0E94A81F8FC02B
:101230001F70002339F0812F0E94B81F8B2D0E9450
:10124000132085C08B2D0E940820812F0E94AC1F87
:101250007EC08B2D92EF991659F1991538F0E0EF79
:101260009E1659F0F1EF9F16F1F055C023EF92163C
:1012700031F134EF931681F14EC0002379F084E010
:101280008A1508F460C01F7181E090E001C0880FEA
:101290001A95EAF790919B0189271BC095E09A1552
:1012A00008F451C0F0CF002329F0812F8F7126C0A0
:1012B0000023D9F3812F8F710E94AC1F44C00023FB
:1012C00039F01F7181E001C0880F1A95EAF701C05B
:1012D00080E00E94A81F37C0002399F01F71812F62
:1012E0000E94B81F8091680182FD07C0E8E01E9F40
:1012F000C0011124836080931402812F0E94B81FC3
:1013000022C081E00E94E118F1E0FA15E0F482E0E9
:101310000E94E11818C0002331F0AA2031F28B2D71
:101320000E94842010C0AA2029F2893349F42FEFAB
:1013300037EE83E0215030408040E1F700C00000EC
:101340008B2D0E941D2088EF8C0D843020F40E948C
:10135000D41B0E94DB03DD2009F468C080911402D5
:1013600080FD64C0F70112828595859585950E9460
:10137000B81FC7010E94F1038091140285958595DD
:10138000859529960FB6F894DEBF0FBECDBFDF91CD
:10139000CF911F910F91FF90EF90DF90CF90BF9072
:1013A000AF909F908F907F906F905F904F903F9005
:1013B0000C94AC1F80912A0280FF07C08E7F80931F
:1013C0002A020E947E1D80E0D2CB816080932A0297
:1013D000813019F489E080932A0280912A02C0CBDF
:1013E00020912A02822F869586958695482F50E077
:1013F0004530510554F48F5F982F990F990F990F2D
:10140000822F8770892B80932A0280912A02816023
:10141000A5CB977090932A0297CB0131FFE51F0768
:1014200009F0BACB82E025CB69E24FCD29960FB601
:10143000F894DEBF0FBECDBFDF91CF911F910F910A
:10144000FF90EF90DF90CF90BF90AF909F908F90E4
:101450007F906F905F904F903F900895809193019F
:1014600087FF11C08091E80082FD05C08091910145
:101470008111F8CF11C08091E8008B770BC080916B
:101480009101882349F08091E80080FFF8CF809196
:10149000E8008E778093E8000895982F973068F5DC
:1014A0009093E900981739F07091EC002091ED00CD
:1014B0005091F00003C0242F762F50E021FD02C090
:1014C0009F5FECCF3091EB003E7F3093EB0030918B
:1014D000ED003D7F3093ED003091EB0031603093B3
:1014E000EB007093EC002093ED005093F0002091FE
:1014F000EE0027FDE5CF80E008958F708093E9002E
:1015000081E008952091990130919A0126173707BB
:1015100048F06115710539F42091E8002E77209389
:10152000E80001C0B901FC0120E06115710579F105
:10153000809191018823F1F18530F1F18091E800EB
:1015400083FD3CC08091E80082FD2EC08091E800C0
:1015500080FFEBCF2091F3008091F20090E0922B7E
:101560006115710551F08830910538F4219120936F
:10157000F100615071090196F3CF21E0089709F05D
:1015800020E08091E8008E778093E800CECF211193
:10159000CFCF0AC080919101882361F0853061F03E
:1015A0008091E80083FD0AC08091E80082FFF2CFBD
:1015B00080E0089582E0089583E0089581E0089531
:1015C00080916E01089580919B01982F96709630BE
:1015D00011F4886001C0877F0C94A81F1F93CF93DC
:1015E000DF93CDB7DEB7AA970FB6F894DEBF0FBE74
:1015F000CDBFE3E9F1E08091F100819341E0EB3967
:10160000F407C9F780919401833009F462C030F483
:10161000813071F0823009F49CC0B3C08A3009F483
:1016200088C08B3009F46DC0893009F0AAC020C091
:1016300080919301813A09F0A4C08091E800877FEE
:101640008093E8008091970190919801892B21F473
:1016500060E28FE691E003C060E080E090E070E03F
:101660000E94820A8091E8008B778093E80089C00D
:1016700080919301813209F084C08091970190910B
:101680009801009719F0029709F07BC08091E8005B
:10169000877F8093E8008091E80082FD05C08091FB
:1016A00091018111F8CF6DC02091F3008091F2007B
:1016B00090E0922B029729F48091F1008B7F81308A
:1016C00021F48091F10080936E018091E8008B7786
:1016D00054C080919301813A09F053C080919701E1
:1016E00090919801892B09F04CC08091E800877F88
:1016F0008093E8008091E80080FFFCCF809100019A
:1017000037C0809193018132E1F5809197019091EA
:101710009801892BB1F58091E800877F8093E800DC
:101720000E942E0A80919501809300010E94F31F70
:1017300028C080919301813221F58091E800877F54
:101740008093E8000E942E0A8091960180936D019B
:1017500018C080919301813AA1F48091E800877FBD
:101760008093E8008091E80080FFFCCF80916D01BC
:101770008093F1008091E8008E778093E8000E94CA
:101780002E0A8091E80083FFDDC180919301909142
:101790009401492F50E04A30510508F0D3C1FA01B5
:1017A000EE59FF4F0C940222803821F0823809F064
:1017B000C9C108C080918F0190919001992389F04F
:1017C00082600FC0809197018F70873008F0BAC196
:1017D0008093E9008091EB0085FB882780F91092C7
:1017E000E9009091E800977F9093E8008093F100E2
:1017F0001092F10070C1282F2D7F09F0A3C188231A
:1018000019F0823061F09EC180919501813009F01C
:1018100099C1933009F080E0809390012EC08091AF
:10182000950181112AC0809197018F702FEF280FA9
:10183000263008F087C18093E9002091EB0020FF5B
:101840001CC0933021F48091EB00806214C0909111
:10185000EB0090619093EB0021E030E0A90102C021
:10186000440F551F8A95E2F74093EA001092EA0070
:101870008091EB0088608093EB001092E9008091EA
:10188000E800877F8093E8000E942E0A5BC18111E7
:1018900059C1109195011F778091E3008078812BC9
:1018A0008093E3008091E800877F8093E8000E94A6
:1018B0002E0A8091E80080FFFCCF8091E3008068D1
:1018C0008093E300111102C082E001C083E08093A5
:1018D000910138C18058823008F034C120919501BF
:1018E000309196012C3D53E0350779F583E08A83EA
:1018F0008AE289834FB7F894DE01139620E03EE038
:1019000051E2E32FF0E050935700E49120FF03C031
:10191000E295EF703F5FEF708E2F90E0EA3010F0AD
:10192000C79601C0C0968D939D932F5F243149F7D0
:101930004FBF8091E800877F8093E8006AE270E003
:10194000CE0101960E94820AB4C0809197019091C5
:101950009801432F552743305105A9F068F44130D1
:10196000510509F4FEC04230510509F0EBC08BE58A
:1019700090E0E2EEF2E04BC04132510529F14232F3
:10198000510589F1DFC0C901992781309105A1F086
:1019900058F0029709F0D6C0EFE4F3E0E4918E2FFF
:1019A00090E0EFE4F3E030C0E7E7F3E0E4918E2F5E
:1019B00090E0E7E7F3E028C0E7E6F3E0E4918E2F5C
:1019C00090E0E7E6F3E020C08330910508F0BAC06C
:1019D000880F991FFC01EC5EFE4F0190F081E02D15
:1019E00089E090E014C08330910508F0ABC0FC01A1
:1019F000EE0FFF1FE25FFE4F0190F081E02DDC0152
:101A0000A55FBE4F8C9190E0009709F49BC0209198
:101A1000E800277F2093E8002091990130919A01F6
:101A20002817390708F4C90140E0009789F120918F
:101A30009101222309F43DC02530D9F12091E8001D
:101A400023FD37C02091E80022FD2FC02091E8003F
:101A500020FFEBCF4091F3002091F20030E0342BD7
:101A6000009759F02830310540F444914093F1003B
:101A7000319601972F5F3F4FF3CF41E0283031057A
:101A800009F040E02091E8002E772093E800CDCFC8
:101A90004111CDCF0AC080919101882351F085304A
:101AA00041F08091E80083FD04C08091E80082FF4E
:101AB000F2CF8091E8008B778093E80043C08038B4
:101AC00009F040C08091E800877F8093E800809112
:101AD00092018093F1008091E8008E77D3CE81113E
:101AE00031C080919501909196019927029754F504
:101AF0008091E800877F8093E80010919501109312
:101B000092010E942E0A111106C08091E30087FD08
:101B100002C081E001C084E08093910142E061EC69
:101B200081E00E944D0A42E261EC84E00E944D0A8D
:101B300042E261EC82E00E944D0A42E260EC83E006
:101B40000E944D0A8091E80083FF10C08091E80058
:101B5000877F8093E8008091EB0080628093EB00A8
:101B600005C082E190E0EDE3F3E051CFAA960FB615
:101B7000F894DEBF0FBECDBFDF91CF911F910895C6
:101B80001F920F920FB60F9211242F933F934F93F2
:101B90005F936F937F938F939F93AF93BF93CF93F5
:101BA000DF93EF93FF93C091E900CF708091EC0039
:101BB000D82FD17080FDD0E81092E9008091F0001C
:101BC000877F8093F00078940E94EE0A1092E900DB
:101BD0008091F00088608093F000CD2BCF70C0938F
:101BE000E900FF91EF91DF91CF91BF91AF919F916C
:101BF0008F917F916F915F914F913F912F910F90B6
:101C00000FBE0F901F901895E8EDF0E080818E7F59
:101C100080831092E2001092DA001092E100A0EEB0
:101C2000B0E08C9181608C9380818F77808319BC28
:101C3000A7EDB0E08C918E7F8C9380818F7E808326
:101C400010926C010895CF92DF92EF92FF920F9362
:101C50001F93CF93DF93C8EDD0E088818F7E888378
:101C6000E7EDF0E080818160808384E082BF81E0E5
:101C700080936C0188818E7F888302EE10E0F801EA
:101C800010821092DA0081EEC82ED12CF60110825B
:101C900088818F77888388818068888388818F7D19
:101CA000888319BC109291011092920110929001B8
:101CB00010928F0190EEE92EF12CF70180818B7F3D
:101CC000808388818160888342E060E080E00E94B8
:101CD0004D0AF60180818E7F8083F80180818160CA
:101CE0008083808188608083F70180818E7F8083FC
:101CF000888180618883DF91CF911F910F91FF9040
:101D0000EF90DF90CF9008951F920F920FB60F9231
:101D100011242F933F934F935F936F937F938F93F0
:101D20009F93AF93BF93EF93FF938091E10082FF66
:101D300009C08091E20082FF05C08091E1008B7FA5
:101D40008093E1008091DA0080FF2AC08091D80062
:101D500080FF26C08091DA008E7F8093DA00809128
:101D6000D90080FF18C080E189BD82E189BD09B436
:101D700000FEFDCF81E08093910180916C01811183
:101D80000FC00E94040E0E94230E8091E200846026
:101D90008093E20005C019BC1092910110926C0171
:101DA0008091E10080FF17C08091E20080FF13C0A6
:101DB0008091E2008E7F8093E2008091E20080615A
:101DC0008093E2008091D80080628093D80019BC93
:101DD00085E0809391018091E10084FF2EC0809185
:101DE000E20084FF2AC080E189BD82E189BD09B497
:101DF00000FEFDCF8091D8008F7D8093D800809128
:101E0000E1008F7E8093E1008091E2008F7E8093DD
:101E1000E2008091E20081608093E2008091920173
:101E2000882311F084E007C08091E30087FD02C0A1
:101E300081E001C083E0809391018091E10083FF04
:101E400027C08091E20083FF23C08091E100877F5B
:101E50008093E10082E08093910110929201809141
:101E6000E1008E7F8093E1008091E2008E7F80937D
:101E7000E2008091E20080618093E20042E060E055
:101E800080E00E944D0A8091F00088608093F0000D
:101E9000FF91EF91BF91AF919F918F917F916F9142
:101EA0005F914F913F912F910F900FBE0F901F9018
:101EB00018952091E4003091E50095E64091EC0002
:101EC000842F817040FF23C08091E80080FD1DC0F9
:101ED00080919101882399F0853099F08091EB00F1
:101EE00085FD11C04091E4005091E50024173507AD
:101EF00029F3915011F09A01E1CF84E0089582E036
:101F0000089583E0089581E0089580E00895409168
:101F1000E80042FFDDCF0895EF92FF920F931F93E9
:101F2000CF93DF937C018B010E94590F811119C05F
:101F3000E70101151105A1F08091E80085FD0AC0B7
:101F40008091E8008E778093E8000E94590F8823E3
:101F500081F307C089918093F10001501109E9CF05
:101F600080E0DF91CF911F910F91FF90EF90089546
:101F700090919101943029F58093690170936B01E0
:101F800060936A019093E9008FEF9091E80081508F
:101F900095FD06C095ED9A95F1F700008111F5CFFA
:101FA0008091E80085FF0DC040E050E063E070E004
:101FB00089E691E00E948C0F8091E8008E778093F3
:101FC000E8000895BC0184E00C94B80FBC0183E0E4
:101FD0000C94B80F24E02093E9002FEF3091E80033
:101FE000215035FD06C035ED3A95F1F7000021117D
:101FF000F5CF2091E80025FF0BC040E050E066E0FF
:1020000070E00E948C0F8091E8008E778093E8004A
:102010000895CF93DF9320910001222339F020917E
:10202000670127FF03C060E224E002C068E021E00E
:102030002093E9002FEF3091E800215035FD06C0D4
:1020400035ED3A95F1F700002111F5CF2091E80028
:1020500025FF1DC0EC0180910001811105C040E009
:1020600050E068E070E003C070E040E050E0CE0176
:102070000E948C0F8091E8008E778093E80080E2C8
:10208000FE01AFE6B1E001900D928A95E1F7DF9194
:10209000CF91089581E08093E00080E28093D800A2
:1020A0001092C9008FE19EE40197F1F700C0000093
:1020B00087E090EBDC018093530290935402A0934D
:1020C0005502B09356029CE088E10FB6F894A895AB
:1020D000809360000FBE90936000FFCF78941F92B2
:1020E0000F920FB60F9211248F939F93AF93BF93CC
:1020F0008091630190916401A0916501B0916601A6
:102100000196A11DB11D8093630190936401A0937A
:102110006501B0936601BF91AF919F918F910F9030
:102120000FBE0F901F9018959C014FB7F8948091A7
:10213000630190916401A0916501B09166014FBF68
:10214000821B930B08952FB7F894809163019091AF
:102150006401A0916501B09166012FBF0895CF93EE
:10216000DF93CDB7DEB7AA970FB6F894DEBF0FBEE8
:10217000CDBF84B7877F84BF0FB6F894A8958091B0
:102180006000886180936000109260000FBE90E054
:1021900080E80FB6F89480936100909361000FBEC1
:1021A00085B7806885BF85B7806885BF81E195E187
:1021B00090936101809360010E94040E0E94230E9F
:1021C0008091E20084608093E20078948091910194
:1021D0008823A1F01091E9001F709091EC00892FE5
:1021E000817090FD80E8182B1092E9008091E80042
:1021F00083FD0E94EE0A1F701093E90082E084BD07
:1022000093E095BD9AEF97BD80936E000E94001DEC
:10221000811102C00E94E81C0AE111E0F8018191DD
:102220008F018F3F11F00E945615F1E00F311F070B
:10223000A9F70FE111E0AEE2EA2EA1E0FA2EF801D3
:1022400081918F018F3F11F00E945615E016F10623
:10225000B1F7ECE9F1E0A2EBB1E0119211921D921D
:102260001D9221E0E63AF207C1F70E94061881119B
:1022700002C00E94111882E090E00E9466218093C3
:10228000A7010E94F51790936801809367010E944F
:102290006D158FE39CE90197F1F700C000000E94E3
:1022A0006D158091B20180FF08C06FEF7FEF80E075
:1022B00090E00E9492210E944A1083E090E00E94E8
:1022C00066210E94C31F279A2F988AE0809380007E
:1022D00089E1809381008FEF9FEF90938700809337
:1022E00086000E949C1D509A519A529A0E949C1DF1
:1022F00081E091E0909331028093300278E1672E83
:10230000712CE0E45E2EFCEBCF2EF1E0DF2E8E018F
:102310000F5F1F4F80919101853009F04EC050E151
:10232000E52E62E1F62E80919101853009F03DC0E5
:1023300080919101843039F180E00E94191D80E084
:102340000E94DB03109234020FB6F894A8956092B5
:1023500060000FBE5092600083B7817F846083BFAE
:1023600083B7816083BF7894889583B78E7F83BF5E
:102370000FB6F894A8958091600088618093600002
:10238000109260000FBE80919001882309F4CBCF9A
:102390000E946D15E2EBF1E081919191892B09F09A
:1023A00020C3CE16DF06C1F7BECF0E94F31F0E94E6
:1023B0009C1D0E94D41B0E94DB030E946D15882384
:1023C00059F08FB7F8944091630150916401609186
:1023D0006501709166018FBFA8EAB1E0E2EBF1E020
:1023E000E12CF12C7E2D219131918D919D918227AF
:1023F0009327009779F160E0AA24A394B12CAC0153
:102400004A215B21452B09F169A37AA32A213B21AB
:1024100081E0232B09F480E08BA30E94A31081604C
:10242000782F9DA38CA349A15AA16BA18DA10E94D5
:102430003303F701EE0FFF1FE855FE4F80819181B6
:10244000A826B926B182A0821CC06F5FAA0CBB1C53
:102450006F30A9F69FEFE91AF90A25E0E216F104B8
:1024600009F68FEF8EA38FA318A60E94A310816098
:10247000782F9AA789A74EA15FA168A58AA50E9477
:10248000330386E0E4E2F2E0D80101900D928A95F0
:10249000E1F7A0902602B0902702E0902802F09089
:1024A00029021092260210922702109228021092FE
:1024B0002902A11003C0BB2009F451C0809122025F
:1024C000909123020E9494109C0190911E029923E6
:1024D00009F49DC22333310508F441C09F3F19F030
:1024E0009F5F90931E02AA2061F00E948A1E1A1418
:1024F00014F491E001C09FEF899F802D11248093F7
:102500002602BB2061F00E948A1E1B1414F491E085
:1025100001C09FEF899F802D112480932702309165
:1025200026023323E1F0209127022223C1F045EB5C
:102530003403C0011124992319F09093260203C09B
:1025400081E08093260255EB2503C00111249923D5
:1025500019F09093270203C081E080932702E110D5
:1025600003C0FF2009F451C0809120029091210204
:102570000E9494109C0190911D02992309F44CC271
:102580002536310508F441C09F3F19F09F5F9093B5
:102590001D02EE2061F00E94681E1E1414F491E0EA
:1025A00001C09FEF899F802D112480932802FF2076
:1025B00061F00E94681E1F1414F491E001C09FEFA7
:1025C000899F802D11248093290230912802332382
:1025D000E1F0209129022223C1F045EB3403C00130
:1025E0001124992319F09093280203C081E080936D
:1025F000280255EB2503C0011124992319F090936B
:10260000290203C081E08093290280912602811172
:102610000BC080912702811107C08091280281118F
:1026200003C08091290281110E94C71DAB82BC8228
:10263000ED82FE8286E0F801A4E2B2E001900D9204
:102640008A95E1F70E94D41B9091A601891731F079
:102650000E94D41B8093A6010E94DB03809191010C
:10266000843009F057CE83E08093E9008091E80040
:1026700082FF50CE8091E80085FF21C00E94590F53
:1026800081111BC040E2A42EB12C780109C08091B9
:10269000F100F70181937F01F1E0AF1AB10869F011
:1026A0008091E80085FDF3CF8091E8008B778093DF
:1026B000E8000E94590F882399F391E001C090E04F
:1026C0008091E8008B778093E800992309F422CE6B
:1026D000E9818E2F90E0FC013197E331F10508F09C
:1026E00056C1E459FF4F0C9402221A8289E0BDC002
:1026F0008A81823089F0833059F1813009F047C1F5
:102700002FB7F8948091630190916401A0916501C5
:10271000B09166012FBF19C036E2E32EF12C80E0A4
:1027200090E0DC018824982EA92EBA2EC7010E94C1
:102730006621A5019401282BDA01C9013FEFE31AB4
:10274000F30A4AE2E416F10469F7BB83AC8335C0AF
:10275000F801CE010B96A2EBB1E02C9111963C91C1
:10276000119712963283238332968E179F07A9F70B
:1027700010C18A81823009F00AC16B817C818D8110
:102780009E810E9408224B015C0199E2E92EF12C06
:10279000682DC7010E947421892C9A2CAB2CBB2474
:1027A00051E0E51AF10885E2E816F10489F7F1C075
:1027B0004C816B818A810E94971C9D838E83E9C026
:1027C000ED80FE80FE24EF24FE248C81AB809A8174
:1027D000EEE1AE9E50011124F6E99F9FA00CB11CC2
:1027E0001124A80EB11CA80EB11C6F2DC5018A962C
:1027F0000E9474216E2DC5018B960E947421C9C060
:102800000E94631CC6C08A81893009F0C2C08B81D6
:1028100025E0829FC00111246FEF70E00E94B82173
:10282000862F0E94831DB5C08A81893029F08A30A5
:1028300009F0AFC01B82ADC080912A0286958695B3
:1028400086953FEF839FC001112465E070E00E94F0
:10285000B8216B839EC080912A020E947E1D99C080
:1028600080E150C081E08A838EE78B8392C0EA804A
:10287000FB80FE24EF24FE248C80912C5801C7019C
:102880008E579D4F9501201B310B2815390508F0F7
:1028900080C04EE7E41641E0F40628F40E94662169
:1028A000F501848302C0F5011482FFEFEF1AFF0ADD
:1028B0002FEFA21AB20AE3CFEA80FB80FE24EF24B6
:1028C000FE248C80912C5801C7018E579D4F950195
:1028D000201B310B2815390508F05BC03EE7E316D5
:1028E00031E0F30620F4F50164810E947421FFEFCA
:1028F000EF1AFF0A2FEFA21AB20AE6CF0E94531C6A
:1029000048C084E08A8345C0EA80FB80FE24EF242F
:10291000FE248C80912C5801C7018A969501201BBA
:10292000310B28153905A8F538E5E31632E0F30632
:1029300028F40E946621F501848302C0F501148207
:10294000FFEFEF1AFF0A2FEFA21AB20AE5CFEA80D3
:10295000FB80FE24EF24FE248C80912C5801C701BB
:102960008A969501201B310B2815390590F438E51E
:10297000E31632E0F30620F4F50164810E9474212D
:10298000FFEFEF1AFF0A2FEFA21AB20AE8CF8FEF7C
:10299000898380919101843009F0BCCC8091E90059
:1029A0008F702091EC00922F917020FD90E8F92E0D
:1029B000F82A82E08093E9008091E80080FF0CC053
:1029C00040E050E060E270E0C8010E948C0F80910E
:1029D000E8008E778093E8008F2D8F708093E90058
:1029E00099CCE9BCF9BC09B400FEFDCF8091D800B8
:1029F0008F7D8093D8008091E00082608093E0001A
:102A00008091E00081FDFCCF0E94F31F8CCC2D3221
:102A1000314008F065CDA3CD2D32314008F0B6CD60
:102A2000F4CD80E008959091670192FF0DC0282FAA
:102A30002871283019F4877F846006C0282F2471FC
:102A4000243011F48B7F886093FF0DC0282F2871EC
:102A5000283119F4877E846106C0282F247124311F
:102A600011F48B7E88612091680120FF0DC0382F02
:102A70003871383019F4877F816006C0382F317182
:102A8000313011F48E7F886021FF0DC0282F28710E
:102A9000283119F4877E816106C0282F21712131E8
:102AA00011F48E7E886194FD877E0895F894E82F56
:102AB000E295EF70F0E031A1282F2F7081E090E0D7
:102AC00001C0880F2A95EAF7982F9095932391A338
:102AD00092A1892B82A3789408956F927F928F920E
:102AE0009F92AF92BF92CF92DF92EF92FF920F939D
:102AF0001F93CF93DF93CDB7DEB72A970FB6F89425
:102B0000DEBF0FBECDBFAE014F5F5F4F7A018AE0DF
:102B1000DA011D928A95E9F70AE111E06A018FE175
:102B2000682E81E0782E88248394912CF80180818E
:102B30008F3F09F44DC0F894E82FE295EF70F0E074
:102B400021A18F70A40102C0440F551F8A95E2F79E
:102B5000CA01922F982B91A392A18095892382A3D9
:102B6000789400C0EFE1F1E020E030E0A12CB12C3E
:102B700081918F3FC1F0A82FA295AF70B0E09096E1
:102B80004C9150E08F70DA0102C0B595A7958A95F7
:102B9000E2F7A0FD08C0C401022E02C0880F991FF1
:102BA0000A94E2F702C080E090E0A82AB92A2F5FD9
:102BB0003F4F2F303105E1F6F80180818F3F11F052
:102BC0000E945615F0EAFA95F1F7D601AD92BC9243
:102BD0000F5F1F4FB2E0CB0ED11C6016710609F0DB
:102BE000A5CF4AE050E0B7018CE991E00E9429228C
:102BF00011E0009709F410E0892B89F08AE0F701D1
:102C0000ACE9B1E001900D928A95E1F781E0809303
:102C10001C020E94A31090931B0280931A028091C1
:102C20001C02882391F180911A0290911B020E944C
:102C30009410059750F180919C0190919D01909383
:102C4000B3018093B20180919E0190919F01909376
:102C5000B5018093B4018091A0019091A10190935E
:102C6000B7018093B6018091A2019091A301909346
:102C7000B9018093B8018091A4019091A50190932E
:102C8000BB018093BA0110921C02812F2A960FB6C5
:102C9000F894DEBF0FBECDBFDF91CF911F910F9192
:102CA000FF90EF90DF90CF90BF90AF909F908F906C
:102CB0007F906F900895CF93DF938238910569F1EB
:102CC000B0F48133910509F46FC048F4893291055D
:102CD00009F465C08A32910509F46BC08AC0853356
:102CE000910509F457C089339105B9F082C0833E3C
:102CF000910571F138F4803E9105B1F0823E910565
:102D000011F177C0863E9105B9F1873E9105C9F171
:102D1000843E910509F06DC024C02091670120FD1B
:102D200053C021FD51C065C08091670180FD46C040
:102D30008091680180FF48C08091670184FD50C187
:102D400083EE90E04FC18091670182FF3AC0F4CFDB
:102D50008091670182FD35C08091680180FD34C09B
:102D6000EBCF8091680181FF35C08091670184FDC0
:102D700037C187EE90E036C18091670183FF27C09D
:102D8000F4CF8091670183FD22C08091680181FDAD
:102D900021C0EBCF8091670185FD1FC021C08091CC
:102DA000670185FD1DC019C08091670186FD1BC0AC
:102DB0001DC08091670186FD19C015C089E390E0B0
:102DC00011C182EE90E00EC180EE90E00BC186EE64
:102DD00090E008C184EE90E005C189E290E002C174
:102DE00085E390E0FFC08AE290E0FCC081E390E0E0
:102DF000F9C0811531E5930708F069C0811540E5F8
:102E00009407F0F09C0174E0369527957A95E1F7E8
:102E1000922F9370482F437021E030E002C0220FC0
:102E2000331F4A95E2F73C68392B982F9F7096958F
:102E3000969540E2949FC0011124822B932BD2C01F
:102E4000883E910568F5803E910508F0CBC0883A30
:102E50009105B8F4853A910548F0855AE82FF0E0DD
:102E6000E25DFE4F808190E09064BCC081309105AE
:102E700009F4B3C008F4B4C08430910508F4B0C0BC
:102E8000B1C08F3B910508F0ABC0885AE82FF0E045
:102E9000EE0FFF1FEF5CFE4F808191819464A2C012
:102EA000811520E2920758F4811531E0930708F06C
:102EB00099C0803F910508F493C0906593C0811537
:102EC00040E4940708F48CC09F70906A8BC0811511
:102ED00025E5920708F042C0811534E5930728F0F4
:102EE000982F8827846F906A7DC0811543E59407E9
:102EF000B0F09C012370332741E050E002C0440F42
:102F0000551F2A95E2F7282F2695269580E2289FBF
:102F100090011124CA01822B932B9A6863C08115FA
:102F200022E5920728F4982F8827816F906A5AC06B
:102F30009C012370332741E050E002C0440F551F2D
:102F40002A95E2F7282F2695269580E2289F900162
:102F50001124CA01822B932B9C6844C0EC0181157B
:102F600039E59307A8F48115984528F09C2F882708
:102F7000806F906A37C0C11586E5D80788F58C2F19
:102F80000E9413158F7190E0982F882790622AC0B5
:102F900081152AE5920790F48C2F8F700E941315EB
:102FA00094E0D695C7959A95E1F7CF70D0E0DC2FE5
:102FB000CC27D0699E01282BC90114C090568115D9
:102FC000904270F48D2F8F710E941315282F2F714E
:102FD000CE0199279062922B05C081E090E002C05B
:102FE00080E090E0DF91CF910895CF9384E090E06E
:102FF0000E946621C82F82E290E00E9466212C2F59
:1030000030E0A901582BCA01CF91089580E090E0EB
:103010000E946E21893E9E4F11F40C94001D80E0A9
:10302000089569EE7EEF80E090E00E94922160E0DA
:1030300082E090E00E94742160E083E090E00E94D2
:1030400074211092190260E084E090E00E947421E3
:1030500060E082E290E00E94742160E085E090E010
:103060000E94742160E086E090E00E9474216FEF7E
:1030700087E090E00E94742140E050E0BA0188E0CF
:1030800090E00E94862160E08DE090E00E94742133
:1030900040E050E0BA0188E190E00E94862160E0C3
:1030A00087E190E00E94742140E050E0BA018CE199
:1030B00090E00E94862160E070E080E290E00E9453
:1030C000922140E050E0BA0188E190E00E94862120
:1030D00080E00E94CA1C0E94E81C40E050E0BA0157
:1030E0008FE090E00E94862140E050E0BA0183E149
:1030F00090E00C94862180911802811110921802A0
:1031000008959091170280911602892B2091150243
:10311000982F922B9093BC01809118028823D9F0AC
:10312000892B8093BC0180910001882331F080912C
:10313000670187FF02C08EE101C086E0EEEBF1E09F
:1031400090E0815028F021912223D9F39F5FF9CF9D
:1031500091110E947B18E0913002F091310230977A
:10316000A9F080910001882359F08091670187FFC1
:1031700007C08091BC018093BD0185E08093BC01B4
:103180000280F381E02D8CEB91E009940895CF93B8
:10319000C0916801C2FB992790F9981781F080FBD4
:1031A000C2F9C09368016091670184E090E00E94D9
:1031B00074216C2F82E290E0CF910C947421CF9116
:1031C0000895209114028095822380931402982FF1
:1031D000977041F430E0482F082E000C550B24174F
:1031E000350721F49091680192FF07C08595859578
:1031F00085950E94AC1F10921402089580911302CD
:103200009091E201891719F08F5F8770FBCF0895C5
:103210000F931F93CF93DF938091E10182958F707D
:1032200009F05DC08091DE01882309F458C08091C7
:1032300013021091E2016091DC017091DD01C091F7
:10324000DF01D091E00191E06F3F09F090E0292F7C
:1032500006E0811709F443C0209721F07F3F21F059
:1032600030E003C031E001C0322F90E030FD34C0C7
:10327000089FF001099FF00D1124DF01AD51BE4FF1
:1032800011963C911197371327C03C91361324C0F7
:1032900012963C91129731111FC013964D915C917B
:1032A00014974C1B5D0B483C5105B0F48091E10133
:1032B0008F7080618093E101E851FE4F80818F70B3
:1032C000806180838CED91E00E94F103DF91CF91CA
:1032D0001F910F910C94FE1801968770BACFDF9161
:1032E000CF911F910F910895CF93DF93EC010E942E
:1032F000221FBE010E94BD1C0E945B16DF91CF9170
:1033000008959F92AF92BF92CF92DF92EF92FF9279
:103310000F931F93CF93DF93CDB7DEB761970FB6AF
:10332000F894DEBF0FBECDBF8C0185E0F801DE0151
:103330001D9601900D928A95E1F7F801E280909137
:10334000DC016091DD014091DF015091E001411508
:10335000510531F06F3F31F481E09F3F19F403C014
:1033600081E001C080E0F82FF1709F2E80FD1AC12E
:10337000F80130812181C380D4808CEDA82E81E0BA
:10338000B82EF090DE01F601E41BF50BFF2009F4E6
:10339000C6C08091E101E83CF10508F091C0482FDA
:1033A000407F09F050C0621311C093130FC0FE2C70
:1033B000E1100CC08F7080618093E101C5010E9413
:1033C000F1038091E101F801858329C1CD2831F015
:1033D0002F3F31F481E03F3F19F403C081E001C089
:1033E00080E080FD03C081E08E2502C080E090E097
:1033F000F82FF170FF2E80FF1CC0809113024091C6
:10340000E20156E0841709F4E8C090E0589FF0010B
:10341000599FF00D1124ED51FE4F6181261306C016
:103420006081631303C06281E61203C00196877056
:10343000E9CFFE2CEE2009F4F2C08091E101816019
:103440008093E10149C0621306C0931304C0E110E8
:1034500002C0F80186C0C8010E94C71F882351F12D
:10346000EE2041F12091E101822F82958F7090E052
:10347000029774F08091DC019091DD0198878F8331
:103480001986DB86CA862C87CE0107960E94F10337
:1034900086E0F801ACEDB1E001900D928A95E1F77C
:1034A0000E9408190AC06217C9F0C8010E94C71F0C
:1034B00081111EC0C8010E94F103FF24F394AFC024
:1034C000482F407F81F78CED91E00E94F10386E068
:1034D000F50111928A95E9F7F12CA1C09313E5CF7C
:1034E000E110E3CFF8018583C8010E94F10354C0C5
:1034F000EE2001F32091E101822F82958F7090E000
:10350000029734F28091DC019091DD019A838983E6
:103510001B82DD82CC822E83CE010196B7CFE83CA0
:10352000F105D0F5FE2CEE2029F2621327C093138B
:1035300025C02091E10120FD18C0822F82958F7057
:10354000482F50E04115510581F0F80125834F3097
:10355000510541F08F5F982F9295907F822F8F7049
:10356000892B8583C8010E94F10386E0F801ACED48
:10357000B1E001900D928A95E1F751C0C8010E9417
:10358000C71F811185CF8091E10181608093E101A6
:10359000C8010E94F10343C086E0F50111928A95AB
:1035A000E9F73DC0EE2009F485CFC8010E94C71F8E
:1035B000F82E882309F47ECF86E0F801ACEDB1E067
:1035C00001900D928A95E1F78091DC019091DD01E7
:1035D0000E9474190E94081922C03D872E878D858C
:1035E0009E850E947419292F22952F70223028F46D
:1035F0009F7039F0811105C00BC0243028F49F70F2
:1036000049F4805E883020F0C8010E94F1039F2CAD
:10361000F92C05C0F8019581907F99F7F9CF8F2D8E
:1036200061960FB6F894DEBF0FBECDBFDF91CF918C
:103630001F910F91FF90EF90DF90CF90BF90AF90D0
:103640009F9008951F920F920FB60F9211248F939F
:103650009F93AF93BF9380913402811113C08091E7
:10366000630190916401A0916501B091660141965A
:10367000A11DB11D8093630190936401A093650126
:10368000B0936601BF91AF919F918F910F900FBE44
:103690000F901F901895209100012223C9F02091CE
:1036A000670127FF15C0262F2695269526952E31D2
:1036B000C8F4FC01E20FF11D677081E090E001C0E9
:1036C000880F6A95EAF7809592818923828308950D
:1036D000FC0106962281621301C012823196E8171E
:1036E000F907C1F70895209100012223C1F020912C
:1036F000670127FF14C0262F2695269526952E3183
:1037000030F5FC01E20FF11D677081E090E001C02F
:10371000880F6A95EAF79281892B82830895FC01CC
:1037200032962FEF30E04191641789F02F3F19F462
:10373000411101C0232F3F5F3630A9F72F3F39F0E9
:10374000FC01E20FF11D27FDFA95628308950895AB
:1037500020913202309133022817390771F090938B
:10376000330280933202E0913002F09131023097BF
:1037700021F00084F185E02D0994089520912E0216
:1037800030912F022817390771F090932F02809300
:103790002E02E0913002F0913102309721F0068044
:1037A000F781E02D09940895E0913002F091310203
:1037B000309721F00190F081E02D099480E0089588
:1037C0000F931F93CF93DF93C42FD22FFC018281DD
:1037D0008823C9F040932D020E94A31090932C02DD
:1037E00080932B0280E28C0F883008F057C0C7709E
:1037F00081E001C0880FCA95EAF7DF91CF911F9150
:103800000F910C94132080912D02481330C08091A9
:103810002B0290912C020E949410883C910538F55F
:1038200010E21D0FCD17B9F080E28C0F883040F404
:10383000C77081E001C0880FCA95EAF70E9408208E
:10384000183028F581E09D2F977001C0880F9A9558
:10385000EAF70E941320802F0E9448211830F0F4CC
:10386000D77081E001C0880FDA95EAF70AC080E2DC
:103870008C0F883098F4C77081E001C0880FCA951A
:10388000EAF7DF91CF911F910F910C940820802FC0
:10389000DF91CF911F910F910C944821DF91CF912F
:1038A0001F910F910895CF93DF93C2E8D2E060E0BB
:1038B000CE010E9474212196C11584E0D807B9F782
:1038C000DF91CF910895CF92DF92EF92FF920F9305
:1038D0001F93CF93DF93C0E0D0E08E010A561F4FB5
:1038E0006E018EE1C80ED11CFE01E558FC4FE5903B
:1038F000F4906F2DCE018A960E9474216E2DCE0118
:103900008B960E9474212296CC15DD0569F70C1761
:103910001D0731F7E80108351240F9F6DF91CF9124
:103920001F910F91FF90EF90DF90CF9008950F932C
:103930001F93CF93DF93C42FD0E0CC0FDD1F2EE178
:10394000629FC00DD11D112436E9839FC00DD11D8A
:103950001124CE018A960E946621082F10E0102FB4
:103960000027CE018B960E9466219801282BC90161
:10397000DF91CF911F910F910895462F843038F435
:10398000753028F46F3018F4672F0C94971C80E082
:1039900090E00895CF93C82F811102C06FEF01C04E
:1039A00061E283E290E00E947421C11102C06FEFD6
:1039B00001C060E184E290E00E947421C11102C064
:1039C0006FEF01C060E185E290E0CF910C9474212B
:1039D000CF93DF9380E00E94CA1CC9E2D0E060E090
:1039E000CE010E9474212197C532D105C1F70E94F2
:1039F000631C0E94531C81E0DF91CF910C94CA1C80
:103A000083E290E00E946621813281F484E290E0BA
:103A10000E946621803151F485E290E00E94662187
:103A200091E0803109F090E0892F01C080E0817041
:103A30000895CF92DF92EF92FF92863048F4811181
:103A400008C090918000977F909380002F9806C0C7
:103A500085E090918000986090938000282F30E05E
:103A6000AFEFBFEF0E940F2225E030E040E050E0D2
:103A70000E94E021B42FA32F922F8827492F5A2F7D
:103A80006B2F7727CA014C3724E1520728F469E0ED
:103A900070E00E94B82129C0DB01CA018A50974D0D
:103AA000AF4FBF4F6627782F892F9A2F25EF38E227
:103AB00041E050E00E94E02169017A01CA01B901A8
:103AC0000E94A8219B01AC01C701B6010E94A82158
:103AD000BB27A92F982F872F009721E0A207B105B8
:103AE00011F0BC0102C06FEF7FEF70938D00609307
:103AF0008C00FF90EF90DF90CF900895682F86E0C4
:103B000090E00C947421863008F085E090912A02B0
:103B10009770282F220F220F220F922B90932A02A8
:103B2000987F21E009F420E090912A0220FB90F98F
:103B300090932A020C94191D0E94061881110AC044
:103B40000E94111880912A028470896280932A024F
:103B50000E947E1D86E090E00E94662180932A02EA
:103B6000282F26952695269530E02630310524F01D
:103B70008770886280932A0280912A0280FF04C0A5
:103B800086958695869501C080E00C94191D0E944B
:103B9000A31020912602211104C020912702222384
:103BA00021F0909323028093220220912802211178
:103BB00004C020912902222321F0909321028093B6
:103BC0002002E0913002F0913102309749F082E01A
:103BD000809324020480F581E02D84E292E0099430
:103BE0000895803F39F49091270297FF35C01092D5
:103BF000270259C0813F29F4909127021916BCF37E
:103C00002BC090912602823F29F497FF25C0109285
:103C1000260249C0833F19F41916CCF31DC09091B8
:103C20002802893F29F41916BCF4109228023BC0DF
:103C30008A3F19F497FF10C0F8CF8B3F39F4909169
:103C4000290297FF09C0109229022DC08C3F21F450
:103C5000909129021916BCF39CE0980F953080F4DE
:103C600021E030E0A90102C0440F551F9A95E2F708
:103C7000CA0180959091250289238093250213C063
:103C80008D3F21F480911F028E7F0BC08E3F21F467
:103C900080911F028D7F05C08F3F29F480911F0204
:103CA0008B7F80931F0280912602811106C0809134
:103CB0002702811102C010921E02809128028111F8
:103CC00006C080912902811102C010921D02089540
:103CD00080911F0280FD16C081FD16C082FD18C0B4
:103CE00080911D02882391F0883290F428E0829F11
:103CF000C001112468E270E00E94CC21862F672B5E
:103D000029F007C082E0089584E0089581E00895D5
:103D100088E0089580911F0280FD14C081FD14C0C9
:103D200082FD16C080911E02882381F0843180F4C8
:103D300022E3829FC001112464E170E00E94CC2143
:103D4000862F08958CE0089589E1089585E008950F
:103D500082E30895803F21F40E948A1E819504C069
:103D6000813F29F40E948A1E809327020895823F92
:103D700021F40E948A1E819504C0833F29F40E9489
:103D80008A1E809326020895893F19F40E94681EB6
:103D900005C08A3F31F40E94681E819580932802F5
:103DA00008958B3F21F40E94681E819504C08C3FCA
:103DB00029F40E94681E8093290208959CE0980FC0
:103DC000953078F421E030E0A90102C0440F551F7E
:103DD0009A95E2F7CA0190912502892B80932502DA
:103DE00008958D3F21F480911F0281600BC08E3FAA
:103DF00021F480911F02826005C08F3F29F48091D9
:103E00001F02846080931F02089580E090E00E946A
:103E1000BE1B80E090E00E94A81B10921602109238
:103E200015020E948118E4E2F2E086E0DF011D92B3
:103E30008A95E9F710921E0210921D0210921F023D
:103E40000C94C71DCF92DF92FF920F931F93CF93D5
:103E5000DF936C0100919B0180911902082BC7E050
:103E6000D0E010E0C8010C2E02C0959587950A9409
:103E7000E2F780FD04C02197A8F7F12C09C0FC2EC1
:103E8000B6018C2F0E94BD1C0E945B16019799F30E
:103E90008F2DDF91CF911F910F91FF90DF90CF90E9
:103EA00008952FE0929F800D1124682F66956695E6
:103EB0006695982F977083E0689FB001112440E0C9
:103EC00050E080E0FB01E40FF51FEB5CFD4F20812B
:103ED00030E0092E02C0369527950A94E2F721704A
:103EE0003327042E01C0220F0A94EAF7822B4F5F7A
:103EF0005F4F4330510531F708952FE0929F800DB9
:103F00001124E82FE695E695E695877051E001C00B
:103F1000550F8A95EAF783E0E89FF0011124EB5CE6
:103F2000FD4F20E030E070E04081CB01022E02C066
:103F3000969587950A94E2F7817081958427852369
:103F4000842781932F5F3F4F2330310569F7089510
:103F500080939B010C94051F21E030E001C0220FEB
:103F60008A95EAF7209580919B0182230C94A81FE3
:103F700021E030E001C0220F8A95EAF780919B0191
:103F8000822B0C94A81F809319020C94051FFC012E
:103F9000808191810E947419292F2F70E92FE29559
:103FA000EF704E2F50E0FA013297EE30F105B8F481
:103FB000E158FF4F0C940222803F99F018F4883E9C
:103FC00070F40FC0843F59F40CC0883E50F0813F1C
:103FD00031F407C0822F869586958695089580E0F6
:103FE000089581E0089510921702809100018823BE
:103FF00031F08091670187FF02C08EE101C086E049
:10400000EEEBF1E0DF011D928A95E9F70C94051FB4
:10401000882341F08095909117028923809317029D
:104020000C9481180895882339F090911702892BF8
:10403000809317020C9481180895882309F463C0B3
:10404000823869F40E94D41B81FF5DC069E38CEB68
:1040500091E00E94731B0E94811869E30EC08338AF
:1040600091F40E94D41B80FF4EC063E58CEB91E07D
:104070000E94731B0E94811863E58CEB91E00E9403
:104080004B1B0C948118843869F40E94D41B82FF66
:104090003AC067E48CEB91E00E94731B0E94811888
:1040A00067E4EBCF9CEF980F913A10F4682FE5CFBF
:1040B00090E2980F983088F4877021E030E0A901F1
:1040C00002C0440F551F8A95E2F7CA01809590916E
:1040D0001702892380931702D4CF9BE5980F933062
:1040E00020F480E090E00C94BE1B98E5980F973187
:1040F00020F480E090E00C94A81B803F20F00E9408
:10410000F11D0C94C71D0895CF93882309F4BEC0F8
:10411000C82F8238B1F40E94D41B81FDB7C069E377
:104120008CEB91E00E94731B0E9481182FEF81EEAF
:1041300094E0215080409040E1F700C0000069E326
:1041400017C08338E1F40E94D41B80FD9FC063E553
:104150008CEB91E00E94731B0E9481182FEF81EE7F
:1041600094E0215080409040E1F700C0000063E5FA
:104170008CEB91E00E944B1BCF910C9481188438FA
:10418000B1F40E94D41B82FD81C067E48CEB91E006
:104190000E94731B0E9481182FEF81EE94E0215042
:1041A00080409040E1F700C0000067E4E1CF8CEF71
:1041B0008C0F813AC0F5809100018823E1F0809155
:1041C000670187FF18C0EC2FE695E695E695F0E0CD
:1041D000E454FE4F8281282F30E04C2F477081E05D
:1041E00090E002C0880F991F4A95E2F7822393233B
:1041F000892B61F412C0EEEBF1E084EC91E02191A7
:10420000C21721F08E179F07D1F707C06C2F8CEBD8
:1042100091E00E944B1B0E9481186C2F8CEB91E067
:104220000E94731BA9CF80E28C0F883068F4C7709E
:1042300081E090E001C0880FCA95EAF790911702DB
:10424000892B8093170298CFEBE5EC0FE33040F415
:10425000F0E0E25DFE4F808190E0CF910C94BE1BB8
:10426000E8E5EC0FE73150F4F0E0EE0FFF1FEF5CF4
:10427000FE4F80819181CF910C94A81BC03F30F0FC
:104280008C2F0E94AA1ECF910C94C71DCF91089528
:104290001F93CF93DF93182F893319F0C0E0D0E03C
:1042A00002C0C0E5D0E0812F0E948420209741F019
:1042B0008FE99FE00197F1F700C000002197F6CF4A
:1042C000812FDF91CF911F910C941D20F999FECF82
:1042D00092BD81BDF89A992780B50895A8E1B0E014
:1042E00042E050E00C949A21262FF999FECF92BD1E
:1042F00081BDF89A019700B4021639F01FBA20BDAB
:104300000FB6F894FA9AF99A0FBE08950396272FDC
:104310000E9475210E947421252F0E947521242F4F
:104320000C9475210196272F0E9475210C947421FD
:10433000DC01CB01FC01F999FECF06C0F2BDE1BD65
:10434000F89A319600B40D9241505040B8F7089554
:10435000DB018F939F930E941E22BF91AF91A29F7A
:10436000800D911DA39F900DB29F900D1124089573
:10437000AA1BBB1B51E107C0AA1FBB1FA617B7078B
:1043800010F0A61BB70B881F991F5A95A9F78095A7
:104390009095BC01CD01089597FB072E16F400946B
:1043A00007D077FD09D00E94B82107FC05D03EF464
:1043B000909581959F4F0895709561957F4F0895D1
:1043C000A1E21A2EAA1BBB1BFD010DC0AA1FBB1F19
:1043D000EE1FFF1FA217B307E407F50720F0A21B8B
:1043E000B30BE40BF50B661F771F881F991F1A94F8
:1043F00069F760957095809590959B01AC01BD0122
:10440000CF010895EE0FFF1F0590F491E02D099460
:104410006927962769277827872778270895A29FF5
:10442000B001B39FC001A39F700D811D1124911D88
:10443000B29F700D811D1124911D08950E940F22BD
:10444000A59F900DB49F900DA49F800D911D1124E8
:104450000895FB01DC0104C08D910190801921F4C5
:1044600041505040C8F7881B990B0895F894FFCF2E
:1044700001E00A0910EA0FE60FE20F4022B6A2029D
:104480008002CA01F4020D032D0330313233366647
:1044900067F7F6F5F4F1F0939594969734358182A9
:1044A00083E200E900EA00B500B600B700CD008362
:1044B00001CC008A019201940121022302240225E9
:1044C00002260227022A02B300B4006F0070000027
:00000001FF
