:100000000C947F030C94C6030C94112B0C94C60320
:100010000C94C6030C94C6030C94C6030C94C6033C
:100020000C94C6030C94C6030C94C1140C94FD13D9
:100030000C9441230C94C6030C94C6030C94C60381
:100040000C94C6030C94C6030C94C6030C94C6030C
:100050000C94C6030C9477160C94C6030C94C60338
:100060000C94C6030C94C6030C94C6030C94C603EC
:100070000C94C6030C94C6030C94C6030C94C603DC
:100080000C94C6030C94C6030C94C6030C94C603CC
:100090000C94C6030C94C6030C94C6030C94C603BC
:1000A0000C94C6030C94C6030C94C60396079607DB
:1000B000D207D2072808BF094F09BF094A08BD085F
:1000C000D008D0085C0989096409670970096A09C0
:1000D00073099F0EA20EBE0ECB0ED20EF20EF50EBF
:1000E000380F6F0F0C100C107E0F800F840FA70FAE
:1000F000C70FCA0FCD0FEE0F11123812DF133812CF
:10010000DF138412A712DF139C13AC13591E591E60
:100110006C1E6C1E621E6C1E6C1E6C1E591E591EBF
:10012000671E6C1E6C1E671E0000000000000000B1
:1001300000000000000000000000000000000000BF
:100140000000000000000000000000007E0F00D44E
:10015000FFFFFFC700000078000000000000000063
:100160002A2B280000000000000000000000000012
:1001700000000029000000002C1E3420212224341D
:100180002627252E362D3738271E1F2021222324EF
:1001900025263333362E37381F0405060708090A8B
:1001A0000B0C0D0E0F101112131415161718191A27
:1001B0001B1C1D2F3130232D350405060708090AA5
:1001C0000B0C0D0E0F101112131415161718191A07
:1001D0001B1C1D2F3130354C00047F3F1F6432142F
:1001E000643214783C1E1E140A0505010980A10121
:1001F000850319012AB700150126B700950175106E
:100200008100C0050C0901A101850419012AA00281
:10021000150126A002950175108100C00660FF0936
:1002200061A1010962150026FF0095207508810271
:100230000963150026FF00952075089102C005018D
:100240000906A101050719E029E715002501950810
:10025000750181029501750881010507190029FFC3
:10026000150026FF0095067508810005081901296B
:1002700005950575019102950175039101C009026B
:100280005B00030100A0320904000001030101002A
:100290000921110100012240000705810308000A1D
:1002A00009040100020300000009211101000122DC
:1002B0002200070582032000010705030320000137
:1002C00009040200010300000009211101000122BC
:1002D00032000705840320000A120100020000001A
:1002E00008DEC037130002010200010A034A006958
:1002F0000061006E0000001C034B0067004F0066A9
:10030000004800650064006700650068006F0067D2
:100310000073000000040309042223252628292A4B
:100320002C2D2F3032333536383A3B3D3E40424358
:100330004547494A4C4E5051535557595A5C5E6097
:1003400062646668696B6D6F71737577797B7D7FA9
:1003500081838587898A8C8E90929496989A9C9EA8
:100360009FA1A3A5A7A8AAACAEAFB1B3B4B6B8B9C4
:10037000BBBCBEBFC1C2C3C5C6C7C9CACBCCCDCE2C
:10038000D0D1D2D2D3D4D5D6D7D7D8D9D9DADADB0F
:10039000DBDBDCDCDCDCDCDDDDDDDDDCDCDCDCDC9B
:1003A000DBDBDBDADAD9D9D8D7D7D6D5D4D3D2D2DA
:1003B000D1D0CECDCCCBCAC9C7C6C5C3C2C1BFBEC2
:1003C000BCBBB9B8B6B4B3B1AFAEACAAA8A7A5A32D
:1003D000A19F9E9C9A98969492908E8C8A898785EC
:1003E00083817F7D7B79777573716F6D6B696866CB
:1003F0006462605E5C5A5957555351504E4C4A499D
:1004000047454342403E3D3B3A3836353332302F44
:100410002D2C2A2928262523223500140008001512
:100420000017000A00E00004001A00070009000598
:1004300000E300E2001600060019002C6200000034
:10044000001D001B002B4228412F0013000C001838
:10045000001C000B003471330012000E000D00115F
:1004600000307831740F00360010002A720000004E
:1004700000380037004C4229412D023A003C003D33
:10048000003E0022022E611E023B002002210222B9
:1004900000010057641F022000210001000000003D
:1004A000001E001F002B4301004400430041004098
:1004B000003F0023022D712702420025022402235F
:1004C00000457801002602250024000100000000FC
:1004D00000270026004C43010053005400600061D7
:1004E00000560057002E6155005F005D005E0085DC
:1004F00000010001005C005A005B000100000000E8
:100500000062005900010028433900470046004AB4
:1005100000A900A800657149004B0052005000AAD4
:1005200000010001004F0051004D000100000000DB
:100530000048004E0001002943015C0000C95CC670
:100540005CC55CC75C00000000BE5CCA5CC85CC3E4
:100550005C005C0000BD5CC25CC45CF05600000046
:1005600000C15CBF5C01000100015C0000C95CC609
:100570005CC55CC75C00000000BE5CCA5CC85CC3B4
:100580005C005C0000BD5CC25CC45CF05600000016
:1005900000C15CBF5C01000100000101010101011B
:1005A000010101020202020202020202030303032A
:1005B00003030303040404040404040505050505FA
:1005C00006060606060707070707080808080909B8
:1005D00009090A0A0A0B0B0B0C0C0C0D0D0D0E0E63
:1005E0000E0F0F0F101011111112121313141415F6
:1005F0001516161717181819191A1A1B1B1C1D1D6A
:100600001E1E1F20202122222324242526262728BF
:1006100029292A2B2C2D2D2E2F30313232333435EF
:10062000363738393A3B3C3D3E3F404142434445F2
:10063000464748494A4C4D4E4F50515354555658D1
:10064000595A5B5D5E5F616264656668696B6C6D7B
:100650006F7072737577787A7B7D7E8082838587F1
:10066000888A8C8E8F91939596989A9C9EA0A2A32F
:10067000A5A7A9ABADAFB1B3B5B7BABCBEC0C2C434
:10068000C6C9CBCDCFD1D4D6D8DBDDDFE2E4E7E9F4
:10069000EBEEF0F3F5F8FAFDFFFFAA7F55400004FA
:1006A0000104020403040404050400050105020515
:1006B00003050405050500060106020603060406F7
:1006C00005060007010702070307040705070000E6
:1006D0000100020003000400050000010101020105
:1006E00003010401050100020102020203020402E7
:1006F000050200030103020303030403050311249D
:100700001FBECFEFDAE0DEBFCDBF04B603FE27C0C9
:100710008091D3029091D402A091D502B091D602DB
:100720008730904BA740B04BD1F41092D302109277
:10073000D4021092D5021092D60214BE84B7877FDD
:1007400084BF0FB6F894A89580916000886180936B
:100750006000109260000FBEE0E0F8E3099511E040
:10076000A0E0B1E0EEE5FBE502C005900D92A23CF1
:10077000B107D9F722E0A2ECB1E001C01D92A33D80
:10078000B207E1F70E94760B0C94AD2D0C9400009B
:100790003F924F925F926F927F928F929F92AF9211
:1007A000BF92CF92DF92EF92FF920F931F93CF935E
:1007B000DF93CDB7DEB729970FB6F894DEBF0FBE33
:1007C000CDBFFC018081918123813481232B31F0C5
:1007D0009F3F31F491E08F3F19F403C091E001C0D5
:1007E00090E090FD6BC77F0185E0DE0111960190DE
:1007F0000D928A95E1F7F701228189819A8122235E
:1008000049F00E94081E182F682F89819A810E9442
:100810004C2003C00E941F20182F69817A81812FEC
:100820000E94C1248C01F7018281882309F4F2C05F
:10083000980122513F452031310508F0EFC58FEF77
:1008400093E00E94902C8111EEC0025157EA852E50
:1008500099249394002379F08114F4E09F0609F41D
:10086000E2C0C4010E94902C811101C001502FEF01
:10087000821A920AEFCF1E821F821886198644249C
:1008800043944AE0342E84010F5F1F4FC4010E943D
:10089000902C8E831F82882309F4C5C09FEF980F88
:1008A000933060F48F834E8232E0830E911CC80136
:1008B0000E94902C8887811102C0B5C048018E012A
:1008C0000A5F1F4FF80120812223E9F2213009F04D
:1008D0004CC08181813049F46801F2E0CF0ED11C17
:1008E000F80182810E94D4200AC0823051F468014C
:1008F000F2E0CF0ED11CF80182810E94162A8601F7
:1009000086C0833049F46801F2E0CF0ED11CF801B3
:1009100082810E94DE29F3CF843019F00F5F1F4FD0
:1009200076C0F80122810E5F1F4F80E090E030E03A
:10093000205331092A30310568F4389EA001399ED0
:10094000500D1124C901840F951F0F5F1F4FF8012F
:100950002081EDCF009709F45AC0EFE9FFE031970D
:10096000F1F700C000000197F5CFE22FF0E0E85A60
:10097000FE4F5490822F86958695869590E0FC01D7
:10098000E85BFE4F64902770712C022E02C07594B4
:1009900067940A94E2F7F1E06F227724FC01E85CA7
:1009A000FE4FA490B12C022E02C0B594A7940A94D5
:1009B000E2F731E0A322BB24FC01E85DFE4FC490C6
:1009C000D12C02C0D594C7942A95E2F781E0C822C1
:1009D000DD246114710419F081EE0E94162AA1141D
:1009E000B10419F086EE0E94162A852D0E94D420AB
:1009F000AB2819F086EE0E94DE29672819F081EEF7
:100A00000E94DE29CD2819F08CE20E94D4200F5FCD
:100A10001F4F58CF0031FFE51F0749F581E00E94C5
:100A20007C200E94091180919002877009F446C6CB
:100A3000F7018281882309F441C682E029960FB626
:100A4000F894DEBF0FBECDBFDF91CF911F910F9104
:100A5000FF90EF90DF90CF90BF90AF909F908F90DE
:100A60007F906F905F904F903F900C948820013161
:100A70002FE51207A9F482E0D2CF0D3B3CE5130726
:100A800009F4DBC408F411C50F3B2CE5120709F487
:100A90001FC508F427C5003C9CE5190709F4DDC40F
:100AA000033FFCE51F0799F406E221EE40EE63EFF9
:100AB0007CE509C0073DECE51E0711F506E221EED5
:100AC00041EE67ED7CE5C7010E94E423ACCF043F13
:100AD0002CE5120708F03FC1083D3CE5130731F44F
:100AE00007E225EE45EE68ED7CE5EDCF093D9CE59E
:100AF000190701F708E221E045EE69ED7CE5E3CF57
:100B0000882309F45DC11092BF0202309CE51907E9
:100B100008F440C10631ECE51E0730F0C8018A5FD9
:100B20009C45099708F036C10E94DE1A9093C701D0
:100B30008093C6010031FCE51F0709F4C3C008F02B
:100B400041C008303CE5130709F49AC0F0F40430C2
:100B50009CE5190709F487C068F40230FCE51F071B
:100B600009F477C003301C4509F0E5C08091C60147
:100B7000826076C006303CE5130709F46EC008F0C9
:100B80007BC08091C60188606BC00C309CE5190762
:100B900009F485C068F40A30FCE51F0709F474C045
:100BA00008F079C00E94B4208091C601806858C0C6
:100BB0000E303CE5130709F476C008F07FC0809141
:100BC000C6018BC00B3F9CE5190709F44FC018F50F
:100BD0000331FCE51F0709F47DC078F401313CE5E1
:100BE000130709F473C002311C4509F0A4C00E9428
:100BF000B4208091C6018F7733C005319CE5190779
:100C000009F472C008F486C00A3F1C4509F093C07D
:100C10008091C7013EC00F3F2CE5120709F45FC069
:100C200058F40D3F8CE5180709F444C008F43FC0A0
:100C30008091C70182602DC00130EDE51E0709F4E7
:100C400075C008F45DC002301D4509F074C060E055
:100C50006EC08091C601816003C08091C601806131
:100C60008093C60168C08091C60111C08091C70100
:100C700082608093C7015FC08091C6018062F0CF1F
:100C80008091C6018064ECCF8091C6018860846049
:100C9000E7CF8160EECF8091C6018E7FE1CF80915A
:100CA000C6018D7FDDCF8091C601877FD9CF80912E
:100CB000C70118C08091C7018D7FDBCF8091C6012D
:100CC0008F7ECECF8091C6018F7DCACF8091C60125
:100CD0008F7BC6CF8091C601877F8B7FC1CF8091EC
:100CE000C7018D7F8E7FC5CF8091C60182FB2227F1
:100CF00020F991E0922790FB82F990FB83F9B0CF25
:100D00008091C701982F909591708E7F892B90FBD1
:100D100081F9AFCF0E94B4208091C60187FB2227C2
:100D200020F991E0922790FB87F99ACF61E08EE05D
:100D300090E00E94A42C6091C6011091C70184E04C
:100D400090E00E94A42C612F82E290E00E94A42CEB
:100D50000E94B42068CE053FFCE51F0731F406E28F
:100D600021EE42EE65EF7CE5AECE053F2CE51207A5
:100D700030F407E225EE44EE64EF7CE5A4CE063FB6
:100D80003CE5130709F0BCCE07E225EE46EE66EF20
:100D90007CE599CE06318CE5180759F580919302D0
:100DA0008A7A91E009F490E09093C401882311F0CD
:100DB00065E301C069E28CE392E00E948E2316C0D5
:100DC00006312CE5120709F047C08091C401882341
:100DD00009F4A5C385E3ECE3F2E09281891301C035
:100DE0001282319632E0E234F307B9F70E943D1DDA
:100DF0001ACE0A35FDE51F0749F158F401153CE507
:100E00001307B1F00E3D1C4509F042C00E94CD1CF5
:100E10000ACE0B359DE51907D9F00C351D45C1F5F6
:100E20008091C70182FB882780F991E0892711C052
:100E30000E94B420FFEF24E33CE0F150204030401A
:100E4000E1F700C000000E945316EDCD81E001C023
:100E500080E00E94781D1CC08091930282720C3C3D
:100E60009CE5190709F40AC408F08BC3063CFCE5AD
:100E70001F0709F4EFC308F062C3033C3CE5130706
:100E800009F4DEC308F04DC3023C1C4509F4AEC3AF
:100E9000F701828100811181882349F0C8010E94F5
:100EA000081ED82E682FC8010E944C2004C0C8011B
:100EB0000E941F20D82EB8018D2D0E94C1240E94AF
:100EC0004D19082FD92EB82EF7011281C580C29472
:100ED0003FE0C322809190028770C1F01123B1F0EE
:100EE000892F807F803449F090E2900F983070F025
:100EF000803619F4F6EF0F1749F082E00E9488203F
:100F0000809190028770AA24A3948111A12C9D2C1A
:100F100092942FE09222892D90E08C30910508F078
:100F20002EC2FC01EA5AFF4F0C94402D9D2D9F705C
:100F30008D2D807FC92E19F0C29490EFC922112304
:100F4000B9F0CC2009F496C180E2800F883010F00F
:100F5000B11006C080919302C82AC092930205C0C6
:100F600080919202C82AC09292020E943D1D82C1C5
:100F7000802F0E94DE29CC2009F401C2005EC094BB
:100F8000083010F0B11006C080919302C822C092C0
:100F9000930205C080919202C822C09292020E94E0
:100FA0003D1DEDC19D2D9F708D2D807F892E80323E
:100FB00019F0829480EF8822BB2021F021E0B21644
:100FC00011F130C01123B1F0CC2081F031E0C31217
:100FD0000DC08091C70182FDD2C180919402882A00
:100FE000881609F4CCC180929402C9C18091940200
:100FF000882910C0CC2021F081E0C81609F4BFC1B7
:101000000E94371D21C0112341F095E09C1508F482
:10101000B6C1882D0E94CA20B2C1E4E0EC1508F4E4
:10102000AEC112C0112319F0CC2099F323C1CC20FA
:1010300059F0F9E3BF122FC12FEF37EE83E02150B3
:1010400030408040E1F725C1882D0E94BF2097C124
:101050008D2D86958695837019F0813071F08FC142
:10106000112331F0802F9D2D93700E94BE238FC1DC
:1010700080E090E00E94BE23A2C1112331F0802FB6
:101080009D2D93700E94A82382C180E090E00E9471
:10109000A82395C18D2D8370A1F5111174C1402F26
:1010A000429546954770440F440F202F2F7030E033
:1010B000C901042E01C0880F0A94EAF704FF08C092
:1010C0002FE030E001C0220F4A95EAF7209501C0D9
:1010D00020E03D2D369536953370323069F040F47E
:1010E00040919502313019F0822B842302C0842B69
:1010F000822B0E94B02047C1282B80919502822725
:10110000F8CF112319F08D2D817001C086958823A9
:1011100009F439C1402F429546954770440F440F5A
:10112000202F2F7030E0C901042E01C0880F0A94CF
:10113000EAF704FF08C02FE030E001C0220F4A9513
:10114000EAF7209501C020E03D2D369536953370A5
:10115000323051F070F440910902313019F0822B95
:10116000842308C0842B05C0282B80910902822784
:1011700001C0822B0E94782006C19D2D9F70C92E30
:10118000112339F0892F0E94A520802F0E94CA20A8
:10119000FAC0802F0E94BF208C2D0E947C20F3C0BB
:1011A000802FE2EFBE1661F1EB1538F0F0EFBF16BD
:1011B00059F021EFB216F9F059C033EFB31639F1F7
:1011C00094EFB91691F152C0112381F0E4E0EC15CF
:1011D00008F4D5C02D2D2F7181E090E001C0880F5B
:1011E0002A95EAF79091090289271CC0F5E0FC15C1
:1011F00008F4C5C0EFCF112329F08D2D8F7128C0C1
:101200001123D9F38D2D8F710E947C20B8C011233A
:1012100041F081E09D2D9F7101C0880F9A95EAF7FA
:1012200001C080E00E947820AAC01123A1F00D2DFA
:101230000F71802F0E94A5208091C70182FD07C0F9
:1012400028E0029FC0011124836080939002802FC8
:101250000E94A52094C081E00E94882031E03C15C6
:1012600008F08DC082E00E94882089C0112331F0EF
:10127000CC2019F2802F0E94162A81C0CC2011F2B6
:10128000893349F48FEF97EEE3E081509040E040DE
:10129000E1F700C00000802F0E94DE2970C08B2D76
:1012A00090E0FC01E05FF109E730F10508F03EC095
:1012B000EE59FF4F0C94402D112309F480C09091FA
:1012C000570281E0892715C01093570260C081E062
:1012D00081270FC011115BC081E0809357026FC05E
:1012E000111155C06AC0112339F082E08093C50105
:1012F00081E0809357024BC08091C501823019F480
:1013000081E08093C5018091C501833009F057C009
:1013100052C0112339F080915602882381F2109235
:10132000560235C0F4E0FC1550F649C080915602D3
:10133000CC20C1F0882341F09091570281E08927A9
:101340008093570210925602802F112319F00E94A9
:10135000162A1DC00E94DE2986E0F70111928A95A7
:10136000E9F72DC0882399F0111111C0909157020F
:1013700081E08927809357021092560220C088EF9F
:10138000890D843020F40E94D4230E94C82911239F
:10139000B1F08D2D807F803619F4F6EFBF1679F00D
:1013A0008091C501823019F483E08093C50180915A
:1013B000C501813021F41092C50110925702AA2074
:1013C00009F47CC18091900280FD78C1F7011282FE
:1013D0008595859585950E94A520C7010E94C80323
:1013E0008091900285958595859529960FB6F894FC
:1013F000DEBF0FBECDBFDF91CF911F910F91FF9048
:10140000EF90DF90CF90BF90AF909F908F907F90A4
:101410006F905F904F903F900C947C200031EFE5EF
:101420001E0711F481E006C00131FFE51F0709F036
:1014300024CB82E00E94A520F4CA8091BC02982FA0
:1014400096959695969549F1915E990F990F990FFA
:101450008770892B8093BC0214C09091BC02892FA5
:101460008695869586958F5F8F71863008F053C07C
:10147000880F880F880F9770892B8093BC0280910A
:10148000BC02887F91E009F490E08091BC0290FB5F
:1014900080F98093BC020E9479258091BC028695D8
:1014A000869586950E941425BECA0B3BECE51E0767
:1014B00011F485E006C00C3BFCE51F0709F0F0CAFB
:1014C00080E00E947E258091BC020E947925ABCAF3
:1014D0008091BC0280FF03C00E949725A4CA0E948D
:1014E000A425A1CA2091BC02822F86958695869557
:1014F000482F50E04530510554F48F5F982F990FD5
:10150000990F990F822F8770892B8093BC0280914D
:10151000BC028160BECF97709093BC02B0CF89E2CD
:101520005ACC043CFCE51F0709F48FC0053C1C4560
:1015300009F0AECC44E658E26DE678E2A3C0093C7F
:101540003CE5130709F490C070F4073CECE51E0776
:1015500009F485C0083C1C4509F09ACC48E558E2DE
:101560006CE478E28FC00A3C2CE5120709F481C0D4
:101570000B3C1C4509F08CCC44E956E265EA76E266
:1015800081C0013D8CE5180709F488C098F40E3C31
:10159000ECE51E0709F47CC008F477C00F3C2CE58D
:1015A000120709F478C0003D1C4509F071CC6EE0CB
:1015B00089E07CC0043D8CE5180709F475C060F42F
:1015C000023DECE51E0709F46CC0033D1C4509F023
:1015D0005FCC61E088E16FC0053D2CE5120709F49E
:1015E00068C00D351D4509F41ECA52CC8091B70262
:1015F00080FF20C08E7F8093B7026091B702709108
:10160000B8028091B9029091BA020E9482260E948B
:10161000FF2580919E02816080939E028FEF90E76C
:10162000E2E081509040E040E1F700C000000E94FD
:101630002126F9C981608093B70261E086953BC09D
:101640004DEC58E266ED78E21DC046ED58E26DECD7
:1016500078E218C04DE658E264E678E213C04CE444
:1016600058E268E578E20EC044E358E260E478E2CC
:1016700009C040E458E264E378E204C045EA56E277
:1016800064E976E20E94F925CEC961E081E013C0E9
:1016900065E082E00BC068E086E008C064E18FE0AE
:1016A00005C067E185E102C062E289E10E94E725A9
:1016B000BAC961E083E20E948D28B5C929960FB6A8
:1016C000F894DEBF0FBECDBFDF91CF911F910F9178
:1016D000FF90EF90DF90CF90BF90AF909F908F9052
:1016E0007F906F905F904F903F900895CF93DF93DE
:1016F000CDB7DEB7AA970FB6F894DEBF0FBECDBF49
:1017000084B7877F84BF0FB6F894A8958091600056
:10171000886180936000109260000FBE90E080E8C6
:101720000FB6F89480936100909361000FBE85B767
:10173000806885BF85B7806885BF84EC96E190930B
:10174000C3018093C2010E9441140E9460148091E1
:10175000E20084608093E20078948091FF01882306
:10176000A1F01091E9001F709091EC00892F817019
:1017700090FD80E8182B1092E9008091E80083FD2D
:101780000E942B111F701093E90082E084BD93E04A
:1017900095BD9AEF97BD80936E001092C60210928D
:1017A000C7021092C8021092C9020E94FB24811144
:1017B00002C00E94EC246E9876988CB186FB882734
:1017C00080F9809300010E94131981110E94CB2A95
:1017D0008091000180910001882311F090E001C008
:1017E00094E09093D10184E0891B8093D0010CE4B4
:1017F00011E080E5E82E81E0F82EF80181918F015B
:101800008F3F11F00E943619E016F106B1F704E59A
:1018100011E0BAE5EB2EB1E0FB2EF80181918F01CA
:101820008F3F11F00E943619E016F106B1F7E8EC8F
:10183000F1E080ED91E0A3EEB1E011921D928E17E0
:101840009F07D9F70E94EF1A811102C00E94CD1C98
:1018500082E090E00E94902C8093DA010E94DE1AD0
:101860009093C7018093C6010E94FA1A8FE39CE906
:101870000197F1F700C000000E94FA1A8091E3017D
:1018800080FF08C06FEF7FEF80E090E00E94C22CE5
:101890000E94531683E090E00E94902C0E94B0209A
:1018A0003E9A469882E88093900089E18093910067
:1018B0008FEF9FEF90939700809396000E94BC2536
:1018C000579A5F9A259A2D9A269A2E9A0E94131952
:1018D000811102C00E94CE2A0E94BC258091D201B3
:1018E000811138C00E94EF1A811104C00E94CD1CE2
:1018F0000E94B62688E090E00E94982C6093B70280
:101900007093B8028093B9029093BA0280919E02BC
:10191000836080939E026E7F71F40E94B62688E0F9
:1019200090E00E94982C6093B7027093B802809365
:10193000B9029093BA020E9468260E94FF25809106
:10194000B70280FF04C060E086950E948D2881E088
:101950008093D20181E091E09093C3028093C20210
:10196000F8E1AF2EB12CA0E45A2E662463947724BC
:101970007394FE0131967F018091FF01853009F05B
:101980007CC000E112E18091FF01853009F054C074
:101990008091FF01843009F43EC08091BC0280FF39
:1019A00004C00E9497257092D50180E00E94142502
:1019B00080E00E94C8290E94FF258091D4018111F6
:1019C00009C07092D4018091B70281708093D301D5
:1019D0000E9476281092CA020FB6F894A895A09299
:1019E00060000FBE5092600083B7817F846083BF28
:1019F00083B7816083BF7894889583B78E7F83BFD8
:101A00000FB6F894A895809160008861809360007B
:101A1000109260000FBE8091FE01882309F4B3CFBD
:101A20000E94FA1AE3EEF1E0819181111DC321E0D9
:101A3000EB3EF207C9F7A7CF0E94B4200E94BC2555
:101A40000E94D4230E94C8291092D4018091D3010E
:101A5000882349F08091B70281608093B70260E0EB
:101A600086950E948D280E9406268091D5018823A4
:101A700021F00E94A4251092D5010E94FA1A81112A
:101A80000E94AC16ABEDB1E0E3EEF1E000E010E057
:101A9000802E91908D91892549F1C12CDD24D3941C
:101AA000982F9D21F1F00E941319882399F0C9A263
:101AB0008AA29D2081E009F480E08BA30E94B816E1
:101AC0008160782F9DA38CA349A15AA16BA18DA100
:101AD0000E94E028F801E552FE4F8081D826D0828E
:101AE0001AC0C394DD0C46E0C412DACF0F5F1F4F5B
:101AF0000830110569F68FEF8EA38FA318A60E94F8
:101B0000B8168160782F9AA789A74EA15FA168A512
:101B10008AA50E94E02880919D02882309F4BCC018
:101B200080919C02E091B702E695E81BE093980251
:101B3000823059F4F0E0EA51FE4FE4910E2F10E0AC
:101B4000EDE2CE2EE3E2DE2E59C0863059F4F0E00D
:101B5000ED51FE4FE4910E2F10E07DE1C72E73E2B0
:101B6000D72E4CC0893061F4E695F0E0E052FE4F8C
:101B7000E4910E2F10E060EBC62E62E2D62E3EC03E
:101B80008F3061F4E695F0E0E352FE4FE4910E2FC2
:101B900010E053E2C52E52E2D52E30C0853159F403
:101BA000F0E0E652FE4FE4910E2F10E04CEBC42E15
:101BB00041E2D42E23C08831A1F0833249F4E8ED0C
:101BC000F1E0059114913DEDC32E32E2D32E16C003
:101BD000843271F000ED17E022EFC22E20E2D22E07
:101BE0000DC008E210E090E3C92E91E2D92E06C0A4
:101BF00004EF11E083EFC82E80E2D82E8091990285
:101C0000882361F0109299020E9485239093970295
:101C10008093960210929B0210929A020E94852352
:101C2000E0919602F09197029C012E1B3F0B2F3FF3
:101C30003F4790F52091D8012223B1F01092D801AE
:101C40002091D6013091D701821B930B8F3F9F4784
:101C500058F4205D3A483093D7012093D601809103
:101C60009E02886080939E0280909A0290909B02D0
:101C70000E0F1F1F109397020093960286E992E0C1
:101C8000F601099580919A0290919B02892B21F48B
:101C9000892811F06092D8010E94D4239091D90133
:101CA000891731F00E94D4238093D9010E94C8295A
:101CB0008091FF01843009F05FCE83E08093E900DA
:101CC0008091E80082FF58CE8091E80085FF21C016
:101CD0000E94961581111BC000E210E0CE01019612
:101CE0006C0108C08091F100F60181936F010150F1
:101CF000110969F08091E80085FDF4CF8091E8003A
:101D00008B778093E8000E949615882399F391E0E1
:101D100001C090E08091E8008B778093E8009923E0
:101D200009F42ACEE9818E2F90E0FC013197E3314E
:101D3000F10508F071C1E759FF4F0C94402D1A824C
:101D400089E0CBC08A81823009F4A4C1833051F08C
:101D5000813009F061C10E94AC169B838C837D8326
:101D60006E835CC1FE013396CE010B96A3EEB1E00B
:101D70002D9121938E179F07D9F750C18A81823008
:101D800009F04AC16B817C818D819E810E94462D24
:101D900086E290E024C04C816B818A810E949B2462
:101DA0009D837FC1CD80DE80DC24CD24DC248C812A
:101DB0000B819A81FCE00F9F8001112420E6929F05
:101DC000000D111D1124080F111D080F111D6D2D7F
:101DD000C80187960E94A42C6C2DC80188960E9489
:101DE000A42C1CC10E94672419C18A81893061F426
:101DF0008B8145E0849FC00111246FEF70E00E9449
:101E0000F62C862F0E947E258A818138B1F050F40D
:101E1000803809F003C120E04B816091B9028091C4
:101E2000B80223C08238E9F0833809F0F7C020E017
:101E30004091BA026C818B8118C060E08B810E9456
:101E40008D288B81811103C00E947628E7C0809184
:101E5000B70281608093B70260E086950E948D286A
:101E6000DDC08B818093BB02D9C00E948127D6C080
:101E70008A81893021F08A3089F41B82CFC0809119
:101E8000BC02869586958695EFEF8E9FC001112442
:101E900065E070E00E94F62C6B83C0C0813899F039
:101EA00030F4803809F0BAC08091BA0216C0823886
:101EB00091F0833809F0B2C08091B8028B83809191
:101EC000B9028C83ABC08091B70280FF02C08695B7
:101ED00004C080E002C08091BB028B839FC08091D0
:101EE000BC020E9479256091B7027091B80280917E
:101EF000B9029091BA020E94822690C080E14BC044
:101F000082E08A8389E5E9CF0A811B8110270127B6
:101F10001027CC80D12C4701C80189559E4F9401D0
:101F20002E193F092C153D0508F078C00935F2E05F
:101F30001F0728F40E94902CF401848302C0F4014E
:101F400014820F5F1F4FFFEF8F1A9F0AE5CF0A81A0
:101F50001B81102701271027CC80D12C4701C801F5
:101F600089559E4F94012E193F092C153D0508F007
:101F700055C0093522E0120720F4F40164810E9463
:101F8000A42C0F5F1F4FFFEF8F1A9F0AE8CF0E940C
:101F9000572444C084E08A8341C00A811B811027F2
:101FA00001271027CC80D12C4701C80187969401C6
:101FB0002E193F092C153D0588F5003821E0120740
:101FC00028F40E94902CF401848302C0F40114824E
:101FD0000F5F1F4FFFEF8F1A9F0AE7CF0A811B8108
:101FE000102701271027CC80D12C4701C8018796E4
:101FF00094012E193F092C153D0580F4003821E08D
:10200000120720F4F40164810E94A42C0F5F1F4F7B
:10201000FFEF8F1A9F0AEACF8FEF89838091FF012C
:10202000843009F0A9CC1091E9001F709091EC0068
:10203000892F817090FD80E8182B82E08093E90061
:102040008091E80080FF0CC040E050E060E270E06A
:10205000C7010E94C9158091E8008E778093E8003F
:102060001F701093E90088CC09BD19BD09B400FEAA
:10207000FDCF8091D8008F7D8093D8008091E000C3
:1020800082608093E0008091E00081FDFCCF0E949F
:10209000B42079CC86E290E00E94902C1B821C82B6
:1020A0001D828E83BBCF8091010287FF11C080917A
:1020B000E80082FD05C08091FF018111F8CF11C0B9
:1020C0008091E8008B770BC08091FF01882349F055
:1020D0008091E80080FFF8CF8091E8008E778093B0
:1020E000E8000895982F973068F59093E9009817C5
:1020F00039F07091EC002091ED005091F00003C098
:10210000242F762F50E021FD02C09F5FECCF30914D
:10211000EB003E7F3093EB003091ED003D7F30933C
:10212000ED003091EB0031603093EB007093EC00E8
:102130002093ED005093F0002091EE0027FDE5CFB5
:1021400080E008958F708093E90081E008952091E8
:102150000702309108022617370748F0611571050C
:1021600039F42091E8002E772093E80001C0B901EE
:10217000FC0120E06115710579F18091FF01882350
:10218000F1F18530F1F18091E80083FD3CC0809150
:10219000E80082FD2EC08091E80080FFEBCF209107
:1021A000F3008091F20090E0922B6115710551F0DF
:1021B0008830910538F421912093F1006150710924
:1021C0000196F3CF21E0089709F020E08091E80024
:1021D0008E778093E800CECF2111CFCF0AC08091B7
:1021E000FF01882361F0853061F08091E80083FD74
:1021F0000AC08091E80082FFF2CF80E0089582E07B
:10220000089583E0089581E0089508958091F40190
:10221000089580910902982F9670963011F4886085
:1022200001C0877F0C947820FC01AC014C5F5F4FAC
:102230008FEF91E32191822728E030E087FF03C0F0
:10224000880F892701C0880F21503109B9F7E41799
:10225000F50781F708951F93CF93DF93CDB7DEB7CE
:10226000AA970FB6F894DEBF0FBECDBFE1E0F2E053
:102270008091F100819342E0E930F407C9F7809141
:102280000202833009F462C030F4813071F0823090
:1022900009F49CC0B3C08A3009F488C08B3009F4BB
:1022A0006DC0893009F0AAC020C080910102813A36
:1022B00009F0A4C08091E800877F8093E8008091B6
:1022C000050290910602892B21F468E085EF91E0E8
:1022D00003C060E080E090E070E00E94A710809171
:1022E000E8008B778093E80089C0809101028132F9
:1022F00009F084C08091050290910602009719F0C0
:10230000029709F07BC08091E800877F8093E80006
:102310008091E80082FD05C08091FF018111F8CF16
:102320006DC02091F3008091F20090E0922B029713
:1023300029F48091F1008B7F813021F48091F100AC
:102340008093F4018091E8008B7754C08091010262
:10235000813A09F053C08091050290910602892BC1
:1023600009F04CC08091E800877F8093E80080915D
:10237000E80080FFFCCF80910B0137C08091010203
:102380008132E1F58091050290910602892BB1F529
:102390008091E800877F8093E8000E94531080912D
:1023A000030280930B010E94B42028C08091010297
:1023B000813221F58091E800877F8093E8000E94B8
:1023C0005310809104028093F30118C080910102A0
:1023D000813AA1F48091E800877F8093E8008091A2
:1023E000E80080FFFCCF8091F3018093F1008091A1
:1023F000E8008E778093E8000E9453108091E800F7
:1024000083FFDDC18091010290910202492F50E0CB
:102410004A30510508F0D3C1FA01E458FF4F0C943B
:10242000402D803821F0823809F0C9C108C0809160
:10243000FD019091FE01992389F082600FC0809187
:1024400005028F70873008F0BAC18093E90080914F
:10245000EB0085FB882780F91092E9009091E80055
:10246000977F9093E8008093F1001092F10070C183
:10247000282F2D7F09F0A3C1882319F0823061F045
:102480009EC180910302813009F099C1933009F017
:1024900080E08093FE012EC08091030281112AC04A
:1024A000809105028F702FEF280F263008F087C12A
:1024B0008093E9002091EB0020FF1CC0933021F4B1
:1024C0008091EB00806214C09091EB00906190933A
:1024D000EB0021E030E0A90102C0440F551F8A95AE
:1024E000E2F74093EA001092EA008091EB008860E6
:1024F0008093EB001092E9008091E800877F809341
:10250000E8000E9453105BC1811159C11091030270
:102510001F778091E3008078812B8093E300809186
:10252000E800877F8093E8000E9453108091E800C4
:1025300080FFFCCF8091E30080688093E30011115D
:1025400002C082E001C083E08093FF0138C180585F
:10255000823008F034C120910302309104022C3DF6
:1025600053E0350779F583E08A838AE289834FB7A0
:10257000F894DE01139620E03EE051E2E32FF0E014
:1025800050935700E49120FF03C0E295EF703F5F46
:10259000EF708E2F90E0EA3010F0C79601C0C09621
:1025A0008D939D932F5F243149F74FBF8091E800B1
:1025B000877F8093E8006AE270E0CE0101960E9476
:1025C000A710B4C08091050290910602432F5527B1
:1025D00043305105A9F068F44130510509F4FEC0BB
:1025E0004230510509F0EBC08BE590E0EEE7F2E0F8
:1025F0004BC04132510529F14232510589F1DFC00A
:10260000C901992781309105A1F058F0029709F08E
:10261000D6C0EBEEF2E0E4918E2F90E0EBEEF2E02C
:1026200030C0E5E1F3E0E4918E2F90E0E5E1F3E0E6
:1026300028C0E7EFF2E0E4918E2F90E0E7EFF2E0C0
:1026400020C08330910508F0BAC0880F991FFC01A3
:10265000ED59FE4F0190F081E02D89E090E014C02B
:102660008330910508F0ABC0FC01EE0FFF1FE35A69
:10267000FE4F0190F081E02DDC01A65ABE4F8C91F7
:1026800090E0009709F49BC02091E800277F2093F9
:10269000E80020910702309108022817390708F452
:1026A000C90140E0009789F12091FF01222309F43C
:1026B0003DC02530D9F12091E80023FD37C020919D
:1026C000E80022FD2FC02091E80020FFEBCF4091D1
:1026D000F3002091F20030E0342B009759F02830BD
:1026E000310540F444914093F100319601972F5FFA
:1026F0003F4FF3CF41E02830310509F040E0209111
:10270000E8002E772093E800CDCF4111CDCF0AC04D
:102710008091FF01882351F0853041F08091E800DD
:1027200083FD04C08091E80082FFF2CF8091E80031
:102730008B778093E80043C0803809F040C08091D7
:10274000E800877F8093E800809100028093F10089
:102750008091E8008E77D3CE811131C08091030241
:10276000909104029927029754F58091E800877FA1
:102770008093E80010910302109300020E9453100E
:10278000111106C08091E30087FD02C081E001C005
:1027900084E08093FF0142E061EC81E00E947210CE
:1027A00042E261EC84E00E94721042E261EC82E05D
:1027B0000E94721042E260EC83E00E9472108091ED
:1027C000E80083FF10C08091E800877F8093E800D5
:1027D0008091EB0080628093EB0005C082E190E085
:1027E000E9EDF2E051CFAA960FB6F894DEBF0FBE26
:1027F000CDBFDF91CF911F9108951F920F920FB619
:102800000F9211242F933F934F935F936F937F9376
:102810008F939F93AF93BF93CF93DF93EF93FF93E8
:10282000C091E900CF708091EC00D82FD17080FD6D
:10283000D0E81092E9008091F000877F8093F0004B
:1028400078940E942B111092E9008091F00088602A
:102850008093F000CD2BCF70C093E900FF91EF91F2
:10286000DF91CF91BF91AF919F918F917F916F91A8
:102870005F914F913F912F910F900FBE0F901F903E
:102880001895E8EDF0E080818E7F80831092E20061
:102890001092DA001092E100A0EEB0E08C9181601D
:1028A0008C9380818F77808319BCA7EDB0E08C91E9
:1028B0008E7F8C9380818F7E80831092F2010895A9
:1028C000CF92DF92EF92FF920F931F93CF93DF93FC
:1028D000C8EDD0E088818F7E8883E7EDF0E08081CD
:1028E0008160808384E082BF81E08093F2018881EF
:1028F0008E7F888302EE10E0F80110821092DA00D9
:1029000081EEC82ED12CF601108288818F778883C2
:1029100088818068888388818F7D888319BC109224
:10292000FF01109200021092FE011092FD0190EE44
:10293000E92EF12CF70180818B7F80838881816073
:10294000888342E060E080E00E947210F60180819E
:102950008E7F8083F80180818160808380818860A0
:102960008083F70180818E7F808388818061888366
:10297000DF91CF911F910F91FF90EF90DF90CF905B
:1029800008951F920F920FB60F9211242F933F9329
:102990004F935F936F937F938F939F93AF93BF9367
:1029A000EF93FF938091E10082FF09C08091E200E4
:1029B00082FF05C08091E1008B7F8093E1008091D0
:1029C000DA0080FF2AC08091D80080FF26C0809165
:1029D000DA008E7F8093DA008091D90080FF18C0E2
:1029E00080E189BD82E189BD09B400FEFDCF81E0AF
:1029F0008093FF018091F20181110FC00E94411468
:102A00000E9460148091E20084608093E20005C01F
:102A100019BC1092FF011092F2018091E10080FF39
:102A200017C08091E20080FF13C08091E2008E7F8A
:102A30008093E2008091E20080618093E2008091C7
:102A4000D80080628093D80019BC85E08093FF0194
:102A50008091E10084FF2EC08091E20084FF2AC0B3
:102A600080E189BD82E189BD09B400FEFDCF80917E
:102A7000D8008F7D8093D8008091E1008F7E809375
:102A8000E1008091E2008F7E8093E2008091E2007D
:102A900081608093E20080910002882311F084E03D
:102AA00007C08091E30087FD02C081E001C083E0A0
:102AB0008093FF018091E10083FF27C08091E200B5
:102AC00083FF23C08091E100877F8093E10082E053
:102AD0008093FF01109200028091E1008E7F80932D
:102AE000E1008091E2008E7F8093E2008091E2001D
:102AF00080618093E20042E060E080E00E9472101A
:102B00008091F00088608093F000FF91EF91BF9179
:102B1000AF919F918F917F916F915F914F913F9175
:102B20002F910F900FBE0F901F9018952091E400E9
:102B30003091E50095E64091EC00842F817040FFD4
:102B400023C08091E80080FD1DC08091FF01882393
:102B500099F0853099F08091EB0085FD11C040918E
:102B6000E4005091E5002417350729F3915011F046
:102B70009A01E1CF84E0089582E0089583E008950A
:102B800081E0089580E008954091E80042FFDDCFA4
:102B90000895EF92FF920F931F93CF93DF937C01E1
:102BA0008B010E949615811119C0E70101151105CD
:102BB000A1F08091E80085FD0AC08091E8008E7741
:102BC0008093E8000E949615882381F307C08991BD
:102BD0008093F10001501109E9CF80E0DF91CF919E
:102BE0001F910F91FF90EF9008959091FF01943005
:102BF00029F58093EF017093F1016093F0019093B8
:102C0000E9008FEF9091E800815095FD06C095EDA9
:102C10009A95F1F700008111F5CF8091E80085FFCA
:102C20000DC040E050E063E070E08FEE91E00E9464
:102C3000C9158091E8008E778093E8000895BC0163
:102C400084E00C94F515BC0183E00C94F515CF934A
:102C5000DF9321E02093E9002FEF3091E80021502D
:102C600035FD06C035ED3A95F1F700002111F5CF9D
:102C70002091E80025FF14C0EC0140E050E068E03E
:102C800070E00E94C9158091E8008E778093E8007B
:102C900088E0FE01A5EFB1E001900D928A95E1F781
:102CA000DF91CF91089581E08093E00080E28093EE
:102CB000D8001092C9008FE19EE40197F1F700C09F
:102CC000000087E090EBDC018093D3029093D40264
:102CD000A093D502B093D6029CE088E10FB6F89499
:102CE000A895809360000FBE90936000FFCF78940A
:102CF0001F920F920FB60F9211248F939F93AF9351
:102D0000BF938091EB019091EC01A091ED01B09106
:102D1000EE010196A11DB11D8093EB019093EC0192
:102D2000A093ED01B093EE01BF91AF919F918F9170
:102D30000F900FBE0F901F9018959C014FB7F894FD
:102D40008091EB019091EC01A091ED01B091EE0129
:102D50004FBF821B930B08952FB7F8946091EB013E
:102D60007091EC018091ED019091EE012FBF0895DB
:102D70002FB7F8948091EB019091EC01A091ED01B7
:102D8000B091EE012FBF089580E008959091C601A3
:102D900092FF0DC0282F2871283019F4877F846096
:102DA00006C0282F2471243011F48B7F886093FF94
:102DB0000DC0282F2871283119F4877E846106C040
:102DC000282F2471243111F48B7E88612091C70152
:102DD00020FF0DC0382F3871383019F4877F81609B
:102DE00006C0382F3171313011F48E7F886021FF99
:102DF0000DC0282F2871283119F4877E816106C003
:102E0000282F2171213111F48E7E886194FD877EF7
:102E10000895AF92BF92CF92DF92EF92FF920F93FD
:102E20001F93CF93DF937C015B016A0180913B028A
:102E30008A3018F001E010E002C00AE010E0C1E0C2
:102E4000D0E0F894B501C701F60109957894811195
:102E500015C021960C171D0794F0CC9F9001CD9FB3
:102E6000300D300D112480E090E045E34A95F1F7F4
:102E70000000019682179307C1F7E3CF81E0DF914D
:102E8000CF911F910F91FF90EF90DF90CF90BF9067
:102E9000AF900895CF93DF9300D000D0CDB7DEB7C9
:102EA00040912F02509130026091310270913202B4
:102EB0002FB7F8948091EB019091EC01A091ED0176
:102EC000B091EE012FBF841B950BA60BB70B843678
:102ED0009105A105B10580F10E946A23DC01CB01B7
:102EE0000296A11DB11D89839A83AB83BC83809117
:102EF000230190912401835E9D4F4091220150E077
:102F00004530510510F044E050E0BE016F5F7F4F47
:102F10000E94A42D82E090E00E94D82B892B11F012
:102F200080E00BC00E94AC1660932F0270933002B9
:102F3000809331029093320281E00F900F900F90B6
:102F40000F90DF91CF9108958F929F92AF92BF9291
:102F5000CF92DF92EF92FF920F931F93CF93DF9365
:102F6000FB0180809180A280B3809FB7F894C090CD
:102F7000EB01D090EC01E090ED01F090EE019FBFED
:102F8000C818D908EA08FB08F4E6CF16D104E10412
:102F9000F10410F4442351F17B01C82F880FDD0B9D
:102FA00001151105A9F08AE08C9FF0018D9FF00DAD
:102FB0001124E45FFE4F83819481835E9D4F4281A3
:102FC00050E00417150708F4A801B9010E94A42DC8
:102FD000CE010E94D82B892B11F080E008C00E94FE
:102FE000AC16F701608371838283938381E0DF9164
:102FF000CF911F910F91FF90EF90DF90CF90BF90F6
:10300000AF909F908F9008950F931F93CF93DF936E
:10301000CDB7DEB728970FB6F894DEBF0FBECDBF91
:1030200085E0E7EBF2E0DE01119601900D928A95C2
:10303000E1F780919C0290919D02A0919E028E8367
:103040009F83A88741E08885811101C040E008E0A6
:1030500010E09E012F5F3F4F67E372E084E00E9423
:10306000A417811110929E0228960FB6F894DEBF25
:103070000FBECDBFDF91CF911F910F9108950F9398
:103080001F93CF93DF931F92CDB7DEB78091BC0221
:1030900080FF04C086958695869501C080E089836F
:1030A00041E090912602981301C040E001E010E059
:1030B0009E012F5F3F4F63E372E083E00E94A417FD
:1030C0000F90DF91CF911F910F910895EF92FF9292
:1030D0001F93CF93DF9300D000D01F92CDB7DEB700
:1030E0007B0180E090E00E94D82B892B09F065C01D
:1030F0004091110150E04115510511F041E050E0BF
:103100006091120170911301635E7D4FCE010596AF
:103110000E94A42D4091190250911A0260911B0245
:1031200070911C022FB7F8948091EB019091EC0103
:10313000A091ED01B091EE012FBF841B950BA60B62
:10314000B70B84369105A105B10538F48EE192E004
:103150000E9414119D81891791F181E090E00E94F5
:10316000D82B892BA1F440911B0150E0453051052B
:1031700010F044E050E060911C0170911D01635E0D
:103180007D4FCE0101960E94A42D11E001C010E0F8
:103190008EE192E00E94141191E02D81281390E0BD
:1031A000192341F10E94AC166093190270931A0220
:1031B00080931B0290931C020FC010E001C011E02D
:1031C00080911E0290911F02A0912002B0912102D5
:1031D00089839A83AB83BC83112361F089819A81AF
:1031E000AB81BC818093150290931602A0931702C5
:1031F000B09318028091150290911602A0911702C7
:10320000B0911802F70180839183A283B383812F49
:103210000F900F900F900F900F90DF91CF911F9113
:10322000FF90EF90089580911402811118C0809151
:10323000D80080618093D8008AE18A95F1F700C0B8
:103240008091D90080FD02C082E001C081E08093BE
:103250001402823021F40E9441141092FF0181E097
:1032600090911402913009F080E00895F894E82FCD
:10327000E295EF70F0E031A1282F2F7081E090E00F
:1032800001C0880F2A95EAF7982F9095932391A370
:1032900092A1892B82A378940895CF93DF938238EB
:1032A000910569F1B0F48133910509F46FC048F4D8
:1032B0008932910509F465C08A32910509F46BC021
:1032C0008AC08533910509F457C089339105B9F057
:1032D00082C0833E910571F138F4803E9105B1F0D2
:1032E000823E910511F177C0863E9105B9F1873E86
:1032F0009105C9F1843E910509F06DC024C020916B
:10330000C60120FD53C021FD51C065C08091C6019A
:1033100080FD46C08091C70180FF48C08091C601F2
:1033200084FD47C183EE90E046C18091C60182FFD3
:103330003AC0F4CF8091C60182FD35C08091C701AB
:1033400080FD34C0EBCF8091C70181FF35C08091F3
:10335000C60184FD2EC187EE90E02DC18091C6018B
:1033600083FF27C0F4CF8091C60183FD22C08091E6
:10337000C70181FD21C0EBCF8091C60185FD1FC033
:1033800021C08091C60185FD1DC019C08091C60174
:1033900086FD1BC01DC08091C60186FD19C015C0E9
:1033A00089E390E008C182EE90E005C180EE90E0F4
:1033B00002C186EE90E0FFC084EE90E0FCC089E29E
:1033C00090E0F9C085E390E0F6C08AE290E0F3C0B7
:1033D00081E390E0F0C0811532E5930708F069C001
:1033E000811541E5940728F0982F8827816F906A0E
:1033F000E2C0883E910568F5803E910508F0DBC08B
:10340000883A9105B8F4853A910548F0855AE82F35
:10341000F0E0E759FE4F808190E09064CCC08130AD
:10342000910509F4C3C008F4C4C08430910508F4C0
:10343000C0C0C1C08F3B910508F0BBC0885AE82FBF
:10344000F0E0EE0FFF1FE459FE4F808191819464FC
:10345000B2C0811520E59207F0F09C0174E036952A
:1034600027957A95E1F7922F9370482F437021E0CA
:1034700030E002C0220F331F4A95E2F73C68392B37
:103480008F70982F9695969540E2949FC0011124D5
:10349000822B932B90C0811530E4930718F09F7016
:1034A000906A89C09C013A9521153F4108F483C078
:1034B00080C0EC01C11586E5D807E8F5C11525E502
:1034C000D20748F08C2F0E94C6168F7190E0982F7B
:1034D0008827906270C0C11534E5D30728F09C2F6F
:1034E0008827846F906A67C0AE01437055272C2FE0
:1034F00026952695C115D34578F481E090E002C069
:10350000880F991F4A95E2F740E2249F9001112409
:10351000822B932B9C684FC081E090E002C0880F03
:10352000991F4A95E2F740E2249F90011124822BD3
:10353000932B9A6840C0C11529E5D20788F4C115BC
:1035400038E5D30728F09C2F8827806F906A33C016
:10355000C11547E5D40768F5CE01992790662BC0C1
:10356000C1158AE5D80790F48C2F8F700E94C6167B
:1035700094E0D695C7959A95E1F7CF70D0E0DC2F0F
:10358000CC27D0699E01282BC90115C0CE019056C9
:103590008115904270F48D2F8F710E94C616282FCE
:1035A0002F71CE0199279062922B05C081E090E0A7
:1035B00002C080E090E0DF91CF910895CF9384E046
:1035C00090E00E94902CC82F82E290E00E94902C04
:1035D0002C2F30E0A901582BCA01CF91089580E02B
:1035E00090E00E949E2C893E9E4F11F40C94FB2487
:1035F00080E008957F928F929F92AF92BF92CF9278
:10360000DF92EF92FF920F931F93CF93DF93CDB78B
:10361000DEB72C970FB6F894DEBF0FBECDBFAE015C
:103620004F5F5F4F7A0188E0DA011D928A95E9F7D2
:103630000CE411E06A0180E5882E81E0982EAA242E
:10364000A394B12CF80180818F3F09F448C0F8940D
:10365000E82FE295EF70F0E021A18F70A50102C084
:10366000440F551F8A95E2F7CA01922F982B91A318
:1036700092A18095892382A3789400C0E4E5F1E0CB
:1036800020E030E0712C81918F3FB9F0A82FA295F6
:10369000AF70B0E090964C9150E08F70DA0102C0AC
:1036A000B595A7958A95E2F7A0FD07C08A2D022E51
:1036B00001C0880F0A94EAF701C080E0782A2F5FE2
:1036C0003F4F26303105F9F6F80180818F3F11F028
:1036D0000E943619F0EAFA95F1F7D6017C920F5F55
:1036E0001F4FBFEFCB1ADB0A8016910609F0AACF55
:1036F00048E050E0B70188EC91E00E94972D8C01E2
:10370000892B41F088E0F701A8ECB1E001900D921F
:103710008A95E1F7F090D1010115110549F081E09A
:1037200080930D020E94B81690930C0280930B02B6
:1037300080910D028823B1F080910B0290910C02D0
:103740000E949D16059770F0A8ECB1E0EF2DF0E017
:10375000ED51FE4F8D91819321E0AC3CB207D1F742
:1037600010920D020115110509F000C10E941319F4
:10377000E091D101882309F474C019861A861B864A
:103780001C860E2F10E00D511E4F80913B028A3097
:1037900058F446E658E1BE01675F7F4FC8010E94BA
:1037A0000917882361F10AC080910E0290910F02DF
:1037B0000E949D16843F914060F732C04AE457E171
:1037C000BE01675F7F4FC8010E9409178823B9F0C7
:1037D0004FE358E1BE01675F7F4FC8010E940917A0
:1037E000882369F044E058E1BE01675F7F4FC8015C
:1037F0000E940917882319F010923B021CC0809187
:103800003B028F3F19F08F5F80933B0280913B0218
:103810008A3088F00E94B81690930F0280930E02AF
:10382000E091D001F0E0ED51FE4F10821182128242
:10383000138201E09DC0E091D001F0E0ED51FE4F18
:10384000DE0119969E01235F3F4F00E08D9190812C
:10385000981711F0808301E03196A217B307B1F7F2
:1038600087C0F0E0ED51FE4FF89484E0AEE1B2E0A5
:1038700001900D928A95E1F78EE192E00E94141179
:1038800080931D027894F894C0902202D090230275
:10389000E0902402F0902502809110029091110294
:1038A000A0911202B0911302C816D906EA06FB06CF
:1038B000D1F0C0921002D0921102E0921202F09266
:1038C00013020E94131981110EC00E94AC16C61A71
:1038D000D70AE80AF90AC092C602D092C702E0925B
:1038E000C802F092C9027894F894809126020E944E
:1038F00014257894F89480912E028823A9F180FFF2
:1039000010C08091270280FF0AC09091B702916099
:103910009093B70260E086950E948D2802C00E94B5
:10392000762880912E0281FF09C020E040912A0272
:1039300060912902809128020E94812780912E02A5
:1039400082FF09C080912D02882319F00E9406266B
:1039500002C00E94FF2580912E0283FF03C081E0F8
:103960008093990210922E02789402C001E010E038
:10397000802F2C960FB6F894DEBF0FBECDBFDF911F
:10398000CF911F910F91FF90EF90DF90CF90BF905C
:10399000AF909F908F907F90089569EE7EEF80E0CA
:1039A00090E00E94C22C60E082E090E00E94A42C93
:1039B00060E083E090E00E94A42C1092950260E009
:1039C00084E090E00E94A42C60E082E290E00E94FB
:1039D000A42C60E085E090E00E94A42C60E086E0EA
:1039E00090E00E94A42C6FEF87E090E00E94A42C4E
:1039F00040E050E0BA0188E090E00E94B62C60E020
:103A00008DE090E00E94A42C40E050E0BA0188E1F3
:103A100090E00E94B62C60E087E190E00E94A42C28
:103A200040E050E0BA018CE190E00E94B62C60E0EA
:103A300070E080E290E00E94C22C40E050E0BA01C9
:103A400088E190E00E94B62C80E00E94CE240E9483
:103A5000EC2440E050E0BA018FE090E00E94B62CE8
:103A600040E050E0BA0183E190E00C94B62C8091E4
:103A70009402811110929402089590919302809182
:103A80009202892B20919102982F922B90933C02C5
:103A900080919402882389F0892B80933C02EEE385
:103AA000F2E097E080E0915029F021912223D9F3B0
:103AB0008F5FF9CF81110E94371DE091C202F09112
:103AC000C302309731F00280F381E02D8CE392E065
:103AD0000994089580E090E00E94BE2380E090E089
:103AE0000E94A82310929202109291020C943D1D04
:103AF000CF93C091C701C2FB992790F9981781F025
:103B000080FBC2F9C093C7016091C60184E090E0D8
:103B10000E94A42C6C2F82E290E0CF910C94A42CF4
:103B2000CF91089580918F0290915E02891719F0CC
:103B30008F5F8770FBCF08950F931F93CF93DF9311
:103B400080915D0282958F7009F05DC080915A026C
:103B5000882309F458C080918F0210915E02609111
:103B6000580270915902C0915B02D0915C0291E0C1
:103B70006F3F09F090E0292F06E0811709F443C058
:103B8000209721F07F3F21F030E003C031E001C0F9
:103B9000322F90E030FD34C0089FF001099FF00DF6
:103BA0001124DF01A15ABD4F11963C911197371393
:103BB00027C03C91361324C012963C9112973111C4
:103BC0001FC013964D915C9114974C1B5D0B483CA4
:103BD0005105B0F480915D028F70806180935D0229
:103BE000EC59FD4F80818F708061808388E592E081
:103BF0000E94C803DF91CF911F910F910C94921DE9
:103C000001968770BACFDF91CF911F910F910895E0
:103C1000CF92DF92FF920F931F93CF93DF936C01AC
:103C20000091090280919502082BC7E0D0E010E0D6
:103C3000C8010C2E02C0959587950A94E2F780FD85
:103C400004C02197A8F7F12C09C0FC2EB6018C2FD7
:103C50000E94C1240E944D19019799F38F2DDF9185
:103C6000CF911F910F91FF90DF90CF900895CF9348
:103C7000DF93EC010E94081EBE010E94C1240E9435
:103C80004D19DF91CF910895FC01808191810E94AF
:103C9000371E292F2F70E92FE295EF704E2F50E03D
:103CA000FA013297EE30F105B8F4EA57FF4F0C9461
:103CB000402D803F99F018F4883E70F40FC0843F87
:103CC00059F40CC0883E50F0813F31F407C0822F78
:103CD000869586958695089580E0089581E00895FB
:103CE0009F92AF92BF92CF92DF92EF92FF920F938B
:103CF0001F93CF93DF93CDB7DEB761970FB6F894DC
:103D0000DEBF0FBECDBF8C0185E0F801DE011D9640
:103D100001900D928A95E1F7F801E28090915802A6
:103D20006091590240915B0250915C02411551052E
:103D300031F06F3F31F481E09F3F19F403C081E01F
:103D400001C080E0F82FF1709F2E80FD1AC1F801AC
:103D500030812181C380D48088E5A82E82E0B82EEE
:103D6000F0905A02F601E41BF50BFF2009F4C6C0DF
:103D700080915D02E83CF10508F091C0482F407F3A
:103D800009F050C0621311C093130FC0FE2CE11054
:103D90000CC08F70806180935D02C5010E94C803D2
:103DA00080915D02F801858337C1CD2831F02F3F26
:103DB00031F481E03F3F19F403C081E001C080E0AD
:103DC00080FD03C081E08E2502C080E090E0F82FE6
:103DD000F170FF2E80FF1CC080918F0240915E0227
:103DE00056E0841709F4F6C090E0589FF001599FFF
:103DF000F00D1124E15AFD4F6181261306C0608148
:103E0000631303C06281E61203C001968770E9CF95
:103E1000FE2CEE2009F400C180915D028160809348
:103E20005D0249C0621306C0931304C0E11002C0D2
:103E3000F80186C0C8010E94441E882351F1EE207B
:103E400041F120915D02822F82958F7090E0029760
:103E500074F0809158029091590298878F83198647
:103E6000DB86CA862C87CE0107960E94C80386E0AF
:103E7000F801A8E5B2E001900D928A95E1F70E9461
:103E80009C1D0AC06217C9F0C8010E94441E81111E
:103E90001EC0C8010E94C803FF24F394BDC0482F70
:103EA000407F81F788E592E00E94C80386E0F50133
:103EB00011928A95E9F7F12CAFC09313E5CFE11089
:103EC000E3CFF8018583C8010E94C80354C0EE20E7
:103ED00001F320915D02822F82958F7090E002970E
:103EE00034F280915802909159029A8389831B82FF
:103EF000DD82CC822E83CE010196B7CFE83CF1055E
:103F0000D0F5FE2CEE2029F2621327C0931325C0B2
:103F100020915D0220FD18C0822F82958F70482F5E
:103F200050E04115510581F0F80125834F305105CE
:103F300041F08F5F982F9295907F822F8F70892B01
:103F40008583C8010E94C80386E0F801A8E5B2E0B5
:103F500001900D928A95E1F75FC0C8010E94441E4E
:103F6000811185CF80915D02816080935D02C801DF
:103F70000E94C80351C086E0F50111928A95E9F7C5
:103F80004BC0EE2009F485CFC8010E94441EF82ED4
:103F9000882309F47ECF86E0F801A8E5B2E001901D
:103FA0000D928A95E1F780915802909159020E94F2
:103FB000371E92959F70963051F4863F41F0809164
:103FC000570291E0892780935702909356020E94EE
:103FD0009C1D22C03D872E878D859E850E94371EA1
:103FE000292F22952F70223028F49F7039F08111EB
:103FF00005C00BC0243028F49F7049F4805E8830DF
:1040000020F0C8010E94C8039F2CF92C05C0F801BC
:104010009581907F99F7F9CF8F2D61960FB6F8941F
:10402000DEBF0FBECDBFDF91CF911F910F91FF90EB
:10403000EF90DF90CF90BF90AF909F900895292F81
:10404000220F920F990F890F682F669566956695D6
:10405000982F977083E0689FB001112440E050E0F2
:1040600080E0FB01E40FF51FEC5BFD4F208130E0A9
:10407000092E02C0369527950A94E2F7217033275E
:10408000042E01C0220F0A94EAF7822B4F5F5F4F84
:104090004330510531F70895292F220F920F990FC0
:1040A000890FE82FE695E695E695877051E001C007
:1040B000550F8A95EAF783E0E89FF0011124EC5B45
:1040C000FD4F20E030E070E04081CB01022E02C0C5
:1040D000969587950A94E2F78170819584278523C8
:1040E000842781932F5F3F4F2330310569F708956F
:1040F000809309020C946A1D21E030E001C0220F78
:104100008A95EAF720958091090282230C94782001
:10411000209190028095822380939002982F97702F
:1041200041F430E0482F082E000C550B24173507BA
:1041300021F49091C70192FF07C0859585958595DB
:104140000E947C2010929002089521E030E001C08E
:10415000220F8A95EAF780910902822B0C9478202D
:10416000809395020C946A1D1092930286E0EEE310
:10417000F2E0DF011D928A95E9F70C946A1D88230D
:1041800041F08095909193028923809393020C943F
:104190003D1D0895882339F090919302892B8093D7
:1041A00093020C943D1D08951F93CF93DF93182F16
:1041B000893319F0C0E0D0E002C0C0E5D0E0812F23
:1041C0000E94162A209741F08FE99FE00197F1F7AE
:1041D00000C000002197F6CF812FDF91CF911F9172
:1041E0000C94DE290895EF92FF920F931F93CF93C3
:1041F000DF938C01C2EAD2E0E12CF12CF80184813A
:10420000F3E0EF16F1041CF4882351F002C0811191
:1042100007C04091BA024E3208F04DE29E0102C042
:104220009E0140E06091B9028091B8020E94CE26C2
:104230008FEFE81AF80A239697E0E916F104F1F6F1
:104240000E942126F801848190E0019681709927CF
:104250008483DF91CF911F910F91FF90EF9008958C
:104260008F929F92AF92BF92CF92DF92EF92FF9286
:104270000F931F93CF93DF93EC014C81042F10E039
:104280009801D8010E94552D9B01AC010E946B2D15
:104290006B017C01E0E2F0E0E01BF10BA5E5B0E092
:1042A0009B01AC010E946B2D4B015C019F01DF0162
:1042B0000E944D2D9B01AC010E94762D9B01AC010B
:1042C0002C0D3D1D4E1D5F1DC501B4010E941E2D0C
:1042D000822FF22E99E2921728F093E0299F900105
:1042E00011240DC025E530E0281B3109C901880FD4
:1042F000991F280F391F37FF02C02F5F3F4F359599
:104300002795122F109592EAC92E92E0D92E00E03F
:1043100085E5E82EEF1801FD02C08E2D01C08F2D1E
:10432000412F1E3208F04DE296016091B9020E94C1
:10433000CE260F5F83E0C80ED11C073061F70E94C4
:1043400021268C81811102C091E003C0803219F4D2
:104350009FEF90934B0190914B01890F8C83DF91DC
:10436000CF911F910F91FF90EF90DF90CF90BF9072
:10437000AF909F908F900895EF92FF920F931F93AD
:10438000CF93DF937C01FC018481811109C081E01E
:1043900084831092A00292E090934A018093490195
:1043A000C2EAD2E0FE01118210821282339682E0CC
:1043B000E73BF807C1F700E010E08091A002082E6B
:1043C000000C990B08171907ACF080914A01082ED0
:1043D000000C990B801791076CF04091BA024E3295
:1043E00008F04DE29E016091B9028091B8020E94EE
:1043F000CE2603C0198218821A820F5F1F4F2396A0
:1044000007301105D1F60E94212680914901909133
:10441000A002980F9093A00220914A01280F2093A8
:104420004A01121614F496303CF0819580934901AC
:10443000813011F4F7011482DF91CF911F910F9118
:10444000FF90EF9008959F92AF92BF92CF92DF922C
:10445000EF92FF920F931F93CF93DF93EC018A812A
:1044600080FF03C0BB24BA9402C0BB24B3948C81E8
:1044700081110BC081E0B81204C086E080939F02D6
:1044800002C010929F0281E08C8322EAE22E22E099
:10449000F22E00E010E037E0932EF7011182108237
:1044A000128294E0C92ED12CA12C80919F028A0DFA
:1044B00088302CF0692D0E94E82C892F02C087FDDE
:1044C000895F082E000C990B08171907A9F4809131
:1044D000BA028C9DA0018D9D500D112455954795D4
:1044E000559547954E3208F04DE297016091B9021B
:1044F0008091B8020E94CE26AB0CF1E0CF1AD10811
:10450000A1F60F5F1F4F83E0E80EF11C0730110585
:1045100021F60E94212680919F0291E0B9120CC0E1
:10452000811105C086E080939F021C820DC08150DE
:1045300080939F02BC8208C090E00196B8010E945F
:104540000A2D80939F028C83DF91CF911F910F9151
:10455000FF90EF90DF90CF90BF90AF909F90089525
:10456000EF92FF921F93CF93DF93EC0182EAE82E44
:1045700082E0F82E10E04091BA024E3208F04DE28F
:104580008C8197016091B902810F0E94CE261C5D3B
:1045900083E0E80EF11C1C3F71F70E9421269A81EE
:1045A0008C8190FF02C08F5F01C081508C83DF91AE
:1045B000CF911F91FF90EF9008950F931F93CF938A
:1045C000DF9300D01F92CDB7DEB78C018091A1029E
:1045D00081110AC09E012F5F3F4F4DE26FEF0E9495
:1045E000CE268A818093A102F8018481813051F026
:1045F00028F0823061F44091A1020AC08091A102AA
:1046000040E007C06091A10240E080E003C040E0CC
:1046100080E060E00E945726F801848190E00196D6
:1046200063E070E00E940A2D84830F900F900F903A
:10463000DF91CF911F910F910895CF93DF93EC01FC
:10464000E7EBF2E0438162818C810E9464278C81D8
:104650008F5F8C83DF91CF910895CF93DF93EC012F
:10466000EC81F0E0E75EFC4F4491E7EBF2E0628121
:1046700081810E9464278C818F5F8C83DF91CF9131
:1046800008951F920F920FB60F9211248F939F934C
:10469000AF93BF938091CA02811113C08091EB0147
:1046A0009091EC01A091ED01B091EE014196A11D18
:1046B000B11D8093EB019093EC01A093ED01B093B9
:1046C000EE01BF91AF919F918F910F900FBE0F9010
:1046D0001F9018950F931F930E941319882321F0A0
:1046E0001F910F910C94AC160E94AC160091C6025B
:1046F0001091C7022091C8023091C902600F711F4A
:10470000821F931F1F910F9108950E941319811109
:104710000C94B8160E946A23CB0108959C01FC01F9
:1047200032969FEF80E04191461789F09F3F19F440
:10473000411101C0982F8F5F8630A9F79F3F39F054
:10474000F901E90FF11D97FDFA9562830895089527
:104750002091C4023091C5022817390771F0909357
:10476000C5028093C402E091C202F091C302309767
:1047700021F00084F185E02D099408952091C00274
:104780003091C1022817390771F09093C1028093CC
:10479000C002E091C202F091C302309721F006807E
:1047A000F781E02D099408950E941319882351F090
:1047B000E091C202F091C302309721F00190F081A4
:1047C000E02D099480E008950F931F93CF93DF931A
:1047D000C42FD22FFC0182818823C9F04093BF02ED
:1047E0000E94B8169093BE028093BD0280E28C0FA7
:1047F000883008F057C0C77081E001C0880FCA95A3
:10480000EAF7DF91CF911F910F910C94CA2080910C
:10481000BF02481330C08091BD029091BE020E9439
:104820009D16883C910538F510E21D0FCD17B9F0A3
:1048300080E28C0F883040F4C77081E001C0880F9F
:10484000CA95EAF70E94BF20183028F581E09D2F15
:10485000977001C0880F9A95EAF70E94CA20802FAE
:104860000E94D4201830F0F4D77081E001C0880F86
:10487000DA95EAF70AC080E28C0F883098F4C770A6
:1048800081E001C0880FCA95EAF7DF91CF911F91AF
:104890000F910C94BF20802FDF91CF911F910F912A
:1048A0000C94D420DF91CF911F910F910895CF9355
:1048B000DF93C7EAD1E060E0CE010E94A42C2196EC
:1048C000C11584E0D807B9F7DF91CF910895CF9251
:1048D000DF92EF92FF920F931F93CF93DF93C0E08D
:1048E000D0E08E01005A1F4F6E018CE0C80ED11C23
:1048F000FE01E75EFB4FE590F4906F2DCE018796A9
:104900000E94A42C6E2DCE0188960E94A42C229683
:10491000CC15DD0569F70C171D0731F7E8010038E4
:104920001140F9F6DF91CF911F910F91FF90EF9019
:10493000DF90CF9008950F931F93CF93DF93C42FF1
:10494000D0E0CC0FDD1F2CE0629FC00DD11D1124E3
:1049500030E6839FC00DD11D1124CE0187960E94A1
:10496000902C082F10E0102F0027CE0188960E946F
:10497000902C9801282BC901DF91CF911F910F91A5
:104980000895462F843038F4783028F4663018F4CF
:10499000672F0C949B2480E090E00895CF93C82F5C
:1049A000811102C06FEF01C061E283E290E00E94DA
:1049B000A42CC11102C06FEF01C060E184E290E05D
:1049C0000E94A42CC11102C06FEF01C060E185E21A
:1049D00090E0CF910C94A42C80E00E94CE2460E063
:1049E00086E290E00E94A42C0E9467240E94572433
:1049F00081E00C94CE2483E290E00E94902C8132DE
:104A000081F484E290E00E94902C803151F485E2A0
:104A100090E00E94902C91E0803109F090E0892F85
:104A200001C080E081700895CF92DF92EF92FF92F3
:104A3000863048F4811108C0909190009F77909340
:104A40009000469806C085E0909190009068909301
:104A50009000282F30E0AFEFBFEF0E94552D25E0EA
:104A600030E040E050E00E941E2DB42FA32F922F83
:104A70008827492F5A2F6B2F7727CA014C3724E1FB
:104A8000520728F469E070E00E94F62C29C0DB018F
:104A9000CA018A50974DAF4FBF4F6627782F892F95
:104AA0009A2F25EF38E241E050E00E941E2D690167
:104AB0007A01CA01B9010E94D82C9B01AC01C7013F
:104AC000B6010E94D82CBB27A92F982F872F0097BB
:104AD00021E0A207B10511F0BC0102C06FEF7FEF2A
:104AE0007093990060939800FF90EF90DF90CF90C3
:104AF0000895682F86E090E00C94A42C863008F08E
:104B000085E09091BC029770282F220F220F220F70
:104B1000922B9093BC02987F21E009F420E09091C1
:104B2000BC0220FB90F99093BC020C941425809158
:104B3000BC0280FF08C08E7F8093BC020E94792552
:104B400080E00C94142508958091BC0280FD13C070
:104B500081608093BC02813019F489E08093BC02AB
:104B60008091BC020E9479258091BC028695869531
:104B700086950C94142508950E94EF1A81110AC09D
:104B80000E94CD1C8091BC02847089628093BC021B
:104B90000E94792586E090E00E94902C8093BC02D0
:104BA000282F26952695269530E02630310524F0CD
:104BB000877088628093BC028091BC0280FF04C031
:104BC00086958695869501C080E00C941425909179
:104BD000B70290FF04C09695981740F003C081116A
:104BE00005C090E0961710F40C94D62861E00C9460
:104BF0008D28882311F0FA0101C0FB010994ECE92A
:104C0000F2E0118282818460828308956091B7020C
:104C1000669570E04BE050E08EE391E00E948A2DB3
:104C2000892B19F481E080939D020E948523909343
:104C300097028093960280919E02846080939E02E8
:104C400008958091B70280FF0AC0549A8BB18F7E7D
:104C50009BB190612FB7F894E2EAF2E00BC0E2EA70
:104C6000F2E0118210821282339632E0E73BF307C2
:104C7000C1F7EBCF32E0E73BF30789F0319148E031
:104C80009BB9000000C037FF8BB9330F000000C094
:104C900000C000C08BB900C04A9591F7EBCF2FBF81
:104CA0008FE594E00197F1F700C00000089590911E
:104CB000B70290FF0CC0E2EAF2E081836083428396
:104CC000339692E0E73BF907C1F70C94212608954B
:104CD0008091B702282F269530E02115310519F46F
:104CE0008170826005C02532310524F081708864AE
:104CF0008093B7028091BA028E3218F08DE28093D1
:104D0000BA020895CF92DF92EF92FF926B017C017D
:104D10000E946826B701A60188E090E0FF90EF901E
:104D2000DF90CF900C94B62C8091BB02882319F0B1
:104D300081508093BB026091B7027091B80280915C
:104D4000B9029091BA020C9482268091BB02833002
:104D500018F48F5F8093BB026091B7027091B80224
:104D60008091B9029091BA020C948226E7EBF2E0AE
:104D700083E0808311828FEF82838DE283831482AC
:104D8000ACE9B2E012968C911297836012968C93E4
:104D900060817181828193810C948226AF92BF924F
:104DA000CF92DF92EF92FF920F931F93CF93DF93F7
:104DB000E82EF62EE901E42FF0E0611106C0E75677
:104DC000FA4FE4914E2F2E2F71C0062F10E0E756B8
:104DD000FA4F4491F42FC42ED12C26E0829FC001BB
:104DE00011242FEF30E0B9010E94F62C5BEA560344
:104DF000C001579F900D11248E0D911D8E0D911D98
:104E0000582F550F580FD901A01BB10BAC9DC001F5
:104E1000AD9D900DBC9D900D1124E92FF59ED00104
:104E20001124AB2FBB277901EA1AFB0AEC9CD001B5
:104E3000ED9CB00DFC9CB00D11245901A51AB108D0
:104E4000A09E7001A19EF00CB09EF00C1124EF2CDE
:104E5000FF242E193F092C9D80012D9D100D3C9D96
:104E6000100D1124212F6230710591F048F4611565
:104E70007105E1F061307105B9F4242F4B2F16C094
:104E80006430710569F040F06630710579F00CC04E
:104E9000242F492FE12F0AC0492FEF2F2B2F06C0B7
:104EA000292FE42F412F02C0292FEB2F498328837C
:104EB000EA83DF91CF911F910F91FF90EF90DF90E8
:104EC000CF90BF90AF900895CF93DF9300D01F9203
:104ED000CDB7DEB79091B70290FF0DC04E3208F00B
:104EE0004DE29E012F5F3F4F0E94CE264B8169818C
:104EF0008A810E9457260F900F900F90DF91CF91DB
:104F000008955F926F927F928F929F92AF92BF921D
:104F1000CF92DF92EF92FF920F931F93CF93DF9385
:104F200000D01F92CDB7DEB7082F762E142F622E39
:104F30009091B70290FF85C0E92FE695AE2FB0E0C3
:104F4000A456BE4F8C9180939C029E7F923081F438
:104F50004E3208F04DE29E012F5F3F4F672D802FAC
:104F60000E94CE264B8169818A810E94572646C0C5
:104F7000823019F41091BA0241C0863019F40091C0
:104F8000B8023CC08930D9F38931C1F5E9518E2F7F
:104F90008170582EE695F0E0E756F94FA590B49051
:104FA00082EAC82E82E0D82EE12CF12CBB2497E0B7
:104FB000892E912CAE9CC001AF9C900DBE9C900D93
:104FC0001124B4010E94F62C802F511002C0860FCC
:104FD00001C0861B412F1E3208F04DE29601672D5D
:104FE0000E94CE268FEFE81AF80A83E0C80ED11C83
:104FF00087E0E816F104F1F60E9421268091B802BC
:10500000081308C08091B902781204C08091BA02D6
:10501000181729F080919E02826080939E0200936F
:10502000B8027092B9021093BA02662051F06091F2
:10503000B7027091B8028091B9029091BA020E94B1
:1050400082260F900F900F90DF91CF911F910F91BB
:10505000FF90EF90DF90CF90BF90AF909F908F9098
:105060007F906F905F900895E7EBF2E0438124E03A
:10507000421B08F440E021E0628181810C94812789
:10508000E7EBF2E0438124E0420F08F44FEF21E028
:10509000628181810C948127E7EBF2E0628121E15A
:1050A000621B08F460E021E0438181810C94812738
:1050B000E7EBF2E0628121E1620F08F46FEF21E09B
:1050C000438181810C948127E7EBF2E0818121E02B
:1050D000438162818A500C948127E7EBF2E0818161
:1050E00021E043816281865F0C948127E7EBF2E047
:1050F00080818E7F80830E94FF25ECE9F2E082812F
:10510000816082832FEF80E792E0215080409040C1
:10511000E1F700C000000C9421269091B70290FFA7
:105120003BC09170811102C0926006C0853210F0C0
:10513000986402C0880F982B9093B70280919E02CA
:10514000816080939E02662351F06091B702709156
:10515000B8028091B9029091BA020E9482266091B1
:10516000B702669570E04BE050E08EE391E00E945C
:105170008A2D892B19F00E94FF2502C00E94062665
:1051800081E08093990220E04091BA026091B902D7
:105190008091B8020C94812708958091B70286957A
:1051A000815009F484E261E00C948D288091B7026B
:1051B00086958F5F853208F081E061E00C948D2840
:1051C000EF92FF920F931F93CF93DF93CDB7DEB78C
:1051D00067970FB6F894DEBF0FBECDBF4B8B5C8BCD
:1051E0006D8B7E8B8F8B242F0E891F8961111092FE
:1051F00092020115110531F05F3F31F481E02F3F3C
:1052000019F403C081E001C080E080FD37C0A22F07
:10521000B0E081E090E07C01022E01C0EE0C0A9427
:10522000EAF7852F90E0662319F03091570205C008
:10523000FC01E553FD4F30813E213323C1F046E0B0
:10524000489F9001499F300D11242A0F3B1F220FC8
:10525000331FF901E156F94F5491F901E256F94F24
:105260002491FC01E553FD4F9081E92A06C0FC0121
:10527000E553FD4FE0948081E822E08286E0FE0164
:105280003D96DF01982F1D929A95E9F72D875E874D
:105290006F87198B088BDE01179601900D928A9506
:1052A000E1F7CE0107960E94701E81113EC086E094
:1052B000FE013796DE01119601900D928A95E1F775
:1052C000FF81E8856A857B856115710531F0EF3FC7
:1052D00031F481E0FF3F19F403C081E001C080E0B8
:1052E00080FD23C020915E0230E0C90101968770E5
:1052F000992740918F0250E08417950779F1F9833F
:10530000EA837D836C8396E0929FD001939FB00DDA
:105310001124A15ABD4FFE01319601900D929A952C
:10532000E1F780935E020E94921D16E080918F0249
:1053300090915E028917F9F0189FC0011124815ADB
:105340009D4F0E94701E8823B1F080918F0290E0E3
:1053500001968770992780938F02E8CF0E94B4202E
:1053600010925E0210928F02E8E5F2E086E0DF0123
:105370001D928A95E9F767960FB6F894DEBF0FBEC7
:10538000CDBFDF91CF911F910F91FF90EF900895C6
:1053900081FB222720F982FB992790F980FD02C02A
:1053A0005F9A01C05F98211102C02D9A01C02D980B
:1053B000911102C02E9A08952E9808958823A9F17C
:1053C0009CEF980F913A60F4ECE3F2E0928189133C
:1053D00001C01282319642E0E234F407B9F714C0FA
:1053E00090E2980F983090F4877021E030E0A901A6
:1053F00002C0440F551F8A95E2F7CA01809590912B
:1054000093028923809393020C943D1D9BE5980F92
:10541000933020F480E090E00C94BE23885A8731CA
:1054200020F480E090E00C94A8230895CF93882383
:1054300009F453C09CEF980F913AF8F4C82FEEE3AB
:10544000F2E084E492E02191C21721F08E179F07C9
:10545000D1F70DC0ECE3F2E08281C81301C01282E3
:10546000319642E0E234F407B9F70E943D1D6C2FFB
:105470008CE392E00E948E2313C090E2980F983044
:1054800090F4877021E030E0A90102C0440F551F5D
:105490008A95E2F7CA0190919302892B8093930237
:1054A000CF910C943D1DEBE5E80FE33040F4F0E0C4
:1054B000E759FE4F808190E0CF910C94BE23885A2B
:1054C000873158F4E82FF0E0EE0FFF1FE459FE4F4C
:1054D00080819181CF910C94A823CF9108958EE182
:1054E000499B02C08150E1F7499BFECF089559982E
:1054F00080E28A95F1F7599A0895FC012AE02A95ED
:10550000F1F728E090E080E031E040E14A95F1F7E2
:10551000880F499B02C08160932700C0000040E1D2
:105520004A95F1F7215089F720E12A95F1F729B141
:1055300000C0000030E13A95F1F7269521709227DE
:105540002081920F90830895EF92FF920F931F9303
:10555000CF93DF931F92CDB7DEB719828C017C0108
:10556000E60EF11C0E151F0551F00E946F2ACE01A8
:1055700001960E947D2AF80181938F01F3CF81E08B
:105580009981911180E00F90DF91CF911F910F9140
:10559000FF90EF900895519A599A08955198599A09
:1055A000E99AE9E6F0E08081837F80830895615085
:1055B00091E001C0990F6A95EAF720E031E0992364
:1055C00061F0492F482319F0599A232701C05998AF
:1055D00040E24A95F1F79695F2CF222311F0599ABD
:1055E00001C0599880E28A95F1F759980895FF9281
:1055F0000F931F93CF93DF93EC018C01060F111DC6
:10560000C017D10741F0F9900E94772A68E08F2DEA
:105610000E94D72AF5CFDF91CF911F910F91FF9074
:1056200008951F920F920FB60F921124EF92FF92DE
:105630000F931F932F933F934F935F936F937F939A
:105640008F939F93AF93BF93EF93FF93CF93DF938A
:105650001F92CDB7DEB719820E946F2ACE01019644
:105660000E947D2AA82FA695A695A6959A2F969575
:1056700095702A2F2570920F292F23709695969555
:10568000920F877089137CC08981811179C0A630FF
:1056900008F076C080E18A95F1F7599A519AB2E004
:1056A000BA95F1F700C05998EA2EF12CEAE0AE9FC6
:1056B000D0011124A45FBE4F1896ED91FC9119976B
:1056C0003097B1F060919A0170919B0116962D91DF
:1056D0003C911797260F371F13968D919C91149725
:1056E000680F791F15964C91159712968C91099514
:1056F0008AE08E9DF0018F9DF00D1124E45FFE4F36
:105700006581662351F080919A0190919B012681D9
:105710003781820F931F0E94F72A0E94772AF0E1B7
:10572000FA95F1F759985198599A80E18A95F1F7CD
:105730008AE08E9D80018F9D100D1124045F1E4F05
:10574000D80112966C911297662399F080919A0174
:1057500090919B0113962D913C911497820F931F6A
:105760000E94A42AD801ED91FC91811105C082E02C
:1057700004C0D801ED91FC9188E080830E946F2ADB
:105780000F90DF91CF91FF91EF91BF91AF919F91DA
:105790008F917F916F915F914F913F912F911F91C9
:1057A0000F91FF90EF900F900FBE0F901F901895E4
:1057B0000F931F93CF93DF93863091050CF0A9C010
:1057C0002AE0289FF001299FF00D1124E45FFE4F8D
:1057D00020813181232B09F49CC0EC01F894519A6B
:1057E000599885E08A95F1F700008C2F8695857091
:1057F0009C2F9570890F982F9370869586958E01B2
:1058000023E0000F111F2A95E1F7890F082B0E9452
:10581000772AA4E0AA95F1F700C068E0802F0E94E3
:10582000D72AB0E1BA95F1F75198599A499902C02F
:1058300000C0FCCF87E090E0499B17C0019799F426
:10584000519A599A8AE08C9FF0018D9FF00D112496
:10585000E45FFE4F0190F081E02D81E08083789439
:1058600081E090E058C000C0E7CF8AE08C9F8001C3
:105870008D9F100D1124045F1E4FF8016581662372
:10588000B9F080919A0190919B0126813781820F16
:10589000931F0E94A42A81110BC0519A599AD801D2
:1058A000ED91FC9182E08083789482E090E033C0B7
:1058B0000E946F2AB0E2BA95F1F75998519AE0E147
:1058C000EA95F1F78AE08C9FF0018D9FF00D11248D
:1058D000E45FFE4F6281662351F080919A019091BE
:1058E0009B0123813481820F931F0E94F72A0E941B
:1058F000772A8AE08C9FF0018D9FF00D1124E45FE0
:10590000FE4F0190F081E02D1082789480E090E0CD
:1059100002C084E090E0DF91CF911F910F91089534
:10592000F999FECF92BD81BDF89A992780B5089567
:10593000A6E1B0E044E050E00C94CA2CA8E1B0E04D
:1059400042E050E00C94CA2C262FF999FECF92BD6C
:1059500081BDF89A019700B4021639F01FBA20BD34
:105960000FB6F894FA9AF99A0FBE08950396272F66
:105970000E94A52C0E94A42C252F0E94A52C242F28
:105980000C94A52C0196272F0E94A52C0C94A42CD6
:10599000DC01CB01FC01F999FECF06C0F2BDE1BDEF
:1059A000F89A319600B40D9241505040B8F70895DE
:1059B000DB018F939F930E946B2DBF91AF91A29FAC
:1059C000800D911DA39F900DB29F900D11240895FD
:1059D00087FB082E062687FD819567FD61950E944D
:1059E0007E2D0EF4919507FC81950895AA1BBB1B93
:1059F00051E107C0AA1FBB1FA617B70710F0A61BCF
:105A0000B70B881F991F5A95A9F780959095BC01EF
:105A1000CD01089597FB072E16F4009407D077FD6B
:105A200009D00E94F62C07FC05D03EF49095819594
:105A30009F4F0895709561957F4F0895A1E21A2EAA
:105A4000AA1BBB1BFD010DC0AA1FBB1FEE1FFF1F22
:105A5000A217B307E407F50720F0A21BB30BE40B72
:105A6000F50B661F771F881F991F1A9469F76095B9
:105A70007095809590959B01AC01BD01CF01089573
:105A8000EE0FFF1F0590F491E02D099469279627EA
:105A9000692778278727782708950E94552D332373
:105AA00012F48A1B9B0B0C94662DA29FB001B39F2E
:105AB000C001A39F700D811D1124911DB29F700D17
:105AC000811D1124911D08950E94552DB7FF089541
:105AD000821B930B08950E94552DA59F900DB49F96
