:100000000C945E020C9455230C94A5020C94A5024A
:100010000C94A5020C94A5020C94A5020C94A502C4
:100020000C94A5020C94A5020C94EB0D0C94270DD6
:100030000C94EE1E0C94A5020C94A5020C94A5023F
:100040000C94A5020C94A5020C94A5020C94A50294
:100050000C94A5020C94AD0F0C94A5020C94A5026F
:100060000C94A5020C94A5020C94A5020C94A50274
:100070000C94A5020C94A5020C94A5020C94A50264
:100080000C94A5020C94A5020C94A5020C94A50254
:100090000C94A5020C94A5020C94A5020C94A50244
:1000A0000C94A5020C94A5020C94A50240074007ED
:1000B0007B077B07D507F307FD08FD08FE077208DD
:1000C000830883083B0B620B090D620B090DAE0B15
:1000D000D10B090DC60CD60CF018F3180D191A190E
:1000E00021194119441955196B19071A071A701962
:1000F000721977199C19BE19C119C419E719581B2F
:10010000581B6B1B6B1B611B6B1B6B1B6B1B581BEF
:10011000581B661B6B1B6B1B661B0000000000005E
:1001200000000000000000000000000000000000CF
:1001300000000000000000000000000000007E0F32
:1001400000D4FFFFFFC7000000780000000000009F
:1001500000002A2B28000000000000000000000022
:10016000000000000029000000002C1E3420212285
:1001700024342627252E362D3738271E1F202122EE
:10018000232425263333362E37381F040506070867
:10019000090A0B0C0D0E0F10111213141516171857
:1001A000191A1B1C1D2F3130232D35040506070895
:1001B000090A0B0C0D0E0F10111213141516171837
:1001C000191A1B1C1D2F3130354C05010902A101E4
:1001D00085020901A1000509190129081500250159
:1001E0009508750181020501093009311581257FC6
:1001F00095027508810609381581257F95017508D6
:100200008106050C0A38021581257F950175088144
:1002100006C0C005010980A101850319012AB700A4
:10022000150126B700950175108100C0050C090164
:10023000A101850419012AA002150126A002950139
:1002400075108100C00660FF0961A10109621500F7
:1002500026FF009520750881020963150026FF001E
:10026000952075089102C005010906A1010507192D
:10027000E029E715002501950875018102950175B2
:100280000881010507190029FF150026FF009506C2
:100290007508810005081901290595057501910268
:1002A000950175039101C009025B00030100A0FAEA
:1002B00009040000010301010009211101000122CC
:1002C00040000705810308000A0904010002030039
:1002D00000000921110100012222000705820320EC
:1002E00000010705030320000109040200010300C7
:1002F0000000092111010001227B00070584032071
:10030000000A120100020000000810CB4621000282
:100310000102000112034C006500760069006E00C6
:1003200073006F006E0000000E034B006500650057
:10033000620069006F000000040309042B00140030
:100340001A00080015001700290004001600070015
:1003500009000A00E1001D001B000600190005004D
:100360003500E000E200E300105F2C002A001300DB
:1003700012000C0018001C00340033000F000E00A7
:100380000D000B0028003800370036001000110067
:100390004F00520051005000115F2C0035021E0228
:1003A0001F022002210222024C003A003B003C00C6
:1003B0003D003E00C05C400041004200430044005C
:1003C0000100010001000100010001002A002702D4
:1003D0002602250224022302310230022F022E02BD
:1003E0002D023F0001004D004A0064023202450028
:1003F000AE00A900AA00AB000100010035001E00FC
:100400001F002000210022004C003A003B003C006D
:100410003D003E0001004000410042004300440016
:100420000100010001000100010001002A00270075
:100430002600250024002300310030002F002E006C
:100440002D003F0001004E004B00640032004500CB
:10045000AE00A900AA00AB00010001000100005C91
:10046000015CC25CC35CC55C0100010001001D5C55
:100470001E5C135C0100010001000100010001008D
:100480000100010001000100010001004C00CA5CF4
:10049000C95CC85CC75CC65C0100010001000100CA
:1004A00001000A5C010001000100010001000100DF
:1004B00001000100010001000100010011241FBE24
:1004C000CFEFDAE0DEBFCDBF04B603FE27C08091D8
:1004D0005E0290915F02A0916002B091610287304C
:1004E000904BA740B04BD1F410925E0210925F0285
:1004F000109260021092610214BE84B7877F84BF9D
:100500000FB6F894A8958091600088618093600090
:10051000109260000FBEE0E0F8E3099511E0A0E062
:10052000B1E0EEE5FBE402C005900D92A438B107FE
:10053000D9F722E0A4E8B1E001C01D92AE35B207C0
:10054000E1F70E941D160C94AD250C9400001F933A
:10055000CF93DF93CDB7DEB767970FB6F894DEBFC2
:100560000FBECDBF4B8B5C8B6D8B7E8B8F8B6111E8
:100570001092B00186E09E01235F3F4FD901E82F22
:100580001D92EA95E9F795E0FE017396D901019075
:100590000D929A95E1F79C894E895F897B897D87C9
:1005A0009E876F87598B488BF901DE011796019062
:1005B0000D928A95E1F7CE0107960E946F1B81117B
:1005C0003EC086E0FE013796DE01119601900D9245
:1005D0008A95E1F7FF81E8856A857B85611571055C
:1005E00031F0EF3F31F481E0FF3F19F403C081E0C7
:1005F00001C080E080FD23C02091130230E0C901DA
:100600000196877099274091440250E0841795071E
:1006100079F1F983EA837D836C8396E0929FD00120
:10062000939FB00D1124AC5EBD4FFE013196019039
:100630000D929A95E1F7809313020E94911A16E0A9
:1006400080914402909113028917F9F0189FC0011C
:1006500011248C5E9D4F0E946F1B8823B1F0809106
:10066000440290E001968770992780934402E8CF76
:100670000E94A51D1092130210924402EDE0F2E0D8
:1006800086E0DF011D928A95E9F767960FB6F89428
:10069000DEBF0FBECDBFDF91CF911F9108953F9276
:1006A0004F925F926F927F928F929F92AF92BF9282
:1006B000CF92DF92EF92FF920F931F93CF93DF932E
:1006C000CDB7DEB729970FB6F894DEBF0FBECDBF0A
:1006D000FC018081918123813481232B31F09F3F64
:1006E00031F491E08F3F19F403C091E001C090E034
:1006F00090FDECC57F0185E0DE01119601900D9221
:100700008A95E1F7F701228189819A81222349F0B4
:100710000E94071B182F682F89819A810E943D1D16
:1007200003C00E94101D182F69817A81812F0E94B9
:1007300057208C01F7018281882309F4F2C09801C7
:1007400022513F452031310508F019C18FEF93E068
:100750000E94D4248111EFC0025137EA832E9924DC
:100760009394002379F08114F4E09F0609F4E3C028
:10077000C4010E94D424811101C001502FEF821ABC
:10078000920AEFCF1E821F82188619864424439452
:100790002AE0322E84010F5F1F4FC4010E94D4242F
:1007A0008E831F82882309F4C6C09FEF980F933071
:1007B00060F48F834E8232E0830E911CC8010E9448
:1007C000D4248887811102C0B6C048018E010A5F17
:1007D0001F4FF80120812223E9F2213009F04CC09B
:1007E0008181813049F46801F2E0CF0ED11CF8011B
:1007F00082810E94D01E0AC0823051F46801F2E06A
:10080000CF0ED11CF80182810E942C1E860186C069
:10081000833049F46801F2E0CF0ED11CF8018281E7
:100820000E94C51DF3CF843019F00F5F1F4F76C0B3
:10083000F80122810E5F1F4F80E090E030E02053EE
:1008400031092A30310568F4389EA001399E500DD7
:100850001124C901840F951F0F5F1F4FF8012081DC
:10086000EDCF009709F45AC0EFE9FFE03197F1F7B7
:1008700000C000000197F5CFE22FF0E0E65BFE4FED
:100880005490822F86958695869590E0FC01E65CD3
:10089000FE4F64902770712C022E02C075946794ED
:1008A0000A94E2F7F1E06F227724FC01E65DFE4F47
:1008B000A490B12C022E02C0B594A7940A94E2F73A
:1008C00031E0A322BB24FC01E65EFE4FC490D12C94
:1008D00002C0D594C7942A95E2F781E0C822DD24AE
:1008E0006114710419F081EE0E942C1EA114B10450
:1008F00019F086EE0E942C1E852D0E94D01EAB287A
:1009000019F086EE0E94C51D672819F081EE0E943D
:10091000C51DCD2819F08CE20E94D01E0F5F1F4F1D
:1009200058CF0031EFE51E0709F0C7C481E00E94EF
:100930006D1D0E94330A80914502877009F4C6C478
:10094000F7018281882309F4C1C482E029960FB699
:10095000F894DEBF0FBECDBFDF91CF911F910F91F5
:10096000FF90EF90DF90CF90BF90AF909F908F90CF
:100970007F906F905F904F903F900C94791D003165
:100980003FE5130711F481E005C001319FE5190728
:1009900021F482E00E94961DCCCF0D3BFCE51F07A1
:1009A00081F480915302982F969596959695C1F172
:1009B000915E990F990F990F8770892B809353023D
:1009C00023C00E3B2CE5120798F10F3BECE51E0708
:1009D00009F448C408F454C4003C2CE51207B1F5EE
:1009E00090915302892F8695869586958F5F8F719A
:1009F000883008F05EC4880F880F880F9770892BA5
:100A00008093530280915302887F91E009F490E033
:100A10008091530290FB80F9809353020E940F2132
:100A2000809153028695869586950E94AA2083CF51
:100A30000B3B3CE5130711F487E005C00C3B9CE53C
:100A4000190721F480E00E942D2175CF033FFCE5BA
:100A50001F0799F406E221EE40EE63EF7CE509C042
:100A6000073DECE51E0711F506E221EE41EE67EDCC
:100A70007CE5C7010E947A1F5ECF043F2CE5120778
:100A800008F03FC1083D3CE5130731F407E225EECD
:100A900045EE68ED7CE5EDCF093D9CE5190701F7D2
:100AA00008E221E045EE69ED7CE5E3CF882309F417
:100AB0005DC11092560202309CE5190708F440C14E
:100AC0000631ECE51E0730F0C8018A5F9C450997A6
:100AD00008F036C10E945F159093DE018093DD011E
:100AE0000031FCE51F0709F4C3C008F041C008301D
:100AF0003CE5130709F49AC0F0F404309CE51907AB
:100B000009F487C068F40230FCE51F0709F477C0D8
:100B100003301C4509F0E5C08091DD01826076C09C
:100B200006303CE5130709F46EC008F07BC08091E5
:100B3000DD0188606BC00C309CE5190709F485C0A5
:100B400068F40A30FCE51F0709F474C008F079C0A6
:100B50000E94A51D8091DD01806858C00E303CE5E3
:100B6000130709F476C008F07FC08091DD018BC0C7
:100B70000B3F9CE5190709F44FC018F50331FCE55C
:100B80001F0709F47DC078F401313CE5130709F42F
:100B900073C002311C4509F0A4C00E94A51D8091BC
:100BA000DD018F7733C005319CE5190709F472C068
:100BB00008F486C00A3F1C4509F093C08091DE010D
:100BC0003EC00F3F2CE5120709F45FC058F40D3FFB
:100BD0008CE5180709F444C008F43FC08091DE0199
:100BE00082602DC00130EDE51E0709F475C008F4E0
:100BF0005DC002301D4509F074C060E06EC0809198
:100C0000DD01816003C08091DD0180618093DD01A1
:100C100068C08091DD0111C08091DE018260809307
:100C2000DE015FC08091DD018062F0CF8091DD0147
:100C30008064ECCF8091DD0188608460E7CF8160C3
:100C4000EECF8091DD018E7FE1CF8091DD018D7F40
:100C5000DDCF8091DD01877FD9CF8091DE0118C083
:100C60008091DE018D7FDBCF8091DD018F7ECECF45
:100C70008091DD018F7DCACF8091DD018F7BC6CF52
:100C80008091DD01877F8B7FC1CF8091DE018D7FD9
:100C90008E7FC5CF8091DD0182FB222720F991E074
:100CA000922790FB82F990FB83F9B0CF8091DE010F
:100CB000982F909591708E7F892B90FB81F9AFCF03
:100CC0000E94A51D8091DD0187FB222720F991E07C
:100CD000922790FB87F99ACF61E08EE090E00E9426
:100CE000E2246091DD011091DE0184E090E00E9439
:100CF000E224612F82E290E00E94E2240E94A51D7E
:100D00001ACE053FFCE51F0731F406E221EE42EE64
:100D100065EF7CE5AECE053F2CE5120730F407E227
:100D200025EE44EE64EF7CE5A4CE063F3CE51307D8
:100D300009F0BCCE07E225EE46EE66EF7CE599CEE3
:100D400006318CE5180711F58091B1018A7A91E09E
:100D500009F490E090938601882311F065E301C0C7
:100D600069E286EA91E00E94241F0DC006311C450D
:100D7000F1F580918601882309F4A6C265E386EA2D
:100D800091E00E94171F0E94F015D5CD0A353DE570
:100D9000130741F150F401159CE51907A9F00E3D28
:100DA0001C4529F50E947B15C6CD0B35FDE51F07B7
:100DB000D9F00C351D45D9F48091DE0182FB8827DE
:100DC00080F991E0892711C00E94A51D3FEF84E3BF
:100DD0009CE0315080409040E1F700C000000E944C
:100DE0009C0FA9CD81E001C080E00E94771AF70135
:100DF000828100811181882349F0C8010E94071B6C
:100E0000D82E682FC8010E943D1D04C0C8010E9451
:100E1000101DD82EB8018D2D0E9457200E94C51399
:100E2000B82E192F982EF7010281A580A2949FE079
:100E3000A92280914502877099F0002389F0812FC3
:100E4000807F803421F080E28B0D883048F082E092
:100E50000E94791D809145028770DD24D394811111
:100E6000D12CC12EC2948FE0C8228C2D90E08C3002
:100E7000910508F0C2C1FC01EA5AFF4F0C9470259D
:100E8000812F807F1F70882311F01295107F00231F
:100E9000B9F0112309F49DC180E28B0D883010F068
:100EA000911006C08091B101182B1093B10105C0BB
:100EB0008091B001182B1093B0010E94F01589C1E8
:100EC0008B2D0E94C51D112309F497C180E28B0D63
:100ED0001095883010F0911006C08091B101182350
:100EE0001093B10105C08091B00118231093B00197
:100EF0000E94F01582C1812F807F1F70803211F017
:100F00001295107F8B2D992021F0F1E09F1611F1A1
:100F100030C00023B1F0AA2081F021E0A2120DC060
:100F20008091DE0182FD69C18091B201182B1817F2
:100F300009F463C11093B20160C18091B201812BA9
:100F400010C0AA2021F031E0A31609F456C10E9476
:100F5000EA1527C0002341F085E08A1508F44DC149
:100F6000812F0E94BB1D49C194E09A1508F445C128
:100F700018C0002349F0AA2099F3F701858180FF6A
:100F800028C18F708583ECCFAA2059F0893309F0EE
:100F900031C1FFEF27EE33E0F15020403040E1F760
:100FA00027C1812F0E94B01D28C1812F869586956B
:100FB000837019F0813061F020C1002321F08B2D66
:100FC000912F937002C080E090E00E94541F1BC1DB
:100FD000002321F08B2D912F937002C080E090E0D0
:100FE0000E943E1F10C18B2D002319F00E94592230
:100FF00002C00E94A0210E94762105C1812F83702A
:10100000A9F50111FEC04B2D429546954770440F3E
:10101000440F8B2D8F7090E09C01042E01C0220F95
:101020000A94EAF7B4FE08C08FE090E001C0880F90
:101030004A95EAF7809501C080E0169516951370E1
:10104000123069F088F49091B301113019F0822BBD
:10105000892302C0922B892B0E94A11DD2C0822B12
:101060009091B3018927F8CF822BF6CF002319F096
:10107000812F817001C08695882309F4C2C04B2D51
:10108000429546954770440F440F8B2D8F7090E02A
:101090009C01042E01C0220F0A94EAF7B4FE08C096
:1010A0008FE090E001C0880F4A95EAF7809501C073
:1010B00080E0169516951370123059F078F49091DF
:1010C000A501113019F0822B892309C0922B892B9D
:1010D00006C0822B9091A501892701C0822B0E9416
:1010E000691D8FC01F70002339F0812F0E94961D4B
:1010F0008B2D0E94BB1D85C08B2D0E94B01D812FA2
:101100000E946D1D7EC08B2D92EF991659F1991595
:1011100038F0E0EF9E1659F0F1EF9F16F1F055C050
:1011200023EF921631F134EF931681F14EC0002374
:1011300079F084E08A1508F460C01F7181E090E0C6
:1011400001C0880F1A95EAF79091A50189271BC065
:1011500095E09A1508F451C0F0CF002329F0812FB3
:101160008F7126C00023D9F3812F8F710E946D1DCE
:1011700044C0002339F01F7181E001C0880F1A9527
:10118000EAF701C080E00E94691D37C0002399F092
:101190001F71812F0E94961D8091DE0182FD07C084
:1011A000E8E01E9FC0011124836080934502812FD7
:1011B0000E94961D22C081E00E94791DF1E0FA157F
:1011C000E0F482E00E94791D18C0002331F0AA20CB
:1011D00031F28B2D0E942C1E10C0AA2029F28933D7
:1011E00049F42FEF37EE83E0215030408040E1F7A3
:1011F00000C000008B2D0E94C51D88EF8C0D84302F
:1012000010F40E946A1FDD2009F460C0809145023D
:1012100080FD5CC0F70112828595859585950E94B9
:10122000961DC7010E944F038091450285958595C3
:10123000859529960FB6F894DEBF0FBECDBFDF911E
:10124000CF911F910F91FF90EF90DF90CF90BF90C3
:10125000AF909F908F907F906F905F904F903F9056
:101260000C946D1D8091530280FF07C08E7F809388
:1012700053020E940F2180E0D8CB0E9433215BCB28
:1012800020915302822F869586958695482F50E0AF
:101290004730510554F48F5F982F990F990F990F8C
:1012A000822F8770892B8093530280915302816033
:1012B000B3CB977090935302A5CB0131FFE51F0785
:1012C00009F0C4CB82E033CB69E259CD29960FB641
:1012D000F894DEBF0FBECDBFDF91CF911F910F916C
:1012E000FF90EF90DF90CF90BF90AF909F908F9046
:1012F0007F906F905F904F903F90089580919D01F7
:1013000087FF11C08091E80082FD05C080919B019C
:101310008111F8CF11C08091E8008B770BC08091CC
:101320009B01882349F08091E80080FFF8CF8091ED
:10133000E8008E778093E8000895982F973068F53D
:101340009093E900981739F07091EC002091ED002E
:101350005091F00003C0242F762F50E021FD02C0F1
:101360009F5FECCF3091EB003E7F3093EB003091EC
:10137000ED003D7F3093ED003091EB003160309314
:10138000EB007093EC002093ED005093F00020915F
:10139000EE0027FDE5CF80E008958F708093E9008F
:1013A00081E008952091A3013091A4012617370709
:1013B00048F06115710539F42091E8002E772093EB
:1013C000E80001C0B901FC0120E06115710579F167
:1013D00080919B018823F1F18530F1F18091E80043
:1013E00083FD3CC08091E80082FD2EC08091E80022
:1013F00080FFEBCF2091F3008091F20090E0922BE0
:101400006115710551F08830910538F421912093D0
:10141000F100615071090196F3CF21E0089709F0BE
:1014200020E08091E8008E778093E800CECF2111F4
:10143000CFCF0AC080919B01882361F0853061F095
:101440008091E80083FD0AC08091E80082FFF2CF1E
:1014500080E0089582E0089583E0089581E0089592
:101460008091900108958091A501982F96709630F3
:1014700011F4886001C0877F0C94691DFC01AC01E8
:101480004C5F5F4F8FEF91E32191822728E030E09E
:1014900087FF03C0880F892701C0880F21503109B9
:1014A000B9F7E417F50781F708951F93CF93DF93FA
:1014B000CDB7DEB7AA970FB6F894DEBF0FBECDBF8B
:1014C000EDE9F1E08091F100819341E0E53AF40724
:1014D000C9F780919E01833009F462C030F48130F5
:1014E00071F0823009F49CC0B3C08A3009F488C01E
:1014F0008B3009F46DC0893009F0AAC020C08091FA
:101500009D01813A09F0A4C08091E800877F809313
:10151000E8008091A1019091A201892B21F468E05B
:1015200081E991E003C060E080E090E070E00E941B
:10153000D2098091E8008B778093E80089C0809180
:101540009D01813209F084C08091A1019091A20196
:10155000009719F0029709F07BC08091E800877F1F
:101560008093E8008091E80082FD05C080919B0196
:101570008111F8CF6DC02091F3008091F20090E0CE
:10158000922B029729F48091F1008B7F813021F416
:101590008091F100809390018091E8008B7754C096
:1015A00080919D01813A09F053C08091A1019091F1
:1015B000A201892B09F04CC08091E800877F8093BD
:1015C000E8008091E80080FFFCCF8091000137C0E7
:1015D00080919D018132E1F58091A1019091A2015C
:1015E000892BB1F58091E800877F8093E8000E9405
:1015F0007E0980919F01809300010E94A51D28C053
:1016000080919D01813221F58091E800877F809350
:10161000E8000E947E098091A00180938F0118C08C
:1016200080919D01813AA1F48091E800877F8093A9
:10163000E8008091E80080FFFCCF80918F018093CB
:10164000F1008091E8008E778093E8000E947E0987
:101650008091E80083FFDDC180919D0190919E0102
:10166000492F50E04A30510508F0D3C1FA01EE5934
:10167000FF4F0C947025803821F0823809F0C9C1E1
:1016800008C08091990190919A01992389F0826014
:101690000FC08091A1018F70873008F0BAC180938C
:1016A000E9008091EB0085FB882780F91092E90022
:1016B0009091E800977F9093E8008093F10010925A
:1016C000F10070C1282F2D7F09F0A3C1882319F0E4
:1016D000823061F09EC180919F01813009F099C1F3
:1016E000933009F080E080939A012EC080919F0191
:1016F00081112AC08091A1018F702FEF280F263011
:1017000008F087C18093E9002091EB0020FF1CC006
:10171000933021F48091EB00806214C09091EB0033
:1017200090619093EB0021E030E0A90102C0440FEA
:10173000551F8A95E2F74093EA001092EA008091E3
:10174000EB0088608093EB001092E9008091E80044
:10175000877F8093E8000E947E095BC1811159C197
:1017600010919F011F778091E3008078812B8093F7
:10177000E3008091E800877F8093E8000E947E0963
:101780008091E80080FFFCCF8091E3008068809327
:10179000E300111102C082E001C083E080939B014D
:1017A00038C18058823008F034C120919F013091B7
:1017B000A0012C3D53E0350779F583E08A838AE266
:1017C00089834FB7F894DE01139620E03EE051E2A2
:1017D000E32FF0E050935700E49120FF03C0E2951F
:1017E000EF703F5FEF708E2F90E0EA3010F0C796F9
:1017F00001C0C0968D939D932F5F243149F74FBF51
:101800008091E800877F8093E8006AE270E0CE0173
:1018100001960E94D209B4C08091A1019091A201C9
:10182000432F552743305105A9F068F44130510545
:1018300009F4FEC04230510509F0EBC08BE590E0A1
:10184000E7EAF2E04BC04132510529F1423251053D
:1018500089F1DFC0C901992781309105A1F058F0C5
:10186000029709F0D6C0E4E1F3E0E4918E2F90E016
:10187000E4E1F3E030C0E8E3F3E0E4918E2F90E0A0
:10188000E8E3F3E028C0E8E2F3E0E4918E2F90E093
:10189000E8E2F3E020C08330910508F0BAC0880F79
:1018A000991FFC01E35CFE4F0190F081E02D89E07F
:1018B00090E014C08330910508F0ABC0FC01EE0F3E
:1018C000FF1FE95CFE4F0190F081E02DDC01AC5C74
:1018D000BE4F8C9190E0009709F49BC02091E800E6
:1018E000277F2093E8002091A3013091A4012817BD
:1018F000390708F4C90140E0009789F120919B0164
:10190000222309F43DC02530D9F12091E80023FDC0
:1019100037C02091E80022FD2FC02091E80020FF71
:10192000EBCF4091F3002091F20030E0342B009790
:1019300059F02830310540F444914093F10031963C
:1019400001972F5F3F4FF3CF41E02830310509F079
:1019500040E02091E8002E772093E800CDCF4111A0
:10196000CDCF0AC080919B01882351F0853041F092
:101970008091E80083FD04C08091E80082FFF2CFEF
:101980008091E8008B778093E80043C0803809F0AD
:1019900040C08091E800877F8093E80080919C019F
:1019A0008093F1008091E8008E77D3CE811131C011
:1019B00080919F019091A0019927029754F5809101
:1019C000E800877F8093E80010919F0110939C01AD
:1019D0000E947E09111106C08091E30087FD02C0BC
:1019E00081E001C084E080939B0142E061EC81E0F2
:1019F0000E949D0942E261EC84E00E949D0942E25E
:101A000061EC82E00E949D0942E260EC83E00E946A
:101A10009D098091E80083FF10C08091E800877FD6
:101A20008093E8008091EB0080628093EB0005C01A
:101A300082E190E0E2E0F3E051CFAA960FB6F8948D
:101A4000DEBF0FBECDBFDF91CF911F9108951F92D2
:101A50000F920FB60F9211242F933F934F935F93E2
:101A60006F937F938F939F93AF93BF93CF93DF93A6
:101A7000EF93FF93C091E900CF708091EC00D82FD5
:101A8000D17080FDD0E81092E9008091F000877F4E
:101A90008093F00078940E94550A1092E90080919A
:101AA000F00088608093F000CD2BCF70C093E900E8
:101AB000FF91EF91DF91CF91BF91AF919F918F9166
:101AC0007F916F915F914F913F912F910F900FBE3A
:101AD0000F901F901895E8EDF0E080818E7F808355
:101AE0001092E2001092DA001092E100A0EEB0E055
:101AF0008C9181608C9380818F77808319BCA7ED56
:101B0000B0E08C918E7F8C9380818F7E8083109249
:101B10008E010895CF92DF92EF92FF920F931F9361
:101B2000CF93DF93C8EDD0E088818F7E8883E7ED87
:101B3000F0E080818160808384E082BF81E08093D7
:101B40008E0188818E7F888302EE10E0F80110827A
:101B50001092DA0081EEC82ED12CF6011082888115
:101B60008F77888388818068888388818F7D888348
:101B700019BC10929B0110929C0110929A01109234
:101B8000990190EEE92EF12CF70180818B7F808303
:101B900088818160888342E060E080E00E949D0946
:101BA000F60180818E7F8083F8018081816080834F
:101BB000808188608083F70180818E7F8083888127
:101BC00080618883DF91CF911F910F91FF90EF90FB
:101BD000DF90CF9008951F920F920FB60F921124AD
:101BE0002F933F934F935F936F937F938F939F9325
:101BF000AF93BF93EF93FF938091E10082FF09C001
:101C00008091E20082FF05C08091E1008B7F80938C
:101C1000E1008091DA0080FF2AC08091D80080FF27
:101C200026C08091DA008E7F8093DA008091D900FF
:101C300080FF18C080E189BD82E189BD09B400FE42
:101C4000FDCF81E080939B0180918E0181110FC0B7
:101C50000E946B0D0E948A0D8091E2008460809347
:101C6000E20005C019BC10929B0110928E01809178
:101C7000E10080FF17C08091E20080FF13C08091D7
:101C8000E2008E7F8093E2008091E2008061809389
:101C9000E2008091D80080628093D80019BC85E072
:101CA00080939B018091E10084FF2EC08091E2002F
:101CB00084FF2AC080E189BD82E189BD09B400FEAC
:101CC000FDCF8091D8008F7D8093D8008091E10076
:101CD0008F7E8093E1008091E2008F7E8093E2000E
:101CE0008091E20081608093E20080919C018823D2
:101CF00011F084E007C08091E30087FD02C081E01D
:101D000001C083E080939B018091E10083FF27C0A5
:101D10008091E20083FF23C08091E100877F809360
:101D2000E10082E080939B0110929C018091E10090
:101D30008E7F8093E1008091E2008E7F8093E200AD
:101D40008091E20080618093E20042E060E080E008
:101D50000E949D098091F00088608093F000FF91BF
:101D6000EF91BF91AF919F918F917F916F915F9113
:101D70004F913F912F910F900FBE0F901F9018958C
:101D80002091E4003091E50095E64091EC00842F2D
:101D9000817040FF23C08091E80080FD1DC08091CC
:101DA0009B01882399F0853099F08091EB0085FDA7
:101DB00011C04091E4005091E5002417350729F344
:101DC000915011F09A01E1CF84E0089582E00895E6
:101DD00083E0089581E0089580E008954091E8004F
:101DE00042FFDDCF0895EF92FF920F931F93CF93A1
:101DF000DF937C018B010E94C00E811119C0E701A5
:101E000001151105A1F08091E80085FD0AC08091BF
:101E1000E8008E778093E8000E94C00E882381F34B
:101E200007C089918093F10001501109E9CF80E04A
:101E3000DF91CF911F910F91FF90EF9008959091B6
:101E40009B01943029F580938B0170938D016093F1
:101E50008C019093E9008FEF9091E800815095FDFF
:101E600006C095ED9A95F1F700008111F5CF8091AC
:101E7000E80085FF0DC040E050E063E070E08BE8D3
:101E800091E00E94F30E8091E8008E778093E80045
:101E90000895BC0184E00C941F0FBC0183E00C94F6
:101EA0001F0F24E02093E9002FEF3091E80021502C
:101EB00035FD06C035ED3A95F1F700002111F5CF5B
:101EC0002091E80025FF0BC040E050E066E070E0A4
:101ED0000E94F30E8091E8008E778093E8000895C9
:101EE000CF93DF9321E02093E9002FEF3091E800BA
:101EF000215035FD06C035ED3A95F1F7000021116E
:101F0000F5CF2091E80025FF14C0EC0140E050E03F
:101F100068E070E00E94F30E8091E8008E77809375
:101F2000E80088E0FE01A1E9B1E001900D928A95F8
:101F3000E1F7DF91CF91089587E797E79093010844
:101F4000809300089AE088E10FB6F894A8958093F2
:101F500060000FBE90936000FFCF78941F920F92A5
:101F60000FB60F9211248F939F93AF93BF938091DD
:101F7000870190918801A0918901B0918A01019611
:101F8000A11DB11D8093870190938801A0938901C1
:101F9000B0938A01BF91AF919F918F910F900FBE27
:101FA0000F901F9018959C014FB7F894809187016E
:101FB00090918801A0918901B0918A014FBF821B45
:101FC000930B08952FB7F894609187017091880161
:101FD0008091890190918A012FBF08952FB7F894BD
:101FE0008091870190918801A0918901B0918A0127
:101FF0002FBF089580E008959091DD0192FF0DC0FC
:10200000282F2871283019F4877F846006C0282F74
:102010002471243011F48B7F886093FF0DC0282F2A
:102020002871283119F4877E846106C0282F247115
:10203000243111F48B7E88612091DE0120FF0DC0D8
:10204000382F3871383019F4877F816006C0382FF7
:102050003171313011F48E7F886021FF0DC0282F3F
:102060002871283119F4877E816106C0282F2171DB
:10207000213111F48E7E886194FD877E0895AF92A0
:10208000BF92CF92DF92EF92FF920F931F93CF9365
:10209000DF937C015B016A018091D8018A3018F0DE
:1020A00001E010E002C00AE010E0C1E0D0E0F894E6
:1020B000B501C701F60109957894811115C02196E3
:1020C0000C171D0794F0CC9F9001CD9F300D300D63
:1020D000112480E090E045E34A95F1F70000019675
:1020E00082179307C1F7E3CF81E0DF91CF911F9172
:1020F0000F91FF90EF90DF90CF90BF90AF90089539
:102100000F931F93CF93DF931F92CDB7DEB78091CC
:10211000530280FF04C086958695869501C080E0B5
:1021200089839091D3010091D4011091D501209120
:10213000D6013091D701EFB7F894409187015091C3
:1021400088016091890170918A01EFBF401B510B9A
:10215000620B730B443651056105710510F4891744
:1021600029F1809122019091230186539E4F409145
:10217000210150E04115510511F041E050E0BE0150
:102180006F5F7F4F0E94A42583E090E00E941C2493
:10219000892B11F080E00BC00E94E20F6093D40104
:1021A0007093D5018093D6019093D70181E00F9071
:1021B000DF91CF911F910F910895EF92FF921F939E
:1021C000CF93DF9300D000D01F92CDB7DEB77B0155
:1021D00080E090E00E941C24892B09F065C04091AA
:1021E000060150E04115510511F041E050E06091C9
:1021F00007017091080166537E4FCE0105960E943B
:10220000A4254091C2015091C3016091C401709115
:10221000C5012FB7F8948091870190918801A09112
:102220008901B0918A012FBF841B950BA60BB70BB8
:1022300084369105A105B10538F48BEC91E00E943C
:102240003E0A9D81891791F181E090E00E941C2453
:10225000892BA1F44091100150E04530510510F058
:1022600044E050E0609111017091120166537E4F7D
:10227000CE0101960E94A42511E001C010E08BEC74
:1022800091E00E943E0A91E02D81281390E01923ED
:1022900041F10E94E20F6093C2017093C3018093E9
:1022A000C4019093C5010FC010E001C011E08091FE
:1022B000CB019091CC01A091CD01B091CE01898349
:1022C0009A83AB83BC83112361F089819A81AB81AE
:1022D000BC818093BE019093BF01A093C001B093D5
:1022E000C1018091BE019091BF01A091C001B09148
:1022F000C101F70180839183A283B383812F0F9063
:102300000F900F900F900F90DF91CF911F91FF9042
:10231000EF9008958091BD01811118C08091D8007F
:1023200080618093D8008AE18A95F1F700C080919E
:10233000D90080FD02C082E001C081E08093BD0130
:10234000823021F40E946B0D10929B0181E09091EC
:10235000BD01913009F080E008950F931F93CF9352
:10236000DF9300D000D0CDB7DEB74091C6015091C9
:10237000C7016091C8017091C9012FB7F89480918D
:10238000870190918801A0918901B0918A012FBFA6
:10239000841B950BA60BB70B84369105A105B105DF
:1023A00008F443C00E948A11882319F00E94E20FAA
:1023B0000EC00E94E20F0091D9011091DA01209124
:1023C000DB013091DC01600F711F821F931FDC0164
:1023D000CB010296A11DB11D89839A83AB83BC8377
:1023E000809118019091190186539E4F40911701D9
:1023F00050E04530510510F044E050E0BE016F5F01
:102400007F4F0E94A42582E090E00E941C24892B2B
:1024100011F080E00BC00E94E20F6093C601709340
:10242000C7018093C8019093C90181E00F900F907C
:102430000F900F90DF91CF911F910F910895F89415
:10244000E82FE295EF70F0E031A1282F2F7081E0A6
:1024500090E001C0880F2A95EAF7982F9095932372
:1024600091A392A1892B82A3789408957F928F9251
:102470009F92AF92BF92CF92DF92EF92FF920F9313
:102480001F93CF93DF93CDB7DEB72C970FB6F89499
:10249000DEBF0FBECDBFAE014F5F5F4F7A0188E058
:1024A000DA011D928A95E9F706E711E06A018AE7E9
:1024B000882E81E0982EAA24A394B12CF801808163
:1024C0008F3F09F448C0F894E82FE295EF70F0E0F0
:1024D00021A18F70A50102C0440F551F8A95E2F714
:1024E000CA01922F982B91A392A18095892382A350
:1024F000789400C0EEE7F1E020E030E0712C8191AB
:102500008F3FB9F0A82FA295AF70B0E090964C9194
:1025100050E08F70DA0102C0B595A7958A95E2F771
:10252000A0FD07C08A2D022E01C0880F0A94EAF789
:1025300001C080E0782A2F5F3F4F26303105F9F641
:10254000F80180818F3F11F00E941F12F0EAFA9586
:10255000F1F7D6017C920F5F1F4FBFEFCB1ADB0A5A
:102560008016910609F0AACF48E050E0B7018FED40
:1025700091E00E9497258C01892B41F088E0F701BA
:10258000AFEDB1E001900D928A95E1F7F090E8018E
:102590000115110549F081E08093B6010E94EE0F0C
:1025A0009093B5018093B4018091B6018823B9F06E
:1025B0008091B4019091B5010E94D30F059778F0F6
:1025C000AFEDB1E0EF2DF0E0ED50FE4F83EE91E086
:1025D0002D9121938A179B07D9F71092B601011507
:1025E000110509F0BBC00E948A11E091E80188231F
:1025F00009F46AC019861A861B861C860E2F10E005
:102600000D501E4F8091D8018A3058F44DED50E1A5
:10261000BE01675F7F4FC8010E943F10882311F100
:102620000AC08091B7019091B8010E94D30F843FF6
:10263000914060F728C04DEA51E1BE01675F7F4FCE
:10264000C8010E943F10882369F040E850E1BE01B4
:10265000675F7F4FC8010E943F10882319F01092D6
:10266000D8011CC08091D8018F3F19F08F5F8093F3
:10267000D8018091D8018A3088F00E94EE0F9093A3
:10268000B8018093B701E091E701F0E0ED50FE4F13
:10269000108211821282138201E062C0E091E70190
:1026A000F0E0ED50FE4FDE0119969E01235F3F4F93
:1026B00000E08D919081981711F0808301E03196B0
:1026C000A217B307B1F74CC0F0E0ED50FE4FF894FD
:1026D00084E0ABECB1E001900D928A95E1F78BECD0
:1026E00091E00E943E0A8093CA017894F894C090C9
:1026F000CF01D090D001E090D101F090D201809133
:10270000B9019091BA01A091BB01B091BC01C8166A
:10271000D906EA06FB06D1F0C092B901D092BA01FF
:10272000E092BB01F092BC010E948A1181110EC09F
:102730000E94E20FC61AD70AE80AF90AC092D90124
:10274000D092DA01E092DB01F092DC017894F89407
:102750008091D3010E94AA20789402C001E010E089
:10276000802F2C960FB6F894DEBF0FBECDBFDF9141
:10277000CF911F910F91FF90EF90DF90CF90BF907E
:10278000AF909F908F907F900895CF93DF93823882
:10279000910569F1B0F48133910509F46FC048F4F3
:1027A0008932910509F465C08A32910509F46BC03C
:1027B0008AC08533910509F457C089339105B9F072
:1027C00082C0833E910571F138F4803E9105B1F0ED
:1027D000823E910511F177C0863E9105B9F1873EA1
:1027E0009105C9F1843E910509F06DC024C0209186
:1027F000DD0120FD53C021FD51C065C08091DD0188
:1028000080FD46C08091DE0180FF48C08091DD01DF
:1028100084FD50C183EE90E04FC18091DD0182FFC5
:102820003AC0F4CF8091DD0182FD35C08091DE0198
:1028300080FD34C0EBCF8091DE0181FF35C08091F7
:10284000DD0184FD37C187EE90E036C18091DD0166
:1028500083FF27C0F4CF8091DD0183FD22C08091EA
:10286000DE0181FD21C0EBCF8091DD0185FD1FC020
:1028700021C08091DD0185FD1DC019C08091DD0161
:1028800086FD1BC01DC08091DD0186FD19C015C0ED
:1028900089E390E011C182EE90E00EC180EE90E0FD
:1028A0000BC186EE90E008C184EE90E005C189E29C
:1028B00090E002C185E390E0FFC08AE290E0FCC0B6
:1028C00081E390E0F9C0811531E5930708F069C014
:1028D000811540E59407F0F09C0174E0369527954A
:1028E0007A95E1F7922F9370482F437021E030E002
:1028F00002C0220F331F4A95E2F73C68392B982F0C
:102900009F709695969540E2949FC0011124822B6A
:10291000932BD2C0883E910568F5803E910508F062
:10292000CBC0883A9105B8F4853A910548F0855AAC
:10293000E82FF0E0ED5BFE4F808190E09064BCC03A
:102940008130910509F4B3C008F4B4C08430910516
:1029500008F4B0C0B1C08F3B910508F0ABC0885AF5
:10296000E82FF0E0EE0FFF1FEA5BFE4F80819181C0
:102970009464A2C0811520E2920758F4811531E0D9
:10298000930708F099C0803F910508F493C09065C3
:1029900093C0811540E4940708F48CC09F70906A3E
:1029A0008BC0811525E5920708F042C0811534E5FA
:1029B000930728F0982F8827846F906A7DC081152F
:1029C00043E59407B0F09C012370332741E050E0C9
:1029D00002C0440F551F2A95E2F7282F2695269509
:1029E00080E2289F90011124CA01822B932B9A68C0
:1029F00063C0811522E5920728F4982F8827816FFC
:102A0000906A5AC09C012370332741E050E002C015
:102A1000440F551F2A95E2F7282F2695269580E228
:102A2000289F90011124CA01822B932B9C6844C0DB
:102A3000EC01811539E59307A8F48115984528F034
:102A40009C2F8827806F906A37C0C11586E5D8070C
:102A500088F58C2F0E94FC0F8F7190E0982F8827AB
:102A600090622AC081152AE5920790F48C2F8F700E
:102A70000E94FC0F94E0D695C7959A95E1F7CF7028
:102A8000D0E0DC2FCC27D0699E01282BC90114C0CF
:102A900090568115904270F48D2F8F710E94FC0F1B
:102AA000282F2F71CE0199279062922B05C081E0CB
:102AB00090E002C080E090E0DF91CF910895CF9345
:102AC00084E090E00E94D424C82F82E290E00E942B
:102AD000D4242C2F30E0A901582BCA01CF9108959E
:102AE00080E090E00E94DC24893E9E4F11F40C941B
:102AF000912080E0089569EE7EEF80E090E00E94F2
:102B0000002560E082E090E00E94E22460E083E043
:102B100090E00E94E2241092B30160E084E090E033
:102B20000E94E22460E082E290E00E94E22460E001
:102B300085E090E00E94E22460E086E090E00E9460
:102B4000E2246FEF87E090E00E94E22440E050E052
:102B5000BA0188E090E00E94F42460E08DE090E00B
:102B60000E94E22440E050E0BA0188E190E00E9437
:102B7000F42460E087E190E00E94E22440E050E02D
:102B8000BA018CE190E00E94F42460E070E080E201
:102B900090E00E94002540E050E0BA0188E190E01A
:102BA0000E94F42480E00E9464200E9482200E94FF
:102BB000332185E00E942D2140E050E0BA018FE0F2
:102BC00090E00E94F42440E050E0BA0183E190E0FC
:102BD0000C94F4248091B20181111092B2010895F5
:102BE0009091B1018091B001892B2091AF01982F74
:102BF000922B9093A6018091B201882389F0892BB2
:102C00008093A601E8EAF1E097E080E0915029F096
:102C100021912223D9F38F5FF9CF81110E94EA1508
:102C2000E0915902F0915A02309731F00280F3811D
:102C3000E02D86EA91E009940895CF93DF93CDB714
:102C4000DEB7AA970FB6F894DEBF0FBECDBF84B72C
:102C5000877F84BF0FB6F894A89580916000886143
:102C600080936000109260000FBE90E080E80FB685
:102C7000F89480936100909361000FBE85B78068DF
:102C800085BF85B7806885BF8AEF9FE090938501F7
:102C9000809384010E946B0D0E948A0D8091E20056
:102CA00084608093E200789480919B018823A1F056
:102CB0001091E9001F709091EC00892F817090FDB8
:102CC00080E8182B1092E9008091E80083FD0E94B3
:102CD000550A1F701093E90082E084BD93E095BD12
:102CE0009AEF97BD80936E001092D9011092DA018D
:102CF0001092DB011092DC010E949120811102C030
:102D00000E9482200E948A11809329010E948A11C8
:102D100081110E940F23809129018091290188232C
:102D200011F090E001C094E09093E80184E0891BE9
:102D30008093E70106E711E07AE7E72E71E0F72ECE
:102D4000F80181918F018F3F11F00E941F12E01650
:102D5000F106B1F70EE711E064E8E62E61E0F62E29
:102D6000F80181918F018F3F11F00E941F12E01630
:102D7000F106B1F7EFEDF1E087EE91E0A3EFB1E0FE
:102D800011921D928E179F07D9F70E94701581111D
:102D900002C00E947B1582E090E00E94D4248093C0
:102DA000EA010E945F159093DE018093DD010E948D
:102DB00036128FE39CE90197F1F700C000000E94F2
:102DC00036128091F30180FF08C06FEF7FEF80E043
:102DD00090E00E9400250E949C0F83E090E00E94FA
:102DE000D4240E94A11D259A2D9882E8809380000A
:102DF00089E1809381008FEF9FEF9093870080930C
:102E000086000E944B210E948A11811102C00E94FB
:102E100012230E944B218AE291E090935A02809300
:102E2000590228E1422E512C30E1232E40E1342E6C
:102E30008E010F5F1F4F57E0652E712C6E019BE0D6
:102E4000C90ED11C80919B01853009F047C092E1E9
:102E5000F92E80919B01853009F03AC080919B0149
:102E6000843029F180E00E94AA2010925D02E0E403
:102E70000FB6F894A895409260000FBEE0936000F2
:102E800083B7817F846083BF83B7816083BF789479
:102E9000889583B78E7F83BF0FB6F894A8958091ED
:102EA0006000886180936000109260000FBE809186
:102EB0009A01882309F4CDCF0E943612E3EFF1E0A6
:102EC00081918111CEC221E0EB3FF207C9F7C1CF5A
:102ED0000E94A51D0E944B210E946A1F0E9436126B
:102EE00081110E94E20FABEEB1E0E3EFF1E0E12CE3
:102EF000F12C8E2C91908D91892549F1A12CBB2428
:102F0000B3949B2D9823F1F00E948A11882399F0A5
:102F1000A9A28AA29B2081E009F480E08BA30E94F1
:102F2000EE0F8160782F9DA38CA349A15AA16BA1BC
:102F30008DA10E94A702F701E551FE4F8081B826BE
:102F4000B0821CC0A394BB0C36E0A312DACF4FEFC3
:102F5000E41AF40A88E0E816F10459F68FEF8EA31C
:102F60008FA318A60E94EE0F8160782F9AA789A7D9
:102F70004EA15FA168A58AA50E94A70286E0EDE4A4
:102F8000F2E0D80101900D928A95E1F7A0904F02EE
:102F9000B0905002E0905102F090520210924F0215
:102FA000109250021092510210925202A11003C0CE
:102FB000BB2009F451C080914B0290914C020E94B9
:102FC000D30F9C0190914702992309F469C22333DE
:102FD000310508F441C09F3F19F09F5F909347026D
:102FE000AA2061F00E9439221A1414F491E001C061
:102FF0009FEF899F802D112480934F02BB2061F0A9
:103000000E9439221B1414F491E001C09FEF899FA4
:10301000802D11248093500230914F023323E1F030
:10302000209150022223C1F045EB3403C00111244A
:10303000992319F090934F0203C081E080934F02CF
:1030400035EB2303C0011124992319F0909350020A
:1030500003C081E080935002E11003C0FF2009F417
:1030600051C08091490290914A020E94D30F9C0165
:1030700090914602992309F418C22536310508F4C7
:1030800041C09F3F19F09F5F90934602EE2061F090
:103090000E9417221E1414F491E001C09FEF899F33
:1030A000802D112480935102FF2061F00E9417228D
:1030B0001F1414F491E001C09FEF899F802D11240B
:1030C00080935202309151023323E1F02091520259
:1030D0002223C1F045EB3403C0011124992319F0D8
:1030E0009093510203C081E08093510235EB23039A
:1030F000C0011124992319F09093520203C081E07A
:103100008093520280914F0281110BC08091500236
:10311000811107C080915102811103C08091520238
:1031200081110E947621AB82BC82ED82FE8286E014
:10313000F801ADE4B2E001900D928A95E1F70E94AA
:103140006A1F9091E901891721F00E946A1F8093FC
:10315000E90180919B01843009F074CE83E0809373
:10316000E9008091E80082FF6DCE8091E80085FF44
:1031700021C00E94C00E81111BC080E2E82EF12CFC
:10318000580109C08091F100F50181935F01F1E0E0
:10319000EF1AF10869F08091E80085FDF3CF809186
:1031A000E8008B778093E8000E94C00E882399F393
:1031B00091E001C090E08091E8008B778093E80077
:1031C000992309F43FCEE9818E2F90E0FC013197DD
:1031D000E331F10508F01BC1E459FF4F0C94702551
:1031E0001A8289E082C08A81823009F450C183301A
:1031F00051F0813009F00BC10E94E20F9B838C8358
:103200007D836E8306C1FE013396A3EFB1E08D91FD
:103210008193CE16DF06D9F7FCC08A81823009F08F
:10322000F6C06B817C818D819E810E94762586E22D
:1032300090E024C04C816B818A810E9431209D8363
:103240002DC1AD80BE80BA24AB24BA248C81EB8022
:103250009A812CE0E29E7001112430E6939FE00CED
:10326000F11C1124E80EF11CE80EF11C6B2DC701B6
:1032700087960E94E2246A2DC70188960E94E22464
:10328000C8C00E94FD1FC5C08A81893009F0C1C035
:103290008B8147E0849FC00111246FEF70E00E9492
:1032A0002625862F0E941421B4C08A81893029F0F6
:1032B0008A3009F0AEC01B82ACC080915302869563
:1032C00086958695EFEF8E9FC0011124B3010E9471
:1032D00026256B839EC0809153020E940F2199C0C6
:1032E0003A8297C082E08A8389E58B8392C0EA8024
:1032F000FB80FE24EF24FE248C80912C5801C70112
:1033000089559E4F9501201B310B2815390508F072
:1033100080C0F9E5EF16F2E0FF0628F40E94D424FD
:10332000F501848302C0F5011482FFEFEF1AFF0A52
:103330002FEFA21AB20AE3CFEA80FB80FE24EF242B
:10334000FE248C80912C5801C70189559E4F950110
:10335000201B310B2815390508F05BC039E5E31651
:1033600032E0F30620F4F50164810E94E224FFEFCD
:10337000EF1AFF0A2FEFA21AB20AE6CF0E94ED1F42
:1033800048C084E08A8345C0EA80FB80FE24EF24A5
:10339000FE248C80912C5801C70187969501201B33
:1033A000310B28153905A8F530E8E31631E0F306AE
:1033B00028F40E94D424F501848302C0F50114820C
:1033C000FFEFEF1AFF0A2FEFA21AB20AE5CFEA8049
:1033D000FB80FE24EF24FE248C80912C5801C70131
:1033E00087969501201B310B2815390590F430E89C
:1033F000E31631E0F30620F4F50164810E94E22433
:10340000FFEFEF1AFF0A2FEFA21AB20AE8CF8FEFF1
:10341000898380919B01843009F014CD8091E9006B
:103420008F702091EC00922F917020FD90E8F92E82
:10343000F82A82E08093E9008091E80080FF0CC0C8
:1034400040E050E060E270E0C8010E94F30E80911D
:10345000E8008E778093E8008F2D8F708093E900CD
:10346000F1CC29BCF9BC09B400FEFDCF8091D80095
:103470008F7D8093D8008091E00082608093E0008F
:103480008091E00081FDFCCF0E94A51DE2CC86E288
:1034900090E00E94D4241B821C821D828E83B9CFAF
:1034A0002D32314008F099CDD7CD2D32314008F082
:1034B000EACD28CE80E090E00E94541F80E090E0AA
:1034C0000E943E1F1092B0011092AF010E94F015B1
:1034D000EDE4F2E086E0DF011D928A95E9F71092B3
:1034E000470210924602109248020C947621CF9324
:1034F000C091DE01C2FB992790F9981781F080FBFB
:10350000C2F9C093DE016091DD0184E090E00E9489
:10351000E2246C2F82E290E0CF910C94E224CF91D0
:1035200008958091440290911302891719F08F5FDA
:103530008770FBCF08950F931F93CF93DF938091F4
:10354000120282958F7009F05DC080910F0288236E
:1035500009F458C0809144021091130260910D0249
:1035600070910E02C0911002D091110291E06F3F54
:1035700009F090E0292F06E0811709F443C0209755
:1035800021F07F3F21F030E003C031E001C0322F55
:1035900090E030FD34C0089FF001099FF00D112428
:1035A000DF01AC5EBD4F11963C911197371327C0D8
:1035B0003C91361324C012963C91129731111FC0D2
:1035C00013964D915C9114974C1B5D0B483C510533
:1035D000B0F4809112028F70806180931202E75ED6
:1035E000FD4F80818F70806180838DE092E00E942A
:1035F0004F03DF91CF911F910F910C94911A019677
:103600008770BACFDF91CF911F910F910895CF921C
:10361000DF92FF920F931F93CF93DF936C01009182
:10362000A5018091B301082BC7E0D0E010E0C801EC
:103630000C2E02C0959587950A94E2F780FD04C090
:103640002197A8F7F12C09C0FC2EB6018C2F0E94FF
:1036500057200E94C513019799F38F2DDF91CF91C9
:103660001F910F91FF90DF90CF900895CF93DF933C
:10367000EC010E94071BBE010E9457200E94C51347
:10368000DF91CF910895FC01808191810E94361BCA
:10369000292F2F70E92FE295EF704E2F50E0FA019D
:1036A0003297EE30F105B8F4E158FF4F0C947025D5
:1036B000803F99F018F4883E70F40FC0843F59F4AD
:1036C0000CC0883E50F0813F31F407C0822F8695B0
:1036D00086958695089580E0089581E008959F92EB
:1036E000AF92BF92CF92DF92EF92FF920F931F9310
:1036F000CF93DF93CDB7DEB761970FB6F894DEBFF7
:103700000FBECDBF8C0185E0F801DE011D96019052
:103710000D928A95E1F7F801E28090910D02609197
:103720000E0240911002509111024115510531F0E5
:103730006F3F31F481E09F3F19F403C081E001C085
:1037400080E0F82FF1709F2E80FD1AC1F8013081C2
:103750002181C380D4808DE0A82E82E0B82EF09025
:103760000F02F601E41BF50BFF2009F4C6C080919F
:103770001202E83CF10508F091C0482F407F09F0A3
:1037800050C0621311C093130FC0FE2CE1100CC087
:103790008F70806180931202C5010E944F03809157
:1037A0001202F801858329C1CD2831F02F3F31F471
:1037B00081E03F3F19F403C081E001C080E080FD5B
:1037C00003C081E08E2502C080E090E0F82FF17008
:1037D000FF2E80FF1CC0809144024091130256E0EE
:1037E000841709F4E8C090E0589FF001599FF00D4C
:1037F0001124EC5EFD4F6181261306C060816313C6
:1038000003C06281E61203C001968770E9CFFE2CE7
:10381000EE2009F4F2C080911202816080931202BE
:1038200049C0621306C0931304C0E11002C0F8013E
:1038300086C0C8010E94431B882351F1EE2041F14C
:1038400020911202822F82958F7090E0029774F07F
:1038500080910D0290910E0298878F831986DB86E6
:10386000CA862C87CE0107960E944F0386E0F80196
:10387000ADE0B2E001900D928A95E1F70E949B1AAB
:103880000AC06217C9F0C8010E94431B81111EC003
:10389000C8010E944F03FF24F394AFC0482F407F1C
:1038A00081F78DE092E00E944F0386E0F5011192CE
:1038B0008A95E9F7F12CA1C09313E5CFE110E3CF8E
:1038C000F8018583C8010E944F0354C0EE2001F324
:1038D00020911202822F82958F7090E0029734F22D
:1038E00080910D0290910E029A8389831B82DD8262
:1038F000CC822E83CE010196B7CFE83CF105D0F5FE
:10390000FE2CEE2029F2621327C0931325C02091CC
:10391000120220FD18C0822F82958F70482F50E030
:103920004115510581F0F80125834F30510541F0D3
:103930008F5F982F9295907F822F8F70892B858330
:10394000C8010E944F0386E0F801ADE0B2E00190AB
:103950000D928A95E1F751C0C8010E94431B811165
:1039600085CF80911202816080931202C8010E946B
:103970004F0343C086E0F50111928A95E9F73DC0F7
:10398000EE2009F485CFC8010E94431BF82E88233E
:1039900009F47ECF86E0F801ADE0B2E001900D922F
:1039A0008A95E1F780910D0290910E020E94361BDC
:1039B0000E949B1A22C03D872E878D859E850E947E
:1039C000361B292F22952F70223028F49F7039F052
:1039D000811105C00BC0243028F49F7049F4805E2B
:1039E000883020F0C8010E944F039F2CF92C05C09D
:1039F000F8019581907F99F7F9CF8F2D61960FB6D9
:103A0000F894DEBF0FBECDBFDF91CF911F910F9114
:103A1000FF90EF90DF90CF90BF90AF909F90089570
:103A2000292F220F920F990F890F682F669566959F
:103A30006695982F977083E0689FB001112440E04D
:103A400050E080E0FB01E40FF51FE550FE4F2081C0
:103A500030E0092E02C0369527950A94E2F72170CE
:103A60003327042E01C0220F0A94EAF7822B4F5FFE
:103A70005F4F4330510531F70895292F220F920FE0
:103A8000990F890FE82FE695E695E695877051E046
:103A900001C0550F8A95EAF783E0E89FF0011124F1
:103AA000E550FE4F20E030E070E04081CB01022E77
:103AB00002C0969587950A94E2F7817081958427D4
:103AC0008523842781932F5F3F4F2330310569F78A
:103AD00008958093A5010C945A1A21E030E001C0AA
:103AE000220F8A95EAF720958091A50182230C94F4
:103AF000691D209145028095822380934502982F6D
:103B0000977041F430E0482F082E000C550B241715
:103B1000350721F49091DE0192FF07C085958595C8
:103B200085950E946D1D10924502089521E030E0B8
:103B300001C0220F8A95EAF78091A501822B0C948F
:103B4000691D8093B3010C945A1A1092B10186E05A
:103B5000E8EAF1E0DF011D928A95E9F70C945A1A20
:103B6000882341F080959091B10189238093B10120
:103B70000C94F0150895882339F09091B101892BA8
:103B80008093B1010C94F0150895882309F463C063
:103B9000823869F40E946A1F81FF5DC069E386EA8A
:103BA00091E00E94241F0E94F01569E30EC0833843
:103BB00091F40E946A1F80FF4EC063E586EA91E09F
:103BC0000E94241F0E94F01563E586EA91E00E949E
:103BD000171F0C94F015843869F40E946A1F82FF45
:103BE0003AC067E486EA91E00E94241F0E94F01523
:103BF00067E4EBCF9CEF980F913A10F4682FE5CF74
:103C000090E2980F983088F4877021E030E0A901A5
:103C100002C0440F551F8A95E2F7CA018095909122
:103C2000B10189238093B101D4CF9BE5980F9330E4
:103C300020F480E090E00C94541F98E5980F9731A1
:103C400020F480E090E00C943E1F803F20F00E9422
:103C5000A0210C9476210895CF93882309F49EC067
:103C6000C82F8238B1F40E946A1F81FD97C069E3B2
:103C700086EA91E00E94241F0E94F0152FEF81EE4A
:103C800094E0215080409040E1F700C0000069E3DB
:103C900017C08338E1F40E946A1F80FD7FC063E58E
:103CA00086EA91E00E94241F0E94F0152FEF81EE1A
:103CB00094E0215080409040E1F700C0000063E5AF
:103CC00086EA91E00E94171FCF910C94F01584387A
:103CD000B1F40E946A1F82FD61C067E486EA91E048
:103CE0000E94241F0E94F0152FEF81EE94E02150D6
:103CF00080409040E1F700C0000067E4E1CF8CEF26
:103D00008C0F813A80F4E8EAF1E08EEA91E02191AB
:103D1000C217E1F18E179F07D1F76C2F86EA91E069
:103D20000E94241FD1CF80E28C0F883068F4C770C6
:103D300081E090E001C0880FCA95EAF79091B10147
:103D4000892B8093B101C0CFEBE5EC0FE33040F459
:103D5000F0E0ED5BFE4F808190E0CF910C94541F1A
:103D6000E8E5EC0FE73150F4F0E0EE0FFF1FEA5BFF
:103D7000FE4F80819181CF910C943E1FC03F70F027
:103D80008C2F0E945922CF910C9476216C2F86EAB9
:103D900091E00E94171F0E94F015BFCFCF910895A8
:103DA0001F93CF93DF93182F893319F0C0E0D0E031
:103DB00002C0C0E5D0E0812F0E942C1E209741F068
:103DC0008FE99FE00197F1F700C000002197F6CF3F
:103DD000812FDF91CF911F910C94C51D1F920F92DF
:103DE0000FB60F9211248F939F93AF93BF9380913F
:103DF0005D02811113C08091870190918801A0918B
:103E00008901B0918A014196A11DB11D809387015E
:103E100090938801A0938901B0938A01BF91AF91DB
:103E20009F918F910F900FBE0F901F9018959C013E
:103E30002A5F3F4FFC014281461301C01282019666
:103E400082179307B9F708959C01FC0132969FEF02
:103E500080E04191461789F09F3F19F4411101C05C
:103E6000982F8F5F8630A9F79F3F39F0F901E90F4E
:103E7000F11D97FDFA9562830895089520915B02E4
:103E800030915C022817390771F090935C0280939F
:103E90005B02E0915902F0915A02309721F00084C0
:103EA000F185E02D09940895209157023091580230
:103EB0002817390771F09093580280935702E091C8
:103EC0005902F0915A02309721F00680F781E02DD7
:103ED000099408950E948A11882351F0E0915902B3
:103EE000F0915A02309721F00190F081E02D099471
:103EF00080E008950F931F93CF93DF93C42FD22FA9
:103F0000FC0182818823C9F0409356020E94EE0F83
:103F1000909355028093540280E28C0F883008F011
:103F200057C0C77081E001C0880FCA95EAF7DF91DA
:103F3000CF911F910F910C94BB1D80915602481395
:103F400030C080915402909155020E94D30F883C5A
:103F5000910538F510E21D0FCD17B9F080E28C0FF6
:103F6000883040F4C77081E001C0880FCA95EAF735
:103F70000E94B01D183028F581E09D2F977001C078
:103F8000880F9A95EAF70E94BB1D802F0E94D01ED1
:103F90001830F0F4D77081E001C0880FDA95EAF7A5
:103FA0000AC080E28C0F883098F4C77081E001C0AD
:103FB000880FCA95EAF7DF91CF911F910F910C946A
:103FC000B01D802FDF91CF911F910F910C94D01EC7
:103FD000DF91CF911F910F910895CF93DF93C7EA9F
:103FE000D1E060E0CE010E94E2242196C11584E078
:103FF000D807B9F7DF91CF910895CF92DF92EF9272
:10400000FF920F931F93CF93DF93C0E0D0E08E0118
:10401000005A1F4F6E018CE0C80ED11CFE01E45CFB
:10402000FC4FE590F4906F2DCE0187960E94E2241C
:104030006E2DCE0188960E94E2242296CC15DD05D5
:1040400069F70C171D0731F7E80100381140F9F640
:10405000DF91CF911F910F91FF90EF90DF90CF9064
:1040600008950F931F93CF93DF93C42FD0E0CC0F0D
:10407000DD1F2CE0629FC00DD11D112430E6839F0F
:10408000C00DD11D1124CE0187960E94D424082F83
:1040900010E0102F0027CE0188960E94D4249801AA
:1040A000282BC901DF91CF911F910F910895462FC1
:1040B000843038F4783028F4663018F4672F0C9484
:1040C000312080E090E00895CF93C82F811102C085
:1040D0006FEF01C061E283E290E00E94E224C1112F
:1040E00002C06FEF01C060E184E290E00E94E22430
:1040F000C11102C06FEF01C060E185E290E0CF9195
:104100000C94E22480E00E94642060E086E290E06B
:104110000E94E2240E94FD1F0E94ED1F81E00C948A
:10412000642083E290E00E94D424813281F484E20E
:1041300090E00E94D424803151F485E290E00E9406
:10414000D42491E0803109F090E0892F01C080E013
:1041500081700895CF92DF92EF92FF92883048F4F9
:10416000811108C0909180009F77909380002D98D6
:1041700006C087E090918000906890938000282F7F
:1041800030E0AFEFBFEF0E947D2527E030E040E058
:1041900050E00E944E25B42FA32F922F8827492F3D
:1041A0005A2F6B2F7727CA014C3724E1520728F486
:1041B00069E070E00E94262529C0DB01CA018A500F
:1041C000974DAF4FBF4F6627782F892F9A2F25EF36
:1041D00038E241E050E00E944E2569017A01CA01AF
:1041E000B9010E9416259B01AC01C701B6010E94CE
:1041F0001625BB27A92F982F872F009721E0A2070C
:10420000B10511F0BC0102C06FEF7FEF7093890020
:1042100060938800FF90EF90DF90CF900895682F13
:1042200086E090E00C94E224883008F087E09091DA
:1042300053029770282F220F220F220F922B909358
:104240005302987F21E009F420E09091530220FB73
:1042500090F9909353020C94AA200E94142180910B
:1042600053020C940F218091530280FD13C0816092
:1042700080935302813019F489E080935302809136
:1042800053020E940F218091530286958695869550
:104290000C94AA2008950E94701581110AC00E94F2
:1042A0007B158091530284708963809353020E942E
:1042B0000F2186E090E00E94D42480935302282F9F
:1042C00026952695269530E02830310524F0877014
:1042D0008863809353028091530280FF04C08695C7
:1042E0008695869501C080E00C94AA200E94EE0F6E
:1042F00020914F02211104C020915002222321F06D
:1043000090934C0280934B0220915102211104C0E2
:1043100020915202222321F090934A028093490275
:10432000E0915902F0915A02309749F082E080936F
:104330004D020480F581E02D8DE492E0099408950A
:10434000803F39F49091500297FF35C0109250028F
:1043500059C0813F29F4909150021916BCF32BC02B
:1043600090914F02823F29F497FF25C010924F028F
:1043700049C0833F19F41916CCF31DC09091510226
:10438000893F29F41916BCF4109251023BC08A3FB0
:1043900019F497FF10C0F8CF8B3F39F49091520277
:1043A00097FF09C0109252022DC08C3F21F49091CA
:1043B00052021916BCF39CE0980F953080F421E06E
:1043C00030E0A90102C0440F551F9A95E2F7CA01D7
:1043D000809590914E02892380934E0213C08D3FA9
:1043E00021F4809148028E7F0BC08E3F21F4809192
:1043F00048028D7F05C08F3F29F4809148028B7F52
:104400008093480280914F02811106C08091500232
:10441000811102C01092470280915102811106C0A1
:1044200080915202811102C010924602089580913B
:10443000480280FD16C081FD16C082FD18C0809123
:104440004602882391F0883290F428E0829FC001D0
:10445000112468E270E00E943A25862F672B29F02C
:1044600007C082E0089584E0089581E0089588E01F
:1044700008958091480280FD14C081FD14C082FD22
:1044800016C080914702882381F0843180F422E3B2
:10449000829FC001112464E170E00E943A25862FBA
:1044A00008958CE0089589E1089585E0089582E3F8
:1044B0000895803F21F40E943922819504C0813FF4
:1044C00029F40E943922809350020895823F21F4FA
:1044D0000E943922819504C0833F29F40E94392229
:1044E00080934F020895893F19F40E94172205C056
:1044F0008A3F31F40E9417228195809351020895DA
:104500008B3F21F40E941722819504C08C3F29F42F
:104510000E9417228093520208959CE0980F9530D4
:1045200078F421E030E0A90102C0440F551F9A95AC
:10453000E2F7CA0190914E02892B80934E020895B2
:104540008D3F21F48091480281600BC08E3F21F4A1
:1045500080914802826005C08F3F29F48091480213
:1045600084608093480208958EE1489B02C0815088
:10457000E1F7489BFECF0895589880E28A95F1F7BD
:10458000589A0895FC012AE02A95F1F728E090E076
:1045900080E031E040E14A95F1F7880F489B02C086
:1045A0008160932700C0000040E14A95F1F7215057
:1045B00089F720E12A95F1F729B100C0000030E128
:1045C0003A95F1F7217092272081920F90830895F8
:1045D000EF92FF920F931F93CF93DF931F92CDB76C
:1045E000DEB719828C017C01E60EF11C0E151F0549
:1045F00051F00E94B422CE0101960E94C222F8011D
:1046000081938F01F3CF81E09981911180E00F9028
:10461000DF91CF911F910F91FF90EF900895509AE5
:10462000589A08955098589AE89AE9E6F0E08081FF
:104630008C7F80830895615091E001C0990F6A9545
:10464000EAF720E031E0992361F0492F482319F07F
:10465000589A232701C0589840E24A95F1F7969559
:10466000F2CF222311F0589A01C0589880E28A951F
:10467000F1F758980895FF920F931F93CF93DF930C
:10468000EC018C01060F111DC017D10741F0F99004
:104690000E94BC2268E08F2D0E941B23F5CFDF9182
:1046A000CF911F910F91FF9008951F920F920FB617
:1046B0000F921124EF92FF920F931F932F933F932A
:1046C0004F935F936F937F938F939F93AF93BF931A
:1046D000EF93FF93CF93DF931F92CDB7DEB719828D
:1046E0000E94B422CE0101960E94C222A82FA69554
:1046F000A695A6959A2F969595702A2F2570920FBC
:10470000292F237096959695920F877089137CC0F8
:104710008981811179C0A53008F076C080E18A9541
:10472000F1F7589A509AB2E0BA95F1F700C058984C
:10473000EA2EF12CEAE0AE9FD0011124AF5FBE4F0C
:104740001896ED91FC9119973097B1F06091740132
:104750007091750116962D913C911797260F371F72
:1047600013968D919C911497680F791F15964C9113
:10477000159712968C9109958AE08E9DF0018F9D78
:10478000F00D1124EF5FFE4F6581662351F080919B
:1047900074019091750126813781820F931F0E94C9
:1047A0003B230E94BC22F0E1FA95F1F7589850980B
:1047B000589A80E18A95F1F78AE08E9D80018F9D5D
:1047C000100D11240F5F1E4FD80112966C91129795
:1047D000662399F0809174019091750113962D9143
:1047E0003C911497820F931F0E94E822D801ED910B
:1047F000FC91811105C082E004C0D801ED91FC91CB
:1048000088E080830E94B4220F90DF91CF91FF91C6
:10481000EF91BF91AF919F918F917F916F915F9138
:104820004F913F912F911F910F91FF90EF900F901B
:104830000FBE0F901F9018950F931F93CF93DF9388
:10484000853091050CF0A9C02AE0289FF001299F2E
:10485000F00D1124EF5FFE4F20813181232B09F4ED
:104860009CC0EC01F894509A589885E08A95F1F72D
:1048700000008C2F869585709C2F9570890F982F3E
:104880009370869586958E0123E0000F111F2A955F
:10489000E1F7890F082B0E94BC22A4E0AA95F1F74A
:1048A00000C068E0802F0E941B23B0E1BA95F1F7A9
:1048B0005098589A489902C000C0FCCF87E090E019
:1048C000489B17C0019799F4509A589A8AE08C9F98
:1048D000F0018D9FF00D1124EF5FFE4F0190F081EC
:1048E000E02D81E08083789481E090E058C000C0A2
:1048F000E7CF8AE08C9F80018D9F100D11240F5F00
:104900001E4FF80165816623B9F080917401909182
:10491000750126813781820F931F0E94E822811141
:104920000BC0509A589AD801ED91FC9182E0808397
:10493000789482E090E033C00E94B422B0E2BA954D
:10494000F1F75898509AE0E1EA95F1F78AE08C9FE8
:10495000F0018D9FF00D1124EF5FFE4F6281662301
:1049600051F0809174019091750123813481820FFF
:10497000931F0E943B230E94BC228AE08C9FF0017F
:104980008D9FF00D1124EF5FFE4F0190F081E02D1F
:104990001082789480E090E002C084E090E0DF91A3
:1049A000CF911F910F910895F999FECF92BD81BDCE
:1049B000F89A992780B50895A8E1B0E042E050E068
:1049C0000C940825262FF999FECF92BD81BDF89A47
:1049D000019700B4021639F01FBA20BD0FB6F89443
:1049E000FA9AF99A0FBE08950396272F0E94E3249E
:1049F0000E94E224252F0E94E324242F0C94E32418
:104A00000196272F0E94E3240C94E224DC01CB01C1
:104A1000FC01F999FECF06C0F2BDE1BDF89A3196CE
:104A200000B40D9241505040B8F70895DB018F93C8
:104A30009F930E948C25BF91AF91A29F800D911DE5
:104A4000A39F900DB29F900D11240895AA1BBB1B2C
:104A500051E107C0AA1FBB1FA617B70710F0A61B7E
:104A6000B70B881F991F5A95A9F780959095BC019F
:104A7000CD01089597FB072E16F4009407D077FD1B
:104A800009D00E94262507FC05D03EF4909581951B
:104A90009F4F0895709561957F4F0895A1E21A2E5A
:104AA000AA1BBB1BFD010DC0AA1FBB1FEE1FFF1FD2
:104AB000A217B307E407F50720F0A21BB30BE40B22
:104AC000F50B661F771F881F991F1A9469F7609569
:104AD0007095809590959B01AC01BD01CF01089523
:104AE000EE0FFF1F0590F491E02D0994692796279A
:104AF00069277827872778270895A29FB001B39F59
:104B0000C001A39F700D811D1124911DB29F700DD6
:104B1000811D1124911D08950E947D25A59F900D52
:104B2000B49F900DA49F800D911D11240895FB0149
:104B3000DC0104C08D910190801921F44150504056
:104B4000C8F7881B990B0895FB01DC0102C0019096
:0E4B50000D9241505040D8F70895F894FFCFD1
:104B5E0001AE010000000100000000AE01000000E7
:104B6E000401000000AE010405000000000000AECC
:104B7E0001010900000000000001300A700F510F02
:104B8E004D0F490F40227B67024502CA01B902D27E
:104B9E0002F202818283E200E900EA00B500B6006B
:104BAE00B700CD008301CC008A019201940121024D
:104BBE00230224022502260227022A02B300B40091
:104BCE006F007000CA019497C63400000000F6F71B
:044BDE003133323607
:00000001FF
