:100000000C9463030C94AA030C94AA030C94AA0303
:100010000C94AA030C94AA030C94AA030C94AA03AC
:100020000C94AA030C94AA030C9412270C94C725D1
:100030000C94B6280C94AA030C94AA030C94AA035B
:100040000C94AA030C94AA030C94AA030C94AA037C
:100050000C94AA030C9469280C94AA030C94AA0388
:100060000C94AA030C94AA030C94AA030C94AA035C
:100070000C94AA030C94AA030C94AA030C94AA034C
:100080000C94AA030C94AA030C94AA030C94AA033C
:100090000C94AA030C94AA030C94AA030C94AA032C
:1000A0000C94AA030C94AA030C94AA03CB07CE07C2
:1000B000ED07FA0701082108BF08BF08BF08BF08FD
:1000C000BF08240826082B085108740877087A0806
:1000D0009E0822092D096009A509E609300A7B0A54
:1000E0007E0A830A860A8B0A8E0A930A960A990A5E
:1000F0009C0A9F0AA20AA50AA80AAB0AAE0AB10A7C
:10010000B60AFC0A420B8E0B910B940B970B9C0BBF
:10011000A70BAA0BB50BB80BC30BC60BD10BD40B9B
:10012000DF0BD710D710121112116C118A11941213
:100130009412951109121A121A125B23822329258F
:1001400082232925CE23F1232925E624F624082A13
:10015000082A1B2A1B2A112A1B2A1B2A1B2A082AA7
:10016000082A162A1B2A1B2A162A00000000000053
:10017000000000000000000000000000000000007F
:1001800000000000000000000000000000007E0FE2
:1001900000D4FFFFFFC7000000780000000000004F
:1001A00000002A2B280000000000000000000000D2
:1001B000000000000029000000002C1E3420212235
:1001C00024342627252E362D3738271E1F2021229E
:1001D000232425263333362E37381F040506070817
:1001E000090A0B0C0D0E0F10111213141516171807
:1001F000191A1B1C1D2F3130232D35040506070845
:10020000090A0B0C0D0E0F101112131415161718E6
:10021000191A1B1C1D2F3130354C00010101010141
:1002200001010101020202020202020202030303AF
:10023000030303030304040404040404050505057F
:10024000050606060606070707070708080808093F
:100250000909090A0A0A0B0B0B0C0C0C0D0D0D0EEB
:100260000E0E0F0F0F101011111112121313141480
:10027000151516161717181819191A1A1B1B1C1DF5
:100280001D1E1E1F2020212222232424252626274E
:100290002829292A2B2C2D2D2E2F30313232333480
:1002A00035363738393A3B3C3D3E3F404142434486
:1002B00045464748494A4C4D4E4F50515354555668
:1002C00058595A5B5D5E5F616264656668696B6C14
:1002D0006D6F7072737577787A7B7D7E808283858F
:1002E00087888A8C8E8F91939596989A9C9EA0A2CF
:1002F000A3A5A7A9ABADAFB1B3B5B7BABCBEC0C2D9
:10030000C4C6C9CBCDCFD1D4D6D8DBDDDFE2E4E79C
:10031000E9EBEEF0F3F5F8FAFDFF29001E001F00EF
:1003200020002100220023002400250026002700B1
:100330002D002E002A002B0014001A0008001500C2
:1003400017001C0018000C00120013002F003000D2
:1003500031003900000004001600070009000A00FF
:100360000B000D000E000F003300340028000000C9
:10037000E1001D001B00060019000500110010001F
:1003800036003700E50052003800E000E300E200EC
:100390000000000000002C0000000000E6000151F9
:1003A000500051004F00005C3A003B003C003D0013
:1003B0003E003F0040004100420043004400450031
:1003C00001000100C25CC35CC55CC65CC75CC85C64
:1003D000C95CCA5C010001000100010001000100CC
:1003E0000000010001000100010001000100010006
:1003F00001000100010001000100000001000100F6
:1004000001000100010001000100010001000100E4
:1004100001000100010001000100010000000000D6
:1004200000000100000000000100010001000100C7
:1004300001000100010001000100010001000100B4
:1004400001000100010001000100010001000100A4
:100450000100010001000100010001000100010094
:100460000100010001000100010001000000010085
:100470000100010001000100010001000100010074
:100480000100010001000000010001000100010065
:100490000100010001000100010001000100010054
:1004A0000100010001000100000000000000010047
:1004B0000000000001000100010001000100010036
:1004C0000100010001000100010001000100010024
:1004D0000100010001000100010001000100010014
:1004E0000100010001000100010001000100010004
:1004F00001000100010001000000010001000100F5
:1005000001000100010001000100010001000100E3
:1005100001000000010001000100010001000100D4
:1005200001000100010001000100010001000100C3
:1005300001000100000000000000010000000000B8
:100540000100010001000100010005010902A101F3
:1005500085020901A10005091901290815002501D5
:100560009508750181020501093009311581257F42
:1005700095027508810609381581257F9501750852
:100580008106050C0A38021581257F9501750881C1
:1005900006C0C005010980A101850319012AB70021
:1005A000150126B700950175108100C0050C0901E1
:1005B000A101850419012AA002150126A0029501B6
:1005C00075108100C00660FF0961A1010962150074
:1005D00026FF009520750881020963150026FF009B
:1005E000952075089102C005010906A101050719AA
:1005F000E029E7150025019508750181029501752F
:100600000881010507190029FF150026FF0095063E
:1006100075088100050819012905950575019102E4
:10062000950175039101C009025B00030100A0FA66
:100630000904000001030101000921110100012248
:1006400040000705810308000A09040100020300B5
:100650000000092111010001222200070582032068
:100660000001070503032000010904020001030043
:100670000000092111010001227B000705840320ED
:10068000000A1201000200000008504B8CEF01002C
:1006900001020001120342004D003600300020002C
:1006A000520047004200000018034B005000200099
:1006B000520065007000750062006C006900630004
:1006C00000000403090411241FBECFEFDAE0DEBFEF
:1006D000CDBF04B603FE27C08091770490917804C3
:1006E000A0917904B0917A048730904BA740B04B29
:1006F000D1F4109277041092780410927904109239
:100700007A0414BE84B7877F84BF0FB6F894A89587
:1007100080916000886180936000109260000FBE3D
:10072000E0E0F8E3099512E0A0E0B1E0EEE2FBE5DD
:1007300002C005900D92A838B107D9F724E0A8E8C7
:10074000B2E001C01D92A737B207E1F70E94AC03E7
:100750000C94952D0C940000CF93DF93CDB7DEB7AA
:10076000AB970FB6F894DEBF0FBECDBF84B7877FBF
:1007700084BF0FB6F894A89580916000886180933B
:100780006000109260000FBE90E080E80FB6F89411
:1007900080936100909361000FBE85B7806885BF2C
:1007A00085B7806885BF8AE599E190938902809337
:1007B00088020E940B260E94B1268091E20084608C
:1007C0008093E2007894809101048823A1F0109135
:1007D000E9001F709091EC00892F817090FD80E8F6
:1007E000182B1092E9008091E80083FD0E94752289
:1007F0001F701093E90082E084BD93E095BD9AEFED
:1008000097BD80936E000E947917811102C00E94EB
:100810006A1708E111E06DE1E62E61E0F62ED801DD
:100820008D918D018F3F11F00E949F19E016F10606
:10083000B1F70DE111E05BE2E52E51E0F52EF80194
:1008400081918F018F3F11F00E949F19E016F106F0
:10085000B1F7ECE8F2E086E992E0AFECB2E0119299
:1008600011921D921D928E179F07C9F70E944F1C6F
:10087000811102C00E945A1C82E090E00E94A52CC7
:100880008093C4020E943E1C90938B0280938A0244
:100890000E94B619FFEF26E731E0F15020403040CA
:1008A000E1F700C000000E94B6198091CF0280FFDE
:1008B00008C06FEF7FEF80E090E00E94E12C0E9483
:1008C000452883E090E00E94A52C0E94EF29109219
:1008D0000F04E8E2F4E088E394E02FEF3FEF219388
:1008E00031938E179F07D9F710929602EFEAF2E044
:1008F0008FEF9FEF8193919342E0EF3BF407D1F7A5
:100900000E944F1C811104C00E945A1C0E949C1717
:1009100046E050E06CE170E089E394E00E94952CA1
:10092000809139048C7F11F40E949C1784E091E03F
:1009300090934304809342048E010F5F1F4F3E014A
:100940005BE0650E711C80910104853009F048C0A0
:1009500030E1E32E42E1F42E80910104853009F06C
:100960003BC080910104843021F11092460488E15B
:1009700090E0A0E40FB6F894A895809360000FBEB5
:10098000A093600083B7817F846083BF83B7816059
:1009900083BF7894889583B78E7F83BF0FB6F89412
:1009A000A89580916000886180936000109260003B
:1009B0000FBE80910004882309F4CECF0E94B6199F
:1009C000EFECF2E081919191892B09F002C4B2E041
:1009D000E93DFB07B9F7C0CF0E941F2A0E942529D5
:1009E0000E94B61981110E949E28A5ECB2E0EFEC9E
:1009F000F2E0E12CF12C4E2D819091908D919D9102
:100A000088259925009709F4B0C0D12CAA24A39475
:100A1000B12C9C012A213B21232B09F4A0C0D9A28F
:100A20004AA38A209B2081E08114910409F480E08C
:100A30008BA30E94AA288160782F9DA38CA349A133
:100A40005AA16BA18DA10E94F70BF701EE0FFF1FBA
:100A5000EB53FD4F80819181A826B926B182A082F7
:100A6000892889F08EE08E9DF0018F9DF00D112474
:100A7000ED58FE4FED0DF11D80818F3F21F08BA7CA
:100A8000DD24D39401C0D12CED2CF12C8091960261
:100A9000F701E80FF11D3997ACF1E8E0AE2EB12C6B
:100AA000AE18BF08B7016F5F7F4F6A567D4FA50133
:100AB00087E992E00E948C2DB701675F7F4F6A56ED
:100AC0007D4FA5018FE992E00E948C2DA501440F76
:100AD000551FB701660F771F675E7F4F6A567D4FC0
:100AE0008FEA92E00E948C2DB7016F5E7F4F6A56AD
:100AF0007D4FA50187EA92E00E948C2D88E08D1938
:100B0000809396028091960290E0FBA5AF2FB0E013
:100B10009D01220F331F27543E4FAA0FBB1FBD015B
:100B200066547E4F41E0480F9D15B0F490E0FC0103
:100B3000EA56FD4FD9015C915183DB015C915187ED
:100B4000BBA5B18B880F991FFC01EA56FD4F128E91
:100B5000118E91E0842FE6CF809396021EC0D3942D
:100B6000AA0CBB1C2EE0D21254CF3FEFE31AF30ABB
:100B700045E0E416F10409F03ECF8FEF8EA38FA37A
:100B800018A60E94AA288160782F9AA789A74EA14B
:100B90005FA168A58AA50E94F70B8091BF02909182
:100BA000C002A091C102B091C2022FB7F894809008
:100BB000470490904804A0904904B0904A042FBF85
:100BC000881A990AAA0ABB0A0E949E286093BF024B
:100BD0007093C0028093C1029093C202A0919602CA
:100BE000E6E9F2E02A2F30E0CC24CA94DC2CE12C98
:100BF000F12CC818D908EA08FB08A31799F0418D11
:100C0000528D1A01412C512CC214D304E404F50472
:100C100010F4215004C0480D591D528F418F3F5F81
:100C20003296EBCF2093960230913904232F237014
:100C300021F0D32ED694D69401C0D12C209114014A
:100C40002130E1F030F02230E9F1233009F446C0E0
:100C500070C01092110160930B0470930C04809388
:100C60000D0490930E0489E2E6E9F2E0AFE0B4E00F
:100C700001900D928A95E1F781E02DC090910F01CE
:100C8000D9120DC0832F837090E040910E0150E087
:100C900021E08417950709F420E0822F01C081E04C
:100CA00081708093130180913E04909112019817F6
:100CB00009F4AEC28093120140E060E080E00E943F
:100CC0009817A6C2D0920F01832F837080930E01D4
:100CD0000E94E71583E0809314012BC080913804B3
:100CE000882341F046E050E06CE170E089E394E055
:100CF0000E94B32C1092380440910B0450910C04C4
:100D000060910D0470910E042FB7F8948091470400
:100D100090914804A0914904B0914A042FBF841BCC
:100D2000950BA60BB70B4097A105B10510F01092DB
:100D3000140186E0E1E7F4E0D80101900D928A9574
:100D4000E1F7F0907304B0907404E0907504D090D3
:100D50007604109273041092740410927504109229
:100D60007604F11003C0BB2009F451C080916F04D8
:100D7000909170040E948F289C0190916B0499239C
:100D800009F42BC52333310508F441C09F3F19F006
:100D90009F5F90936B04FF2061F00E94BE2B1F1495
:100DA00014F491E001C09FEF899F802D112480935E
:100DB0007304BB2061F00E94BE2B1B1414F491E05D
:100DC00001C09FEF899F802D11248093740430917E
:100DD00073043323E1F0209174042223C1F055EB16
:100DE0003503C0011124992319F09093730403C0B3
:100DF00081E08093730435EB2303C0011124992310
:100E000019F09093740403C081E080937404E1109E
:100E100003C0DD2009F451C080916D0490916E04EF
:100E20000E948F289C0190916A04992309F4DAC4E6
:100E30002536310508F441C09F3F19F09F5F90931C
:100E40006A04EE2061F00E949C2B1E1414F491E0C1
:100E500001C09FEF899F802D112480937504DD20B0
:100E600061F00E949C2B1D1414F491E001C09FEFCF
:100E7000899F802D1124809376043091750433234B
:100E8000E1F0209176042223C1F045EB3403C00148
:100E90001124992319F09093750403C081E0809385
:100EA000750455EB2503C0011124992319F0909383
:100EB000760403C081E080937604809173048111ED
:100EC0000BC080917404811107C080917504811159
:100ED00003C08091760481110E94FB2AFB82BC82B0
:100EE000ED82DE8286E0F801A1E7B4E001900D9288
:100EF0008A95E1F70E9425299091C302891721F074
:100F00000E9425298093C30280910104843009F056
:100F10001ACD83E08093E9008091E80082FF13CD31
:100F20008091E80085FF21C00E942A2681111BC004
:100F300080E2E82EF12C580109C08091F100D50122
:100F40008D935D01B1E0EB1AF10869F08091E80042
:100F500085FDF3CF8091E8008B778093E8000E94B5
:100F60002A26882399F391E001C090E08091E8005F
:100F70008B778093E800992309F4E5CCE9818E2FE3
:100F800090E0FC013197E331F10508F0F8C0EA5A2E
:100F9000FF4F0C94722D1A8289E05BC08A818230E7
:100FA00009F42DC1833051F0813009F0E8C00E946E
:100FB0009E289B838C837D836E83E3C0F801AFEC16
:100FC000B2E08C9111969C91119712969283838333
:100FD00032966E167F06A9F7D4C08A81823009F056
:100FE000CEC06B817C818D819E810E94782D86E2AE
:100FF00090E024C04C816B818A810E9419179D83E7
:1010000005C1AD80BE80BA24AB24BA248C81EB80AC
:101010009A81ECE1EE9E70011124FCE89F9FE00CA8
:10102000F11C1124E80EF11CE80EF11C6B2DC70118
:1010300087960E94C32C6A2DC70188960E94C32CF4
:10104000A0C00E94E5169DC080E152C081E08A8365
:1010500089EA8B8396C0EA80FB80FE24EF24FE247D
:101060008C80912C5801C701895A9D4F9501201BF6
:10107000310B2815390508F084C029EAE21621E071
:10108000F20630F40E94A52CD50114968C9302C070
:10109000F5011482FFEFEF1AFF0A2FEFA21AB20A2E
:1010A000E2CFEA80FB80FE24EF24FE248C80912C8A
:1010B0005801C701895A9D4F9501201B310B2815F6
:1010C000390508F05EC039EAE31631E0F30628F48A
:1010D000D50114966C910E94C32CBFEFEB1AFB0A4A
:1010E000EFEFAE1ABE0AE5CF0E94D5164AC084E0E3
:1010F0008A8347C0EA80FB80FE24EF24FE248C8094
:10110000912C5801C70187969501201B310B28159A
:101110003905B8F5F0E3EF16F2E0FF0630F40E946F
:10112000A52CD50114968C9302C0F5011482FFEF13
:10113000EF1AFF0A2FEFA21AB20AE4CFEA80FB806F
:10114000FE24EF24FE248C80912C5801C701879641
:101150009501201B310B2815390598F430E3E3166F
:1011600032E0F30628F4D50114966C910E94C32C4A
:10117000BFEFEB1AFB0AEFEFAE1ABE0AE7CF8FEF15
:10118000898380910104843009F0DDCB8091E900EE
:101190008F702091EC00922F917020FD90E8F92E35
:1011A000F82A82E08093E9008091E80080FF0CC07B
:1011B00040E050E060E270E0C8010E943822809177
:1011C000E8008E778093E8008F2D8F708093E90080
:1011D000BACBE9BCF9BC09B400FEFDCF8091D800C0
:1011E0008F7D8093D8008091E00082608093E00042
:1011F0008091E00081FDFCCF0E941F2AADCB86E2EA
:1012000090E00E94A52C1B821C821D828E83B9CF88
:101210008D2D90E08832910580F0809111018F5FD3
:101220008093110182E08093140180911301811158
:1012300080CDDD2009F44ECD7CCDFC01E759FF4F78
:101240000C94722D80911301882329F040E060E016
:1012500080E00E94981780E0B7C2F09011018EE004
:10126000F89EF02C1124AEE0EA2EEF0C55E45E154A
:1012700010F4F5E4EF2E60913A0470913B048091F4
:101280003C040E945D18B62EA72E982EFE1490F4F2
:10129000EF2DF0E0DF01AD5BBD4F8C91909112011D
:1012A000982331F0292D4B2D6A2DCF010E949A17DA
:1012B000F394ECCF81E094E49E1508F085C2CBCF87
:1012C000F09011018EE0F89EF02C1124EEE0EE2E4D
:1012D000EF0CA5E4AE1510F475E4E72EA0903B04E6
:1012E000B0903C0490903A04692D7A2D8B2D0E9489
:1012F0005D18862E572E482E60913D04690D7A2D7B
:101300008B2D0E945D18B62EA72E982EFE14B8F4D1
:101310008F2D90E0FC01ED5BFD4F3081209112019B
:10132000232359F030FF04C0292D4B2D6A2D03C013
:10133000242D482D652D0E949A17F394E7CF81E064
:10134000B4E4BE1508F040C286CFB09011018EE023
:10135000B89EB02C11246EE0A62EAB0CE5E4EA1585
:1013600010F455E4A52E80903B0450903C0420914D
:101370003D0440E4942E392D329F312D1124932EBB
:10138000BA1408F067C0EB2CF12CF701ED5BFD4FB0
:101390009081809112018923B9F0F701EE0FFF1FB0
:1013A000E654FE4F808182958F7060913A04899D4A
:1013B000600D1124782D852D0E945D18462F282F51
:1013C000672FC7010E949A17B394DACFB09011012A
:1013D0008EE0B89EB02C11242EE0A22EAB0C55E46A
:1013E0005A1510F495E4A92E80903B0450903C04CB
:1013F00020913D0480E4982E392D329F312D112407
:10140000932EBA1438F5EB2CF12CF701ED5BFD4F60
:101410009081809112018923D9F0F701EE0FFF1F0F
:10142000E754FE4F6081969EB0011124B5E075959A
:101430006795BA95E1F780913A04680F782D852D6C
:101440000E945D18462F282F672FC7010E949A1708
:10145000B394D7CF81E044E44A1508F0B5C1FBCE80
:10146000F09011018EE0F89EF02C1124EEE0EE2EAB
:10147000EF0C55E45E1510F475E4E72EA0903A04E5
:10148000B0903B0490903C0460913D046695669555
:10149000669580910B0490910C040E9453180E9451
:1014A000B417805887FD8195880F282F392D239FE9
:1014B000212D1124822FB5010E945D18B62EA72E72
:1014C000982EFE1490F4EF2DF0E0DF01AD5BBD4FE0
:1014D0008C9190911201982331F0292D4B2D6A2D7A
:1014E000CF010E949A17F394ECCF81E044E44E15AB
:1014F00008F06AC1B0CE80EF94E102C084EC94E1C0
:101500000E94B12061C189EC95E102C08AEA95E1AF
:101510000E94DC2159C18FE895E102C083E795E183
:101520000E94602151C182EC94E1EACF89EB94E101
:10153000E7CF80EB94E1E4CF85E994E1E1CF86E861
:1015400094E1EECF8AE298E1E3CF82E695E1E0CF45
:101550008EE495E1E5CF88E594E105C086E294E16B
:1015600002C088EE93E10E94FF202EC180911301FA
:1015700081111EC060913D0420E1620F08F46FEFFD
:1015800080910B0490910C040E9453186AE070E063
:101590000E944A2D892B09F05ECE0E94852C65E4BD
:1015A00070E00E945E2D609112010E94ED1853CEF2
:1015B000809111019EE0899F802D11246EE0962E6E
:1015C000980E55E4591510F455E4952EE82EF12C9B
:1015D000A92CB12CEA14FB044CF460911201C70150
:1015E0000E94ED188FEFE81AF80AF4CF81E094E436
:1015F000991508F0E9C02FCE8091130181111EC00A
:1016000060913D0420E1620F08F46FEF80910B04BC
:1016100090910C040E94531865E070E00E944A2DDE
:10162000892B09F018CE0E94852C65E470E00E9499
:101630005E2D609112010E9433190DCE809111012F
:101640009EE0899F802D11244EE0942E980EA5E4F3
:10165000A91510F435E4932EE82EF12CA92CB12C09
:10166000EA14FB044CF460911201C7010E94331983
:10167000BFEFEB1AFB0AF4CF81E0E4E4E91508F0D0
:10168000A3C0E9CDF09011018EE0F89EF02C11245A
:101690002EE0E22EEF0CF5E4FE1510F495E4E92EB1
:1016A000A0903B04B0903C0490903A0460913D04BB
:1016B00066956695669580910B0490910C040E9446
:1016C00053180E94B417805887FD8195880F682FA2
:1016D0002CE0629F612D1124690D7A2D8B2D0E94C3
:1016E0005D18B62EA72E982EFE1490F4EF2DF0E084
:1016F000DF01AD5BBD4F8C9190911201982331F0C9
:10170000292D4B2D6A2DCF010E949A17F394ECCF0F
:1017100081E024E42E1508F057C09DCD85ED97E1BA
:10172000EFCE87ED93E1ECCE80ED93E102C08AEC41
:1017300093E10E943C2048C080910F0421E0382FA3
:10174000321B08F430E0832F61EB73E13BC061EBA7
:1017500073E137C080910F0421E0482F421B08F449
:1017600040E0842F69E773E12DC069E773E129C088
:1017700080910F0421E0582F521B08F450E0852F70
:1017800067E473E11FC067E473E11BC080910F043D
:1017900021E0382F321B08F430E0832F6FE273E131
:1017A00011C06FE273E10DC080910F0421E0482F5A
:1017B000421B08F440E0842F69E173E103C069E152
:1017C00073E180E00E94741F909111019F5F9093DC
:1017D0001101882309F426CDACCA2D32314008F01E
:1017E000D7CA15CB2D32314008F028CB66CB1F93DA
:1017F000CF93DF93CDB7DEB767970FB6F894DEBF10
:101800000FBECDBF4B8B5C8B6D8B7E8B8F8B611135
:101810001092EE0386E09E01235F3F4FD901E82F2F
:101820001D92EA95E9F795E0FE017396D9010190C2
:101830000D929A95E1F79C894E895F897B897D8716
:101840009E876F87598B488BF901DE0117960190AF
:101850000D928A95E1F7CE0107960E94B11D811184
:101860003EC086E0FE013796DE01119601900D9292
:101870008A95E1F7FF81E8856A857B8561157105A9
:1018800031F0EF3F31F481E0FF3F19F403C081E014
:1018900001C080E080FD23C02091BA0330E0C9017F
:1018A0000196877099274091EB0350E084179507C4
:1018B00079F1F983EA837D836C8396E0929FD0016E
:1018C000939FB00D1124A554BC4FFE013196019099
:1018D0000D929A95E1F78093BA030E942E1D16E0AF
:1018E0008091EB039091BA038917F9F0189FC0011A
:1018F000112485549C4F0E94B11D8823B1F0809122
:10190000EB0390E00196877099278093EB03E8CF73
:101910000E941F2A1092BA031092EB03E4EBF3E04B
:1019200086E0DF011D928A95E9F767960FB6F89475
:10193000DEBF0FBECDBFDF91CF911F9108953F92C3
:101940004F925F926F927F928F929F92AF92BF92CF
:10195000CF92DF92EF92FF920F931F93CF93DF937B
:10196000CDB7DEB729970FB6F894DEBF0FBECDBF57
:10197000FC018081918123813481232B31F09F3FB1
:1019800031F491E08F3F19F403C091E001C090E081
:1019900090FD07C67F0185E0DE01119601900D9252
:1019A0008A95E1F7F701228189819A81222349F002
:1019B0000E944E29182F682F89819A810E94A92997
:1019C00003C00E947D29182F69817A81812F0E948E
:1019D0003F178C01F7018281882309F4F2C0980136
:1019E00022513F452031310508F019C18FEF93E0B6
:1019F0000E94A52C8111EFC0025137E5832E32E001
:101A0000932E002379F08114F4E09F0609F4E3C0DB
:101A1000C4010E94A52C811101C001502FEF821A30
:101A2000920AEFCF1E821F8218861986442443949F
:101A30002AE0322E84010F5F1F4FC4010E94A52CA3
:101A40008E831F82882309F4C6C09FEF980F9330BE
:101A500060F48F834E8232E0830E911CC8010E9495
:101A6000A52C8887811102C0B6C048018E010A5F8B
:101A70001F4FF80120812223E9F2213009F04CC0E8
:101A80008181813049F46801F2E0CF0ED11CF80168
:101A900082810E94DD2A0AC0823051F46801F2E09E
:101AA000CF0ED11CF80182810E947E2A860186C059
:101AB000833049F46801F2E0CF0ED11CF801828135
:101AC0000E943F2AF3CF843019F00F5F1F4F76C07A
:101AD000F80122810E5F1F4F80E090E030E020533C
:101AE00031092A30310568F4389EA001399E500D25
:101AF0001124C901840F951F0F5F1F4FF80120812A
:101B0000EDCF009709F45AC0EFE9FFE03197F1F704
:101B100000C000000197F5CFE22FF0E0E656FE4F3F
:101B20005490822F86958695869590E0FC01E65725
:101B3000FE4F64902770712C022E02C0759467943A
:101B40000A94E2F7F1E06F227724FC01E658FE4F99
:101B5000A490B12C022E02C0B594A7940A94E2F787
:101B600031E0A322BB24FC01E659FE4FC490D12CE6
:101B700002C0D594C7942A95E2F781E0C822DD24FB
:101B80006114710419F081EE0E947E2AA114B1043F
:101B900019F086EE0E947E2A852D0E94DD2AAB2850
:101BA00019F086EE0E943F2A672819F081EE0E9404
:101BB0003F2ACD2819F08CE20E94DD2A0F5F1F4FCB
:101BC00058CF00313FE5130709F0E2C481E00E94DD
:101BD000D8290E94521F8091EC03877009F4E1C458
:101BE000F7018281882309F4DCC482E029960FB6CC
:101BF000F894DEBF0FBECDBFDF91CF911F910F9143
:101C0000FF90EF90DF90CF90BF90AF909F908F901C
:101C10007F906F905F904F903F900C94111D00311A
:101C2000FFE51F0711F481E005C001312FE5120720
:101C300021F482E00E94E429CCCF033FFCE51F079A
:101C400049F406E221EE40EE63EF7CE5C7010E9415
:101C50006216C1CF043F2CE5120708F049C1083DC8
:101C60003CE5130731F407E225EE45EE68ED7CE52F
:101C7000EDCF093D9CE5190731F408E221E045EE7E
:101C800069ED7CE5E3CF073DECE51E0731F406E2A4
:101C900021EE41EE67ED7CE5D9CF882309F45DC1E3
:101CA0001092AB0302309CE5190708F440C10631DD
:101CB000ECE51E0730F0C8018A5F9C45099708F0E3
:101CC00036C10E943E1C90938B0280938A020031A1
:101CD000FCE51F0709F4C3C008F041C008303CE52B
:101CE000130709F49AC0F0F404309CE5190709F4CD
:101CF00087C068F40230FCE51F0709F477C00330A1
:101D00001C4509F0E5C080918A02826076C00630E9
:101D10003CE5130709F46EC008F07BC080918A028D
:101D200088606BC00C309CE5190709F485C068F425
:101D30000A30FCE51F0709F474C008F079C00E945E
:101D40001F2A80918A02806858C00E303CE5130734
:101D500009F476C008F07FC080918A028BC00B3FE7
:101D60009CE5190709F44FC018F50331FCE51F077E
:101D700009F47DC078F401313CE5130709F473C020
:101D800002311C4509F0A4C00E941F2A80918A02DA
:101D90008F7733C005319CE5190709F472C008F448
:101DA00086C00A3F1C4509F093C080918B023EC05B
:101DB0000F3F2CE5120709F45FC058F40D3F8CE586
:101DC000180709F444C008F43FC080918B02826078
:101DD0002DC00130EDE51E0709F475C008F45DC0A3
:101DE00002301D4509F074C060E06EC080918A0227
:101DF000816003C080918A02806180938A0268C0FA
:101E000080918A0211C080918B02826080938B0244
:101E10005FC080918A028062F0CF80918A028064E4
:101E2000ECCF80918A0288608460E7CF8160EECF3A
:101E300080918A028E7FE1CF80918A028D7FDDCFF3
:101E400080918A02877FD9CF80918B0218C08091C0
:101E50008B028D7FDBCF80918A028F7ECECF8091E7
:101E60008A028F7DCACF80918A028F7BC6CF8091F4
:101E70008A02877F8B7FC1CF80918B028D7F8E7F7F
:101E8000C5CF80918A0282FB222720F991E0922718
:101E900090FB82F990FB83F9B0CF80918B02982F51
:101EA000909591708E7F892B90FB81F9AFCF0E9426
:101EB0001F2A80918A0287FB222720F991E092272E
:101EC00090FB87F99ACF61E08EE090E00E94C32CEE
:101ED00060918A0210918B0284E090E00E94C32CF2
:101EE000612F82E290E00E94C32C0E941F2A73CED1
:101EF000053FFCE51F0731F406E221EE42EE65EFF7
:101F00007CE5A4CE053F2CE5120730F407E225EE70
:101F100044EE64EF7CE59ACE063F3CE5130709F0FA
:101F2000BCCE07E225EE46EE66EF7CE58FCE8091D3
:101F3000EF0306319CE5190741F58A7A91E009F42F
:101F400090E09093D902882311F065E301C069E223
:101F50008CEA93E00E94DF2815C006311C4509F089
:101F6000DDC08091D902882309F419C385E3ECEA26
:101F7000F3E09281891301C01282319633E0E23B93
:101F8000F307B9F70E94CA1C26CE82720A3C9CE570
:101F9000190709F47BC098F5053CFCE51F0709F417
:101FA00061C0B8F4033C3CE5130709F451C008F0E4
:101FB00054C0023CECE51E0709F07FC08091390453
:101FC00091E089278093390410921401909338048A
:101FD00002CE073CFCE51F0709F44EC008F447C0D9
:101FE000083C3CE5130709F44CC0093C9CE5190783
:101FF00009F063C04DE056E169E176E155C00F3C60
:10200000ECE51E0709F455C098F40C3C2CE51207CA
:1020100009F446C008F43FC00D3C8CE5180709F4EC
:1020200046C00E3C9CE5190709F047C085E042C058
:10203000063DECE51E0730F4013D1C4508F0CBCD14
:1020400082E138C00D352DE5120709F4C4CD35C045
:102050004FE456E168E576E127C048E556E16FE4D4
:1020600076E122C04DE356E166E476E11DC046E428
:1020700056E16DE376E118C045E256E161E376E1B1
:1020800013C041E356E165E276E10EC049E156E155
:102090006DE076E109C041E053E16DE073E104C019
:1020A0004DE053E161E073E10E94921794CD81E02D
:1020B00001C08DE00E945D1F8ECD0A353DE51307FE
:1020C00041F150F401159CE51907A9F00E3D1C459E
:1020D00029F50E945A1C7FCD0B35FDE51F07D9F06D
:1020E0000C351D45D9F480918B0282FB882780F93D
:1020F00091E0892711C00E941F2A3FEF84E39CE0F2
:10210000315080409040E1F700C000000E94452817
:1021100062CD81E001C080E00E94F71CF70182815E
:1021200000811181882349F0C8010E944E29D82ED0
:10213000682FC8010E94A92904C0C8010E947D29F6
:10214000D82EB8018D2D0E943F170E94A41AB82ED8
:10215000192F982EF7010281A580A2949FE0A92251
:102160008091EC03877099F0002389F0812F807FA4
:10217000803421F080E28B0D883048F082E00E94AC
:10218000111D8091EC038770DD24D3948111D12C33
:10219000C12EC2948FE0C8228C2D90E08C30910526
:1021A00008F0C2C1FC01EF56FF4F0C94722D812F35
:1021B000807F1F70882311F01295107F0023B9F0E3
:1021C000112309F49DC180E28B0D883010F091102D
:1021D00006C08091EF03182B1093EF0305C0809188
:1021E000EE03182B1093EE030E94CA1C89C18B2D9D
:1021F0000E943F2A112309F497C180E28B0D1095AC
:10220000883010F0911006C08091EF0318231093CE
:10221000EF0305C08091EE0318231093EE030E9494
:10222000CA1C82C1812F807F1F70803211F01295ED
:10223000107F8B2D992021F0F1E09F1611F130C015
:102240000023B1F0AA2081F021E0A2120DC08091FC
:102250008B0282FD69C18091F003182B181709F4D5
:1022600063C11093F00360C18091F003812B10C013
:10227000AA2021F031E0A31609F456C10E94C41C23
:1022800027C0002341F085E08A1508F44DC1812F55
:102290000E94352A49C194E09A1508F445C118C036
:1022A000002349F0AA2099F3F701858180FF28C116
:1022B0008F708583ECCFAA2059F0893309F031C1A2
:1022C000FFEF27EE33E0F15020403040E1F727C127
:1022D000812F0E942A2A28C1812F86958695837096
:1022E00019F0813061F020C1002321F08B2D912F56
:1022F000937002C080E090E00E940F291BC1002370
:1023000021F08B2D912F937002C080E090E00E940D
:10231000F92810C18B2D002319F00E94DE2B02C07A
:102320000E94252B0E94FB2A05C1812F8370A9F5ED
:102330000111FEC04B2D429546954770440F440F46
:102340008B2D8F7090E09C01042E01C0220F0A9407
:10235000EAF7B4FE08C08FE090E001C0880F4A950C
:10236000EAF7809501C080E016951695137012303B
:1023700069F088F49091F103113019F0822B8923D0
:1023800002C0922B892B0E94EF29D2C0822B909100
:10239000F1038927F8CF822BF6CF002319F0812F84
:1023A000817001C08695882309F4C2C04B2D4295E7
:1023B00046954770440F440F8B2D8F7090E09C0121
:1023C000042E01C0220F0A94EAF7B4FE08C08FE081
:1023D00090E001C0880F4A95EAF7809501C080E03F
:1023E000169516951370123059F078F490913F04B9
:1023F000113019F0822B892309C0922B892B06C03A
:10240000822B90913F04892701C0822B0E94D429FE
:102410008FC01F70002339F0812F0E94E4298B2D7B
:102420000E94352A85C08B2D0E942A2A812F0E9466
:10243000D8297EC08B2D92EF991659F1991538F055
:10244000E0EF9E1659F0F1EF9F16F1F055C023EF23
:10245000921631F134EF931681F14EC0002379F0DA
:1024600084E08A1508F460C01F7181E090E001C02B
:10247000880F1A95EAF790913F0489271BC095E0D1
:102480009A1508F451C0F0CF002329F0812F8F71E5
:1024900026C00023D9F3812F8F710E94D82944C010
:1024A000002339F01F7181E001C0880F1A95EAF707
:1024B00001C080E00E94D42937C0002399F01F7129
:1024C000812F0E94E42980918B0282FD07C0E8E001
:1024D0001E9FC001112483608093EC03812F0E9412
:1024E000E42922C081E00E94111DF1E0FA15E0F418
:1024F00082E00E94111D18C0002331F0AA2031F2A1
:102500008B2D0E947E2A10C0AA2029F2893349F41B
:102510002FEF37EE83E0215030408040E1F700C0DC
:1025200000008B2D0E943F2A88EF8C0D843010F420
:102530000E942529DD20A9F18091EC0380FD31C0A6
:10254000F70112828595859585950E94E429C7013A
:102550000E949F0C8091EC03859585958595299621
:102560000FB6F894DEBF0FBECDBFDF91CF911F91A4
:102570000F91FF90EF90DF90CF90BF90AF909F9022
:102580008F907F906F905F904F903F900C94D829E0
:1025900001319FE5190709F050CB82E018CB89E2A1
:1025A000E6CC29960FB6F894DEBF0FBECDBFDF9103
:1025B000CF911F910F91FF90EF90DF90CF90BF9040
:1025C000AF909F908F907F906F905F904F903F90D3
:1025D0000895EAEDF2E093E0E93AF90729F0818302
:1025E000608342833396F7CF0895FC01EE0FFF1FFF
:1025F0008E0F9F1FFC01E652FD4F618340832283B3
:102600000895E9E3F4E0248130E1231B08F420E09D
:10261000248381E0809338040895E9E3F4E0248181
:1026200030E1230F08F42FEF248381E080933804F6
:102630000895EF92FF920F939701201B31092F3FCE
:10264000310519F010F02FEF30E02095382F320FC0
:1026500008F43FEF832F0F91FF90EF900895EF92D2
:10266000FF920F939701201B31092F3F310519F07D
:1026700010F02FEF30E0322F3095482F430F08F441
:102680004FEF842F620F0F91FF90EF900895EF921C
:10269000FF920F93972F093438F4B701601B71092B
:1026A0006F3F710519F010F06FEF70E0485F5F4FFA
:1026B0004131510540F0A901485F5F4F413151055B
:1026C00010F06FEF70E06095482F460F08F44FEF61
:1026D000842F37FF02C02D5F3F4F359527953595E5
:1026E000279560913A04620F792F0F91FF90EF9038
:1026F0000895EF92FF920F93E00EF11CF90137FF5E
:1027000003C0F195E195F10924E0EE0FFF1F2A9532
:10271000E1F7EF3FF10519F014F0EFEFF0E09A0167
:1027200057FF03C031952195310994E0220F331FE3
:102730009A95E1F72E173F070CF4F901EE0DFF1DF6
:10274000EF3FF10519F010F0EFEFF0E02E2F20959C
:10275000382F320F08F43FEF832F0F91FF90EF9047
:102760000895EF92FF920F93970195E0099F200D36
:10277000311D11242F3F310519F010F02FEF30E0FB
:102780002095382F320F08F43FEF832F0F91FF90E1
:10279000EF90089522E8241B08F420E0620F0895CA
:1027A0004095282F429F412D1124842F0895E42F16
:1027B000F0E0EE0FFF1FE754FE4F9081921B97FD54
:1027C0009195292F38E1239F212D1124620F08951F
:1027D0000F931F9310E0F801EE0FFF1FE754FE4F19
:1027E0009081905797FD9195000F111FF801E654C5
:1027F000FE4FE081F0E0B097DF01AA0FBB1F8D0113
:102800000E0F1F1F2003D001219FB00D1124E8E3FC
:10281000F0E0E91BF10997FDF3959F01220F331FAB
:1028200089010E0F1F1F40039001419F300D11249D
:102830002A0F3B1F37FF02C021583F4F220F232F83
:10284000221F330B620F1F910F9108950F931F9357
:10285000522F10E0F801EE0FFF1FE654FE4FE0810B
:10286000F0E0B097EE0FFF1F9F015203D001539F7E
:10287000B00D1124000F111FF801E754FE4F008125
:1028800010E000571109000F111F40039001419FF4
:10289000300D11242A0F3B1F37FF02C021583F4F34
:1028A000220F232F221F330B620F1F910F910895C8
:1028B0000F931F93522F10E0F801EE0FFF1FE65405
:1028C000FE4FE081F0E0B0979F015203D001539F8B
:1028D000B00D1124000F111FF801E754FE4F0081C5
:1028E00010E00057110940039001419F300D112461
:1028F0002A0F3B1F37FF02C021583F4F220F232FC3
:10290000221F330B620F1F910F910895EF920F93C7
:102910001F9393E0099F80011124159507956E2D53
:10292000600F1F910F91EF900895A22F50E0FA01D0
:10293000EE0FFF1FE654FE4F9081905297FD919548
:10294000440F551FFA01E754FE4F3081232F30E02A
:102950002A1B3109290F311D97FD3A95620F089501
:10296000E42FF0E0EE0FFF1FE654FE4F6081621B84
:102970000895E42FF0E0EE0FFF1FE754FE4F608153
:10298000621B0895622F0895E42FF0E0EE0FFF1F01
:10299000E754FE4F408134EE439F412D1124E82F30
:1029A000F0E050E0445E5F4FDA01A21BB1099D01E7
:1029B000B7FF03C031952195310993E0220F331FF2
:1029C0009A95E1F7AF01421B530B9A0157FF02C0E2
:1029D00020E030E0582F259F212D1124822F0895CB
:1029E000E42FF0E0EE0FFF1FE754FE4F408134EE7E
:1029F000439F412D1124E72FF0E050E0445E5F4FEC
:102A0000DA01A21BB1099D01B7FF03C031952195E1
:102A1000310993E0220F331F9A95E1F7AF01421B72
:102A2000530B9A0157FF02C020E030E0279F212D71
:102A30001124722F0895FC019B01009721F477FF68
:102A40002BC080E80895AC0197FF04C044275527A8
:102A5000481B590BB901640F751F37FD0CC0241BAF
:102A6000350BC901A5E0880F991FAA95E1F70E94CF
:102A70005E2D80E20CC0CB0165E0880F991F6A953E
:102A8000E1F7BA01621B730B0E945E2D80E6861B84
:102A9000F7FF03C08195089580E00895EF920F93AA
:102AA000CF93DF93D72FC82FC9010E19BA010E9407
:102AB0001B15602F681B7D2F8C2FDF91CF910F91FD
:102AC000EF9008950F93CF93DF93D72FC82FC901AD
:102AD000BA010E941B15682F600F7D2F8C2FDF918C
:102AE000CF910F910895EF920F931F93CF93DF93A0
:102AF000D62FC72F182FC9010E19010FBA010E9436
:102B00001B15081B202F219F212D1124822F6D2F93
:102B10007C2FDF91CF911F910F91EF900895EF924D
:102B20000F931F93CF93DF93D62F172FC82FC90171
:102B30000E19070FBA010E941B15702F781B719F89
:102B4000712D11246D2F8C2FDF91CF911F910F913B
:102B5000EF900895FF920F931F93CF93DF93F62E7C
:102B6000D72F182FC901C12FC01BBA010E941B15F6
:102B7000982F990F890FC81B2C2F219F212D1124CD
:102B8000822F6F2D7D2FDF91CF911F910F91FF909D
:102B90000895FF920F931F93CF93DF93F62E172F75
:102BA000D82FC901C72FC01BBA010E941B15982F2F
:102BB000990F890F7C2F781B719F712D11246F2D18
:102BC0008D2FDF91CF911F910F91FF9008956A9AF9
:102BD0008EB18B7F9EB194602FB7F894EAEDF2E04E
:102BE00033E0E93AF30789F0319148E09EB90000FB
:102BF00000C037FF8EB9330F000000C000C000C016
:102C00008EB900C04A9591F7EBCF2FBF8FE594E0C6
:102C10000197F1F700C000000895E9E3F4E0438173
:102C200020E1421B08F440E08181628190E00C9435
:102C30006422E9E3F4E0438120E1420F08F44FEF1E
:102C40008181628190E00C946422E9E3F4E0628186
:102C500020E1621B08F460E08181438190E00C94E4
:102C60006422E9E3F4E0628120E1620F08F46FEF8F
:102C70008181438190E00C946422E9E3F4E0818156
:102C800090E04381628108970C946422E9E3F4E0C8
:102C9000818190E04381628108960C946422809146
:102CA000390486958695815009F487E20C945D1F5E
:102CB00080913904869586958F5F883208F081E08F
:102CC0000C945D1F0F931F93CF93DF93C42FD22FCC
:102CD000FC0182818823C9F04093AB030E94AA289B
:102CE0009093AA038093A90380E28C0F883008F0A8
:102CF00057C0C77081E001C0880FCA95EAF7DF911D
:102D0000CF911F910F910C94352A8091AB034813FA
:102D100030C08091A9039091AA030E948F28883C1B
:102D2000910538F510E21D0FCD17B9F080E28C0F38
:102D3000883040F4C77081E001C0880FCA95EAF777
:102D40000E942A2A183028F581E09D2F977001C033
:102D5000880F9A95EAF70E94352A802F0E94DD2A73
:102D60001830F0F4D77081E001C0880FDA95EAF7E7
:102D70000AC080E28C0F883098F4C77081E001C0EF
:102D8000880FCA95EAF7DF91CF911F910F910C94AC
:102D90002A2A802FDF91CF911F910F910C94DD2A69
:102DA000DF91CF911F910F910895CF93DF93C7E5E6
:102DB000D2E060E0CE010E94C32C2196C11584E0D0
:102DC000D807B9F7DF91CF910895CF92DF92EF92B4
:102DD000FF920F931F93CF93DF93C0E0D0E08E015B
:102DE00004571F4F6E018CE1C80ED11CFE01E65E38
:102DF000FC4FE590F4906F2DCE0187960E94C32C76
:102E00006E2DCE0188960E94C32C2296CC15DD052E
:102E100069F70C171D0731F7E80100331240F9F686
:102E2000DF91CF911F910F91FF90EF90DF90CF90A6
:102E300008950F931F93CF93DF93C42FD0E0CC0F4F
:102E4000DD1F2CE1629FC00DD11D11243CE8839F42
:102E5000C00DD11D1124CE0187960E94A52C082FEC
:102E600010E0102F0027CE0188960E94A52C980113
:102E7000282BC901DF91CF911F910F910895462F03
:102E8000843038F4753028F46E3018F4672F0C94C1
:102E9000191780E090E00895CF93C82F811102C0E8
:102EA0006FEF01C061E283E290E00E94C32CC11188
:102EB00002C06FEF01C060E184E290E00E94C32C89
:102EC000C11102C06FEF01C060E185E290E0CF91D7
:102ED0000C94C32C80E00E944C1760E086E290E0E6
:102EE0000E94C32C0E94E5160E94D51681E00C9426
:102EF0004C1783E290E00E94A52C813281F484E299
:102F000090E00E94A52C803151F485E290E00E946F
:102F1000A52C91E0803109F090E0892F01C080E07C
:102F200081700895882311F0FA0101C0FB01099412
:102F30000C94E9120C94F512E9E3F4E085E3808344
:102F40008091150190911601A091170181839283C0
:102F5000A3838FE784838FEF858346E050E06CE1A5
:102F600070E0CF010C94B32C482F982F46FD90951C
:102F7000E92FEF739F7046FD9F5FE295EF70EE0FB4
:102F8000F0E0E55DFE4F2181299F802D212D112448
:102F900082958F702295207F822B3081982F930FFE
:102FA000892F47FD8195805808950F931F93CF93E4
:102FB000DF93D62F072F182FC42F822F0E94B4170C
:102FC000EC2FF0E0EE0FFF1FE754FE4F908190587A
:102FD000890F87FD8195880F682F2CE0629F612DF6
:102FE00011246D0F702F812FDF91CF911F910F91C1
:102FF0000895BC018230910508F40895613E8EE188
:10300000780748F49B0195E0369527959A95E1F766
:1030100048E0420F01C04FEF91E0242F30E0290F2C
:10302000311D35952795229FF001239FF00DF00D5E
:1030300011246E177F0718F44FEF420F04C02F3F83
:1030400039F091E0920F491740F78FEF890F0895FB
:103050008FEF08950F93CF93DF93D72FC82F47FD9E
:103060004195E8E3F0E0CF01841B910947FD93957A
:10307000889FB001899F700D700D1124229FC0019F
:10308000239F900D900D1124860F971F0E94F91712
:10309000682F660F860F682F600F7D2F8C2FDF91B2
:1030A000CF910F91089520E030E0869F212D969FCB
:1030B000200D311D1124C9010895CF92DF92EF92A6
:1030C000FF920F931F93CF93DF93F62E472FE82F96
:1030D000F0E0711106C0E65EFD4F8491782F682FF5
:1030E00073C0272F30E0E65EFD4FE491FE2F0E2FD8
:1030F00010E056E0659FC0011124CFEFD0E0BE0183
:103100000E944A2D5BEA5603C001579F900D11247F
:103110008F0D911D8F0D911D982F990F980F7E0186
:10312000E21AF30AE09ED001E19EB00DF09EB00DD0
:1031300011248B2F499FA0011124452F55277E0173
:10314000E41AF50AE09EA001E19E500DF09E500D9C
:1031500011246E01C91AD108C29E7001C39EF00CE1
:10316000D29EF00C11242F2D3327C21BD30BC09FEE
:103170009001C19F300DD09F300D1124932F6230EC
:10318000710591F048F461157105E1F06130710548
:10319000B9F49E2FE52F16C06430710569F040F038
:1031A0006630710579F00CC09E2FEB2F832F0AC07B
:1031B000EB2F8F2F952F06C09B2F8E2FE32F02C052
:1031C0009B2F852F7E2F692FDF91CF911F910F911C
:1031D000FF90EF90DF90CF900895DF92EF92FF92F3
:1031E0000F931F93CF93DF93EC01FC01ED5BFD4F39
:1031F0009081692381F1D0903B0400913C041091AF
:103200003A04E12EF12C0E94852C282FC7018C5402
:103210009F4F68E671E00E945E2D8E199F0997FD11
:10322000039695958795959587952370612F289F8F
:10323000600D11247D2D802F0E945D18462F282FB0
:10324000672FCE01DF91CF911F910F91FF90EF90EB
:10325000DF900C949A17DF91CF911F910F91FF90FF
:10326000EF90DF9008951F93CF93DF93FC01ED5B08
:10327000FD4F20816223D1F0EC010E94852C182F94
:103280000E94852C8F77782F20E8720F08F47FEF4B
:10329000612F80913C040E945D18462F282F672FD4
:1032A000CE01DF91CF911F910C949A17DF91CF91AE
:1032B0001F91089580E0089590918A0292FF0DC0B9
:1032C000282F2871283019F4877F846006C0282FA2
:1032D0002471243011F48B7F886093FF0DC0282F58
:1032E0002871283119F4877E846106C0282F247143
:1032F000243111F48B7E886120918B0220FF0DC058
:10330000382F3871383019F4877F816006C0382F24
:103310003171313011F48E7F886021FF0DC0282F6C
:103320002871283119F4877E816106C0282F217108
:10333000213111F48E7E886194FD877E0895F89482
:10334000E82FE295EF70F0E031A1282F2F7081E097
:1033500090E001C0880F2A95EAF7982F9095932363
:1033600091A392A1892B82A3789408956F927F9262
:103370008F929F92AF92BF92CF92DF92EF92FF9285
:103380000F931F93CF93DF93CDB7DEB72A970FB676
:10339000F894DEBF0FBECDBFAE014F5F5F4F7A0125
:1033A0008AE0DA011D928A95E9F708E111E06A01E5
:1033B0008DE1682E81E0782E88248394912CF80189
:1033C00080818F3F09F44DC0F894E82FE295EF70AB
:1033D000F0E021A18F70A40102C0440F551F8A950F
:1033E000E2F7CA01922F982B91A392A1809589238D
:1033F00082A3789400C0EDE1F1E020E030E0A12C60
:10340000B12C81918F3FC1F0A82FA295AF70B0E091
:1034100090964C9150E08F70DA0102C0B595A79557
:103420008A95E2F7A0FD08C0C401022E02C0880FF1
:10343000991F0A94E2F702C080E090E0A82AB92A16
:103440002F5F3F4F2E303105E1F6F80180818F3F2D
:1034500011F00E949F19F0EAFA95F1F7D601AD92AA
:10346000BC920F5F1F4FB2E0CB0ED11C60167106ED
:1034700009F0A5CF4AE050E0B7018CE892E00E9445
:103480007F2D11E0009709F410E0892B89F08AE084
:10349000F701ACE8B2E001900D928A95E1F781E086
:1034A0008093F4030E94AA289093F3038093F2037D
:1034B0008091F403882391F18091F2039091F303BA
:1034C0000E948F28059750F180918C0290918D0277
:1034D0009093D0028093CF0280918E0290918F02C0
:1034E0009093D2028093D1028091900290919102A8
:1034F0009093D4028093D302809192029091930290
:103500009093D6028093D502809194029091950277
:103510009093D8028093D7021092F403812F2A96B9
:103520000FB6F894DEBF0FBECDBFDF91CF911F91D4
:103530000F91FF90EF90DF90CF90BF90AF909F9052
:103540008F907F906F900895CF93DF93823891058D
:1035500069F1B0F48133910509F46FC048F4893200
:10356000910509F465C08A32910509F46BC08AC0DF
:103570008533910509F457C089339105B9F082C0AC
:10358000833E910571F138F4803E9105B1F0823EA1
:10359000910511F177C0863E9105B9F1873E9105FD
:1035A000C9F1843E910509F06DC024C020918A02C2
:1035B00020FD53C021FD51C065C080918A0280FD6D
:1035C00046C080918B0280FF48C080918A0284FDB2
:1035D00050C183EE90E04FC180918A0282FF3AC0D1
:1035E000F4CF80918A0282FD35C080918B0280FDEC
:1035F00034C0EBCF80918B0281FF35C080918A026D
:1036000084FD37C187EE90E036C180918A0283FF46
:1036100027C0F4CF80918A0283FD22C080918B0263
:1036200081FD21C0EBCF80918A0285FD1FC021C0A2
:1036300080918A0285FD1DC019C080918A0286FD95
:103640001BC01DC080918A0286FD19C015C089E388
:1036500090E011C182EE90E00EC180EE90E00BC1CF
:1036600086EE90E008C184EE90E005C189E290E02A
:1036700002C185E390E0FFC08AE290E0FCC081E3F4
:1036800090E0F9C0811531E5930708F069C0811514
:1036900040E59407F0F09C0174E0369527957A9503
:1036A000E1F7922F9370482F437021E030E002C081
:1036B000220F331F4A95E2F73C68392B982F9F70F1
:1036C0009695969540E2949FC0011124822B932BEE
:1036D000D2C0883E910568F5803E910508F0CBC0C8
:1036E000883A9105B8F4853A910548F0855AE82F53
:1036F000F0E0ED5CFE4F808190E09064BCC08130D2
:10370000910509F4B3C008F4B4C08430910508F4FD
:10371000B0C0B1C08F3B910508F0ABC0885AE82F0C
:10372000F0E0EE0FFF1FEA5CFE4F80819181946410
:10373000A2C0811520E2920758F4811531E0930769
:1037400008F099C0803F910508F493C0906593C03C
:10375000811540E4940708F48CC09F70906A8BC078
:10376000811525E5920708F042C0811534E59307DD
:1037700028F0982F8827846F906A7DC0811543E5D3
:103780009407B0F09C012370332741E050E002C061
:10379000440F551F2A95E2F7282F2695269580E29B
:1037A000289F90011124CA01822B932B9A6863C031
:1037B000811522E5920728F4982F8827816F906A57
:1037C0005AC09C012370332741E050E002C0440FEF
:1037D000551F2A95E2F7282F2695269580E2289FE7
:1037E00090011124CA01822B932B9C6844C0EC01E8
:1037F000811539E59307A8F48115984528F09C2F89
:103800008827806F906A37C0C11586E5D80788F58C
:103810008C2F0E945C198F7190E0982F88279062FE
:103820002AC081152AE5920790F48C2F8F700E9490
:103830005C1994E0D695C7959A95E1F7CF70D0E0E2
:10384000DC2FCC27D0699E01282BC90114C09056CB
:103850008115904270F48D2F8F710E945C19282F72
:103860002F71CE0199279062922B05C081E090E0E4
:1038700002C080E090E0DF91CF910895CF9384E083
:1038800090E00E94A52CC82F82E290E00E94A52C17
:103890002C2F30E0A901582BCA01CF91089580E068
:1038A00090E00E94AD2C893E9E4F11F40C94791744
:1038B00080E0089569EE7EEF80E090E00E94E12CC8
:1038C00060E082E090E00E94C32C60E083E090E042
:1038D0000E94C32C1092F10360E084E090E00E940B
:1038E000C32C60E082E290E00E94C32C60E085E09F
:1038F00090E00E94C32C60E086E090E00E94C32C20
:103900006FEF87E090E00E94C32C40E050E0BA01E6
:1039100088E090E00E94D52C60E08DE090E00E946D
:10392000C32C40E050E0BA0188E190E00E94D52C21
:1039300060E087E190E00E94C32C40E050E0BA01D3
:103940008CE190E00E94D52C60E070E080E290E095
:103950000E94E12C40E050E0BA0188E190E00E9432
:10396000D52C80E00E944C170E946A1740E050E07E
:10397000BA018FE090E00E94D52C40E050E0BA01FF
:1039800083E190E00C94D52C8091F003811110928A
:10399000F00308959091EF038091EE03892B20911D
:1039A000ED03982F922B9093AC038091F003882322
:1039B00089F0892B8093AC03EEEAF3E097E080E096
:1039C000915029F021912223D9F38F5FF9CF8111F2
:1039D0000E94C41CE0914204F0914304309731F0FE
:1039E0000280F381E02D8CEA93E009940895CF934F
:1039F000C0918B02C2FB992790F9981781F080FB48
:103A0000C2F9C0938B0260918A0284E090E00E9428
:103A1000C32C6C2F82E290E0CF910C94C32CCF91F9
:103A200008952091EC03809582238093EC03982FD6
:103A3000977041F430E0482F082E000C550B2417E6
:103A4000350721F490918B0292FF07C085958595EB
:103A500085950E94D8291092EC0308958091EB037C
:103A60009091BA03891719F08F5F8770FBCF089583
:103A70000F931F93CF93DF938091B90382958F703B
:103A800009F05DC08091B603882309F458C0809185
:103A9000EB031091BA036091B4037091B503C09128
:103AA000B703D091B80391E06F3F09F090E0292F60
:103AB00006E0811709F443C0209721F07F3F21F0F1
:103AC00030E003C031E001C0322F90E030FD34C05F
:103AD000089FF001099FF00D1124DF01A554BC4F90
:103AE00011963C911197371327C03C91361324C08F
:103AF00012963C91129731111FC013964D915C9113
:103B000014974C1B5D0B483C5105B0F48091B903F0
:103B10008F7080618093B903E054FC4F80818F7077
:103B20008061808384EB93E00E949F0CDF91CF91B2
:103B30001F910F910C942E1D01968770BACFDF91C3
:103B4000CF911F910F910895CF93DF93EC010E94C5
:103B50004E29BE010E943F170E94A41ADF91CF9107
:103B600008959F92AF92BF92CF92DF92EF92FF9211
:103B70000F931F93CF93DF93CDB7DEB761970FB647
:103B8000F894DEBF0FBECDBF8C0185E0F801DE01E9
:103B90001D9601900D928A95E1F7F801E2809091CF
:103BA000B4036091B5034091B7035091B803411538
:103BB000510531F06F3F31F481E09F3F19F403C0AC
:103BC00081E001C080E0F82FF1709F2E80FD1AC1C6
:103BD000F80130812181C380D48084EBA82E83E05A
:103BE000B82EF090B603F601E41BF50BFF2009F4A4
:103BF000C6C08091B903E83CF10508F091C0482F98
:103C0000407F09F050C0621311C093130FC0FE2C07
:103C1000E1100CC08F7080618093B903C5010E94D0
:103C20009F0C8091B903F801858329C1CD2831F01B
:103C30002F3F31F481E03F3F19F403C081E001C020
:103C400080E080FD03C081E08E2502C080E090E02E
:103C5000F82FF170FF2E80FF1CC08091EB03409184
:103C6000BA0356E0841709F4E8C090E0589FF001C9
:103C7000599FF00D1124E554FC4F6181261306C0B5
:103C80006081631303C06281E61203C001968770EE
:103C9000E9CFFE2CEE2009F4F2C08091B9038160D7
:103CA0008093B90349C0621306C0931304C0E110A6
:103CB00002C0F80186C0C8010E94F329882351F18F
:103CC000EE2041F12091B903822F82958F7090E010
:103CD000029774F08091B4039091B50398878F8315
:103CE0001986DB86CA862C87CE0107960E949F0C18
:103CF00086E0F801A4EBB3E001900D928A95E1F71C
:103D00000E94381D0AC06217C9F0C8010E94F32939
:103D100081111EC0C8010E949F0CFF24F394AFC004
:103D2000482F407F81F784EB93E00E949F0C86E050
:103D3000F50111928A95E9F7F12CA1C09313E5CF13
:103D4000E110E3CFF8018583C8010E949F0C54C0A5
:103D5000EE2001F32091B903822F82958F7090E0BD
:103D6000029734F28091B4039091B5039A838983CA
:103D70001B82DD82CC822E83CE010196B7CFE83C38
:103D8000F105D0F5FE2CEE2029F2621327C0931323
:103D900025C02091B90320FD18C0822F82958F7015
:103DA000482F50E04115510581F0F80125834F302F
:103DB000510541F08F5F982F9295907F822F8F70E1
:103DC000892B8583C8010E949F0C86E0F801A4EB33
:103DD000B3E001900D928A95E1F751C0C8010E94AD
:103DE000F329811185CF8091B90381608093B90354
:103DF000C8010E949F0C43C086E0F50111928A958C
:103E0000E9F73DC0EE2009F485CFC8010E94F329EF
:103E1000F82E882309F47ECF86E0F801A4EBB3E006
:103E200001900D928A95E1F78091B4039091B503CA
:103E30000E94A41D0E94381D22C03D872E878D85BB
:103E40009E850E94A41D292F22952F70223028F4D0
:103E50009F7039F0811105C00BC0243028F49F7089
:103E600049F4805E883020F0C8010E949F0C9F2C8E
:103E7000F92C05C0F8019581907F99F7F9CF8F2D26
:103E800061960FB6F894DEBF0FBECDBFDF91CF9124
:103E90001F910F91FF90EF90DF90CF90BF90AF9068
:103EA0009F90089580913F04982F9670963011F45A
:103EB000886001C0877F0C94D42990913904937055
:103EC00091F0811102C0946007C0883210F09C69A3
:103ED00003C0880F880F982B909339041092140117
:103EE00081E08093380408952F923F924F925F9221
:103EF0006F927F928F929F92AF92BF92CF92DF92FA
:103F0000EF92FF920F931F93CF93DF93CDB7DEB75E
:103F100027970FB6F894DEBF0FBECDBF282E4B01FA
:103F2000209111018EE0289F802D11248E83182F5F
:103F3000125F163408F015E430910F0439839E8126
:103F4000911708F07CC08E81682E712CF301ED5B17
:103F5000FD4F908180911201892309F46CC030904B
:103F60003A0440903B04522C1F82C301880F991FD2
:103F7000DC01A754BE4FBB83AA83C301880F991FDE
:103F8000FC01E654FE4FFD83EC83F9815F1608F0D7
:103F900040C0E52CF12CAA81BB81CC90D12CF7013B
:103FA000E15FFB4F8181C81AD108AC81BD81AC9023
:103FB000B12C8185A81AB108CC9C9001CD9C300D04
:103FC000300D1124AA9CC001AB9C900D900D1124C2
:103FD000820F931F0E94F917082F60913D0421E082
:103FE000620F08F46FEFF701EE0FFF1FE15FFB4F69
:103FF000818D928D0E9453187C019501A601632D3D
:10400000742D8F81F4010995362E472E8F8353949A
:10401000BCCF20913C048F81382F329F312D112449
:10402000832F632D742D0E945D18462F282F672F34
:10403000C3010E949A178E818F5F8E8380CF81E0AB
:10404000153408F080E027960FB6F894DEBF0FBE57
:10405000CDBFDF91CF911F910F91FF90EF90DF9037
:10406000CF90BF90AF909F908F907F906F905F9018
:104070004F903F902F900895CF92DF92EF92FF9252
:104080000F931F93CF93DF938C01C09111018EE0AA
:10409000C89FC02D1124DEE0DC0FD63408F0D5E433
:1040A00020913D0431E0230F08F42FEF30E040E091
:1040B00050E06FEF7FEF80E090E00E94E72C790105
:1040C000CD1708F041C0CC2ED12CF601ED5BFD4F91
:1040D0009081809112018923A9F190910F04915050
:1040E00097FD15C0492F092E000C550BFA01E15F11
:1040F000FB4F8189C813F3CF440F551FFA01E15FCD
:10410000FB4F218D328D2E153F0548F701C09701D9
:1041100060913D0441E0640F08F46FEFC9010E9413
:104120005318AC0160913A0470913B0480913C04B7
:10413000F80109950E945D18462F282F672FC601A8
:104140000E949A17CF5FBCCF81E0D53408F080E0A1
:10415000DF91CF911F910F91FF90EF90DF90CF9063
:104160000895DF92EF92FF920F931F93CF93DF9307
:104170008C01C09111018EE0C89FC02D1124DEE09A
:10418000DC0FD63408F0D5E460913D046695669561
:1041900021E0620F08F46FEF80910B0490910C0402
:1041A0000E945318D82ECD17F0F4EC2EF12CF70105
:1041B000ED5BFD4F908180911201892391F0609118
:1041C0003A0470913B0480913C042D2D4C2FF80152
:1041D00009950E945D18462F282F672FC7010E945E
:1041E0009A17CF5FE0CF81E0D53408F080E0DF910F
:1041F000CF911F910F91FF90EF90DF9008959F92C4
:10420000AF92BF92CF92DF92EF92FF920F931F93E4
:10421000CF93DF936C01C09111018EE0C89FC02D38
:104220001124DEE0DC0FD63408F0D5E460913D04C3
:104230006695669580910B0490910C040E9453182A
:10424000182F80E4810F0E94B41790E8F92EF80E21
:10425000812F0E94B41720E8922E980ECD1700F5FA
:10426000AC2EB12CF501ED5BFD4F908180911201D8
:104270008923A1F060913A0470913B0480913C0441
:10428000E12E0C2F292D4F2DF60109950E945D1866
:10429000462F282F672FC5010E949A17CF5FDECFC8
:1042A00081E0D53408F080E0DF91CF911F910F912C
:1042B000FF90EF90DF90CF90BF90AF909F900895C8
:1042C0006F927F928F929F92AF92BF92CF92DF9226
:1042D000EF920F931F93CF93DF933C01C091110195
:1042E0008EE0C89FC02D1124DEE0DC0FD63408F02C
:1042F000D5E460913D04669580910B0490910C0487
:104300000E945318182FCD1708F044C08C2E912C02
:10431000F401ED5BFD4F9081809112018923C1F181
:10432000F401EE0FFF1FE754FE4FC080D12C80E751
:10433000C81AD108F401EE0FFF1FE654FE4FA0800B
:10434000B12CE0E2AE1AB108CC9C9001CD9C300DAE
:10435000300D1124AA9CC001AB9C900D900D11242E
:10436000820F931F0E94F917082F60913A047091F1
:104370003B0480913C04E12E9501A601F3010995CF
:104380000E945D18462F282F672FC4010E949A179C
:10439000CF5FB9CF81E0D53408F080E0DF91CF91D5
:1043A0001F910F91EF90DF90CF90BF90AF909F90B3
:1043B0008F907F906F900895CF92DF92EF92FF924F
:1043C0000F931F93CF93DF936C01C09111018EE087
:1043D000C89FC02D1124DEE0DC0FD63408F0D5E4F0
:1043E00060913D04669580910B0490910C040E94AD
:1043F0005318182FCD1778F5EC2EF12CF701ED5B43
:10440000FD4F908180911201892319F1F701EE0F80
:10441000FF1FE654FE4F208130E020523109F701A2
:10442000EE0FFF1FE754FE4F408150E04057510907
:1044300060913A0470913B0480913C04012FF60195
:1044400009950E945D18462F282F672FC7010E94EB
:104450009A17CF5FCFCF81E0D53408F080E0DF91AD
:10446000CF911F910F91FF90EF90DF90CF90089523
:10447000EF92FF920F931F93CF93DF937C018B01F9
:104480000E942A26811119C0E70101151105A1F02A
:104490008091E80085FD0AC08091E8008E778093C6
:1044A000E8000E942A26882381F307C0899180931F
:1044B000F10001501109E9CF80E0DF91CF911F9108
:1044C0000F91FF90EF90089590913904937061F0EF
:1044D00080933A0460933B04453B08F044EB4093DF
:1044E0003C0481E08093380408951F93CF93DF93B9
:1044F000CDB7DEB7AA970FB6F894DEBF0FBECDBF1B
:10450000E3E0F4E08091F100819344E0EB30F407C4
:10451000C9F780910404833009F462C030F481301B
:1045200071F0823009F49CC0B3C08A3009F488C0AD
:104530008B3009F46DC0893009F0AAC020C0809189
:104540000304813A09F0A4C08091E800877F80933A
:10455000E8008091070490910804892B21F468E019
:1045600087EF93E003C060E080E090E070E00E949D
:10457000E7278091E8008B778093E80089C08091DD
:104580000304813209F084C08091070490910804EB
:10459000009719F0029709F07BC08091E800877FAF
:1045A0008093E8008091E80082FD05C080910104BD
:1045B0008111F8CF6DC02091F3008091F20090E05E
:1045C000922B029729F48091F1008B7F813021F4A6
:1045D0008091F1008093F6038091E8008B7754C0BE
:1045E00080910304813A09F053C0809107049091AF
:1045F0000804892B09F04CC08091E800877F8093E4
:10460000E8008091E80080FFFCCF8091100137C066
:10461000809103048132E1F58091070490910804B0
:10462000892BB1F58091E800877F8093E8000E9494
:104630005D2680910504809310010E941F2A28C0E6
:1046400080910304813221F58091E800877F809377
:10465000E8000E945D26809106048093F50318C04F
:1046600080910304813AA1F48091E800877F8093D0
:10467000E8008091E80080FFFCCF8091F5038093F3
:10468000F1008091E8008E778093E8000E945D261B
:104690008091E80083FFDDC18091030490910404C0
:1046A000492F50E04A30510508F0D3C1FA01E356D2
:1046B000FF4F0C94722D803821F0823809F0C9C167
:1046C00008C08091FF0390910004992389F08260D3
:1046D0000FC0809107048F70873008F0BAC18093B3
:1046E000E9008091EB0085FB882780F91092E900B2
:1046F0009091E800977F9093E8008093F1001092EA
:10470000F10070C1282F2D7F09F0A3C1882319F073
:10471000823061F09EC180910504813009F099C119
:10472000933009F080E0809300042EC0809105044E
:1047300081112AC0809107048F702FEF280F263037
:1047400008F087C18093E9002091EB0020FF1CC096
:10475000933021F48091EB00806214C09091EB00C3
:1047600090619093EB0021E030E0A90102C0440F7A
:10477000551F8A95E2F74093EA001092EA00809173
:10478000EB0088608093EB001092E9008091E800D4
:10479000877F8093E8000E945D265BC1811159C12B
:1047A000109105041F778091E3008078812B80931E
:1047B000E3008091E800877F8093E8000E945D26F7
:1047C0008091E80080FFFCCF8091E30080688093B7
:1047D000E300111102C082E001C083E08093010474
:1047E00038C18058823008F034C1209105043091DE
:1047F00006042C3D53E0350779F583E08A838AE28D
:1048000089834FB7F894DE01139620E03EE051E231
:10481000E32FF0E050935700E49120FF03C0E295AE
:10482000EF703F5FEF708E2F90E0EA3010F0C79688
:1048300001C0C0968D939D932F5F243149F74FBFE0
:104840008091E800877F8093E8006AE270E0CE0103
:1048500001960E94E727B4C0809107049091080454
:10486000432F552743305105A9F068F441305105D5
:1048700009F4FEC04230510509F0EBC08BE590E031
:10488000E7E2F6E04BC04132510529F142325105D1
:1048900089F1DFC0C901992781309105A1F058F055
:1048A000029709F0D6C0E4E9F6E0E4918E2F90E09B
:1048B000E4E9F6E030C0E2ECF6E0E4918E2F90E01F
:1048C000E2ECF6E028C0E8EAF6E0E4918E2F90E012
:1048D000E8EAF6E020C08330910508F0BAC0880FFE
:1048E000991FFC01E359FE4F0190F081E02D89E012
:1048F00090E014C08330910508F0ABC0FC01EE0FCE
:10490000FF1FE959FE4F0190F081E02DDC01AC5909
:10491000BE4F8C9190E0009709F49BC02091E80075
:10492000277F2093E8002091090430910A0428177A
:10493000390708F4C90140E0009789F1209101048A
:10494000222309F43DC02530D9F12091E80023FD50
:1049500037C02091E80022FD2FC02091E80020FF01
:10496000EBCF4091F3002091F20030E0342B009720
:1049700059F02830310540F444914093F1003196CC
:1049800001972F5F3F4FF3CF41E02830310509F009
:1049900040E02091E8002E772093E800CDCF411130
:1049A000CDCF0AC080910104882351F0853041F0B9
:1049B0008091E80083FD04C08091E80082FFF2CF7F
:1049C0008091E8008B778093E80043C0803809F03D
:1049D00040C08091E800877F8093E80080910204C6
:1049E0008093F1008091E8008E77D3CE811131C0A1
:1049F00080910504909106049927029754F58091BF
:104A0000E800877F8093E80010910504109302046A
:104A10000E945D26111106C08091E30087FD02C04F
:104A200081E001C084E08093010442E061EC81E018
:104A30000E947C2642E261EC84E00E947C2642E2F5
:104A400061EC82E00E947C2642E260EC83E00E94FE
:104A50007C268091E80083FF10C08091E800877F6A
:104A60008093E8008091EB0080628093EB0005C0AA
:104A700082E190E0E2E8F6E051CFAA960FB6F89412
:104A8000DEBF0FBECDBFDF91CF911F910895809102
:104A9000F603089590910104943029F580934B0416
:104AA00070934D0460934C049093E9008FEF9091C4
:104AB000E800815095FD06C095ED9A95F1F700004C
:104AC0008111F5CF8091E80085FF0DC040E050E0F6
:104AD00063E070E08BE494E00E9438228091E8006B
:104AE0008E778093E8000895BC0184E00C944A25F9
:104AF000BC0183E00C944A2524E02093E9002FEFC9
:104B00003091E800215035FD06C035ED3A95F1F7BA
:104B100000002111F5CF2091E80025FF0BC040E0F7
:104B200050E066E070E00E9438228091E8008E77C5
:104B30008093E8000895CF93DF9321E02093E9006C
:104B40002FEF3091E800215035FD06C035ED3A9544
:104B5000F1F700002111F5CF2091E80025FF14C0E6
:104B6000EC0140E050E068E070E00E943822809163
:104B7000E8008E778093E80088E0FE01A7EFB3E0BD
:104B800001900D928A95E1F7DF91CF9108951F92E0
:104B90000F920FB60F9211242F933F934F935F9371
:104BA0006F937F938F939F93AF93BF93CF93DF9335
:104BB000EF93FF93C091E900CF708091EC00D82F64
:104BC000D17080FDD0E81092E9008091F000877FDD
:104BD0008093F00078940E9475221092E9008091F1
:104BE000F00088608093F000CD2BCF70C093E90077
:104BF000FF91EF91DF91CF91BF91AF919F918F91F5
:104C00007F916F915F914F913F912F910F900FBEC8
:104C10000F901F901895E8EDF0E080818E7F8083E3
:104C20001092E2001092DA001092E100A0EEB0E0E3
:104C30008C9181608C9380818F77808319BCA7EDE4
:104C4000B0E08C918E7F8C9380818F7E80831092D8
:104C50004E0408952091E4003091E50095E64091DE
:104C6000EC00842F817040FF23C08091E80080FD1C
:104C70001DC080910104882399F0853099F08091BE
:104C8000EB0085FD11C04091E4005091E500241730
:104C9000350729F3915011F09A01E1CF84E008958E
:104CA00082E0089583E0089581E0089580E008950A
:104CB0004091E80042FFDDCF08958091030487FF13
:104CC00011C08091E80082FD05C08091010481112E
:104CD000F8CF11C08091E8008B770BC08091010460
:104CE000882349F08091E80080FFF8CF8091E800A8
:104CF0008E778093E8000895982F973068F5909309
:104D0000E900981739F07091EC002091ED00509176
:104D1000F00003C0242F762F50E021FD02C09F5FDA
:104D2000ECCF3091EB003E7F3093EB003091ED0003
:104D30003D7F3093ED003091EB0031603093EB001C
:104D40007093EC002093ED005093F0002091EE0062
:104D500027FDE5CF80E008958F708093E90081E022
:104D60000895CF92DF92EF92FF920F931F93CF930C
:104D7000DF93C8EDD0E088818F7E8883E7EDF0E097
:104D800080818160808384E082BF81E080934E04D3
:104D900088818E7F888302EE10E0F80110821092E5
:104DA000DA0081EEC82ED12CF601108288818F772F
:104DB000888388818068888388818F7D888319BCF7
:104DC0001092010410920204109200041092FF034A
:104DD00090EEE92EF12CF70180818B7F8083888112
:104DE0008160888342E060E080E00E947C26F601DA
:104DF00080818E7F8083F8018081816080838081C3
:104E000088608083F70180818E7F808388818061C4
:104E10008883DF91CF911F910F91FF90EF90DF90EA
:104E2000CF9008951F920F920FB60F9211242F93D7
:104E30003F934F935F936F937F938F939F93AF9322
:104E4000BF93EF93FF938091E10082FF09C08091AF
:104E5000E20082FF05C08091E1008B7F8093E1003A
:104E60008091DA0080FF2AC08091D80080FF26C0A0
:104E70008091DA008E7F8093DA008091D90080FFE4
:104E800018C080E189BD82E189BD09B400FEFDCF73
:104E900081E08093010480914E0481110FC00E9433
:104EA0000B260E94B1268091E20084608093E2008C
:104EB00005C019BC1092010410924E048091E100CB
:104EC00080FF17C08091E20080FF13C08091E20054
:104ED0008E7F8093E2008091E20080618093E20007
:104EE0008091D80080628093D80019BC85E08093BF
:104EF00001048091E10084FF2EC08091E20084FFD4
:104F00002AC080E189BD82E189BD09B400FEFDCFE0
:104F10008091D8008F7D8093D8008091E1008F7EB2
:104F20008093E1008091E2008F7E8093E200809187
:104F3000E20081608093E20080910204882311F0F6
:104F400084E007C08091E30087FD02C081E001C0DA
:104F500083E0809301048091E10083FF27C080916A
:104F6000E20083FF23C08091E100877F8093E1000E
:104F700082E080930104109202048091E1008E7F10
:104F80008093E1008091E2008E7F8093E200809127
:104F9000E20080618093E20042E060E080E00E94F5
:104FA0007C268091F00088608093F000FF91EF9163
:104FB000BF91AF919F918F917F916F915F914F9131
:104FC0003F912F910F900FBE0F901F901895209139
:104FD000090430910A042617370748F06115710556
:104FE00039F42091E8002E772093E80001C0B90140
:104FF000FC0120E06115710579F18091010488239D
:10500000F1F18530F1F18091E80083FD3CC08091A1
:10501000E80082FD2EC08091E80080FFEBCF209158
:10502000F3008091F20090E0922B6115710551F030
:105030008830910538F421912093F1006150710975
:105040000196F3CF21E0089709F020E08091E80075
:105050008E778093E800CECF2111CFCF0AC0809108
:105060000104882361F0853061F08091E80083FDC0
:105070000AC08091E80082FFF2CF80E0089582E0CC
:10508000089583E0089581E0089581E08093E00031
:1050900080E28093D8001092C9008FE19EE40197CE
:1050A000F1F700C0000087E090EBDC01809377040B
:1050B00090937804A0937904B0937A049CE088E1FB
:1050C0000FB6F894A895809360000FBE909360008F
:1050D000FFCF78941F920F920FB60F9211248F93E7
:1050E0009F93AF93BF938091470490914804A09100
:1050F0004904B0914A040196A11DB11D8093470453
:1051000090934804A0934904B0934A04BF91AF918F
:105110009F918F910F900FBE0F901F9018959C013B
:105120004FB7F8948091470490914804A0914904A6
:10513000B0914A044FBF821B930B08952FB7F89488
:1051400060914704709148048091490490914A0409
:105150002FBF08952FB7F894809147049091480489
:10516000A0914904B0914A042FBF08951F920F9255
:105170000FB60F9211248F939F93AF93BF9380919B
:105180004604811113C08091470490914804A09176
:105190004904B0914A044196A11DB11D8093470472
:1051A00090934804A0934904B0934A04BF91AF91EF
:1051B0009F918F910F900FBE0F901F9018959C019B
:1051C000FC0132969FEF80E04191461789F09F3FA6
:1051D00019F4411101C0982F8F5F8630A9F79F3FC6
:1051E00039F0F901E90FF11D97FDFA9562830895F1
:1051F000089520914404309145042817390771F02F
:105200009093450480934404E0914204F091430458
:10521000309721F00084F185E02D099408952091C4
:105220004004309141042817390771F090934104EC
:1052300080934004E0914204F0914304309721F0C0
:105240000680F781E02D09940895E0914204F091E1
:105250004304309721F00190F081E02D099480E023
:10526000089580E090E00E940F2980E090E00E9485
:10527000F9281092EE031092ED030E94CA1CE1E798
:10528000F4E086E0DF011D928A95E9F710926B0445
:1052900010926A0410926C040C94FB2ACF92DF9255
:1052A000FF920F931F93CF93DF936C0100913F0404
:1052B0008091F103082BC7E0D0E010E0C8010C2E6C
:1052C00002C0959587950A94E2F780FD04C0219766
:1052D000A8F7F12C09C0FC2EB6018C2F0E943F17B5
:1052E0000E94A41A019799F38F2DDF91CF911F91FE
:1052F0000F91FF90DF90CF9008952EE0929F800D48
:105300001124682F669566956695982F977083E0AF
:10531000689FB001112440E050E080E0FB01E40F01
:10532000F51FE15BFB4F208130E0092E02C036956E
:1053300027950A94E2F721703327042E01C0220F2B
:105340000A94EAF7822B4F5F5F4F4330510531F7E4
:1053500008952EE0929F800D1124E82FE695E695A2
:10536000E695877051E001C0550F8A95EAF783E012
:10537000E89FF0011124E15BFB4F20E030E070E09A
:105380004081CB01022E02C0969587950A94E2F7E0
:105390008170819584278523842781932F5F3F4FD8
:1053A0002330310569F7089580933F040C94312927
:1053B00021E030E001C0220F8A95EAF72095809124
:1053C0003F0482230C94D42921E030E001C0220F55
:1053D0008A95EAF780913F04822B0C94D42980931C
:1053E000F1030C943129FC01808191810E94A41D5C
:1053F000292F2F70E92FE295EF704E2F50E0FA0120
:105400003297EE30F105B8F4E955FF4F0C94722D48
:10541000803F99F018F4883E70F40FC0843F59F42F
:105420000CC0883E50F0813F31F407C0822F869532
:1054300086958695089580E0089581E008951092FC
:10544000EF0386E0EEEAF3E0DF011D928A95E9F7CB
:105450000C943129882341F080959091EF038923A2
:105460008093EF030C94CA1C0895882339F090911F
:10547000EF03892B8093EF030C94CA1C08958823B3
:10548000E1F19CEF980F913A60F4ECEAF3E092813D
:10549000891301C01282319643E0E23BF407B9F769
:1054A00014C090E2980F983090F4877021E030E0BB
:1054B000A90102C0440F551F8A95E2F7CA018095E1
:1054C0009091EF0389238093EF030C94CA1C9BE512
:1054D000980F933020F480E090E00C940F2998E529
:1054E000980F973120F480E090E00C94F928803FE9
:1054F00020F00E94252B0C94FB2A0895CF9388233B
:1055000009F459C0C82F8CEF8C0F813AF8F4EEEAF9
:10551000F3E084EB93E02191C21721F08E179F07EF
:10552000D1F70EC0ECEAF3E082EB93E02281C213E4
:1055300001C0128231968E179F07C1F70E94CA1CC4
:105540006C2F8CEA93E00E94DF2810C080E28C0F61
:10555000883078F4C77081E090E001C0880FCA9568
:10556000EAF79091EF03892B8093EF03CF910C948E
:10557000CA1CEBE5EC0FE33040F4F0E0ED5CFE4FCD
:10558000808190E0CF910C940F29E8E5EC0FE73192
:1055900050F4F0E0EE0FFF1FEA5CFE4F8081918136
:1055A000CF910C94F928C03F30F08C2F0E94DE2B55
:1055B000CF910C94FB2ACF9108951F93CF93DF9343
:1055C000182F893319F0C0E0D0E002C0C0E5D0E068
:1055D000812F0E947E2A209741F08FE99FE001975A
:1055E000F1F700C000002197F6CF812FDF91CF9116
:1055F0001F910C943F2A0E94AA2820917304211124
:1056000004C020917404222321F0909370048093AD
:105610006F0420917504211104C020917604222387
:1056200021F090936E0480936D04E0914204F09118
:105630004304309749F082E0809371040480F5813F
:10564000E02D81E794E009940895803F39F490912A
:10565000740497FF35C01092740459C0813F29F437
:10566000909174041916BCF32BC090917304823F7F
:1056700029F497FF25C01092730449C0833F19F4A1
:105680001916CCF31DC090917504893F29F41916A1
:10569000BCF4109275043BC08A3F19F497FF10C008
:1056A000F8CF8B3F39F49091760497FF09C01092A0
:1056B00076042DC08C3F21F4909176041916BCF32A
:1056C0009CE0980F953080F421E030E0A90102C001
:1056D000440F551F9A95E2F7CA0180959091720484
:1056E00089238093720413C08D3F21F480916C0450
:1056F0008E7F0BC08E3F21F480916C048D7F05C09E
:105700008F3F29F480916C048B7F80936C0480918F
:105710007304811106C080917404811102C010923B
:105720006B0480917504811106C08091760481110B
:1057300002C010926A04089580916C0480FD16C026
:1057400081FD16C082FD18C080916A04882391F003
:10575000883290F428E0829FC001112468E270E052
:105760000E945E2D862F672B29F007C082E00895E6
:1057700084E0089581E0089588E0089580916C04A4
:1057800080FD14C081FD14C082FD16C080916B04A1
:10579000882381F0843180F422E3829FC0011124A8
:1057A00064E170E00E945E2D862F08958CE00895DC
:1057B00089E1089585E0089582E30895803F21F40A
:1057C0000E94BE2B819504C0813F29F40E94BE2B0C
:1057D000809374040895823F21F40E94BE2B81952A
:1057E00004C0833F29F40E94BE2B80937304089564
:1057F000893F19F40E949C2B05C08A3F31F40E9416
:105800009C2B81958093750408958B3F21F40E9411
:105810009C2B819504C08C3F29F40E949C2B809383
:10582000760408959CE0980F953078F421E030E0FC
:10583000A90102C0440F551F9A95E2F7CA01909141
:105840007204892B8093720408958D3F21F4809116
:105850006C0481600BC08E3F21F480916C048260E7
:1058600005C08F3F29F480916C04846080936C04A0
:1058700008958F929F92AF92BF92CF92DF92EF9254
:10588000FF92CF93DF93EC01688179818A819B81BC
:10589000611571058105910521F464E279ED8BE5CF
:1058A00097E02DE133EF41E050E00E94E72C490101
:1058B0005A019B01AC01A7EAB1E40E94062D6B01DD
:1058C0007C01ACEEB4EFA50194010E94142DDC0123
:1058D000CB018C0D9D1DAE1DBF1DB7FF03C00197F1
:1058E000A109B04888839983AA83BB839F77DF91FE
:1058F000CF91FF90EF90DF90CF90BF90AF909F90AF
:105900008F9008950E94392C089580E091E00E94C4
:10591000392C0895A0E0B0E080930001909301013C
:10592000A0930201B09303010895DC01CB01FC01B7
:10593000F999FECF06C0F2BDE1BDF89A319600B4E8
:105940000D9241505040B8F70895F999FECF92BD9D
:1059500081BDF89A992780B50895A8E1B0E042E0AA
:1059600050E00C94972CDC01A40FB51F415050401F
:1059700048F0CB01840F951F2E910E94C42C4150FA
:105980005040D0F70895262FF999FECF92BD81BDE2
:10599000F89A019700B4021639F01FBA20BD0FB66D
:1059A000F894FA9AF99A0FBE08950396272F0E9449
:1059B000C42C0E94C32C252F0E94C42C242F0C948D
:1059C000C42C0196272F0E94C42C0C94C32C052EA6
:1059D00097FB1EF400940E94FE2C57FD07D00E94F6
:1059E000192D07FC03D04EF40C94FE2C50954095D5
:1059F000309521953F4F4F4F5F4F0895909580957B
:105A0000709561957F4F8F4F9F4F08950E943B2D5A
:105A1000A59F900DB49F900DA49F800D911D112402
:105A20000895B7FF0C94062D0E94062D821B930B40
:105A30000895A1E21A2EAA1BBB1BFD010DC0AA1FCF
:105A4000BB1FEE1FFF1FA217B307E407F50720F0E7
:105A5000A21BB30BE40BF50B661F771F881F991F62
:105A60001A9469F760957095809590959B01AC01AB
:105A7000BD01CF010895A29FB001B39FC001A39FB4
:105A8000700D811D1124911DB29F700D811D112477
:105A9000911D0895AA1BBB1B51E107C0AA1FBB1F84
:105AA000A617B70710F0A61BB70B881F991F5A95AA
:105AB000A9F780959095BC01CD01089597FB072E1D
:105AC00016F4009407D077FD09D00E944A2D07FCF8
:105AD00005D03EF4909581959F4F089570956195FE
