:100000000C9495050C94D9050C94F4050C94D90521
:100010000C94D9050C94D9050C94D9050C94D905E8
:100020000C94D9050C94101D0C94FE270C94D90542
:100030000C94D9050C94D9050C94D9050C94D905C8
:100040000C94D9050C94D9050C94D9050C94D905B8
:100050000C94D9057D0C7D0CB80CB80C120D300D2C
:100060003A0E3A0E3B0DAF0DC00DC00D840E860E3C
:100070008E0EC40EDD0E9E0EF80E041308133613FA
:100080004813531378137B13E1132014D814D81496
:100090002F14311435145E14841487148B14B31484
:1000A0009E15A015A415A615A915AC15AE15B3156A
:1000B000B515B715B915BB15BE15C115C515CA15AA
:1000C000CC15CE153A163C16401642164516481663
:1000D0004A164F1651165316551657165A165D16D0
:1000E0006116661668166A16A31EA31EB61EB61EF5
:1000F000AC1EB61EB61EB61EA31EA31EB11EB61E95
:10010000B61EB11E0000000000000000000000004C
:1001100000000000000000000000000000000000DF
:1001200000000000000000007E0F00D4FFFFFFC7AA
:100130000000007800000000000000002A2B2800CA
:100140000000000000000000000000000000002986
:10015000000000002C1E3420212224342627252EC6
:10016000362D3738271E1F202122232425263333FE
:10017000362E37381F0405060708090A0B0C0D0E2A
:100180000F101112131415161718191A1B1C1D2FF6
:100190003130232D350405060708090A0B0C0D0E16
:1001A0000F101112131415161718191A1B1C1D2FD6
:1001B0003130354C1E0F0500047F3F1F643214643C
:1001C0003214783C1E1E140A052223252628292ACB
:1001D0002C2D2F3032333536383A3B3D3E404243AA
:1001E0004547494A4C4E5051535557595A5C5E60E9
:1001F00062646668696B6D6F71737577797B7D7FFB
:1002000081838587898A8C8E90929496989A9C9EF9
:100210009FA1A3A5A7A8AAACAEAFB1B3B4B6B8B915
:10022000BBBCBEBFC1C2C3C5C6C7C9CACBCCCDCE7D
:10023000D0D1D2D2D3D4D5D6D7D7D8D9D9DADADB60
:10024000DBDBDCDCDCDCDCDDDDDDDDDCDCDCDCDCEC
:10025000DBDBDBDADAD9D9D8D7D7D6D5D4D3D2D22B
:10026000D1D0CECDCCCBCAC9C7C6C5C3C2C1BFBE13
:10027000BCBBB9B8B6B4B3B1AFAEACAAA8A7A5A37E
:10028000A19F9E9C9A98969492908E8C8A8987853D
:1002900083817F7D7B79777573716F6D6B6968661C
:1002A0006462605E5C5A5957555351504E4C4A49EE
:1002B00047454342403E3D3B3A3836353332302F96
:1002C0002D2C2A29282625232200000000000000CA
:1002D0000000000001010203040506080A0C0F11CA
:1002E00014181C2024292E33393F464C535B626A74
:1002F0007179818A929AA2AAB2B9C1C8CFD5DCE13C
:10030000E7EBF0F4F7FAFCFDFEFFFEFDFCFAF7F474
:10031000F0EBE7E1DCD5CFC8C1B9B2AAA29A928AC4
:100320008179716A625B534C463F39332E29242010
:100330001C1814110F0C0A08060504030201010021
:1003400000000000000000000000010101010101A7
:10035000010101020202020202020202030303037C
:10036000030303030404040404040405050505054C
:10037000060606060607070707070808080809090A
:1003800009090A0A0A0B0B0B0C0C0C0D0D0D0E0EB5
:100390000E0F0F0F10101111111212131314141548
:1003A0001516161717181819191A1A1B1B1C1D1DBC
:1003B0001E1E1F2020212222232424252626272812
:1003C00029292A2B2C2D2D2E2F3031323233343542
:1003D000363738393A3B3C3D3E3F40414243444545
:1003E000464748494A4C4D4E4F5051535455565824
:1003F000595A5B5D5E5F616264656668696B6C6DCE
:100400006F7072737577787A7B7D7E808283858743
:10041000888A8C8E8F91939596989A9C9EA0A2A381
:10042000A5A7A9ABADAFB1B3B5B7BABCBEC0C2C486
:10043000C6C9CBCDCFD1D4D6D8DBDDDFE2E4E7E946
:10044000EBEEF0F3F5F8FAFDFFFFAA7F5540290027
:100450003A003B003C003D003E003F0040004100B0
:1004600042004300440045004C00680049004A0037
:100470004B00460035001E001F0020002100220016
:10048000230024002500260027002D002E002A002E
:10049000490053005400550048002B0014001A0076
:1004A0000800150017001C0018000C0012001300B3
:1004B0002F00300031004C005F00600061005600EA
:1004C000390004001600070009000A000B000D00A7
:1004D0000E000F00330034002800280000005C00EC
:1004E0005D005E005700E1002C001D001B000600AF
:1004F0001900050011001000360037003800E50033
:10050000E500520059005A005B005800E000E3008B
:100510000000E200000000002C00000000000000CD
:10052000E600E700E400500051004F006200630065
:10053000580001000100010001000100010001005C
:1005400001000100010001000100010001000100A3
:100550000100010001000100010001000100010093
:100560000100010001000100010001000100010083
:100570000100010001000100010001000100010073
:100580000100010001000100010001000100010063
:100590000100010001000100010001000100010053
:1005A0000100010001000100010001000100010043
:1005B0000100010001000100010001000100010033
:1005C0000000010001000100010001000100010024
:1005D0000100010001000100010001000100010013
:1005E0000100010001000100010001000100010003
:1005F00001000100000001000000000001000000F7
:1006000000000000010001000100010001000100E4
:1006100001000100010001000100010001000100D2
:1006200001000100010001000100010001000100C2
:1006300001000100010001000100010001000100B2
:1006400001000100010001000100010001000100A2
:100650000100010001000100010001000100010092
:100660000100010001000100010001000100010082
:100670000100010001000100010001000100010072
:100680000100010001000100010001000100010062
:100690000100010001000100010001000100010052
:1006A0000100010000000100010001000100010043
:1006B0000100010001000100010001000100010032
:1006C0000100010001000100010001000100010022
:1006D0000100010001000100000001000000000015
:1006E0000100000000000000010001000100010005
:1006F00001000100010001000100010001000100F2
:1007000001000100010001000100010001000100E1
:1007100001000100010001000100010001000100D1
:1007200001000100010001000100010001000100C1
:1007300001000100010001000100010001000100B1
:1007400001000100010001000100010001000100A1
:100750000100010001000100010001000100010091
:100760000100010001000100010001000100010081
:100770000100010001000100010001000100010071
:100780000100010001000100000001000100010062
:100790000100010001000100010001000100010051
:1007A0000100010001000100010001000100010041
:1007B0000100010001000100010001000000010032
:1007C0000000000001000000000000000100010026
:1007D0000100010001000100010001000100010011
:1007E0000100010001000100010001000100010001
:1007F00001000100010001000100010001000100F1
:1008000001000100010001000100010001000100E0
:1008100001000100010001000100010001000100D0
:1008200001000100010001000100010001000100C0
:1008300001000100010001000100010001000100B0
:1008400001000100010001000100010001000100A0
:100850000100010001000100010001000100010090
:100860000100010001000100010001000000010081
:100870000100010001000100010001000100010070
:100880000100010001000100010001000100010060
:100890000100010001000100010001000100010050
:1008A0000000010000000000010000000000000046
:1008B0000100010001000100010001000100010030
:1008C0000100010001000100010001000100010020
:1008D0000100010001000100010001000100010010
:1008E0000100010001000100010001000100010000
:1008F00001000100010001000100010001000100F0
:1009000001000100010001000100010001000100DF
:1009100001000100010001000100010001000100CF
:1009200001000100010001000100010001000100BF
:1009300001000100010001000100010001000100AF
:10094000010001000100010001000100010001009F
:100950000000010001000100010001000100010090
:10096000010001000100010001000100010001007F
:10097000010001000100010001000100010001006F
:100980000100010000000100000000000100000063
:100990000000000001000100010001000100010051
:1009A00001000100010005010902A1018502090100
:1009B000A1000509190129081500250195087501EF
:1009C00081020501093009311581257F95027508DD
:1009D000810609381581257F950175088106050C6A
:1009E0000A38021581257F950175088106C0C0056A
:1009F000010980A101850319012AB700150126B755
:100A000000950175108100C0050C0901A101850444
:100A100019012AA002150126A00295017510810076
:100A2000C00660FF0961A1010962150026FF00955B
:100A300020750881020963150026FF0095207508BE
:100A40009102C005010906A101050719E029E71572
:100A5000002501950875018102950175088103053E
:100A600007190029FF150026FF009506750881006B
:100A70000508190129059505750191029501750370
:100A80009103C010034F006C006C00790020004AF5
:100A9000004600000022034D006500630068006C02
:100AA000006F00760069006E002E00530074007520
:100AB00000640069006F0000000403090409025B80
:100AC00000030100A0FA090400000103010100096C
:100AD00021010100012240000705810308000109EE
:100AE000040100020300000009210101000122228B
:100AF0000007058403080001070504030800010935
:100B00000402000103000000092101010001227B11
:100B1000000705830308000112011001000000080E
:100B20004C4D80D101000102000111241FBECFE510
:100B3000D8E0DEBFCDBF04B603FE24C08091B80369
:100B40009091B903A091BA03B091BB038730904B49
:100B5000A740B04BB9F41092B8031092B9031092A9
:100B6000BA031092BB0314BE84B7877F84BF0FB64D
:100B7000F894A89581B5886181BD11BC0FBEE0E0F5
:100B8000F8E3099510E0A0E6B0E0E0E0F6E502C089
:100B900005900D92A03EB107D9F723E0A0EEB0E09A
:100BA00001C01D92A83BB207E1F70E94400F0C94D0
:100BB000FE2A0C940000A82FB92F80E090E041E0BD
:100BC00050EA609530E009C02D918227979587956E
:100BD00010F084279527305EC8F36F5FA8F308955F
:100BE000EADF8D939D930895CF93CFB7CF93DF9393
:100BF000C395839BE9F7839B10C0839B0EC0839BA7
:100C00000CC0839B0AC0839B08C0839B06C0C09115
:100C10006D03C395C0936D038EC06F93C091930312
:100C2000DD27CA56DC4F2F9365E5839B03C02F91C8
:100C30006F91E1CF0F931F934F9320E040E15F93BB
:100C400000B30C7003FB27F93F9350E03BE039C041
:100C50001C7040642F77012F5F5F1EC0406810B387
:100C60001C702F7752501FC0406400B32F770C7058
:100C7000D1F15F5F00C023C0406210B32F771C70BA
:100C800091F15F5F00C025C00C701027515012F425
:100C90005D5F0000115027952C3F10B3C8F61C7003
:100CA0000127015027952C3FC8F64227499300B3EE
:100CB0000C7010274F73115027952C3FA8F64695BE
:100CC000469510B31C7079F00127015027952C3FF1
:100CD00098F66B5A60F3315000B3B0F600C010E8DC
:100CE0001ABF00271CC03B503195C31BD04010E8F1
:100CF0001ABF0881033C21F10B3411F120919103BB
:100D00001981110F1213EDCF4A81441F093679F171
:100D10000D3211F0013E29F74F7009F0042F0093B6
:100D20006C033F915F914F911F910F912F916F91A4
:100D3000CAB7C7FD5DCFDF91CF91CFBFCF911895D7
:100D400020916C03222369F310919403112309F07D
:100D500049C034300AF448C030939403209392037E
:100D6000109193033BE0311B309393033DC00091FE
:100D700094030130BCF50AE54F7049F430917D00D1
:100D800034FD33C000937D00CEE6D3E032C0433063
:100D900059F0443091F03091790334FD26C000932E
:100DA0007903CAE7D3E025C03091AC0334FD1DC000
:100DB0000093AC03CDEAD3E01CC03091850334FD31
:100DC00014C000938503C6E8D3E013C0052710E0E4
:100DD00000C0000002BB1AC0052710E0221F1DC082
:100DE00010E021C04AE502C032ED432FC4E1D0E05B
:100DF00032E011B31C60939A02B311BB5CE020E8AF
:100E000065E320FF052702BB279517951C3FF0F6E9
:100E10006695B8F7B1F720FF052702BB2795179510
:100E20001C3FD0F62795179517FF052700001C3F9C
:100E300002BBB0F629913A9519F7037F10919503FB
:100E4000110FC651D04002BB11F01093910310E86E
:100E50001ABF086011B3137F402F437F54E05A95A7
:100E6000F1F702BB11BB42BB5CCF1F93CF93DF9363
:100E7000CDB7DEB767970FB6F894DEBF0FBECDBF14
:100E80004B8B5C8B6D8B7E8B8F8B61111092740101
:100E900086E09E01235F3F4FD901E82F1D92EA951E
:100EA000E9F795E0FE017396D90101900D929A95AC
:100EB000E1F79C894E895F897B897D879E876F8753
:100EC000598B488BF901DE01179601900D928A9596
:100ED000E1F7CE0107960E94BA1E81113EC086E05E
:100EE000FE013796DE01119601900D928A95E1F789
:100EF000FF81E8856A857B856115710531F0EF3FDB
:100F000031F481E0FF3F19F403C081E001C080E0CB
:100F100080FD23C02091400130E0C9010196877017
:100F200099274091710150E08417950779F1F98371
:100F3000EA837D836C8396E0929FD001939FB00DEE
:100F40001124AF5BBE4FFE01319601900D929A9530
:100F5000E1F7809340010E94441916E080917101ED
:100F6000909140018917F9F0189FC00111248F5BFF
:100F70009E4F0E94BA1E8823B1F08091710190E0CB
:100F800001968770992780937101E8CF0E94D32042
:100F90001092400110927101EAE3F1E086E0DF0176
:100FA0001D928A95E9F767960FB6F894DEBF0FBEDB
:100FB000CDBFDF91CF911F91089581FB222720F9AA
:100FC00082FB992790F980FF02C0C19A01C0C198A5
:100FD000222311F0C09A01C0C098992311F0C29A3F
:100FE0000895C29808953F924F925F926F927F92B8
:100FF0008F929F92AF92BF92CF92DF92EF92FF9229
:101000000F931F93CF93DF93CDB7DEB729970FB61A
:10101000F894DEBF0FBECDBFFC018081918123819A
:101020003481232B31F09F3F31F491E08F3F19F44D
:1010300003C091E001C090E090FDE6C67F0185E02D
:10104000DE01119601900D928A95E1F7F701228158
:1010500089819A81222349F00E94521E182F682FFD
:1010600089819A810E94872003C00E945B20182FEB
:1010700069817A81812F0E943C298C01F70182814C
:10108000882309F4F3C0980122513F4520313105EE
:1010900008F027C687E496E00E94D9298111EFC0A5
:1010A00002513FE7832E35E0932E002381F0F8E4D0
:1010B0008F16F6E09F0609F4E2C0C4010E94D92908
:1010C000811101C001502FEF821A920AEECF1E82C9
:1010D0001F8218861986442443942AE0322E840104
:1010E0000F5F1F4FC4010E94D9298E831F8288235E
:1010F00009F4C5C09FEF980F933060F48F834E8240
:1011000032E0830E911CC8010E94D9298887811181
:1011100002C0B5C048018E010A5F1F4FF80120814F
:101120002223E9F2213009F04CC08181813049F459
:101130006801F2E0CF0ED11CF80182810E9491215A
:101140000AC0823051F46801F2E0CF0ED11CF801E0
:1011500082810E943221860186C0833049F4680171
:10116000F2E0CF0ED11CF80182810E94F320F3CF70
:10117000843019F00F5F1F4F76C0F80122810E5F97
:101180001F4F80E090E030E0205331092A303105D4
:1011900068F4389EA001399E500D1124C901840FB6
:1011A000951F0F5F1F4FF8012081EDCF009709F4C5
:1011B0005AC0EFE9FFE03197F1F700C00000019756
:1011C000F5CFE22FF0E0EC5CFE4F5490822F869535
:1011D0008695869590E0FC01EC5DFE4F649027704B
:1011E000712C022E02C0759467940A94E2F7F1E024
:1011F0006F227724FC01EC5EFE4FA490B12C022EEE
:1012000002C0B594A7940A94E2F731E0A322BB246C
:10121000FC01EC5FFE4FC490D12C02C0D594C79462
:101220002A95E2F781E0C822DD246114710419F0E7
:1012300081EE0E943221A114B10419F086EE0E94C1
:101240003221852D0E949121AB2819F086EE0E9453
:10125000F320672819F081EE0E94F320CD2819F0C1
:101260008CE20E9491210F5F1F4F58CF0031FFE5A4
:101270001F0749F581E00E94B8200E94D725809180
:101280007201877009F4C0C5F7018281882309F4CF
:10129000BBC582E029960FB6F894DEBF0FBECDBF66
:1012A000DF91CF911F910F91FF90EF90DF90CF9042
:1012B000BF90AF909F908F907F906F905F904F9076
:1012C0003F900C94271901312FE5120749F482E071
:1012D000D2CFF801EB5BFC45E730F10508F410C50F
:1012E000033FFCE51F0799F406E221EE40EE63EFB1
:1012F0007CE509C0073DECE51E0711F506E221EE8D
:1013000041EE67ED7CE5C7010E94B928B8CF043FE4
:101310002CE5120708F03FC1083D3CE5130731F406
:1013200007E225EE45EE68ED7CE5EDCF093D9CE555
:10133000190701F708E221E045EE69ED7CE5E3CF0E
:10134000882309F45DC110929C0202309CE51907C4
:1013500008F440C10631ECE51E0730F0C8018A5F91
:101360009C45099708F036C10E9454189093E400F8
:101370008093E3000031FCE51F0709F4C3C008F0C7
:1013800041C008303CE5130709F49AC0F0F404307A
:101390009CE5190709F487C068F40230FCE51F07D3
:1013A00009F477C003301C4509F0E5C08091E300E3
:1013B000826076C006303CE5130709F46EC008F081
:1013C0007BC08091E30088606BC00C309CE51907FE
:1013D00009F485C068F40A30FCE51F0709F474C0FD
:1013E00008F079C00E94D3208091E300806858C043
:1013F0000E303CE5130709F476C008F07FC08091F9
:10140000E3008BC00B3F9CE5190709F44FC018F5AA
:101410000331FCE51F0709F47DC078F401313CE598
:10142000130709F473C002311C4509F0A4C00E94DF
:10143000D3208091E3008F7733C005319CE51907F5
:1014400009F472C008F486C00A3F1C4509F093C035
:101450008091E4003EC00F3F2CE5120709F45FC005
:1014600058F40D3F8CE5180709F444C008F43FC058
:101470008091E40082602DC00130EDE51E0709F483
:1014800075C008F45DC002301D4509F074C060E00D
:101490006EC08091E300816003C08091E3008061B1
:1014A0008093E30068C08091E30011C08091E40064
:1014B00082608093E4005FC08091E3008062F0CF9F
:1014C0008091E3008064ECCF8091E30088608460C9
:1014D000E7CF8160EECF8091E3008E7FE1CF8091F6
:1014E000E3008D7FDDCF8091E300877FD9CF8091AE
:1014F000E40018C08091E4008D7FDBCF8091E30091
:101500008F7ECECF8091E3008F7DCACF8091E300A4
:101510008F7BC6CF8091E300877F8B7FC1CF809187
:10152000E4008D7F8E7FC5CF8091E30082FB222770
:1015300020F991E0922790FB82F990FB83F9B0CFDC
:101540008091E400982F909591708E7F892B90FB6D
:1015500081F9AFCF0E94D3208091E30087FB22273F
:1015600020F991E0922790FB87F99ACF61E08EE015
:1015700090E00E94ED296091E3001091E40084E086
:1015800090E00E94ED29612F82E290E00E94ED2917
:101590000E94D32074CE053FFCE51F0731F406E21C
:1015A00021EE42EE65EF7CE5AECE053F2CE512075D
:1015B00030F407E225EE44EE64EF7CE5A4CE063F6E
:1015C0003CE5130709F0BCCE07E225EE46EE66EFD8
:1015D0007CE599CE8091750106319CE5190741F5AE
:1015E0008A7A91E009F490E09093E200882311F068
:1015F00065E301C069E282E391E00E94672815C0BB
:1016000006311C4509F030C18091E200882309F4BD
:10161000F9C385E3E2E3F1E09281891301C012820C
:10162000319631E0E833F307B9F70E94E01827CE8E
:1016300082720C3C9CE5190709F4C4C008F045C04F
:10164000063CFCE51F0709F4A9C0D8F4033C3CE5BF
:10165000130709F499C030F4023CECE51E0709F4C5
:101660006EC0D1C0043CFCE51F0709F492C0053CE4
:101670002CE5120709F0C7C047EC53E260ED73E2B6
:10168000A5C0093C3CE5130709F492C078F4073C77
:10169000ECE51E0709F487C0083CFCE51F0709F0CC
:1016A000B2C04BEB53E26FEA73E290C00A3C2CE508
:1016B000120709F482C00B3C3CE5130709F0A3C0F4
:1016C0004BE152E26CE272E281C0013D8CE5180709
:1016D00009F488C0A0F40E3CECE51E0709F47CC0B8
:1016E00008F477C00F3C2CE5120709F478C0003DE0
:1016F0003CE5130709F087C06EE089E081C0043D36
:101700008CE5180709F474C068F4023DECE51E0787
:1017100009F46BC0033DFCE51F0709F074C061E0EC
:1017200088E16BC0053D2CE5120709F464C00D3556
:101730003DE5130709F067C06AE285E261C0809168
:10174000A60280FF1BC08E7F8093A6026091A60236
:101750007091A7028091A8029091A9020E9409228B
:101760001092A4028FEF90E7E2E081509040E040B9
:10177000E1F700C000000E94AF2181CD816080931D
:10178000A60261E0869539C044E154E26DE174E25D
:101790001DC04DE154E264E174E218C040ED53E233
:1017A00067EC73E213C04FEA53E26BEB73E20EC0D7
:1017B00047E953E263EA73E209C043EA53E267E9A7
:1017C00073E204C04CE252E26BE172E20E94191E25
:1017D00056CD61E081E011C065E082E011C068E0B3
:1017E00086E00EC064E18FE00BC067E185E108C0D0
:1017F00062E289E105C061E083E20E94D9233FCD26
:101800000E94071E3CCD0A35FDE51F0741F150F44B
:1018100001153CE51307A9F00E3D1C4529F50E9472
:1018200070182DCD0B359DE51907D9F00C351D45E8
:10183000D9F48091E40082FB882780F991E0892720
:1018400011C00E94D320FFEF24E33CE0F150204080
:101850003040E1F700C000000E94EB2710CD81E08E
:1018600001C080E00E940D19F70182810081118181
:10187000882349F0C8010E94521ED82E682FC80143
:101880000E94872004C0C8010E945B20D82EB801A6
:101890008D2D0E943C290E94BA16B82E192F982E21
:1018A000F7010281A580A2949FE0A9228091720194
:1018B000877099F0002389F0812F807F803421F098
:1018C00080E28B0D883048F082E00E9427198091D9
:1018D00072018770DD24D3948111D12CC12EC29462
:1018E0008FE0C8228C2D90E08C30910508F0C2C1A9
:1018F000FC01E65DFF4F0C94D52A812F807F1F707D
:10190000882311F01295107F0023B9F0112309F4F8
:101910009DC180E28B0D883010F0911006C080913F
:101920007501182B1093750105C080917401182B57
:10193000109374010E94E01889C18B2D0E94F3203E
:10194000112309F497C180E28B0D1095883010F0B7
:10195000911006C08091750118231093750105C080
:10196000809174011823109374010E94E01882C1C1
:10197000812F807F1F70803211F01295107F8B2D88
:10198000992021F0F1E09F1611F130C00023B1F051
:10199000AA2081F021E0A2120DC08091E40082FD16
:1019A00069C180917601182B181709F463C110934F
:1019B000760160C180917601812B10C0AA2021F0B0
:1019C00031E0A31609F456C10E94DA1827C000239B
:1019D00041F085E08A1508F44DC1812F0E94E9206D
:1019E00049C194E09A1508F445C118C0002349F094
:1019F000AA2099F3F701858180FF28C18F70858324
:101A0000ECCFAA2059F0893309F031C1FFEF27EE5E
:101A100033E0F15020403040E1F727C1812F0E9490
:101A2000DE2028C1812F86958695837019F081303C
:101A300061F020C1002321F08B2D912F937002C003
:101A400080E090E00E9497281DC1002321F08B2D9B
:101A5000912F937002C080E090E00E94812812C113
:101A60008B2D002319F00E940A2502C00E945124E8
:101A70000E94272407C1812F8370A9F50111FEC0A0
:101A80004B2D429546954770440F440F8B2D8F7018
:101A900090E09C01042E01C0220F0A94EAF7B4FEE4
:101AA00008C08FE090E001C0880F4A95EAF7809562
:101AB00001C080E0169516951370123069F088F415
:101AC00090917701113019F0822B892302C0922B5B
:101AD000892B0E94CF20D2C0822B90917701892739
:101AE000F8CF822BF6CF002319F0812F817001C02F
:101AF0008695882309F4C2C04B2D429546954770C0
:101B0000440F440F8B2D8F7090E09C01042E01C078
:101B1000220F0A94EAF7B4FE08C08FE090E001C0FB
:101B2000880F4A95EAF7809501C080E016951695D2
:101B30001370123059F078F490916B03113019F052
:101B4000822B892309C0922B892B06C0822B90916E
:101B50006B03892701C0822B0E94B2208FC01F70A7
:101B6000002339F0812F0E94C4208B2D0E94E92090
:101B700085C08B2D0E94DE20812F0E94B8207EC060
:101B80008B2D92EF991659F1991538F0E0EF9E16CA
:101B900059F0F1EF9F16F1F055C023EF921631F195
:101BA00034EF931681F14EC0002379F084E08A155A
:101BB00008F460C01F7181E090E001C0880F1A95A1
:101BC000EAF790916B0389271BC095E09A1508F4FA
:101BD00051C0F0CF002329F0812F8F7126C0002340
:101BE000D9F3812F8F710E94B82044C0002339F0AF
:101BF0001F7181E001C0880F1A95EAF701C080E0EB
:101C00000E94B22037C0002399F01F71812F0E94DB
:101C1000C4208091E40082FD07C0E8E01E9FC0015F
:101C20001124836080937201812F0E94C42022C0FE
:101C300081E00E942719F1E0FA15E0F482E00E94A9
:101C4000271918C0002331F0AA2031F28B2D0E94F1
:101C5000322110C0AA2029F2893349F42FEF37EE40
:101C600083E0215030408040E1F700C000008B2D20
:101C70000E94F32088EF8C0D843020F40E94AD2860
:101C80000E94DD07DD2009F4BFC08091720180FD54
:101C9000BBC0F70112828595859585950E94C42069
:101CA000C7010E94F30780917201859585958595FE
:101CB00029960FB6F894DEBF0FBECDBFDF91CF914E
:101CC0001F910F91FF90EF90DF90CF90BF90AF905A
:101CD0009F908F907F906F905F904F903F900C946B
:101CE000B82000313FE5130711F481E006C001314F
:101CF0009FE5190709F0EDCA82E00E94C420BDCA21
:101D0000EA5CFF4F0C94D52A83E001C080E00E947A
:101D1000C31D80915C020E94971DB1CA80915C0234
:101D2000982F96959695969549F1915E990F990FF2
:101D3000990F8770892B80935C0214C090915C028C
:101D4000892F8695869586958F5F8F7197708430E1
:101D500008F04BC0880F880F880F892B80935C0296
:101D600080915C02887F91E009F490E080915C02B0
:101D700090FB80F980935C020E94971D80915C0229
:101D800086958695869523C020915C02822F869544
:101D900086958695482F50E04330510554F48F5F67
:101DA000982F990F990F990F822F8770892B809305
:101DB0005C0280915C028160DDCF80915C0280FFDB
:101DC00009C08E7F80935C020E94971D80E00E9474
:101DD000711D55CA816080935C02813019F489E0DD
:101DE00080935C0280915C02C7CF90935C02B8CF75
:101DF00080915C0281FF03C00E949C1D40CA0E942A
:101E0000B01D3DCA89E206CC29960FB6F894DEBF14
:101E10000FBECDBFDF91CF911F910F91FF90EF903B
:101E2000DF90CF90BF90AF909F908F907F906F90FA
:101E30005F904F903F900895882321F081FF02C06A
:101E4000919A03C09198882321F082FF02C0909A52
:101E500003C09098882321F083FF02C0A99A03C091
:101E6000A998882321F084FF02C0A89A03C0A898EB
:101E7000882321F085FF02C0AE9A0895AE98089598
:101E8000CF93DF93CDB7DEB760970FB6F894DEBF80
:101E90000FBECDBF0E943328909331018093300153
:101EA00084B7806884BF84B7806884BF82E395E18B
:101EB0009093E1008093E00085B7886085BF8BB781
:101EC00080688BBF8BE480937A038093AD0380930B
:101ED00086038AE5809379038093AC03809385031E
:101EE0008B9A80E0815041F0A895AFE9BFE011974F
:101EF000F1F700C00000F6CF8B9878948BE083BF99
:101F00008AEF8CBF82E089BF0E94F71C811102C05A
:101F10000E94E81CAA9AAB9AAD9AC498AF98D89A36
:101F2000D99ADA9AAEE7B0E041E050E08D91E82F1F
:101F3000E295EF70F0E021A98F70BA0102C0660F40
:101F4000771F8A95E2F7CB01962F9095922391AB5C
:101F500092A9892B82AB70E0A438B70739F7D09AE1
:101F6000D19AD29ABC9AA79AA29AA39AA59AE5EE78
:101F7000F0E0A8E1B1E011921192119211921D923C
:101F80001D921D921D9280E0ED3FF807A1F70E947F
:101F90006518811102C00E94701882E090E00E94D2
:101FA000D9298093FF000E9454189093E4008093F5
:101FB000E3000E947715AFE3BCE91197F1F700C089
:101FC00000000E9477158091180180FF08C06FEF14
:101FD0007FEF80E090E00E940A2A0E94EB2783E0D6
:101FE00090E00E94D9290E94CF2080916B030E942B
:101FF0001C0FA09A889A899AA19AA69AB89AB99A17
:10200000BA9A8C9A949882E28FBD89E18EBD8FEF47
:102010009FEF97BD86BD0E94DC1D80915C0281FF11
:1020200009C010925F0210925E0210925D0289B7A1
:10203000846089BF0E94DC1D8091FD00811133C046
:102040000E946518811104C00E9470180E943D22F0
:1020500088E090E00E94E1296093A6027093A702B5
:102060008093A8029093A9026E7F71F40E943D2292
:1020700088E090E00E94E1296093A6027093A70295
:102080008093A8029093A9020E94F6211092A402C4
:102090008091A60280FF04C060E086950E94D9234B
:1020A00081E08093FD0084E690E09093A00280930D
:1020B0009F02BFEFE0E7F2E0B150E040F040E1F70F
:1020C00000C0000022242A94312C80916D038823C3
:1020D00049F110926D030E9433289093310180934F
:1020E00030018091AC02882309F449C01092AC02FF
:1020F0000E94D3200E94DC1D0E94AD280E94DD07B3
:102100001092AB028091A502882349F08091A6022B
:1021100081608093A60260E086950E94D9230E9488
:102120001F1E11C08091AC02811111C0809130013D
:10213000909131010E942428069728F081E0809335
:10214000AC020E943F288091AC028823C1F081E05C
:102150008093AC020E943F280E94771580E391E0B3
:10216000E8E1F1E04191519161917191452B462B4C
:10217000472B09F046C48E179F07A1F7A6CF0E94F0
:10218000E22580916303882309F41EC280917903BC
:1021900084FF1AC20E947715882359F08FB7F894EC
:1021A0004091AD025091AE026091AF027091B002C9
:1021B0008FBFA0E0B1E0E8E1F1E000E010E0902F97
:1021C00041905190619071904D915D916D917D9193
:1021D000442555256625772541155105610571056D
:1021E00009F443C080E0812C912C540183946A014E
:1021F0007B01C820D920EA20FB20CD28CE28CF287B
:1022000069F18F839887482059206A207B2081E0DC
:1022100045284628472809F480E089870E9433280A
:102220008160782F9B878A874F81588569858B8548
:102230000E943507000F111F000F111FF801E05019
:10224000FF4F80819181A281B38188269926AA2699
:10225000BB2680829182A282B3821DC08F5F880CD0
:10226000991CAA1CBB1C833111F60F5F1F4F06304F
:10227000110509F0A4CF8FEF8C878D871E860E94F1
:1022800033288160782F988B8F874C855D856E858C
:1022900088890E9435078091A402882309F4A5C08B
:1022A0008091A302E091A602E695E81BE0937D01F0
:1022B000823059F4F0E0EB53FE4FE4910E2F10E022
:1022C00090E9A92E9CE1B92E6BC0863059F4F0E05C
:1022D000EE53FE4FE4910E2F10E080E8A82E8CE123
:1022E000B82E5EC0893061F4E695F0E0E154FE4F0F
:1022F000E4910E2F10E0B6E1AB2EBCE1BB2E50C036
:102300008F3061F4E695F0E0E454FE4FE4910E2F37
:1023100010E0A9EAAA2EABE1BA2E42C0853159F4E9
:10232000F0E0E754FE4FE4910E2F10E0FBE5AF2EF6
:10233000FBE1BF2E35C08831F9F0833249F4E7EB79
:10234000F1E005911491E0E4AE2EECE1BE2E28C040
:102350008432C9F08532F1F48E2F63E00E94932A13
:10236000E92FF0E0EC54FE4FE4910E2F10E077EFF0
:10237000A72E79E1B72E14C008E210E062EDA62E78
:102380006AE1B62E0DC004EF11E058E9A52E5AE11E
:10239000B52E06C000ED17E046EFA42E49E1B42E9D
:1023A00080917E01882361F010927E010E94332883
:1023B00090937C0180937B011092800110927F01A9
:1023C0000E943328E0917B01F0917C018E1B9F0BD2
:1023D0008F3F9F4750F40E0F1F1F10937C010093F7
:1023E0007B018BE791E0F501099586E0E4E9F2E0F5
:1023F000DE01119601900D928A95E1F7A090960268
:10240000B090970200919802109199021092960252
:10241000109297021092980210929902A11003C094
:10242000BB2009F451C080919202909193020E94C6
:1024300024289C0190918E02992309F409C3233327
:10244000310508F441C09F3F19F09F5F90938E02C1
:10245000AA2061F00E94EA241A1414F491E001C049
:102460009FEF899F802D112480939602BB2061F0FD
:102470000E94EA241B1414F491E001C09FEF899F8D
:10248000802D112480939702309196023323E1F03E
:10249000209197022223C1F045EB3403C00111249F
:1024A000992319F09093960203C081E080939602DD
:1024B00065EB2603C0011124992319F0909397022C
:1024C00003C081E080939702011103C0112309F436
:1024D00051C080919002909191020E9424289C0109
:1024E00090918D02992309F4B8C22536310508F47C
:1024F00041C09F3F19F09F5F90938D02002361F0D0
:102500000E94C824101614F491E001C09FEF899F27
:10251000802D112480939802112361F00E94C82419
:10252000111614F491E001C09FEF899F802D1124B2
:1025300080939902309198023323E1F0209199021F
:102540002223C1F075EB3703C0011124992319F040
:102550009093980203C081E08093980235EB2303A7
:10256000C0011124992319F09093990203C081E0CE
:10257000809399028091960281110BC080919702FD
:10258000811107C080919802811103C08091990246
:1025900081110E942724AB82BC820D831E8386E0BA
:1025A000FE013196A4E9B2E001900D928A95E1F71F
:1025B0000E94AD289091FE00891731F00E94AD284D
:1025C0008093FE000E94DD070E9490270E94E22572
:1025D00080916303882309F478CD8091AC0384FF54
:1025E00074CD80915903803209F06FCDE0913903A9
:1025F0008E2F90E0FC013197E331F10508F0D8C14E
:10260000E35CFF4F0C94D52A10923A0389E010C185
:1026100080913A03823009F40EC2833099F0813000
:1026200009F0C6C12FB7F8948091AD029091AE0227
:10263000A091AF02B091B0022FBFB0933B03A09323
:102640003C032EC0E9E3F3E028E131E0D9014D91EC
:102650005D916D917D919D01628353834483339697
:102660006BE473E06E177F0789F7A5C180913A0389
:10267000823009F09DC160913B0370913C038091D1
:102680003D0390913E030E94DB2A86E290E02DC03C
:1026900040913C0360913B0380913A030E94A41C4B
:1026A00090933D03D2C1A0903D03B0903E03BA2465
:1026B000AB24BA2480913C0300913B0390913A03F0
:1026C00076E2079F80011124A4EE9A9F000D111D50
:1026D0001124080F111D080F111D6B2DC8018796BD
:1026E0000E94ED296A2DC80188960E94ED2963C1D8
:1026F0000E94492960C180913A03893019F08A30DB
:1027000071F016C080913B03B3E08B9FC001112490
:10271000B1010E94AD2A862F0E94C31D09C080917D
:102720003B03811103C00E949C1D02C00E94B01D8A
:1027300080913A038138C9F058F4803809F03BC1E0
:1027400020E040913B036091A8028091A70236C02F
:10275000823879F1833809F02EC120E04091A90236
:1027600060913C0380913B0329C060E080913B0372
:102770000E94D92390913B038091A602911111C030
:102780008E7F8093A6021092A402EFEFF0E722E082
:10279000E150F0402040E1F700C000000E94AF216E
:1027A0000AC181608093A60260E086950E94D923C9
:1027B00002C180913B038093AA02FDC00E94FC22CB
:1027C000FAC080913A03893039F08A30A9F48091B7
:1027D0005C02869581702CC080915C0286958695FE
:1027E00086953FEF839FC001112463E070E00E9453
:1027F000AD2A60933B03DFC08138A9F030F4803804
:1028000009F0D9C08091A90213C08238B1F0833891
:1028100009F0D1C08091A70280933B038091A80268
:1028200080933C03C8C08091A60280FF04C08695B7
:1028300080933B03C0C080E0FBCF8091AA02F8CF19
:1028400080915C020E94971D6091A6027091A70280
:102850008091A8029091A9020E940922ACC080E157
:1028600057C010923A0389ECE3CF00913A031091DC
:102870003B0310270127102780903C03912C39E35C
:10288000A32E33E0B32EC80181589A4F95012953E6
:1028900033402815390508F08EC0093C110530F485
:1028A0000E94D929D50114968C9302C0F501148297
:1028B0000F5F1F4FFFEFAF1ABF0AE5CF00913A033A
:1028C00010913B0310270127102780903C03912C87
:1028D00029E3A22E23E0B22EC80181589A4F950118
:1028E000295333402815390508F065C0093C110506
:1028F00028F4D50114966C910E94ED290F5F1F4FAB
:10290000BFEFAB1ABB0AE8CF0E942C2954C086E067
:1029100080933A0350C000913A0310913B03102773
:102920000127102780903C03912C99E3A92E93E076
:10293000B92EC801879695012953334028153905CA
:10294000D0F50835E5E01E0730F40E94D929D501FD
:1029500014968C9302C0F50114820F5F1F4FFFEF96
:10296000AF1ABF0AE6CF00913A0310913B0310273C
:102970000127102780903C03912C89E3A82E83E047
:10298000B82EC8018796950129533340281539057B
:1029900090F4083525E0120728F4D50114966C91BF
:1029A0000E94ED290F5F1F4FBFEFAB1ABB0AE9CFA3
:1029B0008FEF8093390309E313E08091850384FD51
:1029C00003C00E94E225F9CF45E853E068E0C80162
:1029D0000E943927085F1F4FE3E009351E0769F79A
:1029E0008091850384FD03C00E94E225F9CF45E86C
:1029F00053E060E080E090E00E9439271092590394
:102A000064CBF89421B3939A822F8C6081BB92B3EC
:102A10008CE0982792BBFFE738E341E0F15030406B
:102A20004040E1F700C0000092B3892782BB21BB80
:102A3000939878944ACB86E290E00E94D92910922C
:102A40003B0310923C0310923D0380933E03B3CFAF
:102A50002D32314008F0F9CC37CD2D32314008F01D
:102A60004ACD88CD80E008959091E30092FF0DC09B
:102A7000282F2871283019F4877F846006C0282FFA
:102A80002471243011F48B7F886093FF0DC0282FB0
:102A90002871283119F4877E846106C0282F24719B
:102AA000243111F48B7E88612091E40020FF0DC059
:102AB000382F3871383019F4877F816006C0382F7D
:102AC0003171313011F48E7F886021FF0DC0282FC5
:102AD0002871283119F4877E816106C0282F217161
:102AE000213111F48E7E886194FD877E08952F92A6
:102AF0003F924F925F926F927F928F929F92AF928E
:102B0000BF92CF92DF92EF92FF920F931F93CF93DA
:102B1000DF9300D000D000D0CDB7DEB780E090E0EA
:102B20001D82882E912CF4013197E231F10520F4B9
:102B3000E05BFF4F0C94D52AD89809C0D8980AC0FA
:102B4000D898D99ADA980DC0D89809C0D89AD99847
:102B5000F9CFD89AD99804C0D89AF3CFD89AD99AED
:102B6000DA9AC49A1CC0D89A07C0D89808C0D898D6
:102B700009C0D8980BC0D898D99A05C0D89AD998C6
:102B800006C0D89AD998DA9A03C0D89AD99ADA980E
:102B9000AF9A05C0AA9803C0AB9801C0AD9820EACF
:102BA0002A95F1F701E010E020E030E0082E04C0A3
:102BB000000F111F221F331F0A94D2F768017901F9
:102BC000C094D094E094F0944EE750E05A83498347
:102BD00045EE242E40E0342EF1011E82FC83EB836F
:102BE0004081518162817381A981BA817D90BA83CC
:102BF000A983A72DA295AF70B0E0D096AC914A2ED4
:102C0000512CB72DBF707B2ED20102C0B595A79570
:102C10007A94E2F72A013B01A0FD05C0402A512A1F
:102C2000622A732A04C04C205D206E207F204082DF
:102C30005182628273823496AB81BC814D905D90EB
:102C40006D907C90441555056605770511F0B1E04F
:102C5000BE834DEF50E04E175F0709F0BFCFF40180
:102C60003197E231F10520F4EE59FF4F0C94D52A4B
:102C7000D89A09C0D89A0AC0D89AD998DA9A0DC0B9
:102C8000D89A09C0D898D99AF9CFD898D99A04C0B7
:102C9000D898F3CFD898D998DA98C4981CC0D89807
:102CA00007C0D89A08C0D89A09C0D89A0BC0D89A39
:102CB000D99805C0D898D99A06C0D898D99ADA98E0
:102CC00003C0D898D998DA9AAF9805C0AA9A03C0D9
:102CD000AB9A01C0AD9A5D81AE815A2B5D8301969E
:102CE0008331910509F01DCF552349F081E0809390
:102CF0007A010E9433289093790180937801809122
:102D00007A018823E9F080917801909179010E94FD
:102D100024280597A8F028E131E0F10181919191F3
:102D2000A191B1911F01F90181939193A193B19365
:102D30009F01FDEF2F16F0E03F0679F710927A0120
:102D40008D8126960FB6F894DEBF0FBECDBFDF9102
:102D5000CF911F910F91FF90EF90DF90CF90BF9098
:102D6000AF909F908F907F906F905F904F903F902B
:102D70002F900895CF93DF938238910569F1B0F4D5
:102D80008133910509F46FC048F48932910509F443
:102D900065C08A32910509F46BC08AC085339105FC
:102DA00009F457C089339105B9F082C0833E91057B
:102DB00071F138F4803E9105B1F0823E910511F138
:102DC00077C0863E9105B9F1873E9105C9F1843EF1
:102DD000910509F06DC024C02091E30020FD53C08F
:102DE00021FD51C065C08091E30080FD46C0809107
:102DF000E40080FF48C08091E30084FD50C183EE71
:102E000090E04FC18091E30082FF3AC0F4CF8091FF
:102E1000E30082FD35C08091E40080FD34C0EBCF3B
:102E20008091E40081FF35C08091E30084FD37C1CB
:102E300087EE90E036C18091E30083FF27C0F4CF96
:102E40008091E30083FD22C08091E40081FD21C0D8
:102E5000EBCF8091E30085FD1FC021C08091E3008E
:102E600085FD1DC019C08091E30086FD1BC01DC0FB
:102E70008091E30086FD19C015C089E390E011C17F
:102E800082EE90E00EC180EE90E00BC186EE90E005
:102E900008C184EE90E005C189E290E002C185E3BB
:102EA00090E0FFC08AE290E0FCC081E390E0F9C0CE
:102EB000811531E5930708F069C0811540E5940755
:102EC000F0F09C0174E0369527957A95E1F7922F02
:102ED0009370482F437021E030E002C0220F331F6F
:102EE0004A95E2F73C68392B982F9F7096959695F6
:102EF00040E2949FC0011124822B932BD2C0883EC4
:102F0000910568F5803E910508F0CBC0883A91059F
:102F1000B8F4853A910548F0855AE82FF0E0EC576F
:102F2000FF4F808190E09064BCC08130910509F42E
:102F3000B3C008F4B4C08430910508F4B0C0B1C087
:102F40008F3B910508F0ABC0885AE82FF0E0EE0FF8
:102F5000FF1FE957FF4F808191819464A2C08115C2
:102F600020E2920758F4811531E0930708F099C0E8
:102F7000803F910508F493C0906593C0811540E4AB
:102F8000940708F48CC09F70906A8BC0811525E56A
:102F9000920708F042C0811534E5930728F0982F76
:102FA0008827846F906A7DC0811543E59407B0F04F
:102FB0009C012370332741E050E002C0440F551FAD
:102FC0002A95E2F7282F2695269580E2289F9001E2
:102FD0001124CA01822B932B9A6863C0811522E5C4
:102FE000920728F4982F8827816F906A5AC09C0115
:102FF0002370332741E050E002C0440F551F2A954B
:10300000E2F7282F2695269580E2289F900111242B
:10301000CA01822B932B9C6844C0EC01811539E5D1
:103020009307A8F48115984528F09C2F8827806F76
:10303000906A37C0C11586E5D80788F58C2F0E94A5
:1030400034158F7190E0982F882790622AC08115DF
:103050002AE5920790F48C2F8F700E94341594E02B
:10306000D695C7959A95E1F7CF70D0E0DC2FCC27A5
:10307000D0699E01282BC90114C090568115904239
:1030800070F48D2F8F710E943415282F2F71CE016F
:1030900099279062922B05C081E090E002C080E009
:1030A00090E0DF91CF910895CF9384E090E00E946B
:1030B000D929C82F82E290E00E94D9292C2F30E034
:1030C000A901582BCA01CF91089580E090E00E9499
:1030D000E729893E9E4F11F40C94F71C80E0089577
:1030E00069EE7EEF80E090E00E940A2A60E082E0D4
:1030F00090E00E94ED2960E083E090E00E94ED29DD
:103100001092770160E084E090E00E94ED2960E099
:1031100082E290E00E94ED2960E085E090E00E946C
:10312000ED2960E086E090E00E94ED296FEF87E0F6
:1031300090E00E94ED2940E050E0BA0188E090E084
:103140000E94FE2960E08DE090E00E94ED2940E0C1
:1031500050E0BA0188E190E00E94FE2960E087E13A
:1031600090E00E94ED2940E050E0BA018CE190E04F
:103170000E94FE2960E070E080E290E00E940A2A4E
:1031800040E050E0BA0188E190E00E94FE2980E032
:103190000E94CA1C0E94E81C40E050E0BA018FE087
:1031A00090E00E94FE2940E050E0BA0183E190E007
:1031B0000C94FE2980917601811110927601089578
:1031C0009091750180917401892B20917301982F42
:1031D000922B9093320180917601882389F0892B7C
:1031E00080933201E4E3F1E097E080E0915029F030
:1031F00021912223D9F38F5FF9CF81110E94DA1830
:10320000E0919F02F091A002309731F00280F381AB
:10321000E02D82E391E009940895CF93C091E400FA
:10322000C2FB992790F9981781F080FBC2F9C093EF
:10323000E4006091E30084E090E00E94ED296C2FAF
:1032400082E290E0CF910C94ED29CF9108952091E6
:1032500072018095822380937201982F977041F4B8
:1032600030E0482F082E000C550B2417350721F4A9
:103270009091E40092FF07C08595859585950E9401
:10328000B8201092720108958091710190914001CF
:10329000891719F08F5F8770FBCF08950F931F93E5
:1032A000CF93DF9380913F0182958F7009F05DC0CD
:1032B00080913C01882309F458C0809171011091DC
:1032C000400160913A0170913B01C0913D01D09164
:1032D0003E0191E06F3F09F090E0292F06E0811751
:1032E00009F443C0209721F07F3F21F030E003C074
:1032F00031E001C0322F90E030FD34C0089FF00172
:10330000099FF00D1124DF01AF5BBE4F11963C9178
:103310001197371327C03C91361324C012963C9165
:10332000129731111FC013964D915C9114974C1B4D
:103330005D0B483C5105B0F480913F018F70806176
:1033400080933F01EA5BFE4F80818F7080618083B4
:103350008AE391E00E94F307DF91CF911F910F91D3
:103360000C94441901968770BACFDF91CF911F91C9
:103370000F910895CF92DF92EF92FF928C3724E164
:10338000920728F469E070E00E94AD2A29C0A0E00D
:10339000B0E08A50974DAF4FBF4F6627782F892FE7
:1033A0009A2F25EF38E241E050E00E94522A69014D
:1033B0007A01CA01B9010E94832A9B01AC01C701AD
:1033C000B6010E94832ABB27A92F982F872F009729
:1033D00021E0A207B10511F0BC0102C06FEF7FEF41
:1033E000CB01FF90EF90DF90CF90089508959F92CA
:1033F000AF92BF92CF92DF92EF92FF920F931F9303
:10340000CF93DF93FC01A280948081E08483E9EC78
:10341000F1E0B490E8E4F2E0E491C5EDD1E0F4E845
:10342000EF2EF1E0FF2ECC24CA94D12CEB190E2FF5
:1034300010E022E02A1530F08091A7028883809165
:10344000A8028983911003C01B821A8255C08B8108
:103450008823F9F081508B832FEF829FC0011124C4
:103460006C8170E00E94AD2AFB01FF27E753FE4FFD
:103470008491E82FEB192FEFE29FC0011124B801CE
:103480000E94AD2A8091A902689FB00111247A831D
:1034900033C00E94C9292091A9022695215830E005
:1034A000A901440F551F322F2227240F351F232F28
:1034B00033278217930704F582E08A1588F40E9467
:1034C000C929B6010E94C12A88830E94C929209176
:1034D000A8022695622F70E00E94C12A280F298336
:1034E0001A828091A902843120F0893C18F088EC7E
:1034F00001C084E18C838B8397014A816981888133
:103500000E944C22259623E0E20EF11C82E0CC358D
:10351000D80709F08ECFDF91CF911F910F91FF90C7
:10352000EF90DF90CF90BF90AF909F900C94AF2121
:10353000EF92FF920F931F93CF93DF938C01C4E818
:10354000D1E0E12CF12CF8018481FDE0EF16F104CB
:103550001CF4882339F002C0811104C09E014091FF
:10356000A90202C09E0140E06091A8028091A702DA
:103570000E944C228FEFE81AF80A23969BE1E91685
:10358000F10409F70E94AF21F801848190E00196CF
:10359000817099278483DF91CF911F910F91FF90C4
:1035A000EF9008958F929F92AF92BF92CF92DF9249
:1035B000EF92FF920F931F93CF93DF93EC014C8117
:1035C000042F10E09801D8010E94742A9B01AC01DD
:1035D0000E943F2A6B017C01E0E2F0E0E01BF10B6E
:1035E000A5E5B0E09B01AC010E943F2A4B015C01C4
:1035F0009F01DF010E94E22A9B01AC010E944A2A3E
:103600009B01AC012C0D3D1D4E1D5F1DC501B4017C
:103610000E94522A822FF22E99E2921728F093E00C
:10362000299F900111240DC025E530E0281B3109A8
:10363000C901880F991F280F391F37FF02C02F5F5C
:103640003F4F35952795122F109594E8C92E91E09C
:10365000D92E00E085E5E82EEF1801FD02C08E2D81
:1036600001C08F2D9601412F6091A8020E944C222B
:103670000F5F83E0C80ED11C0B3179F70E94AF2198
:103680008C81811102C091E003C0803219F49FEF58
:1036900090937B0090917B00890F8C83DF91CF9179
:1036A0001F910F91FF90EF90DF90CF90BF90AF9060
:1036B0009F908F9008950F931F93CF93DF93C4E84B
:1036C000D1E0FE01118210821282339681E0E53D45
:1036D000F807C1F700E010E080918201082E000C8D
:1036E000990B0817190794F080917A00082E000CA6
:1036F000990B8017910754F09E014091A9026091A7
:10370000A8028091A7020E944C2203C0198218824D
:103710001A820F5F1F4F23960B311105E9F60E94A5
:10372000AF218091790090918201980F909382014E
:1037300020917A00280F20937A00121614F49A31FF
:103740001CF0819580937900DF91CF911F910F91AB
:103750000895BF92CF92DF92EF92FF920F931F9343
:10376000CF93DF93FC01828180FF03C0DD24DA94D4
:1037700002C0DD24D39404E811E0C0E0D0E02BE1E6
:10378000B22EF80111821082128294E0E92EF12CFF
:10379000C12C809181018C0D8C312CF06B2D0E94FD
:1037A0009F2A892F02C087FD855E082E000C990B89
:1037B000C817D90791F48091A9028E9DA0018F9D11
:1037C000500D112455954795559547959801609151
:1037D000A8028091A7020E944C22CD0CF1E0EF1AC2
:1037E000F108B9F621960D5F1F4FCB31D10549F68F
:1037F0000E94AF218091810191E0D91206C0811110
:1038000002C08AE107C0815005C090E00196BE0168
:103810000E94C12A80938101DF91CF911F910F9166
:10382000FF90EF90DF90CF90BF900895EF92FF92BE
:103830001F93CF93DF93EC0184E8E82E81E0F82E0C
:1038400010E08C8197014091A9026091A802810F3C
:103850000E944C22175F83E0E80EF11C133F89F7AA
:103860000E94AF219A818C8190FF02C08F5F01C0BE
:1038700081508C83DF91CF911F91FF90EF9008953D
:103880000F931F93CF93DF9300D01F92CDB7DEB776
:103890008C018091830181110AC09E012F5F3F4FEF
:1038A0004FEF6FEF0E944C228A8180938301F801D1
:1038B0008481813051F028F0823061F4409183019D
:1038C0000AC08091830140E007C06091830140E01D
:1038D00080E003C040E080E060E00E94E521F80164
:1038E000848190E0019663E070E00E94C12A8483A5
:1038F0000F900F900F90DF91CF911F910F9108952E
:10390000CF93DF93EC01E6EAF2E0438162818C81A0
:103910000E94E2228C818F5F8C83DF91CF9108958A
:10392000CF93DF93EC01EC81F0E0E753FE4F44913D
:10393000E6EAF2E0628181810E94E2228C818F5F5F
:103940008C83DF91CF9108950F931F93CF93DF93D3
:10395000C42FD0E0CC0FDD1F26E2629FC00DD11D29
:10396000112434EE839FC00DD11D1124CE01879602
:103970000E94D929082F10E0102F0027CE01889629
:103980000E94D9299801282BC901DF91CF911F915D
:103990000F910895CF93C82F811102C06FEF01C01E
:1039A00061E283E290E00E94ED29C11102C06FEF55
:1039B00001C060E184E290E00E94ED29C11102C0E3
:1039C0006FEF01C060E185E290E0CF910C94ED29AA
:1039D00080E00E94CA1C60E086E290E00E94ED292F
:1039E0000E9449290E942C2981E00C94CA1C83E280
:1039F00090E00E94D929813281F484E290E00E9413
:103A0000D929803151F485E290E00E94D92991E0D2
:103A1000803109F090E0892F01C080E08170089525
:103A20001F920F920FB60F9211242F933F934F9333
:103A30005F936F937F938F939F93AF93BF93EF9316
:103A4000FF9380915E0290915F02019668EB75E0B2
:103A50000E94AD2A90935F0280935E026BE070E05B
:103A60000E94AD2A6F7780915D02823019F4603434
:103A700041F404C0813029F46F3719F489B78B7F82
:103A800089BFE62FF0E0E753FD4FE49121E031E0FC
:103A9000E29FC001E39F900D112463E070E00E945B
:103AA000AD2A80915C02869586958695282F269F63
:103AB000C001279F900D11240E94BA1999BD88BD9D
:103AC000FF91EF91BF91AF919F918F917F916F91F6
:103AD0005F914F913F912F910F900FBE0F901F90CC
:103AE0001895843038F4811106C09FB59F7D9FBD25
:103AF000949804C083E09FB590629FBD282F30E06A
:103B0000AFEFBFEF0E94742A23E030E040E050E0C6
:103B10000E94522AB42FA32F922F8827892F9A2FE1
:103B2000AB2FBB270E94BA1999BD88BD0895682F95
:103B300086E090E00C94ED2980915C0281FF0FC03B
:103B40008D7F80935C020E94971D89B78B7F89BF10
:103B500080915C028695869586950C94711D0895DA
:103B600080915C0281FD0EC0826080935C020E94A5
:103B7000971D10925F0210925E0210925D0289B74B
:103B8000846089BF0895843008F083E090915C02DE
:103B90009770282F220F220F220F922B90935C02F6
:103BA000987F21E009F420E090915C0220FB90F9DD
:103BB00090935C020C94711D0E94651881110AC0DB
:103BC0000E94701880915C028470896180935C020D
:103BD0000E94971D86E090E00E94D92980935C02A4
:103BE000282F26952695269530E02430310524F09F
:103BF0008770886180935C0280915C0280FF04C0C2
:103C000086958695869501C080E00C94711D9091F3
:103C1000A60290FF04C09695981740F003C081114A
:103C200005C090E0961710F40C941D2461E00C94EC
:103C3000D923882311F0FA0101C0FB010994609196
:103C4000A602669570E04BE050E08EE690E00E94A0
:103C5000F12A892B19F481E08093A4020E94332871
:103C600090937C0180937B01089580E090E00E9416
:103C7000972880E090E00E948128109274011092B1
:103C800073010E94E018E4E9F2E086E0DF011D9292
:103C90008A95E9F710928E0210928D0210928F028F
:103CA0000C942724CF92DF92FF920F931F93CF9310
:103CB000DF936C0100916B0380917701082BC7E0C3
:103CC000D0E010E0C8010C2E02C0959587950A94AB
:103CD000E2F780FD04C02197A8F7F12C09C0FC2E63
:103CE000B6018C2F0E943C290E94BA16019799F3C5
:103CF0008F2DDF91CF911F910F91FF90DF90CF908B
:103D00000895CF93DF93EC010E94521EBE010E94E2
:103D10003C290E94BA16DF91CF910895FC01808161
:103D200091810E94811E292F2F70E92FE295EF705B
:103D30004E2F50E0FA013297EE30F105B8F4EC580E
:103D4000FF4F0C94D52A803F99F018F4883E70F408
:103D50000FC0843F59F40CC0883E50F0813F31F4CD
:103D600007C0822F869586958695089580E00895F0
:103D700081E008959F92AF92BF92CF92DF92EF922F
:103D8000FF920F931F93CF93DF93CDB7DEB7619769
:103D90000FB6F894DEBF0FBECDBF8C0185E0F801F1
:103DA000DE011D9601900D928A95E1F7F801E280FF
:103DB00090913A0160913B0140913D0150913E014B
:103DC0004115510531F06F3F31F481E09F3F19F407
:103DD00003C081E001C080E0F82FF1709F2E80FDCC
:103DE0001AC1F80130812181C380D4808AE3A82ED2
:103DF00081E0B82EF0903C01F601E41BF50BFF20AA
:103E000009F4C6C080913F01E83CF10508F091C07B
:103E1000482F407F09F050C0621311C093130FC0A8
:103E2000FE2CE1100CC08F70806180933F01C501B2
:103E30000E94F30780913F01F801858329C1CD28B5
:103E400031F02F3F31F481E03F3F19F403C081E0AE
:103E500001C080E080FD03C081E08E2502C080E0CB
:103E600090E0F82FF170FF2E80FF1CC0809171014F
:103E70004091400156E0841709F4E8C090E0589F53
:103E8000F001599FF00D1124EF5BFE4F6181261365
:103E900006C06081631303C06281E61203C001960D
:103EA0008770E9CFFE2CEE2009F4F2C080913F012B
:103EB000816080933F0149C0621306C0931304C020
:103EC000E11002C0F80186C0C8010E948E1E88233E
:103ED00051F1EE2041F120913F01822F82958F70A8
:103EE00090E0029774F080913A0190913B0198879D
:103EF0008F831986DB86CA862C87CE0107960E949F
:103F0000F30786E0F801AAE3B1E001900D928A95EB
:103F1000E1F70E944E190AC06217C9F0C8010E9459
:103F20008E1E81111EC0C8010E94F307FF24F39466
:103F3000AFC0482F407F81F78AE391E00E94F307EA
:103F400086E0F50111928A95E9F7F12CA1C093134F
:103F5000E5CFE110E3CFF8018583C8010E94F307A4
:103F600054C0EE2001F320913F01822F82958F7083
:103F700090E0029734F280913A0190913B019A834C
:103F800089831B82DD82CC822E83CE010196B7CF3E
:103F9000E83CF105D0F5FE2CEE2029F2621327C093
:103FA000931325C020913F0120FD18C0822F8295D8
:103FB0008F70482F50E04115510581F0F80125839D
:103FC0004F30510541F08F5F982F9295907F822F4F
:103FD0008F70892B8583C8010E94F30786E0F80162
:103FE000AAE3B1E001900D928A95E1F751C0C801B2
:103FF0000E948E1E811185CF80913F018160809348
:104000003F01C8010E94F30743C086E0F501119209
:104010008A95E9F73DC0EE2009F485CFC8010E94DA
:104020008E1EF82E882309F47ECF86E0F801AAE3DD
:10403000B1E001900D928A95E1F780913A0190915B
:104040003B010E94811E0E944E1922C03D872E878F
:104050008D859E850E94811E292F22952F702230EA
:1040600028F49F7039F0811105C00BC0243028F46A
:104070009F7049F4805E883020F0C8010E94F307E9
:104080009F2CF92C05C0F8019581907F99F7F9CF05
:104090008F2D61960FB6F894DEBF0FBECDBFDF91B6
:1040A000CF911F910F91FF90EF90DF90CF90BF9035
:1040B000AF909F90089523E1929F800D1124682F67
:1040C000669566956695982F977083E0689FB00116
:1040D000112440E050E080E0FB01E40FF51FE05ABE
:1040E000FD4F208130E0092E02C0369527950A94B5
:1040F000E2F721703327042E01C0220F0A94EAF759
:10410000822B4F5F5F4F4330510531F7089523E114
:10411000929F800D1124E82FE695E695E69587702D
:1041200051E001C0550F8A95EAF783E0E89FF0015E
:104130001124E05AFD4F20E030E070E04081CB01D7
:10414000022E02C0969587950A94E2F781708195B8
:1041500084278523842781932F5F3F4F23303105A8
:1041600069F708950E941C0F80936B030C94351E11
:1041700021E030E001C0220F8A95EAF72095809176
:104180006B0382230C94B22021E030E001C0220FA7
:104190008A95EAF780916B03822B0C94B22080936E
:1041A00077010C94351E1092750186E0E4E3F1E08E
:1041B000DF011D928A95E9F70C94351E882341F0A2
:1041C0008095909175018923809375010C94E01876
:1041D0000895882339F090917501892B809375019A
:1041E0000C94E01808958823E1F19CEF980F913A20
:1041F00060F4E2E3F1E09281891301C0128231960A
:1042000041E0E833F407B9F714C090E2980F983012
:1042100090F4877021E030E0A90102C0440F551FDF
:104220008A95E2F7CA018095909175018923809360
:1042300075010C94E0189BE5980F933020F480E012
:1042400090E00C94972898E5980F973120F480E03F
:1042500090E00C948128803F20F00E9451240C941F
:1042600027240895CF93882309F459C0C82F8CEFD1
:104270008C0F813AF8F4E4E3F1E08AE391E02191D4
:10428000C21721F08E179F07D1F70EC0E2E3F1E0CD
:1042900088E391E02281C21301C0128231968E1709
:1042A0009F07C1F70E94E0186C2F82E391E00E9403
:1042B000672810C080E28C0F883078F4C77081E0E6
:1042C00090E001C0880FCA95EAF790917501892B9B
:1042D00080937501CF910C94E018EBE5EC0FE3307F
:1042E00040F4F0E0EC57FF4F808190E0CF910C94C8
:1042F0009728E8E5EC0FE73150F4F0E0EE0FFF1FF0
:10430000E957FF4F80819181CF910C948128C03F64
:1043100030F08C2F0E940A25CF910C942724CF9146
:1043200008951F93CF93DF93182F893319F0C0E0BE
:10433000D0E002C0C0E5D0E0812F0E94322120975A
:1043400041F08FE99FE00197F1F700C0000021974D
:10435000F6CF812FDF91CF911F910C94F3208091A4
:10436000A60280FF0AC0BB9A88B3877F98B3986083
:104370002FB7F894E4E8F1E00BC0E4E8F1E0118233
:1043800010821282339631E0E53DF307C1F7EBCF9F
:1043900031E0E53DF30789F0319148E098BB00003A
:1043A00000C037FF88BB330F000000C000C000C052
:1043B00088BB00C04A9591F7EBCF2FBF8FE594E003
:1043C0000197F1F700C0000008959091A60290FFB8
:1043D0000CC0E4E8F1E0818360834283339691E08E
:1043E000E53DF907C1F70C94AF2108958091A6022D
:1043F000282F269530E02115310519F4817082604F
:1044000005C02B32310524F0817084658093A602AB
:104410000895CF92DF92EF92FF926B017C010E9490
:10442000F621B701A60188E090E0FF90EF90DF90C1
:10443000CF900C94FE298091AA02882319F0815014
:104440008093AA026091A6027091A7028091A802AF
:104450009091A9020C9409228091AA02833018F449
:104460008F5F8093AA026091A6027091A70280914B
:10447000A8029091A9020C940922E6EAF2E083E0F6
:10448000808311828FEF82838383148260817181A4
:10449000828193810C940922AF92BF92CF92DF92D6
:1044A000EF92FF920F931F93CF93DF93E82EF62E98
:1044B000E901E42FF0E0611106C0E75BFC4FE491F5
:1044C0004E2F2E2F71C0062F10E0E75BFC4F44915A
:1044D000F42FC42ED12C26E0829FC00111242FEF8F
:1044E00030E0B9010E94AD2A5BEA5603C001579F34
:1044F000900D11248E0D911D8E0D911D582F550F6D
:10450000580FD901A01BB10BAC9DC001AD9D900D02
:10451000BC9D900D1124E92FF59ED0011124AB2FE5
:10452000BB277901EA1AFB0AEC9CD001ED9CB00D87
:10453000FC9CB00D11245901A51AB108A09E700170
:10454000A19EF00CB09EF00C1124EF2CFF242E192C
:104550003F092C9D80012D9D100D3C9D100D1124B7
:10456000212F6230710591F048F461157105E1F079
:1045700061307105B9F4242F4B2F16C064307105DA
:1045800069F040F06630710579F00CC0242F492F96
:10459000E12F0AC0492FEF2F2B2F06C0292FE42F20
:1045A000412F02C0292FEB2F49832883EA83DF9113
:1045B000CF911F910F91FF90EF90DF90CF90BF9020
:1045C000AF900895CF93DF9300D01F92CDB7DEB7A1
:1045D0009091A60290FF0AC09E012F5F3F4F0E945C
:1045E0004C224B8169818A810E94E5210F900F90B6
:1045F0000F90DF91CF9108955F926F927F928F928B
:104600009F92AF92BF92CF92DF92EF92FF920F9361
:104610001F93CF93DF9300D01F92CDB7DEB7182F33
:10462000762E042F622E9091A60290FF6DC0E92F86
:10463000E695AE2FB0E0AB54BF4F8C918093A302B0
:104640009E7F923061F49E012F5F3F4F812F0E9429
:104650004C224B8169818A810E94E52143C08230CE
:1046600019F40091A9023EC0863019F41091A702F6
:1046700039C08930D9F38931A9F5E9518E2F81707C
:10468000582EE695F0E0E75BFB4FA590B49084E8E8
:10469000C82E81E0D82EE12CF12CBB249BE1892E81
:1046A000912CAE9CC001AF9C900DBE9C900D11242E
:1046B000B4010E94AD2A812F511002C0860F01C0A3
:1046C000861B9601402F672D0E944C228FEFE81A1F
:1046D000F80A83E0C80ED11C8BE1E816F10409F753
:1046E0000E94AF211093A7027092A8020093A90222
:1046F000662051F06091A6027091A7028091A802F5
:104700009091A9020E9409220F900F900F90DF91C3
:10471000CF911F910F91FF90EF90DF90CF90BF90BE
:10472000AF909F908F907F906F905F900895E6EA92
:10473000F2E0438121E1421B08F440E021E0628184
:1047400081810C94FC22E6EAF2E0438121E1420FF0
:1047500008F44FEF21E0628181810C94FC22E6EAAB
:10476000F2E0628121E1621B08F460E021E0438114
:1047700081810C94FC22E6EAF2E0628121E1620F81
:1047800008F46FEF21E0438181810C94FC22E6EA7A
:10479000F2E0818121E04381628188500C94FC2207
:1047A000E6EAF2E0818121E043816281885F0C9436
:1047B000FC229091A60290FF36C09170811102C038
:1047C000926006C08B3210F0946502C0880F982B5F
:1047D0009093A602662351F06091A6027091A70201
:1047E0008091A8029091A9020E9409226091A602DC
:1047F000669570E04BE050E08EE690E00E94F12A72
:10480000892B19F01092A40202C00E941F1E81E0A1
:1048100080937E0120E04091A9026091A8028091DE
:10482000A7020C94FC2208958091A60286958150DF
:1048300009F48AE261E00C94D9238091A60286955E
:104840008F5F8B3208F081E061E00C94D9230E94E5
:10485000332820919602211104C02091970222232F
:1048600021F090939302809392022091980221115B
:1048700004C020919902222321F090939102809309
:104880009002E0919F02F091A002309749F082E0FF
:10489000809394020480F581E02D84E992E00994EC
:1048A0000895803F39F49091970297FF35C0109298
:1048B000970259C0813F29F4909197021916BCF3D1
:1048C0002BC090919602823F29F497FF25C0109249
:1048D000960249C0833F19F41916CCF31DC090917C
:1048E0009802893F29F41916BCF4109298023BC033
:1048F0008A3F19F497FF10C0F8CF8B3F39F490919D
:10490000990297FF09C0109299022DC08C3F21F4A3
:10491000909199021916BCF39CE0980F953080F4A1
:1049200021E030E0A90102C0440F551F9A95E2F73B
:10493000CA0180959091950289238093950213C0B6
:104940008D3F21F480918F028E7F0BC08E3F21F42A
:1049500080918F028D7F05C08F3F29F480918F0257
:104960008B7F80938F0280919602811106C0809187
:104970009702811102C010928E02809198028111DB
:1049800006C080919902811102C010928D02089593
:1049900080918F0280FD16C081FD16C082FD18C077
:1049A00080918D02882391F0883290F428E0829FD4
:1049B000C001112468E270E00E94C12A862F672B93
:1049C00029F007C082E0089584E0089581E0089509
:1049D00088E0089580918F0280FD14C081FD14C08D
:1049E00082FD16C080918E02882381F0843180F48C
:1049F00022E3829FC001112464E170E00E94C12A79
:104A0000862F08958CE0089589E1089585E0089542
:104A100082E30895803F21F40E94EA24819504C036
:104A2000813F29F40E94EA24809397020895823FEF
:104A300021F40E94EA24819504C0833F29F40E9456
:104A4000EA24809396020895893F19F40E94C824AD
:104A500005C08A3F31F40E94C82481958093980252
:104A600008958B3F21F40E94C824819504C08C3F97
:104A700029F40E94C8248093990208959CE0980F1D
:104A8000953078F421E030E0A90102C0440F551FB1
:104A90009A95E2F7CA0190919502892B809395022D
:104AA00008958D3F21F480918F0281600BC08E3F6D
:104AB00021F480918F02826005C08F3F29F480919C
:104AC0008F02846080938F020895FC01938193305C
:104AD000D9F068F4913081F0923009F063C08DEB29
:104AE0009AE090936A03809369038BE5089591326D
:104AF00029F19232B9F156C088E19BE090936A03A4
:104B00008093690382E1089582818130A1F058F099
:104B1000823009F047C083E89AE090936A0380935B
:104B2000690380E1089589EB9AE090936A0380938A
:104B3000690384E0089585E99AE02EC0828181307E
:104B400049F028F0823071F588E09BE005C08FECD9
:104B50009AE002C088EE9AE090936A03809369031A
:104B600089E00895848195818130910599F050F014
:104B70000297C1F486EA99E090936A0380936903EF
:104B80008BE7089583E49AE090936A038093690326
:104B900080E4089581E29AE090936A038093690328
:104BA00082E2089580E008958091640308958091E1
:104BB0006B03982F9670963011F4886001C0877F40
:104BC0000C94B220CF93DF9380919403835087FDA0
:104BD000E4C090919303CCE0D0E0C91BD109CA5640
:104BE000DC4F909192039031D0F4883019F01092FC
:104BF0005903D1C080915903E82FF0E0E931F10564
:104C0000B4F7E75CFC4F9E01285F3F4F9991919369
:104C10002C173D07D9F7885F80935903BCC09D329C
:104C200009F0A0C0883009F0B6C083EC80936E0311
:104C30008AE580937D001092680388818076D9F19F
:104C4000803209F084C08981813069F48C819D8132
:104C5000892B09F07CC08BE593E090936A038093E5
:104C6000690388E075C0823041F48AE593E090934F
:104C70006A038093690381E06BC08A3021F48B81E1
:104C800080935A0364C0893009F061C08A819B8196
:104C90008115924009F0DCC08C819D81892B09F03F
:104CA000D7C081E0809367038E819F8190936603D4
:104CB00080936503CDC09A81109277038981811119
:104CC00006C01092780327E733E082E03BC08530CE
:104CD00019F49093950333C08630B9F48B818130F9
:104CE00041F0823031F0833021F0813211F0823294
:104CF00021F4CE010E94652501C080E090E49093EC
:104D000068038F3F09F4A4C023C0883089F089303C
:104D100019F49093630313C08A3069F08B3079F4EF
:104D20008BE480937A038093AD038093860307C05E
:104D300023E633E002C027E733E081E003C027E742
:104D400033E080E030936A032093690301C080E080
:104D50009F81911104C09E81981708F4892F809338
:104D60007C0019C08091680387FF15C0809165039E
:104D700090916603892B09F475C080916703813097
:104D800009F070C0888180936403109266031092CA
:104D9000650310927C001092940380917D0084FF43
:104DA0004CC080917C008F3F09F447C0C82F8930E8
:104DB00008F0C8E08C1B80937C0090916E0388E81B
:104DC000892780936E03CC2359F1809169039091D8
:104DD0006A032091680326FF12C0AEE6B3E02C2FD1
:104DE000AC014E565340FA01EA0FFB1FE4911196B5
:104DF000EC931197215011962111F5CF08C0EFE6E1
:104E0000F3E0DC012C2F3D9131932150E1F7019625
:104E10002FEF2C0F820F911D90936A0380936903EB
:104E20006C2F8FE693E00E94F005CC5FCC3019F038
:104E30008FEF80937C00C0937D0084E190B39C70E1
:104E4000A9F48150D9F710929503109291030EC0E6
:104E5000888187FF05C08E8190E8909368037FCF9B
:104E60008FEFFACF8EE180937D0095CFDF91CF91C8
:104E700008951F93CF93DF93162FEA01288124FF13
:104E800005C0398128E82327298302C02AE5288321
:104E9000212FFC01CE010296DC0131913D9321507E
:104EA0001216DCF3612F0E94F0051C5F1883DF915E
:104EB000CF911F9108952091AC0324FF05C04CEAC7
:104EC00053E066E00C9439270895909138039813C5
:104ED00007C0209136033091370326173707B9F002
:104EE00080933803709337036093360380933303C2
:104EF00070933503609334038091AC0384FF07C043
:104F00004CEA53E063E083E393E00C94392708957F
:104F1000BC0184E00C946527BC0183E00C946527F8
:104F2000CF93DF93CAE0D0E08091790384FF1AC069
:104F300080913103909132039817F1F028E0829F1D
:104F4000C001112449E753E068E08F549D4F0E944F
:104F500039278091310390E001968F7099278093D3
:104F600031030AC00E94E2258FE99FE00197F1F723
:104F700000C000002197C1F6DF91CF910895CF9333
:104F8000DF93EC01A0913203B0E0CD0101968F7068
:104F9000992720913103281779F093E0AA0FBB1FBE
:104FA0009A95E1F7AF54BD4F98E0FE0101900D9244
:104FB0009A95E1F7809332030E94E2250E949027A0
:104FC00088E0FE01ABE5B3E001900D928A95E1F730
:104FD000DF91CF91089598E088E10FB6F894A895F5
:104FE00081BD0FBE91BDA895F894D8E0CEE528E329
:104FF000299320E0299314BEFFCF089578941F923F
:105000000F920FB60F9211248F939F93AF93BF937C
:105010008091AD029091AE02A091AF02B091B0022A
:105020000196A11DB11D8093AD029093AE02A09395
:10503000AF02B093B002BF91AF919F918F910F904B
:105040000FBE0F901F9018959C014FB7F894809158
:10505000AD029091AE02A091AF02B091B0024FBFED
:10506000821B930B08952FB7F8948091AD02909115
:10507000AE02A091AF02B091B0022FBF089580910F
:10508000AC02882319F180E00E94711D80E00E942B
:10509000DD071092A4028091AB02811117C081E05C
:1050A0008093AB028091A602982F91709093A502F5
:1050B0008E7F8093A6022FEF80E792E02150804000
:1050C0009040E1F700C000000C94AF2108959C01CE
:1050D000FC0132969FEF80E04191461789F09F3F97
:1050E00019F4411101C0982F8F5F8630A9F79F3FB7
:1050F00039F0F901E90FF11D97FDFA9562830895E2
:1051000008952091A1023091A2022817390771F069
:105110009093A2028093A102E0919F02F091A002DD
:10512000309721F00084F185E02D099408952091B5
:105130009D0230919E022817390771F090939E02CC
:1051400080939D02E0919F02F091A002309721F0A0
:105150000680F781E02D09940895E0919F02F09177
:10516000A002309721F00190F081E02D099480E0B9
:1051700008950F931F93CF93DF93C42FD22FFC0179
:1051800082818823C9F040939C020E943328909327
:105190009B0280939A0280E28C0F883008F057C0FF
:1051A000C77081E001C0880FCA95EAF7DF91CF91FF
:1051B0001F910F910C94E92080919C02481330C0FC
:1051C00080919A0290919B020E942428883C91052C
:1051D00038F510E21D0FCD17B9F080E28C0F883042
:1051E00040F4C77081E001C0880FCA95EAF70E94B9
:1051F000DE20183028F581E09D2F977001C0880FC0
:105200009A95EAF70E94E920802F0E949121183098
:10521000F0F4D77081E001C0880FDA95EAF70AC090
:1052200080E28C0F883098F4C77081E001C0880F4D
:10523000CA95EAF7DF91CF911F910F910C94DE2070
:10524000802FDF91CF911F910F910C949121DF91CD
:10525000CF911F910F910895CF93DF93CFE7D5E0C2
:1052600060E0CE010E94ED292196C83486E0D8077F
:10527000B9F7DF91CF910895462F863038F4763014
:1052800028F4633118F4672F0C94A41C80E090E09C
:105290000895CF92DF92EF92FF920F931F93CF93D7
:1052A000DF93C0E0D0E08E010C511F4F6E0186E20B
:1052B000C80ED11CFE01E25BFB4FE590F4906F2D10
:1052C000CE0187960E94ED296E2DCE0188960E9410
:1052D000ED292296CC15DD0569F70C171D0731F76E
:1052E000E80108351540F9F6DF91CF911F910F9134
:1052F000FF90EF90DF90CF9008958F929F92AF92A2
:10530000BF92CF92DF92EF92FF92CF93DF93EC01A7
:10531000688179818A819B8161157105810591057B
:1053200021F464E279ED8BE597E02DE133EF41E084
:1053300050E00E94202A49015A019B01AC01A7EAD2
:10534000B1E40E943F2A6B017C01ACEEB4EFA501F1
:1053500094010E944D2ADC01CB018C0D9D1DAE1DD8
:10536000BF1DB7FF03C00197A109B0488883998387
:10537000AA83BB839F77DF91CF91FF90EF90DF905F
:10538000CF90BF90AF909F908F9008950E947D29FD
:10539000089580E690E00E947D290895A0E0B0E0A5
:1053A0008093600090936100A0936200B0936300CB
:1053B0000895E199FECF9FBB8EBBE09A99278DB3EC
:1053C0000895A6E1B0E044E050E00C94122AA8E170
:1053D000B0E042E050E00C94122A262FE199FECF73
:1053E0009FBB8EBBE09A01970DB2021631F02DBB28
:1053F0000FB6F894E29AE19A0FBE08950396272F0C
:105400000E94EE290E94ED29252F0E94EE29242FCB
:105410000C94EE290196272F0E94EE290C94ED2979
:10542000DC01CB01FC01E199FECF06C0FFBBEEBB66
:10543000E09A31960DB20D9241505040B8F7089560
:10544000052E97FB1EF400940E94372A57FD07D0C3
:105450000E94522A07FC03D04EF40C94372A509530
:105460004095309521953F4F4F4F5F4F0895909550
:105470008095709561957F4F8F4F9F4F08950E9443
:10548000742AA59F900DB49F900DA49F800D911D2F
:1054900011240895B7FF0C943F2A0E943F2A821BD3
:1054A000930B0895A1E21A2EAA1BBB1BFD010DC090
:1054B000AA1FBB1FEE1FFF1FA217B307E407F507C4
:1054C00020F0A21BB30BE40BF50B661F771F881FA0
:1054D000991F1A9469F760957095809590959B0136
:1054E000AC01BD01CF010895A29FB001B39FC001DF
:1054F000A39F700D811D1124911DB29F700D811D00
:105500001124911D0895DB018F939F930E943F2AE0
:10551000BF91AF91A29F800D911DA39F900DB29F4F
:10552000900D11240895991B79E004C0991F9617D6
:1055300008F0961B881F7A95C9F78095089587FB18
:10554000082E062687FD819567FD61950E94932AA6
:105550000EF4919507FC81950895AA1BBB1B51E1A0
:1055600007C0AA1FBB1FA617B70710F0A61BB70BD3
:10557000881F991F5A95A9F780959095BC01CD0178
:10558000089597FB072E16F4009407D077FD09D0F5
:105590000E94AD2A07FC05D03EF4909581959F4F5F
:1055A0000895709561957F4F0895EE0FFF1F059048
:1055B000F491E02D09946927962769277827872792
:1055C000782708950E94742A332312F48A1B9B0BB8
:1055D0000C94EC2A0E94742AB7FF0895821B930B47
:1055E0000895FC014150504030F001900616D1F76B
:1055F0003197CF010895882799270895F894FFCF10
:1056000001000000D425BF275B278C2788270119BC
:105610001A1B1C1D1E1F202122010201FF5A050614
:1056200095949396818283E200E900EA00B500B682
:1056300000B700CD008301CC008A019201940121C2
:1056400002230224022502260227022A02B300B402
:10565000006F00700000010202020206060609093E
:10566000090909090F0F0F0F0F0F15151518191933
:10567000191919191919191923242525252525253D
:00000001FF
