:100000000C948A040C94D1040C94D1040C94D10463
:100010000C94D1040C94D1040C94D1040C94D1040C
:100020000C94D1040C94D1040C94052F0C94D72F6C
:100030000C9478290C94D1040C94D1040C94D10420
:100040000C94D1040C94D1040C94D1040C94D104DC
:100050000C94D1040C94D1290C94D1040C94D104A7
:100060000C94D1040C94D1040C94D1040C94D104BC
:100070000C94D1040C94D1040C94D1040C94D104AC
:100080000C94D1040C94D1040C94D1040C94D1049C
:100090000C94D1040C94D104A508A508D708D7085E
:1000A00024094209360A360A4D09B509C609C609A6
:1000B000260A360A360A2F0AD60AD60AE80AE80AB3
:1000C000DF0AE80AE80AE80AD60AD60AE40AE80AD1
:1000D000E80AE40AA2169816A516F516F916F916F6
:1000E000F516F916F916C616F916D016DA16F91617
:1000F000F916F916F916F516F916F916F516F91690
:10010000B316F916F916EA16EA16EA16EA16EA1608
:10011000EA16EA16EA16EA16F716F916A216951660
:10012000F916F916F916F916F916F916F916F91657
:10013000F916F916F716F916F916F516F916E8165E
:10014000E816E816E816E816E816E816E816E816BF
:10015000F716A023A323C323D423DC23E723EA2316
:10016000F123F82340244024FD23002405241224F5
:100170001F2422242624332444306B3063316B3017
:100180006331B730DA3063313131403129003A0020
:100190003B003C003D003E003F004000410042006B
:1001A00043004400450046004700480035001E005B
:1001B0001F0020002100220023002400250026002B
:1001C00027002D002E0049004A004B002B00140090
:1001D0001A000800150017001C0018000C0012007F
:1001E00013002F0030004C004D004E003900040079
:1001F0001600070009000A000B000D000E000F009A
:100200003300340028002A0000000000E100010053
:100210001D001B000600190005001100100036002B
:1002200037003800E50031005200E400E000E30050
:10023000E2000000000001002C00000000000100AE
:10024000E600E7000151500051004F00010001009D
:100250000100010001000100010001000100010096
:100260000100010001000100010001000100C25C69
:10027000C35CC55CC65CC75CC85CC95CCA5C010089
:100280000100010001000100010001000100010066
:100290000100010001000100010001000100010056
:1002A0000100010001000100010001000100010046
:1002B0000100010001000100010001000100010036
:1002C0000100010001000100000000000100010028
:1002D0000100010001000100010001000100010016
:1002E0000100010001000100BE5C010001000100ED
:1002F00001000000000001000100000000000100FA
:10030000010001000100BF5CBD5CC05C0100010098
:1003100001000100010001000100010001000100D5
:1003200001000100010001000100010001000100C5
:1003300001000100010001000100010001000100B5
:1003400001000100010001000100010001000100A5
:100350000100010001000100010001000100010095
:100360000100010001000100010001000100010085
:100370000100010001000100010001000100010075
:100380000100010001000100000000000100010067
:100390000100010001000100010001000100010055
:1003A0000100010001000100010001000100010045
:1003B0000100000000000100010000000000010039
:1003C0000100010001000100010001000100010025
:1003D0000100010001000100010001000100010015
:1003E0000100010001000100010001000100010005
:1003F00001000100010001000100010001000100F5
:1004000001000100010001000100010001000100E4
:1004100001000100010001000100010001000100D4
:1004200001000100010001000100010001000100C4
:1004300001000100010001000100010001000100B4
:1004400001000100010001000000000001000100A6
:100450000100010001000100010001000100010094
:100460000100010001000100010001000100010084
:100470000100000000000100010000000000010078
:100480000100010001000100010001000000000066
:10049000000000002A2B28000000000000000000DF
:1004A0000000000000000029000000002C1E342085
:1004B000212224342627252E362D3738271E1F20AB
:1004C0002122232425263333362E37381F040506F0
:1004D0000708090A0B0C0D0E0F1011121314151634
:1004E0001718191A1B1C1D2F3130232D3504050632
:1004F0000708090A0B0C0D0E0F1011121314151614
:100500001718191A1B1C1D2F3130354C0000000024
:1005100000000000000000000000000000000000DB
:1005200000000000000000000000000000000000CB
:100530007E0F00D4FFFFFFC70000007800047F3F5C
:100540001F643214643214783C1E1E140A052223E0
:10055000252628292A2C2D2F3032333536383A3BA0
:100560003D3E4042434547494A4C4E5051535557F2
:10057000595A5C5E6062646668696B6D6F71737511
:1005800077797B7D7F81838587898A8C8E90929411
:1005900096989A9C9E9FA1A3A5A7A8AAACAEAFB11E
:1005A000B3B4B6B8B9BBBCBEBFC1C2C3C5C6C7C968
:1005B000CACBCCCDCED0D1D2D2D3D4D5D6D7D7D822
:1005C000D9D9DADADBDBDBDCDCDCDCDCDDDDDDDD74
:1005D000DCDCDCDCDCDBDBDBDADAD9D9D8D7D7D67C
:1005E000D5D4D3D2D2D1D0CECDCCCBCAC9C7C6C533
:1005F000C3C2C1BFBEBCBBB9B8B6B4B3B1AFAEAC79
:10060000AAA8A7A5A3A19F9E9C9A98969492908E23
:100610008C8A89878583817F7D7B79777573716FFC
:100620006D6B6968666462605E5C5A5957555351D8
:10063000504E4C4A4947454342403E3D3B3A38368E
:10064000353332302F2D2C2A292826252322FFAAA4
:100650007F55400001010101010101010102020277
:10066000020202020202030303030303030304045E
:100670000404040404050505050506060606060728
:100680000707070708080808090909090A0A0A0BE1
:100690000B0B0C0C0C0D0D0D0E0E0E0F0F0F101082
:1006A0001111111212131314141515161617171809
:1006B0001819191A1A1B1B1C1D1D1E1E1F20202174
:1006C0002222232424252626272829292A2B2C2DBB
:1006D0002D2E2F30313232333435363738393A3BDC
:1006E0003C3D3E3F404142434445464748494A4CD1
:1006F0004D4E4F50515354555658595A5B5D5E5F9D
:10070000616264656668696B6C6D6F707273757732
:10071000787A7B7D7E8082838587888A8C8E8F9194
:10072000939596989A9C9EA0A2A3A5A7A9ABADAFBE
:10073000B1B3B5B7BABCBEC0C2C4C6C9CBCDCFD1A8
:10074000D4D6D8DBDDDFE2E4E7E9EBEEF0F3F5F851
:10075000FAFDFF1C0358004F0038003700200053FB
:10076000006F006C006400650072006500640000AA
:100770000018034D006F006E00730074006100727A
:1007800000670065006100720000000403090409AD
:10079000025B00030100A0FA09040000010301014B
:1007A0000009211101000122400007058103080012
:1007B0000A090401000203000000092111010001DF
:1007C0002222000705820320000107050303200001
:1007D00001090402000103000000092111010001C8
:1007E00022B6000705840320000A1201000200005F
:1007F0000008474D44530100010200010660FF0953
:1008000061A1010962150026FF009520750881028B
:100810000963150026FF00952075089102C00501A7
:100820000902A10185020901A10005091901290890
:10083000150025019508750181020501093009316E
:100840001581257F95027508810609381581257F58
:10085000950175088106050C0A38021581257F95DA
:100860000175088106C0C005010980A10185031931
:10087000012AB700150126B700950175108100C047
:10088000050C0901A101850419012AA00215012600
:10089000A002950175108100C005010906A101851E
:1008A00005050719E029E71500250195087501815F
:1008B000020507190029EF1500250195F075018142
:1008C0000205081901290595057501910295017523
:1008D000039101C005010906A101050719E029E7F7
:1008E00015002501950875018102950175088101A2
:1008F0000507190029FF150026FF009506750881D8
:1009000000050819012905950575019102950175E4
:10091000039101C011241FBECFEFD0E1DEBFCDBFD8
:1009200004B603FE27C08091300390913103A0915B
:100930003203B09133038730904BA740B04BD1F4D2
:10094000109230031092310310923203109233034D
:1009500014BE84B7877F84BF0FB6F894A8958091A2
:100960006000886180936000109260000FBEE0E03C
:10097000F8E7099511E0A0E0B1E0EAE3F5E602C08E
:1009800005900D92A43DB107D9F723E0A4EDB1E0A5
:1009900001C01D92A033B207E1F70E94FC150C9430
:1009A0009B320C9400006D9A249A259A809A3E9A64
:1009B000559A3C9A3A9A389A689A549A6C9A269A16
:1009C000229A849A089A829A0C9A819A0F9A539A38
:1009D0000B9A089508950E94072882FF03C0709A19
:1009E0005D9A01C0709880FF03C02A9A5D9A01C089
:1009F0002A9881FF03C08C9A5D9A08958C98089577
:100A000081E0089581E008950C94020508950C9406
:100A100006051F93CF93DF9300D000D01F92CDB770
:100A2000DEB749835A836B833091D60189819A81DD
:100A3000311114C0662359F0222349F00E94CC0BD7
:100A4000182F682F89819A810E94750B03C00E941C
:100A5000A00B182F69817A81812F04C00E94CC0BD2
:100A600069817A810F900F900F900F900F90DF9116
:100A7000CF911F910C941325FC01262F40815181A9
:100A80006281738184810C94090581E00895CF937C
:100A9000DF93EC0160E00E943C05BE01DF91CF9145
:100AA0000C940705E1E0F0E0DF0102C0AA0FBB1FD4
:100AB0006A95E2F7BD01DF0102C0AA0FBB1F4A958C
:100AC000E2F7AD01462B01C0EE0F2A95EAF7942F0D
:100AD0009823491302C08E2B0895E0958E23089524
:100AE000242F462F682F8091FB010E9452050C9401
:100AF000320B0E9475140E94D3060E94D3040C94FA
:100B0000A8140C94A41408950E94C40A0E9483059A
:100B10002FEF84E39CE0215080409040E1F700C03B
:100B200000000C94F7290F931F93CF93DF938C0150
:100B300061E00E943C05EC01B8010E94CA228823B2
:100B400009F452C0B801CE010E940405882309F4BB
:100B50004BC0B801CE010E941222882309F444C080
:100B6000B801CE010E9448268823F1F1B801CE01D8
:100B70000E949A268823C1F1B801CE010E94C527A0
:100B8000882391F1B801CE010E944F20882361F1A2
:100B9000F8018281882309F1CA358DE5D807C1F0B3
:100BA00050F4C115FCE5DF0781F0CE3DDC45A9F42A
:100BB0000E94511119C0CB35EDE5DE0761F0CC354F
:100BC000DD4559F40E94D60F08C00E9484050CC070
:100BD0000E94DF0F02C00E94E20FC801DF91CF9197
:100BE0001F910F910C94000580E0DF91CF911F9130
:100BF0000F910895DF92EF92FF920F931F93CF937F
:100C0000DF93E82FF0E0E457FB4FD490282F269590
:100C10002695269530E0F901E45DFA4F049187703E
:100C200010E0082E02C0159507950A94E2F70170AE
:100C30001127F901E45EFA4FE490F12C082E02C06E
:100C4000F594E7940A94E2F791E0E922FF24F90190
:100C5000E45FFA4FC491D0E002C0D595C7958A955C
:100C6000E2F7C170DD270115110519F081EE0E9430
:100C70002D07E114F10419F086EE0E942D078D2D49
:100C80000E945B08EF2819F086EE0E94DC07012B1A
:100C900019F081EE0E94DC07CD2B51F08CE2DF9140
:100CA000CF911F910F91FF90EF90DF900C945B0814
:100CB000DF91CF911F910F91FF90EF90DF900895FA
:100CC000EF92FF920F931F93CF93DF93EC01162FB8
:100CD0000AE08881882309F455C0813009F043C0B7
:100CE0008981813041F47E0182E0E80EF11C8A8125
:100CF0000E945B0809C0823049F47E01E2E0EE0EFA
:100D0000F11C8A810E942D07E7012FC0833041F436
:100D10007E01F2E0EF0EF11C8A810E94DC07F4CF25
:100D2000843011F0219621C02A81229680E090E043
:100D300030E0205331092A30310558F4089FA001D2
:100D4000099F500D1124C901840F951F21962881F8
:100D5000EFCF009751F0EFE9FFE03197F1F700C0D6
:100D600000000197F6CF0E94FA052196812F882373
:100D700009F4AFCFEFE9FFE03197F1F700C00000D1
:100D80008150F5CFDF91CF911F910F91FF90EF90A0
:100D9000089560E00C94600608950C94CC0681E000
:100DA00008950C94CF060895CF93C82F0E94CD06C6
:100DB0008C2F0E94D106CF910895CF93DF93CDB7AA
:100DC000DEB72B970FB6F894DEBF0FBECDBF4F83B3
:100DD000588769877A878B8761110E9405109E0169
:100DE0002F5F3F4F86E0F90111928A95E9F785E080
:100DF000FE013796D90101900D928A95E1F789811C
:100E00009A814C815D81452B31F09F3F31F491E017
:100E10008F3F19F403C091E001C090E090FF09C03A
:100E200049815A816B817C818D819E810E94050F51
:100E300005C0C9010E9445058111F2CF2B960FB65E
:100E4000F894DEBF0FBECDBFDF91CF910895FC01B6
:100E5000808191810E94F90B0895CF93882309F432
:100E6000A9C0C82F8238C1F40E94FB2781FDA2C00F
:100E700069E380910001909101010E94F4280E9491
:100E800037102FEF81EE94E0215080409040E1F741
:100E900000C0000069E319C0833801F50E94FB27F8
:100EA00080FD88C063E580910001909101010E945E
:100EB000F4280E9437102FEF81EE94E021508040FB
:100EC0009040E1F700C0000063E58091000190913F
:100ED00001010E94FF28CF910C9437108438C1F48F
:100EE0000E94FB2782FD66C067E48091000190911B
:100EF00001010E94F4280E9437102FEF81EE94E048
:100F0000215080409040E1F700C0000067E4DDCF51
:100F10008CEF8C0F813AF8F48C2F0E94FF16811110
:100F200049C06C2F80910001909101010E947428AA
:100F3000882349F06C2F80910001909101010E945B
:100F4000FF280E9437106C2F8091000190910101C1
:100F50000E94F428C0CF80E28C0F883048F4C7701C
:100F600081E001C0880FCA95EAF70E94E80FB3CF6D
:100F7000EBE5EC0FE33040F4F0E0EA5AFE4F8081FD
:100F800090E0CF910C943228E8E5EC0FE73150F473
:100F9000F0E0EE0FFF1FE85DFE4F80819181CF9161
:100FA0000C944828C03F30F08C2F0E94CA17CF9174
:100FB0000C949C18CF910895882309F464C082385A
:100FC00079F40E94FB2781FF5EC069E380910001F4
:100FD000909101010E94F4280E94371069E310C02B
:100FE0008338B1F40E94FB2780FF4DC063E58091F8
:100FF0000001909101010E94F4280E94371063E5DE
:1010000080910001909101010E94FF280C943710FB
:10101000843879F40E94FB2782FF35C067E4809111
:101020000001909101010E94F4280E94371067E4AA
:10103000E7CF9CEF980F913A10F4682FE1CF90E240
:10104000980F983050F4877091E001C0990F8A95FD
:10105000EAF7892F0E94EE0FD9CF9BE5980F9330C6
:1010600020F480E090E00C94322898E5980F9731B6
:1010700020F480E090E00C944828803F20F00E940B
:1010800025180C949C1808951F93CF93DF93182F65
:10109000EB010E942D07209741F08FE99FE0019717
:1010A000F1F700C000002197F6CF812FDF91CF919B
:1010B0001F910C94DC07893319F060E070E002C0E6
:1010C00060E570E00C944408882321F00E94E80F4A
:1010D0000C9437100895882321F00E94EE0F0C9491
:1010E00037100895CF92DF92EF92FF920F931F93E4
:1010F000CF93DF937C01062FC72FFC01D28115818E
:1011000012951F700E94BD0F882399F0DD2389F08E
:101110008C2F807F803421F080E2800F883048F06F
:1011200082E00E9487100E94BD0F91E0D82ED92640
:1011300001C0D12CCC2EC2948FE0C8228C2D90E01F
:10114000FC01E45BFF4F0C94EF318C2F807FCF705C
:10115000882311F0C295C07FDD2399F0CC2309F4D8
:1011600060C180E2800F883010F0011104C08C2F24
:101170000E94E80F03C08C2F0E94F80F0E943710C6
:1011800050C1802F0E94DC07CC2309F46FC180E29C
:10119000800F883010F0011104C08C2F0E94EE0FD8
:1011A00003C08C2F0E94FE0F0E9437105FC18C2F4E
:1011B000807FCF70803211F0C295C07F002319F07C
:1011C0000130C9F022C0DD2371F0112341F011304C
:1011D00031F40E9418108C2B0E94201047C10E94ED
:1011E00018108C2B1DC0112319F0113009F43EC1C9
:1011F0000E942D1025C0DD2321F0163008F036C1E5
:101200000EC0153008F032C11BC0DD2361F0112380
:1012100031F0F701858180FF04C18F7085838C2FA9
:101220000E94640823C1112359F0093309F00AC14F
:10123000FFEF27EE83E0F15020408040E1F700C14E
:101240008C2F0E946B0812C18C2F86958695837017
:1012500019F0813061F00AC1DD2321F0802F9C2F2D
:10126000937002C080E090E00E94322807C1DD2325
:1012700021F0802F9C2F937002C080E090E00E94AC
:101280004828FCC0802FDD2319F00E94CA1702C035
:101290000E9425180E949C18F1C08C2F837079F54C
:1012A000D111E8C0402F429546954770440F440F36
:1012B000202F2F70042E01C0220F0A94EAF704FF9A
:1012C00008C08FE090E001C0880F4A95EAF780954A
:1012D00001C080E0C695C695C370822BC23049F02C
:1012E00058F4C13019F00E94260BC4C00E94210B93
:1012F000C1C00E942B0BBEC00E941F0BBBC0DD23D0
:1013000019F08C2F817001C08695882309F4B2C032
:10131000402F429546954770440F440F202F2F7061
:10132000042E01C0220F0A94EAF704FF08C08FE0E0
:1013300090E001C0880F4A95EAF7809501C080E0EF
:10134000C695C695C370822BC23049F058F4C1309F
:1013500019F00E946A0B8EC00E94650B8BC00E9420
:101360006F0B88C00E94320B85C0CF70DD2339F02F
:101370008C2F0E94430B802F0E9464087BC0802F1B
:101380000E946B088C2F0E944E0B74C0023F01F12B
:1013900028F4003F41F0013FA1F03FC0033FF9F0C6
:1013A000043F39F13AC0DD2341F0153008F05EC04A
:1013B0008C2F8F710E945A0B59C0163008F056C0FE
:1013C000F7CFDD2339F08C2F8F710E94430B4EC075
:1013D000DD23C9F38C2F8F710E944E0B47C0DD2394
:1013E00029F08C2F8F710E943B0B40C00E94380B5C
:1013F0003DC0DD2349F0CF718C2F0E94430B63E089
:101400008C2F0E946C1032C081E00E948710123035
:1014100068F182E00E94871029C0DD2331F011239A
:1014200091F2802F0E942D0721C0112399F20933D8
:1014300049F49FEFE7EEF3E09150E040F040E1F730
:1014400000C00000802F0E94DC0710C04C2F4F709E
:10145000602FC7010E9457120E94270C0FC04C2F0B
:101460004F70602FC7010E945A1208C088EF8C0D80
:10147000843020F40E94FB270E94D406DD20C9F0AE
:101480000E94B90F80FD15C0F70112820E94B30FB0
:101490000E94430BC7010E947A0A0E94B30FDF919A
:1014A000CF911F910F91FF90EF90DF90CF900C9410
:1014B0004E0BDF91CF911F910F91FF90EF90DF9036
:1014C000CF9008950F931F93CF93DF93EC01688122
:1014D00079818A810E94040C8C010E94740B0E9405
:1014E000130BB801CE010E947208DF91CF911F91BA
:1014F0000F910895CF93DF93EC01988189812B811F
:101500003C81232B31F08F3F31F481E09F3F19F470
:1015100003C081E001C080E080FD19C0CE010E94BF
:10152000930581110CC00E94BD0F882381F08A8130
:10153000882369F082E0DF91CF910C948710CE016F
:101540000E94620ACE01DF91CF910C944705DF9192
:10155000CF91089580E090E00E94322880E090E0F2
:101560000E9448280E9405100E9415100E94371002
:101570000E94CD190C949C1880910001909101015A
:101580000E940A290C94AA0A0E94F50F0C94BC0A26
:10159000E92FE295EF704E2F50E0FA013297EE30CE
:1015A000F105B0F4E45AFF4F0C94EF31803F91F015
:1015B00018F4883E68F40EC0843F51F40BC0883E96
:1015C00048F0813F29F406C093FB882780F90895ED
:1015D00080E0089581E00895FC01808191810E945E
:1015E000F90B0E94C80A0895CF93DF9300D000D072
:1015F0001F92CDB7DEB70F900F900F900F900F9006
:10160000DF91CF910895CF93DF9300D000D000D029
:10161000CDB7DEB726960FB6F894DEBF0FBECDBFAE
:10162000DF91CF910895089508950C94140B0C94B4
:10163000150B0E94170B8093FC010C94AA0A0C94C2
:10164000190B9091FC01892B0C94190B9091FC01C2
:1016500089230C94190B9091FC0189270C94190B88
:101660000C94140B0E94300B8093FB010C94AA0A7B
:1016700080E00C94320B91E001C0990F8A95EAF753
:10168000892F0C94320B21E030E001C0220F8A95A3
:10169000EAF78091FB01822B0C94320B21E030E0C1
:1016A00001C0220F8A95EAF720958091FB018223E1
:1016B0000C94320B21E030E001C0220F8A95EAF74A
:1016C0008091FB0182270C94320B9091FB01892BB6
:1016D0000C94320B9091FB0189230C94320B909166
:1016E000FB0189270C94320B089520E1929F800D15
:1016F0001124E82FE695E695E695877051E001C044
:10170000550F8A95EAF783E0E89FF0011124E9522A
:10171000FE4F20E030E070E04081CB01022E02C09D
:10172000969587950A94E2F78170819584278523A1
:10173000842781932F5F3F4F2330310569F7089548
:1017400020E1929F800D1124682F6695669566951D
:10175000982F977083E0689FB001112440E050E01B
:1017600080E0FB01E40FF51FE952FE4F208130E0DD
:10177000092E02C0369527950A94E2F72170332787
:10178000042E01C0220F0A94EAF7822B4F5F5F4FAD
:101790004330510531F70895CF92DF92FF920F93B6
:1017A0001F93CF93DF936C010091FB018091FC01AB
:1017B000082BC7E0D0E010E0C8010C2E02C09595C0
:1017C00087950A94E2F780FD04C02197A8F7F12CD1
:1017D00007C0FC2EB6018C2F0E947F130197A9F33E
:1017E0008F2DDF91CF911F910F91FF90DF90CF90C0
:1017F0000895CF93DF93EC010E94CC0BBE010E94B1
:101800007F13DF91CF9108951F93CF93DF93EB0167
:101810009091D601992321F0CB010E94F90B13C0BE
:10182000882349F0CB010E94CC0B182F682FCE01E2
:101830000E94750B04C0CB010E94A00B182FBE01A3
:10184000812F0E947F13DF91CF911F910895EF9216
:10185000FF920F931F93CF93DF938C01892B09F491
:101860006CC0F12CEE24E394E8012196F8018491F8
:10187000843740F4843008F051C0813081F08230E8
:1018800019F15BC0853709F444C0A8F19CE7980FB3
:10189000903708F052C08F770E94DC0741C00E5F7E
:1018A0001F4FFE01849190E2980F983050F487709A
:1018B000FE2D01C0FF0F8A95EAF78F2F0E940810B6
:1018C00014C00E942D072DC00E5F1F4FFE01849192
:1018D00090E2980F983060F48770FE2D01C0FF0FE2
:1018E0008A95EAF78F2F0E940E100E94371019C0B8
:1018F0000E94DC0716C00E5F1F4FFE01C491CC236F
:1019000081F08FE99FE00197F1F700C00000C1501E
:10191000F6CF0E5F1F4FFE01F49003C00E942D070B
:101920008E018F2D882309F49FCFEFE9FFE03197D7
:10193000F1F700C000008150F5CFDF91CF911F91EA
:101940000F91FF90EF9008951F93CF93DF93C09175
:10195000FD0116E08091FE01C81799F0D0E01C9FB0
:10196000F0011D9FF00D1124E150FE4F4081518187
:1019700062817381848195810E94030B2196C770D7
:10198000E9CFDF91CF911F91089540912F0250919F
:101990003002609131027091320280913302909155
:1019A00034020C94030B0F931F93CF93DF9380911A
:1019B000340282958F7009F05DC0809131028823D6
:1019C00009F458C08091FD011091FE0160912F0231
:1019D00070913002C0913202D091330291E06F3F9A
:1019E00009F090E0292F06E0811709F443C0209701
:1019F00021F07F3F21F030E003C031E001C0322F01
:101A000090E030FD34C0089FF001099FF00D1124D3
:101A1000DF01A150BE4F11963C911197371327C09B
:101A20003C91361324C012963C91129731111FC07D
:101A300013964D915C9114974C1B5D0B483C5105DE
:101A4000B0F4809134028F70806180933402EC5F37
:101A5000FD4F80818F70806180838FE292E00E94D1
:101A60007A0ADF91CF911F910F910C94A40C0196EB
:101A70008770BACFDF91CF911F910F9108959F92F8
:101A8000AF92BF92CF92DF92EF92FF920F931F938C
:101A9000CF93DF93CDB7DEB761970FB6F894DEBF73
:101AA0000FBECDBF8C0185E0F801DE011D960190CF
:101AB0000D928A95E1F7F801E28090912F026091F2
:101AC000300220913202309133022115310531F07C
:101AD0006F3F31F481E09F3F19F403C081E001C002
:101AE00080E0F82FF1709F2E80FD3FC1F80140810A
:101AF0005181A380B4808FE2C82E82E0D82EF0906E
:101B00003102F501E21BF30BFF2009F4D9C08091EB
:101B10003402E83CF10508F095C0282F207F09F039
:101B200052C0561313C0491311C0FE2CE1100EC051
:101B30008F708061809334020E94C50CC6010E94A0
:101B40007A0A80913402F80185834CC1AB2831F0C8
:101B50005F3F31F481E04F3F19F403C081E001C0E1
:101B600080E080FD03C081E08E2502C080E090E02F
:101B7000F82FF170FF2E80FF1CC08091FD01209195
:101B8000FE0136E0821709F40BC190E0389FF001A6
:101B9000399FF00D1124E150FE4F6181561306C0AC
:101BA0006081461303C06281E61203C0019687700C
:101BB000E9CFFE2CEE2009F415C18091340281603A
:101BC0008093340254C0561306C0491304C0E11078
:101BD00002C0F80199C0C8010E94EC0A882361F193
:101BE000EE2051F120913402822F82958F7090E087
:101BF000029774F080912F029091300298878F8322
:101C00001986BB86AA862C87CE0107960E947A0A7F
:101C100086E0F801AFE2B2E001900D928A95E1F71B
:101C20000E94D30C0E94C50C0AC0561711F1C801BE
:101C30000E94EC0A81112CC0C8010E947A0AFF247C
:101C4000F394D0C0282F207F81F77A2DB98AA88AF3
:101C50006E2D89890E94F40A8FE292E00E947A0A2E
:101C600086E0F60111928A95E9F70E94C50CF12CE5
:101C7000B9C04913DCCFE110DACFF8018583C80180
:101C80000E947A0A86E0F60111928A95E9F7AAC0C5
:101C9000EE2091F220913402822F82958F7090E095
:101CA00002970CF4B5CF80912F02909130029A8365
:101CB00089831B82BD82AC822E83CE010196A6CF82
:101CC000E83CF10508F044C0FE2CEE2009F4B4CF46
:101CD000561330C049132EC02091340220FD21C07C
:101CE000822F82958F70482F50E041155105C9F021
:101CF000F80125834F30510541F08F5F982F929561
:101D0000907F822F8F70892B8583C8010E947A0A69
:101D100086E0F801AFE2B2E001900D928A95E1F71A
:101D20003CC086E0F801AFE2B2E001900D928A95E6
:101D3000E1F758C0C8010E94EC0A811169CF809177
:101D40003402816080933402C8010E947A0A4AC03A
:101D50007A2DB98AA88A6E2D89890E94F40A86E0B4
:101D6000F60111928A95E9F718C0EE2009F464CFC4
:101D7000C8010E94EC0AF82E882309F45DCF86E0A2
:101D8000F801AFE2B2E001900D928A95E1F78FE29F
:101D900092E00E9427070E94D30C0E94C50C22C02B
:101DA0004D875E878D859E850E94F90B292F229590
:101DB0002F70223028F49F7039F0811105C00BC0BC
:101DC000243028F49F7049F4805E883020F0C801E8
:101DD0000E947A0A9F2CF92C05C0F8019581907F0A
:101DE00099F7F9CF8F2D61960FB6F894DEBF0FBE2D
:101DF000CDBFDF91CF911F910F91FF90EF90DF90BA
:101E0000CF90BF90AF909F9008951F93CF93DF9393
:101E1000CDB7DEB72C970FB6F894DEBF0FBECDBF9F
:101E20004F83588769877A878B879C87CE0107966F
:101E30000E943F0D8823D1F09F8188852A853B85AC
:101E4000232B31F08F3F31F481E09F3F19F403C021
:101E500081E001C080E080FD47C04F8158856985E1
:101E60007A858B859C850E94030B3EC086E0FE012F
:101E70003796DE01119601900D928A95E1F7FF8168
:101E8000E8856A857B856115710531F0EF3F31F496
:101E900081E0FF3F19F403C081E001C080E080FDD4
:101EA00023C02091FE0130E0C90101968770992777
:101EB0004091FD0150E084179507F1F1F983EA8321
:101EC0007D836C8396E0929FD001939FB00D112487
:101ED000A150BE4FFE01319601900D929A95E1F707
:101EE0008093FE010E94A40C16E08091FD01909168
:101EF000FE01891771F1189FC001112481509E4F76
:101F00000E943F0D882329F1E091FD011E9FF00101
:101F10001124E150FE4F408151816281738184819F
:101F200095810E94030B8091FD0190E001968770DE
:101F300099278093FD01D9CF0E94C40A1092FE0117
:101F40001092FD01EFE2F2E086E0DF011D928A953A
:101F5000E9F72C960FB6F894DEBF0FBECDBFDF9128
:101F6000CF911F910895809135028595859585952E
:101F70000895809135028770089590913502977089
:101F800081E009F480E008959091C10292FB22273C
:101F900020F9281751F080FB92F99093C1028091AB
:101FA000C0029091C1020C94CE1008958091C1029C
:101FB00082FB882780F991E089270C94C40F81E087
:101FC0000C94C40F80E00C94C40F809159020895C2
:101FD00090915902892B8093590208958095909190
:101FE0005902892380935902089510925902089545
:101FF00090915802892B8093580208958095909172
:102000005802892380935802089510925802089527
:1020100090915702892B8093570208958095909153
:10202000570289238093570208951092570208950A
:1020300080913602089508950C941B100C941C1086
:102040009091C10292FD08C090913602981721F03C
:10205000809336020C941E100895809136028823D6
:1020600029F01092360280E00C941E100895E09141
:102070000001F0910101809159028083E0910001FB
:10208000F0910101908180915802892B8083E09129
:102090000001F0910101908180915702892B80838A
:1020A00080913602882381F0E0910001F0910101D6
:1020B0009081892B808380910001909101010E9481
:1020C0005E2881110E942D108091000190910101E4
:1020D0000C940A280C941B109091C10292FD10C020
:1020E00098E0899F90011124262B209335020E94AD
:1020F000430B809135028595859585950C946A10E2
:102100000C94430B1092350280E00C946A102091DD
:1021100035028095822380933502982F977041F481
:1021200030E0482F082E000C550B2417350721F4FA
:102130009091C10292FF07C08595859585950E9473
:102140004E0B0C94821008956FEF7FEF80E090E0CB
:102150000C94853280E090E00E946132893E9E4F6F
:1021600011F40C946D2280E0089582E090E00C94CC
:10217000533283E090E00C945332CF9384E090E0AC
:102180000E945332C82F82E290E00E9453322C2FDB
:1021900030E0A901582BCA01CF910895CF93C92FE0
:1021A000682F84E090E00E9467326C2F82E290E01A
:1021B000CF910C946732AB01BC018FE090E00C949E
:1021C0007932AB01BC0183E190E00C94793260E09C
:1021D00070E0CB010C94E11060E070E0CB010E9454
:1021E000DB100C94E71069EE7EEF80E090E00E9437
:1021F000853260E082E090E00E94673260E083E038
:1022000090E00E9467321092FC0160E084E090E070
:102210000E94673260E082E290E00E94673260E0F4
:1022200085E090E00E94673260E086E090E00E94E6
:1022300067326FEF87E090E00E94673240E050E045
:10224000BA0188E090E00E94793260E08DE090E091
:102250000E94673240E050E0BA0188E190E00E94BD
:10226000793260E087E190E00E94673240E050E020
:10227000BA018CE190E00E94793260E070E080E287
:1022800090E00E94853240E050E0BA0188E190E0A1
:102290000E94793280E00E9486220E94B2220C9431
:1022A000EC100C94F310682F8EE090E00C946732E1
:1022B0000E94B62960936B0270936C0280936D024A
:1022C00090936E0260936702709368028093690234
:1022D00090936A02089585B7806885BF85B7806846
:1022E00085BF089581E008950C94721108950C94AF
:1022F00076110C9476110C9479110C9476110C943F
:102300007D110C9476110E946B118BE594E10E9473
:102310001B2A0E9481110C947F110E9477110C944A
:1023200076110E94A1290E94C1220E9463150E9479
:1023300036210E94661F0C947B116F927F928F92C0
:102340009F92AF92BF92CF92DF92EF92FF920F9344
:102350001F93CF93DF93CDB7DEB72A970FB6F894CC
:10236000DEBF0FBECDBF0E94761581110E945811AD
:102370003BE5832E32E0932E00E010E0C02E802F4C
:102380000E948F145C01F401619071904F016826E6
:10239000792661147104B1F40F5F1F4F06301105E7
:1023A00069F78FEF89838A831B820E94AA29816043
:1023B000782F9D838C8349815A816B818D810E9406
:1023C000DD063AC080916F0281FD0E949814D12CE5
:1023D000EE24E394F12CC3018E219F21892B29F156
:1023E0000E9474118823A9F0DE82CF82AE20BF2024
:1023F00081E0AB2809F480E088870E94AA298160E7
:10240000782F9A8789874E815F8168858A850E94A7
:10241000DD06000F111FF801E55AFD4F8081918103
:10242000E826F926F182E08207C0D394EE0CFF1C67
:10243000F0E1DF12D0CFB0CF0E94A11F0E94EB04C9
:102440000E94BA180E94FB2790915A028917D1F076
:102450000E94FB2780935A022A960FB6F894DEBF9B
:102460000FBECDBFDF91CF911F910F91FF90EF90E5
:10247000DF90CF90BF90AF909F908F907F906F90A4
:102480000C94D4062A960FB6F894DEBF0FBECDBFCB
:10249000DF91CF911F910F91FF90EF90DF90CF9040
:1024A000BF90AF909F908F907F906F90089580E045
:1024B00090E008950895880F991FFC01E45CFA4F9D
:1024C000859194910895CF93DF930E948413EC013A
:1024D000811520E5920708F03FC0811540E494077C
:1024E00008F0D2C0883E910500F5803E910508F0C5
:1024F00002C1883A910570F4853A910508F0A6C0AA
:102500008130910509F49FC008F4F2C0049708F0E7
:10251000F2C0EEC08F3B910508F4A1C0803C91054C
:1025200008F4E6C0805C9109A5C0811550E29507CA
:1025300060F4C11581E0D80708F0DDC0C03FD105C7
:1025400008F4D6C0CE019065D7C0811520E392076C
:1025500008F093C09F708EC0811545E5940708F080
:1025600046C0811554E5950708F0A6C0C11582E55F
:10257000D80718F5C11521E5D20708F088C0CE01AB
:10258000F4E096958795FA95E1F7282F23703C2F74
:10259000337081E090E002C0880F991F3A95E2F70E
:1025A0009C68922B2C2F2F702695269540E2249F15
:1025B00090011124822B932B9FC09E0123703327FF
:1025C0009C2F96959695C115D34508F065C041E0BE
:1025D00050E002C0440F551F2A95E2F780E2989F11
:1025E00090011124CA01822B932B9C6885C0811510
:1025F00059E5950798F4C11588E5D80708F061C03A
:10260000C11526E5D20708F073C08C2F0E9418145C
:102610008F7190E0982F882790626EC081154AE5EF
:10262000940708F453C090568115904208F060C09A
:102630008D2F8F710E9418149E01332730628F7185
:10264000A901582B53C081E090E056C0855AC82F8D
:10265000D0E0C957DE4F888190E090644DC0885A21
:10266000C82FD0E0CC0FDD1FC75ADE4F888199817B
:10267000946442C00E945B123FC09927D3FF02C0FE
:10268000986C3AC0906C38C09F70906A35C09C2F8F
:102690008827816F906A30C041E050E002C0440F4B
:1026A000551F2A95E2F780E2989F90011124CA01F4
:1026B000822B932B9A6820C0982F8827846F906A6A
:1026C0001BC09C2F8827806F906A16C08F700E9455
:1026D00018149E0194E0369527959A95E1F72F708E
:1026E00030E0322F22273069A901482BCA0104C0EB
:1026F00080E090E001C0CE01DF91CF9108950E946B
:1027000013250E94631208958238910569F1B0F48F
:102710008133910509F46DC048F48932910509F4BB
:1027200063C08A32910509F469C008958533910523
:1027300009F455C089339105B9F00895833E910598
:1027400069F138F4803E9105B1F0823E910509F1BE
:102750000895863E9105A9F1873E9105B9F1843E21
:10276000910509F064C023C02091C00220FD4FC034
:1027700021FD4DC008958091C00280FD44C080912C
:10278000C10280FF44C08091C00284FD42C083EE3C
:102790004DC08091C00282FF38C0F5CF8091C00249
:1027A00082FD33C08091C10280FD31C0ECCF8091A9
:1027B000C10281FF32C08091C00284FD2AC087EE31
:1027C00035C08091C00283FF26C0F5CF8091C00242
:1027D00083FD21C08091C10281FD1FC0ECCF80919B
:1027E000C00285FD1CC01DC08091C00285FD19C0BE
:1027F00016C08091C00286FD16C017C08091C0022D
:1028000086FD13C010C089E311C082EE0FC080EEB8
:102810000DC080E00BC086EE09C084EE07C089E2DF
:1028200005C085E303C08AE201C081E390E008951A
:102830009091C00292FF0DC0282F2871283019F402
:10284000877F846006C0282F2471243011F48B7F89
:10285000886093FF0DC0282F2871283119F4877ED6
:10286000846106C0282F2471243111F48B7E886185
:102870002091C10220FF0DC0382F3871383019F473
:10288000877F816006C0382F3171313011F48E7F1F
:10289000886021FF0DC0282F2871283119F4877E08
:1028A000816106C0282F2171213111F48E7E88614B
:1028B00094FD877E089580E008950C94A4100E94F2
:1028C00076158FE39CE90197F1F700C000000E94A4
:1028D000761580E00E948F1480FF04C00E945D1472
:1028E0000C94F72908950C945F140E94AA1081118A
:1028F00002C00E9451110E94B51080936F020E9485
:10290000BD109093C1028093C0020E9473140E9474
:10291000B9100E941F0B8091FB010C94300BE82F23
:10292000F0E0EE0FFF1FE253FD4F8081918108958B
:10293000089580EA8A95F1F7089500C008950C94EF
:10294000991408950C94A1140C94A2140C94A1143D
:102950000C94A614F894E82FE295EF70F0E031A102
:10296000282F2F7081E090E001C0880F2A95EAF7A8
:10297000982F9095932391A392A1892B82A3789469
:1029800008950F931F93CF93DF93CAE8D1E0899105
:102990008F3F11F00E94AA1481E0CA39D807B9F715
:1029A000CAE9D1E000EA11E089918F3F11F00E945D
:1029B000AA140C171D07C1F7DF91CF911F910F913A
:1029C0000895CF92DF92FF920F931F93CF93DF93DF
:1029D000062F10E006571E4FD8012C912F3F09F407
:1029E0006AC0C62FD92FF82EF894E22FE295EF7027
:1029F000F0E031A12F70CC24C394D12CC60101C0CA
:102A0000880F2A95EAF7932F982B91A392A180958E
:102A1000892382A378940E949D1496010C2E02C0F3
:102A2000220F331F0A94E2F7B901609570959AE975
:102A3000C92E91E0D92EEF2DFD2FAF01445F5F4FDE
:102A4000D0E0D601FD906D01BFEFFB16C9F08F2DD0
:102A500082958F7090E0DC0190968C9190E0BF2D74
:102A6000BF7002C095958795BA95E2F780FD08C0C2
:102A700080819181822B932B91838083D1E006C04A
:102A80008081918186239723918380833296E417F6
:102A9000F507B9F6F80180818F3F11F00E94AA1462
:102AA0006D2F8C2FDF91CF911F910F91FF90DF90B1
:102AB000CF900C949F14DF91CF911F910F91FF90B5
:102AC000DF90CF9008950E94C114E2ECF2E0AEECEA
:102AD000B2E0119211921D921D9282E0EE3CF80735
:102AE000C1F786E00E94C1150C947905FF920F93FF
:102AF0001F93CF93DF93CDB7DEB72C970FB6F89423
:102B0000DEBF0FBECDBF8E010F5F1F4F8CE0F801FF
:102B100011928A95E9F7F12C6F2DC8010E94E114FA
:102B2000F394F0E1FF12F8CF4CE050E0B80182ECF2
:102B300092E00E944632FF24F394009709F4F12CAE
:102B4000892B41F08CE0F801A2ECB2E001900D92EB
:102B50008A95E1F72F2D46E06EEC72E082EC92E070
:102B60000E94C2150E9481058F2D2C960FB6F894F5
:102B7000DEBF0FBECDBFDF91CF911F910F91FF90B0
:102B800008950895FF920F931F93CF93DF93F82E2C
:102B9000092F162FD72FC42F222349F081E08093CD
:102BA00072020E94AA299093710280937002809110
:102BB00072028823D9F080917002909171020E9474
:102BC000C229059798F0EF2DF02FA12FBD2F80E09F
:102BD00090E04C2F50E08417950734F42191319107
:102BE0002D933D930196F7CF10927202DF91CF9112
:102BF0001F910F91FF9008950E941C290E94C22BE3
:102C00000E94DB2B0E94ED2B0E948D11FBCF89329D
:102C100089F1F0F4843171F1B0F4873009F077C0B4
:102C20008EE18093090182E3809308018AE080931A
:102C3000070184E18093060188E08093030188E224
:102C40008093020164C092EE980F9A30F0F05FC05A
:102C5000803509F444C028F48F3409F058C08AE064
:102C60003FC0813529F0823509F051C081E038C07C
:102C70008FEF36C080917502882379F1109275022A
:102C8000109274021092730242C08D5180937502AB
:102C9000833099F038F4813069F08230D9F488E0DB
:102CA00091E00DC0853099F078F0863099F482E09B
:102CB00091E005C089E091E002C087E091E0909347
:102CC00074028093730223C086E091E0F8CF83E022
:102CD00091E0F5CF109275021AC080E0089586EF5A
:102CE000E0917302F0917402309789F02081082EF0
:102CF000000C990B820F911D8F3F910519F014F074
:102D00008FEF04C097FF02C0108201C0808381E072
:102D10000895482F50E0FA013597EF33F10508F098
:102D200068C0E659FF4F0C94EF310E9451115DC00D
:102D300080916F02817F8E7F80936F0281E080930C
:102D4000760208950E94840550C080916F02982FEA
:102D50009095917090FB80F980936F02911145C01E
:102D6000897F877F10C080916F0281FB222720F925
:102D700091E0922790FB81F980936F029923A9F14A
:102D800080916F02816080936F022FC080916F02EB
:102D900082FB222720F991E0922790FB82F9ECCF69
:102DA00080916F0283FB222720F991E0922790FB0C
:102DB00083F9E2CF0E94C40A8091C00287FB2227D8
:102DC00020F991E0922790FB87F98093C0020DC013
:102DD000895301C08D5191E001C0990F8A95EAF79E
:102DE000892F0E941F0B0E94C40A81E0089581E090
:102DF000F8CF80E0089580E008950C94FB16CF93FF
:102E0000C82F80917602813069F038F08230C1F5A8
:102E10008C2F0E94071681E039C00E94E50F823294
:102E200089F504C00E94E50F823261F48C2F0E9464
:102E3000FD16811104C08C2F0E9489161FC081E0ED
:102E400090E01CC08C2F0E94FB16811116C0C4316B
:102E500089F058F4CB3089F0C031B1F482E080932E
:102E6000760288E30E94071608C0C93219F0C833F9
:102E700021F00AC01092760207C081E0817006C07E
:102E80001092760280E002C080E0F8CFCF910895E2
:102E900080917D0280FF0BC06091070185E0689FF3
:102EA000B001112475956795759567952BC081FFC5
:102EB00009C06091070185E0689FB00111247595F4
:102EC000679520C082FF07C06091070185E0689F79
:102ED000B001112417C090917C029923D1F0609128
:102EE0000601961788F72091070185E0289F900139
:102EF0001124929FA001939F500D112470E0CA01EC
:102F00000E94B9316038710540F46115710519F4FA
:102F100006C065E070E0862F08958FE7089581E090
:102F2000089580917D0280FF08C06091030170E0E8
:102F3000759567957595679521C081FF06C060916D
:102F4000030170E07595679519C082FF04C0609118
:102F5000030170E010C090917B02992399F0609179
:102F600002019617A0F780910301899FC0011124E7
:102F700070E00E94B9316038710540F46115710547
:102F800019F406C061E070E0862F08958FE7089578
:102F900081E00895803F21F40E944817819504C084
:102FA000813F29F40E944817809381020895823F4F
:102FB00021F40E944817819504C0833F29F40E94A0
:102FC0004817809380020895893F19F40E94911751
:102FD00005C08A3F31F40E94911781958093820247
:102FE00008958B3F21F40E949117819504C08C3F76
:102FF00029F40E9491178093830208959CE0980F12
:10300000953078F421E030E0A90102C0440F551F4B
:103010009A95E2F7CA0190917F02892B80937F02F3
:1030200008958D3F21F480917D0281600BC08E3F19
:1030300021F480917D02826005C08F3F29F4809148
:103040007D02846080937D020895803F39F49091E1
:10305000810297FF35C01092810259C0813F29F447
:10306000909181021916BCF32BC090918002823F8F
:1030700029F497FF25C01092800249C0833F19F4BC
:103080001916CCF31DC090918202893F29F41916BC
:10309000BCF4109282023BC08A3F19F497FF10C023
:1030A000F8CF8B3F39F49091830297FF09C01092BB
:1030B00083022DC08C3F21F4909183021916BCF33A
:1030C0009CE0980F953080F421E030E0A90102C027
:1030D000440F551F9A95E2F7CA01809590917F029F
:1030E000892380937F0213C08D3F21F480917D025C
:1030F0008E7F0BC08E3F21F480917D028D7F05C0B5
:103100008F3F29F480917D028B7F80937D02809197
:103110008002811106C080918102811102C010924B
:103120007C0280918202811106C08091830281110C
:1031300002C010927B0208950E94AA292091800269
:10314000211104C020918102222321F090937A0260
:103150008093790220918202211104C02091830280
:10316000222321F090937802809377028EE792E0F9
:103170000C942428EF92FF920F931F93CF93DF9329
:1031800000D000D000D0CDB7DEB786E0EEE7F2E0A9
:10319000DE01119601900D928A95E1F7E090800290
:1031A000F0908102009182021091830210928002BD
:1031B000109281021092820210928302E11003C0E9
:1031C000FF2009F45DC08091790290917A020E94FB
:1031D000C229AC0190917C02992339F02091080119
:1031E00030E02417350758F04BC0209109018AE0E0
:1031F000289F900111242417350718F041C09F3FE4
:1032000019F09F5F90937C02EE2061F00E944817B6
:103210001E1414F09FEF01C091E0989F902D11248F
:1032200090938002FF2061F00E9448171F1414F051
:103230009FEF01C091E0989F902D112490938102FF
:10324000309180023323E1F0209181022223C1F0EA
:1032500045EB3403C0011124992319F090938002A7
:1032600003C081E08093800235EB2303C001112469
:10327000992319F09093810203C081E08093810229
:10328000011103C0112309F45DC080917702909170
:1032900078020E94C229AC0190917B02992339F0F7
:1032A0002091040130E02417350758F04BC02091DD
:1032B00005018AE0289F900111242417350718F092
:1032C00041C09F3F19F09F5F90937B02002361F004
:1032D0000E949117101614F09FEF01C091E0989F83
:1032E000902D112490938202112361F00E94911776
:1032F000111614F09FEF01C091E0989F902D1124BA
:1033000090938302309182023323E1F02091830273
:103310002223C1F045EB3403C0011124992319F095
:103320009093820203C081E08093820235EB2303F5
:10333000C0011124992319F09093830203C081E006
:10334000809383028091800281110BC08091810261
:10335000811107C080918202811103C08091830294
:1033600081110E949C18EB82FC820D831E8386E0F3
:10337000FE013196AEE7B2E001900D928A95E1F739
:1033800026960FB6F894DEBF0FBECDBFDF91CF916A
:103390001F910F91FF90EF900895EEE7F2E086E025
:1033A000DF011D928A95E9F710927C0210927B0250
:1033B00010927D020895EF92FF920F931F93CF9387
:1033C000DF938B01682F11110AC0442329F0E82FE5
:1033D000F0E0ED5AF94F6491762F862F75C0212FBA
:1033E00030E0E82FF0E0442321F0ED5AF94FE4916A
:1033F000F0E046E0049FC0011124CFEFD0E0BE0111
:103400000E94A5314BEA4603C001479F900D11244D
:10341000800F911D800F911D982F990F890FAE017C
:10342000421B530B4E9FD0014F9FB00D5E9FB00DBE
:1034300011249B2F189FA0011124452F55278E0181
:10344000041B150B0E9FA0010F9F500D1E9F500DCA
:1034500011247E01E81AF108E29E8001E39E100D1E
:10346000F29E100D1124212F3327C21BD30BCE9FA8
:103470009001CF9F300DDE9F300D11246230710519
:10348000A9F048F46115710569F061307105C9F45E
:103490008B2F752F0DC06430710581F058F06630A8
:1034A000710579F47E2F8B2F932F0DC0832F7B2FE7
:1034B0009E2F09C08E2F7B2F952F05C08E2F732F27
:1034C00002C07E2F852F692FDF91CF911F910F9121
:1034D000FF90EF90089541E00E94DB190895089550
:1034E0000E946B1A0895CF93DF93762FE901682F1E
:1034F000842F0E94701A798368838A83DF91CF9129
:1035000008958091DA02282F269530E021153105A3
:1035100019F48170826005C02532310524F0817074
:1035200088648093DA02089588E090E00C945B321E
:10353000CF92DF92EF92FF926B017C010E94811A81
:10354000B701A60188E090E0FF90EF90DF90CF9068
:103550000C9479326091DA027091DB028091DC0286
:103560009091DD020C94981AEAEDF2E083E08083FA
:1035700011828FEF828383831482608171818281C3
:1035800093810C94981A8091DA0280FF02C086958C
:10359000089580E008959091DE02933018F49F5FC3
:1035A0009093DE02882351F06091DA027091DB0281
:1035B0008091DC029091DD020C94981A089581E0CC
:1035C0000C94CB1A9091DE02992319F091509093AC
:1035D000DE02882351F06091DA027091DB02809163
:1035E000DC029091DD020C94981A089581E00C940D
:1035F000E21A8091DE0208958093DE02662351F084
:103600006091DA027091DB028091DC029091DD0220
:103610000C94981A089560E00C94FC1A8091DB02D7
:1036200008958091DC0208958091DD02089570E094
:103630000C94422260910E018091DA0280FF0AC050
:1036400080910D0123E0829FC001112481529D4F82
:103650000C94171B80910F0190911001891780F72E
:10366000E82FF0E09F01220F331FE20FF31FE1521A
:10367000FD4F1182108212828F5FF0CF9091DA029B
:1036800090FF16C090910F0120911001921770F4D5
:10369000E92FF0E0DF01AA0FBB1FEA0FFB1FE15289
:1036A000FD4F8183608342839F5FF0CF0C941A1B90
:1036B0000895CF93DF9300D01F92CDB7DEB79091DE
:1036C000DA0290FF0AC09E012F5F3F4F0E94731ADB
:1036D0004B8169818A810E943E1B0F900F900F9051
:1036E000DF91CF910895CF93DF93EC01EC81F0E06F
:1036F000E25BFA4F4491EAEDF2E0628181810E943F
:10370000591B8C818F5F8C83DF91CF910895CF936C
:10371000DF93EC01EAEDF2E0438162818C810E944B
:10372000591B8C818F5F8C83DF91CF9108950F930C
:103730001F93CF93DF9300D01F92CDB7DEB78C01DC
:103740008091840281110AC09E012F5F3F4F4FEF8D
:103750006FEF0E94731A8A8180938402F80184813A
:10376000813051F028F0823061F4409184020AC027
:103770008091840240E007C06091840240E080E0D4
:1037800003C040E080E060E00E943E1BF8018481BD
:1037900090E0019663E070E00E94B93184830F905D
:1037A0000F900F90DF91CF911F910F910895AF92DD
:1037B000BF92CF92DF92EF92FF920F931F93CF931E
:1037C000DF9300D01F92CDB7DEB7182FF62E042F4F
:1037D000E22E9091DA0290FF6DC0E92FE695AE2FB0
:1037E000B0E0A056BE4F8C9180938E029E7F9230A7
:1037F00061F49E012F5F3F4F812F0E94731A4B810E
:1038000069818A810E943E1B43C0823019F4009175
:10381000DD023EC0863019F41091DB0239C08930D8
:10382000D9F38931A9F5E9518E2F8170D82EE6950B
:10383000F0E0E25BF94FA590B490C12CBB246091FD
:103840001101C61618F52C2D30E0A29EC001A39ED2
:10385000900DB29E900D112470E00E94A531812F31
:10386000D11002C0860F01C0861B90910F01290F55
:10387000311DA901440F551F240F351F21523D4F03
:10388000402F6F2D0E94731AC394D9CF0E941A1B28
:103890001093DB02F092DC020093DD02EE2051F087
:1038A0006091DA027091DB028091DC029091DD027E
:1038B0000E94981A0F900F900F90DF91CF911F9157
:1038C0000F91FF90EF90DF90CF90BF90AF90089551
:1038D000EAEDF2E09181282F4381628188E0890F2F
:1038E0000C94D71B81E00C94681CEAEDF2E0918106
:1038F000282F4381628188EF890F0C94D71B81E0C8
:103900000C94751CEAEDF2E0628121E1620F08F48B
:103910006FEF282F438181810C94D71B81E00C9499
:10392000821CEAEDF2E0628121E1621B08F460E0B2
:10393000282F438181810C94D71B81E00C94911C2A
:10394000EAEDF2E0438121E1420F08F44FEF282F26
:10395000628181810C94D71B81E00C94A01CEAED5C
:10396000F2E0438121E1421B08F440E0282F62810C
:1039700081810C94D71B81E00C94AF1C20E00C9447
:10398000D71BFF920F931F93CF93DF93EC01F12C82
:103990000FEF10E060911101F616F0F480910F0125
:1039A0002F2D30E0280F311DC901880F991F280FD6
:1039B000391F21523D4F70E0C8010E94B931962F46
:1039C0008C814091DD026091DC02F99E800D112412
:1039D0000E94731AF394DECF0E941A1B9A818C8185
:1039E00090FF02C08F5F01C081508C83DF91CF9127
:1039F0001F910F91FF900895AF92BF92CF92DF92E7
:103A0000EF92FF920F931F93CF93DF93FC0182817C
:103A100080FF02C00FEF01C001E010E045E1A42EDD
:103A200080911101181708F043C080910F01C12E39
:103A3000D12CE601C80FD11DCE01880F991FC80FE8
:103A4000D91FC152DD4F198218821A8234E0E32E49
:103A5000F12CB12C809186028B0D86312CF06A2DD1
:103A60000E949731892F05C087FF03C090911101F3
:103A7000890F082E000C990BC816D90691F4809175
:103A8000DD028E9DA0018F9D500D11245595479507
:103A9000559547959E016091DC028091DB020E9462
:103AA000731AB00EF1E0EF1AF108A1F61F5FB8CF5C
:103AB0000E941A1B80918602013031F4811102C0EC
:103AC00080911101815007C090E001966091110131
:103AD00070E00E94B93180938602DF91CF911F91EF
:103AE0000F91FF90EF90DF90CF90BF90AF9008952F
:103AF000CF9380910F0190911001891770F4E82FF6
:103B0000F0E09F01220F331FE20FF31FE152FD4F40
:103B10001182108212828F5FF0CFC0E0609111019C
:103B2000C617C0F5EC2FF0E070E0CF010E94B9316C
:103B300020910F01820F20918502022E000C330B81
:103B400090E0E217F307CCF020910C01022E000C5C
:103B5000330B2E173F078CF09C01220F331F820F6F
:103B6000931F9C0121523D4F4091DD026091DC0288
:103B70008091DB020E94731A0BC0FC01EE0FFF1F45
:103B80008E0F9F1FFC01E152FD4F118210821282A5
:103B9000CF5FC4CF0E941A1B20910B018091850238
:103BA000820F8093850290910C01920F90930C01EB
:103BB00019165CF4082E000C990B4091110150E08D
:103BC00041505109841795071CF0219520930B0152
:103BD000CF9108958F929F92AF92BF92CF92DF9232
:103BE000EF92FF920F931F93CF93DF938C01FC0111
:103BF0004481C42FD0E09E01DE010E9404329B016B
:103C0000AC010E941A326B017C01E0E2F0E0EC1B97
:103C1000FD0BA5E5B0E09B01AC010E941A324B01FF
:103C20005C019F01DF010E94FC319B01AC010E94FD
:103C300025329B01AC012C0D3D1D4E1D5F1DC501A4
:103C4000B4010E94CD31C22FD22F2A3228F4F3E0E2
:103C50002F9F900111240DC025E530E02C1B310968
:103C6000C901880F991F280F391F37FF02C02F5F26
:103C70003F4F35952795C22FC095F12C85E5E82E4D
:103C8000ED1A80911101F816C8F4F1FC02C08E2DD6
:103C900001C08D2F90910F012F2D30E0290F311D84
:103CA000A901440F551F240F351F21523D4F4C2FA2
:103CB0006091DC020E94731AF394E3CF0E941A1BF6
:103CC000F8018481811102C091E003C0803219F4AF
:103CD0009FEF90930A0190910A01890FF801848364
:103CE000DF91CF911F910F91FF90EF90DF90CF90D8
:103CF000BF90AF909F908F9008950F931F93CF9395
:103D0000DF93EC0100E010E080911101282F30E0FA
:103D10000217130724F590910F019801290F311D07
:103D2000A901440F551F240F351F21523D4F869581
:103D300090E04C81081719071CF4442331F002C0AD
:103D4000411103C04091DD0201C040E06091DC02FE
:103D50008091DB020E94731A0F5F1F4FD5CF0E9424
:103D60001A1B8C8190E00196817099278C83DF91DA
:103D7000CF911F910F910895EAEDF2E080818E7F3F
:103D8000808360817181828193810E94981A109250
:103D90008F022FEF80E792E0215080409040E1F7C2
:103DA00000C000000C941A1BEAEDF2E080818E7FC7
:103DB000808310928F022FEF80E792E021508040A5
:103DC0009040E1F700C000000C941A1B6091DA02E9
:103DD000669570E04BE050E082E191E00E9439325C
:103DE000892B19F481E080938F020E94AA29909375
:103DF00088028093870208959091DA0290FF35C07F
:103E00009170811102C0926006C0853210F09864F2
:103E100002C0880F982B9093DA02662351F06091CC
:103E2000DA027091DB028091DC029091DD020E9447
:103E3000981A6091DA02669570E04BE050E082E1FA
:103E400091E00E943932892B19F010928F0202C042
:103E50000E94E61E81E080938A024091DD0260911B
:103E6000DC028091DB020C94BE1C0895682F9091B7
:103E7000DA02969581E0890F853208F081E00C9492
:103E8000FC1E81E00C94361F682F9091DA02969503
:103E90008FEF890F09F484E20C94FC1E81E00C94EE
:103EA000441F61E00C94FC1EEAEDF2E08081816029
:103EB000808386950C94511F8091DA0280FD0C94CA
:103EC000BC1E0C94541F60E00C94FC1E80918D026B
:103ED00081112EC00E94AA10811104C00E945111AC
:103EE0000E94B41A0E94941A6093DA027093DB0263
:103EF0008093DC029093DD026E7F61F40E94B41A1D
:103F00000E94941A6093DA027093DB028093DC02C1
:103F10009093DD020E94811A10928F028091DA0242
:103F200080FF03C086950E94631F81E080938D020D
:103F30000895EAEDF2E080818160808386950C949B
:103F4000631F0F931F93CF93DF9380918F0288237A
:103F500009F485C080918E02E091DA02E695E81BB3
:103F6000E0938902823049F4F0E0E65BFA4FE49195
:103F7000CE2FD0E003E71BE149C0863049F4F0E0E2
:103F8000E95BFA4FE491CE2FD0E007E81BE13EC099
:103F9000893051F4E695F0E0EC5BFA4FE491CE2FD6
:103FA000D0E001EC1CE132C08F3051F4E695F0E036
:103FB000EF5BFA4FE491CE2FD0E00CEF1CE126C06E
:103FC000853149F4F0E0E25CFA4FE491CE2FD0E085
:103FD00008E71DE11BC0883181F0833239F4ECE33E
:103FE000F5E0C591D49107E91BE110C0843251F48A
:103FF000C4EFD1E00DE71EE109C0C8E2D0E00AEE4F
:104000001DE104C0C0EDD7E00FE61AE180918A02FD
:10401000882361F010928A020E94AA299093880254
:104020008093870210928C0210928B020E94AA2920
:10403000E0918702F09188028E1B9F0B8F3F9F4774
:1040400070F4EC0FFD1FF0938802E093870287E87D
:1040500092E0F801DF91CF911F910F910994DF91C8
:10406000CF911F910F910895882311F0FA0101C09B
:10407000FB010994CF93DF93C82FD62F0E94C31A58
:104080008C1740F00E94C31A8D1720F4DF91CF9156
:104090000C94411F8C2FDF91CF910C94511F1F93D3
:1040A000CF93DF93FB011281112309F4BCC0EC0113
:1040B0000E94E50F8272CC3CFCE5DF0709F497C053
:1040C00008F043C0C63CECE5DE0709F47CC0D8F438
:1040D000C33C9CE5D90709F46AC038F4C23CDC450E
:1040E00009F0A4C00E945C1FA0C0C43C9CE5D90795
:1040F00009F462C0C53CDC4509F098C04FE75CE1BB
:1041000062E77CE15DC0C93CFCE5DF0709F465C0FE
:1041100070F4C73CECE5DE0709F45AC0C83CDC4546
:1041200009F084C04EE85CE16DE97CE149C0CA3C1D
:104130009CE5D90709F456C0CB3CDC4509F076C0B4
:1041400046EF5AE16FED7AE13BC0C13DFCE5DF0788
:1041500009F45AC098F4CE3C9CE5D90709F44EC046
:1041600008F44AC0CF3CFCE5DF0709F44AC0C03D73
:10417000DC4509F05BC06EE089E04EC0C43D9CE5C3
:10418000D90709F447C050F4C23DFCE5DF07F9F157
:10419000C33DDC4509F04AC088E142C0C53D9CE50D
:1041A000D907E9F1CD35DD4509F43FC03FC04EE404
:1041B0005FE161E47FE104C041E45FE16EE47FE13F
:1041C0000E94342032C042E75CE16FE77CE1F8CF27
:1041D0004DE95CE16EE87CE1F3CF4BEB5CE16CEA2E
:1041E0007CE1EECF4CEA5CE16BEB7CE1E9CF4FED9B
:1041F0005AE166EF7AE1E4CF81E012C065E082E047
:104200000BC068E086E008C064E18FE005C067E1AC
:1042100085E102C062E289E10E943A2006C083E2A1
:104220000E94511F02C011E001C010E0812FDF91F8
:10423000CF911F91089586E090E00C945332682F3F
:1042400086E090E00C94673280911E030C941F214D
:1042500080911E038470896180931E030C941F213A
:1042600080911E0386958695869508950E94AA10D2
:10427000811104C00E9451110E9428210E941B211B
:1042800080931E03282F26952695269530E024300E
:10429000310524F08770886180931E0380911E038E
:1042A00080FF04C086958695869501C080E00C94B9
:1042B000EA0420911E03822F869586958695482FC5
:1042C00050E04330510554F48F5F982F990F990FA8
:1042D000990F822F8770892B80931E0380911E0374
:1042E000816080931E030E941F2180911E0386958A
:1042F000869586950C94EA0480911E03982F9695D6
:1043000096959695A1F0915E990F990F990F8770E8
:10431000892B80931E03887F91E009F490E08091BF
:104320001E0390FB80F980931E030E941F21809141
:104330001E038695869586950C94EA0480911E034B
:1043400080FD13C0816080931E03813019F489E0E1
:1043500080931E0380911E030E941F2180911E03E3
:104360008695869586950C94EA04089580911E039F
:1043700080FF08C08E7F80931E030E941F2180E073
:104380000C94EA04089580911E0380FD0C94B621DC
:104390000C949E2190911E03892F86958695869573
:1043A0008F5F8F719770843038F4880F880F880F73
:1043B000892B80931E0302C090931E0380911E03DD
:1043C000887F91E009F490E080911E0390FB80F9D2
:1043D00080931E030E941F2180911E03869586955F
:1043E00086950C94EA04843008F083E090911E03D3
:1043F0009770282F220F220F220F922B90931E03CB
:10440000987F21E009F420E090911E0320FB90F9B1
:1044100090931E030C94EA040E94F32180911E03E2
:104420000C941F219C01FB018281882349F12D3BC3
:10443000FCE53F07C9F040F42B3BECE53E0769F093
:104440002C3B3C4561F008952F3B9CE5390791F0EA
:1044500070F0203C3C4589F0089583E001C080E085
:104460000E940C2280E008950E947C21FBCF0E94D4
:104470005921F8CF0E94C321F5CF0E94CA21F2CF63
:1044800081E00895579A2BB12F773BB130684FB731
:10449000F894FC01CB01880F991F680F791F6E0FEC
:1044A0007F1FE617F70789F0819198E03BB900007C
:1044B00000C087FF2BB9880F000000C000C000C0FB
:1044C0002BB900C09A9591F7ECCF4FBF8FE594E0E0
:1044D0000197F1F700C00000089583E290E00E9488
:1044E0005332813281F484E290E00E945332803171
:1044F00051F485E290E00E94533291E0803109F05E
:1045000090E0892F01C080E081700895CF93C82F7B
:10451000811102C06FEF01C061E283E290E00E946E
:104520006732C11102C06FEF01C060E184E290E028
:104530000E946732C11102C06FEF01C060E185E2E5
:1045400090E0CF910C946732089586E290E00E944B
:104550005332682F70E080E090E0089586E290E0AA
:104560000C94673280E00E94862260E070E0CB010C
:104570000E94AE220E948E240E946D2581E00C9440
:1045800086220E94A4220E946D22811102C00C94F6
:10459000B2220895CF93FB01C281CC23E9F09C01A4
:1045A00022513F452031310520F482510E947D2562
:1045B0000CC08031FFE59F0751F481E00E94430B5E
:1045C00043E062E081E00E947005C0E018C08131E4
:1045D0009F45A9F482E0F2CF8031EFE59E0711F408
:1045E00081E004C081319F4549F482E00E944E0B76
:1045F00043E062E081E00E94700501C0C1E08C2FC1
:10460000CF9108952FEFFC0120830895CF93DF937E
:10461000FC012081293029F02A3079F4FC01118233
:104620000CC0EC010E943021FFEF8F9FC0011124CC
:1046300063E070E00E94A5316983DF91CF91089516
:10464000FC012081293061F48181F3E08F9FC0015A
:1046500011246FEF70E00E94A531862F0C94F32196
:104660000895CF93DF93EC018881813889F028F495
:104670008038A1F40E94141B10C0823861F0833886
:1046800069F40E940E1B89830E94111B8A8306C055
:104690000E94C31A02C00E94F91A8983DF91CF9148
:1046A0000895CF93DF93EC0188818138B1F058F4FD
:1046B000803851F5D9810E94111BC82F0E940E1B12
:1046C0004D2F6C2F1DC08238B1F08338E9F40E9461
:1046D000141B482F6A81898113C089810E94631F3E
:1046E0008981811104C0DF91CF910C94D41EDF9198
:1046F000CF910C94991F8981DF91CF910C940B1B62
:10470000DF91CF910C94BE1CDF91CF910895DF9281
:10471000EF92FF920F931F93CF93DF93EC01D62E6E
:104720008C010F5F1F4FE8818E2F90E0FC013197C5
:10473000E331F10508F0A4C0E755FF4F0C94EF31C9
:10474000198289E060C08981823039F0833061F05C
:10475000813029F50E94B62902C00E94A5229A83C1
:104760008B837C836D838EC07E0110E0812F0E943D
:104770008F14F701928383831F5FF2E0EF0EF11C29
:104780001630A1F77FC08981823049F46A817B812C
:104790008C819D810E94F5310E94AE2273C06D2DE7
:1047A000CE010E9402236EC04B816A8189810E94E2
:1047B00060249C838D8366C02C813D813227232712
:1047C00032274B816A8189810E9479245BC00E94D3
:1047D0008E2458C0C8010E942023C8010E94512382
:1047E00051C0C8010E940623C8010E9431234AC05B
:1047F0000E9424210E94AA1A45C00E94202524C09C
:104800000E94222599838A833DC06B8170E0898153
:104810009A81AE014C5F5F4F9827892798270E94A5
:10482000252530C06B8170E089819A81AE014C5F93
:104830005F4F9827892798270E944A2523C00E9406
:104840006D2520C00E944D2489831CC06B8170E0BF
:1048500089819A81AE014C5F5F4F982789279827FD
:104860000E94CD240FC06B8170E089819A81AE01D6
:104870004C5F5F4F9827892798270E94F12402C038
:104880008FEF88836D2DCE01DF91CF911F910F9116
:10489000FF90EF90DF900C94B52A84E0089550E0EB
:1048A000440F551F20E2629F400D511D11249A01B3
:1048B00060EC869F200D311D1124C9018796089553
:1048C0000F931F93CF93DF930E944F248C010E947C
:1048D0005332C82FD0E0DC2FCC27C80101960E94AC
:1048E00053329E01282BC901DF91CF911F910F9167
:1048F00008950F931F93CF93DF93122F032F0E94DE
:104900004F24EC01602F0E946732612FCE01019687
:10491000DF91CF911F910F910C946732AF92BF92AC
:10492000CF92DF92EF92FF920F931F93CF93DF937B
:10493000A12CE12CF12CB12C00E010E0C0E0D0E083
:104940006701C00ED11EF601EC0FFD1FEE0FFF1F19
:10495000E457FE4F259134914C2F6B2D8A2D0E94E8
:1049600079242196C031D10571F7005F1F4FB394B0
:1049700086E0B812E3CF80E6E80EF11CA39484E051
:10498000A812D9CFDF91CF911F910F91FF90EF9097
:10499000DF90CF90BF90AF900895EF92FF920F936A
:1049A0001F93CF93DF93EA017A01E60EF71E8C0185
:1049B000C8018796CE15DF0569F0011523E01207BF
:1049C00020F40E945332888301C0188221960F5F21
:1049D0001F4FEECFDF91CF911F910F91FF90EF907E
:1049E0000895EF92FF920F931F93CF93DF93EA0105
:1049F0007A01E60EF71E8C01C8018796CE15DF05F9
:104A000059F0011523E0120718F468810E946732FB
:104A100021960F5F1F4FF0CFDF91CF911F910F9124
:104A2000FF90EF900895462F843038F4763028F4C4
:104A3000603118F4672F0C94602480E090E00895B2
:104A400080E1089589ED94E00895EF92FF920F932D
:104A50001F93CF93DF93EA017A01E60EF71E8C01D4
:104A6000C801895D9C4FCE15DF0569F0093D24E042
:104A7000120720F40E945332888301C018822196C5
:104A80000F5F1F4FEDCFDF91CF911F910F91FF90DF
:104A9000EF900895EF92FF920F931F93CF93DF93C0
:104AA000EA017A01E60EF71E8C01C801895D9C4F70
:104AB000CE15DF0559F0093D24E0120718F468818E
:104AC0000E94673221960F5F1F4FEFCFDF91CF918A
:104AD0001F910F91FF90EF900895CF93DF93C7E25E
:104AE000D3E060E0CE010E9467322196C11588E0D4
:104AF000D807B9F7DF91CF910895DF92EF92FF9237
:104B00000F931F93CF93DF9300D000D0CDB7DEB7C4
:104B1000F82E8FE08F15E8F18FEF97E00E94533267
:104B2000811137C007E213E0FF2069F0011588E02A
:104B3000180779F1C8010E945332811101C0FA941B
:104B40000F5F1F4FF1CF19821A821B821C82DD2456
:104B5000D39478018FEFE81AF80AC8010E94533203
:104B600089831A828823A9F09FEF980F933058F415
:104B70008A83D9820E5F1F4FC7010E9453328B83F5
:104B8000882339F07801CE0101960E94C906870179
:104B9000E0CF0F900F900F900F90DF91CF911F916A
:104BA0000F91FF90EF90DF9008950F931F93CF9395
:104BB000DF93C42FD22FFC0182818823C9F0409358
:104BC00092020E94AA29909391028093900280E21F
:104BD0008C0F883008F057C0C77081E001C0880F83
:104BE000CA95EAF7DF91CF911F910F910C94640859
:104BF00080919202481330C080919002909191026E
:104C00000E94C229883C910538F510E21D0FCD178E
:104C1000B9F080E28C0F883040F4C77081E001C0A9
:104C2000880FCA95EAF70E946B08183028F581E0D2
:104C30009D2F977001C0880F9A95EAF70E9464082B
:104C4000802F0E945B081830F0F4D77081E001C01B
:104C5000880FDA95EAF70AC080E28C0F883098F462
:104C6000C77081E001C0880FCA95EAF7DF91CF9144
:104C70001F910F910C946B08802FDF91CF911F91A2
:104C80000F910C945B08DF91CF911F910F910895C4
:104C90000F939C01CB01233F4CE5340731F188F49D
:104CA000283DFCE53F07D9F0293D4CE5340779F173
:104CB000273D3C45A9F506E221EE41EE67ED7CE596
:104CC0002BC0253FFCE53F07E1F0A8F0263F3C451F
:104CD00039F507E225EE46EE66EF7CE51DC007E2FA
:104CE00025EE45EE68ED7CE517C006E221EE40EECC
:104CF00063EF7CE511C007E225EE44EE64EF7CE54E
:104D00000BC006E221EE42EE65EF7CE505C008E24D
:104D100021E045EE69ED7CE50E94D52580E008C0E4
:104D2000FC018281882319F01092920201C081E077
:104D30000F910895CF93DF93EC01FB0182818823CB
:104D400009F41FC1C230FCE5DF0708F41BC1C631FE
:104D50009CE5D90738F09E012A5F3C452930310592
:104D600008F010C10E94BD109093C1028093C00250
:104D7000C031ECE5DE0709F4C3C008F041C0C8301B
:104D80008CE5D80709F49AC0F0F4C430ECE5DE07EE
:104D900009F487C068F4C2308CE5D80709F477C0FD
:104DA000C330DC4509F0E3C08091C002826076C068
:104DB000C630ECE5DE0709F46EC008F07BC08091D8
:104DC000C00288606BC0CC308CE5D80709F485C080
:104DD00068F4CA30ECE5DE0709F474C008F079C065
:104DE0000E94C40A8091C002806858C0CE308CE511
:104DF000D80709F476C008F07FC08091C0028BC04C
:104E0000CB3FECE5DE0709F44FC018F5C3318CE564
:104E1000D80709F47DC078F4C131ECE5DE0709F468
:104E200073C0C231DC4509F0A2C00E94C40A80915F
:104E3000C0028F7733C0C5318CE5D80709F472C042
:104E400008F486C0CA3FDC4509F091C08091C102D8
:104E50003EC0CF3FFCE5DF0709F45FC058F4CD3F0B
:104E60009CE5D90709F444C008F43FC08091C10211
:104E700082602DC0C130FDE5DF0709F475C008F47C
:104E80005DC0C230DD4509F072C080E06EC0809127
:104E9000C002816003C08091C00280618093C00223
:104EA00066C08091C00211C08091C102826080936F
:104EB000C1025DC08091C0028062F0CF8091C002CB
:104EC0008064ECCF8091C00288608460E7CF81600D
:104ED000EECF8091C0028E7FE1CF8091C0028D7FA6
:104EE000DDCF8091C002877FD9CF8091C10218C0E9
:104EF0008091C1028D7FDBCF8091C0028F7ECECFAB
:104F00008091C0028F7DCACF8091C0028F7BC6CFB7
:104F10008091C002877F8B7FC1CF8091C1028D7F3E
:104F20008E7FC5CF8091C00282FB222720F991E0BD
:104F3000922790FB82F990FB83F9B0CF8091C10258
:104F4000982F909591708E7F892B90FB81F9AFCF30
:104F50000E94C40A8091C00287FB222720F991E0B9
:104F6000922790FB87F99ACF81E00E94531180919C
:104F7000C0029091C1020E94CE100E94C40A80E03B
:104F800001C081E0DF91CF910895CF93DF93863107
:104F90009C4541F5EB010E94E50F982F8A812091F5
:104FA000000130910101882379F09A7A81E009F4B7
:104FB00080E080939302911102C069E201C065E331
:104FC000C9010E94F4280AC080919302811102C095
:104FD00069E201C065E3C9010E94FF280E94371001
:104FE00080E001C081E0DF91CF9108959093990214
:104FF000809398020895E0919802F0919902309779
:1050000021F00190F081E02D099480E008950E9444
:10501000FB270895E0919802F0919902309799F05A
:1050200020912701222359F02091C00227FF07C0B9
:10503000DC012C9111962C93119725E02C93028082
:10504000F381E02D09940895E0919802F09199027E
:10505000309739F022E0DC012C930480F581E02DBB
:1050600009940895209196023091970228173907E4
:1050700071F09093970280939602E0919802F091DC
:105080009902309721F00680F781E02D0994089568
:1050900020919402309195022817390771F090936E
:1050A000950280939402E0919802F09199023097D2
:1050B00021F00084F185E02D09940895FC013296D9
:1050C00080912701882331F08091C00287FF02C0C0
:1050D0009EE101C096E080E0915028F021912223CA
:1050E000D9F38F5FF9CF0895662351F120912701FD
:1050F0002223E9F02091C00227FF19C0462F4695D0
:10510000469546954E31E0F4677021E030E002C0EC
:10511000220F331F6A95E2F7FC01E40FF11D828133
:1051200090E02823392381E0232B69F409C0FC0196
:10513000329608962191621729F0E817F907D1F7FE
:1051400080E0089581E008959C01FC0132969FEF74
:1051500080E04191461789F09F3F19F4411101C049
:10516000982F8F5F8630A9F79F3F39F0F901E90F3B
:10517000F11D97FDFA956283089508959C012A5FB9
:105180003F4FFC014281461301C0128201968217F3
:105190009307B9F70895262F2695269526952E3143
:1051A00068F4FC01E20FF11D677021E030E001C0FE
:1051B000220F6A95EAF78281282B22830895262FF1
:1051C0002695269526952E3170F4FC01E20FF11DEF
:1051D000677021E030E001C0220F6A95EAF7209560
:1051E000828128232283089520912701222329F0F8
:1051F0002091C00227FD0C94CB280C94A428209168
:105200002701222329F02091C00227FD0C94DF28DA
:105210000C94BE2820912701FC013296222331F004
:105220008091C00287FF02C08EE101C086E0DF01ED
:105230001D928A95E9F70895089508950C941D2903
:105240000C941D29CF930E9420290E9476150E945C
:105250001E29C0E08C2F0E948F14892B29F4CF5F68
:10526000C630C1F780E001C081E0CF9108950C9471
:105270001D290C94372980912703843061F10E9405
:10528000392980E00E94EA0480E00E94D40610924E
:105290009A0220E488E190E00FB6F894A8958093F4
:1052A00060000FBE2093600083B7817F846083BF5E
:1052B00083B7816083BF7894889583B78E7F83BFDF
:1052C0000FB6F894A8958091600088618093600083
:1052D000109260000FBE08950C941D290E94C40A0C
:1052E0000E9436210E94FB270E94D4060C946C2950
:1052F0001F920F920FB60F9211248F939F93AF932B
:10530000BF9380919A02811113C080911F039091E5
:105310002003A0912103B09122034196A11DB11D4C
:1053200080931F0390932003A0932103B093220343
:10533000BF91AF919F918F910F900FBE0F901F90D3
:10534000189582E084BD93E095BD9AEF97BD809358
:105350006E0008952FB7F89480911F039091200359
:10536000A0912103B09122032FBF08952FB7F89485
:1053700060911F037091200380912103909122037B
:105380002FBF08959C014FB7F89480911F0390910F
:105390002003A0912103B09122034FBF821B930BE6
:1053A000089578941F920F920FB60F9211248F9345
:1053B0009F93AF93BF9380911F0390912003A0917F
:1053C0002103B09122030196A11DB11D80931F03FB
:1053D00090932003A0932103B0932203BF91AF9138
:1053E0009F918F910F900FBE0F901F90189581E0A5
:1053F0008093E00080E28093D8001092C9008FE192
:105400009EE40197F1F700C0000087E090EBDC011B
:105410008093300390933103A0933203B09333030E
:105420009CE088E10FB6F894A895809360000FBEC9
:1054300090936000FFCF9093D5018093D40108959D
:105440008091BE02089590912703943029F58093AE
:105450009B0270939D0260939C029093E9008FEFF2
:105460009091E800815095FD06C095ED9A95F1F771
:1054700000008111F5CF8091E80085FF0DC040E06C
:1054800050E063E070E08BE992E00E94AF2C8091E5
:10549000E8008E778093E8000895BC0184E00C94C6
:1054A000232ABC0183E00C94232A24E02093E90002
:1054B0002FEF3091E800215035FD06C035ED3A95CB
:1054C000F1F700002111F5CF2091E80025FF0BC076
:1054D00040E050E066E070E00E94AF2C8091E80070
:1054E0008E778093E8000895CF93DF932091270172
:1054F000222339F02091C00227FF03C060E224E09C
:1055000002C068E021E02093E9002FEF3091E8002D
:10551000215035FD06C035ED3A95F1F70000211117
:10552000F5CF2091E80025FF1DC0EC0180912701F7
:10553000811105C040E050E068E070E003C070E019
:1055400040E050E0CE010E94AF2C8091E8008E77C1
:105550008093E80080E2FE01AEE9B2E001900D9296
:105560008A95E1F7DF91CF910895CF93603219F5D5
:10557000209127032430F9F4C091E900CF703091D5
:10558000EC00232F217030FD20E8C22B22E0209375
:10559000E9002091E80020FF0BC040E050E060E20D
:1055A00070E00E94AF2C8091E8008E778093E80035
:1055B000CF70C093E900CF910895809126038111A7
:1055C00009C00E94872E0E94E92E8091E20084602B
:1055D0008093E20008951092260308950895089597
:1055E000089542E061EC81E00E94002E42E261EC0D
:1055F00084E00E94002E42E261EC82E00E94002ED4
:1056000042E260EC83E00C94002E80912903833009
:1056100009F460C030F4813071F0823009F499C02F
:1056200008958A3009F485C08B3009F46BC0893045
:1056300009F0A7C020C080912803813A09F0A1C0D9
:105640008091E800877F8093E80080912C039091FF
:105650002D03892B21F460E28EE992E003C060E023
:1056600080E090E070E00E94452D8091E8008B770B
:105670008093E800089580912803813209F081C069
:1056800080912C0390912D03009719F0029709F057
:1056900078C08091E800877F8093E8008091E800DF
:1056A00082FD05C0809127038111F8CF6AC08091E7
:1056B000F2009091F300029729F48091F1008B7F22
:1056C000813021F48091F1008093BE028091E80046
:1056D0008B7753C080912803813A09F052C08091A2
:1056E0002C0390912D03892B09F04BC08091E80089
:1056F000877F8093E8008091E80080FFFCCF809155
:10570000270136C0809128038132D9F580912C037E
:1057100090912D03892BA9F58091E800877F8093D4
:10572000E8000E94352E80912A03809327010C9473
:10573000C40A80912803813221F58091E800877F97
:105740008093E8000E94352E80912B038093BF0246
:10575000089580912803813AA1F48091E800877F21
:105760008093E8008091E80080FFFCCF8091BF0229
:105770008093F1008091E8008E778093E8000C948C
:10578000352E089584B7877F84BF0FB6F894A89507
:1057900080916000886180936000109260000FBE6D
:1057A00090E080E80FB6F8948093610090936100D8
:1057B0000FBE0C9483110E94872E0E94E92EE2EE08
:1057C000F0E080818460808378940E947C310E9424
:1057D00091118DE191E00C94F627CF93DF93CDB733
:1057E000DEB7A0970FB6F894DEBF0FBECDBF809195
:1057F00027038530A9F480912703853079F40E942E
:105800003B29809125038823B1F30E942229882314
:1058100091F30E94992C0E94C40AEDCF0E946E2938
:105820000E949D1180912703843011F583E08093BD
:10583000E9008091E80082FF1BC08091E80085FFAD
:105840000AC040E050E060E270E0CE0101960E94A4
:10585000FA2C91E001C090E08091E8008B77809372
:10586000E800992329F060E2CE0101960E94872387
:10587000A0960FB6F894DEBF0FBECDBFDF91CF91DB
:1058800008950C94432C292F332723303105C9F078
:1058900060F42130310581F02230310509F041C03A
:1058A0008BE590E02FE837E040C021323105E1F090
:1058B0002232310531F135C082E190E02AEE37E045
:1058C00034C099278130910549F028F0029749F5B5
:1058D000E3E5F7E005C0EBE8F7E002C0E1E7F7E059
:1058E000849190E09F0121C063307105D0F4660F70
:1058F000771FFB01E253FE4F2081318189E090E068
:1059000014C06330710568F4FB01EE0FFF1FE8530C
:10591000FE4F20813181FB01EB53FE4F808190E0EF
:1059200004C080E090E020E030E0FA013183208381
:10593000089588E189BD8AE189BD09B400FEFDCFE3
:105940008091D8008F7D8093D8008091E0008260A4
:105950008093E0008091E00081FDFCCF0895CF921C
:10596000DF92EF92FF920F931F93CF93DF93EC019F
:105970008B017A010E94542E811133C0E114F1048D
:1059800039F0F70180819181081B190BC80FD91FCD
:10599000C12CD12C0115110519F18091E80085FD6C
:1059A00016C08091E8008E778093E800E114F1043E
:1059B00049F0F70180819181C80ED91ED182C08241
:1059C00085E00FC00E94542E882321F30AC08991DC
:1059D0008093F10001501109FFEFCF1ADF0ADACFEF
:1059E00080E0DF91CF911F910F91FF90EF90DF90BA
:1059F000CF900895CF92DF92EF92FF920F931F9373
:105A0000CF93DF93EC018B017A010E94542E811118
:105A100033C0E114F10439F0F70180819181081B52
:105A2000190BC80FD91FC12CD12C0115110519F163
:105A30008091E80085FD16C08091E8008B77809307
:105A4000E800E114F10449F0F70180819181C80E6A
:105A5000D91ED182C08285E00FC00E94542E8823B7
:105A600021F30AC08091F100899301501109FFEFE1
:105A7000CF1ADF0ADACF80E0DF91CF911F910F912B
:105A8000FF90EF90DF90CF90089520912E033091FA
:105A90002F032617370748F06115710539F4209157
:105AA000E8002E772093E80001C0B901FC0120E056
:105AB0006115710569F1809127038823E1F1853033
:105AC000E1F18091E80083FD3AC08091E80082FD19
:105AD0002CC08091E80080FFEBCF8091F200909184
