:100000000C9418040C945F040C945F040C945F042B
:100010000C945F040C945F040C945F040C945F04D4
:100020000C945F040C945F040C94EB1B0C94271B42
:100030000C9400200C945F040C945F040C945F04F7
:100040000C945F040C945F040C945F040C945F04A4
:100050000C945F040C94BF1F0C945F040C945F0419
:100060000C945F040C945F040C945F040C945F0484
:100070000C945F040C945F040C945F040C945F0474
:100080000C945F040C945F040C945F040C945F0464
:100090000C945F040C945F040C945F040C945F0454
:1000A0000C945F040C945F040C945F04A909A909E3
:1000B000E309E3093C0A570B570B570B580ACC0AC4
:1000C000DD0ADD0A6B0E6E0E970EA40EAB0ECB0E84
:1000D000CE0E100F320FD30FD30F3D0F3F0F430F34
:1000E000680F8A0F8D0F900FB30F3B196219091B10
:1000F0006219091BAE19D119091BC61AD61A542543
:100100005425672567255D256725672567255425BF
:10011000542562256725672562250024455500255D
:10012000355600263646002737470028384800292C
:100130003949002A3A4A002B3B4B00A4948400A57D
:10014000958500A6968600A7978700A8988800A99D
:10015000998900AA9A7900AB8A7A002C4D5D002D0E
:100160003D5E002E3E4E002F3F4F0030405000318C
:100170004151003242520033435300AC9C8C00ADDD
:100180009D8D00AE9E8E00AF9F8F00B0A09000B1FD
:10019000A19100B2A28100B3928200000000000091
:1001A000000000000000000000000000000000004F
:1001B00000000000000000000000000000007E0FB2
:1001C00000D4FFFFFFC7000000780000000000001F
:1001D00000002A2B280000000000000000000000A2
:1001E000000000000029000000002C1E3420212205
:1001F00024342627252E362D3738271E1F2021226E
:10020000232425263333362E37381F0405060708E6
:10021000090A0B0C0D0E0F101112131415161718D6
:10022000191A1B1C1D2F3130232D35040506070814
:10023000090A0B0C0D0E0F101112131415161718B6
:10024000191A1B1C1D2F3130354C00047F3F1F64D1
:100250003214643214783C1E1E140A05050109800C
:10026000A101850319012AB700150126B7009501E0
:1002700075108100C0050C0901A101850419012A2E
:10028000A002150126A002950175108100C005018C
:100290000906A1018505050719E029E715002501D3
:1002A0009508750181020507190029EF1500250140
:1002B00095F075018102050819012905950575015B
:1002C0009102950175039101C00660FF0961A101CA
:1002D0000962150026FF0095207508810209631543
:1002E0000026FF00952075089102C005010906A1AE
:1002F00001050719E029E715002501950875018119
:10030000029501750881010507190029FF150026CE
:10031000FF00950675088100050819012905950556
:1003200075019102950175039101C009025B0003FB
:100330000100A0FA090400000103010100092111D4
:100340000100012240000705810308000A09040199
:100350000002030000000921110100012222000710
:1003600005820320000107050303200001090402A0
:10037000000103000000092111010001226D0007A6
:1003800005840320000A1201000200000008654EE7
:10039000364E01000102000118034E003600200015
:1003A0004B006500790062006F006100720064001C
:1003B00000001A034E00650073006F006E002000FD
:1003C000440065007300690067006E0000000403CC
:1003D00009042223252628292A2C2D2F30323335B3
:1003E00036383A3B3D3E4042434547494A4C4E50E1
:1003F00051535557595A5C5E6062646668696B6D0B
:100400006F71737577797B7D7F81838587898A8C0E
:100410008E90929496989A9C9E9FA1A3A5A7A8AA15
:10042000ACAEAFB1B3B4B6B8B9BBBCBEBFC1C2C34A
:10043000C5C6C7C9CACBCCCDCED0D1D2D2D3D4D5E4
:10044000D6D7D7D8D9D9DADADBDBDBDCDCDCDCDC0D
:10045000DDDDDDDDDCDCDCDCDCDBDBDBDADAD9D9E5
:10046000D8D7D7D6D5D4D3D2D2D1D0CECDCCCBCA73
:10047000C9C7C6C5C3C2C1BFBEBCBBB9B8B6B4B399
:10048000B1AFAEACAAA8A7A5A3A19F9E9C9A98962F
:100490009492908E8C8A89878583817F7D7B797702
:1004A0007573716F6D6B6968666462605E5C5A59E2
:1004B00057555351504E4C4A4947454342403E3DA3
:1004C0003B3A3836353332302F2D2C2A2928262531
:1004D000232229001E001F002000210022002300EB
:1004E00024002500260027002D002E004C002A00A5
:1004F0002B0014001A000800150017001C0018003B
:100500000C00120013002F00300031004A003900A7
:1005100004001600070009000A000B000D000E0081
:100520000F0033003400000028004D00E1000000FF
:100530001D001B0006001900050011001000360008
:1005400037003800E50052000151E000E300E2000E
:10055000000000000000000000002C00E600E700A2
:10056000500051004F00460001003A003B003C00A3
:100570003D003E003F004000410042004300440077
:10058000450001004600005CC25CC35C01006B00DA
:100590006C00010001000100010001004B004E0051
:1005A0000100010001000100010001000100010043
:1005B0005000510052004F004A004D000000010061
:1005C0000100010000000100010001000100010024
:1005D0000100010001000100010001000100010013
:1005E0000100010001000000000000000000000008
:1005F00001000100010001000100010001000100F3
:1006000001000100010001000100010001000100E2
:1006100001000100010001000100010001000100D2
:1006200001000100010001000100010001000100C2
:1006300001000100010001000100010001000100B2
:1006400001000100010001000100010001000100A2
:100650000100000001000100010000000100010094
:100660000100010001000100010001000100010082
:100670000100010001000100010001000000000074
:100680000000000000000100010001000053010013
:100690000100010001000100010001000100010052
:1006A0000100010001000100010001000100010042
:1006B0000100010001000100010001000100010032
:1006C0000100010001000100010001000100010022
:1006D0000100010001000100010001000100010012
:1006E0000100010001000100000001000100010003
:1006F00000000100010001000100010001000100F3
:1007000001000100010001000100010001000100E1
:1007100001000000000000000000000001000100D6
:10072000010000530100010001000001010101016D
:10073000010101010202020202020202020303039A
:10074000030303030304040404040404050505056A
:10075000050606060606070707070708080808092A
:100760000909090A0A0A0B0B0B0C0C0C0D0D0D0ED6
:100770000E0E0F0F0F10101111111212131314146B
:10078000151516161717181819191A1A1B1B1C1DE0
:100790001D1E1E1F20202122222324242526262739
:1007A0002829292A2B2C2D2D2E2F3031323233346B
:1007B00035363738393A3B3C3D3E3F404142434471
:1007C00045464748494A4C4D4E4F50515354555653
:1007D00058595A5B5D5E5F616264656668696B6CFF
:1007E0006D6F7072737577787A7B7D7E808283857A
:1007F00087888A8C8E8F91939596989A9C9EA0A2BA
:10080000A3A5A7A9ABADAFB1B3B5B7BABCBEC0C2C3
:10081000C4C6C9CBCDCFD1D4D6D8DBDDDFE2E4E787
:10082000E9EBEEF0F3F5F8FAFDFFFFAA7F55400083
:1008300011241FBECFEFDAE0DEBFCDBF04B603FE4A
:1008400027C08091B1039091B203A091B303B091FE
:10085000B4038730904BA740B04BD1F41092B10352
:100860001092B2031092B3031092B40314BE84B773
:10087000877F84BF0FB6F894A89580916000886147
:1008800080936000109260000FBEE0E0F8E30995ED
:1008900023E0A0EAB1E001C01D92A13BB207E1F75D
:1008A00011E0A0E0B1E0EEE7F4E502C005900D92A2
:1008B000A03AB107D9F70E94AE0B0C943D2A0C94D4
:1008C00000001F93CF93DF93CDB7DEB767970FB6C6
:1008D000F894DEBF0FBECDBF4B8B5C8B6D8B7E8BD8
:1008E0008F8B611110921E0286E09E01235F3F4FA5
:1008F000D901E82F1D92EA95E9F795E0FE0173967C
:10090000D90101900D929A95E1F79C894E895F89F2
:100910007B897D879E876F87598B488BF901DE0124
:10092000179601900D928A95E1F7CE0107960E94E5
:10093000DC1481113EC086E0FE013796DE0111967F
:1009400001900D928A95E1F7FF81E8856A857B85A4
:100950006115710531F0EF3F31F481E0FF3F19F48B
:1009600003C081E001C080E080FD23C02091EA0146
:1009700030E0C90101968770992740911B0250E031
:100980008417950779F1F983EA837D836C8396E078
:10099000929FD001939FB00D1124A551BE4FFE012F
:1009A000319601900D929A95E1F78093EA010E94A9
:1009B000591416E080911B029091EA018917F9F011
:1009C000189FC001112485519E4F0E94DC1488237A
:1009D000B1F080911B0290E0019687709927809377
:1009E0001B02E8CF0E946B251092EA0110921B02B5
:1009F000E4EEF1E086E0DF011D928A95E9F7679663
:100A00000FB6F894DEBF0FBECDBFDF91CF911F911F
:100A100008950E94F41F909322018093210108956C
:100A200081FB992790F981FF02C08D9A01C08D98B2
:100A300080911901882361F0992329F081E0809346
:100A400019010C94090582E0809319010C94062287
:100A500008953F924F925F926F927F928F929F92F2
:100A6000AF92BF92CF92DF92EF92FF920F931F93BC
:100A7000CF93DF93CDB7DEB729970FB6F894DEBFDB
:100A80000FBECDBFFC018081918123813481232B56
:100A900031F09F3F31F491E08F3F19F403C091E0B2
:100AA00001C090E090FD42C67F0185E0DE01119615
:100AB00001900D928A95E1F7F701228189819A814F
:100AC000222349F00E949A24182F682F89819A8145
:100AD0000E94F52403C00E94C924182F69817A81DD
:100AE000812F0E949B218C01F7018281882309F4C8
:100AF000F2C0980122513F452031310508F019C15B
:100B00008FEF93E00E9461298111EFC002513FE70E
:100B1000832E32E0932E002379F08114F4E09F06B7
:100B200009F4E3C0C4010E946129811101C0015090
:100B30002FEF821A920AEFCF1E821F821886198623
:100B4000442443942AE0322E84010F5F1F4FC401D6
:100B50000E9461298E831F82882309F4C6C09FEFFB
:100B6000980F933060F48F834E8232E0830E911C95
:100B7000C8010E9461298887811102C0B6C048015E
:100B80008E010A5F1F4FF80120812223E9F22130F4
:100B900009F04CC08181813049F46801F2E0CF0E48
:100BA000D11CF80182810E943A260AC0823051F499
:100BB0006801F2E0CF0ED11CF80182810E94C725A6
:100BC000860186C0833049F46801F2E0CF0ED11C63
:100BD000F80182810E949525F3CF843019F00F5FD0
:100BE0001F4F76C0F80122810E5F1F4F80E090E01A
:100BF00030E0205331092A30310568F4389EA001D5
:100C0000399E500D1124C901840F951F0F5F1F4F8E
:100C1000F8012081EDCF009709F45AC0EFE9FFE019
:100C20003197F1F700C000000197F5CFE22FF0E017
:100C3000E653FE4F5490822F86958695869590E0D8
:100C4000FC01E654FE4F64902770712C022E02C006
:100C5000759467940A94E2F7F1E06F227724FC011F
:100C6000E655FE4FA490B12C022E02C0B594A79475
:100C70000A94E2F731E0A322BB24FC01E656FE4FC2
:100C8000C490D12C02C0D594C7942A95E2F781E094
:100C9000C822DD246114710419F081EE0E94C72579
:100CA000A114B10419F086EE0E94C725852D0E947B
:100CB0003A26AB2819F086EE0E949525672819F090
:100CC00081EE0E949525CD2819F08CE20E943A26EB
:100CD0000F5F1F4F58CF00313FE5130709F01DC5C7
:100CE00081E00E9424250E944A1880911C0287708E
:100CF00009F41CC5F7018281882309F417C582E035
:100D000029960FB6F894DEBF0FBECDBFDF91CF910D
:100D10001F910F91FF90EF90DF90CF90BF90AF9019
:100D20009F908F907F906F905F904F903F900C942A
:100D30003C140031FFE51F0711F481E005C00131CB
:100D40002FE5120721F482E00E943025CCCF033F2B
:100D5000FCE51F0749F406E221EE40EE63EF7CE577
:100D6000C7010E94BE20C1CF043F2CE5120708F046
:100D700049C1083D3CE5130731F407E225EE45EE95
:100D800068ED7CE5EDCF093D9CE5190731F408E2FB
:100D900021E045EE69ED7CE5E3CF073DECE51E077C
:100DA00031F406E221EE41EE67ED7CE5D9CF8823F0
:100DB00009F45DC11092C20202309CE5190708F4E3
:100DC00040C10631ECE51E0730F0C8018A5F9C4542
:100DD000099708F036C10E9450139093CF02809378
:100DE000CE020031FCE51F0709F4C3C008F041C082
:100DF00008303CE5130709F49AC0F0F404309CE590
:100E0000190709F487C068F40230FCE51F0709F4EC
:100E100077C003301C4509F0E5C08091CE028260A6
:100E200076C006303CE5130709F46EC008F07BC0BD
:100E30008091CE0288606BC00C309CE5190709F4E4
:100E400085C068F40A30FCE51F0709F474C008F097
:100E500079C00E946B258091CE02806858C00E3008
:100E60003CE5130709F476C008F07FC08091CE02FC
:100E70008BC00B3F9CE5190709F44FC018F50331EF
:100E8000FCE51F0709F47DC078F401313CE5130748
:100E900009F473C002311C4509F0A4C00E946B25FF
:100EA0008091CE028F7733C005319CE5190709F494
:100EB00072C008F486C00A3F1C4509F093C08091B7
:100EC000CF023EC00F3F2CE5120709F45FC058F473
:100ED0000D3F8CE5180709F444C008F43FC0809129
:100EE000CF0282602DC00130EDE51E0709F475C008
:100EF00008F45DC002301D4509F074C060E06EC0AA
:100F00008091CE02816003C08091CE028061809387
:100F1000CE0268C08091CE0211C08091CF02826063
:100F20008093CF025FC08091CE028062F0CF80912B
:100F3000CE028064ECCF8091CE0288608460E7CFDF
:100F40008160EECF8091CE028E7FE1CF8091CE0284
:100F50008D7FDDCF8091CE02877FD9CF8091CF0268
:100F600018C08091CF028D7FDBCF8091CE028F7E23
:100F7000CECF8091CE028F7DCACF8091CE028F7B63
:100F8000C6CF8091CE02877F8B7FC1CF8091CF0269
:100F90008D7F8E7FC5CF8091CE0282FB222720F9E4
:100FA00091E0922790FB82F990FB83F9B0CF80917A
:100FB000CF02982F909591708E7F892B90FB81F9AD
:100FC000AFCF0E946B258091CE0287FB222720F9AC
:100FD00091E0922790FB87F99ACF61E08EE090E054
:100FE0000E9475296091CE021091CF0284E090E0BA
:100FF0000E947529612F82E290E00E9475290E946B
:101000006B2573CE053FFCE51F0731F406E221EEA8
:1010100042EE65EF7CE5A4CE053F2CE5120730F4E7
:1010200007E225EE44EE64EF7CE59ACE063F3CE510
:10103000130709F0BCCE07E225EE46EE66EF7CE52D
:101040008FCE80911F0206319CE5190709F58A7A37
:1010500091E009F490E09093A201882311F065E3F8
:1010600001C069E284EC91E00E9451200EC006317B
:101070001C4509F026C18091A201882309F454C3BC
:1010800065E384EC91E00E9429200E94DC132DCEC0
:1010900082720C3C3CE5130709F4C2C008F045C05D
:1010A000063CECE51E0709F4A7C0D8F4033C2CE588
:1010B000120709F497C030F4023C8CE5180709F4D4
:1010C0006CC0CEC0043C9CE5190709F490C0053CF7
:1010D000ECE51E0709F0C4C045E254E26EE274E29A
:1010E000A3C0093CFCE51F0709F490C078F4073C55
:1010F0003CE5130709F485C0083C9CE5190709F095
:10110000AFC049E154E26DE074E28EC00A3CECE508
:101110001E0709F480C00B3CFCE51F0709F0A0C0C6
:1011200041E752E262E872E27FC0013D2CE512071E
:1011300009F486C0A0F40E3C8CE5180709F47AC0C7
:1011400008F475C00F3CECE51E0709F476C0003DBD
:10115000FCE51F0709F084C06EE089E079C0043D1A
:101160002CE5120709F472C068F4023D8CE51807FB
:1011700009F469C0033D9CE5190709F071C061E0FD
:1011800088E16BC0053DECE51E0709F464C00D3530
:10119000FDE51F0709F4A9CD63C08091BB0280FF64
:1011A0001BC08E7F8093BB026091BB027091BC021A
:1011B0008091BD029091BE020E945F221092DA02DD
:1011C0002FEF30E782E0215030408040E1F700C04F
:1011D00000000E94062289CD81608093BB0261E0FD
:1011E00086953BC049E754E262E874E21DC042E8DC
:1011F00054E269E774E218C04EE254E265E274E238
:1012000013C04DE054E269E174E20EC045EF53E2D1
:1012100061E074E209C041E054E265EF73E204C0AA
:1012200042E852E261E772E20E9400225ECD61E094
:1012300081E013C065E082E00BC068E086E008C092
:1012400064E18FE005C067E185E102C062E289E107
:101250000E94EE214ACD61E083E20E94372445CD11
:101260000A359DE5190741F150F40115FCE51F070A
:10127000A9F00E3D1C4529F50E946C1336CD0B35A7
:101280003DE51307D9F00C351D45D9F48091CF0207
:1012900082FB882780F991E0892711C00E946B2585
:1012A0009FEFE4E3FCE09150E040F040E1F700C044
:1012B00000000E949B1F19CD81E001C080E00E94C8
:1012C0002214F701828100811181882349F0C8012D
:1012D0000E949A24D82E682FC8010E94F52404C0C9
:1012E000C8010E94C924D82EB8018D2D0E949B21CF
:1012F0000E94C7118C01982EF701B280A580A2949C
:101300009FE0A92280911C02877099F0BB2089F090
:10131000812F807F803421F080E2800F883048F078
:1013200082E00E943C1480911C028770DD24D394DB
:101330008111D12CC12EC2948FE0C8228C2D90E057
:101340008C30910508F0B3C1FC01EA5AFF4F0C94B0
:10135000D929812F807F1F70882311F01295107F6B
:10136000BB20B9F0112309F48EC180E2800F8830D0
:1013700010F0911006C080911F02182B10931F02CD
:1013800005C080911E02182B10931E020E94DC13D0
:101390007AC1802F0E949525112309F488C1005E2F
:1013A0001095083010F0911006C080911F0218238C
:1013B00010931F0205C080911E02182310931E0275
:1013C0000E94DC1374C1812F807F1F70803211F066
:1013D0001295107F992021F0F1E09F1611F130C095
:1013E000BB20B1F0AA2081F021E0A2120DC08091B3
:1013F000CF0282FD5CC180912002182B181709F4DE
:1014000056C11093200253C180912002812B10C03D
:10141000AA2021F031E0A31609F449C10E94D61395
:1014200027C0BB2041F085E08A1508F440C1812F18
:101430000E948B253CC194E09A1508F438C118C06D
:10144000BB2049F0AA2099F3F701858180FF1BC1D9
:101450008F708583ECCFAA2059F0093309F024C19D
:10146000FFEF27EE33E0F15020403040E1F71AC1A2
:10147000812F0E9480251BC1812F869586958370C0
:1014800019F0813059F013C1BB2019F0C8019370D5
:1014900002C080E090E00E949C2011C1BB2019F0A6
:1014A000C801937002C080E090E00E94862007C1CE
:1014B000812F8370A9F5B110FEC0402F429546954B
:1014C0004770440F440F802F8F7090E09C01042ED2
:1014D00001C0220F0A94EAF704FF08C08FE090E0F1
:1014E00001C0880F4A95EAF7809501C080E0169503
:1014F00016951370123069F088F490912102113022
:1015000019F0822B892302C0922B892B0E943B2544
:10151000D2C0822B909121028927F8CF822BF6CF5F
:10152000BB2019F0812F817001C08695882309F4B2
:10153000C2C0402F429546954770440F440F802FFC
:101540008F7090E09C01042E01C0220F0A94EAF7EC
:1015500004FF08C08FE090E001C0880F4A95EAF7C9
:10156000809501C080E0169516951370123059F0E1
:1015700078F490915402113019F0822B892309C01C
:10158000922B892B06C0822B90915402892701C08F
:10159000822B0E9420258FC01F70BB2039F0812F25
:1015A0000E943025802F0E948B2585C0802F0E94AD
:1015B0008025812F0E9424257EC0802F92EF9916CE
:1015C00059F1991538F0E0EF9E1659F0F1EF9F169A
:1015D000F1F055C023EF921631F134EF931681F1FB
:1015E0004EC0BB2079F084E08A1508F460C01F71FA
:1015F00081E090E001C0880F1A95EAF790915402BB
:1016000089271BC095E09A1508F451C0F0CFBB2084
:1016100029F0812F8F7126C0BB20D9F3812F8F71C4
:101620000E94242544C0BB2039F01F7181E001C015
:10163000880F1A95EAF701C080E00E94202537C084
:10164000BB2099F01F71812F0E9430258091CF021D
:1016500082FD07C0E8E01E9FC001112483608093D3
:101660001C02812F0E94302522C081E00E943C1480
:10167000F1E0FA15E0F482E00E943C1418C0BB20AF
:1016800031F0AA2031F2802F0E94C72510C0AA2075
:1016900029F2893349F42FEF37EE83E021503040AF
:1016A0008040E1F700C00000802F0E94952588EF60
:1016B0008C0D843020F40E94B2200E941005DD20A1
:1016C000A9F180911C0280FD31C0F701128285953D
:1016D000859585950E943025C7010E942905809136
:1016E0001C0285958595859529960FB6F894DEBFE1
:1016F0000FBECDBFDF91CF911F910F91FF90EF9063
:10170000DF90CF90BF90AF909F908F907F906F9021
:101710005F904F903F900C94242501319FE519076D
:1017200009F015CB82E0DDCA69E2ABCC29960FB691
:10173000F894DEBF0FBECDBFDF91CF911F910F9107
:10174000FF90EF90DF90CF90BF90AF909F908F90E1
:101750007F906F905F904F903F900895CF93DF936D
:10176000CDB7DEB7AA970FB6F894DEBF0FBECDBFD8
:1017700084B7877F84BF0FB6F894A89580916000E6
:10178000886180936000109260000FBE90E080E856
:101790000FB6F89480936100909361000FBE85B7F7
:1017A000806885BF85B7806885BF8BE691E190939F
:1017B000A1018093A0010E946B1B0E948A1B809153
:1017C000E20084608093E200789480914A0288234A
:1017D000A1F01091E9001F709091EC00892F8170A9
:1017E00090FD80E8182B1092E9008091E80083FDBD
:1017F0000E9455181F701093E90082E084BD93E0A9
:1018000095BD9AEF97BD80936E000E94D5218111FE
:1018100002C00E94C62106E211E0FBE2EF2EF1E0D9
:10182000FF2EF80181918F018F3F11F00E94B011BE
:10183000E016F106B1F70BE211E0F80181918F019A
:101840008F3F11F00E94B011F1E00A331F07A9F792
:10185000E3EAF1E0AAEBB1E0119211921D921D9220
:1018600021E0ED3AF207C1F70E946113811102C035
:101870000E946C1382E090E00E9461298093AF0186
:101880000E9450139093CF028093CE020E947D1647
:101890008FE39CE90197F1F700C000000E947D16DC
:1018A0008091BA0180FF08C06FEF7FEF80E090E089
:1018B0000E9493290E949B1F83E090E00E9461296F
:1018C0000E943B25859A8D980E94582684E70E94A5
:1018D000672710E021E041E061E0812F0E940428A9
:1018E0001F5F1032B9F760E084E70E9407290E9469
:1018F00009058091AD01811133C00E9461138111EE
:1019000004C00E946C130E94932288E090E00E9421
:1019100069296093BB027093BC028093BD029093CF
:10192000BE026E7F71F40E94932288E090E00E94D4
:1019300069296093BB027093BC028093BD029093AF
:10194000BE020E944C221092DA028091BB0280FFFC
:1019500004C060E086950E94372481E08093AD0149
:1019600080E091E09093C6028093C50278E1272E33
:10197000312CE4EC4E2EE1E05E2E8E010F5F1F4F06
:1019800060902301709024018090250180914A028B
:10199000853009F04AC050E1E52E62E1F62E8091D3
:1019A0004A02853009F03BC080914A02843029F117
:1019B00080E00E9410051092C90290E40FB6F894DE
:1019C000A895209260000FBE9093600083B7817F3E
:1019D000846083BF83B7816083BF7894889583B721
:1019E0008E7F83BF0FB6F894A895809160008861C0
:1019F00080936000109260000FBE8091490288239E
:101A000009F4CDCF0E947D16EAEBF1E0819191912E
:101A1000892B09F041C44E165F06C1F7C0CF0E9462
:101A20006B250E94B2200E9410050E947D1688231B
:101A300059F08FB7F8944091CA025091CB0260914F
:101A4000CC027091CD028FBFE0EBF1E0AAEBB1E0E8
:101A5000E12CF12C7E2D2D913D9181919191822748
:101A60009327009779F160E0CC24C394D12CAC018A
:101A70004C215D21452B09F169A37AA32C213D213D
:101A800081E0232B09F480E08BA30E94F41F816086
:101A9000782F9DA38CA349A15AA16BA18DA10E946F
:101AA0006104F701EE0FFF1FE055FE4F8081918129
:101AB000C826D926D182C0821CC06F5FCC0CDD1C29
:101AC0006F30A9F62FEFE21AF20A85E0E816F1046A
:101AD00009F68FEF8EA38FA318A60E94F41F8160D2
:101AE000782F9AA789A74EA15FA168A58AA50E9411
:101AF00061048091DA02882309F498C08091D902A8
:101B0000E091BB02E695E81BE093D502823059F4E0
:101B1000F0E0E85AFD4FE491EE2EF12C3DE5C32EA6
:101B20003FE1D32E5EC0863059F4F0E0EB5AFD4F12
:101B3000E491EE2EF12C2DE4C22E2FE1D22E51C0D5
:101B4000893061F4E695F0E0EE5AFD4FE491EE2E17
:101B5000F12C93EEC92E9EE1D92E43C08F3061F453
:101B6000E695F0E0E15BFD4FE491EE2EF12C86E787
:101B7000C82E8EE1D82E35C0853159F4F0E0E45BF3
:101B8000FD4FE491EE2EF12CB8E2CB2EBEE1DB2E20
:101B900028C08831B1F0833249F4EAE4F2E0E590FC
:101BA000F490ADE0CA2EAFE1DA2E1BC0843289F08A
:101BB000E0EDEE2EE7E0FE2EFFE1CF2EFDE1DF2E81
:101BC00010C068E2E62EF12C7FE9C72E7DE1D72E0A
:101BD00008C044EFE42EFF24F39455E6C52E5DE1E2
:101BE000D52E8091D602882361F01092D6020E94F1
:101BF000F41F9093D4028093D3021092D8021092D3
:101C0000D7020E94F41FE091D302F091D4028E1B00
:101C10009F0B8F3F9F4750F4EE0EFF1EF092D402B1
:101C2000E092D30283ED92E0F60109950E94B22082
:101C30009091AE01891731F00E94B2208093AE01DD
:101C40000E94100580914A02843009F0D4C183E0DB
:101C50008093E9008091E80082FFCDC18091E80087
:101C600085FF23C00E94C01C81111DC030E2E32EFD
:101C7000F12CCE0101966C0109C08091F100F601B2
:101C800081936F01F1E0EF1AF10869F08091E800AB
:101C900085FDF3CF8091E8008B778093E8000E9468
:101CA000C01C882399F391E001C090E08091E80086
:101CB0008B778093E800992309F49DC1E9818E2FE9
:101CC00090E0FC013197E331F10508F06CC1EE5969
:101CD000FF4F0C94D9291A8289E0C2C08A818230D0
:101CE00009F4F0C2833089F0813009F05CC12FB76C
:101CF000F8948091CA029091CB02A091CC02B0914D
:101D0000CD022FBFBB83AC8324C0FE013196CE0130
:101D10000B96AAEBB1E02C9111963C91119712967B
:101D20003283238332968E179F07A9F73EC18A819B
:101D3000823009F038C16B817C818D819E810E9447
:101D4000DF2986E290E024C04C816B818A810E9469
:101D500075219D83BEC2CD80DE80DC24CD24DC24B1
:101D60008C81EB809A812EE1E29E70011124E6E9DC
:101D70009E9FE00CF11C1124E80EF11CE80EF11CF2
:101D80006D2DC70187960E9475296C2DC701889615
:101D90000E9475290AC10E94412107C18A818138A8
:101DA000B1F050F4803809F000C120E04B8160911F
:101DB000BD028091BC0231C0823859F1833809F0EC
:101DC000F4C020E04091BE026C818B8126C060E0AF
:101DD0008B810E9437249B818091BB02911111C09D
:101DE0008E7F8093BB021092DA02FFEF20E782E041
:101DF000F15020408040E1F700C000000E94062220
:101E0000D4C081608093BB0260E086950E94372435
:101E1000CCC08B818093BF02C8C00E945A23C5C02A
:101E20008A81813899F030F4803809F0BEC0809101
:101E3000BE0216C0823891F0833809F0B6C0809196
:101E4000BC028B838091BD028C83AFC08091BB02AA
:101E500080FF02C0869504C080E002C08091BF026E
:101E60008B83A3C06091BB027091BC028091BD02C4
:101E70009091BE020E945F2298C080E14FC081E035
:101E80008A8381E8EDCFEA80FB80FE24EF24FE24E4
:101E9000AC80B12C6801C70181589D4F9601201B71
:101EA000310B2A153B0508F080C0E1E8EE16E1E0B1
:101EB000FE0628F40E946129F601848302C0F6011F
:101EC0001482FFEFEF1AFF0A2FEFC21AD20AE3CFF4
:101ED000EA80FB80FE24EF24FE24AC80B12C680154
:101EE000C70181589D4F9601201B310B2A153B05D8
:101EF00008F05BC0E1E8EE16E1E0FE0620F4F60132
:101F000064810E947529FFEFEF1AFF0A2FEFC21AB2
:101F1000D20AE6CF0E94312148C084E08A8345C0BE
:101F2000EA80FB80FE24EF24FE24AC80B12C680103
:101F3000C70187969601201B310B2A153B05A8F592
:101F4000E8E5EE16E2E0FE0628F40E946129F601BB
:101F5000848302C0F6011482FFEFEF1AFF0A2FEF0D
:101F6000C21AD20AE5CFEA80FB80FE24EF24FE24C9
:101F7000AC80B12C6801C70187969601201B310BFC
:101F80002A153B0590F4E8E5EE16E2E0FE0620F4A3
:101F9000F60164810E947529FFEFEF1AFF0A2FEF07
:101FA000C21AD20AE8CF8FEF898380914A02843027
:101FB00011F58091E9008F702091EC00922F9170C3
:101FC00020FD90E8F92EF82A82E08093E9008091C4
:101FD000E80080FF0CC040E050E060E270E0C80123
:101FE0000E94F31C8091E8008E778093E8008F2D8B
:101FF0008F708093E9008091190181111FC1809138
:102000002101909122010E94E51F8436910508F478
:102010003EC16091BC027091BD028091BE020E94DF
:10202000A222F62E972EE82E80911A01813009F413
:1020300041C020F0823009F4AFC027C180911C015B
:10204000882329F040E060E080E00E94EA27C09009
:102050001C01CC2001F1D12C81E0C81AD10821E269
:10206000A22EB12C80911C019501281B3109C216AA
:10207000D30654F42E2D4F2D692DC6010E94B7278B
:102080009FEFC91AD90AEECF813019F410921C01C2
:10209000FCC08250D0C080911D01882321F0815066
:1020A00080931D01F2C082E080931C0181E0809347
:1020B0001A01EBC040E060E080E00E94EA272E2D8C
:1020C0004F2D692D80E090E00E94B7272E2D4F2DD7
:1020D000692D81E090E00E94B7272E2D4F2D692DAC
:1020E0008EE190E00E94B7272E2D4F2D692D8FE1B4
:1020F00090E00E94B72780911F01C0901C01D12C55
:102100008823C9F080911C01282F30E02D5F3F4FBC
:102110002C153D0554F02E2D4F2D692DC6010E9422
:10212000B727EFEFCE1ADE0AEDCF8C5F80931C014C
:102130008E3129F519C0F4E0CF1AD10880911C0125
:10214000282F30E0C216D30654F42E2D4F2D692DC2
:10215000C6010E94B7272FEFC21AD20AEFCF8450D0
:1021600080931C01823059F490911F0181E08927EE
:1021700080931F0180911E01815080931E018091E8
:102180001E01811182C082E080931A0110921C010D
:102190008AE080931D0115C080911C01803129F0D7
:1021A00040E060E080E00E94EA2780911C018031DD
:1021B00019F0C12CD12C16C080912001882321F068
:1021C00081508093200161C00E94B22081FF04C031
:1021D00081E08093190159C082E0809319010E9427
:1021E000062253C080911C0190E08C159D0554F08F
:1021F0002E2D4F2D692DC6010E94B7278FEFC81ACB
:10220000D80AF0CF8FE1C82ED12C9EE1A92EB12C97
:1022100080911C019501281B31092C153D0554F4B2
:102220002E2D4F2D692DC6010E94B72791E0C91AA6
:10223000D108EECF8F5F80931C0127C0813039F524
:1022400069827A828B8280911B01882321F040E091
:1022500069ED8FEF06C01A8219821B8240E060E0B0
:1022600080E00E94EA27C8010E9425188091210180
:10227000909122010E94E51F8935924040F0909193
:102280001B0181E0892780931B010E94090560E002
:1022900084E70E94EF287ACBE9BCF9BC09B400FEC0
:1022A000FDCF8091D8008F7D8093D8008091E00091
:1022B00082608093E0008091E00081FDFCCF0E946D
:1022C0006B256DCB86E290E00E9461291B821C8207
:1022D0001D828E836ACE80E008959091CE0292FF97
:1022E0000DC0282F2871283019F4877F846006C01C
:1022F000282F2471243011F48B7F886093FF0DC048
:10230000282F2871283119F4877E846106C0282F70
:102310002471243111F48B7E88612091CF0220FF3B
:102320000DC0382F3871383019F4877F816006C0AE
:10233000382F3171313011F48E7F886021FF0DC04C
:10234000282F2871283119F4877E816106C0282F33
:102350002171213111F48E7E886194FD877E08956C
:10236000F894E82FE295EF70F0E031A1282F2F705C
:1023700081E090E001C0880F2A95EAF7982F9095A8
:10238000932391A392A1892B82A378940895CF934C
:10239000DF938238910569F1B0F48133910509F436
:1023A0006FC048F48932910509F465C08A329105FD
:1023B00009F46BC08AC08533910509F457C089338D
:1023C0009105B9F082C0833E910571F138F4803EE9
:1023D0009105B1F0823E910511F177C0863E9105DD
:1023E000B9F1873E9105C9F1843E910509F06DC0B0
:1023F00024C02091CE0220FD53C021FD51C065C0F4
:102400008091CE0280FD46C08091CF0280FF48C0FF
:102410008091CE0284FD3FC183EE90E03EC1809169
:10242000CE0282FF3AC0F4CF8091CE0282FD35C049
:102430008091CF0280FD34C0EBCF8091CF0281FF2D
:1024400035C08091CE0284FD26C187EE90E025C183
:102450008091CE0283FF27C0F4CF8091CE0283FD0E
:1024600022C08091CF0281FD21C0EBCF8091CE02AE
:1024700085FD1FC021C08091CE0285FD1DC019C001
:102480008091CE0286FD1BC01DC08091CE0286FDCC
:1024900019C015C089E390E000C182EE90E0FDC054
:1024A00080EE90E0FAC086EE90E0F7C084EE90E017
:1024B000F4C089E290E0F1C085E390E0EEC08AE2EA
:1024C00090E0EBC081E390E0E8C0811532E593072E
:1024D00008F069C0811541E5940728F0982F8827F6
:1024E000816F906ADAC0883E910568F5803E91055B
:1024F00008F0D3C0883A9105B8F4853A910548F0C0
:10250000855AE82FF0E0E65CFE4F808190E0906411
:10251000C4C08130910509F4BBC008F4BCC084304C
:10252000910508F4B8C0B9C08F3B910508F0B3C05D
:10253000885AE82FF0E0EE0FFF1FE35CFE4F80812A
:1025400091819464AAC0811520E59207F0F09C0166
:1025500074E0369527957A95E1F7922F9370482F7E
:10256000437021E030E002C0220F331F4A95E2F7AA
:102570003C68392B8F70982F9695969540E2949FE2
:10258000C0011124822B932B88C0811530E493075E
:1025900018F09F70906A81C09C013A9521153F41C7
:1025A00008F47BC078C0EC01C11586E5D807E8F5D2
:1025B000C11525E5D20748F08C2F0E946D118F714F
:1025C00090E0982F8827906268C0C11534E5D30742
:1025D00028F09C2F8827846F906A5FC0AE014370FB
:1025E00055272C2F26952695C115D34578F481E0E3
:1025F00090E002C0880F991F4A95E2F740E2249FBD
:1026000090011124822B932B9C6847C081E090E0BD
:1026100002C0880F991F4A95E2F740E2249F90017B
:102620001124822B932B9A6838C0C1152AE5D20752
:10263000F8F4C11539E5D30790F08C2F8F700E9404
:102640006D1194E0D695C7959A95E1F7CF70D0E0DB
:10265000DC2FCC27D0699E01282BC9011EC0C115D3
:1026600048E5D407C0F09C2F8827806F906A15C07A
:10267000CE0190568115904270F48D2F8F710E947B
:102680006D11282F2F71CE0199279062922B05C0D2
:1026900081E090E002C080E090E0DF91CF9108956A
:1026A000CF9384E090E00E946129C82F82E290E0FD
:1026B0000E9461292C2F30E0A901582BCA01CF912B
:1026C000089580E090E00E946F29893E9E4F11F4AA
:1026D0000C94D52180E0089569EE7EEF80E090E0D3
:1026E0000E94932960E082E090E00E94752960E0FA
:1026F00083E090E00E9475291092210260E084E05E
:1027000090E00E94752960E082E290E00E947529C5
:1027100060E085E090E00E94752960E086E090E04E
:102720000E9475296FEF87E090E00E94752940E0D4
:1027300050E0BA0188E090E00E94872960E08DE0D7
:1027400090E00E94752940E050E0BA0188E190E0F5
:102750000E94872960E087E190E00E94752940E0AF
:1027600050E0BA018CE190E00E94872960E070E0BF
:1027700080E290E00E94932940E050E0BA0188E1B5
:1027800090E00E94872980E00E94A8210E94C62133
:1027900040E050E0BA018FE090E00E94872940E0DD
:1027A00050E0BA0183E190E00C94872980912002E7
:1027B000811110922002089590911F0280911E02B3
:1027C000892B20911D02982F922B9093C401809108
:1027D00020028823D9F0892B8093C40180910A01BB
:1027E000882331F08091CE0287FF02C08EE101C0C4
:1027F00086E0E6ECF1E090E0815028F02191222380
:10280000D9F39F5FF9CF91110E94D613E091C502D1
:10281000F091C6023097A9F080910A01882359F0FF
:102820008091CE0287FF07C08091C4018093C501CB
:1028300085E08093C4010280F381E02D84EC91E077
:1028400009940895CF93C091CF02C2FB992790F9C4
:10285000981781F080FBC2F9C093CF026091CE023D
:1028600084E090E00E9475296C2F82E290E0CF9185
:102870000C947529CF91089520911C028095822394
:1028800080931C02982F977041F430E0482F082E57
:10289000000C550B2417350721F49091CF0292FFBD
:1028A00007C08595859585950E94242510921C0268
:1028B000089580911B029091EA01891719F08F5FAA
:1028C0008770FBCF08950F931F93CF93DF93809171
:1028D000E90182958F7009F05DC08091E60188233F
:1028E00009F458C080911B021091EA016091E40143
:1028F0007091E501C091E701D091E80191E06F3F4F
:1029000009F090E0292F06E0811709F443C02097D1
:1029100021F07F3F21F030E003C031E001C0322FD1
:1029200090E030FD34C0089FF001099FF00D1124A4
:10293000DF01A551BE4F11963C911197371327C067
:102940003C91361324C012963C91129731111FC04E
:1029500013964D915C9114974C1B5D0B483C5105AF
:10296000B0F48091E9018F7080618093E901E051BA
:10297000FE4F80818F708061808384EE91E00E94A1
:102980002905DF91CF911F910F910C945914019655
:102990008770BACFDF91CF911F910F910895CF9398
:1029A000DF93EC010E949A24BE010E949B210E94A9
:1029B000C711DF91CF9108959F92AF92BF92CF92AE
:1029C000DF92EF92FF920F931F93CF93DF93CDB7D8
:1029D000DEB761970FB6F894DEBF0FBECDBF8C0196
:1029E00085E0F801DE011D9601900D928A95E1F7D0
:1029F000F801E2809091E4016091E5014091E701E6
:102A00005091E8014115510531F06F3F31F481E0FB
:102A10009F3F19F403C081E001C080E0F82FF170FE
:102A20009F2E80FD1AC1F80130812181C380D4809E
:102A300084EEA82E81E0B82EF090E601F601E41BAA
:102A4000F50BFF2009F4C6C08091E901E83CF105CF
:102A500008F091C0482F407F09F050C0621311C0A8
:102A600093130FC0FE2CE1100CC08F708061809317
:102A7000E901C5010E9429058091E901F8018583DA
:102A800029C1CD2831F02F3F31F481E03F3F19F4C7
:102A900003C081E001C080E080FD03C081E08E259D
:102AA00002C080E090E0F82FF170FF2E80FF1CC084
:102AB00080911B024091EA0156E0841709F4E8C0B6
:102AC00090E0589FF001599FF00D1124E551FE4F01
:102AD0006181261306C06081631303C06281E61220
:102AE00003C001968770E9CFFE2CEE2009F4F2C0F6
:102AF0008091E90181608093E90149C0621306C0B9
:102B0000931304C0E11002C0F80186C0C8010E94FE
:102B10003F25882351F1EE2041F12091E901822FD8
:102B200082958F7090E0029774F08091E40190910B
:102B3000E50198878F831986DB86CA862C87CE01AC
:102B400007960E94290586E0F801A4EEB1E0019005
:102B50000D928A95E1F70E9463140AC06217C9F0CA
:102B6000C8010E943F2581111EC0C8010E9429058D
:102B7000FF24F394AFC0482F407F81F784EE91E0AB
:102B80000E94290586E0F50111928A95E9F7F12C5A
:102B9000A1C09313E5CFE110E3CFF8018583C8010D
:102BA0000E94290554C0EE2001F32091E901822FF3
:102BB00082958F7090E0029734F28091E4019091B9
:102BC000E5019A8389831B82DD82CC822E83CE012C
:102BD0000196B7CFE83CF105D0F5FE2CEE2029F2A6
:102BE000621327C0931325C02091E90120FD18C06E
:102BF000822F82958F70482F50E04115510581F04A
:102C0000F80125834F30510541F08F5F982F929541
:102C1000907F822F8F70892B8583C8010E942905A0
:102C200086E0F801A4EEB1E001900D928A95E1F7FB
:102C300051C0C8010E943F25811185CF8091E901D3
:102C400081608093E901C8010E94290543C086E0A4
:102C5000F50111928A95E9F73DC0EE2009F485CF80
:102C6000C8010E943F25F82E882309F47ECF86E014
:102C7000F801A4EEB1E001900D928A95E1F7809100
:102C8000E4019091E5010E94CF140E94631422C0D8
:102C90003D872E878D859E850E94CF14292F2295F2
:102CA0002F70223028F49F7039F0811105C00BC0BD
:102CB000243028F49F7049F4805E883020F0C801E9
:102CC0000E9429059F2CF92C05C0F8019581907F61
:102CD00099F7F9CF8F2D61960FB6F894DEBF0FBE2E
:102CE000CDBFDF91CF911F910F91FF90EF90DF90BB
:102CF000CF90BF90AF909F9008956F927F928F92E8
:102D00009F92AF92BF92CF92DF92EF92FF920F937A
:102D10001F93CF93DF93CDB7DEB72A970FB6F89402
:102D2000DEBF0FBECDBFAE014F5F5F4F7A018AE0BD
:102D3000DA011D928A95E9F706E211E06A018BE259
:102D4000682E81E0782E88248394912CF80180816C
:102D50008F3F09F44DC0F894E82FE295EF70F0E052
:102D600021A18F70A40102C0440F551F8A95E2F77C
:102D7000CA01922F982B91A392A18095892382A3B7
:102D8000789400C0EBE2F1E020E030E0A12CB12C1F
:102D900081918F3FC1F0A82FA295AF70B0E09096BF
:102DA0004C9150E08F70DA0102C0B595A7958A95D5
:102DB000E2F7A0FD08C0C401022E02C0880F991FCF
:102DC0000A94E2F702C080E090E0A82AB92A2F5FB7
:102DD0003F4F2F303105E1F6F80180818F3F11F030
:102DE0000E94B011F0EAFA95F1F7D601AD92BC92CB
:102DF0000F5F1F4FB2E0CB0ED11C6016710609F0B9
:102E0000A5CF4AE050E0B70183EA91E00E94302A62
:102E100011E0009709F410E0892B89F08AE0F701AE
:102E2000A3EAB1E001900D928A95E1F781E08093E9
:102E300024020E94F41F9093230280932202809127
:102E40002402882391F180912202909123020E9412
:102E5000E51F059750F18091A3019091A4019093F3
:102E6000BB018093BA018091A5019091A601909336
:102E7000BD018093BC018091A7019091A80190931E
:102E8000BF018093BE018091A9019091AA01909306
:102E9000C1018093C0018091AB019091AC019093EE
:102EA000C3018093C20110922402812F2A960FB68B
:102EB000F894DEBF0FBECDBFDF91CF911F910F9170
:102EC000FF90EF90DF90CF90BF90AF909F908F904A
:102ED0007F906F90089580914C0287FF11C0809180
:102EE000E80082FD05C080914A028111F8CF11C02F
:102EF0008091E8008B770BC080914A02882349F0CB
:102F00008091E80080FFF8CF8091E8008E77809371
:102F1000E8000895982F973068F59093E900981786
:102F200039F07091EC002091ED005091F00003C059
:102F3000242F762F50E021FD02C09F5FECCF30910F
:102F4000EB003E7F3093EB003091ED003D7F3093FE
:102F5000ED003091EB0031603093EB007093EC00AA
:102F60002093ED005093F0002091EE0027FDE5CF77
:102F700080E008958F708093E90081E008952091AA
:102F80005202309153022617370748F06115710538
:102F900039F42091E8002E772093E80001C0B901B0
:102FA000FC0120E06115710579F180914A028823C6
:102FB000F1F18530F1F18091E80083FD3CC0809112
:102FC000E80082FD2EC08091E80080FFEBCF2091C9
:102FD000F3008091F20090E0922B6115710551F0A1
:102FE0008830910538F421912093F10061507109E6
:102FF0000196F3CF21E0089709F020E08091E800E6
:103000008E778093E800CECF2111CFCF0AC0809178
:103010004A02882361F0853061F08091E80083FDE9
:103020000AC08091E80082FFF2CF80E0089582E03C
:10303000089583E0089581E00895BC0184E00C9434
:10304000711FBC0183E00C94711F239A25B1277F67
:1030500035B138604FB7F894FC010396E817F907CB
:1030600089F0519168E035B9000000C057FF25B9DB
:10307000550F000000C000C000C025B900C06A950F
:1030800091F7ECCF4FBF8FE594E00197F1F700C0C7
:103090000000089580915402982F9670963011F494
:1030A000886001C0877F0C9420251F93CF93DF9306
:1030B000CDB7DEB7AA970FB6F894DEBF0FBECDBF6F
:1030C000ECE4F2E08091F100819342E0E435F40712
:1030D000C9F780914D02833009F462C030F4813029
:1030E00071F0823009F49CC0B3C08A3009F488C002
:1030F0008B3009F46DC0893009F0AAC020C08091DE
:103100004C02813A09F0A4C08091E800877F809347
:10311000E8008091500290915102892B21F460E2E5
:1031200088E292E003C060E080E090E070E00E94FE
:10313000BF178091E8008B778093E80089C0809169
:103140004C02813209F084C080915002909151026A
:10315000009719F0029709F07BC08091E800877F03
:103160008093E8008091E80082FD05C080914A02CA
:103170008111F8CF6DC02091F3008091F20090E0B2
:10318000922B029729F48091F1008B7F813021F4FA
:103190008091F100809327028091E8008B7754C0E2
:1031A00080914C02813A09F053C080915002909175
:1031B0005102892B09F04CC08091E800877F8093F1
:1031C000E8008091E80080FFFCCF80910A0137C0C1
:1031D00080914C028132E1F5809150029091510230
:1031E000892BB1F58091E800877F8093E8000E94E9
:1031F0006B1780914E0280930A010E946B2528C0B4
:1032000080914C02813221F58091E800877F809384
:10321000E8000E946B1780914F028093260218C02D
:1032200080914C02813AA1F48091E800877F8093DD
:10323000E8008091E80080FFFCCF80912602809317
:10324000F1008091E8008E778093E8000E946B1770
:103250008091E80083FFDDC180914C0290914D0286
:10326000492F50E04A30510508F0D3C1FA01EB581C
:10327000FF4F0C94D929803821F0823809F0C9C158
:1032800008C08091480290914902992389F0826098
:103290000FC0809150028F70873008F0BAC18093C0
:1032A000E9008091EB0085FB882780F91092E90006
:1032B0009091E800977F9093E8008093F10010923E
:1032C000F10070C1282F2D7F09F0A3C1882319F0C8
:1032D000823061F09EC180914E02813009F099C127
:1032E000933009F080E0809349022EC080914E0215
:1032F00081112AC0809150028F702FEF280F263045
:1033000008F087C18093E9002091EB0020FF1CC0EA
:10331000933021F48091EB00806214C09091EB0017
:1033200090619093EB0021E030E0A90102C0440FCE
:10333000551F8A95E2F74093EA001092EA008091C7
:10334000EB0088608093EB001092E9008091E80028
:10335000877F8093E8000E946B175BC1811159C180
:1033600010914E021F778091E3008078812B80932B
:10337000E3008091E800877F8093E8000E946B174C
:103380008091E80080FFFCCF8091E300806880930B
:10339000E300111102C082E001C083E080934A0281
:1033A00038C18058823008F034C120914E023091EB
:1033B0004F022C3D53E0350779F583E08A838AE29A
:1033C00089834FB7F894DE01139620E03EE051E286
:1033D000E32FF0E050935700E49120FF03C0E29503
:1033E000EF703F5FEF708E2F90E0EA3010F0C796DD
:1033F00001C0C0968D939D932F5F243149F74FBF35
:103400008091E800877F8093E8006AE270E0CE0157
:1034100001960E94BF17B4C0809150029091510252
:10342000432F552743305105A9F068F44130510529
:1034300009F4FEC04230510509F0EBC08BE590E085
:10344000EBE2F3E04BC04132510529F14232510524
:1034500089F1DFC0C901992781309105A1F058F0A9
:10346000029709F0D6C0E8E9F3E0E4918E2F90E0EE
:10347000E8E9F3E030C0EEECF3E0E4918E2F90E069
:10348000EEECF3E028C0E2EBF3E0E4918E2F90E065
:10349000E2EBF3E020C08330910508F0BAC0880F5A
:1034A000991FFC01EC58FE4F0190F081E02D89E05E
:1034B00090E014C08330910508F0ABC0FC01EE0F22
:1034C000FF1FE259FE4F0190F081E02DDC01A5596C
:1034D000BE4F8C9190E0009709F49BC02091E800CA
:1034E000277F2093E8002091520230915302281741
:1034F000390708F4C90140E0009789F120914A0298
:10350000222309F43DC02530D9F12091E80023FDA4
:1035100037C02091E80022FD2FC02091E80020FF55
:10352000EBCF4091F3002091F20030E0342B009774
:1035300059F02830310540F444914093F100319620
:1035400001972F5F3F4FF3CF41E02830310509F05D
:1035500040E02091E8002E772093E800CDCF411184
:10356000CDCF0AC080914A02882351F0853041F0C6
:103570008091E80083FD04C08091E80082FFF2CFD3
:103580008091E8008B778093E80043C0803809F091
:1035900040C08091E800877F8093E80080914B02D3
:1035A0008093F1008091E8008E77D3CE811131C0F5
:1035B00080914E0290914F029927029754F5809185
:1035C000E800877F8093E80010914E0210934B0231
:1035D0000E946B17111106C08091E30087FD02C0A5
:1035E00081E001C084E080934A0242E061EC81E026
:1035F0000E948A1742E261EC84E00E948A1742E24C
:1036000061EC82E00E948A1742E260EC83E00E9453
:103610008A178091E80083FF10C08091E800877FBF
:103620008093E8008091EB0080628093EB0005C0FE
:1036300082E190E0E6E8F3E051CFAA960FB6F89465
:10364000DEBF0FBECDBFDF91CF911F9108951F92B6
:103650000F920FB60F9211242F933F934F935F93C6
:103660006F937F938F939F93AF93BF93CF93DF938A
:10367000EF93FF93C091E900CF708091EC00D82FB9
:10368000D17080FDD0E81092E9008091F000877F32
:103690008093F00078940E9455181092E900809170
:1036A000F00088608093F000CD2BCF70C093E900CC
:1036B000FF91EF91DF91CF91BF91AF919F918F914A
:1036C0007F916F915F914F913F912F910F900FBE1E
:1036D0000F901F901895E8EDF0E080818E7F808339
:1036E0001092E2001092DA001092E100A0EEB0E039
:1036F0008C9181608C9380818F77808319BCA7ED3A
:10370000B0E08C918E7F8C9380818F7E808310922D
:1037100025020895CF92DF92EF92FF920F931F93AD
:10372000CF93DF93C8EDD0E088818F7E8883E7ED6B
:10373000F0E080818160808384E082BF81E08093BB
:10374000250288818E7F888302EE10E0F8011082C6
:103750001092DA0081EEC82ED12CF60110828881F9
:103760008F77888388818068888388818F7D88832C
:1037700019BC10924A0210924B0210924902109208
:10378000480290EEE92EF12CF70180818B7F808337
:1037900088818160888342E060E080E00E948A172F
:1037A000F60180818E7F8083F80180818160808333
:1037B000808188608083F70180818E7F808388810B
:1037C00080618883DF91CF911F910F91FF90EF90DF
:1037D000DF90CF9008951F920F920FB60F92112491
:1037E0002F933F934F935F936F937F938F939F9309
:1037F000AF93BF93EF93FF938091E10082FF09C0E5
:103800008091E20082FF05C08091E1008B7F809370
:10381000E1008091DA0080FF2AC08091D80080FF0B
:1038200026C08091DA008E7F8093DA008091D900E3
:1038300080FF18C080E189BD82E189BD09B400FE26
:10384000FDCF81E080934A028091250281110FC053
:103850000E946B1B0E948A1B8091E200846080930F
:10386000E20005C019BC10924A0210922502809114
:10387000E10080FF17C08091E20080FF13C08091BB
:10388000E2008E7F8093E2008091E200806180936D
:10389000E2008091D80080628093D80019BC85E056
:1038A00080934A028091E10084FF2EC08091E20063
:1038B00084FF2AC080E189BD82E189BD09B400FE90
:1038C000FDCF8091D8008F7D8093D8008091E1005A
:1038D0008F7E8093E1008091E2008F7E8093E200F2
:1038E0008091E20081608093E20080914B02882306
:1038F00011F084E007C08091E30087FD02C081E001
:1039000001C083E080934A028091E10083FF27C0D9
:103910008091E20083FF23C08091E100877F809344
:10392000E10082E080934A0210924B028091E10014
:103930008E7F8093E1008091E2008E7F8093E20091
:103940008091E20080618093E20042E060E080E0EC
:103950000E948A178091F00088608093F000FF91A8
:10396000EF91BF91AF919F918F917F916F915F91F7
:103970004F913F912F910F900FBE0F901F90189570
:103980002091E4003091E50095E64091EC00842F11
:10399000817040FF23C08091E80080FD1DC08091B0
:1039A0004A02882399F0853099F08091EB0085FDDB
:1039B00011C04091E4005091E5002417350729F328
:1039C000915011F09A01E1CF84E0089582E00895CA
:1039D00083E0089581E0089580E008954091E80033
:1039E00042FFDDCF0895EF92FF920F931F93CF9385
:1039F000DF937C018B010E94C01C811119C0E7017B
:103A000001151105A1F08091E80085FD0AC08091A3
:103A1000E8008E778093E8000E94C01C882381F321
:103A200007C089918093F10001501109E9CF80E02E
:103A3000DF91CF911F910F91FF90EF90089508951E
:103A40000895809127020895CF93DF9320910A0172
:103A5000222339F02091CE0227FF03C060E224E048
:103A600002C068E021E02093E9002FEF3091E800E8
:103A7000215035FD06C035ED3A95F1F700002111D2
:103A8000F5CF2091E80025FF1DC0EC0180910A01CF
:103A9000811105C040E050E068E070E003C070E0D4
:103AA00040E050E0CE010E94F31C8091E8008E7748
:103AB0008093E80080E2FE01A8E2B2E001900D925E
:103AC0008A95E1F7DF91CF910895EF92FF920F93DE
:103AD0001F93CF93DF938C01C8E5D2E0E12CF12C4A
:103AE000F8018481F0E1EF16F1041CF4882339F029
:103AF00002C0811104C09E014091BE0202C09E011D
:103B000040E06091BD028091BC020E9432238FEFA1
:103B1000E81AF80A239691E2E916F10409F70E94DF
:103B20000622F801848190E00196817099278483B0
:103B3000DF91CF911F910F91FF90EF9008958F9299
:103B40009F92AF92BF92CF92DF92EF92FF920F932C
:103B50001F93CF93DF93EC014C81042F10E0980169
:103B6000D8010E94EE299B01AC010E94042A6B013E
:103B70007C01E0E2F0E0E01BF10BA5E5B0E09B0189
:103B8000AC010E94042A4B015C019F01DF010E94ED
:103B9000E6299B01AC010E940F2A9B01AC012C0D70
:103BA0003D1D4E1D5F1DC501B4010E94B729822F26
:103BB000F22E99E2921728F093E0299F90011124A8
:103BC0000DC025E530E0281B3109C901880F991F78
:103BD000280F391F37FF02C02F5F3F4F35952795BC
:103BE000122F109598E5C92E92E0D92E00E085E5B8
:103BF000E82EEF1801FD02C08E2D01C08F2D960119
:103C0000412F6091BD020E9432230F5F83E0C80EF6
:103C1000D11C013279F70E9406228C81811102C0E9
:103C200091E003C0803219F49FEF90930D019091C1
:103C30000D01890F8C83DF91CF911F910F91FF9020
:103C4000EF90DF90CF90BF90AF909F908F900895AE
:103C50000F931F93CF93DF93C8E5D2E0FE0111824B
:103C600010821282339682E0EB3BF807C1F700E046
:103C700010E080915602082E000C990B08171907C6
:103C800094F080910C01082E000C990B801791077D
:103C900054F09E014091BE026091BD028091BC0231
:103CA0000E94322303C0198218821A820F5F1F4FAD
:103CB000239601321105E9F60E94062280910B013C
:103CC00090915602980F9093560220910C01280F64
:103CD00020930C01121614F490321CF081958093FD
:103CE0000B01DF91CF911F910F910895BF92CF9259
:103CF000DF92EF92FF920F931F93CF93DF93FC011C
:103D0000828180FF03C0DD24DA9402C0DD24D394D5
:103D100008E512E0C0E0D0E021E2B22EF801118205
:103D20001082128294E0E92EF12CC12C8091550270
:103D30008C0D82322CF06B2D0E94A929892F02C094
:103D400087FD8F5D082E000C990BC817D90791F4D9
:103D50008091BE028E9DA0018F9D500D112455951E
:103D600047955595479598016091BD028091BC0299
:103D70000E943223CD0CF1E0EF1AF108B9F621963A
:103D80000D5F1F4FC132D10549F60E940622809176
:103D9000550291E0D91206C0811102C080E207C02D
:103DA000815005C090E00196BE010E944D2980938C
:103DB0005502DF91CF911F910F91FF90EF90DF900F
:103DC000CF90BF900895EF92FF921F93CF93DF9310
:103DD000EC0188E5E82E82E0F82E10E08C81970156
:103DE0004091BE026091BD02810F0E943223195F93
:103DF00083E0E80EF11C173E89F70E9406229A81A3
:103E00008C8190FF02C08F5F01C081508C83DF9155
:103E1000CF911F91FF90EF9008950F931F93CF9331
:103E2000DF9300D01F92CDB7DEB78C01809157028F
:103E300081110AC09E012F5F3F4F4FEF6FEF0E942D
:103E400032238A8180935702F8018481813051F0B6
:103E500028F0823061F4409157020AC080915702E5
:103E600040E007C06091570240E080E003C040E0BE
:103E700080E060E00E943B22F801848190E001969E
:103E800063E070E00E944D2984830F900F900F90A3
:103E9000DF91CF911F910F910895CF93DF93EC01A4
:103EA000EBEBF2E0438162818C810E9440238C81A4
:103EB0008F5F8C83DF91CF910895CF93DF93EC01D7
:103EC000EC81F0E0EE52FC4F4491EBEBF2E06281CA
:103ED00081810E9440238C818F5F8C83DF91CF9101
:103EE000089590914A02943029F58093D0027093FE
:103EF000D2026093D1029093E9008FEF9091E80095
:103F0000815095FD06C095ED9A95F1F7000081115D
:103F1000F5CF8091E80085FF0DC040E050E063E000
:103F200070E080ED92E00E94F31C8091E8008E77B3
:103F30008093E800089581E08093E00080E2809320
:103F4000D8001092C9008FE19EE40197F1F700C0FC
:103F5000000087E090EBDC018093B1039093B20303
:103F6000A093B303B093B4039CE088E10FB6F89438
:103F7000A895809360000FBE90936000FFCF789467
:103F80001F920F920FB60F9211248F939F93AF93AE
:103F9000BF938091CA029091CB02A091CC02B091C4
:103FA000CD020196A11DB11D8093CA029093CB0250
:103FB000A093CC02B093CD02BF91AF919F918F910E
:103FC0000F900FBE0F901F9018959C014FB7F8945B
:103FD0008091CA029091CB02A091CC02B091CD0207
:103FE0004FBF821B930B08952FB7F8948091CA029C
:103FF0009091CB02A091CC02B091CD022FBF089539
:104000001F920F920FB60F9211248F939F93AF932D
:10401000BF938091C902811113C08091CA0290910F
:10402000CB02A091CC02B091CD024196A11DB11D51
:104030008093CA029093CB02A093CC02B093CD029E
:10404000BF91AF919F918F910F900FBE0F901F90D6
:10405000189520910A012223C9F02091CE0227FF52
:1040600015C0262F2695269526952E31C8F4FC01DD
:10407000E20FF11D677081E090E001C0880F6A9542
:10408000EAF780959281892382830895FC01069640
:104090002281621301C012823196E817F907C1F735
:1040A000089520910A012223C1F02091CE0227FF1A
:1040B00014C0262F2695269526952E3130F5FC0125
:1040C000E20FF11D677081E090E001C0880F6A95F2
:1040D000EAF79281892B82830895FC0132962FEFB3
:1040E00030E04191641789F02F3F19F4411101C06C
:1040F000232F3F5F3630A9F72F3F39F0FC01E20F45
:10410000F11D27FDFA956283089508952091C70255
:104110003091C8022817390771F09093C802809334
:10412000C702E091C502F091C602309721F00084E9
:10413000F185E02D099408952091C3023091C402C5
:104140002817390771F09093C4028093C302E0915D
:10415000C502F091C602309721F00680F781E02D6C
:1041600009940895E091C502F091C602309721F0BC
:104170000190F081E02D099480E008950F931F9342
:10418000CF93DF93C42FD22FFC0182818823C9F003
:104190004093C2020E94F41F9093C1028093C00218
:1041A00080E28C0F883008F057C0C77081E001C0F2
:1041B000880FCA95EAF7DF91CF911F910F910C9468
:1041C0008B258091C202481330C08091C00290912B
:1041D000C1020E94E51F883C910538F510E21D0FD1
:1041E000CD17B9F080E28C0F883040F4C77081E0C1
:1041F00001C0880FCA95EAF70E948025183028F57B
:1042000081E09D2F977001C0880F9A95EAF70E9470
:104210008B25802F0E943A261830F0F4D77081E069
:1042200001C0880FDA95EAF70AC080E28C0F883067
:1042300098F4C77081E001C0880FCA95EAF7DF9152
:10424000CF911F910F910C948025802FDF91CF91FA
:104250001F910F910C943A26DF91CF911F910F91EE
:104260000895CF93DF93CFE7D2E060E0CE010E94C4
:1042700075292196C11584E0D807B9F7DF91CF9150
:104280000895CF92DF92EF92FF920F931F93CF93F7
:10429000DF93C0E0D0E08E010A561F4F6E018EE121
:1042A000C80ED11CFE01EE52FB4FE590F4906F2D2D
:1042B000CE0187960E9475296E2DCE0188960E94A8
:1042C00075292296CC15DD0569F70C171D0731F706
:1042D000E80108351240F9F6DF91CF911F910F9157
:1042E000FF90EF90DF90CF9008950F931F93CF939F
:1042F000DF93C42FD0E0CC0FDD1F2EE1629FC00DF5
:10430000D11D112436E9839FC00DD11D1124CE018A
:1043100087960E946129082F10E0102F0027CE01F8
:1043200088960E9461299801282BC901DF91CF91BD
:104330001F910F910895462F843038F4753028F47A
:104340006F3018F4672F0C94752180E090E0089589
:10435000CF93C82F811102C06FEF01C061E283E2E9
:1043600090E00E947529C11102C06FEF01C060E1A9
:1043700084E290E00E947529C11102C06FEF01C074
:1043800060E185E290E0CF910C94752980E00E9475
:10439000A82160E086E290E00E9475290E944121F8
:1043A0000E94312181E00C94A82183E290E00E94D8
:1043B0006129813281F484E290E00E946129803198
:1043C00051F485E290E00E94612991E0803109F08A
:1043D00090E0892F01C080E0817008959091BB0228
:1043E00090FF04C09695981740F003C0811105C056
:1043F00090E0961710F40C94822461E00C9437241A
:10440000882311F0FA0101C0FB0109940F931F9357
:10441000CF93DF938091BB0280FF09C08091190187
:10442000823021F5C8E5D2E000E010E00BC0E8E5FD
:10443000F2E0118210821282339682E0EB3BF807A1
:10444000C1F7ECCF2A8148816981C8010E94B72752
:104450000F5F1F4F239600321105A1F788EB92E002
:10446000DF91CF911F910F910C942518DF91CF917F
:104470001F910F9108959091BB0290FF0CC0E8E549
:10448000F2E0818360834283339692E0EB3BF9074D
:10449000C1F70C94062208958091BB02282F26951F
:1044A00030E02115310519F48170826005C0253294
:1044B000310524F0817088648093BB020895CF9207
:1044C000DF92EF92FF926B017C010E944C22B701B8
:1044D000A60188E090E0FF90EF90DF90CF900C94E1
:1044E00087298091BF02882319F081508093BF02F1
:1044F0006091BB027091BC028091BD029091BE029E
:104500000C945F228091BF02833018F48F5F8093F8
:10451000BF026091BB027091BC028091BD0290917C
:10452000BE020C945F22EBEBF2E083E08083118209
:104530008FEF828383831482608171818281938172
:104540000C945F22CF92DF92EF92FF920F931F9312
:10455000CF93DF93F62E472FE82FF0E0711106C0BE
:10456000E65DF84F8491782F682F73C0272F30E0D5
:10457000E65DF84FE491FE2F0E2F10E056E0659FA8
:10458000C0011124CFEFD0E0BE010E9439295BEABF
:104590005603C001579F900D11248F0D911D8F0D53
:1045A000911D982F990F980F7E01E21AF30AE09E51
:1045B000D001E19EB00DF09EB00D11248B2F499FCC
:1045C000A0011124452F55277E01E41AF50AE09E2B
:1045D000A001E19E500DF09E500D11246E01C91AEC
:1045E000D108C29E7001C39EF00CD29EF00C112423
:1045F0002F2D3327C21BD30BC09F9001C19F300DBD
:10460000D09F300D1124932F6230710591F048F442
:1046100061157105E1F061307105B9F49E2FE52F48
:1046200016C06430710569F040F06630710579F0AC
:104630000CC09E2FEB2F832F0AC0EB2F8F2F952FAF
:1046400006C09B2F8E2FE32F02C09B2F852F7E2F1E
:10465000692FDF91CF911F910F91FF90EF90DF9025
:10466000CF900895CF93DF93762FE901682F842FA1
:104670000E94A222798368838A83DF91CF91089573
:10468000CF93DF9300D01F92CDB7DEB79091BB02DE
:1046900090FF0AC09E012F5F3F4F0E9432234B8143
:1046A00069818A810E943B220F900F900F90DF91C9
:1046B000CF9108955F926F927F928F929F92AF9267
:1046C000BF92CF92DF92EF92FF920F931F93CF93FF
:1046D000DF9300D01F92CDB7DEB7182F762E042FB0
:1046E000622E9091BB0290FF6DC0E92FE695AE2F30
:1046F000B0E0A658BE4F8C918093D9029E7F923035
:1047000061F49E012F5F3F4F812F0E9432234B8126
:1047100069818A810E943B2243C0823019F4009152
:10472000BE023EC0863019F41091BC0239C08930F7
:10473000D9F38931A9F5E9518E2F8170582EE6956C
:10474000F0E0E65DF74FA590B49088E5C82E82E0D2
:10475000D82EE12CF12CBB2491E2892E912CAE9C19
:10476000C001AF9C900DBE9C900D1124B4010E941D
:104770003929812F511002C0860F01C0861B960176
:10478000402F672D0E9432238FEFE81AF80A83E04A
:10479000C80ED11C81E2E816F10409F70E94062236
:1047A0001093BC027092BD020093BE02662051F0CD
:1047B0006091BB027091BC028091BD029091BE02DB
:1047C0000E945F220F900F900F90DF91CF911F9169
:1047D0000F91FF90EF90DF90CF90BF90AF909F90A0
:1047E0008F907F906F905F900895EBEBF2E04381A4
:1047F00028E0421B08F440E021E0628181810C94B2
:104800005A23EBEBF2E0438128E0420F08F44FEF2C
:1048100021E0628181810C945A23EBEBF2E062810A
:1048200028E0621B08F460E021E0438181810C9460
:104830005A23EBEBF2E0628128E0620F08F46FEF9D
:1048400021E0438181810C945A23EBEBF2E08181DA
:1048500021E04381628188500C945A23EBEBF2E013
:10486000818121E043816281885F0C945A23909179
:10487000BB0290FF3DC09170811102C0926006C0E2
:10488000853210F0986402C0880F982B9093BB0279
:10489000662351F06091BB027091BC028091BD0211
:1048A0009091BE020E945F226091BB02669570E00B
:1048B0004BE050E08EE091E00E94232A892B19F012
:1048C0001092DA0209C081E08093DA020E94F41F9C
:1048D0009093D4028093D30281E08093D60220E0AB
:1048E0004091BE026091BD028091BC020C945A239B
:1048F00008958091BB028695815009F484E261E0BD
:104900000C9437248091BB0286958F5F853208F026
:1049100081E061E00C94372480E090E00E949C20CC
:1049200080E090E00E94862010921E0210921D02EC
:104930000C94DC13CF92DF92FF920F931F93CF93CF
:10494000DF936C010091540280912102082BC7E093
:10495000D0E010E0C8010C2E02C0959587950A940E
:10496000E2F780FD04C02197A8F7F12C09C0FC2EC6
:10497000B6018C2F0E949B210E94C711019799F3C9
:104980008F2DDF91CF911F910F91FF90DF90CF90EE
:1049900008952FE0929F800D1124682F66956695EB
:1049A0006695982F977083E0689FB001112440E0CE
:1049B00050E080E0FB01E40FF51FE552FD4F208140
:1049C00030E0092E02C0369527950A94E2F721704F
:1049D0003327042E01C0220F0A94EAF7822B4F5F7F
:1049E0005F4F4330510531F708952FE0929F800DBE
:1049F0001124E82FE695E695E695877051E001C011
:104A0000550F8A95EAF783E0E89FF0011124E552FB
:104A1000FD4F20E030E070E04081CB01022E02C06B
:104A2000969587950A94E2F781708195842785236E
:104A3000842781932F5F3F4F2330310569F7089515
:104A4000809354020C948C2421E030E001C0220FAA
:104A50008A95EAF720958091540282230C942025B0
:104A600021E030E001C0220F8A95EAF780915402DC
:104A7000822B0C942025809321020C948C24FC0121
:104A8000808191810E94CF14292F2F70E92FE29508
:104A9000EF704E2F50E0FA013297EE30F105B8F486
:104AA000E158FF4F0C94D929803F99F018F4883EC3
:104AB00070F40FC0843F59F40CC0883E50F0813F21
:104AC00031F407C0822F869586958695089580E0FB
:104AD000089581E0089510921F0280910A018823B1
:104AE00031F08091CE0287FF02C08EE101C086E0E6
:104AF000E6ECF1E0DF011D928A95E9F70C948C2435
:104B0000882341F0809590911F02892380931F0292
:104B10000C94DC130895882339F090911F02892B9F
:104B200080931F020C94DC130895882379F19CEF85
:104B3000980F913A30F4682F84EC91E00E9429207C
:104B400014C090E2980F983090F4877021E030E024
:104B5000A90102C0440F551F8A95E2F7CA0180954A
:104B600090911F02892380931F020C94DC139BE514
:104B7000980F933020F480E090E00C949C20885AA9
:104B8000873120F480E090E00C9486200895CF9344
:104B9000882309F46DC09CEF980F913AC8F5C82F8F
:104BA00080910A018823E1F08091CE0287FF18C02E
:104BB000EC2FE695E695E695F0E0EC53FE4F82810A
:104BC000282F30E04C2F477081E090E002C0880F22
:104BD000991F4A95E2F782239323892B61F412C02F
:104BE000E6ECF1E08CEC91E02191C21721F08E17F8
:104BF0009F07D1F707C06C2F84EC91E00E94292019
:104C00000E94DC136C2F84EC91E00E94512013C0B1
:104C100090E2980F983090F4877021E030E0A9017D
:104C200002C0440F551F8A95E2F7CA0190911F02F6
:104C3000892B80931F02CF910C94DC13EBE5E80FD6
:104C4000E33040F4F0E0E65CFE4F808190E0CF91ED
:104C50000C949C20885A873158F4E82FF0E0EE0F2E
:104C6000FF1FE35CFE4F80819181CF910C948620E1
:104C7000CF9108951F93CF93DF93182F893319F0A5
:104C8000C0E0D0E002C0C0E5D0E0812F0E94C7257F
:104C9000209741F08FE99FE00197F1F700C00000F5
:104CA0002197F6CF812FDF91CF911F910C949525FD
:104CB0001092B9008CE08093B80008959F92AF9253
:104CC000BF92CF92DF92EF92FF920F931F93CF93F9
:104CD000DF93B82EEB010E94F41F6C01C431D105A3
:104CE00058F0CF3F8FEFD80759F0CE0164E170E064
:104CF0000E9439297B0107C0EE24E394F12C03C004
:104D000025E0E22EF12C84E8A82E94EA992E109248
:104D1000BC009092BC000E94F41F8C018091BC00EA
:104D200087FD08C00E94F41F801B910B8E159F0504
:104D3000A8F32AC08091B900887F883041F0809123
:104D4000B900887F803119F00FEF1FEF1FC0B092BC
:104D5000BB00A092BC000E94F41F8C018091BC009B
:104D600087FD08C00E94F41F801B910B8E159F05C4
:104D7000A8F30AC08091B900887F883111F080348F
:104D800019F700E010E00EC00EEF1FEFCF3F8FEFDE
:104D9000D80709F4BCCFC6010E94E51F8C179D07F8
:104DA00008F4B5CFC801DF91CF911F910F91FF900B
:104DB000EF90DF90CF90BF90AF909F9008950F93AA
:104DC0001F93CF93DF93EB018093BB0084E8809324
:104DD000BC000E94F41F8C018091BC0087FD0EC0B6
:104DE000CF3F8FEFD807C1F30E94F41F801B910BB8
:104DF0008C179D0788F38EEF9FEF0CC02091B900B0
:104E0000287F81E090E0283211F480E090E09195D5
:104E100081959109DF91CF911F910F910895CF92C4
:104E2000DF92EF92FF920F931F93CF93DF936B016B
:104E30008A017901B9010E945E26E6010C0D1D1D53
:104E4000C017D10761F424E92093BC00DF91CF9112
:104E50001F910F91FF90EF90DF90CF90089597FDF5
:104E6000F2CFB70189910E94DF26EACFEDE9F3E0A6
:104E70006083418324E630E042E050E0BF01880FC8
:104E80000C940F270F931F93CF93DF93082F000FDE
:104E9000EB0114E210939D03EEE9F3E0DE018D9146
:104EA000819383E0EE3AF807D1F724E630E041E160
:104EB00050E06DE973E0802F0E940F27105F60962D
:104EC000143B41F7DF91CF911F910F910895CF933C
:104ED000DF93C82F4BE06DEF0E94362740E06AE079
:104EE0008C2F0E9436278FE39CE90197F1F700C0D1
:104EF000000040E060E08C2F0E94362740E061E037
:104F00008C2F0E94362740E066E08C2F0E943627C7
:104F100040E06DEF8C2F0E943627D0E040E06D2FEF
:104F20008C2F0E943627DF5FD231C1F740E06D2F12
:104F30008C2F0E943627DF5FD432C1F740E06D2FFF
:104F40008C2F0E943627DF5FD43BC1F74BE06DEF1B
:104F50008C2F0E94362741E06AE08C2F0E94362772
:104F600040E06DEF8C2FDF91CF910C94362780328B
:104F7000910578F5FC01EE0FFF1FEE0FFF1FDF011B
:104F8000A65EBE4FCD010296FC0154910196FC0134
:104F90003491FD01859183707491A82FB0E0F0E900
:104FA0008F9FC0011124835F9C4FFC01E70FF11D0F
:104FB000B4976083FC01E50FF11DB4974083830F24
:104FC000911DFC01B4972083FD01E45FFC4F81E05B
:104FD00080830895FF920F931F93CF93DF93182F31
:104FE000062FF42EC0E0D0E02F2D402F612FCE01F0
:104FF0000E94B7272196C032D105B1F7DF91CF913A
:105000001F910F91FF9008957F928F929F92AF9280
:10501000BF92CF92DF92EF92FF920F931F93CF93A5
:10502000DF93362F54E0859FC0011124DC01A65E7A
:10503000BE4FFD0165916370762E649170E0CB01E7
:1050400084978C0197FF02C0095F1F4FE3E015951D
:105050000795EA95E1F7BD016E5F7F4FFB01649113
:1050600070E07B01F4E2EF1AF108E701F7FC279604
:1050700073E0D595C7957A95E1F7FD013396649174
:1050800070E04B0154E2851A9108F40197FC3796C1
:1050900053E0F595E7955A95E1F768E0A62EB12C17
:1050A000B5010E944D296C01C701B5010E944D292F
:1050B0007C01C401B5010E944D291127672D70E0C4
:1050C000DD24332399F032E1369FD001379FB00DB4
:1050D0001124A650BD4FA00FB11F01E010E001C088
:1050E000000FCA94EAF73C91032B13C032E1369FBC
:1050F000D001379FB00D1124A650BD4FA00FB11F96
:1051000001E010E001C0000FCA94EAF700953C915D
:1051100003230C93DD27FF2432E1442391F0369FD3
:10512000A001379F500D112446505D4FC40FD51F6D
:1051300041E050E001C0440FEA94EAF73881432B84
:1051400012C0369FA001379F500D112446505D4F6D
:10515000C40FD51F41E050E001C0440FEA94EAF7C4
:105160004095388143234883AF015527992792E121
:10517000969FF001979FF00D1124E650FD4FE40F2C
:10518000F51F222361F021E030E0A90102C0440FA5
:10519000551F8A95E2F7CA019081892B0CC021E046
:1051A00030E0A90102C0440F551F8A95E2F7CA01F9
:1051B0008095908189238083FB01E750FD4F81E03A
:1051C0008083DF91CF911F910F91FF90EF90DF903F
:1051D000CF90BF90AF909F908F907F900895CF9386
:1051E000DF93262F30E0E901C45FDC4F98819923DB
:1051F00051F090E9929FB001939F700D1124635F6D
:105200007C4F0E9442271882DF91CF910895DF9250
:10521000EF92FF920F931F93CF93DF93262F30E0EF
:10522000A90147505D4F7A01FA01908191110AC09E
:10523000F7011082DF91CF911F910F91FF90EF90B6
:10524000DF900895D82EF2E16F9FE001112400E075
:1052500010E0F801EC0FFD1FE650FD4F4081602F7C
:105260008D2D0E9436270F5F1F4F0231110589F7E0
:10527000DFCFAA1BBB1B51E107C0AA1FBB1FA6178C
:10528000B70710F0A61BB70B881F991F5A95A9F7EF
:1052900080959095BC01CD01089597FB072E16F4DB
:1052A000009407D077FD09D00E94392907FC05D06A
:1052B0003EF4909581959F4F0895709561957F4F2D
:1052C0000895F999FECF92BD81BDF89A992780B5CE
:1052D0000895A6E1B0E044E050E00C949B29A8E1D9
:1052E000B0E042E050E00C949B29262FF999FECFC4
:1052F00092BD81BDF89A019700B4021639F01FBA29
:1053000020BD0FB6F894FA9AF99A0FBE0895039645
:10531000272F0E9476290E947529252F0E94762921
:10532000242F0C9476290196272F0E9476290C941D
:105330007529DC01CB01FC01F999FECF06C0F2BD55
:10534000E1BDF89A319600B40D9241505040B8F743
:10535000089587FB082E062687FD819567FD6195D8
:105360000E94172A0EF4919507FC81950895A1E2F9
:105370001A2EAA1BBB1BFD010DC0AA1FBB1FEE1FCF
:10538000FF1FA217B307E407F50720F0A21BB30B1A
:10539000E40BF50B661F771F881F991F1A9469F796
:1053A00060957095809590959B01AC01BD01CF01F2
:1053B0000895EE0FFF1F0590F491E02D09946927E1
:1053C0009627692778278727782708950E94EE294E
:1053D000332312F48A1B9B0B0C94FF29A29FB0016C
:1053E000B39FC001A39F700D811D1124911DB29F19
:1053F000700D811D1124911D08950E94EE29B7FFA3
:105400000895821B930B08950E94EE29A59F900D8D
:10541000B49F900DA49F800D911D11240895B7FF96
:105420000C94042A0E94042A821B930B0895991B52
:1054300079E004C0991F961708F0961B881F7A958B
:10544000C9F780950895FC014150504030F001901B
:105450000616D1F73197CF01089588279927089527
:10546000FB01DC0104C08D910190801921F44150B1
:0E5470005040C8F7881B990B0895F894FFCFA1
:10547E00211D241D201D21181D18010102010119D5
:10548E001A1B1C1D1E1F2021220000000F0A0401E2
:10549E000A0000D9FF00F031F6F4F1F730C6676666
:1054AE0036353497969495329392818283E200E951
:1054BE0000EA00B500B600B700CD008301CC008A2B
:1054CE0001920194012102230224022502260227C1
:1054DE00022A02B300B4006F00700040226DEB028E
:1054EE00C9025C023D03560376030001020202026A
:1054FE000606060909090909090F0F0F0F0F0F15E7
:10550E00151518191919191919191919192324000A
:00000001FF
