:100000000C94B9020C9400030C9400030C940003AC
:100010000C9400030C9400030C9400030C94000354
:100020000C9400030C9400030C94910F0C94CD0ECF
:100030000C94781B0C9400030C9400030C940003A4
:100040000C9400030C9400030C9400030C94000324
:100050000C9400030C9468110C9400030C9400039E
:100060000C9400030C9400030C9400030C94000304
:100070000C9400030C9400030C9400030C940003F4
:100080000C9400030C9400030C9400030C940003E4
:100090000C9400030C9400030C9400030C940003D4
:1000A0000C9400030C9400030C9400038A048A044B
:1000B0009D049D0493049D049D049D048A048A0468
:1000C00098049D049D049804290929096409640978
:1000D000BE09DC09E60AE60AE7095B0A6C0A6C0A53
:1000E000E10C080DAF0E080DAF0E540D770DAF0EDD
:1000F0006C0E7C0E351A381A591A661A6D1A8D1A3A
:10010000251B251B251B251B251B901A921A971AA8
:10011000BC1ADE1AE11AE41A061B000000000000F7
:1001200000000000000000000000000000000000CF
:1001300000000000000000000000000000007E0F32
:1001400000D4FFFFFFC7000000780000000000009F
:1001500000002A2B28000000000000000000000022
:10016000000000000029000000002C1E3420212285
:1001700024342627252E362D3738271E1F202122EE
:10018000232425263333362E37381F040506070867
:10019000090A0B0C0D0E0F10111213141516171857
:1001A000191A1B1C1D2F3130232D35040506070895
:1001B000090A0B0C0D0E0F10111213141516171837
:1001C000191A1B1C1D2F3130354C05010902A101E4
:1001D00085020901A1000509190129081500250159
:1001E0009508750181020501093009311581257FC6
:1001F00095027508810609381581257F95017508D6
:100200008106050C0A38021581257F950175088144
:1002100006C0C005010980A101850319012AB700A4
:10022000150126B700950175108100C0050C090164
:10023000A101850419012AA002150126A002950139
:1002400075108100C005010906A101850505071982
:10025000E029E715002501950875018102050719B8
:100260000029EF1500250195F07501810205081997
:10027000012905950575019102950175039101C04C
:100280000660FF0961A1010962150026FF009520A3
:10029000750881020963150026FF009520750891F5
:1002A00002C005010906A101050719E029E71500AB
:1002B00025019508750181029501750881010507E1
:1002C000190029FF150026FF009506750881000515
:1002D000081901290595057501910295017503918C
:1002E00001C009025B00030100A0FA09040000013B
:1002F00003010100092111010001224000070581CD
:100300000308000A0904010002030000000921118A
:1003100001000122220007058203200001070503D6
:10032000032000010904020001030000000921115B
:1003300001000122B6000705840320000A12010013
:100340000200000008249605000100010200010ED1
:1003500003470069006E0020005600320000000CC8
:10036000034F006300650061006E00000004030994
:10037000045F006100140008001700180012002D2F
:1003800000600029001A0015001C000C001300007A
:10039000005C005E00040007000A000D000F002A48
:1003A000005D002B00160009000B000E0034000059
:1003B0000059005B001D00060005001000370028F2
:1003C000005A00E1001B001900110036003800003F
:1003D0000062005800E3002C0000000151E700E536
:1003E000006300E000E20000002C00E600E40000F2
:1003F00000010001000100010001000100010001F5
:1004000000010001000100010001000100010000E5
:1004100000010001000100010001000100010001D4
:1004200000010001000100010001000100010000C5
:1004300000010001000100010001000100010001B4
:1004400000010001000100010001000100010000A5
:100450000001000100010001000000010001000195
:100460000001000100010000000100010001000086
:100470000001000100010001000100010001000174
:100480000001000100010001000100010001000065
:100490000001000100010001000100010001000154
:1004A0000001000100010001000100010001000045
:1004B0000001000100010001000100010001000134
:1004C0000001000100010001000100010001000025
:1004D0000001000100010001000000010001000115
:1004E0000001000100010000000100010001000006
:1004F00000010001000100010001000100010001F4
:1005000000010001000100010001000100010000E4
:1005100000010001000100010001000100010001D3
:1005200000010001000100010001000100010000C4
:1005300000010001000100010001000100010001B3
:1005400000010001000100010001000100010000A4
:100550000001000100010001000000010001000194
:100560000001000100010000000100010001000085
:10057000000011241FBECFEFDAE0DEBFCDBF04B60E
:1005800003FE27C08091420290914302A091440251
:10059000B09145028730904BA740B04BD1F41092F8
:1005A000420210924302109244021092450214BE7D
:1005B00084B7877F84BF0FB6F894A89580916000B8
:1005C000886180936000109260000FBEE0E0F8E365
:1005D000099511E0A0E0B1E0E0E9FEE302C005907A
:1005E0000D92AC35B107D9F722E0ACE5B1E001C01E
:1005F0001D92A234B207E1F70E9497170C94461F90
:100600000C94000028E0929F800D1124682F6695BD
:1006100066956695982F977083E0689FB0011124C6
:1006200040E050E080E0FB01E40FF51FE15AFE4F8F
:10063000208130E0092E02C0369527950A94E2F712
:1006400021703327042E01C0220F0A94EAF7822B6F
:100650004F5F5F4F4330510531F7089528E0929F77
:10066000800D1124E82FE695E695E695877051E018
:1006700001C0550F8A95EAF783E0E89FF001112445
:10068000E15AFE4F20E030E070E04081CB01022EC5
:1006900002C0969587950A94E2F781708195842728
:1006A0008523842781932F5F3F4F2330310569F7DE
:1006B000089580E090E00E94141C80E090E00E9489
:1006C000FE1B10920A02109209020E94F614E2E345
:1006D000F2E086E0DF011D928A95E9F710922C0284
:1006E00010922B0210922D020C94841D8823B1F1DC
:1006F0009CEF980F913A30F4682F80EB91E00E94C4
:10070000A11B14C090E2980F983090F4877021E0FC
:1007100030E0A90102C0440F551F8A95E2F7CA01D3
:10072000809590910B02892380930B020C94F61410
:100730009BE5980F933020F480E090E00C94141C1B
:1007400098E5980F973120F480E090E00C94FE1B20
:10075000803F20F00E94AE1D0C94841D0895CF931D
:10076000882309F472C0C82F8CEF8C0F813AC0F532
:10077000809100018823E1F080917B0187FF18C000
:10078000EC2FE695E695E695F0E0E055FE4F828188
:10079000282F30E04C2F477081E090E002C0880F96
:1007A000991F4A95E2F782239323892B61F412C0A3
:1007B000E2EBF1E088EB91E02191C21721F08E1776
:1007C0009F07D1F707C06C2F80EB91E00E94A11B1F
:1007D0000E94F6146C2F80EB91E00E94C91B10C0A0
:1007E00080E28C0F883078F4C77081E090E001C01F
:1007F000880FCA95EAF790910B02892B80930B0220
:10080000CF910C94F614EBE5EC0FE33040F4F0E0FC
:10081000E65EFE4F808190E0CF910C94141CE8E5D9
:10082000EC0FE73150F4F0E0EE0FFF1FE35EFE4FF8
:1008300080819181CF910C94FE1BC03F30F08C2FB2
:100840000E94671ECF910C94841DCF910895CF9282
:10085000DF92FF920F931F93CF93DF936C01009170
:10086000AF0180910D02082BC7E0D0E010E0C80175
:100870000C2E02C0959587950A94E2F780FD04C07E
:100880002197A8F7F12C09C0FC2EB6018C2F0E94ED
:10089000311D0E94DB12019799F38F2DDF91CF91CB
:1008A0001F910F91FF90DF90CF9008958093AF013B
:1008B0000C94590321E030E001C0220F8A95EAF739
:1008C00020958091AF0182230C94560421E030E002
:1008D00001C0220F8A95EAF78091AF01822B0C9418
:1008E000560480930D020C945903FC018081918180
:1008F0000E94E915292F2F70E92FE295EF704E2FF6
:1009000050E0FA013297EE30F105B8F4EA5AFF4FA1
:100910000C94181F803F99F018F4883E70F40FC0B3
:10092000843F59F40CC0883E50F0813F31F407C039
:10093000822F869586958695089580E0089581E0BA
:10094000089510920B0280910001882331F080916C
:100950007B0187FF02C08EE101C086E0E2EBF1E09F
:10096000DF011D928A95E9F70C945903882341F021
:10097000809590910B02892380930B020C94F614BE
:100980000895882339F090910B02892B80930B02F4
:100990000C94F61408951F93CF93DF93182F893387
:1009A00019F0C0E0D0E002C0C0E5D0E0812F0E9485
:1009B000AF03209741F08FE99FE00197F1F700C066
:1009C00000002197F6CF812FDF91CF911F910C94DA
:1009D00076031F93CF93DF93CDB7DEB767970FB63C
:1009E000F894DEBF0FBECDBF4B8B5C8B6D8B7E8BC7
:1009F0008F8B611110920A0286E09E01235F3F4FA8
:100A0000D901E82F1D92EA95E9F795E0FE0173966A
:100A1000D90101900D929A95E1F79C894E895F89E1
:100A20007B897D879E876F87598B488BF901DE0113
:100A3000179601900D928A95E1F7CE0107960E94D4
:100A4000F61581113EC086E0FE013796DE01119653
:100A500001900D928A95E1F7FF81E8856A857B8593
:100A60006115710531F0EF3F31F481E0FF3F19F47A
:100A700003C081E001C080E080FD23C02091D60149
:100A800030E0C9010196877099274091070250E034
:100A90008417950779F1F983EA837D836C8396E067
:100AA000929FD001939FB00D1124A952BE4FFE0119
:100AB000319601900D929A95E1F78093D6010E94AC
:100AC000731516E0809107029091D6018917F9F00D
:100AD000189FC001112489529E4F0E94F615882349
:100AE000B1F08091070290E001968770992780937A
:100AF0000702E8CF0E94A1041092D60110920702CB
:100B0000E0EDF1E086E0DF011D928A95E9F7679656
:100B10000FB6F894DEBF0FBECDBFDF91CF911F910E
:100B200008953F924F925F926F927F928F929F9221
:100B3000AF92BF92CF92DF92EF92FF920F931F93EB
:100B4000CF93DF93CDB7DEB729970FB6F894DEBF0A
:100B50000FBECDBFFC018081918123813481232B85
:100B600031F09F3F31F491E08F3F19F403C091E0E1
:100B700001C090E090FD67C57F0185E0DE01119620
:100B800001900D928A95E1F7F701228189819A817E
:100B9000222349F00E942704182F682F89819A8107
:100BA0000E942E0303C00E940203182F69817A81DC
:100BB000812F0E94311D8C01F7018281882309F465
:100BC000F2C0980122513F452031310508F019C18A
:100BD0008FEF93E00E94C21E8111EFC0025137E2F5
:100BE000832E32E0932E002379F08114F4E09F06E7
:100BF00009F4E3C0C4010E94C21E811101C001506A
:100C00002FEF821A920AEFCF1E821F821886198652
:100C1000442443942AE0322E84010F5F1F4FC40105
:100C20000E94C21E8E831F82882309F4C6C09FEFD4
:100C3000980F933060F48F834E8232E0830E911CC4
:100C4000C8010E94C21E8887811102C0B6C0480137
:100C50008E010A5F1F4FF80120812223E9F2213023
:100C600009F04CC08181813049F46801F2E0CF0E77
:100C7000D11CF80182810E94CB040AC0823051F459
:100C80006801F2E0CF0ED11CF80182810E94AF030F
:100C9000860186C0833049F46801F2E0CF0ED11C92
:100CA000F80182810E947603F3CF843019F00F5F40
:100CB0001F4F76C0F80122810E5F1F4F80E090E049
:100CC00030E0205331092A30310568F4389EA00104
:100CD000399E500D1124C901840F951F0F5F1F4FBE
:100CE000F8012081EDCF009709F45AC0EFE9FFE049
:100CF0003197F1F700C000000197F5CFE22FF0E047
:100D0000E65BFE4F5490822F86958695869590E0FF
:100D1000FC01E65CFE4F64902770712C022E02C02D
:100D2000759467940A94E2F7F1E06F227724FC014E
:100D3000E65DFE4FA490B12C022E02C0B594A7949C
:100D40000A94E2F731E0A322BB24FC01E65EFE4FE9
:100D5000C490D12C02C0D594C7942A95E2F781E0C3
:100D6000C822DD246114710419F081EE0E94AF03E2
:100D7000A114B10419F086EE0E94AF03852D0E94E4
:100D8000CB04AB2819F086EE0E947603672819F091
:100D900081EE0E947603CD2819F08CE20E94CB04EC
:100DA0000F5F1F4F58CF00313FE5130709F042C4D2
:100DB00081E00E945A040E94F00B80910802877023
:100DC00009F441C4F7018281882309F43CC482E01C
:100DD00029960FB6F894DEBF0FBECDBFDF91CF913D
:100DE0001F910F91FF90EF90DF90CF90BF90AF9049
:100DF0009F908F907F906F905F904F903F900C945A
:100E000056150031FFE51F0711F481E005C00131DF
:100E10002FE5120721F482E00E946604CCCF033F45
:100E2000FCE51F0799F406E221EE40EE63EF7CE556
:100E300009C0073DECE51E0711F506E221EE41EE83
:100E400067ED7CE5C7010E94361CB7CF043F2CE557
:100E5000120708F03FC1083D3CE5130731F407E2F3
:100E600025EE45EE68ED7CE5EDCF093D9CE51907E3
:100E700001F708E221E045EE69ED7CE5E3CF882348
:100E800009F45DC110923A0202309CE5190708F49A
:100E900040C10631ECE51E0730F0C8018A5F9C4571
:100EA000099708F036C10E94751490937C018093D5
:100EB0007B010031FCE51F0709F4C3C008F041C005
:100EC00008303CE5130709F49AC0F0F404309CE5BF
:100ED000190709F487C068F40230FCE51F0709F41C
:100EE00077C003301C4509F0E5C080917B0182602A
:100EF00076C006303CE5130709F46EC008F07BC0ED
:100F000080917B0188606BC00C309CE5190709F467
:100F100085C068F40A30FCE51F0709F474C008F0C6
:100F200079C00E94A10480917B01806858C00E3076
:100F30003CE5130709F476C008F07FC080917B017F
:100F40008BC00B3F9CE5190709F44FC018F503311E
:100F5000FCE51F0709F47DC078F401313CE5130777
:100F600009F473C002311C4509F0A4C00E94A10419
:100F700080917B018F7733C005319CE5190709F417
:100F800072C008F486C00A3F1C4509F093C08091E6
:100F90007C013EC00F3F2CE5120709F45FC058F4F6
:100FA0000D3F8CE5180709F444C008F43FC0809158
:100FB0007C0182602DC00130EDE51E0709F475C08B
:100FC00008F45DC002301D4509F074C060E06EC0D9
:100FD00080917B01816003C080917B01806180935F
:100FE0007B0168C080917B0111C080917C0182608F
:100FF00080937C015FC080917B018062F0CF809103
:101000007B018064ECCF80917B0188608460E7CFB6
:101010008160EECF80917B018E7FE1CF80917B015B
:101020008D7FDDCF80917B01877FD9CF80917C013F
:1010300018C080917C018D7FDBCF80917B018F7EFA
:10104000CECF80917B018F7DCACF80917B018F7B3A
:10105000C6CF80917B01877F8B7FC1CF80917C0140
:101060008D7F8E7FC5CF80917B0182FB222720F967
:1010700091E0922790FB82F990FB83F9B0CF8091A9
:101080007C01982F909591708E7F892B90FB81F930
:10109000AFCF0E94A10480917B0187FB222720F91A
:1010A00091E0922790FB87F99ACF61E08EE090E083
:1010B0000E94D01E60917B0110917C0184E090E041
:1010C0000E94D01E612F82E290E00E94D01E0E94FA
:1010D000A10473CE053FFCE51F0731F406E221EEC3
:1010E00042EE65EF7CE5AECE053F2CE5120730F40D
:1010F00007E225EE44EE64EF7CE5A4CE063F3CE536
:10110000130709F0BCCE07E225EE46EE66EF7CE55C
:1011100099CE06318CE5180711F580910B028A7A79
:1011200091E009F490E090935E01882311F065E36B
:1011300001C069E280EB91E00E94C91B0DC006313D
:101140001C45F1F580915E01882309F47AC265E3BC
:1011500080EB91E00E94A11B0E94F6142ECE0A356E
:101160003DE5130741F150F401159CE51907A9F07D
:101170000E3D1C4529F50E9486141FCE0B35FDE55A
:101180001F07D9F00C351D45D9F480917C0182FBF5
:10119000882780F991E0892711C00E94A1043FEFC0
:1011A00084E39CE0315080409040E1F700C00000B3
:1011B0000E94571102CE81E001C080E00E943C15E0
:1011C000F701828100811181882349F0C8010E94C2
:1011D0002704D82E682FC8010E942E0304C0C8011E
:1011E0000E940203D82EB8018D2D0E94311D0E944D
:1011F000DB12B82E192F982EF7010281A580A29438
:101200009FE0A92280910802877099F0002389F05D
:10121000812F807F803421F080E28B0D883048F070
:1012200082E00E945615809108028770DD24D394D5
:101230008111D12CC12EC2948FE0C8228C2D90E058
:101240008C30910508F0C2C1FC01EC59FF4F0C94A1
:10125000181F812F807F1F70882311F01295107F37
:101260000023B9F0112309F49DC180E28B0D883071
:1012700010F0911006C080910B02182B10930B02F6
:1012800005C080910A02182B10930A020E94F614DE
:1012900089C18B2D0E947603112309F497C180E246
:1012A0008B0D1095883010F0911006C080910B02C4
:1012B000182310930B0205C080910A021823109383
:1012C0000A020E94F61482C1812F807F1F70803233
:1012D00011F01295107F8B2D992021F0F1E09F16CF
:1012E00011F130C00023B1F0AA2081F021E0A21258
:1012F0000DC080917C0182FD69C180910C02182B88
:10130000181709F463C110930C0260C180910C029C
:10131000812B10C0AA2021F031E0A31609F456C198
:101320000E94F01427C0002341F085E08A1508F4DC
:101330004DC1812F0E94C10449C194E09A1508F45F
:1013400045C118C0002349F0AA2099F3F70185810F
:1013500080FF28C18F708583ECCFAA2059F0893394
:1013600009F031C1FFEF27EE33E0F150204030406B
:10137000E1F727C1812F0E94B60428C1812F8695ED
:101380008695837019F0813061F020C1002321F02F
:101390008B2D912F937002C080E090E00E94141C6E
:1013A0001BC1002321F08B2D912F937002C080E090
:1013B00090E00E94FE1B10C18B2D002319F00E94AB
:1013C000671E02C00E94AE1D0E94841D05C1812FB0
:1013D0008370A9F50111FEC04B2D429546954770CB
:1013E000440F440F8B2D8F7090E09C01042E01C0A0
:1013F000220F0A94EAF7B4FE08C08FE090E001C023
:10140000880F4A95EAF7809501C080E016951695F9
:101410001370123069F088F490910D02113019F0B8
:10142000822B892302C0922B892B0E947104D2C087
:10143000822B90910D028927F8CF822BF6CF0023C3
:1014400019F0812F817001C08695882309F4C2C0EC
:101450004B2D429546954770440F440F8B2D8F704E
:1014600090E09C01042E01C0220F0A94EAF7B4FE1A
:1014700008C08FE090E001C0880F4A95EAF7809598
:1014800001C080E0169516951370123059F078F46B
:101490009091AF01113019F0822B892309C0922B52
:1014A000892B06C0822B9091AF01892701C0822B26
:1014B0000E9456048FC01F70002339F0812F0E94B4
:1014C00066048B2D0E94C10485C08B2D0E94B6043A
:1014D000812F0E945A047EC08B2D92EF991659F1EC
:1014E000991538F0E0EF9E1659F0F1EF9F16F1F0E4
:1014F00055C023EF921631F134EF931681F14EC0AF
:10150000002379F084E08A1508F460C01F7181E03F
:1015100090E001C0880F1A95EAF79091AF018927F2
:101520001BC095E09A1508F451C0F0CF002329F0B4
:10153000812F8F7126C00023D9F3812F8F710E94D4
:101540005A0444C0002339F01F7181E001C0880FA4
:101550001A95EAF701C080E00E94560437C00023C4
:1015600099F01F71812F0E94660480917C0182FD99
:1015700007C0E8E01E9FC001112483608093080229
:10158000812F0E94660422C081E00E945615F1E07E
:10159000FA15E0F482E00E94561518C0002331F0DD
:1015A000AA2031F28B2D0E94AF0310C0AA2029F28D
:1015B000893349F42FEF37EE83E0215030408040EB
:1015C000E1F700C000008B2D0E94760388EF8C0DA0
:1015D000843010F40E942A1CDD20A9F180910802B9
:1015E00080FD31C0F70112828595859585950E9411
:1015F0006604C7010E949105809108028595859532
:10160000859529960FB6F894DEBF0FBECDBFDF914A
:10161000CF911F910F91FF90EF90DF90CF90BF90EF
:10162000AF909F908F907F906F905F904F903F9082
:101630000C945A0401319FE5190709F0F0CB82E0C0
:10164000B8CB69E285CD29960FB6F894DEBF0FBE00
:10165000CDBFDF91CF911F910F91FF90EF90DF9061
:10166000CF90BF90AF909F908F907F906F905F9042
:101670004F903F9008958091A70187FF11C08091FE
:10168000E80082FD05C08091A5018111F8CF11C04D
:101690008091E8008B770BC08091A501882349F0E9
:1016A0008091E80080FFF8CF8091E8008E778093EA
:1016B000E8000895982F973068F59093E9009817FF
:1016C00039F07091EC002091ED005091F00003C0D2
:1016D000242F762F50E021FD02C09F5FECCF309188
:1016E000EB003E7F3093EB003091ED003D7F309377
:1016F000ED003091EB0031603093EB007093EC0023
:101700002093ED005093F0002091EE0027FDE5CFEF
:1017100080E008958F708093E90081E00895209122
:10172000AD013091AE012617370748F061157105FC
:1017300039F42091E8002E772093E80001C0B90128
:10174000FC0120E06115710579F18091A5018823E4
:10175000F1F18530F1F18091E80083FD3CC080918A
:10176000E80082FD2EC08091E80080FFEBCF209141
:10177000F3008091F20090E0922B6115710551F019
:101780008830910538F421912093F100615071095E
:101790000196F3CF21E0089709F020E08091E8005E
:1017A0008E778093E800CECF2111CFCF0AC08091F1
:1017B000A501882361F0853061F08091E80083FD08
:1017C0000AC08091E80082FFF2CF80E0089582E0B5
:1017D000089583E0089581E008958091820108953D
:1017E0008091AF01982F9670963011F4886001C0F7
:1017F000877F0C9456041F93CF93DF93CDB7DEB74A
:10180000AA970FB6F894DEBF0FBECDBFE7EAF1E0AE
:101810008091F100819341E0EF3AF407C9F780919C
:10182000A801833009F462C030F4813071F0823055
:1018300009F49CC0B3C08A3009F488C08B3009F425
:101840006DC0893009F0AAC020C08091A701813AFB
:1018500009F0A4C08091E800877F8093E800809120
:10186000AB019091AC01892B21F460E283E891E017
:1018700003C060E080E090E070E00E948F0B8091F8
:10188000E8008B778093E80089C08091A7018132BE
:1018900009F084C08091AB019091AC01009719F0E0
:1018A000029709F07BC08091E800877F8093E80071
:1018B0008091E80082FD05C08091A5018111F8CFDB
:1018C0006DC02091F3008091F20090E0922B02977E
:1018D00029F48091F1008B7F813021F48091F10017
:1018E000809382018091E8008B7754C08091A7019A
:1018F000813A09F053C08091AB019091AC01892BE2
:1019000009F04CC08091E800877F8093E8008091C7
:10191000E80080FFFCCF8091000137C08091A701D3
:101920008132E1F58091AB019091AC01892BB1F549
:101930008091E800877F8093E8000E943B0B8091B4
:10194000A901809300010E94A10428C08091A701F1
:10195000813221F58091E800877F8093E8000E9422
:101960003B0B8091AA018093810118C08091A7014F
:10197000813AA1F48091E800877F8093E80080910C
:10198000E80080FFFCCF809181018093F10080917D
:10199000E8008E778093E8000E943B0B8091E8007E
:1019A00083FFDDC18091A7019091A801492F50E0EC
:1019B0004A30510508F0D3C1FA01E059FF4F0C94A9
:1019C000181F803821F0823809F0C9C108C0809101
:1019D000A3019091A401992389F082600FC08091A6
:1019E000AB018F70873008F0BAC18093E900809115
:1019F000EB0085FB882780F91092E9009091E800C0
:101A0000977F9093E8008093F1001092F10070C1ED
:101A1000282F2D7F09F0A3C1882319F0823061F0AF
:101A20009EC18091A901813009F099C1933009F0DC
:101A300080E08093A4012EC08091A90181112AC069
:101A40008091AB018F702FEF280F263008F087C1EF
:101A50008093E9002091EB0020FF1CC0933021F41B
:101A60008091EB00806214C09091EB0090619093A4
:101A7000EB0021E030E0A90102C0440F551F8A9518
:101A8000E2F74093EA001092EA008091EB00886050
:101A90008093EB001092E9008091E800877F8093AB
:101AA000E8000E943B0B5BC1811159C11091A90153
:101AB0001F778091E3008078812B8093E3008091F1
:101AC000E800877F8093E8000E943B0B8091E8004C
:101AD00080FFFCCF8091E30080688093E3001111C8
:101AE00002C082E001C083E08093A50138C1805824
:101AF000823008F034C12091A9013091AA012C3D17
:101B000053E0350779F583E08A838AE289834FB70A
:101B1000F894DE01139620E03EE051E2E32FF0E07E
:101B200050935700E49120FF03C0E295EF703F5FB0
:101B3000EF708E2F90E0EA3010F0C79601C0C0968B
:101B40008D939D932F5F243149F74FBF8091E8001B
:101B5000877F8093E8006AE270E0CE0101960E94E0
:101B60008F0BB4C08091AB019091AC01432F5527EE
:101B700043305105A9F068F44130510509F4FEC025
:101B80004230510509F0EBC08BE590E0E2EEF2E067
:101B90004BC04132510529F14232510589F1DFC074
:101BA000C901992781309105A1F058F0029709F0F9
:101BB000D6C0EFE4F3E0E4918E2F90E0EFE4F3E0A1
:101BC00030C0EDE6F3E0E4918E2F90E0EDE6F3E037
:101BD00028C0EFE5F3E0E4918E2F90E0EFE5F3E02D
:101BE00020C08330910508F0BAC0880F991FFC010E
:101BF000EC5EFE4F0190F081E02D89E090E014C092
:101C00008330910508F0ABC0FC01EE0FFF1FE25FCF
:101C1000FE4F0190F081E02DDC01A55FBE4F8C915D
:101C200090E0009709F49BC02091E800277F209363
:101C3000E8002091AD013091AE012817390708F472
:101C4000C90140E0009789F12091A501222309F400
:101C50003DC02530D9F12091E80023FD37C0209107
:101C6000E80022FD2FC02091E80020FFEBCF40913B
:101C7000F3002091F20030E0342B009759F0283027
:101C8000310540F444914093F100319601972F5F64
:101C90003F4FF3CF41E02830310509F040E020917B
:101CA000E8002E772093E800CDCF4111CDCF0AC0B8
:101CB0008091A501882351F0853041F08091E800A2
:101CC00083FD04C08091E80082FFF2CF8091E8009C
:101CD0008B778093E80043C0803809F040C0809142
:101CE000E800877F8093E8008091A6018093F1004F
:101CF0008091E8008E77D3CE811131C08091A90107
:101D00009091AA019927029754F58091E800877F66
:101D10008093E8001091A9011093A6010E943B0B4B
:101D2000111106C08091E30087FD02C081E001C06F
:101D300084E08093A50142E061EC81E00E945A0BAF
:101D400042E261EC84E00E945A0B42E261EC82E0E4
:101D50000E945A0B42E260EC83E00E945A0B809191
:101D6000E80083FF10C08091E800877F8093E8003F
:101D70008091EB0080628093EB0005C082E190E0EF
:101D8000EDE3F3E051CFAA960FB6F894DEBF0FBE95
:101D9000CDBFDF91CF911F9108951F920F920FB683
:101DA0000F9211242F933F934F935F936F937F93E1
:101DB0008F939F93AF93BF93CF93DF93EF93FF9353
:101DC000C091E900CF708091EC00D82FD17080FDD8
:101DD000D0E81092E9008091F000877F8093F000B6
:101DE00078940E94FB0B1092E9008091F0008860CB
:101DF0008093F000CD2BCF70C093E900FF91EF915D
:101E0000DF91CF91BF91AF919F918F917F916F9112
:101E10005F914F913F912F910F900FBE0F901F90A8
:101E20001895E8EDF0E080818E7F80831092E200CB
:101E30001092DA001092E100A0EEB0E08C91816087
:101E40008C9380818F77808319BCA7EDB0E08C9153
:101E50008E7F8C9380818F7E808310928001089585
:101E6000CF92DF92EF92FF920F931F93CF93DF9366
:101E7000C8EDD0E088818F7E8883E7EDF0E0808137
:101E80008160808384E082BF81E0809380018881CB
:101E90008E7F888302EE10E0F80110821092DA0043
:101EA00081EEC82ED12CF601108288818F7788832D
:101EB00088818068888388818F7D888319BC10928F
:101EC000A5011092A6011092A4011092A30190EE18
:101ED000E92EF12CF70180818B7F808388818160DE
:101EE000888342E060E080E00E945A0BF601808126
:101EF0008E7F8083F801808181608083808188600B
:101F00008083F70180818E7F8083888180618883D0
:101F1000DF91CF911F910F91FF90EF90DF90CF90C5
:101F200008951F920F920FB60F9211242F933F9393
:101F30004F935F936F937F938F939F93AF93BF93D1
:101F4000EF93FF938091E10082FF09C08091E2004E
:101F500082FF05C08091E1008B7F8093E10080913A
:101F6000DA0080FF2AC08091D80080FF26C08091CF
:101F7000DA008E7F8093DA008091D90080FF18C04C
:101F800080E189BD82E189BD09B400FEFDCF81E019
:101F90008093A5018091800181110FC00E94110FD3
:101FA0000E94300F8091E20084608093E20005C0BF
:101FB00019BC1092A501109280018091E10080FF70
:101FC00017C08091E20080FF13C08091E2008E7FF5
:101FD0008093E2008091E20080618093E200809132
:101FE000D80080628093D80019BC85E08093A50159
:101FF0008091E10084FF2EC08091E20084FF2AC01E
:1020000080E189BD82E189BD09B400FEFDCF8091E8
:10201000D8008F7D8093D8008091E1008F7E8093DF
:10202000E1008091E2008F7E8093E2008091E200E7
:1020300081608093E2008091A601882311F084E002
:1020400007C08091E30087FD02C081E001C083E00A
:102050008093A5018091E10083FF27C08091E20079
:1020600083FF23C08091E100877F8093E10082E0BD
:102070008093A5011092A6018091E1008E7F80934C
:10208000E1008091E2008E7F8093E2008091E20087
:1020900080618093E20042E060E080E00E945A0BA1
:1020A0008091F00088608093F000FF91EF91BF91E4
:1020B000AF919F918F917F916F915F914F913F91E0
:1020C0002F910F900FBE0F901F9018952091E40054
:1020D0003091E50095E64091EC00842F817040FF3F
:1020E00023C08091E80080FD1DC08091A501882358
:1020F00099F0853099F08091EB0085FD11C04091F9
:10210000E4005091E5002417350729F3915011F0B0
:102110009A01E1CF84E0089582E0089583E0089574
:1021200081E0089580E008954091E80042FFDDCF0E
:102130000895EF92FF920F931F93CF93DF937C014B
:102140008B010E946610811119C0E701011511056C
:10215000A1F08091E80085FD0AC08091E8008E77AB
:102160008093E8000E946610882381F307C089915C
:102170008093F10001501109E9CF80E0DF91CF9108
:102180001F910F91FF90EF9008959091A5019430C9
:1021900029F580937D0170937F0160937E01909378
:1021A000E9008FEF9091E800815095FD06C095ED14
:1021B0009A95F1F700008111F5CF8091E80085FF35
:1021C0000DC040E050E063E070E08DE791E00E94D8
:1021D00099108091E8008E778093E8000895BC0103
:1021E00084E00C94C510BC0183E00C94C51024E07D
:1021F0002093E9002FEF3091E800215035FD06C013
:1022000035ED3A95F1F700002111F5CF2091E80066
:1022100025FF0BC040E050E066E070E00E9499109E
:102220008091E8008E778093E8000895CF93DF9344
:1022300020910001222339F020917B0127FF03C068
:1022400060E224E002C068E021E02093E9002FEF83
:102250003091E800215035FD06C035ED3A95F1F793
:1022600000002111F5CF2091E80025FF1DC0EC01F1
:1022700080910001811105C040E050E068E070E00D
:1022800003C070E040E050E0CE010E9499108091C0
:10229000E8008E778093E80080E2FE01A3E8B1E0D9
:1022A00001900D928A95E1F7DF91CF91089587E72C
:1022B00097E790930108809300089AE088E10FB6B1
:1022C000F894A895809360000FBE90936000FFCFB4
:1022D00078941F920F920FB60F9211248F939F93B1
:1022E000AF93BF938091770190917801A09179018C
:1022F000B0917A010196A11DB11D80937701909351
:102300007801A0937901B0937A01BF91AF919F9129
:102310008F910F900FBE0F901F9018959C014FB793
:10232000F8948091770190917801A0917901B09112
:102330007A014FBF821B930B08952FB7F8948091B9
:10234000770190917801A0917901B0917A012FBF26
:10235000089580E0089590917B0192FF0DC0282F91
:102360002871283019F4877F846006C0282F2471D3
:10237000243011F48B7F886093FF0DC0282F2871C3
:10238000283119F4877E846106C0282F24712431F6
:1023900011F48B7E886120917C0120FF0DC0382FC5
:1023A0003871383019F4877F816006C0382F317159
:1023B000313011F48E7F886021FF0DC0282F2871E5
:1023C000283119F4877E816106C0282F21712131BF
:1023D00011F48E7E886194FD877E0895F894E82F2D
:1023E000E295EF70F0E031A1282F2F7081E090E0AE
:1023F00001C0880F2A95EAF7982F9095932391A30F
:1024000092A1892B82A3789408956F927F928F92E4
:102410009F92AF92BF92CF92DF92EF92FF920F9373
:102420001F93CF93DF93CDB7DEB728970FB6F894FD
:10243000DEBF0FBECDBF8E010F5F1F4F88E0D801FA
:102440001D928A95E9F79BE4C92E91E0D92EE12CE3
:10245000F12CAA24A394B12C4E01B9E08B0E911C4F
:10246000F60180818F3F09F44EC0F894E82FE29581
:10247000EF70F0E021A18F70A50102C0440F551F3D
:102480008A95E2F7CA01922F982B91A392A1809589
:10249000892382A3789400C0C5010E2C01C0880F47
:1024A0000A94EAF7482F582F509583E5682E81E06B
:1024B000782EF801D3018D913D018F3FA1F0282F97
:1024C00022952F7030E0D90190962C9130E08F70DA
:1024D000B90102C0759567958A95E2F760FD03C062
:1024E0008081842B02C080818523808331968E1663
:1024F0009F0601F7D6018C918F3F11F00E94EE11DB
:10250000B0EABA95F1F7EFEFEE1AFE0AFFEFCF1A35
:10251000DF0A48E0E416F10409F0A2CF48E050E0F9
:10252000B80181E192E00E94391FFF24F3940097E3
:1025300009F4F12C892B89F088E0F801A1E1B2E0DF
:1025400001900D928A95E1F781E0809310020E943C
:102550009D1190930F0280930E02809110028823A8
:10256000A1F080910E0290910F020E948E110597AA
:1025700060F0E1E1F2E0A3E2B2E081918D9352E0FC
:10258000E931F507D1F7109210028F2D28960FB67A
:10259000F894DEBF0FBECDBFDF91CF911F910F9199
:1025A000FF90EF90DF90CF90BF90AF909F908F9073
:1025B0007F906F900895CF93DF938238910569F1F2
:1025C000B0F48133910509F46FC048F48932910564
:1025D00009F465C08A32910509F46BC08AC085335D
:1025E000910509F457C089339105B9F082C0833E43
:1025F000910571F138F4803E9105B1F0823E91056C
:1026000011F177C0863E9105B9F1873E9105C9F178
:10261000843E910509F06DC024C020917B0120FD0E
:1026200053C021FD51C065C080917B0180FD46C033
:1026300080917C0180FF48C080917B0184FD50C166
:1026400083EE90E04FC180917B0182FF3AC0F4CFCE
:1026500080917B0182FD35C080917C0180FD34C07A
:10266000EBCF80917C0181FF35C080917B0184FD9F
:1026700037C187EE90E036C180917B0183FF27C090
:10268000F4CF80917B0183FD22C080917C0181FD8C
:1026900021C0EBCF80917B0185FD1FC021C08091BF
:1026A0007B0185FD1DC019C080917B0186FD1BC08B
:1026B0001DC080917B0186FD19C015C089E390E0A3
:1026C00011C182EE90E00EC180EE90E00BC186EE6B
:1026D00090E008C184EE90E005C189E290E002C17B
:1026E00085E390E0FFC08AE290E0FCC081E390E0E7
:1026F000F9C0811531E5930708F069C0811540E5FF
:102700009407F0F09C0174E0369527957A95E1F7EF
:10271000922F9370482F437021E030E002C0220FC7
:10272000331F4A95E2F73C68392B982F9F70969596
:10273000969540E2949FC0011124822B932BD2C026
:10274000883E910568F5803E910508F0CBC0883A37
:102750009105B8F4853A910548F0855AE82FF0E0E4
:10276000E65EFE4F808190E09064BCC081309105B0
:1027700009F4B3C008F4B4C08430910508F4B0C0C3
:10278000B1C08F3B910508F0ABC0885AE82FF0E04C
:10279000EE0FFF1FE35EFE4F808191819464A2C023
:1027A000811520E2920758F4811531E0930708F073
:1027B00099C0803F910508F493C0906593C081153E
:1027C00040E4940708F48CC09F70906A8BC0811518
:1027D00025E5920708F042C0811534E5930728F0FB
:1027E000982F8827846F906A7DC0811543E59407F0
:1027F000B0F09C012370332741E050E002C0440F49
:10280000551F2A95E2F7282F2695269580E2289FC6
:1028100090011124CA01822B932B9A6863C0811501
:1028200022E5920728F4982F8827816F906A5AC072
:102830009C012370332741E050E002C0440F551F34
:102840002A95E2F7282F2695269580E2289F900169
:102850001124CA01822B932B9C6844C0EC01811582
:1028600039E59307A8F48115984528F09C2F88270F
:10287000806F906A37C0C11586E5D80788F58C2F20
:102880000E94AB118F7190E0982F882790622AC028
:1028900081152AE5920790F48C2F8F700E94AB115E
:1028A00094E0D695C7959A95E1F7CF70D0E0DC2FEC
:1028B000CC27D0699E01282BC90114C090568115E0
:1028C000904270F48D2F8F710E94AB11282F2F71C1
:1028D000CE0199279062922B05C081E090E002C062
:1028E00080E090E0DF91CF910895CF9384E090E075
:1028F0000E94C21EC82F82E290E00E94C21E2C2FAE
:1029000030E0A901582BCA01CF91089569EE7EEFFE
:1029100080E090E00E94EE1E60E082E090E00E9485
:10292000D01E60E083E090E00E94D01E10920D0265
:1029300060E084E090E00E94D01E60E082E290E0DF
:102940000E94D01E60E085E090E00E94D01E60E012
:1029500086E090E00E94D01E6FEF87E090E00E943A
:10296000D01E40E050E0BA0188E090E00E94E21EF4
:1029700060E08DE090E00E94D01E40E050E0BA019F
:1029800088E190E00E94E21E60E087E190E00E9412
:10299000D01E40E050E0BA018CE190E00E94E21EBF
:1029A00060E070E080E290E00E94EE1E40E050E0C7
:1029B000BA0188E190E00E94E21E80E00E943E1D84
:1029C0000E945C1D40E050E0BA018FE090E00E9460
:1029D000E21E40E050E0BA0183E190E00C94E21E78
:1029E00080910C02811110920C02089590910B02BB
:1029F00080910A02892B20910902982F922B9093A3
:102A0000B00180910C028823D9F0892B8093B0010A
:102A100080910001882331F080917B0187FF02C003
:102A20008EE101C086E0E2EBF1E090E0815028F019
:102A300021912223D9F39F5FF9CF91110E94F014C5
:102A4000E0913D02F0913E023097A9F080910001A3
:102A5000882359F080917B0187FF07C08091B001E6
:102A60008093B10185E08093B0010280F381E02D75
:102A700080EB91E009940895CF93C0917C01C2FB53
:102A8000992790F9981781F080FBC2F9C0937C01D7
:102A900060917B0184E090E00E94D01E6C2F82E266
:102AA00090E0CF910C94D01ECF9108952091080210
:102AB0008095822380930802982F977041F430E02C
:102AC000482F082E000C550B2417350721F4909140
:102AD0007C0192FF07C08595859585950E945A04D3
:102AE000109208020895809107029091D6018917EB
:102AF00019F08F5F8770FBCF08950F931F93CF93CB
:102B0000DF938091D50182958F7009F05DC080912F
:102B1000D201882309F458C0809107021091D60190
:102B20006091D0017091D101C091D301D091D401B5
:102B300091E06F3F09F090E0292F06E0811709F43A
:102B400043C0209721F07F3F21F030E003C031E007
:102B500001C0322F90E030FD34C0089FF001099F82
:102B6000F00D1124DF01A952BE4F11963C9111972F
:102B7000371327C03C91361324C012963C9112970C
:102B800031111FC013964D915C9114974C1B5D0B36
:102B9000483C5105B0F48091D5018F7080618093DD
:102BA000D501E452FE4F80818F708061808380ED7B
:102BB00091E00E949105DF91CF911F910F910C94AC
:102BC000731501968770BACFDF91CF911F910F9146
:102BD0000895CF93DF93EC010E942704BE010E9469
:102BE000311D0E94DB12DF91CF9108959F92AF9229
:102BF000BF92CF92DF92EF92FF920F931F93CF93EA
:102C0000DF93CDB7DEB761970FB6F894DEBF0FBE86
:102C1000CDBF8C0185E0F801DE011D9601900D927B
:102C20008A95E1F7F801E2809091D0016091D1019D
:102C30004091D3015091D4014115510531F06F3FBE
:102C400031F481E09F3F19F403C081E001C080E0CE
:102C5000F82FF1709F2E80FD1AC1F801308121817B
:102C6000C380D48080EDA82E81E0B82EF090D201F0
:102C7000F601E41BF50BFF2009F4C6C08091D501D5
:102C8000E83CF10508F091C0482F407F09F050C0A2
:102C9000621311C093130FC0FE2CE1100CC08F7093
:102CA00080618093D501C5010E9491058091D50175
:102CB000F801858329C1CD2831F02F3F31F481E01F
:102CC0003F3F19F403C081E001C080E080FD03C0F4
:102CD00081E08E2502C080E090E0F82FF170FF2E99
:102CE00080FF1CC0809107024091D60156E08417F6
:102CF00009F4E8C090E0589FF001599FF00D1124AD
:102D0000E952FE4F6181261306C06081631303C040
:102D10006281E61203C001968770E9CFFE2CEE2097
:102D200009F4F2C08091D50181608093D50149C03A
:102D3000621306C0931304C0E11002C0F80186C0FC
:102D4000C8010E947504882351F1EE2041F12091C1
:102D5000D501822F82958F7090E0029774F0809158
:102D6000D0019091D10198878F831986DB86CA861E
:102D70002C87CE0107960E94910586E0F801A0ED10
:102D8000B1E001900D928A95E1F70E947D150AC08D
:102D90006217C9F0C8010E94750481111EC0C801E4
:102DA0000E949105FF24F394AFC0482F407F81F724
:102DB00080ED91E00E94910586E0F50111928A95DF
:102DC000E9F7F12CA1C09313E5CFE110E3CFF801AF
:102DD0008583C8010E94910554C0EE2001F3209123
:102DE000D501822F82958F7090E0029734F2809106
:102DF000D0019091D1019A8389831B82DD82CC829C
:102E00002E83CE010196B7CFE83CF105D0F5FE2C1C
:102E1000EE2029F2621327C0931325C02091D5011B
:102E200020FD18C0822F82958F70482F50E04115E9
:102E3000510581F0F80125834F30510541F08F5F36
:102E4000982F9295907F822F8F70892B8583C80150
:102E50000E94910586E0F801A0EDB1E001900D928D
:102E60008A95E1F751C0C8010E947504811185CF90
:102E70008091D50181608093D501C8010E949105A0
:102E800043C086E0F50111928A95E9F73DC0EE2036
:102E900009F485CFC8010E947504F82E882309F42F
:102EA0007ECF86E0F801A0EDB1E001900D928A9509
:102EB000E1F78091D0019091D1010E94E9150E9423
:102EC0007D1522C03D872E878D859E850E94E91540
:102ED000292F22952F70223028F49F7039F081110C
:102EE00005C00BC0243028F49F7049F4805E883000
:102EF00020F0C8010E9491059F2CF92C05C0F80113
:102F00009581907F99F7F9CF8F2D61960FB6F89440
:102F1000DEBF0FBECDBFDF91CF911F910F91FF900C
:102F2000EF90DF90CF90BF90AF909F900895CF9398
:102F3000DF93CDB7DEB7AA970FB6F894DEBF0FBE0A
:102F4000CDBF84B7877F84BF0FB6F894A8958091D2
:102F50006000886180936000109260000FBE90E076
:102F600080E80FB6F89480936100909361000FBEE3
:102F700085B7806885BF85B7806885BF89EA91E19C
:102F800090935D0180935C010E94110F0E94300FAD
:102F90008091E20084608093E20078948091A501A2
:102FA0008823A1F01091E9001F709091EC00892F07
:102FB000817090FD80E8182B1092E9008091E80064
:102FC00083FD0E94FB0B1F701093E90082E084BD1B
:102FD00093E095BD9AEF97BD80936E000E946B1DA4
:102FE000811102C00E945C1D0BE411E073E5E72E25
:102FF00071E0F72EF80181918F018F3F11F00E944F
:10300000EE11E016F106B1F703E511E06BE5E62EEF
:1030100061E0F62EF80181918F018F3F11F00E943F
:10302000EE11E016F106B1F7E1E1F2E0A3E2B2E061
:1030300011921D9222E0E931F207D1F780E090E091
:103040000E94CA1E893E9E4F21F40E946B1D811171
:1030500002C00E94861482E090E00E94C21E80930B
:103060001A020E94751490937C0180937B010E9448
:1030700005128FE39CE90197F1F700C000000E9460
:1030800005128091230280FF08C06FEF7FEF80E080
:1030900090E00E94EE1E0E94571183E090E00E9493
:1030A000C21E0E94710481E091E090933E028093E1
:1030B0003D0298E1692E712C20E4222E30E1332E5E
:1030C00042E1442E50E1552E8E010F5F1F4F6E01DD
:1030D0009BE0C90ED11C8091A501853009F03EC04E
:1030E0008091A501853009F035C08091A50184301B
:1030F00009F1109241020FB6F894A8956092600011
:103100000FBE2092600083B7817F846083BF83B746
:10311000816083BF7894889583B78E7F83BF0FB615
:10312000F894A89580916000886180936000109267
:1031300060000FBE8091A401882391F20E940512C5
:10314000E3E2F2E081918111AAC222E0EB32F207C0
:10315000C9F7C6CF0E94A1040E942A1C0E94051232
:10316000882359F08FB7F8944091770150917801F6
:103170006091790170917A018FBFABE1B2E0E3E237
:10318000F2E0E12CF12C3E2D21919D91922721F12D
:1031900080E0BB24B394492F4B21D1F089A33AA3FB
:1031A0002B2181E009F480E08BA30E949D118160B6
:1031B000782F9DA38CA349A15AA16BA18DA10E9438
:1031C000E904F701E55EFD4F8081B826B0821BC09F
:1031D0008F5FBB0C8830F9F63FEFE31AF30A48E043
:1031E000E416F10481F68FEF8EA38FA318A60E9438
:1031F0009D118160782F9AA789A74EA15FA168A52C
:103200008AA50E94E90486E0E2E3F2E0D801019099
:103210000D928A95E1F7A0903402B0903502E090CB
:103220003602F0903702109234021092350210925A
:10323000360210923702A11003C0BB2009F451C01E
:1032400080913002909131020E948E119C019091E8
:103250002C02992309F442C22333310508F441C0FA
:103260009F3F19F09F5F90932C02AA2061F00E946B
:10327000471E1A1414F491E001C09FEF899F802D1E
:10328000112480933402BB2061F00E94471E1B145E
:1032900014F491E001C09FEF899F802D1124809349
:1032A0003502309134023323E1F02091350222239C
:1032B000C1F045EB3403C0011124992319F0909318
:1032C000340203C081E08093340235EB2303C00154
:1032D0001124992319F09093350203C081E0809363
:1032E0003502E11003C0FF2009F451C080912E0285
:1032F00090912F020E948E119C0190912B02992394
:1033000009F4F1C12536310508F441C09F3F19F099
:103310009F5F90932B02EE2061F00E94251E1E14E9
:1033200014F491E001C09FEF899F802D11248093B8
:103330003602FF2061F00E94251E1F1414F491E054
:1033400001C09FEF899F802D112480933702309117
:1033500036023323E1F0209137022223C1F045EBFE
:103360003403C0011124992319F09093360203C04D
:1033700081E08093360235EB2303C00111249923A9
:1033800019F09093370203C081E080933702809157
:10339000340281110BC080913502811107C08091E8
:1033A0003602811103C08091370281110E94841D71
:1033B000AB82BC82ED82FE8286E0F801A2E3B2E03D
:1033C00001900D928A95E1F70E942A1C90911902B2
:1033D000891721F00E942A1C809319028091A5016F
:1033E000843009F078CE83E08093E9008091E80092
:1033F00082FF71CE8091E80085FF21C00E94661097
:1034000081111BC080E2A82EB12C780109C08091E7
:10341000F100F70181937F01F1E0AF1AB10869F083
:103420008091E80085FDF3CF8091E8008B77809351
:10343000E8000E946610882399F391E001C090E0B3
:103440008091E8008B778093E800992309F443CEBC
:10345000E9818E2F90E0FC013197E331F10508F00E
:10346000F4C0E658FF4F0C94181F1A8289E05DC023
:103470008A81823009F429C1833089F0813009F0D2
:10348000E4C02FB7F8948091770190917801A091D2
:103490007901B0917A012FBFBB83AC831CC0FE01C0
:1034A0003396A3E2B2E08D918193CE16DF06D9F771
:1034B000CEC08A81823009F0C8C06B817C818D8149
:1034C0009E810E941E1F86E290E024C04C816B8189
:1034D0008A810E940B1D9D83FFC0ED80FE80FE242B
:1034E000EF24FE248C81AB809A8120E1A29E5001C2
:1034F000112430E8939FA00CB11C1124A80EB11C1C
:10350000A80EB11C6F2DC50187960E94D01E6E2D8E
:10351000C50188960E94D01E9AC00E94B91C97C00F
:103520005A8295C081E08A8389ED8B8390C0EA80BE
:10353000FB80FE24EF24FE248C80912C5801C701CF
:10354000895D9D4F9501201B310B2815390508F029
:103550007EC049EDE41641E0F40628F40E94C21E44
:10356000F501848302C0F5011482FFEFEF1AFF0A10
:103570002FEFA21AB20AE3CFEA80FB80FE24EF24E9
:10358000FE248C80912C5801C701895D9D4F9501C7
:10359000201B310B2815390508F059C039EDE31609
:1035A00031E0F30620F4F50164810E94D01EFFEFA4
:1035B000EF1AFF0A2FEFA21AB20AE6CF0E94A91C47
:1035C00046C084E08A8343C0EA80FB80FE24EF2467
:1035D000FE248C80912C5801C70187969501201BF1
:1035E000310B2815390598F5E11432E0F30628F47B
:1035F0000E94C21EF501848302C0F5011482FFEF10
:10360000EF1AFF0A2FEFA21AB20AE6CFEA80FB8078
:10361000FE24EF24FE248C80912C5801C70187964C
:103620009501201B310B2815390588F4E11432E08F
:10363000F30620F4F50164810E94D01EFFEFEF1A1B
:10364000FF0A2FEFA21AB20AE9CF8FEF8983809188
:10365000A501843009F03FCD8091E9008F70209161
:10366000EC00922F917020FD90E8F92EF82A82E06C
:103670008093E9008091E80080FF0CC040E050E0BA
:1036800060E270E0C8010E9499108091E8008E7796
:103690008093E8008F2D8F708093E9001CCD39BC9A
:1036A00049BC09B400FEFDCF8091D8008F7D809386
:1036B000D8008091E00082608093E0008091E0007B
:1036C00081FDFCCF0E94A1040BCD86E290E00E9418
:1036D000C21E1B821C821D828E83B9CF2D323140C7
:1036E00008F0C0CDFECD2D32314008F011CE4FCEC6
:1036F0001F920F920FB60F9211248F939F93AF9347
:10370000BF9380914102811113C080917701909104
:103710007801A0917901B0917A014196A11DB11D66
:103720008093770190937801A0937901B0937A0107
:10373000BF91AF919F918F910F900FBE0F901F90EF
:103740001895209100012223C9F020917B0127FFC9
:1037500015C0262F2695269526952E31C8F4FC01F6
:10376000E20FF11D677081E090E001C0880F6A955B
:10377000EAF780959281892382830895FC01069659
:103780002281621301C012823196E817F907C1F74E
:103790000895209100012223C1F020917B0127FF91
:1037A00014C0262F2695269526952E3130F5FC013E
:1037B000E20FF11D677081E090E001C0880F6A950B
:1037C000EAF79281892B82830895FC0132962FEFCC
:1037D00030E04191641789F02F3F19F4411101C085
:1037E000232F3F5F3630A9F72F3F39F0FC01E20F5E
:1037F000F11D27FDFA9562830895089520913F02F7
:10380000309140022817390771F09093400280935D
:103810003F02E0913D02F0913E02309721F000849A
:10382000F185E02D0994089520913B0230913C02EE
:103830002817390771F090933C0280933B02E09186
:103840003D02F0913E02309721F00680F781E02D95
:1038500009940895E0913D02F0913E02309721F0E5
:103860000190F081E02D099480E008950F931F935B
:10387000CF93DF93C42FD22FFC0182818823C9F01C
:1038800040933A020E949D1190933902809338022E
:1038900080E28C0F883008F057C0C77081E001C00B
:1038A000880FCA95EAF7DF91CF911F910F910C9481
:1038B000C10480913A02481330C08091380290913F
:1038C00039020E948E11883C910538F510E21D0FD7
:1038D000CD17B9F080E28C0F883040F4C77081E0DA
:1038E00001C0880FCA95EAF70E94B604183028F57F
:1038F00081E09D2F977001C0880F9A95EAF70E948A
:10390000C104802F0E94CB041830F0F4D77081E0FE
:1039100001C0880FDA95EAF70AC080E28C0F883080
:1039200098F4C77081E001C0880FCA95EAF7DF916B
:10393000CF911F910F910C94B604802FDF91CF91FE
:103940001F910F910C94CB04DF91CF911F910F9198
:103950000895CF93DF93C7E2D2E060E0CE010E94EA
:10396000D01E2196C11584E0D807B9F7DF91CF9119
:1039700008956F927F928F929F92AF92BF92CF9253
:10398000DF92EF92FF920F931F93CF93DF93C0E0EC
:10399000D0E000E010E03E0187E2680E711C630198
:1039A000C00ED11EE12CF12C4E01800E911EF401AF
:1039B000EE0DFF1DEF58FC4FA590B4906B2DC60186
:1039C0000E94D01E6A2DC60101960E94D01E82E080
:1039D000E80EF11C82E0C80ED11C80E1E816F1046B
:1039E00031F7005F1F4F00381105C9F6C058DF4F8F
:1039F000C11582E0D80769F6DF91CF911F910F9131
:103A0000FF90EF90DF90CF90BF90AF909F908F90FE
:103A10007F906F9008950F931F93CF93DF93C42FE0
:103A2000D0E0CC0FDD1F20E1629FC00DD11D11241D
:103A300030E8839FC00DD11D1124CE0187960E94CE
:103A4000C21E082F10E0102F0027CE0188960E947A
:103A5000C21E9801282BC901DF91CF911F910F91B0
:103A60000895462F843038F4783028F4683018F4FC
:103A7000672F0C940B1D80E090E00895CF93C82F22
:103A8000811102C06FEF01C061E283E290E00E9409
:103A9000D01EC11102C06FEF01C060E184E290E06E
:103AA0000E94D01EC11102C06FEF01C060E185E22B
:103AB00090E0CF910C94D01E80E00E943E1D60E00B
:103AC00086E290E00E94D01E0E94B91C0E94A91CB0
:103AD00081E00C943E1D83E290E00E94C21E813280
:103AE00081F484E290E00E94C21E803151F485E2AC
:103AF00090E00E94C21E91E0803109F090E0892F91
:103B000001C080E0817008950E949D1120913402CF
:103B1000211104C020913502222321F0909331021B
:103B20008093300220913602211104C02091370287
:103B3000222321F090932F0280932E02E0913D02E8
:103B4000F0913E02309749F082E080933202048087
:103B5000F581E02D82E392E009940895803F39F4E5
:103B60009091350297FF35C01092350259C0813FC0
:103B700029F4909135021916BCF32BC090913402B0
:103B8000823F29F497FF25C01092340249C0833F39
:103B900019F41916CCF31DC090913602893F29F40F
:103BA0001916BCF4109236023BC08A3F19F497FFF5
:103BB00010C0F8CF8B3F39F49091370297FF09C0BE
:103BC000109237022DC08C3F21F4909137021916C4
:103BD000BCF39CE0980F953080F421E030E0A9011F
:103BE00002C0440F551F9A95E2F7CA018095909143
:103BF000330289238093330213C08D3F21F48091D7
:103C00002D028E7F0BC08E3F21F480912D028D7F7F
:103C100005C08F3F29F480912D028B7F80932D0268
:103C200080913402811106C080913502811102C059
:103C300010922C0280913602811106C080913702C9
:103C4000811102C010922B02089580912D0280FDF7
:103C500016C081FD16C082FD18C080912B028823FA
:103C600091F0883290F428E0829FC001112468E22C
:103C700070E00E94041F862F672B29F007C082E0A6
:103C8000089584E0089581E0089588E00895809182
:103C90002D0280FD14C081FD14C082FD16C08091EC
:103CA0002C02882381F0843180F422E3829FC001BA
:103CB000112464E170E00E94041F862F08958CE0B7
:103CC000089589E1089585E0089582E30895803F8D
:103CD00021F40E94471E819504C0813F29F40E946F
:103CE000471E809335020895823F21F40E94471EAB
:103CF000819504C0833F29F40E94471E80933402BB
:103D00000895893F19F40E94251E05C08A3F31F4A9
:103D10000E94251E81958093360208958B3F21F4E1
:103D20000E94251E819504C08C3F29F40E94251E07
:103D30008093370208959CE0980F953078F421E045
:103D400030E0A90102C0440F551F9A95E2F7CA015D
:103D500090913302892B8093330208958D3F21F493
:103D600080912D0281600BC08E3F21F480912D0245
:103D7000826005C08F3F29F480912D02846080937A
:103D80002D020895F999FECF92BD81BDF89A992729
:103D900080B50895A8E1B0E042E050E00C94F61E32
:103DA000262FF999FECF92BD81BDF89A019700B4F4
:103DB000021639F01FBA20BD0FB6F894FA9AF99A94
:103DC0000FBE08950396272F0E94D11E0E94D01E79
:103DD000252F0E94D11E242F0C94D11E0196272F2F
:103DE0000E94D11E0C94D01EDC01CB01FC01F9997C
:103DF000FECF06C0F2BDE1BDF89A319600B40D9237
:103E000041505040B8F7089597FB072E16F40094E0
:103E100007D077FD09D00E94251F07FC05D03EF48E
:103E2000909581959F4F0895709561957F4F089566
:103E3000EE0FFF1F0590F491E02D09946927962756
:103E400069277827872778270895AA1BBB1B51E18C
:103E500007C0AA1FBB1FA617B70710F0A61BB70BFA
:103E6000881F991F5A95A9F780959095BC01CD019F
:103E70000895FB01DC0104C08D910190801921F4AB
:103E800041505040C8F7881B990B0895F894FFCF14
:103E900001ED0B1611F710F310EF104022B6A2023D
:103EA0008002CA01F4020D032D03818283E200E93E
:103EB00000EA00B500B600B700CD008301CC008A4F
:103EC00001920194012102230224022502260227E5
:103ED000022A02B300B4006F00700036323331F7AB
:0C3EE000F6F5F49190946697C634350016
:00000001FF
