:100000000C941F060C9466060C9466060C94660607
:100010000C9466060C9466060C9466060C946606B0
:100020000C9466060C9466060C9474180C94B01725
:100030000C94AB200C9466060C9466060C94660631
:100040000C9466060C9466060C9466060C94660680
:100050000C9466060C946D200C9466060C9466064F
:100060000C9466060C9466060C9466060C94660660
:100070000C9466060C9466060C9466060C94660650
:100080000C9466060C9466060C9466060C94660640
:100090000C9466060C9466060C9466060C94660630
:1000A0000C9466060C9466060C9466066E0B6E0B3A
:1000B000A80BA80B010C1C0D1C0D1C0D1D0C910C8C
:1000C000A20CA20CBE15E5159217E5159217311674
:1000D000541692174A175A17331C361C581C651CA5
:1000E0006C1C8C1C2E1D2E1D2E1D2E1D2E1D8F1CBE
:1000F000911C961CBD1CE11CE41CE71C0C1D3E1E43
:100100003E1E511E511E471E511E511E511E3E1EA7
:100110003E1E4C1E511E511E4C1E7D236B238F23F1
:10012000F2223C243C2468233C243C24BC233C2471
:10013000D0231A243C243C243C243C24EE233C249D
:100140003C24EB233C24A8233C243C2436243624A2
:1001500036243624362436243624362436243824CD
:100160003C247D2360233C243C243C243C243C242C
:100170003C243C243C243C243C2438243C243C2483
:1001800068233C2434243424342434243424342474
:1001900034243424342438240000000000000000FB
:1001A000000000000000000000000000000000004F
:1001B0000000000000000000000000007E0F00D4DE
:1001C000FFFFFFC7000000780000000000000000F3
:1001D0002A2B2800000000000000000000000000A2
:1001E00000000029000000002C1E342021222434AD
:1001F0002627252E362D3738271E1F20212223247F
:1002000025263333362E37381F0405060708090A1A
:100210000B0C0D0E0F101112131415161718191AB6
:100220001B1C1D2F3130232D350405060708090A34
:100230000B0C0D0E0F101112131415161718191A96
:100240001B1C1D2F3130354C44454255473A206424
:10025000697361626C65642E0A0044454255473AF1
:1002600020656E61626C65642E0A004F6E6573686E
:100270006F743A206163746976653A2025640A00D8
:100280000A002530325820006B6579626F61726414
:100290005F7265706F72743A20000631FF0974A1B5
:1002A000010975150026FF00952075088102097661
:1002B000150026FF00952075089102C005010980F0
:1002C000A101850319012AB700150126B700950180
:1002D00075108100C0050C0901A101850419012ACE
:1002E000A002150126A002950175108100C005012C
:1002F0000906A1018505050719E029E71500250173
:100300009508750181020507190029EF15002501DF
:1003100095F07501810205081901290595057501FA
:100320009102950175039101C00660FF0961A10169
:100330000962150026FF00952075088102096315E2
:100340000026FF00952075089102C005010906A14D
:1003500001050719E029E7150025019508750181B8
:10036000029501750881010507190029FF1500266E
:10037000FF009506750881000508190129059505F6
:1003800075019102950175039101C05B435D005BAE
:10039000445D005B535D005B575D005B525D00098F
:1003A000027B00040100A0FA09040000010301011E
:1003B0000009211101000122400007058103080006
:1003C0000A090401000203000000092111010001D3
:1003D00022220007058203200001070503032000F5
:1003E00001090402000103000000092111010001BC
:1003F000226D000705840320000A0904030002039C
:1004000000000009211101000122220007058503D7
:100410002000010705050320000112010002000071
:1004200000080799665301000102000116035300FA
:100430006F0075007400680070006100770036007E
:100440003600000016037200700069006700750036
:100450007900390039003000370000000403090436
:100460004B6579626F6172642073746172742E0AD5
:10047000000A002530313662003A2000253032581B
:10048000000A722F63203031323334353637383931
:100490004142434445460A000A0025303258006B69
:1004A0006579626F6172645F7365745F6C65643AED
:1004B00020005B735D003F00433E20004C25640A32
:1004C000004C0023002A00170030000A0028000515
:1004D000005000E600290024004D001C0031000BF4
:1004E00000520011005100E4001E0025002B0018EE
:1004F0000039000D00E10010004F0000001F002631
:100500000014000C0004000E001D003600E0000086
:1005100000200027001A00120016000F001B0037F1
:1005200000E300000021002D000800130007003345
:1005300000060038002C00000022002E0015002FBD
:1005400000090034001900E500015100000100011C
:1005500000010001000100010001000100AC0001E8
:1005600000005C01000100010001000100A9000180
:1005700000AA0001000100010001000100010001CA
:100580000001000100AB00000001000100010001BA
:100590000001000100010001000100000001000154
:1005A0000001000100010001000100010001000044
:1005B0000001000100010001000100010001000133
:1005C00000AE000000010001000100010001000177
:1005D0000001000100010000000100010001000114
:1005E0000001000100010001000100010001000103
:1005F00000010001000100010001000100010001F3
:1006000000010001000100010001000100010001E2
:1006100000010000000100010001000100010001D3
:1006200000010001000100000001000100010001C3
:1006300000010001000100010001000000010001B3
:1006400000010001000100010001000100010000A3
:100650000001000100010001000100010001000192
:100660000001000000010001000100010001000183
:100670000001000100010001000100010001000172
:100680000001000100010001000100010001000162
:100690000001000100010001000100010001000053
:1006A0000001000100010001000100010001000142
:1006B0000001000000010001000100010001000133
:1006C0000001000100010000000100010001000123
:1006D0000001000100010001000100000001000113
:1006E0000001000100010001000100010001000003
:1006F000006164645F6B65795F6269743A2063616D
:100700006E2774206164643A20253032580A0064F0
:10071000656C5F6B65795F6269743A2063616E270F
:10072000742064656C3A20253032580A006B657974
:100730006D61705F636F6E6669672E7261773A20D4
:10074000253032580A2E737761705F636F6E747252
:100750006F6C5F636170736C6F636B3A2025750A11
:100760002E636170736C6F636B5F746F5F636F6E2A
:1007700074726F6C3A2025750A2E737761705F6C06
:1007800063746C5F6C6775693A2025750A2E737700
:1007900061705F7263746C5F726775693A2025756A
:1007A0000A2E737761705F6C616C745F6C6775693A
:1007B0003A2025750A2E737761705F72616C745FE1
:1007C000726775693A2025750A2E6E6F5F677569C5
:1007D0003A2025750A2E737761705F6772617665BE
:1007E0005F6573633A2025750A2E737761705F62C7
:1007F00061636B736C6173685F6261636B7370617B
:1008000063653A2025750A2E6E6B726F3A20257546
:100810000A0064656275675F636F6E6669672E7252
:1008200061773A20253032580A2E656E61626C6518
:100830003A2025750A2E6D61747269783A20257503
:100840000A2E6B6579626F6172643A2025750A2EF3
:100850006D6F7573653A2025750A006565636F6E67
:100860006669673A0A64656661756C745F6C617984
:1008700065723A2025750A000A092D204D616769C5
:1008800063202D0A443A094465627567204D6573FB
:100890007361676520546F67676C650A583A094D44
:1008A0006174726978204465627567204D6F646574
:1008B00020546F67676C65202D2053686F77206B1D
:1008C00065797072657373657320696E206D6174EC
:1008D00072697820677269640A4B3A094B657962DC
:1008E0006F61726420446562756720546F67676C3E
:1008F00065202D2053686F77206B65797072657362
:1009000073207265706F72740A4D3A09446562759E
:1009100067204D6F75736520546F67676C650A5665
:100920003A0956657273696F6E0A533A09537461D6
:100930007475730A433A094163746976617465207A
:10094000436F6E736F6C65204D6F64650A46312D81
:100950004631303A0953776974636820746F204CCC
:100960006179657220302D392028463130203D20B4
:100970004C30290A302D393A09537769746368205D
:10098000746F204C6179657220302D390A475241CD
:1009900056453A0953776974636820746F204C6137
:1009A00079657220302028616C7465726E6174659F
:1009B000290A423A094A756D7020746F20426F6FA0
:1009C000746C6F616465720A4553433A094A756DE8
:1009D0007020746F20426F6F746C6F616465722059
:1009E00028616C7465726E617465290A453A095014
:1009F00072696E7420454550524F4D205365747492
:100A0000696E67730A4253504143453A09436C6526
:100A1000617220454550524F4D0A4E3A094E4B5295
:100A20004F20546F67676C650A000A092D20436FD9
:100A30006E736F6C65202D0A4553432F713A09710F
:100A40007569740A000A092D2056657273696F6E04
:100A5000202D0A5649443A203078393930372872E7
:100A600070696775793939303729205049443A20FF
:100A700030783533363628536F7574687061773641
:100A80003629205645523A203078303030310A42EB
:100A900055494C443A2020284F637420313020328D
:100AA000303231290A4F5054494F4E533A204C5559
:100AB00046412045585452414B455920434F4E53CF
:100AC0004F4C4520434F4D4D414E44204E4B524FCD
:100AD000204C544F20343039360A4743433A2035AE
:100AE0002E342E30204156522D4C4942433A20326A
:100AF0002E302E30204156525F415243483A2061F9
:100B00007672350A000A092D2053746174757320BA
:100B10002D0A686F73745F6B6579626F6172645FD1
:100B20006C65647328293A20253032580A6B657940
:100B3000626F6172645F70726F746F636F6C3A2082
:100B4000253032580A6B6579626F6172645F69643F
:100B50006C653A20253032580A6B65796D61705F9B
:100B6000636F6E6669672E6E6B726F3A2025303246
:100B7000580A74696D65725F726561643332282941
:100B80003A202530386C580A003F004E4B524F3AFD
:100B9000206F66660A004E4B524F3A206F6E0A0075
:100BA0000A6D6F7573653A206F66660A000A6D6F8D
:100BB0007573653A206F6E0A000A6B6579626F6122
:100BC00072643A206F66660A000A6B6579626F612B
:100BD00072643A206F6E0A000A6D61747269783A25
:100BE000206F66660A000A6D61747269783A206F38
:100BF0006E0A000A64656275673A206F66660A00CD
:100C00000A64656275673A206F6E0A000A0A4A75BF
:100C10006D70696E6720746F20626F6F746C6F61A6
:100C20006465722E2E2E2000433E2000436C6561C9
:100C300072696E6720454550524F4D0A00001124DD
:100C40001FBECFEFDAE0DEBFCDBF04B603FE27C084
:100C50008091540290915502A0915602B091570292
:100C60008730904BA740B04BD1F4109254021092B1
:100C70005502109256021092570214BE84B7877F15
:100C800084BF0FB6F894A895809160008861809326
:100C90006000109260000FBEE0E0F8E3099511E0FB
:100CA000A0E0B1E0E8E6F9E402C005900D92A236BA
:100CB000B107D9F722E0A2E6B1E001C01D92A43548
:100CC000B207E1F70E94FC190C94B2240C940000C6
:100CD000FF93EF93E0916201F0916301309709F087
:100CE0000995EF91FF910895FC018591803011F0F5
:100CF000EFDFFBCF0895FF27E0E230E247FF0CC0B3
:100D0000419597FF09C0EDE26095709580959095AB
:100D1000611D711D811D911D27FF02C0219530E3CA
:100D200050E2AA27660F771F881F991FAA1FA417D2
:100D300010F0A41B63955A95A9F7AA3008F0A95F93
:100D4000A05DAF93F395611571058105910541F79C
:100D5000ED3211F4EF93F395F21718F43F93F395F6
:100D6000FBCF8F91B5DFFA95E1F70895E991F991FD
:100D70008591803021F0853219F0AADFF9CF0895EE
:100D800020E0E89455915532C1F3503311F4689442
:100D900055915A3348F4505390F3220F022E220FEC
:100DA000220F200D250FF4CF0EF4219589919991F2
:100DB000533619F3533729F1533559F1BC018827BC
:100DC0009927E8945C3621F489919991689455911A
:100DD000543639F446EF7EF077FF0DC08FEF9FEF6A
:100DE0000AC055374AE039F0583540E121F0523613
:100DF00042E009F00895FF93EF937DDFEF91FF91BB
:100E0000B7CFFF93EF93FC0181918030B9F360DF9E
:100E1000FBCFFF93EF9368DFF1CFDF93CF93CDB795
:100E2000DEB72596A3DFCF91DF9108951F93CF936F
:100E3000DF93CDB7DEB767970FB6F894DEBF0FBE6E
:100E4000CDBF4B8B5C8B6D8B7E8B8F8B611110922A
:100E5000BF0186E09E01235F3F4FD901E82F1D921D
:100E6000EA95E9F795E0FE017396D90101900D929C
:100E70009A95E1F79C894E895F897B897D879E875A
:100E80006F87598B488BF901DE01179601900D92FF
:100E90008A95E1F7CE0107960E940D1281113EC09E
:100EA00086E0FE013796DE01119601900D928A953B
:100EB000E1F7FF81E8856A857B856115710531F071
:100EC000EF3F31F481E0FF3F19F403C081E001C03E
:100ED00080E080FD23C020918B0130E0C9010196A4
:100EE000877099274091BC0150E08417950779F1EC
:100EF000F983EA837D836C8396E0929FD001939F70
:100F0000B00D1124A457BE4FFE01319601900D92F1
:100F10009A95E1F780938B010E948A1116E08091E7
:100F2000BC0190918B018917F9F0189FC001112421
:100F300084579E4F0E940D128823B1F08091BC010E
:100F400090E00196877099278093BC01E8CF0E94BA
:100F5000551E10928B011092BC01E5E8F1E086E08D
:100F6000DF011D928A95E9F767960FB6F894DEBF08
:100F70000FBECDBFDF91CF911F9108953F924F9249
:100F80005F926F927F928F929F92AF92BF92CF9219
:100F9000DF92EF92FF920F931F93CF93DF93CDB722
:100FA000DEB729970FB6F894DEBF0FBECDBFFC01A8
:100FB0008081918123813481232B31F09F3F31F453
:100FC00091E08F3F19F403C091E001C090E090FDE3
:100FD00070C57F0185E0DE01119601900D928A9522
:100FE000E1F7F701228189819A81222349F00E9449
:100FF000841D182F682F89819A810E94DF1D03C0EC
:101000000E94B31D182F69817A81812F0E9474225A
:101010008C01F7018281882309F4F2C098012251E2
:101020003F452031310508F019C18FEF93E00E9450
:101030004A248111EFC0025137E5832E32E0932E0E
:10104000002379F08114F4E09F0609F4E3C0C401A1
:101050000E944A24811101C001502FEF821A920A86
:10106000EFCF1E821F8218861986442443942AE0FB
:10107000322E84010F5F1F4FC4010E944A248E83C9
:101080001F82882309F4C6C09FEF980F933060F445
:101090008F834E8232E0830E911CC8010E944A2445
:1010A0008887811102C0B6C048018E010A5F1F4FB8
:1010B000F80120812223E9F2213009F04CC081811E
:1010C000813049F46801F2E0CF0ED11CF801828131
:1010D0000E94CF1F0AC0823051F46801F2E0CF0EA7
:1010E000D11CF80182810E94DB1E860186C08330FC
:1010F00049F46801F2E0CF0ED11CF80182810E9410
:101100007F1EF3CF843019F00F5F1F4F76C0F801B8
:1011100022810E5F1F4F80E090E030E020533109C4
:101120002A30310568F4389EA001399E500D1124F3
:10113000C901840F951F0F5F1F4FF8012081EDCF6C
:10114000009709F45AC0EFE9FFE03197F1F700C0CA
:1011500000000197F5CFE22FF0E0E853FE4F5490E6
:10116000822F86958695869590E0FC01E854FE4F87
:1011700064902770712C022E02C0759467940A94B3
:10118000E2F7F1E06F227724FC01E855FE4FA490CE
:10119000B12C022E02C0B594A7940A94E2F731E074
:1011A000A322BB24FC01E856FE4FC490D12C02C000
:1011B000D594C7942A95E2F781E0C822DD24611412
:1011C000710419F081EE0E94DB1EA114B10419F024
:1011D00086EE0E94DB1E852D0E94CF1FAB2819F0E2
:1011E00086EE0E947F1E672819F081EE0E947F1E06
:1011F000CD2819F08CE20E94CF1F0F5F1F4F58CFF0
:1012000000313FE5130709F04BC481E00E940E1E38
:101210000E94CC148091BD01877009F44AC4F70183
:101220008281882309F445C482E029960FB6F89498
:10123000DEBF0FBECDBFDF91CF911F910F91FF9009
:10124000EF90DF90CF90BF90AF909F908F907F9066
:101250006F905F904F903F900C946D110031FFE5BF
:101260001F0711F481E005C001312FE5120721F4B9
:1012700082E00E941A1ECCCF033FFCE51F0799F4C1
:1012800006E221EE40EE63EF7CE509C0073DECE5A8
:101290001E0711F506E221EE41EE67ED7CE5C70180
:1012A0000E948B21B7CF043F2CE5120708F03FC105
:1012B000083D3CE5130731F407E225EE45EE68ED05
:1012C0007CE5EDCF093D9CE5190701F708E221E037
:1012D00045EE69ED7CE5E3CF882309F45DC110920A
:1012E000410202309CE5190708F440C10631ECE5E3
:1012F0001E0730F0C8018A5F9C45099708F036C187
:101300000E943C1090934F0280934E020031FCE506
:101310001F0709F4C3C008F041C008303CE51307BB
:1013200009F49AC0F0F404309CE5190709F487C069
:1013300068F40230FCE51F0709F477C003301C4550
:1013400009F0E5C080914E02826076C006303CE52F
:10135000130709F46EC008F07BC080914E028860CC
:101360006BC00C309CE5190709F485C068F40A309D
:10137000FCE51F0709F474C008F079C00E94551EEF
:1013800080914E02806858C00E303CE5130709F486
:1013900076C008F07FC080914E028BC00B3F9CE569
:1013A000190709F44FC018F50331FCE51F0709F4CC
:1013B0007DC078F401313CE5130709F473C00231B4
:1013C0001C4509F0A4C00E94551E80914E028F77E3
:1013D00033C005319CE5190709F472C008F486C0D2
:1013E0000A3F1C4509F093C080914F023EC00F3F59
:1013F0002CE5120709F45FC058F40D3F8CE518077F
:1014000009F444C008F43FC080914F0282602DC0AF
:101410000130EDE51E0709F475C008F45DC0023027
:101420001D4509F074C060E06EC080914E0281607D
:1014300003C080914E02806180934E0268C080910B
:101440004E0211C080914F02826080934F025FC0B4
:1014500080914E028062F0CF80914E028064ECCF8A
:1014600080914E0288608460E7CF8160EECF8091EA
:101470004E028E7FE1CF80914E028D7FDDCF809135
:101480004E02877FD9CF80914F0218C080914F02C2
:101490008D7FDBCF80914E028F7ECECF80914E022A
:1014A0008F7DCACF80914E028F7BC6CF80914E0236
:1014B000877F8B7FC1CF80914F028D7F8E7FC5CF7D
:1014C00080914E0282FB222720F991E0922790FB27
:1014D00082F990FB83F9B0CF80914F02982F9095BD
:1014E00091708E7F892B90FB81F9AFCF0E94551EA2
:1014F00080914E0287FB222720F991E0922790FBF2
:1015000087F99ACF61E08EE090E00E9458246091C4
:101510004E0210914F0284E090E00E945824612F07
:1015200082E290E00E9458240E94551E73CE053F2F
:10153000FCE51F0731F406E221EE42EE65EF7CE5A3
:10154000AECE053F2CE5120730F407E225EE44EE5F
:1015500064EF7CE5A4CE063F3CE5130709F0BCCE62
:1015600007E225EE46EE66EF7CE599CE06318CE586
:10157000180719F58091C0018A7A91E009F490E08A
:1015800090936401882311F065E301C069E285E668
:1015900091E00E940D210EC006311C4509F056C095
:1015A00080916401882309F482C265E385E691E0B5
:1015B0000E94D4200E94BD102DCE0E3D3CE51307A5
:1015C000B9F140F401159CE5190789F001301C457B
:1015D000E1F03CC00B35FDE51F07A9F10C352DE509
:1015E000120749F10A351D4589F581E02DC00E9499
:1015F000551E8FEF94E3ECE081509040E040E1F71E
:1016000000C000000E945C2005CE80914802982F07
:101610009095917090FB80F980934802992319F07E
:101620008AE592E002C088E492E00E947406F2CD5E
:101630000E944D10EFCD80914F0282FB882780F9E8
:1016400091E0892701C080E00E944111F701828169
:1016500000811181882349F0C8010E94841DD82E81
:10166000682FC8010E94DF1D04C0C8010E94B31D7D
:10167000D82EB8018D2D0E9474220E94B30E8C01C9
:10168000982EF701B280A580A2949FE0A9228091B4
:10169000BD01877099F0BB2089F0812F807F803455
:1016A00021F080E2800F883048F082E00E946D11C6
:1016B0008091BD018770DD24D3948111D12CC12E7E
:1016C000C2948FE0C8228C2D90E08C30910508F0F8
:1016D000B3C1FC01EA5AFF4F0C949824812F807FFC
:1016E0001F70882311F01295107FBB20B9F01123D1
:1016F00009F48EC180E2800F883010F0911006C08E
:101700008091C001182B1093C00105C08091BF01CA
:10171000182B1093BF010E94BD107AC1802F0E9428
:101720007F1E112309F488C1005E1095083010F067
:10173000911006C08091C00118231093C00105C00C
:101740008091BF0118231093BF010E94BD1074C186
:10175000812F807F1F70803211F01295107F9920A9
:1017600021F0F1E09F1611F130C0BB20B1F0AA20AA
:1017700081F021E0A2120DC080914F0282FD5CC178
:101780008091C101182B181709F456C11093C1019B
:1017900053C18091C101812B10C0AA2021F031E0FA
:1017A000A31609F449C10E94B71027C0BB2041F01D
:1017B00085E08A1508F440C1812F0E94751E3CC146
:1017C00094E09A1508F438C118C0BB2049F0AA204B
:1017D00099F3F701858180FF1BC18F708583ECCF62
:1017E000AA2059F0093309F024C1FFEF27EE33E0B6
:1017F000F15020403040E1F71AC1812F0E946A1E4B
:101800001BC1812F86958695837019F0813059F020
:1018100013C1BB2019F0C801937002C080E090E0B2
:101820000E9469210FC1BB2019F0C801937002C04A
:1018300080E090E00E94532105C1812F8370A9F5BB
:10184000B110FEC0402F429546954770440F440F9B
:10185000802F8F7090E09C01042E01C0220F0A940B
:10186000EAF704FF08C08FE090E001C0880F4A95B6
:10187000EAF7809501C080E0169516951370123036
:1018800069F088F49091C201113019F0822B8923FC
:1018900002C0922B892B0E94251ED2C0822B9091D0
:1018A000C2018927F8CF822BF6CFBB2019F0812FF8
:1018B000817001C08695882309F4C2C0402F4295EB
:1018C00046954770440F440F802F8F7090E09C0125
:1018D000042E01C0220F0A94EAF704FF08C08FE02B
:1018E00090E001C0880F4A95EAF7809501C080E03A
:1018F000169516951370123059F078F49091F801FE
:10190000113019F0822B892309C0922B892B06C034
:10191000822B9091F801892701C0822B0E940A1E18
:101920008FC01F70BB2039F0812F0E941A1E802F9C
:101930000E94751E85C0802F0E946A1E812F0E9402
:101940000E1E7EC0802F92EF991659F1991538F02E
:10195000E0EF9E1659F0F1EF9F16F1F055C023EF1E
:10196000921631F134EF931681F14EC0BB2079F01D
:1019700084E08A1508F460C01F7181E090E001C026
:10198000880F1A95EAF79091F80189271BC095E016
:101990009A1508F451C0F0CFBB2029F0812F8F7128
:1019A00026C0BB20D9F3812F8F710E940E1E44C028
:1019B000BB2039F01F7181E001C0880F1A95EAF74A
:1019C00001C080E00E940A1E37C0BB2099F01F7141
:1019D000812F0E941A1E80914F0282FD07C0E8E00D
:1019E0001E9FC001112483608093BD01812F0E943E
:1019F0001A1E22C081E00E946D11F1E0FA15E0F498
:101A000082E00E946D1118C0BB2031F0AA2031F293
:101A1000802F0E94DB1E10C0AA2029F2893349F4CE
:101A20002FEF37EE83E0215030408040E1F700C0D7
:101A30000000802F0E947F1E88EF8C0D843010F4F0
:101A40000E947F21DD20A9F18091BD0180FD31C080
:101A5000F70112828595859585950E941A1EC7010A
:101A60000E94BE078091BD01859585958595299633
:101A70000FB6F894DEBF0FBECDBFDF91CF911F919F
:101A80000F91FF90EF90DF90CF90BF90AF909F901D
:101A90008F907F906F905F904F903F900C940E1EB0
:101AA00001319FE5190709F0E7CB82E0AFCB69E28E
:101AB0007DCD29960FB6F894DEBF0FBECDBFDF9166
:101AC000CF911F910F91FF90EF90DF90CF90BF903B
:101AD000AF909F908F907F906F905F904F903F90CE
:101AE00008958295982F937344E0949F9001112458
:101AF0008C7C86958695282B822F8575880F2A7A6F
:101B00002695822B089590914E0292FF0DC0282FAA
:101B10002871283019F4877F846006C0282F24712B
:101B2000243011F48B7F886093FF0DC0282F28711B
:101B3000283119F4877E846106C0282F247124314E
:101B400011F48B7E886120914F0220FF0DC0382F49
:101B50003871383019F4877F816006C0382F3171B1
:101B6000313011F48E7F886021FF0DC0282F28713D
:101B7000283119F4877E816106C0282F2171213117
:101B800011F48E7E886194FD877E0895F894E82F85
:101B9000E295EF70F0E031A1282F2F7081E090E006
:101BA00001C0880F2A95EAF7982F9095932391A367
:101BB00092A1892B82A3789408958F929F92AF92DD
:101BC000BF92CF92DF92EF92FF920F931F93CF932A
:101BD000DF93CDB7DEB72E970FB6F894DEBF0FBEFA
:101BE000CDBFAE014F5F5F4F7A018EE0DA011D92EB
:101BF0008A95E9F700E511E06A01AA24A394B12CC3
:101C0000F80180818F3F09F44DC0F894E82FE295E8
:101C1000EF70F0E021A18F70A50102C0440F551FA5
:101C20008A95E2F7CA01922F982B91A392A18095F1
:101C3000892382A3789400C0E7E5F1E020E030E05A
:101C4000812C912C81918F3FC1F0A82FA295AF706C
:101C5000B0E090964C9150E08F70DA0102C0B595DB
:101C6000A7958A95E2F7A0FD08C0C501022E02C023
:101C7000880F991F0A94E2F702C080E090E0882A5A
:101C8000992A2F5F3F4F2A303105E1F6F801808114
:101C90008F3F11F00E94C60DF0EAFA95F1F7D601D8
:101CA0008D929C920F5F1F4FB2E0CB0ED11CE1E0F2
:101CB00007351E0709F0A4CF4EE050E0B70189EFC9
:101CC00091E00E94A52411E0009709F410E0892B0F
:101CD00089F08EE0F701A9EFB1E001900D928A95AD
:101CE000E1F781E08093C5010E949F209093C40199
:101CF0008093C3018091C501882309F12091C3011C
:101D00003091C4014FB7F89480914A0290914B02F0
:101D1000A0914C02B0914D024FBF821B930B0597CF
:101D200070F0E9EFF1E0A6E1B2E0819191918D933D
:101D30009D9342E0E730F407C1F71092C501812F6F
:101D40002E960FB6F894DEBF0FBECDBFDF91CF91B8
:101D50001F910F91FF90EF90DF90CF90BF90AF90C9
:101D60009F908F900895CF93DF938238910569F10A
:101D7000B0F48133910509F46FC048F489329105BC
:101D800009F465C08A32910509F46BC08AC08533B5
:101D9000910509F457C089339105B9F082C0833E9B
:101DA000910571F138F4803E9105B1F0823E9105C4
:101DB00011F177C0863E9105B9F1873E9105C9F1D1
:101DC000843E910509F06DC024C020914E0220FD93
:101DD00053C021FD51C065C080914E0280FD46C0B8
:101DE00080914F0280FF48C080914E0284FD3FC128
:101DF00083EE90E03EC180914E0282FF3AC0F4CF64
:101E000080914E0282FD35C080914F0280FD34C02A
:101E1000EBCF80914F0281FF35C080914E0284FD4F
:101E200026C187EE90E025C180914E0283FF27C036
:101E3000F4CF80914E0283FD22C080914F0281FD3C
:101E400021C0EBCF80914E0285FD1FC021C0809143
:101E50004E0285FD1DC019C080914E0286FD1BC03B
:101E60001DC080914E0286FD19C015C089E390E027
:101E700000C182EE90E0FDC080EE90E0FAC086EEF8
:101E800090E0F7C084EE90E0F4C089E290E0F1C009
:101E900085E390E0EEC08AE290E0EBC081E390E061
:101EA000E8C0811532E5930708F069C0811541E566
:101EB000940728F0982F8827816F906ADAC0883EAF
:101EC000910568F5803E910508F0D3C0883A9105E8
:101ED000B8F4853A910548F0855AE82FF0E0E55FBF
:101EE000FE4F808190E09064C4C08130910509F478
:101EF000BBC008F4BCC08430910508F4B8C0B9C0B8
:101F00008F3B910508F0B3C0885AE82FF0E0EE0F40
:101F1000FF1FE25FFE4F808191819464AAC081150A
:101F200020E59207F0F09C0174E0369527957A95AC
:101F3000E1F7922F9370482F437021E030E002C008
:101F4000220F331F4A95E2F73C68392B8F70982F88
:101F50009695969540E2949FC0011124822B932B75
:101F600088C0811530E4930718F09F70906A81C093
:101F70009C013A9521153F4108F47BC078C0EC01E3
:101F8000C11586E5D807E8F5C11525E5D20748F063
:101F90008C2F0E94830D8F7190E0982F882790627C
:101FA00068C0C11534E5D30728F09C2F8827846FBB
:101FB000906A5FC0AE01437055272C2F2695269559
:101FC000C115D34578F481E090E002C0880F991FD5
:101FD0004A95E2F740E2249F90011124822B932B33
:101FE0009C6847C081E090E002C0880F991F4A9525
:101FF000E2F740E2249F90011124822B932B9A68F0
:1020000038C0C1152AE5D207F8F4C11539E5D30760
:1020100090F08C2F8F700E94830D94E0D695C79519
:102020009A95E1F7CF70D0E0DC2FCC27D0699E01E4
:10203000282BC9011EC0C11548E5D407C0F09C2F4C
:102040008827806F906A15C0CE0190568115904206
:1020500070F48D2F8F710E94830D282F2F71CE0168
:1020600099279062922B05C081E090E002C080E049
:1020700090E0DF91CF910895CF9384E090E00E94AB
:102080004A24C82F82E290E00E944A242C2F30E09C
:10209000A901582BCA01CF91089569EE7EEF80E027
:1020A00090E00E94762460E082E090E00E94582454
:1020B00060E083E090E00E9458241092C20160E04A
:1020C00084E090E00E94582460E082E290E00E9468
:1020D000582460E085E090E00E94582460E086E0AB
:1020E00090E00E9458246FEF87E090E00E9458240F
:1020F00040E050E0BA0188E090E00E946A2460E08D
:102100008DE090E00E94582440E050E0BA0188E160
:1021100090E00E946A2460E087E190E00E945824E9
:1021200040E050E0BA018CE190E00E946A2460E057
:1021300070E080E290E00E94762440E050E0BA0136
:1021400088E190E00E946A2480E00E9481220E943F
:102150009F2240E050E0BA018FE090E00E946A24A4
:1021600040E050E0BA0183E190E00C946A24809151
:10217000C10181111092C1010895EF92FF920F9356
:102180001F93CF939091C0018091BF01892B209123
:10219000BE01982F922B909365018091C1018823F5
:1021A000D9F0892B8093650180910001882331F05B
:1021B00080914E0287FF02C08EE101C086E0E7E613
:1021C000F1E090E0815028F021912223D9F39F5F24
:1021D000F9CF91110E94B710E0914402F0914502AD
:1021E000309709F448C080910001882359F080910C
:1021F0004E0287FF07C0809165018093660185E0EC
:10220000809365010280F381E02D85E691E00995D8
:102210008091480282FF2FC080FF04C088E892E0CE
:102220000E94740605E611E0C8E082E8E82E82E02C
:10223000F82E8091480280FF0CC0F80180811F9227
:102240008F93FF92EF920E940D070F900F900F90C7
:102250000F90C1500F5F1F4FC111EBCF809148020B
:1022600080FF09C080E892E0CF911F910F91FF900D
:10227000EF900C947406CF911F910F91FF90EF9007
:102280000895CF93DF93C0914F02C2FB992790F935
:10229000981701F1D82F80FBC2F9C0934F026091CB
:1022A0004E0284E090E00E9458246C2F82E290E07D
:1022B0000E9458248091480280FF0CC01F92DF9337
:1022C0008BE692E09F938F930E940D070F900F90E3
:1022D0000F900F90DF91CF9108952091BD018095CF
:1022E00082238093BD01982F977041F430E0482FEE
:1022F000082E000C550B2417350721F490914F023E
:1023000092FF07C08595859585950E940E1E1092B7
:10231000BD0108958091BC0190918B01891719F03E
:102320008F5F8770FBCF08950F931F93CF93DF9339
:1023300080918A0182958F7009F05DC0809187013C
:10234000882309F458C08091BC0110918B016091E1
:10235000850170918601C0918801D091890191E039
:102360006F3F09F090E0292F06E0811709F443C080
:10237000209721F07F3F21F030E003C031E001C021
:10238000322F90E030FD34C0089FF001099FF00D1E
:102390001124DF01A457BE4F11963C9111973713BA
:1023A00027C03C91361324C012963C9112973111EC
:1023B0001FC013964D915C9114974C1B5D0B4039D7
:1023C0005140B0F480918A018F70806180938A01BE
:1023D000EF56FE4F80818F708061808385E891E0A9
:1023E0000E94BE07DF91CF911F910F910C948A112B
:1023F00001968770BACFDF91CF911F910F91089509
:10240000CF93DF93EC010E94841DBE010E947422D1
:102410000E94B30EDF91CF9108959F92AF92BF9229
:10242000CF92DF92EF92FF920F931F93CF93DF93A0
:10243000CDB7DEB761970FB6F894DEBF0FBECDBF44
:102440008C0185E0F801DE011D9601900D928A95C0
:10245000E1F7F801E2809091850160918601409159
:102460008801509189014115510531F06F3F31F4D8
:1024700081E09F3F19F403C081E001C080E0F82FA4
:10248000F1709F2E80FD1BC1F80130812181C38036
:10249000D48085E8A82E81E0B82EF0908701F6015F
:1024A000E41BF50BAF01FF2009F4C6C080918A013F
:1024B0004039514008F091C0482F407F09F050C08A
:1024C000621311C093130FC0FE2CE1100CC08F706B
:1024D000806180938A01C5010E94BE0780918A01B4
:1024E000F801858329C1CD2831F02F3F31F481E0F7
:1024F0003F3F19F403C081E001C080E080FD03C0CC
:1025000081E08E2502C080E090E0F82FF170FF2E70
:1025100080FF1CC08091BC0140918B0156E0841764
:1025200009F4E8C090E0589FF001599FF00D112484
:10253000E457FE4F6181261306C06081631303C018
:102540006281E61203C001968770E9CFFE2CEE206F
:1025500009F4F2C080918A01816080938A0149C0A8
:10256000621306C0931304C0E11002C0F80186C0D4
:10257000C8010E94291E882351F1EE2041F12091CB
:102580008A01822F82958F7090E0029774F080917B
:1025900085019091860198878F831986DB86CA868C
:1025A0002C87CE0107960E94BE0786E0F801A5E8B9
:1025B000B1E001900D928A95E1F70E9494110AC052
:1025C0006217C9F0C8010E94291E81111EC0C801EE
:1025D0000E94BE07FF24F394AFC0482F407F81F7CD
:1025E00085E891E00E94BE0786E0F50111928A9588
:1025F000E9F7F12CA1C09313E5CFE110E3CFF80187
:102600008583C8010E94BE0754C0EE2001F32091CB
:102610008A01822F82958F7090E0029734F2809128
:102620008501909186019A8389831B82DD82CC8209
:102630002E83CE010196B7CF40395140D0F5FE2C04
:10264000EE2029F2621327C0931325C020918A013E
:1026500020FD18C0822F82958F70482F50E04115C1
:10266000510581F0F80125834F30510541F08F5F0E
:10267000982F9295907F822F8F70892B8583C80128
:102680000E94BE0786E0F801A5E8B1E001900D9236
:102690008A95E1F751C0C8010E94291E811185CF9A
:1026A00080918A01816080938A01C8010E94BE07DF
:1026B00043C086E0F50111928A95E9F73DC0EE200E
:1026C00009F485CFC8010E94291EF82E882309F439
:1026D0007ECF86E0F801A5E8B1E001900D928A95E1
:1026E000E1F780918501909186010E9400120E947D
:1026F000941122C03D872E878D859E850E940012F1
:10270000292F22952F70223028F49F7039F08111E3
:1027100005C00BC0243028F49F7049F4805E8830D7
:1027200020F0C8010E94BE079F2CF92C05C0F801BB
:102730009581907F99F7F9CF8F2D61960FB6F89418
:10274000DEBF0FBECDBFDF91CF911F910F91FF90E4
:10275000EF90DF90CF90BF90AF909F9008958091C1
:10276000F00187FF11C08091E80082FD05C08091D3
:10277000EE018111F8CF11C08091E8008B770BC07A
:102780008091EE01882349F08091E80080FFF8CF26
:102790008091E8008E778093E8000895982F973015
:1027A00068F59093E900981739F07091EC0020914A
:1027B000ED005091F00003C0242F762F50E021FD52
:1027C00002C09F5FECCF3091EB003E7F3093EB0077
:1027D0003091ED003D7F3093ED003091EB003160A2
:1027E0003093EB007093EC002093ED005093F000D9
:1027F0002091EE0027FDE5CF80E008958F70809353
:10280000E90081E008952091F6013091F701261743
:10281000370748F06115710539F42091E8002E77EB
:102820002093E80001C0B901FC0120E061157105A9
:1028300079F18091EE018823F1F18530F1F18091F9
:10284000E80083FD3CC08091E80082FD2EC08091AD
:10285000E80080FFEBCF2091F3008091F20090E040
:10286000922B6115710551F08830910538F4219152
:102870002093F100615071090196F3CF21E0089790
:1028800009F020E08091E8008E778093E800CECFB9
:102890002111CFCF0AC08091EE01882361F08530ED
:1028A00061F08091E80083FD0AC08091E80082FF1A
:1028B000F2CF80E0089582E0089583E0089581E0FA
:1028C00008959FB7F8941092C7019FBF9091EE01B1
:1028D000943009F057C09091E9009F703091EC005E
:1028E000232F217030FD20E8922B25E02093E90072
:1028F0002091EB0020FF43C02091EE0027FF3FC056
:102900002091C601222321F02091E80025FF37C045
:102910001092C60126E03091E80035FD15C03091D7
:10292000EE01343061F53091EB0035FD28C02150C7
:1029300021F481E08093C60122C0EFE9FFE03197E6
:10294000F1F700C00000E7CF8093F1008091E8002C
:1029500085FD0AC08091E80080FFFCCF8091E800EF
:102960008E778093E80006C08FB7F89421E020931B
:10297000C7018FBF9F709093E90080E008959F701A
:102980009093E9008FEF0895BC0184E00C9432200D
:10299000BC0183E00C9432208091F801982F96704E
:1029A000963011F4886001C0877F0C940A1E1F9333
:1029B000CF93DF93CDB7DEB7AA970FB6F894DEBFFB
:1029C0000FBECDBFE0EFF1E088EF91E02091F10084
:1029D00021938E179F07D1F78091F101833009F47D
:1029E00062C030F4813071F0823009F49CC0B3C011
:1029F0008A3009F488C08B3009F46DC0893009F041
:102A0000AAC020C08091F001813A09F0A4C0809151
:102A1000E800877F8093E8008091F4019091F501B0
:102A2000892B21F460E28CEC91E003C060E080E04F
:102A300090E070E00E9403148091E8008B7780930F
:102A4000E80089C08091F001813209F084C0809152
:102A5000F4019091F501009719F0029709F07BC0FD
:102A60008091E800877F8093E8008091E80082FDF4
:102A700005C08091EE018111F8CF6DC02091F30067
:102A80008091F20090E0922B029729F48091F1005E
:102A90008B7F813021F48091F1008093CB01809174
:102AA000E8008B7754C08091F001813A09F053C05F
:102AB0008091F4019091F501892B09F04CC080912F
:102AC000E800877F8093E8008091E80080FFFCCFDA
:102AD0008091000137C08091F0018132E1F5809151
:102AE000F4019091F501892BB1F58091E800877F81
:102AF0008093E8000E94AF138091F201809300015F
:102B00000E94551E28C08091F001813221F58091EC
:102B1000E800877F8093E8000E94AF138091F30163
:102B20008093CA0118C08091F001813AA1F480918C
:102B3000E800877F8093E8008091E80080FFFCCF69
:102B40008091CA018093F1008091E8008E77809394
:102B5000E8000E94AF138091E80083FFE3C18091F9
:102B6000F0019091F101492F50E04A30510508F0F1
:102B7000D9C1FA01EE59FF4F0C949824803821F006
:102B8000823809F0CFC108C08091EC019091ED012D
:102B9000992389F082600FC08091F4018F70873093
:102BA00008F0C0C18093E9008091EB0085FB882785
:102BB00080F91092E9009091E800977F9093E800E7
:102BC0008093F1001092F10071C1282F2D7F09F040
:102BD000A9C1882319F0823061F0A4C18091F2016B
:102BE000813009F09FC1933009F080E08093ED01BE
:102BF0002EC08091F20181112AC08091F4018F7062
:102C00002FEF280F263008F08DC18093E900209126
:102C1000EB0020FF1CC0933021F48091EB00806218
:102C200014C09091EB0090619093EB0021E030E0B4
:102C3000A90102C0440F551F8A95E2F74093EA00AC
:102C40001092EA008091EB0088608093EB00109274
:102C5000E9008091E800877F8093E8000E94AF132D
:102C600061C181115FC11091F2011F778091E30072
:102C70008078812B8093E3008091E800877F8093A8
:102C8000E8000E94AF138091E80080FFFCCF8091A4
:102C9000E30080688093E300111102C082E001C06C
:102CA00083E08093EE013EC18058823008F03AC143
:102CB0002091F2013091F3012C3D53E0350779F575
:102CC00083E08A838AE289834FB7F894DE01139602
:102CD00020E03EE051E2E32FF0E050935700E49112
:102CE00020FF03C0E295EF703F5FEF708E2F90E002
:102CF000EA3010F0C79601C0C0968D939D932F5F68
:102D0000243149F74FBF8091E800877F8093E80026
:102D10006AE270E0CE0101960E940314B5C0809172
:102D2000F4019091F501432F552743305105A9F047
:102D300068F44130510509F404C14230510509F0ED
:102D4000F1C08BE790E0EFE9F3E04BC04132510571
:102D500029F14232510589F1E5C0C9019927813035
:102D60009105A1F058F0029709F0DCC0ECE2F4E024
:102D7000E4918E2F90E0ECE2F4E030C0ECE5F4E07A
:102D8000E4918E2F90E0ECE5F4E028C0E4E4F4E078
:102D9000E4918E2F90E0E4E4F4E020C084309105CB
:102DA00008F0C0C0880F991FFC01E85BFE4F01903E
:102DB000F081E02D89E090E014C08430910508F0A6
:102DC000B1C0FC01EE0FFF1FE05CFE4F0190F081EF
:102DD000E02DDC01A45CBE4F8C9190E0009709F4DB
:102DE000A1C02091E800277F2093E8002091F60100
:102DF0003091F7018217930708F49C0140E02115F8
:102E0000310589F18091EE01882309F43DC08530B8
:102E1000D9F18091E80083FD37C08091E80082FD00
:102E20002FC08091E80080FFEACF4091F3008091AD
:102E3000F20090E0942B2115310559F0883091056E
:102E400040F444914093F1003196215031090196AC
:102E5000F2CF41E0089709F040E08091E8008E77DA
:102E60008093E800CCCF4111CDCF0AC08091EE0114
:102E7000882351F0853041F08091E80083FD04C043
:102E80008091E80082FFF2CF8091E8008B778093F9
:102E9000E80048C0803809F045C08091E800877F8D
:102EA0008093E8008091EF018093F1008091E80029
:102EB0008E77D2CE811136C08091F2019091F301CC
:102EC000992702977CF58091E800877F8093E8003E
:102ED0001091F2011093EF010E94AF13111106C07F
:102EE0008091E30087FD02C081E001C084E080930F
:102EF000EE0142E061EC81E00E94CE1342E261EC1F
:102F000084E00E94CE1342E261EC82E00E94CE1384
:102F100042E260EC83E00E94CE1342E261EC85E085
:102F20000E94CE138091E80083FF10C08091E800DA
:102F3000877F8093E8008091EB0080628093EB00B4
:102F400005C082E190E0EAE1F4E04BCFAA960FB62B
:102F5000F894DEBF0FBECDBFDF91CF911F910895D2
:102F60001F920F920FB60F9211242F933F934F93FE
:102F70005F936F937F938F939F93AF93BF93CF9301
:102F8000DF93EF93FF93C091E900CF708091EC0045
:102F9000D82FD17080FDD0E81092E9008091F00028
:102FA000877F8093F00078940E94D7141092E900F4
:102FB0008091F00088608093F000CD2BCF70C0939B
:102FC000E900FF91EF91DF91CF91BF91AF919F9178
:102FD0008F917F916F915F914F913F912F910F90C2
:102FE0000FBE0F901F901895E8EDF0E080818E7F66
:102FF00080831092E2001092DA001092E100A0EEBD
:10300000B0E08C9181608C9380818F77808319BC34
:10301000A7EDB0E08C918E7F8C9380818F7E808332
:103020001092C9010895CF92DF92EF92FF920F9311
:103030001F93CF93DF93C8EDD0E088818F7E888384
:10304000E7EDF0E080818160808384E082BF81E0F1
:103050008093C90188818E7F888302EE10E0F80199
:1030600010821092DA0081EEC82ED12CF601108267
:1030700088818F77888388818068888388818F7D25
:10308000888319BC1092EE011092EF011092ED01AD
:103090001092EC0190EEE92EF12CF70180818B7FEC
:1030A000808388818160888342E060E080E00E94C4
:1030B000CE13F60180818E7F8083F801808181604C
:1030C0008083808188608083F70180818E7F808308
:1030D000888180618883DF91CF911F910F91FF904C
:1030E000EF90DF90CF9008951F920F920FB60F923E
:1030F00011242F933F934F935F936F937F938F93FD
:103100009F93AF93BF93EF93FF938091E10082FF72
:1031100049C08091E20082FF45C08091E1008B7F31
:103120008093E1002091C8012F5F822F62E30E940B
:103130008C24992319F02093C80134C01092C8013F
:103140008091C701882371F18091EE01843041F5AF
:103150008091E9008F702091EC00922F917020FDFA
:1031600090E8892B95E09093E9009091EB0090FF17
:1031700014C09091EE0097FF10C09091E80095FF69
:1031800003C01092F100F9CF9091E80090FF05C0C4
:103190009091E8009E779093E8008F708093E9000B
:1031A0001092C7018091DA0080FF32C08091D80070
:1031B00080FF2EC08091DA008E7F8093DA008091AC
:1031C000D90080FF1CC080E189BD82E189BD09B4BE
:1031D00000FEFDCF81E08093EE018BE893E00E943A
:1031E00074068091C901811113C00E94F4170E94D6
:1031F00013188091E20084608093E20009C019BC3A
:103200001092EE018FE893E00E9474061092C901BB
:103210008091E10080FF1BC08091E20080FF17C019
:103220008091E2008E7F8093E2008091E2008061D5
:103230008093E2008091D80080628093D80019BC0E
:1032400085E08093EE0183E993E00E94740680910B
:10325000E10084FF32C08091E20084FF2EC080E153
:1032600089BD82E189BD09B400FEFDCF8091D800FF
:103270008F7D8093D8008091E1008F7E8093E10064
:103280008091E2008F7E8093E2008091E200816075
:103290008093E2008091EF01882311F084E007C061
:1032A0008091E30087FD02C081E001C083E080934C
:1032B000EE0187E993E00E9474068091E10083FFAC
:1032C0002BC08091E20083FF27C08091E100877FBF
:1032D0008093E10082E08093EE011092EF018091F3
:1032E000E1008E7F8093E1008091E2008E7F8093E9
:1032F000E2008091E20080618093E20042E060E0C1
:1033000080E00E94CE138091F00088608093F000EE
:103310008BE993E00E947406FF91EF91BF91AF910A
:103320009F918F917F916F915F914F913F912F91DD
:103330000F900FBE0F901F9018952091E4003091D0
:10334000E50095E64091EC00842F817040FF23C09A
:103350008091E80080FD1DC08091EE01882399F0E6
:10336000853099F08091EB0085FD11C04091E4001B
:103370005091E5002417350729F3915011F09A0177
:10338000E1CF84E0089582E0089583E0089581E02C
:10339000089580E008954091E80042FFDDCF089550
:1033A000EF92FF920F931F93CF93DF937C018B01DA
:1033B0000E949D19811119C0E70101151105A1F0A5
:1033C0008091E80085FD0AC08091E8008E778093A7
:1033D000E8000E949D19882381F307C0899180939A
:1033E000F10001501109E9CF80E0DF91CF911F91E9
:1033F0000F91FF90EF900895CF93DF93CDB7DEB795
:10340000AB970FB6F894DEBF0FBECDBF84B7877FF2
:1034100084BF0FB6F894A89580916000886180936E
:103420006000109260000FBE90E080E80FB6F89444
:1034300080936100909361000FBE85B7806885BF5F
:1034400085B7806885BF81E694E19093630180939E
:1034500062010E94F4170E9413188091E2008460B8
:103460008093E20078948091EE018823A1F010917E
:10347000E9001F709091EC00892F817090FD80E829
:10348000182B1092E9008091E80083FD0E94D71468
:103490001F701093E90082E084BD93E095BD9AEF20
:1034A00097BD80936E000E94AE22811102C00E94DF
:1034B0009F2200E511E0B7E5EB2EB1E0FB2EF8010D
:1034C00081918F018F3F11F00E94C60DE016F10629
:1034D000B1F707E511E0A1E6EA2EA1E0FA2EF80126
:1034E00081918F018F3F11F00E94C60DE016F10609
:1034F000B1F7E9EFF1E0A6E1B2E0119211921D926D
:103500001D9222E0E730F207C1F780E090E00E94D0
:103510005224893E9E4F21F40E94AE22811102C0A6
:103520000E944D1082E090E00E944A24809348025D
:103530000E943C1090934F0280934E020E94DD0D3A
:103540008FE39CE90197F1F700C000000E94DD0DB8
:103550008091180280FF08C06FEF7FEF80E090E05D
:103560000E9476240E945C2083E090E00E944A241E
:103570000E94251E81E091E09093450280934402D1
:1035800080E694E00E9474068091EE01853009F097
:103590004CC082EB94E00E947406F0E4FF2E00E140
:1035A00012E18091EE01853009F03BC08091EE017F
:1035B000843019F110924902E8E1F0E00FB6F89476
:1035C000A895E09360000FBEF092600083B7817F02
:1035D000846083BF83B7816083BF7894889583B705
:1035E0008E7F83BF0FB6F894A895809160008861A4
:1035F00080936000109260000FBE8091ED018823DF
:1036000009F4CFCF0E94DD0DE6E1F2E081919191C6
:10361000892B09F04CC244E252E04E175F07B1F724
:10362000C0CF0E94551E0E947F210E94DD0D811196
:103630000E94932078E0672E72E0772EE6E14E2E0E
:10364000E2E05E2E00E010E00BA7F201A190B19045
:103650002F01F301C190D1903F01CA24DB24C11492
:10366000D104B1F40F5F1F4F0730110569F78FEFD9
:103670008EA38FA318A60E949F208160782F9AA7FF
:1036800089A74EA15FA168A58AA50E94160777C0E9
:103690008091480281FD05C080E0EE24E394F12C86
:1036A00048C081E894E00E94740656E1852E52E0FD
:1036B000952EE12CF12CFF92EF924CE754E05F93B2
:1036C0004F930E940D0789E794E00E947406F4016D
:1036D00080812180F2E08F0E911C0E94710D382EA6
:1036E000822D0E94710D232D30E0322F2227A90157
:1036F000482BCA019F938F9383E794E09F938F9306
:103700000E940D0781E794E00E947406FFEFEF1A14
:10371000FF0A0FB6F894DEBF0FBECDBF57E0E51627
:10372000F10449F6B9CF8F5FEE0CFF1C8A3009F423
:1037300099CF97012C213D21232BA9F389A38BA598
:103740008AA3AE20BF2081E0AB2809F480E08BA3E0
:103750000E949F208160782F9DA38CA349A15AA12C
:103760006BA18DA10E941607000F111FF801E85FE1
:10377000FD4F80819181E826F926F182E0820E9446
:103780007F2190910702891739F10E947F21182F1C
:10379000809307028091480282FF1EC080FF04C010
:1037A0008FE994E00E9474068091480280FF0CC06B
:1037B0001F921F938AE994E09F938F930E940D07B5
:1037C0000F900F900F900F908091480280FF04C0DF
:1037D00088E994E00E9474068091EE01843009F03B
:1037E000D3CE83E08093E9008091E80082FFCCCEC5
:1037F0008091E80085FF21C00E949D1981111BC0A6
:1038000000E210E0FE0131967F0108C08091F100D6
:10381000F70181937F010150110969F08091E8005F
:1038200085FDF4CF8091E8008B778093E8000E94BB
:103830009D19882399F391E001C090E08091E80000
:103840008B778093E800992309F49ECEE9818E2F2F
:1038500090E0FC013197E331F10508F0FFC0E45935
:10386000FF4F0C9498241A8289E05EC08A818230CE
:1038700009F433C1833051F0813009F0EFC00E9468
:1038800093209B838C837D836E83EAC0FE013196F7
:10389000CE010F96A6E1B2E02C9111963C911197C2
:1038A00012963283238332968E179F07A9F7D8C0CA
:1038B0008A81823009F0D2C06B817C818D819E81AA
:1038C0000E949E2486E290E024C04C816B818A8114
:1038D0000E944E229D8308C1ED80FE80FE24EF24CD
:1038E000FE248C810B819A81F4E10F9F80011124C9
:1038F0002CE8929F000D111D1124080F111D080FB7
:10390000111D6F2DC80187960E9458246E2DC80185
:1039100088960E945824A4C00E941A22A1C080E167
:1039200054C081E08A8389EA8B839AC00A811B8113
:10393000102701271027CC80D12CAE014F5F5F4F9D
:103940005A017A01C801895A9D4F97012A193B09EA
:103950002C153D0508F084C0093A51E0150728F4FC
:103960000E944A24F701848302C0F70114820F5F8A
:103970001F4FFFEFEF1AFF0AE5CF0A811B811027C7
:1039800001271027CC80D12CAE014F5F5F4F5A0129
:103990007A01C801895A9D4F97012A193B092C15B4
:1039A0003D0508F05DC0093A51E0150720F4F70124
:1039B00064810E9458240F5F1F4FFFEFEF1AFF0A28
:1039C000E8CF0E940A224CC084E08A8349C00A8161
:1039D0001B81102701271027CC80D12CAE014F5F0F
:1039E0005F4F5A017A01C801879697012A193B094E
:1039F0002C153D05A8F5003352E0150728F40E9468
:103A00004A24F701848302C0F70114820F5F1F4F1D
:103A1000FFEFEF1AFF0AE7CF0A811B81102701276A
:103A20001027CC80D12CAE014F5F5F4F5A017A0135
:103A3000C801879697012A193B092C153D0580F48A
:103A4000003352E0150720F4F70164810E945824E6
:103A50000F5F1F4FFFEFEF1AFF0AEACF8FEF898347
:103A60008091EE01843009F08FCD1091E9001F7034
:103A70009091EC00892F817090FD80E8182B82E0F6
:103A80008093E9008091E80080FF0DC040E050E0A5
:103A900060E270E0CE0101960E94D0198091E800AA
:103AA0008E778093E8001F701093E9006DCD09BDFB
:103AB00019BD09B400FEFDCF8091D8008F7D8093A1
:103AC000D8008091E00082608093E0008091E00067
:103AD00081FDFCCF0E94551E64CD86E290E00E94DD
:103AE0004A241B821C821D828E83BACF80E090E024
:103AF0000E94692180E090E00E9453211092BF0152
:103B00001092BE010C94BD10CF92DF92FF920F93E2
:103B10001F93CF93DF936C010091F8018091C20154
:103B2000082BC7E0D0E010E0C8010C2E02C095952C
:103B300087950A94E2F780FD04C02197A8F7F12C3D
:103B400009C0FC2EB6018C2F0E9474220E94B30E75
:103B5000019799F38F2DDF91CF911F910F91FF90D6
:103B6000DF90CF9008952AE0929F800D1124682F56
:103B7000669566956695982F977083E0689FB0016B
:103B8000112440E050E080E0FB01E40FF51FEC5D04
:103B9000FD4F208130E0092E02C0369527950A940A
:103BA000E2F721703327042E01C0220F0A94EAF7AE
:103BB000822B4F5F5F4F4330510531F708952AE064
:103BC000929F800D1124E82FE695E695E695877083
:103BD00051E001C0550F8A95EAF783E0E89FF001B4
:103BE0001124EC5DFD4F20E030E070E04081CB011E
:103BF000022E02C0969587950A94E2F7817081950E
:103C000084278523842781932F5F3F4F23303105FD
:103C100069F708958093F8010C94761D21E030E057
:103C200001C0220F8A95EAF720958091F80182233E
:103C30000C940A1E21E030E001C0220F8A95EAF7B9
:103C40008091F801822B0C940A1E8093C2010C947F
:103C5000761DFC01808191810E940012292F2F7016
:103C6000E92FE295EF704E2F50E0FA013297EE30D7
:103C7000F105B8F4E158FF4F0C949824803F99F077
:103C800018F4883E70F40FC0843F59F40CC0883E8D
:103C900050F0813F31F407C0822F86958695869536
:103CA000089580E0089581E008951092C001809108
:103CB0000001882331F080914E0287FF02C08EE11F
:103CC00001C086E0E7E6F1E0DF011D928A95E9F7A1
:103CD0000C94761D882341F080959091C001892332
:103CE0008093C0010C94BD100895882339F0909101
:103CF000C001892B8093C0010C94BD1008958823C6
:103D000009F458C0682F823869F40E947F2181FF2E
:103D100051C069E385E691E00E940D210E94BD102B
:103D200069E30EC0833891F40E947F2180FF42C076
:103D300063E585E691E00E940D210E94BD1063E5D8
:103D400085E691E00E94D4200C94BD10843869F47B
:103D50000E947F2182FF2EC067E485E691E00E94E9
:103D60000D210E94BD1067E4EBCF8CEF860F813AE6
:103D700038F380E2860F883070F4677081E090E05D
:103D800001C0880F6A95EAF780959091C001892358
:103D90008093C001D9CF8BE5860F833020F480E07B
:103DA00090E00C946921685A673120F480E090E03B
:103DB0000C9453210895CF93882309F4EEC0C82FA3
:103DC0008238B1F40E947F2181FDE7C069E385E676
:103DD00091E00E940D210E94BD102FEF81EE94E032
:103DE000215080409040E1F700C0000069E317C017
:103DF0008338E1F40E947F2180FDCFC063E585E632
:103E000091E00E940D210E94BD102FEF81EE94E001
:103E1000215080409040E1F700C0000063E585E656
:103E200091E00E94D420CF910C94BD108438B1F45D
:103E30000E947F2182FDB1C067E485E691E00E9487
:103E40000D210E94BD102FEF81EE94E021508040A3
:103E50009040E1F700C0000067E4E1CF8CEF8C0FE9
:103E6000813AA8F580915302882319F0813051F0EE
:103E70002BC08091C001823209F057C08C2F0E9464
:103E8000DF2251C08091C0018232C1F3C43191F070
:103E900018F4CB3029F011C0C93261F0C83369F48D
:103EA0008AE29AE00E94740688EB94E00E9474060D
:103EB00081E008C01092530204C086EB94E00E9497
:103EC000740680E081702FC0109253022EC080E2F1
:103ED0008C0F883068F4C77081E090E001C0880FD3
:103EE000CA95EAF79091C001892B8093C0019BCFBE
:103EF000EBE5EC0FE33040F4F0E0E55FFE4F80814E
:103F000090E0CF910C946921C85AC73108F045C0A0
:103F1000EC2FF0E0EE0FFF1FE25FFE4F80819181FA
:103F2000CF910C945321811138C0809100018823D6
:103F3000E1F080914E0287FF18C0EC2FE695E695E0
:103F4000E695F0E0EB59FE4F8281282F30E04C2FB0
:103F5000477081E090E002C0880F991F4A95E2F710
:103F600082239323892B61F412C0E7E6F1E08DE60A
:103F700091E02191C21721F08E179F07D1F707C05A
:103F80006C2F85E691E00E94D4200E94BD106C2F1A
:103F900085E691E00E940D2146CFCF9108951F93B1
:103FA000CF93DF93182F893319F0C0E0D0E002C01F
:103FB000C0E5D0E0812F0E94DB1E209741F08FE901
:103FC0009FE00197F1F700C000002197F6CF812F05
:103FD000DF91CF911F910C947F1E08958091CB01AA
:103FE0000895CF93DF9320910001222339F020918F
:103FF0004E0227FF03C060E224E002C068E021E037
:104000002093E9002FEF3091E800215035FD06C0E4
:1040100035ED3A95F1F700002111F5CF2091E80038
:1040200025FF1DC0EC0180910001811105C040E019
:1040300050E068E070E003C070E040E050E0CE0186
:104040000E94D0198091E8008E778093E80080E28A
:10405000FE01ACECB1E001900D928A95E1F7DF91A1
:10406000CF9108959091EE01943029F580935002FC
:1040700070935202609351029093E9008FEF9091F8
:10408000E800815095FD06C095ED9A95F1F7000086
:104090008111F5CF8091E80085FF0DC040E050E030
:1040A00063E070E080E592E00E94D0198091E80022
:1040B0008E778093E800089587E797E7909301084B
:1040C000809300089AE088E10FB6F894A895809351
:1040D00060000FBE90936000FFCF78941F920F9204
:1040E0000FB60F9211248F939F93AF93BF9380913C
:1040F0004A0290914B02A0914C02B0914D02019660
:10410000A11DB11D80934A0290934B02A0934C02D3
:10411000B0934D02BF91AF919F918F910F900FBEC1
:104120000F901F9018952FB7F89460914A027091E4
:104130004B0280914C0290914D022FBF08952FB7F2
:10414000F89480914A0290914B02A0914C02B09158
:104150004D022FBF08951F920F920FB60F92112498
:104160008F939F93AF93BF9380914902811113C0A6
:1041700080914A0290914B02A0914C02B0914D0265
:104180004196A11DB11D80934A0290934B02A093CA
:104190004C02B0934D02BF91AF919F918F910F90C0
:1041A0000FBE0F901F90189520910001222351F10E
:1041B00020914E0227FF26C0262F2695269526956C
:1041C0002E3178F4FC01E20FF11D677081E090E080
:1041D00001C0880F6A95EAF78095928189238283CE
:1041E00008958091480280FF17C01F926F938FE05F
:1041F00097E09F938F930E940D070F900F900F9061
:104200000F900895FC0106962281621301C012826C
:104210003196E817F907C1F708952091000122238C
:1042200049F120914E0227FF25C0262F269526957D
:1042300026952E3170F4FC01E20FF11D677081E0CC
:1042400090E001C0880F6A95EAF79281892B8283FA
:1042500008958091480280FF25C01F926F9381EFDF
:1042600096E09F938F930E940D070F900F900F90F1
:104270000F900895FC0132962FEF30E041916417C2
:1042800089F02F3F19F4411101C0232F3F5F3630D1
:10429000A9F72F3F39F0FC01E20FF11D27FDFA9538
:1042A00062830895089520914602309147022817AD
:1042B000390771F09093470280934602E0914402DF
:1042C000F0914502309721F00084F185E02D0994AA
:1042D000089520914202309143022817390771F066
:1042E0009093430280934202E0914402F091450290
:1042F000309721F00680F781E02D09940895E09130
:104300004402F0914502309721F00190F081E02DB8
:10431000099480E008950F931F93CF93DF93C42FE8
:10432000122FFC0182818823C9F0409341020E9430
:104330009F209093400280933F0280E28C0F883050
:1043400008F063C0C77081E001C0880FCA95EAF722
:10435000DF91CF911F910F910C94751E80914102B6
:1043600048133CC020913F02309140024FB7F8946F
:1043700080914A0290914B02A0914C02B0914D0263
:104380004FBF821B930B8039914040F5D0E2D10F93
:10439000C117B9F080E28C0F883040F4C77081E01B
:1043A00001C0880FCA95EAF70E946A1ED83030F51E
:1043B00081E0912F977001C0880F9A95EAF70E94CB
:1043C000751E802F0E94CF1FD830F8F4212F277040
:1043D00081E001C0880F2A95EAF70AC080E28C0FBD
:1043E000883098F4C77081E001C0880FCA95EAF759
:1043F000DF91CF911F910F910C946A1E802FDF9156
:10440000CF911F910F910C94CF1FDF91CF911F91EE
:104410000F910895CF93DF93C7E5D2E060E0CE011E
:104420000E9458242196C11584E0D807B9F7DF917E
:10443000CF910895CF92DF92EF92FF920F931F9347
:10444000CF93DF93C0E0D0E08E0104571F4F6E0181
:1044500084E1C80ED11CFE01EF53FB4FE590F490B0
:104460006F2DCE0187960E9458246E2DCE0188961E
:104470000E9458242296CC15DD0569F70C171D07FC
:1044800031F7E80100331240F9F6DF91CF911F9127
:104490000F91FF90EF90DF90CF9008950F931F93AF
:1044A000CF93DF93C42FD0E0CC0FDD1F24E1629FB8
:1044B000C00DD11D11243CE8839FC00DD11D1124D6
:1044C000CE0187960E944A24082F10E0102F002763
:1044D000CE0188960E944A249801282BC901DF91B9
:1044E000CF911F910F910895462F843038F4773083
:1044F00028F46A3018F4672F0C944E2280E090E084
:104500000895CF93C82F811102C06FEF01C061E2FF
:1045100083E290E00E945824C11102C06FEF01C0F5
:1045200060E184E290E00E945824C11102C06FEF64
:1045300001C060E185E290E0CF910C94582480E0C6
:104540000E94812260E086E290E00E9458240E944E
:104550001A220E940A2281E00C94812283E290E0D8
:104560000E944A24813281F484E290E00E944A242D
:10457000803151F485E290E00E944A2491E080313C
:1045800009F090E0892F01C080E081700895CF93F9
:10459000C82F1F928F938CEB94E09F938F930E9470
:1045A0000D0781E001C0880FCA95EAF70E94251E19
:1045B0000F900F900F900F90CF910C94551EDF929B
:1045C000EF92FF920F931F93CF93DF93482F50E00A
:1045D000FA013597EF33F10508F04EC1E357FF4F6D
:1045E0000C94982483E090E00E944A241F928F93B9
:1045F0008BE598E09F938F930E940D0782E090E0F7
:104600000E944A2483FB992790F91F929F9382FB73
:10461000992790F91F929F9381FB992790F91F92F8
:104620009F93982F91701F929F931F928F9382E177
:1046300098E09F938F930E940D070E943C1087FB88
:10464000222720F91F922F9386FB222720F91F9201
:104650002F9385FB222720F91F922F9384FB22277B
:1046600020F91F922F9383FB222720F91F922F936B
:1046700082FB222720F91F922F9391FB222720F9FA
:104680001F922F93292F21701F922F9381FB222796
:1046900020F91F922F93282F21701F922F939F9301
:1046A0008F938DE297E09F938F930E940D078DB7B4
:1046B0009EB788960FB6F8949EBF0FBE8DBF06C0FA
:1046C0008CE29CE00E9474060E944D10C1E0D9C0AB
:1046D00088E798E0C6C080914802817F8E7F8093F2
:1046E00048028AE29AE00E94740688E29CE00E94F6
:1046F000740681E080935302E9CF8CE09CE00E9435
:1047000074060E94551E9FEF24E38CE091502040D8
:104710008040E1F700C000000E945C20D7CF80916C
:104720004802C82FC095C170C0FB80F98093480231
:10473000CC2319F080E09CE08FC083EF9BE00E94C7
:10474000740680914802897F877F80934802BECF9C
:104750009091480291FBCC27C0F981E0C827892FAE
:10476000C0FB81F980934802CC2319F086EE9BE0D0
:1047700027C088ED9BE075C09091480292FBCC2742
:10478000C0F981E0C827892FC0FB82F980934802D5
:10479000CC2319F089EC9BE013C089EB9BE061C04E
:1047A0009091480293FBCC27C0F981E0C827892F5C
:1047B000C0FB83F980934802CC2351F08DEA9BE043
:1047C0000E9474068091480281608093480259C01B
:1047D00080EA9BE046C085E49AE043C00E949320B3
:1047E000062FF72EE82ED92EC0914E02C7FBCC27FC
:1047F000C0F91091CA01D09100010E947F21DF927F
:10480000EF92FF920F931F92CF931F921F931F92CD
:10481000DF931F928F9385E09BE09F938F930E947D
:104820000D078DB79EB70E960FB6F8949EBF0FBEBC
:104830008DBF4CCF0E94551E90914E0297FBCC2706
:10484000C0F981E0C827892FC0FB87F980934E0209
:10485000CC2329F086E99BE00E94740612C08BE805
:104860009BE00E94740632CF895303C08D5101C072
:1048700080E00E94C7222ACF89E89BE00E9474064C
:10488000C0E08C2FDF91CF911F910F91FF90EF909F
:10489000DF900895F999FECF92BD81BDF89A9927CE
:1048A00080B50895A8E1B0E042E050E00C947E2489
:1048B000262FF999FECF92BD81BDF89A019700B4D9
:1048C000021639F01FBA20BD0FB6F894FA9AF99A79
:1048D0000FBE08950396272F0E9459240E94582442
:1048E000252F0E945924242F0C9459240196272FF8
:1048F0000E9459240C945824DC01CB01FC01F99945
:10490000FECF06C0F2BDE1BDF89A319600B40D921B
:1049100041505040B8F70895991B79E004C0991FA1
:10492000961708F0961B881F7A95C9F78095089509
:10493000EE0FFF1F0590F491E02D0994692796274B
:1049400069277827872778270895FB01DC0104C0B1
:104950008D910190801921F441505040C8F7881B77
:08496000990B0895F894FFCFB4
:1049680001EE1FF11FED1FC814C414818283E200F9
:10497800E900EA00B500B600B700CD008301CC001D
:104988008A019201940121022302240225022602AF
:1049980027022A02B300B4006F00700040226D2283
:1049A8004B032903BC029A02B103CA03EA030304B6
:1049B80097669490919293C63435F4F5F6F73133AF
:0249C8003200BB
:00000001FF
