:100000000C94A8020C94EC020C9407030C94EC02E0
:100010000C94EC020C94EC020C94EC020C94EC02A8
:100020000C94EC020C94EC020C94011D0C94EC0268
:100030000C94EC020C94EC020C94EC020C94EC0288
:100040000C94EC020C94EC020C94EC020C94EC0278
:100050000C94EC029F099F09D909D909320A4D0B6A
:100060004D0B4D0B4E0AC20AD30AD30A8A0E8E0ECE
:10007000C10ED30EDE0E030F060F5F0F9B0F501045
:100080005010AA0FAC0FB10FDA0F001003100710B9
:100090002D106B216B217E217E2174217E217E21FA
:1000A0007E216B216B2179217E217E217921000027
:1000B0000000000000000000000000000000000040
:1000C0000000000000000000000000000000000030
:1000D00000007E0F00D4FFFFFFC700000078000083
:1000E0000000000000002A2B280000000000000093
:1000F00000000000000000000029000000002C1E8D
:100100003420212224342627252E362D3738271E49
:100110001F202122232425263333362E37381F046F
:1001200005060708090A0B0C0D0E0F101112131407
:1001300015161718191A1B1C1D2F3130232D3504C5
:1001400005060708090A0B0C0D0E0F1011121314E7
:1001500015161718191A1B1C1D2F3130354C0004A9
:100160007F3F1F643214643214783C1E1E140A054B
:10017000FFAA7F55402223252628292A2C2D2F30FF
:1001800032333536383A3B3D3E4042434547494A93
:100190004C4E5051535557595A5C5E6062646668C4
:1001A000696B6D6F71737577797B7D7F81838587CF
:1001B000898A8C8E90929496989A9C9E9FA1A3A5D2
:1001C000A7A8AAACAEAFB1B3B4B6B8B9BBBCBEBFFA
:1001D000C1C2C3C5C6C7C9CACBCCCDCED0D1D2D27D
:1001E000D3D4D5D6D7D7D8D9D9DADADBDBDBDCDC88
:1001F000DCDCDCDDDDDDDDDCDCDCDCDCDBDBDBDA40
:10020000DAD9D9D8D7D7D6D5D4D3D2D2D1D0CECDAA
:10021000CCCBCAC9C7C6C5C3C2C1BFBEBCBBB9B8B7
:10022000B6B4B3B1AFAEACAAA8A7A5A3A19F9E9C3C
:100230009A98969492908E8C8A89878583817F7D07
:100240007B79777573716F6D6B6968666462605EE8
:100250005C5A5957555351504E4C4A4947454342B1
:10026000403E3D3B3A3836353332302F2D2C2A294B
:10027000282625232229002B0001512A005300544F
:1002800000550056005F006000610000005C005DEA
:10029000005E00570059005A005B005800620000E1
:1002A0000063000000010001000100025101000193
:1002B00000010001004A0052004B00000050000104
:1002C000004F0001004D0051004E000100490000A8
:1002D000004C000000005C01000100010001000171
:1002E0000001000100010001000100000001000107
:1002F00000010001000100010001000100010000F7
:1003000000010000000100010001000100010001E6
:1003100000010001000100010001000000010001D6
:1003200000010001000100010001000100010000C6
:10033000000100000005010980A101850319012ABF
:10034000B700150126B700950175108100C0050C96
:100350000901A101850419012AA002150126A002A4
:10036000950175108100C00660FF0961A101096255
:10037000150026FF009520750881020963150026E7
:10038000FF00952075089102C005010906A101052D
:100390000719E029E71500250195087501810295E7
:1003A00001750881030507190029FF150026FF00C4
:1003B000950675088100050819012905950575013F
:1003C0009102950175039103C00A035400720069FC
:1003D00000730000000803540047005200000004AE
:1003E00003090409025B00030100A0FA09040000EC
:1003F000010301010009210101000122400007055C
:100400008103080001090401000203000000092122
:1004100001010001222200070584030800010705ED
:10042000040308000109040200010300000009217F
:1004300001010001223200070583030800011201B7
:10044000100100000008475452540100010200014D
:100450000001010101010101010102020202020287
:10046000020202030303030303030304040404045A
:100470000404050505050506060606060707070721
:100480000708080808090909090A0A0A0B0B0B0CD6
:100490000C0C0D0D0D0E0E0E0F0F0F101011111173
:1004A00012121313141415151616171718181919F4
:1004B0001A1A1B1B1C1D1D1E1E1F20202122222359
:1004C0002424252626272829292A2B2C2D2D2E2F9A
:1004D00030313232333435363738393A3B3C3D3EB1
:1004E0003F404142434445464748494A4C4D4E4FA0
:1004F00050515354555658595A5B5D5E5F61626462
:10050000656668696B6C6D6F7072737577787A7BEE
:100510007D7E8082838587888A8C8E8F9193959645
:10052000989A9C9EA0A2A3A5A7A9ABADAFB1B3B565
:10053000B7BABCBEC0C2C4C6C9CBCDCFD1D4D6D841
:10054000DBDDDFE2E4E7E9EBEEF0F3F5F8FAFDFFDF
:1005500011241FBECFE5D8E0DEBFCDBF04B603FE39
:1005600024C08091820290918302A0918402B09174
:1005700085028730904BA740B04BB9F410928202AD
:1005800010928302109284021092850214BE84B7E6
:10059000877F84BF0FB6F894A89581B5886181BD27
:1005A00011BC0FBEE0E0F8E3099510E0A0E6B0E072
:1005B000E2EFF8E402C005900D92AA3DB107D9F729
:1005C00022E0AAEDB0E001C01D92A238B207E1F727
:1005D0000E942B0C0C9477240C940000A82FB92FA8
:1005E00080E090E041E050EA609530E009C02D9154
:1005F00082279795879510F084279527305EC8F35A
:100600006F5FA8F30895EADF8D939D930895CF93CC
:10061000CFB7CF93C395839BE9F7839B0EC0839B92
:100620000CC0839B0AC0839B08C0839B06C0C091FB
:100630003702C395C0933702A6C0DF93C0915D0215
:10064000DD27C05ADD4F839B02C0DF91E6CF2F9399
:100650000F931F9300B32FEF03FB20F94F933F93AA
:1006600010B34FEF012703FB21F93BE031C04E7F70
:10067000012F10B3216028C0102F4D7F2260000091
:1006800000B329C04B7F2460012F000010B32BC0A2
:1006900010B3477F28602AC04F7E00B320612CC072
:1006A0004F7D10B320622FC04F7B00B3206432C057
:1006B000422700B349934FEF0000102713FB20F9A6
:1006C00010B31C70C9F1297F91F2012703FB21F9B6
:1006D00000B3237F89F2315058F1102713FB22F920
:1006E00010B3277E79F2012703FB23F92F7C81F2D7
:1006F00000B3102713FB24F92F7971F200C010B357
:10070000012703FB25F92F7359F200C000B310270E
:1007100013FB26F9223040F200C010B3012703FB7F
:1007200027F9243028F64F77206810B30000F9CF5E
:1007300010E81ABF00271CC03B503195C31BD040A6
:1007400010E81ABF0881033C11F10B3401F120912C
:100750005B021981110F1213EDCF4A81441F093634
:1007600069F10D3211F0013E29F74F7009F0042FA5
:10077000009336023F914F911F910F912F91DF917E
:10078000CAB7C7FD47CFCF91CFBFCF911895209162
:100790003602222379F310915E02112309F044C03E
:1007A00034300AF443C030935E0220935C0210910F
:1007B0005D023BE0311B30935D0238C000915E0268
:1007C000013094F50AE54F7049F430916E0034FD24
:1007D0002FC000936E00C8E3D2E02EC0433059F022
:1007E000443091F03091430234FD22C00093430223
:1007F000C4E4D2E021C03091760234FD19C00093E8
:100800007602C7E7D2E018C030914F0234FD10C025
:1008100000934F02C0E5D2E00FC02795A8F45150D5
:10082000A9F4220F0000F9CF4AE503C042ED01C050
:10083000432FC4E1D0E032E011B31C60939A11BBA6
:1008400002B320E41CE05F93012756E002BB27952A
:1008500020F4515021F4220FF9CF012756E0000077
:100860003B5A02BBD0F2279528F4515029F4220FAD
:100870000000F9CF012756E0279502BB20F4515024
:1008800021F4220FF9CF012756E02991332302BB2F
:1008900021F6037F10915F02110FC651D04002BBB9
:1008A00011F010935B0210E81ABF086011B3137FB8
:1008B000402F437F5F9100C000C002BB11BB42BB11
:1008C00059CF1F93CF93DF93CDB7DEB767970FB69E
:1008D000F894DEBF0FBECDBF4B8B5C8B6D8B7E8BD8
:1008E0008F8B61111092370186E09E01235F3F4F8D
:1008F000D901E82F1D92EA95E9F795E0FE0173967C
:10090000D90101900D929A95E1F79C894E895F89F2
:100910007B897D879E876F87598B488BF901DE0124
:10092000179601900D928A95E1F7CE0107960E94E5
:10093000F81381113EC086E0FE013796DE01119664
:1009400001900D928A95E1F7FF81E8856A857B85A4
:100950006115710531F0EF3F31F481E0FF3F19F48B
:1009600003C081E001C080E080FD23C0209103012D
:1009700030E0C9010196877099274091340150E019
:100980008417950779F1F983EA837D836C8396E078
:10099000929FD001939FB00D1124AC5FBE4FFE011A
:1009A000319601900D929A95E1F7809303010E9490
:1009B000751316E080913401909103018917F9F0C5
:1009C000189FC00111248C5F9E4F0E94F81388234A
:1009D000B1F08091340190E001968770992780935F
:1009E0003401E8CF0E948221109203011092340159
:1009F000EDEFF0E086E0DF011D928A95E9F767965A
:100A00000FB6F894DEBF0FBECDBFDF91CF911F911F
:100A1000089580FF02C0909A0895909808953F929B
:100A20004F925F926F927F928F929F92AF92BF92FE
:100A3000CF92DF92EF92FF920F931F93CF93DF93AA
:100A4000CDB7DEB729970FB6F894DEBF0FBECDBF86
:100A5000FC018081918123813481232B31F09F3FE0
:100A600031F491E08F3F19F403C091E001C090E0B0
:100A700090FDD9C67F0185E0DE01119601900D92AF
:100A80008A95E1F7F701228189819A81222349F031
:100A90000E94B320182F682F89819A810E940D210E
:100AA00003C00E94E220182F69817A81812F0E9461
:100AB000221E8C01F7018281882309F4F1C098017C
:100AC00022513F452031310508F01EC68FEF93E0DB
:100AD0000E946B238111EDC0025137EE832E912CC1
:100AE000002379F08114F4E09F0609F4E2C0C40108
:100AF0000E946B23811101C001502FEF821A920ACC
:100B0000EFCF1E821F8218861986442443942AE060
:100B1000322E84010F5F1F4FC4010E946B238E830E
:100B20001F82882309F4C5C09FEF980F933060F4AB
:100B30008F834E8232E0830E911CC8010E946B238A
:100B40008887811102C0B5C048018E010A5F1F4F1E
:100B5000F80120812223E9F2213009F04CC0818183
:100B6000813049F46801F2E0CF0ED11CF801828196
:100B70000E9460220AC0823051F46801F2E0CF0E78
:100B8000D11CF80182810E94DA21860186C083305F
:100B900049F46801F2E0CF0ED11CF80182810E9475
:100BA000A221F3CF843019F00F5F1F4F76C0F801F8
:100BB00022810E5F1F4F80E090E030E0205331092A
:100BC0002A30310568F4389EA001399E500D112459
:100BD000C901840F951F0F5F1F4FF8012081EDCFD2
:100BE000009709F45AC0E7EBFBE03197F1F700C03A
:100BF00000000197F5CFE22FF0E0E252FF4F549052
:100C0000822F86958695869590E0FC01E253FF4FF2
:100C100064902770712C022E02C0759467940A9418
:100C2000E2F7F1E06F227724FC01E254FF4FA49039
:100C3000B12C022E02C0B594A7940A94E2F731E0D9
:100C4000A322BB24FC01E255FF4FC490D12C02C06B
:100C5000D594C7942A95E2F781E0C822DD24611477
:100C6000710419F081EE0E94DA21A114B10419F087
:100C700086EE0E94DA21852D0E946022AB2819F0B1
:100C800086EE0E94A221672819F081EE0E94A2211F
:100C9000CD2819F08CE20E9460220F5F1F4F58CFC1
:100CA0000031FFE51F0749F581E00E943B210E94CA
:100CB000DE1A80913501877009F4B5C5F70182818C
:100CC000882309F4B0C582E029960FB6F894DEBFF8
:100CD0000FBECDBFDF91CF911F910F91FF90EF908D
:100CE000DF90CF90BF90AF909F908F907F906F904C
:100CF0005F904F903F900C94581301312FE51207ED
:100D0000A9F482E0D2CF0D3B3CE5130709F40BC5F3
:100D100008F44CC50F3B2CE5120709F43AC508F45A
:100D200063C5003C9CE5190709F40DC5033FFCE5CC
:100D30001F0799F406E221EE40EE63EF7CE509C05F
:100D4000073DECE51E0711F506E221EE41EE67EDE9
:100D50007CE5C7010E949F1DACCF043F2CE5120724
:100D600008F03FC1083D3CE5130731F407E225EEEA
:100D700045EE68ED7CE5EDCF093D9CE5190701F7EF
:100D800008E221E045EE69ED7CE5E3CF882309F434
:100D90005DC110925E0102309CE5190708F440C164
:100DA0000631ECE51E0730F0C8018A5F9C450997C3
:100DB00008F036C10E9485129093DE008093DD001A
:100DC0000031FCE51F0709F4C3C008F041C008303A
:100DD0003CE5130709F49AC0F0F404309CE51907C8
:100DE00009F487C068F40230FCE51F0709F477C0F6
:100DF00003301C4509F0E5C08091DD00826076C0BB
:100E000006303CE5130709F46EC008F07BC0809102
:100E1000DD0088606BC00C309CE5190709F485C0C3
:100E200068F40A30FCE51F0709F474C008F079C0C3
:100E30000E9482218091DD00806858C00E303CE520
:100E4000130709F476C008F07FC08091DD008BC0E5
:100E50000B3F9CE5190709F44FC018F50331FCE579
:100E60001F0709F47DC078F401313CE5130709F44C
:100E700073C002311C4509F0A4C00E9482218091F8
:100E8000DD008F7733C005319CE5190709F472C086
:100E900008F486C00A3F1C4509F093C08091DE002B
:100EA0003EC00F3F2CE5120709F45FC058F40D3F18
:100EB0008CE5180709F444C008F43FC08091DE00B7
:100EC00082602DC00130EDE51E0709F475C008F4FD
:100ED0005DC002301D4509F074C060E06EC08091B5
:100EE000DD00816003C08091DD0080618093DD00C2
:100EF00068C08091DD0011C08091DE008260809327
:100F0000DE005FC08091DD008062F0CF8091DD0067
:100F10008064ECCF8091DD0088608460E7CF8160E1
:100F2000EECF8091DD008E7FE1CF8091DD008D7F5F
:100F3000DDCF8091DD00877FD9CF8091DE0018C0A2
:100F40008091DE008D7FDBCF8091DD008F7ECECF64
:100F50008091DD008F7DCACF8091DD008F7BC6CF71
:100F60008091DD00877F8B7FC1CF8091DE008D7FF8
:100F70008E7FC5CF8091DD0082FB222720F991E092
:100F8000922790FB82F990FB83F9B0CF8091DE002D
:100F9000982F909591708E7F892B90FB81F9AFCF20
:100FA0000E9482218091DD0087FB222720F991E0B9
:100FB000922790FB87F99ACF61E08EE090E00E9443
:100FC0007F236091DD001091DE0084E090E00E94BC
:100FD0007F23612F82E290E00E947F230E94822182
:100FE00068CE053FFCE51F0731F406E221EE42EE34
:100FF00065EF7CE5AECE053F2CE5120730F407E245
:1010000025EE44EE64EF7CE5A4CE063F3CE51307F5
:1010100009F0BCCE07E225EE46EE66EF7CE599CE00
:101020008091380106319CE5190741F58A7A91E0F3
:1010300009F490E09093DC00882311F065E301C08F
:1010400069E285EF90E00E944D1D15C006311C45F8
:1010500009F02DC18091DC00882309F4E2C385E307
:10106000E5EFF0E09281891301C01282319630E001
:10107000EB3FF307B9F70E9411131BCE82720C3CB1
:101080009CE5190709F4C2C008F045C0063CFCE520
:101090001F0709F4A7C0D8F4033C3CE5130709F483
:1010A00097C030F4023CECE51E0709F46CC0CEC0DA
:1010B000043CFCE51F0709F490C0053C2CE5120731
:1010C00009F0C4C043E95EE16CE97EE1A3C0093CDC
:1010D0003CE5130709F490C078F4073CECE51E07E3
:1010E00009F485C0083CFCE51F0709F0AFC047E8DC
:1010F0005EE16BE77EE18EC00A3C2CE5120709F445
:1011000080C00B3C3CE5130709F0A0C04AEC5EE14F
:101110006BED7EE17FC0013D8CE5180709F486C0C8
:10112000A0F40E3CECE51E0709F47AC008F475C083
:101130000F3C2CE5120709F476C0003D3CE513078F
:1011400009F084C06EE089E079C0043D8CE51807A1
:1011500009F472C068F4023DECE51E0709F469C0A9
:10116000033DFCE51F0709F071C061E088E16BC039
:10117000053D2CE5120709F464C00D353DE5130764
:1011800009F497CD63C08091560180FF1BC08E7F0C
:1011900080935601609156017091570180915801DA
:1011A000909159010E94B81E10923F018FEB94ED6F
:1011B000E1E081509040E040E1F700C000000E9473
:1011C000B01777CD81608093560161E086953BC072
:1011D00042E950E26BE970E21DC04BE950E262E97E
:1011E00070E218C04CE95EE163E97EE113C04BE7B1
:1011F0005EE167E87EE10EC043E65EE16FE67EE118
:1012000009C04FE65EE163E67EE104C04BED5EE1BE
:101210006AEC7EE10E94AA174CCD61E081E013C028
:1012200065E082E00BC068E086E008C064E18FE022
:1012300005C067E185E102C062E289E10E9498177A
:1012400038CD61E083E20E94502033CD0A35FDE5C0
:101250001F0741F150F401153CE51307A9F00E3DBD
:101260001C4529F50E94A11224CD0B359DE51907D7
:10127000D9F00C351D45D9F48091DE0082FB88271A
:1012800080F991E0892711C00E948221FFEB27E2BB
:1012900039E0F15020403040E1F700C000000E94EA
:1012A000E81C07CD81E001C080E00E943E13F701F9
:1012B000828100811181882349F0C8010E94B320F6
:1012C000D82E682FC8010E940D2104C0C8010E94B9
:1012D000E220D82EB8018D2D0E94221E0E94FC1003
:1012E0008C01982EF701B280A580A2949FE0A922DC
:1012F00080913501877099F0BB2089F0812F807F24
:10130000803421F080E2800F883048F082E00E9433
:101310005813809135018770DD24D3948111D12C2D
:10132000C12EC2948FE0C8228C2D90E08C309105A4
:1013300008F0B3C1FC01E65DFF4F0C943524812F0A
:10134000807F1F70882311F01295107FBB20B9F0A9
:10135000112309F48EC180E2800F883010F09110C3
:1013600006C080913801182B1093380105C0809178
:101370003701182B109337010E9411137AC1802F67
:101380000E94A221112309F488C1005E1095083043
:1013900010F0911006C08091380118231093380185
:1013A00005C0809137011823109337010E94111353
:1013B00074C1812F807F1F70803211F01295107FD1
:1013C000992021F0F1E09F1611F130C0BB20B1F05F
:1013D000AA2081F021E0A2120DC08091DE0082FDE2
:1013E0005CC180913901182B181709F456C110936C
:1013F000390153C180913901812B10C0AA2021F0FD
:1014000031E0A31609F449C10E940B1327C0BB2089
:1014100041F085E08A1508F440C1812F0E9498218F
:101420003CC194E09A1508F438C118C0BB2049F0BB
:10143000AA2099F3F701858180FF1BC18F708583F6
:10144000ECCFAA2059F0093309F024C1FFEF2DEEAB
:1014500032E0F15020403040E1F71AC1812F0E9464
:101460008D211BC1812F86958695837019F081305F
:1014700059F013C1BB2019F0C801937002C080E07D
:1014800090E00E947D1D11C1BB2019F0C80193702E
:1014900002C080E090E00E94671D07C1812F837029
:1014A000A9F5B110FEC0402F429546954770440FF4
:1014B000440F802F8F7090E09C01042E01C0220FFA
:1014C0000A94EAF704FF08C08FE090E001C0880F9B
:1014D0004A95EAF7809501C080E01695169513703D
:1014E000123069F088F490913A01113019F0822B92
:1014F000892302C0922B892B0E945221D2C0822BB9
:1015000090913A018927F8CF822BF6CFBB2019F0B2
:10151000812F817001C08695882309F4C2C0402FB5
:10152000429546954770440F440F802F8F7090E08E
:101530009C01042E01C0220F0A94EAF704FF08C0A0
:101540008FE090E001C0880F4A95EAF7809501C0CE
:1015500080E0169516951370123059F078F490913A
:101560002402113019F0822B892309C0922B892B78
:1015700006C0822B90912402892701C0822B0E94F1
:1015800037218FC01F70BB2039F0812F0E94472167
:10159000802F0E94982185C0802F0E948D21812F4D
:1015A0000E943B217EC0802F92EF991659F1991528
:1015B00038F0E0EF9E1659F0F1EF9F16F1F055C0AC
:1015C00023EF921631F134EF931681F14EC0BB2018
:1015D00079F084E08A1508F460C01F7181E090E022
:1015E00001C0880F1A95EAF79091240289271BC041
:1015F00095E09A1508F451C0F0CFBB2029F0812F57
:101600008F7126C0BB20D9F3812F8F710E943B219F
:1016100044C0BB2039F01F7181E001C0880F1A95CA
:10162000EAF701C080E00E94372137C0BB2099F063
:101630001F71812F0E9447218091DE0082FD07C02B
:10164000E8E01E9FC0011124836080933501812F43
:101650000E94472122C081E00E945813F1E0FA1550
:10166000E0F482E00E94581318C0BB2031F0AA2099
:1016700031F2802F0E94DA2110C0AA2029F289338A
:1016800049F42FEF3DEE82E0215030408040E1F7F9
:1016900000C00000802F0E94A22188EF8C0D8430B2
:1016A00020F40E94931D0E940905DD2009F4BBC0AF
:1016B0008091350180FDB7C0F7011282859585952F
:1016C00085950E944721C7010E940F058091350131
:1016D00085958595859529960FB6F894DEBF0FBE42
:1016E000CDBFDF91CF911F910F91FF90EF90DF90D1
:1016F000CF90BF90AF909F908F907F906F905F90B2
:101700004F903F900C943B210031EFE51E0711F400
:1017100081E006C00131FFE51F0709F0F4CA82E04D
:101720000E944721C4CA80915B01982F9695969597
:10173000969549F1915E990F990F990F8770892BB2
:1017400080935B0114C090915B01892F86958695EB
:1017500086958F5F8F71843008F05FC0880F880F87
:10176000880F9770892B80935B0180915B01887F44
:1017700091E009F490E080915B0190FB80F9809307
:101780005B010E944F1780915B0186958695869537
:101790000AC080915B0180FF1CC08E7F80935B013B
:1017A0000E944F1780E00E94F01683CA0B3BECE5C5
:1017B0001E0711F483E006C00C3BFCE51F0709F08F
:1017C000B5CA80E00E94541780915B010E944F17B8
:1017D00070CA816080935B01813019F489E0809345
:1017E0005B0180915B01CDCF20915B01822F8695BB
:1017F00086958695482F50E04330510554F48F5F0D
:10180000982F990F990F990F822F8770892B8093AA
:101810005B0180915B018160B2CF977090935B0117
:10182000A4CF89E21DCC29960FB6F894DEBF0FBE77
:10183000CDBFDF91CF911F910F91FF90EF90DF907F
:10184000CF90BF90AF909F908F907F906F905F9060
:101850004F903F900895CF93DF93CDB7DEB72A978F
:101860000FB6F894DEBF0FBECDBF0E94361D909319
:10187000F4008093F30084B7806884BF84B78068E5
:1018800084BF80EA90E19093DB008093DA0085B713
:10189000886085BF8BB780688BBF8BE480934402E0
:1018A00080937702809350028AE58093430280936D
:1018B000760280934F028B9A80E0815041F0A89588
:1018C000E7EBFBE03197F1F700C00000F6CF8B9813
:1018D00078948BE083BF8BEB8CBF82E089BF0E9442
:1018E000D716811102C00E94C8160AE710E0F8015D
:1018F00081918F018F3F11F00E94E510F0E00038D8
:101900001F07A9F700E810E0F80181918F018F3FD0
:1019100011F00E94E510F0E004381F07A9F7EFED81
:10192000F0E085EE90E0ADEEB0E011921D928E17E2
:101930009F07D9F70E949612811102C00E94A1123E
:1019400082E090E00E946B23809326020E94851221
:101950009093DE008093DD000E9499158FE295E759
:101960000197F1F700C000000E9499158091ED00E9
:1019700080FF08C06FEF7FEF80E090E00E949C2323
:101980000E94E81C83E090E00E946B230E94522199
:10199000889A90988C9A949882E28FBD89E18EBD46
:1019A0008FEF9FEF97BD86BD0E946D170E946D1748
:1019B0008091E500811133C00E949612811104C00C
:1019C0000E94A1120E94EC1E88E090E00E94732306
:1019D0006093560170935701809358019093590179
:1019E0006E7F71F40E94EC1E88E090E00E947323E9
:1019F0006093560170935701809358019093590159
:101A00000E94A51E10923F018091560180FF04C0E4
:101A100060E086950E94502081E08093E50080E69A
:101A200090E090936201809361019FEBE4EDF1E01F
:101A30009150E040F040E1F700C0000093E0692ED3
:101A4000712CEE24EA94F12C3EE5C32E31E0D32E26
:101A5000809137028823B9F0109237020E94361D18
:101A60009093F4008093F30080916501882389F1BD
:101A7000109265010E9482210E946D170E94931DA1
:101A80000E94090511C080916501811111C08091EA
:101A9000F3009091F4000E94271D069728F081E042
:101AA000809365010E94421D80916501882389F021
:101AB00081E0809365010E94421D0E949915EDEE20
:101AC000F0E08191811115C320E0E33FF207C9F7EF
:101AD000BFCF0E94E91A80911C02882309F4FAC042
:101AE0008091430284FFF6C00E949915882359F023
:101AF0008FB7F89440916601509167016091680139
:101B0000709169018FBFA7EEB0E0EDEEF0E000E06C
:101B100010E0302F21919D91922721F180E0BB248C
:101B2000B394492F4B21D1F089833A832B2181E053
:101B300009F480E08B830E94361D8160782F9D839D
:101B40008C8349815A816B818D810E946104F801E7
:101B5000E951FF4F8081B826B08219C08F5FBB0C5E
:101B60008430F9F60F5F1F4F0630110591F68FEFA5
:101B70008E838F8318860E94361D8160782F9A8706
:101B800089874E815F8168858A850E946104809182
:101B90003F01882309F492C080913E01E0915601F3
:101BA000E695E81BE0932902823059F4F0E0E4590D
:101BB000FE4FE4910E2F10E080E7A82E86E1B82EAC
:101BC00058C0863059F4F0E0E759FE4FE4910E2FEB
:101BD00010E0B0E6AB2EB6E1BB2E4BC0893061F40D
:101BE000E695F0E0EA59FE4FE4910E2F10E0A0E5F3
:101BF000AA2EA9E1BA2E3DC08F3061F4E695F0E03F
:101C0000ED59FE4FE4910E2F10E0F3EEAF2EF8E108
:101C1000BF2E2FC0853159F4F0E0E05AFE4FE49119
:101C20000E2F10E0E5E9AE2EE8E1BE2E22C088318D
:101C300099F0833241F4F601059114917BE8A72EC7
:101C400079E1B72E16C0843271F000ED17E06FE530
:101C5000A62E66E1B62E0DC008E210E05CE0A52ECF
:101C600058E1B52E06C004EF11E042EDA42E47E185
:101C7000B42E80912A02882361F010922A020E94D9
:101C8000361D909328028093270210922C02109206
:101C90002B020E94361DE0912702F09128028E1B34
:101CA0009F0B8F3F9F4750F40E0F1F1F109328026A
:101CB0000093270287E292E0F50109950E94931DA7
:101CC0009091E600891731F00E94931D8093E60001
:101CD0000E9409050E948D1C0E94E91A80911C0235
:101CE000882309F4B5CE8091760284FFB1CE80912D
:101CF0001202803209F0ACCEE091F2018E2F90E01A
:101D0000FC013197E331F10508F0CAC1EA5CFF4FED
:101D10000C9435241092F30189E005C18091F30100
:101D2000823009F400C2833099F0813009F0B8C1E3
:101D30002FB7F8948091660190916701A091680196
:101D4000B09169012FBFB093F401A093F50133C0A6
:101D50008091ED008093F4018091EE008093F50175
:101D60008091EF008093F6018091F0008093F7015D
:101D70008091F1008093F8018091F2008093F90145
:101D800092C18091F301823009F08AC16091F4011F
:101D90007091F5018091F6019091F7010E943B242A
:101DA00086E290E02DC04091F5016091F4018091B0
:101DB000F3010E9484169093F601BFC1A090F60132
:101DC000B090F701BA24AB24BA248091F5010091B8
:101DD000F4019091F301F8E00F9F8001112420E3BA
:101DE000929F000D111D1124080F111D080F111DC8
:101DF0006B2DC80187960E947F236A2DC8018896A3
:101E00000E947F2350C10E942F1E4DC18091F3017B
:101E1000893061F48091F40133E0839FC001112483
:101E2000B7010E945723862F0E9454178091F30117
:101E30008138C9F058F4803809F035C120E040916C
:101E4000F401609158018091570136C0823879F1D0
:101E5000833809F028C120E0409159016091F501D3
:101E60008091F40129C060E08091F4010E9450202B
:101E70009091F40180915601911111C08E7F809351
:101E8000560110923F014FEB84ED91E041508040AC
:101E90009040E1F700C000000E94B01704C18160CB
:101EA0008093560160E086950E945020FCC080918E
:101EB000F40180935A01F7C00E94CB19F4C08091BD
:101EC000F301893029F08A3091F41092F401EBC0CB
:101ED00080915B01869586958695EFEF8E9FC00178
:101EE0001124B3010E9457236093F401DCC08138B0
:101EF000A9F030F4803809F0D6C08091590113C0A0
:101F00008238B1F0833809F0CEC0809157018093B8
:101F1000F401809158018093F501C5C0809156016C
:101F200080FF04C086958093F401BDC080E0FBCFA4
:101F300080915A01F8CF80915B010E944F17609108
:101F400056017091570180915801909159010E945A
:101F5000B81EA9C080E158C083E08093F30189E1F5
:101F6000E2CF0091F3011091F4011027012710270F
:101F70008090F501912C32EFA32E31E0B32EC801F1
:101F800089519F4F9501225F31402815390508F08E
:101F90008AC00931F3E01F0728F40E946B23F50182
:101FA000848302C0F50114820F5F1F4FFFEFAF1A49
:101FB000BF0AE5CF0091F3011091F401102701272A
:101FC00010278090F501912C22EFA22E21E0B22E55
:101FD000C80189519F4F9501225F3140281539056D
:101FE00008F061C0093123E0120720F4F501648193
:101FF0000E947F230F5F1F4FFFEFAF1ABF0AE8CF8A
:102000000E94121E50C084E08093F3014CC00091E6
:10201000F3011091F4011027012710278090F5019A
:10202000912C92EFA92E91E0B92EC80187969501C7
:10203000225F314028153905B0F5003C110528F420
:102040000E946B23F501848302C0F50114820F5FA7
:102050001F4FFFEFAF1ABF0AE8CF0091F3011091B5
:10206000F4011027012710278090F501912C82EFB1
:10207000A82E81E0B82EC80187969501225F3140D5
:102080002815390580F4003C110520F4F501648120
:102090000E947F230F5F1F4FFFEFAF1ABF0AEBCFE6
:1020A0008FEF8093F20102EF11E080914F0284FDE7
:1020B00003C00E94E91AF9CF4FE452E068E0C8017A
:1020C0000E94401C085F1F4F22E00231120769F78F
:1020D00080914F0284FD03C00E94E91AF9CF4FE4BA
:1020E00052E060E080E090E00E94401C10921202FA
:1020F000AFCCF89421B3939A822F8C6081BB92B3BA
:102100008CE0982792BB3FE54AEE90E0315040408A
:102110009040E1F700C0000092B3892782BB21BB49
:102120009398789495CC86E290E00E946B2310926D
:10213000F4011092F5011092F6018093F701B3CFEC
:1021400080E008959091DD0092FF0DC0282F287146
:10215000283019F4877F846006C0282F247124302A
:1021600011F48B7F886093FF0DC0282F28712831D0
:1021700019F4877E846106C0282F2471243111F45C
:102180008B7E88612091DE0020FF0DC0382F3871D2
:10219000383019F4877F816006C0382F31713130B3
:1021A00011F48E7F886021FF0DC0282F28712831FF
:1021B00019F4877E816106C0282F2171213111F425
:1021C0008E7E886194FD877E0895F894E82FE295CD
:1021D000EF70F0E031A9282F2F7081E090E001C06E
:1021E000880F2A95EAF7982F9095932391AB92A99F
:1021F000892B82AB78940895CF93DF938238910531
:1022000069F1B0F48133910509F46FC048F4893263
:10221000910509F465C08A32910509F46BC08AC042
:102220008533910509F457C089339105B9F082C00F
:10223000833E910571F138F4803E9105B1F0823E04
:10224000910511F177C0863E9105B9F1873E910560
:10225000C9F1843E910509F06DC024C02091DD00D4
:1022600020FD53C021FD51C065C08091DD0080FD7F
:1022700046C08091DE0080FF48C08091DD0084FD73
:102280003FC183EE90E03EC18091DD0082FF3AC005
:10229000F4CF8091DD0082FD35C08091DE0080FDAD
:1022A00034C0EBCF8091DE0081FF35C08091DD002E
:1022B00084FD26C187EE90E025C18091DD0083FF7B
:1022C00027C0F4CF8091DD0083FD22C08091DE0025
:1022D00081FD21C0EBCF8091DD0085FD1FC021C0B5
:1022E0008091DD0085FD1DC019C08091DD0086FD57
:1022F0001BC01DC08091DD0086FD19C015C089E39B
:1023000090E000C182EE90E0FDC080EE90E0FAC067
:1023100086EE90E0F7C084EE90E0F4C089E290E0B1
:10232000F1C085E390E0EEC08AE290E0EBC081E38B
:1023300090E0E8C0811532E5930708F069C0811587
:1023400041E5940728F0982F8827816F906ADAC0BA
:10235000883E910568F5803E910508F0D3C0883A23
:102360009105B8F4853A910548F0855AE82FF0E0D8
:10237000EC57FF4F808190E09064C4C0813091059C
:1023800009F4BBC008F4BCC08430910508F4B8C09F
:10239000B9C08F3B910508F0B3C0885AE82FF0E030
:1023A000EE0FFF1FE957FF4F808191819464AAC00F
:1023B000811520E59207F0F09C0174E03695279591
:1023C0007A95E1F7922F9370482F437021E030E027
:1023D00002C0220F331F4A95E2F73C68392B8F70F9
:1023E000982F9695969540E2949FC0011124822BD8
:1023F000932B88C0811530E4930718F09F70906A82
:1024000081C09C013A9521153F4108F47BC078C0FA
:10241000EC01C11586E5D807E8F5C11525E5D20719
:1024200048F08C2F0E94A2108F7190E0982F88277F
:10243000906268C0C11534E5D30728F09C2F882727
:10244000846F906A5FC0AE01437055272C2F26958C
:102450002695C115D34578F481E090E002C0880F3D
:10246000991F4A95E2F740E2249F90011124822BA4
:10247000932B9C6847C081E090E002C0880F991FB1
:102480004A95E2F740E2249F90011124822B932B7E
:102490009A6838C0C1152AE5D207F8F4C11539E5A4
:1024A000D30790F08C2F8F700E94A21094E0D695E5
:1024B000C7959A95E1F7CF70D0E0DC2FCC27D06993
:1024C0009E01282BC9011EC0C11548E5D407C0F0E4
:1024D0009C2F8827806F906A15C0CE019056811579
:1024E000904270F48D2F8F710E94A210282F2F71AF
:1024F000CE0199279062922B05C081E090E002C046
:1025000080E090E0DF91CF910895CF9384E090E058
:102510000E946B23C82F82E290E00E946B232C2F35
:1025200030E0A901582BCA01CF91089580E090E0D6
:102530000E947923893E9E4F11F40C94D71680E0B7
:10254000089569EE7EEF80E090E00E949C2360E0B9
:1025500082E090E00E947F2360E083E090E00E94B0
:102560007F2310923A0160E084E090E00E947F2394
:1025700060E082E290E00E947F2360E085E090E0EE
:102580000E947F2360E086E090E00E947F236FEF4F
:1025900087E090E00E947F2340E050E0BA0188E0AD
:1025A00090E00E94902360E08DE090E00E947F2305
:1025B00040E050E0BA0188E190E00E94902360E0A2
:1025C00087E190E00E947F2340E050E0BA018CE177
:1025D00090E00E94902360E070E080E290E00E9432
:1025E0009C2340E050E0BA0188E190E00E949023F3
:1025F00080E00E94AA160E94C81640E050E0BA018E
:102600008FE090E00E94902340E050E0BA0183E127
:1026100090E00C949023809139018111109239013E
:1026200008959091380180913701892B20913601CE
:10263000982F922B9093F50080913901882389F08F
:10264000892B8093F500E7EFF0E097E080E0915070
:1026500029F021912223D9F38F5FF9CF81110E94B4
:102660000B13E0916101F0916201309731F002802B
:10267000F381E02D85EF90E009940895CF93C09108
:10268000DE00C2FB992790F9981781F080FBC2F910
:10269000C093DE006091DD0084E090E00E947F2323
:1026A0006C2F82E290E0CF910C947F23CF9108951C
:1026B000209135018095822380933501982F977062
:1026C00041F430E0482F082E000C550B2417350735
:1026D00021F49091DE0092FF07C085958595859540
:1026E0000E943B2110923501089580913401909110
:1026F0000301891719F08F5F8770FBCF08950F933F
:102700001F93CF93DF938091020182958F7009F020
:102710005DC08091FF00882309F458C08091340186
:10272000109103016091FD007091FE00C0910001C5
:10273000D091010191E06F3F09F090E0292F06E070
:10274000811709F443C0209721F07F3F21F030E04A
:1027500003C031E001C0322F90E030FD34C0089F4B
:10276000F001099FF00D1124DF01AC5FBE4F1196FF
:102770003C911197371327C03C91361324C0129611
:102780003C91129731111FC013964D915C91149793
:102790004C1B5D0B483C5105B0F4809102018F70D9
:1027A000806180930201E75FFE4F80818F708061BE
:1027B00080838DEF90E00E940F05DF91CF911F91F4
:1027C0000F910C94751301968770BACFDF91CF915A
:1027D0001F910F910895CF93DF93EC010E94B320D6
:1027E000BE010E94221E0E94FC10DF91CF9108952D
:1027F0009F92AF92BF92CF92DF92EF92FF920F9390
:102800001F93CF93DF93CDB7DEB761970FB6F894E0
:10281000DEBF0FBECDBF8C0185E0F801DE011D9645
:1028200001900D928A95E1F7F801E2809091FD0008
:102830006091FE0040910001509101014115510548
:1028400031F06F3F31F481E09F3F19F403C081E024
:1028500001C080E0F82FF1709F2E80FD1AC1F801B1
:1028600030812181C380D4808DEFA82E80E0B82EE6
:10287000F090FF00F601E41BF50BFF2009F4C6C041
:1028800080910201E83CF10508F091C0482F407F9B
:1028900009F050C0621311C093130FC0FE2CE11059
:1028A0000CC08F70806180930201C5010E940F05EA
:1028B00080910201F801858329C1CD2831F02F3F95
:1028C00031F481E03F3F19F403C081E001C080E0B2
:1028D00080FD03C081E08E2502C080E090E0F82FEB
:1028E000F170FF2E80FF1CC08091340140910301E4
:1028F00056E0841709F4E8C090E0589FF001599F12
:10290000F00D1124EC5FFE4F6181261306C060813B
:10291000631303C06281E61203C001968770E9CF9A
:10292000FE2CEE2009F4F2C08091020181608093B8
:10293000020149C0621306C0931304C0E11002C033
:10294000F80186C0C8010E945621882351F1EE206B
:1029500041F120910201822F82958F7090E00297C1
:1029600074F08091FD009091FE0098878F83198606
:10297000DB86CA862C87CE0107960E940F0586E06B
:10298000F801ADEFB0E001900D928A95E1F70E9459
:102990007F130AC06217C9F0C8010E945621811135
:1029A0001EC0C8010E940F05FF24F394AFC0482F3A
:1029B000407F81F78DEF90E00E940F0586E0F501E2
:1029C00011928A95E9F7F12CA1C09313E5CFE1109C
:1029D000E3CFF8018583C8010E940F0554C0EE20A3
:1029E00001F320910201822F82958F7090E002976F
:1029F00034F28091FD009091FE009A8389831B82BE
:102A0000DD82CC822E83CE010196B7CFE83CF10562
:102A1000D0F5FE2CEE2029F2621327C0931325C0B7
:102A20002091020120FD18C0822F82958F70482FBF
:102A300050E04115510581F0F80125834F305105D3
:102A400041F08F5F982F9295907F822F8F70892B06
:102A50008583C8010E940F0586E0F801ADEFB0E064
:102A600001900D928A95E1F751C0C8010E9456214C
:102A7000811185CF80910201816080930201C8019C
:102A80000E940F0543C086E0F50111928A95E9F78F
:102A90003DC0EE2009F485CFC8010E945621F82ED2
:102AA000882309F47ECF86E0F801ADEFB0E0019015
:102AB0000D928A95E1F78091FD009091FE000E94B1
:102AC000EB130E947F1322C03D872E878D859E8544
:102AD0000E94EB13292F22952F70223028F49F702B
:102AE00039F0811105C00BC0243028F49F7049F4DF
:102AF000805E883020F0C8010E940F059F2CF92CC1
:102B000005C0F8019581907F99F7F9CF8F2D6196D7
:102B10000FB6F894DEBF0FBECDBFDF91CF911F91EE
:102B20000F91FF90EF90DF90CF90BF90AF909F906C
:102B300008957F928F929F92AF92BF92CF92DF9231
:102B4000EF92FF920F931F93CF93DF9300D000D0AB
:102B500000D0CDB7DEB7AE014F5F5F4F7A0186E0A0
:102B6000DA011D928A95E9F70AE710E06A0180E828
:102B7000882E80E0982EAA24A394B12CF80180819D
:102B80008F3F09F448C0F894E82FE295EF70F0E029
:102B900021A98F70A50102C0440F551F8A95E2F745
:102BA000CA01922F982B91AB92A98095892382AB71
:102BB000789400C0E0E8F0E020E030E0712C8191F2
:102BC0008F3FB9F0A82FA295AF70B0E0D0964C918E
:102BD00050E08F70DA0102C0B595A7958A95E2F7AB
:102BE000A0FD07C08A2D022E01C0880F0A94EAF7C3
:102BF00001C080E0782A2F5F3F4F24303105F9F67D
:102C0000F80180818F3F11F00E94E510F8E7FA95F6
:102C1000F1F7D6017C920F5F1F4FBFEFCB1ADB0A93
:102C20008016910609F0AACF46E050E0B7018FED7B
:102C300090E00E946A2411E0009709F410E0892BCB
:102C400089F086E0F701AFEDB0E001900D928A9532
:102C5000E1F781E080933D010E94361D90933C0195
:102C600080933B0180913D018823A1F080913B013D
:102C700090913C010E94271D059760F0EFEDF0E078
:102C8000ADEEB0E081918D9340E0E53EF407D1F7E1
:102C900010923D01812F26960FB6F894DEBF0FBE2D
:102CA000CDBFDF91CF911F910F91FF90EF90DF90FB
:102CB000CF90BF90AF909F908F907F900895089590
:102CC000CF93DF93EC01E6E5F1E0438162818C81F3
:102CD0000E94911F8C818F5F8C83DF91CF9108952B
:102CE000CF93DF93EC01EC81F0E0EB58FE4F449181
:102CF000E6E5F1E0628181810E94911F8C818F5F06
:102D00008C83DF91CF9108950F931F93CF93DF931F
:102D1000C42FD0E0CC0FDD1F28E0629FC00DD11D75
:102D2000112430E3839FC00DD11D1124CE0187965D
:102D30000E946B23082F10E0102F0027CE018896E9
:102D40000E946B239801282BC901DF91CF911F911D
:102D50000F910895CF93C82F811102C06FEF01C06A
:102D600061E283E290E00E947F23C11102C06FEF15
:102D700001C060E184E290E00E947F23C11102C0A3
:102D80006FEF01C060E185E290E0CF910C947F236A
:102D900080E00E94AA1660E086E290E00E947F2315
:102DA0000E942F1E0E94121E81E00C94AA1683E23C
:102DB00090E00E946B23813281F484E290E00E94D3
:102DC0006B23803151F485E290E00E946B2391E007
:102DD000803109F090E0892F01C080E08170089572
:102DE000CF92DF92EF92FF92843038F4811106C0C7
:102DF0009FB59F7D9FBD949804C083E09FB590626E
:102E00009FBD282F30E0AFEFBFEF0E94F42323E0F7
:102E100030E040E050E00E94D223B42FA32F922F45
:102E20008827492F5A2F6B2F7727CA014C3724E167
:102E3000520728F469E070E00E94572329C0DB01A3
:102E4000CA018A50974DAF4FBF4F6627782F892F01
:102E50009A2F25EF38E241E050E00E94D223690129
:102E60007A01CA01B9010E9403249B01AC01C70188
:102E7000B6010E940324BB27A92F982F872F009704
:102E800021E0A207B10511F0BC0102C06FEF7FEF96
:102E900079BD68BDFF90EF90DF90CF900895682FC7
:102EA00086E090E00C947F23843008F083E09091DA
:102EB0005B019770282F220F220F220F922B9093E5
:102EC0005B01987F21E009F420E090915B0120FBF9
:102ED00090F990935B010C94F0160E949612811168
:102EE0000AC00E94A11280915B0184708961809365
:102EF0005B010E944F1786E090E00E946B23809355
:102F00005B01282F26952695269530E02430310543
:102F100024F08770886180935B0180915B0180FF62
:102F200004C086958695869501C080E00C94F016C5
:102F30009091560190FF04C09695981740F003C0F9
:102F4000811105C090E0961710F40C949B2061E06D
:102F50000C945020882311F0FA0101C0FB01099460
:102F60008091560180FF0AC080914001811111C0FB
:102F70000E947E2281E0809340010BC0E4E4F1E0F6
:102F8000118210821282339681E0E635F807C1F78C
:102F9000EBCF24E630E042E150E064E471E080EB06
:102FA0000C943123EF92FF920F931F93CF93DF93F3
:102FB0008C01C4E4D1E0E12CF12CF8018481F3E030
:102FC000EF16F1041CF4882339F002C0811104C00B
:102FD0009E014091590102C09E0140E0609158015C
:102FE000809157010E94FB1E8FEFE81AF80A239682
:102FF00096E0E916F10409F70E94B017F801848100
:1030000090E00196817099278483DF91CF911F9181
:103010000F91FF90EF9008958F929F92AF92BF9281
:10302000CF92DF92EF92FF920F931F93CF93DF9394
:10303000EC014C81042F10E09801D8010E94F42388
:103040009B01AC010E94BF236B017C01E0E2F0E038
:10305000E01BF10BA5E5B0E09B01AC010E94BF2392
:103060004B015C019F01DF010E9442249B01AC01E6
:103070000E94CA239B01AC012C0D3D1D4E1D5F1DFE
:10308000C501B4010E94D223822FF22E99E2921739
:1030900028F093E0299F900111240DC025E530E030
:1030A000281B3109C901880F991F280F391F37FFC5
:1030B00002C02F5F3F4F35952795122F109594E44E
:1030C000C92E91E0D92E00E085E5E82EEF1801FD2C
:1030D00002C08E2D01C08F2D9601412F60915801A5
:1030E0000E94FB1E0F5F83E0C80ED11C063079F7EB
:1030F0000E94B0178C81811102C091E003C0803220
:1031000019F49FEF90936C0090916C00890F8C8361
:10311000DF91CF911F910F91FF90EF90DF90CF90B3
:10312000BF90AF909F908F9008950F931F93CF9370
:10313000DF93C4E4D1E0FE01118210821282339643
:1031400081E0E635F807C1F700E010E08091420128
:10315000082E000C990B0817190794F080916B004A
:10316000082E000C990B8017910754F09E01409196
:10317000590160915801809157010E94FB1E03C0C4
:10318000198218821A820F5F1F4F2396063011058D
:10319000E9F60E94B01780916A0090914201980F61
:1031A0009093420120916B00280F20936B00121620
:1031B00014F495301CF0819580936A00DF91CF91D3
:1031C0001F910F910895BF92CF92DF92EF92FF92DD
:1031D0000F931F93CF93DF93FC01828180FF03C085
:1031E000DD24DA9402C0DD24D39404E411E0C0E0CD
:1031F000D0E026E0B22EF80111821082128294E013
:10320000E92EF12CC12C809141018C0D87302CF0DE
:103210006B2D0E941324892F02C087FD8A5F082E20
:10322000000C990BC817D90791F4809159018E9D14
:10323000A0018F9D500D11245595479555954795A3
:10324000980160915801809157010E94FB1ECD0C9E
:10325000F1E0EF1AF108B9F621960D5F1F4FC63065
:10326000D10549F60E94B0178091410191E0D91231
:1032700006C0811102C085E007C0815005C090E002
:103280000196BE010E94212480934101DF91CF91DC
:103290001F910F91FF90EF90DF90CF90BF90089516
:1032A000EF92FF921F93CF93DF93EC0184E4E82E1B
:1032B00081E0F82E10E08C819701409159016091D6
:1032C0005801810F0E94FB1E165D83E0E80EF11C81
:1032D0001C3F89F70E94B0179A818C8190FF02C031
:1032E0008F5F01C081508C83DF91CF911F91FF9040
:1032F000EF9008959091560190FF0CC0E4E4F1E046
:10330000818360834283339691E0E635F907C1F704
:103310000C94B01708950F931F93CF93DF9300D0B1
:103320001F92CDB7DEB78C018091430181110AC095
:103330009E012F5F3F4F4FEF6FEF0E94FB1E8A8170
:1033400080934301F8018481813051F028F082306C
:1033500061F4409143010AC08091430140E007C0FD
:103360006091430140E080E003C040E080E060E025
:103370000E947A19F801848190E0019663E070E080
:103380000E94212484830F900F900F90DF91CF91A2
:103390001F910F9108955F926F927F928F929F92EB
:1033A000AF92BF92CF92DF92EF92FF920F931F9353
:1033B000CF93DF9300D01F92CDB7DEB7182F762EB4
:1033C000042F622E9091560190FF6DC0E92FE69573
:1033D000AE2FB0E0AB54BF4F8C9180933E019E7FE7
:1033E000923061F49E012F5F3F4F812F0E94FB1EA0
:1033F0004B8169818A810E947A1943C0823019F415
:10340000009159013EC0863019F41091570139C01E
:103410008930D9F38931A9F5E9518E2F8170582E61
:10342000E695F0E0E059FE4FA590B49084E4C82EF4
:1034300081E0D82EE12CF12CBB2496E0892E912C32
:10344000AE9CC001AF9C900DBE9C900D1124B401A8
:103450000E945723812F511002C0860F01C0861B86
:103460009601402F672D0E94FB1E8FEFE81AF80A85
:1034700083E0C80ED11C86E0E816F10409F70E942B
:10348000B0171093570170925801009359016620AC
:1034900051F06091560170915701809158019091BF
:1034A00059010E94B81E0F900F900F90DF91CF919D
:1034B0001F910F91FF90EF90DF90CF90BF90AF9052
:1034C0009F908F907F906F905F900895FC01938103
:1034D0009330D9F068F4913081F0923009F068C0EF
:1034E00083EE93E090932302809322028BE508956C
:1034F000913251F19232E1F15BC08EE394E090930E
:1035000023028093220282E1089582818130A1F01A
:1035100058F0823009F04CC089EC93E0909323027C
:10352000809322028AE008958FED93E09093230226
:103530008093220284E0089585ED93E09093230226
:103540008093220288E008958281813049F028F03A
:10355000823071F58EE294E005C085EF93E002C001
:103560008EE094E0909323028093220289E00895F4
:10357000848195818130910599F050F00297C1F4D2
:1035800085E393E0909323028093220282E30895DF
:1035900089E893E0909323028093220280E40895C7
:1035A00087E693E0909323028093220282E20895BB
:1035B00080E00895089580911D020895809124026D
:1035C000982F9670963011F4886001C0877F0C9414
:1035D0003721CF93DF9380915E02835087FDE4C053
:1035E00090915D02CCE0D0E0C91BD109C05ADD4FFB
:1035F00090915C029031D0F4883019F01092120250
:10360000D1C080911202E82FF0E0E931F105B4F762
:10361000EE50FE4F9E01285F3F4F999191932C17DA
:103620003D07D9F7885F80931202BCC09D3209F034
:10363000A0C0883009F0B6C083EC809338028AE5D8
:1036400080936E001092210288818076D9F18032B9
:1036500009F084C08981813069F48C819D81892B36
:1036600009F07CC084E192E09093230280932202CF
:1036700088E075C0823041F483E192E090932302A8
:103680008093220281E06BC08A3021F48B81809389
:10369000130264C0893009F061C08A819B81811561
:1036A000924009F0DCC08C819D81892B09F0D7C044
:1036B00081E0809320028E819F8190931F028093EE
:1036C0001E02CDC09A81109241028981811106C0EB
:1036D0001092420221E432E082E03BC0853019F4CE
:1036E00090935F0233C08630B9F48B81813041F012
:1036F000823031F0833021F0813211F0823221F4B6
:10370000CE010E94661A01C080E090E490932102ED
:103710008F3F09F4A4C023C0883089F0893019F4A0
:1037200090931C0213C08A3069F08B3079F48BE4DB
:1037300080934402809377028093500207C02CE16B
:1037400032E002C021E432E081E003C021E432E053
:1037500080E0309323022093220201C080E09F8109
:10376000911104C09E81981708F4892F80936D00F1
:1037700019C08091210287FF15C080911E0290918F
:103780001F02892B09F475C080912002813009F055
:1037900070C0888180931D0210921F0210921E0239
:1037A00010926D0010925E0280916E0084FF4CC0FA
:1037B00080916D008F3F09F447C0C82F893008F011
:1037C000C8E08C1B80936D009091380288E88927AF
:1037D00080933802CC2359F18091220290912302E8
:1037E0002091210226FF12C0A8E3B2E02C2FAC01E9
:1037F00048535240FA01EA0FFB1FE4911196EC93F3
:103800001197215011962111F5CF08C0E9E3F2E09C
:10381000DC012C2F3D9131932150E1F701962FEFE0
:103820002C0F820F911D90932302809322026C2F04
:1038300089E392E00E940303CC5FCC3019F08FEF54
:1038400080936D00C0936E0084E190B39C70A9F4E6
:103850008150D9F710925F0210925B020EC08881EE
:1038600087FF05C08E8190E8909321027FCF8FEF74
:10387000FACF8EE180936E0095CFDF91CF910895BE
:103880001F93CF93DF93162FEA01288124FF05C0F1
:10389000398128E82327298302C02AE52883212F9C
:1038A000FC01CE010296DC0131913D9321501216AC
:1038B000DCF3612F0E9403031C5F1883DF91CF911B
:1038C0001F9108959091F101981307C02091EF0185
:1038D0003091F00126173707B9F08093F10170930A
:1038E000F0016093EF018093EC017093EE0160931F
:1038F000ED018091760284FF07C046E752E063E065
:103900008CEE91E00C94401C0895BC0184E00C9472
:10391000621CBC0183E00C94621CCF93DF93CAE06D
:10392000D0E08091430284FF1AC08091EA01909117
:10393000EB019817F1F028E0829FC001112443E4C5
:1039400052E068E086599E4F0E94401C8091EA0137
:1039500090E001968F7099278093EA010AC00E9437
:10396000E91A87EB9BE00197F1F700C0000021976F
:10397000C1F6DF91CF910895CF93DF93EC01A09131
:10398000EB01B0E0CD0101968F7099272091EA01FB
:10399000281779F093E0AA0FBB1F9A95E1F7A65973
:1039A000BE4F98E0FE0101900D929A95E1F7809349
:1039B000EB010E94E91A0E948D1C88E0FE01A4E13F
:1039C000B2E001900D928A95E1F7DF91CF910895D1
:1039D00060E081E090E00E94A22387E090EBDC01B0
:1039E0008093820290938302A0938402B093850215
:1039F0009CE088E10FB6F894A89581BD0FBE91BDFB
:103A0000FFCF78941F920F920FB60F9211248F93CD
:103A10009F93AF93BF938091660190916701A091AE
:103A20006801B09169010196A11DB11D80936601E5
:103A300090936701A0936801B0936901BF91AF9122
:103A40009F918F910F900FBE0F901F9018959C0122
:103A50004FB7F8948091660190916701A091680139
:103A6000B09169014FBF821B930B08952FB7F89453
:103A70008091660190916701A0916801B091690100
:103A80002FBF089580916501882331F080E00E9466
:103A9000F01680E00C94090508959C01FC01329613
:103AA0009FEF80E04191461789F09F3F19F4411143
:103AB00001C0982F8F5F8630A9F79F3F39F0F90139
:103AC000E90FF11D97FDFA956283089508952091FD
:103AD0006301309164012817390771F090936401F4
:103AE00080936301E0916101F0916201309721F0D0
:103AF0000084F185E02D0994089520915F013091B3
:103B000060012817390771F09093600180935F017D
:103B1000E0916101F0916201309721F00680F78118
:103B2000E02D09940895E0916101F09162013097D0
:103B300021F00190F081E02D099480E008950F9329
:103B40001F93CF93DF93C42FD22FFC018281882350
:103B5000C9F040935E010E94361D90935D018093F1
:103B60005C0180E28C0F883008F057C0C77081E09C
:103B700001C0880FCA95EAF7DF91CF911F910F918D
:103B80000C94982180915E01481330C080915C01B3
:103B900090915D010E94271D883C910538F510E247
:103BA0001D0FCD17B9F080E28C0F883040F4C7703C
:103BB00081E001C0880FCA95EAF70E948D21183074
:103BC00028F581E09D2F977001C0880F9A95EAF73C
:103BD0000E949821802F0E9460221830F0F4D77044
:103BE00081E001C0880FDA95EAF70AC080E28C0F05
:103BF000883098F4C77081E001C0880FCA95EAF751
:103C0000DF91CF911F910F910C948D21802FDF9127
:103C1000CF911F910F910C946022DF91CF911F9152
:103C20000F910895CF93DF93C7EED0E060E0CE010F
:103C30000E947F232196C11584E0D807B9F7DF9150
:103C4000CF910895462F843038F4763028F46430CC
:103C500018F4672F0C94841680E090E00895CF92BA
:103C6000DF92EF92FF920F931F93CF93DF93C0E009
:103C7000D0E08E01005D1F4F6E0188E0C80ED11CA0
:103C8000FE01EB58FD4FE590F4906F2DCE01879625
:103C90000E947F236E2DCE0188960E947F2322965C
:103CA000CC15DD0569F70C171D0731F7E801003C5D
:103CB0001105F9F6DF91CF911F910F91FF90EF90D1
:103CC000DF90CF900895E6E5F1E0438121E1421BCA
:103CD00008F440E021E0628181810C94CB19E6E593
:103CE000F1E0438121E1420F08F44FEF21E06281CE
:103CF00081810C94CB19E6E5F1E0628121E1621B40
:103D000008F460E021E0438181810C94CB19E6E561
:103D1000F1E0628121E1620F08F46FEF21E043815D
:103D200081810C94CB19E6E5F1E0818121E04381AA
:103D3000628188500C94CB19E6E5F1E0818121E0A5
:103D400043816281885F0C94CB1980915601282FA2
:103D5000269530E02115310519F48170826005C087
:103D60002532310524F081708864809356010895CE
:103D7000CF92DF92EF92FF926B017C010E94A51E11
:103D8000B701A60188E090E0FF90EF90DF90CF9020
:103D90000C94902380915A01882319F081508093CC
:103DA0005A0160915601709157018091580190918C
:103DB00059010C94B81E80915A01833018F48F5F1A
:103DC00080935A016091560170915701809158017A
:103DD000909159010C94B81EE6E5F1E083E08083F0
:103DE00011828FEF8283838314826081718182814B
:103DF00093810C94B81EAF92BF92CF92DF92EF9254
:103E0000FF920F931F93CF93DF93E82EF62EE901D5
:103E1000E42FF0E0611106C0E05BFB4FE4914E2F10
:103E20002E2F71C0062F10E0E05BFB4F4491F42F62
:103E3000C42ED12C26E0829FC00111242FEF30E048
:103E4000B9010E9457235BEA5603C001579F900DAA
:103E500011248E0D911D8E0D911D582F550F580F49
:103E6000D901A01BB10BAC9DC001AD9D900DBC9DB7
:103E7000900D1124E92FF59ED0011124AB2FBB2703
:103E80007901EA1AFB0AEC9CD001ED9CB00DFC9C78
:103E9000B00D11245901A51AB108A09E7001A19E70
:103EA000F00CB09EF00C1124EF2CFF242E193F09CA
:103EB0002C9D80012D9D100D3C9D100D1124212F56
:103EC0006230710591F048F461157105E1F06130DF
:103ED0007105B9F4242F4B2F16C06430710569F0B9
:103EE00040F06630710579F00CC0242F492FE12F86
:103EF0000AC0492FEF2F2B2F06C0292FE42F412F67
:103F000002C0292FEB2F49832883EA83DF91CF91C9
:103F10001F910F91FF90EF90DF90CF90BF90AF90E7
:103F20000895CF93DF9300D01F92CDB7DEB7909165
:103F3000560190FF0AC09E012F5F3F4F0E94FB1E5B
:103F40004B8169818A810E947A190F900F900F909E
:103F5000DF91CF9108958B3109F474C058F58B30FF
:103F600009F49AC078F4863009F446C020F485300C
:103F700009F44CC093C0873009F456C0883009F466
:103F80008BC08CC0803109F470C068F48E3009F0A9
:103F900085C08091260282FB222720F991E092279A
:103FA00090FB82F958C0863109F476C0893109F452
:103FB00073C074C08A32E9F060F4873209F467C0D4
:103FC00028F48E3108F46AC08D515AC08932F1F05C
:103FD00065C0833450F48A3308F051C0853309F446
:103FE00056C0883309F458C059C0833409F44FC00F
:103FF00055C00E94A11250C080912602817F8E7F01
:104000008093260281E08093250208950E948221F8
:104010002FEB87E299E0215080409040E1F700C00B
:1040200000000E94E81C38C080912602982F9095CD
:10403000917090FB80F98093260291112DC0897FA9
:10404000877F10C08091260281FB222720F991E012
:10405000922790FB81F9809326029923E9F08091C1
:10406000260281608093260217C08091260283FB7E
:10407000222720F991E0922790FB83F9ECCF895316
:1040800091E001C0990F8A95EAF7892F01C081E07C
:104090000E9452210E94822181E0089580E00895CB
:1040A0009091560190FF3DC09170811102C09260C5
:1040B00006C0853210F0986402C0880F982B909348
:1040C0005601662351F0609156017091570180911D
:1040D0005801909159010E94B81E60915601669551
:1040E00070E04BE050E08FE690E00E945D24892B69
:1040F00019F010923F0109C081E080933F010E94B6
:10410000361D909328028093270281E080932A0233
:1041100020E04091590160915801809157010C9421
:10412000CB190895809156018695815009F484E257
:1041300061E00C9450208091560186958F5F853206
:1041400008F081E061E00C94502080E090E00E9453
:104150007D1D80E090E00E94671D10923701109253
:1041600036010C941113CF92DF92FF920F931F939D
:10417000CF93DF936C010091240280913A01082BC8
:10418000C7E0D0E010E0C8010C2E02C095958795DD
:104190000A94E2F780FD04C02197A8F7F12C09C02A
:1041A000FC2EB6018C2F0E94221E0E94FC1001974B
:1041B00099F38F2DDF91CF911F910F91FF90DF9099
:1041C000CF900895990F990F890F682F669566957E
:1041D0006695982F977083E0689FB001112440E0A6
:1041E00050E080E0FB01E40FF51FE35DFD4F20810F
:1041F00030E0092E02C0369527950A94E2F7217027
:104200003327042E01C0220F0A94EAF7822B4F5F56
:104210005F4F4330510531F70895990F990F890F7A
:10422000E82FE695E695E695877051E001C0550FB9
:104230008A95EAF783E0E89FF0011124E35DFD4FE2
:1042400020E030E070E04081CB01022E02C0969564
:1042500087950A94E2F781708195842785238427C6
:1042600081932F5F3F4F2330310569F70895809385
:1042700024020C94A52021E030E001C0220F8A9591
:10428000EAF720958091240282230C94372121E0C3
:1042900030E001C0220F8A95EAF780912402822B38
:1042A0000C94372180933A010C94A520FC01808165
:1042B00091810E94EB13292F2F70E92FE295EF7067
:1042C0004E2F50E0FA013297EE30F105B8F4E75B7B
:1042D000FF4F0C943524803F99F018F4883E70F419
:1042E0000FC0843F59F40CC0883E50F0813F31F438
:1042F00007C0822F869586958695089580E008955B
:1043000081E008951092380186E0E7EFF0E0DF01E8
:104310001D928A95E9F70C94A520882341F0809599
:10432000909138018923809338010C9411130895DA
:10433000882339F090913801892B809338010C94AF
:10434000111308958823A9F19CEF980F913A60F416
:10435000E5EFF0E09281891301C01282319640E0CE
:10436000EB3FF407B9F714C090E2980F983090F43F
:10437000877021E030E0A90102C0440F551F8A95E3
:10438000E2F7CA0180959091380189238093380122
:104390000C9411139BE5980F933020F480E090E08B
:1043A0000C947D1D885A873120F480E090E00C94B5
:1043B000671D0895CF93882309F480C09CEF980F60
:1043C000913A60F5C82F80912502882319F0813039
:1043D00051F01EC080913801823209F051C08C2FFB
:1043E0000E94AB1F18C0809138018232C1F3C431E2
:1043F00049F018F4CB3049F041C0C93219F0C83344
:1044000021F03CC01092250239C081E0817003C0C8
:104410001092250235C0811151C032C090E2980F30
:10442000983090F4877021E030E0A90102C0440F79
:10443000551F8A95E2F7CA0190913801892B809324
:104440003801CF910C941113EBE5E80FE33040F401
:10445000F0E0EC57FF4F808190E0CF910C947D1DF0
:10446000885A873158F5E82FF0E0EE0FFF1FE95723
:10447000FF4F80819181CF910C94671D80E0C6CF62
:10448000E7EFF0E08191C81729F040E0ED3FF40735
:10449000C9F70EC0E5EFF0E08BEF90E02281C21388
:1044A00001C0128231968E179F07C1F70E94111327
:1044B0006C2F85EF90E00E944D1DC3CFCF910895E2
:1044C0001F93CF93DF93182F893319F0C0E0D0E00A
:1044D00002C0C0E5D0E0812F0E94DA21209741F090
:1044E00087EB9BE00197F1F700C000002197F6CF22
:1044F000812FDF91CF911F910C94A22111B887E0F9
:1045000080B985B3836085BB86B7846086BF86B774
:10451000816086BF86B7806486BF08959F92AF9200
:10452000BF92CF92DF92EF92FF920F931F93CF93A0
:10453000DF93B82EEB010E94361D6C01C431D1050A
:1045400058F0CF3F8FEFD80759F0CE0164E170E00B
:104550000E9457237B0107C0EE24E394F12C03C093
:1045600025E0E22EF12C84E8A82E94EA992E16BEBE
:1045700096BE0E94361D8C0106B607FC08C00E943C
:10458000361D801B910B8E159F05B0F324C081B1A1
:10459000887F883039F081B1887F803119F00FEF42
:1045A0001FEF1BC0B3B8A6BE0E94361D8C0106B615
:1045B00007FC08C00E94361D801B910B8E159F05BD
:1045C000B0F309C081B1887F883111F0803439F7A8
:1045D00000E010E00DC00EEF1FEFCF3F8FEFD807C8
:1045E00031F2C6010E94271D8C179D0708F4BFCF2A
:1045F000C801DF91CF911F910F91FF90EF90DF9055
:10460000CF90BF90AF909F9008950F931F93CF933B
:10461000DF93EB0183B984E886BF0E94361D8C01CD
:1046200006B607FC0EC0CF3F8FEFD807C9F30E9434
:10463000361D801B910B8C179D0790F38EEF9FEF1B
:104640000BC021B1287F81E090E0283211F480E096
:1046500090E0919581959109DF91CF911F910F91F4
:104660000895CF92DF92EF92FF920F931F93CF9313
:10467000DF936B018A017901B9010E948E22E60164
:104680000C0D1D1DC017D10759F424E926BFDF9179
:10469000CF911F910F91FF90EF90DF90CF900895F1
:1046A00097FDF3CFB70189910E940523EBCFAA1B99
:1046B000BB1B51E107C0AA1FBB1FA617B70710F00D
:1046C000A61BB70B881F991F5A95A9F7809590953F
:1046D000BC01CD010895E199FECF9FBB8EBBE09A4E
:1046E00099278DB30895A6E1B0E044E050E00C9422
:1046F000B123A8E1B0E042E050E00C94B123262FB2
:10470000E199FECF9FBB8EBBE09A01970DB20216D6
:1047100031F02DBB0FB6F894E29AE19A0FBE0895DE
:104720000396272F0E9480230E947F23252F0E941B
:104730008023242F0C9480230196272F0E9480230E
:104740000C947F23262FE199FECF9FBB8EBB2DBB00
:104750000FB6F894E29AE19A0FBE01960895DC0133
:10476000CB01FC01E199FECF06C0FFBBEEBBE09A96
:1047700031960DB20D9241505040B8F708950E9405
:10478000F423A59F900DB49F900DA49F800D911DC3
:1047900011240895B7FF0C94BF230E94BF23821BEE
:1047A000930B0895A1E21A2EAA1BBB1BFD010DC09D
:1047B000AA1FBB1FEE1FFF1FA217B307E407F507D1
:1047C00020F0A21BB30BE40BF50B661F771F881FAD
:1047D000991F1A9469F760957095809590959B0143
:1047E000AC01BD01CF010895A29FB001B39FC001EC
:1047F000A39F700D811D1124911DB29F700D811D0D
:104800001124911D0895DB018F939F930E94BF2374
:10481000BF91AF91A29F800D911DA39F900DB29F5C
:10482000900D1124089587FB082E062687FD81959B
:1048300067FD61950E9451240EF4919507FC8195C6
:10484000089597FB072E16F4009407D077FD09D042
:104850000E94572307FC05D03EF4909581959F4F09
:104860000895709561957F4F0895EE0FFF1F059095
:10487000F491E02D099469279627692778278727DF
:10488000782708950E94F423332312F48A1B9B0B8C
:104890000C944C240E94F423B7FF0895821B930BC1
:1048A0000895991B79E004C0991F961708F0961B8C
:1048B000881F7A95C9F780950895FC0141505040B2
:1048C00030F001900616D1F73197CF01089588276F
:1048D00099270895FB01DC0104C08D910190801996
:1048E00021F441505040C8F7881B990B0895F89463
:0248F000FFCFF8
:1048F200DB1ABC1CDA1A891C851C010201FF5A0151
:10490200191A1B1C1D1E1F2021226061626364652F
:1049120093929190818283E200E900EA00B500B6A9
:1049220000B700CD008301CC008A019201940121DD
:1049320002230224022502260227022A02B300B41D
:10494200006F007000000102020202060606090959
:10495200090909090F0F0F0F0F0F1515151819194E
:0A496200191919191919191923243C
:00000001FF
