:100000000C94D4020C941B030C941B030C941B0340
:100010000C941B030C941B030C941B030C941B03E8
:100020000C941B030C941B030C94A21F0C947420BF
:100030000C94301A0C941B030C941B030C941B039C
:100040000C941B030C941B030C941B030C941B03B8
:100050000C941B030C94891A0C941B030C941B0323
:100060000C941B030C941B030C941B030C941B0398
:100070000C941B030C941B030C941B030C941B0388
:100080000C941B030C941B030C941B030C941B0378
:100090000C941B030C941B030C941B030C941B0368
:1000A0000C941B030C941B030C941B039C069C06D2
:1000B000CE06CE061B072208220822083907A10710
:1000C000B207B2071208220822081B08BE08BE08A1
:1000D000D008D008C708D008D008D008BE08BE088D
:1000E000CC08D008D008CC0882148514A514B61406
:1000F000BE14C9140F150F150F150F150F15CC14BD
:10010000CF14D414E114EE14F114F5140215E12007
:100110000821002208210022542177210022CE212B
:10012000DD2129001E001F002000210022002300E5
:1001300024002500260027002D002E002A004A005A
:100140002B0014001A000800150017001C001800EE
:100150000C00120013002F00300031004B0039005A
:1001600004001600070009000A000B000D000E0035
:100170000F003300340028002A004E00E100000088
:100180001D001B00060019000500110010003600BC
:1001900037003800E50052004D00E000E300E200C7
:1001A0000000000000002C00000000000000E6003D
:1001B0000151500051004F0035003A003B003C0017
:1001C0003D003E003F00400041004200430044002B
:1001D00045004C0001000100010001000100010088
:1001E0000100010001004600470048000100010035
:1001F000010001000100AA00A900A800B000010050
:1002000001000100010001000100010001004C009B
:1002100001000100010001000100010001000100D6
:1002200001000100010001000100010001000100C6
:1002300001000100010000000000000001000000BA
:1002400000000000010001000100010001000100A8
:100250000100010001000100010001000100010096
:100260000100010001000100010001000100010086
:100270000100010001000100010001000100010076
:100280000100010001000100010001000100010066
:100290000100010001000100010001000100010056
:1002A0000100010001000100010001000100010046
:1002B0000100010001000100010001000100010036
:1002C0000100010001000100010001000000000028
:1002D000000001000000000000000100010001001A
:1002E0000100010001000100010001000100010006
:1002F00001000100010001000100010001000100F6
:1003000001000100010001000100010001000100E5
:1003100001000100010001000100010001000100D5
:1003200001000100010001000100010001000100C5
:1003300001000100010001000100010001000100B5
:1003400001000100010001000100010001000100A5
:100350000100010001000100010001000100010095
:10036000010000000000000001000000000000008B
:100370000100010001000100010000000000000078
:1003800000002A2B280000000000000000000000F0
:10039000000000000029000000002C1E3420212253
:1003A00024342627252E362D3738271E1F202122BC
:1003B000232425263333362E37381F040506070835
:1003C000090A0B0C0D0E0F10111213141516171825
:1003D000191A1B1C1D2F3130232D35040506070863
:1003E000090A0B0C0D0E0F10111213141516171805
:1003F000191A1B1C1D2F3130354C00000000000065
:1004000000000000000000000000000000000000EC
:1004100000000000000000000000000000007E0F4F
:1004200000D4FFFFFFC700000078240377006900B5
:100430006C00620061002E007400650063006800BB
:10044000200057005400360035002D004700000002
:100450001603770069006C00620061002E007400D2
:1004600065006300680000000403090409025B00E2
:10047000030100A0FA0904000001030101000921A1
:10048000110100012240000705810308000A090448
:1004900001000203000000092111010001222200D5
:1004A000070582032000010705030320000109045A
:1004B00002000103000000092111010001226D006A
:1004C0000705840320000A120100020000000882D0
:1004D0006522000100010200010660FF0961A1011F
:1004E0000962150026FF0095207508810209631531
:1004F0000026FF00952075089102C005010980A122
:1005000001850319012AB700150126B70095017569
:10051000108100C0050C0901A101850419012AA060
:1005200002150126A002950175108100C005010980
:1005300006A1018505050719E029E71500250195A4
:1005400008750181020507190029EF15002501959D
:10055000F0750181020508190129059505750191BC
:1005600002950175039101C005010906A101050766
:1005700019E029E71500250195087501810295010B
:10058000750881010507190029FF150026FF009550
:100590000675088100050819012905950575019161
:1005A00002950175039101C011241FBECFEFDAE05F
:1005B000DEBFCDBF04B603FE27C0809180029091BC
:1005C0008102A0918202B09183028730904BA740B4
:1005D000B04BD1F4109280021092810210928202EC
:1005E0001092830214BE84B7877F84BF0FB6F8943D
:1005F000A8958091600088618093600010926000EF
:100600000FBEE0E0F8E3099511E0A0E0B1E0E4E21C
:10061000F5E402C005900D92A239B107D9F722E0A6
:10062000A2E9B1E001C01D92A038B207E1F70E9433
:10063000C9130C9490220C94000081E0089581E08D
:1006400008950C941F0308950C9423031F93CF93D4
:10065000DF9300D000D01F92CDB7DEB749835A8315
:100660006B833091940189819A81311114C0662382
:1006700059F0222349F00E94B409182F682F89816C
:100680009A810E945D0903C00E948809182F698120
:100690007A81812F04C00E94B40969817A810F9008
:1006A0000F900F900F900F90DF91CF911F910C94AE
:1006B000E115FC01262F4081518162817381848183
:1006C0000C94260381E00895CF93DF93EC0160E062
:1006D0000E945903BE01DF91CF910C942403E1E005
:1006E000F0E0DF0102C0AA0FBB1F6A95E2F7BD016F
:1006F000DF0102C0AA0FBB1F4A95E2F7AD01462BEE
:1007000001C0EE0F2A95EAF7942F9823491302C0EF
:100710008E2B0895E0958E230895242F462F682F61
:100720008091B3010E946F030C941A090E944C122D
:100730000E94E0040C947F120C947B1208950E9496
:10074000AC080E949E032FEF84E39CE02150804080
:100750009040E1F700C000000C94AF1A0F931F9374
:10076000CF93DF938C0161E00E945903EC01B80143
:100770000E943114882309F444C0B801CE010E94BC
:1007800021038823F1F1B801CE010E9416178823B6
:10079000C1F1B801CE010E946817882391F1B80118
:1007A000CE010E949318882361F1F8018281882389
:1007B00009F1CA358DE5D807C1F050F4C115FCE543
:1007C000DF0781F0CE3DDC45A9F40E94390F19C046
:1007D000CB35EDE5DE0761F0CC35DD4559F40E94FF
:1007E000BE0D08C00E949F030CC00E94C70D02C02E
:1007F0000E94CA0DC801DF91CF911F910F910C94F7
:100800001D0380E0DF91CF911F910F910895DF923A
:10081000EF92FF920F931F93CF93DF93E82FF0E0B7
:10082000E658FC4FD490282F26952695269530E043
:10083000F901E65EFB4F0491877010E0082E02C0BC
:10084000159507950A94E2F701701127F901E65F03
:10085000FB4FE490F12C082E02C0F594E7940A9423
:10086000E2F791E0E922FF24F901E650FC4FC49140
:10087000D0E002C0D595C7958A95E2F7C170DD2713
:100880000115110519F081EE0E943A05E114F104F9
:1008900019F086EE0E943A058D2D0E945206EF282F
:1008A00019F086EE0E94DC05012B19F081EE0E9402
:1008B000DC05CD2B51F08CE2DF91CF911F910F9190
:1008C000FF90EF90DF900C945206DF91CF911F9133
:1008D0000F91FF90EF90DF900895EF92FF920F93AA
:1008E0001F93CF93DF93EC01162F0AE088818823B2
:1008F00009F455C0813009F043C08981813041F449
:100900007E0182E0E80EF11C8A810E94520609C035
:10091000823049F47E01E2E0EE0EF11C8A810E94F1
:100920003A05E7012FC0833041F47E01F2E0EF0E7B
:10093000F11C8A810E94DC05F4CF843011F02196ED
:1009400021C02A81229680E090E030E020533109D6
:100950002A30310558F4089FA001099F500D112439
:10096000C901840F951F21962881EFCF009751F080
:10097000EFE9FFE03197F1F700C000000197F6CFF3
:100980000E9407042196812F882309F4AFCFEFE955
:10099000FFE03197F1F700C000008150F5CFDF9103
:1009A000CF911F910F91FF90EF90089560E00C940C
:1009B0006D0408950C94D90481E008950C94DC042E
:1009C0000895CF93C82F0E94DA048C2F0E94DE0472
:1009D000CF910895CF93DF93CDB7DEB72B970FB6A6
:1009E000F894DEBF0FBECDBF4F83588769877A87E3
:1009F0008B8761110E94ED0D9E012F5F3F4F86E0B6
:100A0000F90111928A95E9F785E0FE013796D9013F
:100A100001900D928A95E1F789819A814C815D81DF
:100A2000452B31F09F3F31F491E08F3F19F403C023
:100A300091E001C090E090FF09C049815A816B812B
:100A40007C818D819E810E94ED0C05C0C9010E94B0
:100A500062038111F2CF2B960FB6F894DEBF0FBE62
:100A6000CDBFDF91CF910895FC01808191810E94DB
:100A7000E1090895CF93882309F49CC0C82F8238D8
:100A8000C1F40E94C91881FD95C069E380910001FD
:100A9000909101010E94B1190E941F0E2FEF81EE6B
:100AA00094E0215080409040E1F700C0000069E3ED
:100AB00019C0833801F50E94C91880FD7BC063E529
:100AC00080910001909101010E94B1190E941F0EB6
:100AD0002FEF81EE94E0215080409040E1F700C07C
:100AE000000063E580910001909101010E94BC1912
:100AF000CF910C941F0E8438C1F40E94C91882FD56
:100B000059C067E480910001909101010E94B119E0
:100B10000E941F0E2FEF81EE94E021508040904004
:100B2000E1F700C0000067E4DDCF8CEF8C0F813A65
:100B3000D0F46C2F80910001909101010E94311935
:100B4000882349F06C2F80910001909101010E944F
:100B5000BC190E941F0E6C2F809100019091010121
:100B60000E94B119C5CF80E28C0F883048F4C7705D
:100B700081E001C0880FCA95EAF70E94D00DB8CF76
:100B8000EBE5EC0FE33040F4F0E0E55CFE4F8081F4
:100B900090E0CF910C94EF18C85AC73158F4EC2F5D
:100BA000F0E0EE0FFF1FE35FFE4F80819181CF9158
:100BB0000C940519CF910895882309F45BC0682F20
:100BC000823879F40E94C91881FF54C069E380918A
:100BD0000001909101010E94B1190E941F0E69E36A
:100BE00010C08338B1F40E94C91880FF43C063E588
:100BF00080910001909101010E94B1190E941F0E85
:100C000063E580910001909101010E94BC190C9450
:100C10001F0E843879F40E94C91882FF2BC067E444
:100C200080910001909101010E94B1190E941F0E54
:100C300067E4E7CF8CEF860F813A18F380E2860FE6
:100C4000883048F4677081E001C0880F6A95EAF740
:100C50000E94D60DDCCF8BE5860F833020F480E038
:100C600090E00C94EF18685A673120F480E090E02F
:100C70000C94051908951F93CF93DF93182FEB0160
:100C80000E943A05209741F08FE99FE00197F1F724
:100C900000C000002197F6CF812FDF91CF911F91E7
:100CA0000C94DC05893319F060E070E002C060E567
:100CB00070E00C943B06882321F00E94D00D0C9428
:100CC0001F0E0895882321F00E94D60D0C941F0E4C
:100CD0000895CF92DF92EF92FF920F931F93CF93DD
:100CE000DF937C01062FC72FFC01D281158112955D
:100CF0001F700E94A50D882399F0DD2389F08C2FA9
:100D0000807F803421F080E2800F883048F082E0DC
:100D10000E946F0E0E94A50D91E0D82ED92601C029
:100D2000D12CCC2EC2948FE0C8228C2D90E0FC01F7
:100D3000EA5AFF4F0C9434228C2F807FCF70882387
:100D400011F0C295C07FDD2399F0CC2309F455C181
:100D500080E2800F883010F0011104C08C2F0E94B7
:100D6000D00D03C08C2F0E94E00D0E941F0E45C1C4
:100D7000802F0E94DC05CC2309F464C180E2800F3F
:100D8000883010F0011104C08C2F0E94D60D03C0D2
:100D90008C2F0E94E60D0E941F0E54C18C2F807F65
:100DA000CF70803211F0C295C07F002319F001305E
:100DB000C9F022C0DD2371F0112341F0113031F46C
:100DC0000E94000E8C2B0E94080E3CC10E94000E57
:100DD0008C2B1DC0112319F0113009F433C10E946E
:100DE000150E25C0DD2321F0163008F02BC10EC0F2
:100DF000153008F027C11BC0DD2361F0112331F04D
:100E0000F701858180FFF9C08F7085838C2F0E9448
:100E10005B0618C1112359F0093309F0FFC0FFEF39
:100E200027EE83E0F15020408040E1F7F5C08C2FA1
:100E30000E94620607C18C2F86958695837019F0F3
:100E4000813061F0FFC0DD2321F0802F9C2F937053
:100E500002C080E090E00E94EF18FCC0DD2321F08A
:100E6000802F9C2F937002C080E090E00E940519B3
:100E7000F1C08C2F837079F5D111E8C0402F4295D5
:100E800046954770440F440F202F2F70042E01C049
:100E9000220F0A94EAF704FF08C08FE090E001C037
:100EA000880F4A95EAF7809501C080E0C695C695FF
:100EB000C370822BC23049F058F4C13019F00E943F
:100EC0000E09C4C00E940909C1C00E941309BEC016
:100ED0000E940709BBC0DD2319F08C2F817001C06F
:100EE0008695882309F4B2C0402F429546954770F5
:100EF000440F440F202F2F70042E01C0220F0A949C
:100F0000EAF704FF08C08FE090E001C0880F4A951F
:100F1000EAF7809501C080E0C695C695C370822B24
:100F2000C23049F058F4C13019F00E9452098EC005
:100F30000E944D098BC00E94570988C00E941A095F
:100F400085C0CF70DD2339F08C2F0E942B09802FB4
:100F50000E945B067BC0802F0E9462068C2F0E943D
:100F6000360974C0023F01F128F4003F41F0013F0F
:100F7000A1F03FC0033FF9F0043F39F13AC0DD234F
:100F800041F0153008F05EC08C2F8F710E9442092D
:100F900059C0163008F056C0F7CFDD2339F08C2F3A
:100FA0008F710E942B094EC0DD23C9F38C2F8F71E6
:100FB0000E94360947C0DD2329F08C2F8F710E94D3
:100FC000230940C00E9420093DC0DD2349F0CF71B4
:100FD0008C2F0E942B0963E08C2F0E94540E32C08C
:100FE00081E00E946F0E123068F182E00E946F0E65
:100FF00029C0DD2331F0112391F2802F0E943A05A0
:1010000021C0112399F2093349F49FEFE7EEF3E091
:101010009150E040F040E1F700C00000802F0E94B6
:10102000DC0510C04C2F4F70602FC7010E94351097
:101030000E940F0A0FC04C2F4F70602FC7010E94F3
:10104000381008C088EF8C0D843020F40E94C91835
:101050000E94E104DD20C9F00E94A10D80FD15C0B1
:10106000F70112820E949B0D0E942B09C7010E946A
:1010700066080E949B0DDF91CF911F910F91FF9009
:10108000EF90DF90CF900C943609DF91CF911F91B4
:101090000F91FF90EF90DF90CF9008950F931F93E3
:1010A000CF93DF93EC01688179818A810E94EC09FA
:1010B0008C010E945C090E94FB08B801CE010E94CD
:1010C0006906DF91CF911F910F910895CF93DF9320
:1010D000EC01988189812B813C81232B31F08F3F5A
:1010E00031F481E09F3F19F403C081E001C080E04A
:1010F00080FD19C0CE010E94AE0381110CC00E9478
:10110000A50D882381F08A81882369F082E0DF9130
:10111000CF910C946F0ECE010E944E08CE01DF914C
:10112000CF910C946403DF91CF91089580E090E01B
:101130000E94EF1880E090E00E9405190E94ED0DDA
:101140000E94FD0D0C941F0E8091000190910101F1
:101150000E94C7190C9496080E94DD0D0C94A408F7
:10116000E92FE295EF704E2F50E0FA013297EE3002
:10117000F105B0F4EA59FF4F0C943422803F91F00E
:1011800018F4883E68F40EC0843F51F40BC0883ECA
:1011900048F0813F29F406C093FB882780F9089521
:1011A00080E0089581E00895FC01808191810E9492
:1011B000E1090E94B0080895CF93DF9300D000D0DA
:1011C0001F92CDB7DEB70F900F900F900F900F903A
:1011D000DF91CF910895CF93DF9300D000D000D05E
:1011E000CDB7DEB726960FB6F894DEBF0FBECDBFE3
:1011F000DF91CF910895089508950C94FC080C9404
:10120000FD080E94FF088093B4010C9496080C948A
:1012100001099091B401892B0C9401099091B401BA
:1012200089230C9401099091B40189270C94010938
:101230000C94FC080E9418098093B3010C94960842
:1012400080E00C941A0991E001C0990F8A95EAF7A1
:10125000892F0C941A0921E030E001C0220F8A95F1
:10126000EAF78091B301822B0C941A0921E030E057
:1012700001C0220F8A95EAF720958091B30182235D
:101280000C941A0921E030E001C0220F8A95EAF798
:101290008091B30182270C941A099091B301892B94
:1012A0000C941A099091B30189230C941A09909116
:1012B000B30189270C941A0908952FE0929F800D9D
:1012C0001124E82FE695E695E695877051E001C078
:1012D000550F8A95EAF783E0E89FF0011124EB5659
:1012E000FE4F20E030E070E04081CB01022E02C0D2
:1012F000969587950A94E2F78170819584278523D6
:10130000842781932F5F3F4F2330310569F708957C
:101310002FE0929F800D1124682F66956695669543
:10132000982F977083E0689FB001112440E050E04F
:1013300080E0FB01E40FF51FEB56FE4F208130E00B
:10134000092E02C0369527950A94E2F721703327BB
:10135000042E01C0220F0A94EAF7822B4F5F5F4FE1
:101360004330510531F70895CF92DF92FF920F93EA
:101370001F93CF93DF936C010091B3018091B4016F
:10138000082BC7E0D0E010E0C8010C2E02C09595F4
:1013900087950A94E2F780FD04C02197A8F7F12C05
:1013A00007C0FC2EB6018C2F0E9456110197A9F39D
:1013B0008F2DDF91CF911F910F91FF90DF90CF90F4
:1013C0000895CF93DF93EC010E94B409BE010E94FF
:1013D0005611DF91CF9108951F93CF93DF93EB01C7
:1013E00090919401992321F0CB010E94E10913C04F
:1013F000882349F0CB010E94B409182F682FCE0131
:101400000E945D0904C0CB010E948809182FBE010B
:10141000812F0E945611DF91CF911F910895EF9275
:10142000FF920F931F93CF93DF938C01892B09F4C5
:101430006CC0F12CEE24E394E8012196F80184912C
:10144000843740F4843008F051C0813081F082301C
:1014500019F15BC0853709F444C0A8F19CE7980FE7
:10146000903708F052C08F770E94DC0541C00E5FB4
:101470001F4FFE01849190E2980F983050F48770CE
:10148000FE2D01C0FF0F8A95EAF78F2F0E94F00D05
:1014900014C00E943A052DC00E5F1F4FFE018491BB
:1014A00090E2980F983060F48770FE2D01C0FF0F16
:1014B0008A95EAF78F2F0E94F60D0E941F0E19C021
:1014C0000E94DC0516C00E5F1F4FFE01C491CC23A5
:1014D00081F08FE99FE00197F1F700C00000C15053
:1014E000F6CF0E5F1F4FFE01F49003C00E943A0535
:1014F0008E018F2D882309F49FCFEFE9FFE031970C
:10150000F1F700C000008150F5CFDF91CF911F911E
:101510000F91FF90EF9008951F93CF93DF93C091A9
:10152000B50116E08091B601C81799F0D0E01C9F74
:10153000F0011D9FF00D1124E954FE4F40815181AF
:1015400062817381848195810E94EB082196C77026
:10155000E9CFDF91CF911F9108954091E70150911C
:10156000E8016091E9017091EA018091EB019091AD
:10157000EC010C94EB080F931F93CF93DF938091B2
:10158000EC0182958F7009F05DC08091E90188239C
:1015900009F458C08091B5011091B6016091E7013E
:1015A0007091E801C091EA01D091EB0191E06F3FA9
:1015B00009F090E0292F06E0811709F443C0209735
:1015C00021F07F3F21F030E003C031E001C0322F35
:1015D00090E030FD34C0089FF001099FF00D112408
:1015E000DF01A954BE4F11963C911197371327C0C4
:1015F0003C91361324C012963C91129731111FC0B2
:1016000013964D915C9114974C1B5D0B483C510512
:10161000B0F48091EC018F7080618093EC01E45410
:10162000FE4F80818F708061808387EE91E00E9401
:101630006608DF91CF911F910F910C948C0A01964F
:101640008770BACFDF91CF911F910F9108959F922C
:10165000AF92BF92CF92DF92EF92FF920F931F93C0
:10166000CF93DF93CDB7DEB761970FB6F894DEBFA7
:101670000FBECDBF8C0185E0F801DE011D96019003
:101680000D928A95E1F7F801E2809091E70160916F
:10169000E8012091EA013091EB012115310531F08B
:1016A0006F3F31F481E09F3F19F403C081E001C036
:1016B00080E0F82FF1709F2E80FD3FC1F80140813E
:1016C0005181A380B48087EEC82E81E0D82EF0909F
:1016D000E901F501E21BF30BFF2009F4D9C0809169
:1016E000EC01E83CF10508F095C0282F207F09F0B7
:1016F00052C0561313C0491311C0FE2CE1100EC086
:101700008F7080618093EC010E94AD0AC6010E9437
:1017100066088091EC01F80185834CC1AB2831F05B
:101720005F3F31F481E04F3F19F403C081E001C015
:1017300080E080FD03C081E08E2502C080E090E063
:10174000F82FF170FF2E80FF1CC08091B501209111
:10175000B60136E0821709F40BC190E0389FF00122
:10176000399FF00D1124E954FE4F6181561306C0D4
:101770006081461303C06281E61203C00196877040
:10178000E9CFFE2CEE2009F415C18091EC018160B7
:101790008093EC0154C0561306C0491304C0E110F5
:1017A00002C0F80199C0C8010E94D408882361F1E1
:1017B000EE2051F12091EC01822F82958F7090E004
:1017C000029774F08091E7019091E80198878F83E8
:1017D0001986BB86AA862C87CE0107960E946608CA
:1017E00086E0F801A7EEB1E001900D928A95E1F74D
:1017F0000E94BB0A0E94AD0A0AC0561711F1C80127
:101800000E94D40881112CC0C8010E946608FF24E0
:10181000F394D0C0282F207F81F77A2DB98AA88A27
:101820006E2D89890E94DC0887EE91E00E9466088F
:1018300086E0F60111928A95E9F70E94AD0AF12C33
:10184000B9C04913DCCFE110DACFF8018583C801B4
:101850000E94660886E0F60111928A95E9F7AAC00F
:10186000EE2091F22091EC01822F82958F7090E012
:1018700002970CF4B5CF8091E7019091E8019A832B
:1018800089831B82BD82AC822E83CE010196A6CFB6
:10189000E83CF10508F044C0FE2CEE2009F4B4CF7A
:1018A000561330C049132EC02091EC0120FD21C0F9
:1018B000822F82958F70482F50E041155105C9F055
:1018C000F80125834F30510541F08F5F982F929595
:1018D000907F822F8F70892B8583C8010E946608B4
:1018E00086E0F801A7EEB1E001900D928A95E1F74C
:1018F0003CC086E0F801A7EEB1E001900D928A9518
:10190000E1F758C0C8010E94D408811169CF8091C5
:10191000EC0181608093EC01C8010E9466084AC016
:101920007A2DB98AA88A6E2D89890E94DC0886E002
:10193000F60111928A95E9F718C0EE2009F464CFF8
:10194000C8010E94D408F82E882309F45DCF86E0F0
:10195000F801A7EEB1E001900D928A95E1F787EECC
:1019600091E00E9434050E94BB0A0E94AD0A22C089
:101970004D875E878D859E850E94E109292F2295DE
:101980002F70223028F49F7039F0811105C00BC0F0
:10199000243028F49F7049F4805E883020F0C8011C
:1019A0000E9466089F2CF92C05C0F8019581907F54
:1019B00099F7F9CF8F2D61960FB6F894DEBF0FBE61
:1019C000CDBFDF91CF911F910F91FF90EF90DF90EE
:1019D000CF90BF90AF909F9008951F93CF93DF93C8
:1019E000CDB7DEB72C970FB6F894DEBF0FBECDBFD4
:1019F0004F83588769877A878B879C87CE010796A4
:101A00000E94270B8823D1F09F8188852A853B85FA
:101A1000232B31F08F3F31F481E09F3F19F403C055
:101A200081E001C080E080FD47C04F815885698515
:101A30007A858B859C850E94EB083EC086E0FE017E
:101A40003796DE01119601900D928A95E1F7FF819C
:101A5000E8856A857B856115710531F0EF3F31F4CA
:101A600081E0FF3F19F403C081E001C080E080FD08
:101A700023C02091B60130E0C901019687709927F3
:101A80004091B50150E084179507F1F1F983EA839D
:101A90007D836C8396E0929FD001939FB00D1124BB
:101AA000A954BE4FFE01319601900D929A95E1F72F
:101AB0008093B6010E948C0A16E08091B501909146
:101AC000B601891771F1189FC001112489549E4FE6
:101AD0000E94270B882329F1E091B5011E9FF00198
:101AE0001124E954FE4F40815181628173818481C8
:101AF00095810E94EB088091B50190E00196877076
:101B000099278093B501D9CF0E94AC081092B601F5
:101B10001092B501E7EEF1E086E0DF011D928A95B3
:101B2000E9F72C960FB6F894DEBF0FBECDBFDF915C
:101B3000CF911F9108958091ED01859585958595AB
:101B400008958091ED01877008959091ED0197704F
:101B500081E009F480E0089590915A0292FB2227D7
:101B600020F9281751F080FB92F990935A02809146
:101B7000590290915A020C94B60E089580915A021F
:101B800082FB882780F991E089270C94AC0D81E0D5
:101B90000C94AC0D80E00C94AC0D80911102089572
:101BA00090911102892B8093110208958095909154
:101BB0001102892380931102089510921102089551
:101BC00090911002892B8093100208958095909136
:101BD0001002892380931002089510921002089534
:101BE00090910F02892B80930F0208958095909118
:101BF0000F02892380930F02089510920F02089517
:101C00008091EE01089508950C94030E0C94040E37
:101C100090915A0292FD08C09091EE01981721F020
:101C20008093EE010C94060E08958091EE018823B6
:101C300029F01092EE0180E00C94060E0895E091D8
:101C40000001F0910101809111028083E091000177
:101C5000F0910101908180911002892B8083E091A5
:101C60000001F0910101908180910F02892B808306
:101C70008091EE01882381F0E0910001F091010153
:101C80009081892B808380910001909101010E94B5
:101C90001B1981110E94150E809100019091010184
:101CA0000C94D5180C94030E90915A0292FD10C01A
:101CB00098E0899F90011124262B2093ED010E942A
:101CC0002B098091ED018595859585950C94520E93
:101CD0000C942B091092ED0180E00C94520E20918F
:101CE000ED01809582238093ED01982F977041F448
:101CF00030E0482F082E000C550B2417350721F42F
:101D000090915A0292FF07C08595859585950E940E
:101D100036090C946A0E08956FEF7FEF80E090E033
:101D20000C947A2280E090E00E945622893E9E4FD9
:101D300011F40C94D41380E0089582E090E00C94A8
:101D40004E2283E090E00C944E22CF9384E090E00A
:101D50000E944E22C82F82E290E00E944E222C2F39
:101D600030E0A901582BCA01CF910895CF93C92F14
:101D7000682F84E090E00E945C226C2F82E290E069
:101D8000CF910C945C22AB01BC018FE090E00C94ED
:101D90006E22AB01BC0183E190E00C946E2260E006
:101DA00070E0CB010C94C90E60E070E0CB010E94A2
:101DB000C30E0C94CF0E69EE7EEF80E090E00E949F
:101DC0007A2260E082E090E00E945C2260E083E0A2
:101DD00090E00E945C221092B40160E084E090E008
:101DE0000E945C2260E082E290E00E945C2260E05F
:101DF00085E090E00E945C2260E086E090E00E9436
:101E00005C226FEF87E090E00E945C2240E050E0AF
:101E1000BA0188E090E00E946E2260E08DE090E0E0
:101E20000E945C2240E050E0BA0188E190E00E940C
:101E30006E2260E087E190E00E945C2240E050E08A
:101E4000BA018CE190E00E946E2260E070E080E2D6
:101E500090E00E947A2240E050E0BA0188E190E0F0
:101E60000E946E2280E00E94ED130E9419140C94CF
:101E7000D40E0C94DB0E682F8EE090E00C945C2264
:101E80000E946E1A609321027093220280932302B3
:101E90009093240260931D0270931E0280931F0290
:101EA00090932002089585B7806885BF85B78068C4
:101EB00085BF089581E008950C945A0F08950C94FD
:101EC0005E0F0C945E0F0C94610F0C945E0F0C94DB
:101ED000650F0C945E0F0E94530F82E392E10E9403
:101EE000D31A0E94690F0C94670F0E945F0F0C9425
:101EF0005E0F0E94591A0E9428140E9430130C94FD
:101F0000630F6F927F928F929F92AF92BF92CF9208
:101F1000DF92EF92FF920F931F93CF93DF93CDB792
:101F2000DEB72A970FB6F894DEBF0FBECDBF0E9472
:101F3000431381110E94400F33E1832E32E0932E30
:101F400000E010E0C02E802F0E9466125C01F401B8
:101F5000619071904F016826792661147104B1F483
:101F60000F5F1F4F0530110569F78FEF89838A8353
:101F70001B820E94621A8160782F9D838C83498125
:101F80005A816B818D810E94EA043AC080912502BA
:101F900081FD0E946F12D12CEE24E394F12CC30139
:101FA0008E219F21892B29F10E945C0F8823A9F0A3
:101FB000DE82CF82AE20BF2081E0AB2809F480E032
:101FC00088870E94621A8160782F9A8789874E815C
:101FD0005F8168858A850E94EA04000F111FF8015D
:101FE000ED5EFD4F80819181E826F926F182E08245
:101FF00007C0D394EE0CFF1CFFE0DF12D0CFB0CFB0
:102000000E94C918909112028917D1F00E94C91834
:10201000809312022A960FB6F894DEBF0FBECDBF92
:10202000DF91CF911F910F91FF90EF90DF90CF90B4
:10203000BF90AF909F908F907F906F900C94E10431
:102040002A960FB6F894DEBF0FBECDBFDF91CF91B9
:102050001F910F91FF90EF90DF90CF90BF90AF90C6
:102060009F908F907F906F90089580E090E008950A
:102070000895880F991FFC01E65DFB4F85919491AF
:102080000895CF93DF930E945B11EC01811520E549
:10209000920708F041C0811540E4940708F0CBC0D6
:1020A000803E910520F5803C910508F0B8C0883A43
:1020B000910570F4853A910508F0A8C0813091052A
:1020C00009F4A1C008F4EBC0049708F0EBC0E7C026
:1020D0008F3B910508F0E3C0885AC82FD0E0CC0FA1
:1020E000DD1FC25CDE4F888199819464DCC081155C
:1020F00050E2950750F4C11581E0D80708F0D2C02E
:10210000C83ED10508F4CEC0CAC0811520E39207AD
:1021100008F08AC09F7085C0811545E5940708F0D6
:1021200046C0811554E5950708F09DC0C11582E5AC
:10213000D80718F5C11521E5D20708F07FC0CE01F8
:10214000F4E096958795FA95E1F7282F23703C2FB8
:10215000337081E090E002C0880F991F3A95E2F752
:102160009C68922B2C2F2F702695269540E2249F59
:1021700090011124822B932B96C09E01237033274C
:102180009C2F96959695C115D34508F05CC041E00B
:1021900050E002C0440F551F2A95E2F780E2989F55
:1021A00090011124CA01822B932B9C687CC081155D
:1021B00059E5950798F4C11588E5D80708F058C087
:1021C000C11526E5D20708F06AC08C2F0E94EF11D6
:1021D0008F7190E0982F8827906265C081154AE53D
:1021E000940708F44AC090568115904208F057C0F1
:1021F0008D2F8F710E94EF119E01332730628F71F6
:10220000A901582B4AC081E090E04DC0855AC82FE3
:10221000D0E0C459DE4F888190E0906444C0805C77
:1022200091090E9439103FC09927D3FF02C0986CD2
:102230003AC0906C38C09F70906A35C09C2F882738
:10224000816F906A30C041E050E002C0440F551FDA
:102250002A95E2F780E2989F90011124CA01822B0F
:10226000932B9A6820C0982F8827846F906A1BC090
:102270009C2F8827806F906A16C08F700E94EF1184
:102280009E0194E0369527959A95E1F72F7030E0FE
:10229000322F22273069A901482BCA0104C080E0EF
:1022A00090E001C0CE01DF91CF9108950E94E11529
:1022B0000E94411008958238910569F1B0F481338C
:1022C000910509F46DC048F48932910509F463C0A1
:1022D0008A32910509F469C008958533910509F49E
:1022E00055C089339105B9F00895833E910569F190
:1022F00038F4803E9105B1F0823E910509F10895D0
:10230000863E9105A9F1873E9105B9F1843E91057C
:1023100009F064C023C02091590220FD4FC021FD67
:102320004DC008958091590280FD44C080915A02A9
:1023300080FF44C08091590284FD42C083EE4DC0AD
:102340008091590282FF38C0F5CF8091590282FDF9
:1023500033C080915A0280FD31C0ECCF80915A0287
:1023600081FF32C08091590284FD2AC087EE35C0BA
:102370008091590283FF26C0F5CF8091590283FDD9
:1023800021C080915A0281FD1FC0ECCF809159027B
:1023900085FD1CC01DC08091590285FD19C016C065
:1023A0008091590286FD16C017C08091590286FDA2
:1023B00013C010C089E311C082EE0FC080EE0DC0C3
:1023C00080E00BC086EE09C084EE07C089E205C03C
:1023D00085E303C08AE201C081E390E00895909113
:1023E000590292FF0DC0282F2871283019F4877FD9
:1023F000846006C0282F2471243011F48B7F8860FC
:1024000093FF0DC0282F2871283119F4877E84612D
:1024100006C0282F2471243111F48B7E886120910D
:102420005A0220FF0DC0382F3871383019F4877FD9
:10243000816006C0382F3171313011F48E7F886091
:1024400021FF0DC0282F2871283119F4877E816162
:1024500006C0282F2171213111F48E7E886194FDF0
:10246000877E089580E008950C948C0E0E9443139B
:102470008FE39CE90197F1F700C000000E9443132D
:1024800080E00E94661280FF04C00E9434120C9407
:10249000AF1A08950C9436120E94920E811102C058
:1024A0000E94390F0E949D0E809325020E94A50E66
:1024B00090935A02809359020E944A120E94A10EE0
:1024C0000E9407098091B3010C941809E82FF0E0ED
:1024D000EE0FFF1FEB59FD4F808191810895089504
:1024E00080EA8A95F1F7089500C008950C9470125F
:1024F00008950C9478120C9479120C9478120C9420
:102500007D12F894E82FE295EF70F0E031A1282FCA
:102510002F7081E090E001C0880F2A95EAF7982F8C
:102520009095932391A392A1892B82A378940895E7
:102530000F931F93CF93DF93CEE7D1E089918F3F25
:1025400011F00E94811281E0C338D807B9F7CFE6B5
:10255000D1E00EE711E089918F3F11F00E948112C6
:102560000C171D07C1F7DF91CF911F910F910895AF
:10257000AF92BF92CF92DF92EF92FF920F931F9391
:10258000CF93DF938C01C62FD0E0CE0182589E4FAF
:102590006C01DC019C919F3F09F457C0B62EF89462
:1025A000E92FE295EF70F0E081A19F7021E030E02B
:1025B00001C0220F9A95EAF7822B81A382A1209570
:1025C000282322A378940E947412EFE6F1E020E021
:1025D00030E0E12CF12C41E050E081918F3FC1F0DF
:1025E000A82FA295AF70B0E090966C9170E08F70BC
:1025F000DB0102C0B595A7958A95E2F7A0FD08C05A
:10260000CA01022E02C0880F991F0A94E2F702C085
:1026100080E090E0E82AF92A2F5F3F4F2F30310504
:10262000E1F6F60180818F3F11F00E94811261E096
:10263000E114F10409F460E08B2D0E947612CC0FB6
:10264000DD1FC00FD11FF982E882DF91CF911F916A
:102650000F91FF90EF90DF90CF90BF90AF900895D3
:102660000E949812EBE5F2E0A5E6B2E01192119219
:102670001D921D9282E0E536F807C1F785E00E94C1
:102680008E130C949603FF920F931F93CF93DF93B7
:10269000CDB7DEB72A970FB6F894DEBF0FBECDBF19
:1026A0008E010F5F1F4F8AE0F80111928A95E9F7BA
:1026B000F12C6F2DC8010E94B812F394F5E0FF12BF
:1026C000F8CF4AE050E0B8018BE592E00E94412249
:1026D000FF24F394009709F4F12C892B41F08AE050
:1026E000F801ABE5B2E001900D928A95E1F72F2D4C
:1026F00045E065E672E08BE592E00E948F130E9450
:102700009C038F2D2A960FB6F894DEBF0FBECDBF67
:10271000DF91CF911F910F91FF9008950895FF923F
:102720000F931F93CF93DF93F82E092F162FD72FD8
:10273000C42F222349F081E0809328020E94621A6C
:102740009093270280932602809128028823D9F053
:1027500080912602909127020E947A1A059798F09C
:10276000EF2DF02FA12FBD2F80E090E04C2F50E0F7
:102770008417950734F4219131912D933D9301965F
:10278000F7CF10922802DF91CF911F910F91FF9008
:1027900008950E94D9190E945E1C0E94771C0E9415
:1027A000891C0E94750FFBCF83E290E00E944E22AD
:1027B000813281F484E290E00E944E22803151F413
:1027C00085E290E00E944E2291E0803109F090E095
:1027D000892F01C080E081700895CF93C82F8111A7
:1027E00002C06FEF01C061E283E290E00E945C22D0
:1027F000C11102C06FEF01C060E184E290E00E946D
:102800005C22C11102C06FEF01C060E185E290E07F
:10281000CF910C945C22089586E290E00E944E22B3
:10282000682F70E080E090E0089586E290E00C94DC
:102830005C2280E00E94ED1360E070E0CB010E941A
:1028400015140E945C150E943B1681E00C94ED1358
:102850000E940B140E94D413811102C00C9419140D
:102860000895CF93FB01C281CC23E9F09C01225152
:102870003F452031310520F482510E944B160CC097
:102880008031FFE59F0751F481E00E942B0943E06E
:1028900062E081E00E948D03C0E018C081319F4555
:1028A000A9F482E0F2CF8031EFE59E0711F481E0D8
:1028B00004C081319F4549F482E00E94360943E01B
:1028C00062E081E00E948D0301C0C1E08C2FCF91B6
:1028D00008952FEFFC0120830895EF92FF920F934C
:1028E0001F93CF93DF93EC01062FE8818E2F90E0AA
:1028F000FC013197E331F10508F091C0EC58FF4F2E
:102900000C943422198289E04DC08981823039F0DB
:10291000833061F0813029F50E946E1A02C00E9456
:102920000C149A838B837C836D837BC07E0110E0C3
:10293000812F0E946612F701928383831F5FF2E06A
:10294000EF0EF11C1530A1F76CC08981823049F47B
:102950006A817B818C819D810E943A220E9415149C
:1029600060C0602FCE010E9469145BC04B816A81F8
:1029700089810E942E159C838D8353C02C813D81BB
:102980003227232732274B816A8189810E9447158C
:1029900048C00E945C1545C00E94EE1524C00E94EC
:1029A000F01599838A833DC06B8170E089819A819B
:1029B000AE014C5F5F4F9827892798270E94F31537
:1029C00030C06B8170E089819A81AE014C5F5F4FAE
:1029D0009827892798270E94181623C00E943B1623
:1029E00020C00E941B1589831CC06B8170E0898107
:1029F0009A81AE014C5F5F4F9827892798270E94E4
:102A00009B150FC06B8170E089819A81AE014C5F8C
:102A10005F4F9827892798270E94BF1502C08FEF24
:102A20008883602FCE01DF91CF911F910F91FF908E
:102A3000EF900C944F1B84E0089550E0440F551F15
:102A40002EE1629F400D511D11249A0166E9869F77
:102A5000200D311D1124C901879608950F931F93EE
:102A6000CF93DF930E941D158C010E944E22C82F28
:102A7000D0E0DC2FCC27C80101960E944E229E0197
:102A8000282BC901DF91CF911F910F9108950F93CA
:102A90001F93CF93DF93122F032F0E941D15EC017C
:102AA000602F0E945C22612FCE010196DF91CF91B1
:102AB0001F910F910C945C22AF92BF92CF92DF9244
:102AC000EF92FF920F931F93CF93DF93A12CE12CF2
:102AD000F12CB12C00E010E0C0E0D0E06701C00EA6
:102AE000D11EFE01EE0FFF1FEC0DFD1DEE5DFE4F32
:102AF000259134914C2F6B2D8A2D0E9447152196DC
:102B0000CF30D10571F7025E1F4FB39485E0B81244
:102B1000E3CF86E9E80EF11CA39484E0A812D9CF94
:102B2000DF91CF911F910F91FF90EF90DF90CF90A9
:102B3000BF90AF900895EF92FF920F931F93CF93A2
:102B4000DF93EA017A01E60EF71E8C01C801879631
:102B5000CE15DF0569F0083522E0120720F40E9447
:102B60004E22888301C0188221960F5F1F4FEECF3F
:102B7000DF91CF911F910F91FF90EF900895EF9209
:102B8000FF920F931F93CF93DF93EA017A01E60E32
:102B9000F71E8C01C8018796CE15DF0559F0083560
:102BA00022E0120718F468810E945C2221960F5FD0
:102BB0001F4FF0CFDF91CF911F910F91FF90EF90BA
:102BC0000895462F843038F4753028F46F3018F4A7
:102BD000672F0C942E1580E090E0089580E1089511
:102BE00081E891E00895EF92FF920F931F93CF93A6
:102BF000DF93EA017A01E60EF71E8C01C8018158C5
:102C00009D4FCE15DF0569F0013821E0120720F451
:102C10000E944E22888301C0188221960F5F1F4FA9
:102C2000EDCFDF91CF911F910F91FF90EF9008951D
:102C3000EF92FF920F931F93CF93DF93EA017A01F4
:102C4000E60EF71E8C01C80181589D4FCE15DF0599
:102C500059F0013821E0120718F468810E945C22C3
:102C600021960F5F1F4FEFCFDF91CF911F910F91F3
:102C7000FF90EF900895CF93DF93CFE7D2E060E02D
:102C8000CE010E945C222196C11584E0D807B9F7D5
:102C9000DF91CF910895DF92EF92FF920F931F93F0
:102CA000CF93DF9300D000D0CDB7DEB7F82E8FE002
:102CB0008F15E8F18FEF93E00E944E22811137C00B
:102CC0000FE712E0FF2069F0011584E0180779F1A1
:102CD000C8010E944E22811101C0FA940F5F1F4F5C
:102CE000F1CF19821A821B821C82DD24D3947801D1
:102CF0008FEFE81AF80AC8010E944E2289831A82CF
:102D00008823A9F09FEF980F933058F48A83D982D3
:102D10000E5F1F4FC7010E944E228B83882339F01C
:102D20007801CE0101960E94D6048701E0CF0F9072
:102D30000F900F900F90DF91CF911F910F91FF9007
:102D4000EF90DF9008950F931F93CF93DF93C42FDD
:102D5000D22FFC0182818823C9F040932B020E946C
:102D6000621A90932A028093290280E28C0F8830A5
:102D700008F057C0C77081E001C0880FCA95EAF714
:102D8000DF91CF911F910F910C945B0680912B02E4
:102D9000481330C08091290290912A020E947A1A29
:102DA000883C910538F510E21D0FCD17B9F080E28F
:102DB0008C0F883040F4C77081E001C0880FCA953D
:102DC000EAF70E946206183028F581E09D2F97707F
:102DD00001C0880F9A95EAF70E945B06802F0E9437
:102DE00052061830F0F4D77081E001C0880FDA95F0
:102DF000EAF70AC080E28C0F883098F4C77081E04F
:102E000001C0880FCA95EAF7DF91CF911F910F910A
:102E10000C946206802FDF91CF911F910F910C943B
:102E20005206DF91CF911F910F9108950F939C014E
:102E3000CB01233F4CE5340731F188F4283DFCE514
:102E40003F07D9F0293D4CE5340779F1273D3C4552
:102E5000A9F506E221EE41EE67ED7CE52BC0253FAA
:102E6000FCE53F07E1F0A8F0263F3C4539F507E2D5
:102E700025EE46EE66EF7CE51DC007E225EE45EE49
:102E800068ED7CE517C006E221EE40EE63EF7CE5DD
:102E900011C007E225EE44EE64EF7CE50BC006E2CC
:102EA00021EE42EE65EF7CE505C008E221E045EE4B
:102EB00069ED7CE50E94A31680E008C0FC018281D8
:102EC000882319F010922B0201C081E00F91089520
:102ED000CF93DF93EC01FB018281882309F41FC1AA
:102EE000C230FCE5DF0708F41BC1C6319CE5D907F9
:102EF00038F09E012A5F3C452930310508F010C1A9
:102F00000E94A50E90935A0280935902C031ECE5BD
:102F1000DE0709F4C3C008F041C0C8308CE5D8070B
:102F200009F49AC0F0F4C430ECE5DE0709F487C078
:102F300068F4C2308CE5D80709F477C0C330DC45AB
:102F400009F0E3C080915902826076C0C630ECE59A
:102F5000DE0709F46EC008F07BC0809159028860DA
:102F60006BC0CC308CE5D80709F485C068F4CA3052
:102F7000ECE5DE0709F474C008F079C00E94AC08E3
:102F800080915902806858C0CE308CE5D80709F48A
:102F900076C008F07FC0809159028BC0CB3FECE532
:102FA000DE0709F44FC018F5C3318CE5D80709F4E2
:102FB0007DC078F4C131ECE5DE0709F473C0C2319D
:102FC000DC4509F0A2C00E94AC08809159028F77BD
:102FD00033C0C5318CE5D80709F472C008F486C047
:102FE000CA3FDC4509F091C080915A023EC0CF3FF4
:102FF000FCE5DF0709F45FC058F4CD3F9CE5D90735
:1030000009F444C008F43FC080915A0282602DC088
:10301000C130FDE5DF0709F475C008F45DC0C230BA
:10302000DD4509F072C080E06EC080915902816078
:1030300003C08091590280618093590266C08091DB
:10304000590211C080915A02826080935A025DC079
:10305000809159028062F0CF809159028064ECCF58
:103060008091590288608460E7CF8160EECF8091C3
:1030700059028E7FE1CF809159028D7FDDCF809103
:103080005902877FD9CF80915A0218C080915A0285
:103090008D7FDBCF809159028F7ECECF80915902F8
:1030A0008F7DCACF809159028F7BC6CF8091590204
:1030B000877F8B7FC1CF80915A028D7F8E7FC5CF56
:1030C0008091590282FB222720F991E0922790FB00
:1030D00082F990FB83F9B0CF80915A02982F909596
:1030E00091708E7F892B90FB81F9AFCF0E94AC0845
:1030F0008091590287FB222720F991E0922790FBCB
:1031000087F99ACF81E00E943B0F809159029091FC
:103110005A020E94B60E0E94AC0880E001C081E015
:10312000DF91CF910895CF93DF9386319C4541F590
:10313000EB010E94CD0D982F8A81209100013091E2
:103140000101882379F09A7A81E009F480E0809384
:103150002C02911102C069E201C065E3C9010E941D
:10316000B1190AC080912C02811102C069E201C02C
:1031700065E3C9010E94BC190E941F0E80E001C0D6
:1031800081E0DF91CF9108959093320280933102D4
:103190000895E0913102F0913202309721F00190D0
:1031A000F081E02D099480E00895E0913102F091E2
:1031B0003202309799F020910C01222359F020918E
:1031C000590227FF07C0DC012C9111962C9311970F
:1031D00025E02C930280F381E02D0994089520913D
:1031E0002F02309130022817390771F09093300286
:1031F00080932F02E0913102F0913202309721F05A
:103200000680F781E02D0994089520912D023091D8
:103210002E022817390771F090932E0280932D0209
:10322000E0913102F0913202309721F00084F18573
:10323000E02D09940895FC01329680910C018823B9
:1032400031F08091590287FF02C09EE101C096E0F3
:1032500080E0915028F021912223D9F38F5FF9CF9C
:103260000895662351F120910C012223E9F0209169
:10327000590227FF19C0462F4695469546954E316F
:10328000E0F4677021E030E002C0220F331F6A953E
:10329000E2F7FC01E40FF11D828190E0282339233D
:1032A00081E0232B69F409C0FC0132960896219134
:1032B000621729F0E817F907D1F780E0089581E057
:1032C00008959C01FC0132969FEF80E041914617E2
:1032D00089F09F3F19F4411101C0982F8F5F86300C
:1032E000A9F79F3F39F0F901E90FF11D97FDFA9514
:1032F0006283089508959C012A5F3F4FFC0142813B
:10330000461301C01282019682179307B9F70895F8
:10331000262F2695269526952E3168F4FC01E20F7E
:10332000F11D677021E030E001C0220F6A95EAF7D5
:103330008281282B22830895262F2695269526956F
:103340002E3170F4FC01E20FF11D677021E030E0D6
:1033500001C0220F6A95EAF72095828128232283F3
:10336000089520910C01222329F02091590227FD74
:103370000C9488190C94611920910C01222329F0D6
:103380002091590227FD0C949C190C947B192091D3
:103390000C01FC013296222331F08091590287FF03
:1033A00002C08EE101C086E0DF011D928A95E9F737
:1033B0000895089508950C94DA190C94DA19CF93AE
:1033C0000E94DD190E9443130E94DB19C0E08C2F7C
:1033D0000E946612892B29F4CF5FC530C1F780E0C7
:1033E00001C081E0CF9108950C94DA190C94F4197E
:1033F00080917702843049F10E94F61980E00E94A2
:10340000E1041092330220E488E190E00FB6F894D2
:10341000A895809360000FBE2093600083B7817FE2
:10342000846083BF83B7816083BF7894889583B7B6
:103430008E7F83BF0FB6F894A89580916000886155
:1034400080936000109260000FBE08950C94DA190A
:103450000E94AC080E94C9180E94E1040C94261A2C
:103460001F920F920FB60F9211248F939F93AF93D9
:10347000BF9380913302811113C080916F029091AC
:103480007002A0917102B09172024196A11DB11D0E
:1034900080936F0290937002A0937102B0937202B6
:1034A000BF91AF919F918F910F900FBE0F901F9082
:1034B000189582E084BD93E095BD9AEF97BD809307
:1034C0006E0008952FB7F89480916F02909170026A
:1034D000A0917102B09172022FBF08952FB7F89496
:1034E00060916F02709170028091710290917202EE
:1034F0002FBF08959C014FB7F89480916F0290916F
:103500007002A0917102B09172024FBF821B930BA7
:10351000089578941F920F920FB60F9211248F93F3
:103520009F93AF93BF9380916F0290917002A0918F
:103530007102B09172020196A11DB11D80936F02BC
:1035400090937002A0937102B0937202BF91AF91F9
:103550009F918F910F900FBE0F901F90189581E053
:103560008093E00080E28093D8001092C9008FE140
:103570009EE40197F1F700C0000087E090EBDC01CA
:103580008093800290938102A0938202B093830281
:103590009CE088E10FB6F894A895809360000FBE78
:1035A00090936000FFCF90939301809392010895D0
:1035B00080915702089590917702943029F5809375
:1035C000340270933602609335029093E9008FEFD6
:1035D0009091E800815095FD06C095ED9A95F1F720
:1035E00000008111F5CF8091E80085FF0DC040E01B
:1035F00050E063E070E084E392E00E944B1D809114
:10360000E8008E778093E8000895BC0184E00C9474
:10361000DB1ABC0183E00C94DB1ACF93DF9320917B
:103620000C01222339F02091590227FF03C060E2E8
:1036300024E002C068E021E02093E9002FEF309100
:10364000E800215035FD06C035ED3A95F1F7000050
:103650002111F5CF2091E80025FF1DC0EC018091DC
:103660000C01811105C040E050E068E070E003C04B
:1036700070E040E050E0CE010E944B1D8091E800D8
:103680008E778093E80080E2FE01A7E3B2E001902C
:103690000D928A95E1F7DF91CF9108950895CF9328
:1036A000603219F5209177022430F9F4C091E900D5
:1036B000CF703091EC00232F217030FD20E8C22B19
:1036C00022E02093E9002091E80020FF0BC040E0B9
:1036D00050E060E270E00E944B1D8091E8008E7720
:1036E0008093E800CF70C093E900CF910895809156
:1036F0007602811109C00E94271F0E94841F8091B9
:10370000E20084608093E2000895109276020895AA
:1037100008950895089542E061EC81E00E94A01EA2
:1037200042E261EC84E00E94A01E42E261EC82E091
:103730000E94A01E42E260EC83E00C94A01E8091E7
:103740007902833009F462C030F4813071F0823044
:1037500009F49BC008958A3009F487C08B3009F4BE
:103760006DC0893009F0A9C020C080917802813AEB
:1037700009F0A3C08091E800877F8093E8008091E2
:103780007C0290917D02892B21F460E287E392E034
:1037900003C060E080E090E070E00E94E11D809155
:1037A000E8008B778093E800089580917802813259
:1037B00009F083C080917C0290917D02009719F0FE
:1037C000029709F07AC08091E800877F8093E80033
:1037D0008091E80082FD05C0809177028111F8CFC9
:1037E0006CC02091F3008091F20090E0922B029740
:1037F00029F48091F1008B7F813021F48091F100D8
:10380000809357028091E8008B7753C080917802B3
:10381000813A09F052C080917C0290917D02892BFF
:1038200009F04BC08091E800877F8093E800809189
:10383000E80080FFFCCF80910C0136C080917802B7
:103840008132D9F580917C0290917D02892BA9F576
:103850008091E800877F8093E8000E94D51E8091C8
:103860007A0280930C010C94AC088091780281322A
:1038700021F58091E800877F8093E8000E94D51EA3
:1038800080917B0280935802089580917802813A5A
:10389000A1F48091E800877F8093E8008091E800A0
:1038A00080FFFCCF809158028093F1008091E80066
:1038B0008E778093E8000C94D51E089584B7877F97
:1038C00084BF0FB6F894A8958091600088618093BA
:1038D0006000109260000FBE90E080E80FB6F89490
:1038E00080936100909361000FBE0C946B0F0E9457
:1038F000271F0E94841FE2EEF0E0808184608083B5
:1039000078940E9419220E94790F82E091E00C9431
:10391000C418CF93DF93CDB7DEB7A0970FB6F89456
:10392000DEBF0FBECDBF809177028530A9F48091B4
:103930007702853079F40E94F81980917502882306
:10394000B1F30E94DF19882391F30E94351D0E9474
:10395000AC08EDCF0E94281A0E94810F8091770257
:10396000843011F583E08093E9008091E80082FFC4
:103970001BC08091E80085FF0AC040E050E060E293
:1039800070E0CE0101960E94961D91E001C090E08A
:103990008091E8008B778093E800992329F060E21A
:1039A000CE0101960E946D14A0960FB6F894DEBF6A
:1039B0000FBECDBFDF91CF9108950C94DF1C292F4E
:1039C000332723303105C9F060F42130310581F00F
:1039D0002230310509F041C08BE590E02CE634E05F
:1039E00040C021323105E1F02232310531F135C0DC
:1039F00082E190E027EC34E034C0992781309105D2
:103A000049F028F0029749F5EAE2F4E005C0E8E65B
:103A1000F4E002C0E0E5F4E0849190E09F0121C071
:103A200063307105D0F4660F771FFB01E457FE4F3A
:103A30002081318189E090E014C06330710568F421
:103A4000FB01EE0FFF1FEA57FE4F20813181FB0182
:103A5000ED57FE4F808190E004C080E090E020E0D0
:103A600030E0FA0131832083089580E189BD82E14D
:103A700089BD09B400FEFDCF8091D8008F7D809371
:103A8000D8008091E00082608093E0008091E000A7
:103A900081FDFCCF0895CF92DF92EF92FF920F93BA
:103AA0001F93CF93DF93EC018B017A010E94F41EE8
:103AB000811133C0E114F10439F0F7018081918163
:103AC000081B190BC80FD91FC12CD12C01151105CA
:103AD00019F18091E80085FD16C08091E8008E778D
:103AE0008093E800E114F10449F0F70180819181AD
:103AF000C80ED91ED182C08285E00FC00E94F41E7C
:103B0000882321F30AC089918093F10001501109A3
:103B1000FFEFCF1ADF0ADACF80E0DF91CF911F915C
:103B20000F91FF90EF90DF90CF900895CF92DF92AA
:103B3000EF92FF920F931F93CF93DF93EC018B01D2
:103B40007A010E94F41E811133C0E114F10439F0AE
:103B5000F70180819181081B190BC80FD91FC12C57
:103B6000D12C0115110519F18091E80085FD16C0D1
:103B70008091E8008B778093E800E114F10449F02C
:103B8000F70180819181C80ED91ED182C08285E063
:103B90000FC00E94F41E882321F30AC08091F10017
:103BA000899301501109FFEFCF1ADF0ADACF80E0C5
:103BB000DF91CF911F910F91FF90EF90DF90CF9009
:103BC000089520917E0230917F022617370748F032
:103BD0006115710539F42091E8002E772093E800F3
:103BE00001C0B901FC0120E06115710579F18091F6
:103BF00077028823F1F18530F1F18091E80083FDAF
:103C00003CC08091E80082FD2EC08091E80080FFDA
:103C1000EBCF2091F3008091F20090E0922B6115A0
:103C2000710551F08830910538F421912093F1000D
:103C3000615071090196F3CF21E0089709F020E067
:103C40008091E8008E778093E800CECF2111CFCF0E
:103C50000AC080917702882361F0853061F08091FD
:103C6000E80083FD0AC08091E80082FFF2CF80E087
:103C7000089582E0089583E0089581E008952091F9
:103C80007E0230917F022617370748F061157105D3
:103C900039F42091E8002E772093E80001C0B901A3
:103CA000FC0120E06115710591F180917702882374
:103CB00009F440C0853009F43FC08091E80083FDDD
:103CC0003DC08091E80082FD2FC08091E80080FF18
:103CD000E9CF2091F3008091F20090E0922B6115E2
:103CE000710559F08830910540F424912093F1003A
:103CF0003196615071090196F2CF21E0089709F0E1
:103D000020E08091E8008E778093E800CBCF2111EE
:103D1000CCCF0AC080917702882361F0853061F0B2
:103D20008091E80083FD0AC08091E80082FFF2CF15
:103D300080E0089582E0089583E0089581E0089589
:103D4000982F973068F59093E900981739F07091A3
:103D5000EC002091ED005091F00003C0242F762F4D
:103D600050E021FD02C09F5FECCF3091EB003E7F21
:103D70003093EB003091ED003D7F3093ED003091BA
:103D8000EB0031603093EB007093EC002093ED007A
:103D90005093F0002091EE0027FDE5CF80E00895DC
:103DA0008F708093E90081E008958091780287FF09
:103DB00011C08091E80082FD05C0809177028111D9
:103DC000F8CF11C08091E8008B770BC0809177020B
:103DD000882349F08091E80080FFF8CF8091E800C7
:103DE0008E778093E80008952091E4003091E500FB
:103DF00095E64091EC00842F817040FF23C08091B4
:103E0000E80080FD1DC080917702882399F08530FD
:103E100099F08091EB0085FD11C04091E400509134
:103E2000E5002417350729F3915011F09A01E1CFED
:103E300084E0089582E0089583E0089581E0089584
:103E400080E008954091E80042FFDDCF08950E9490
:103E5000951F0E949D1FE0EEF0E0808181608083CD
:103E6000E8EDF0E080818F77808319BCA7EDB0E0AA
:103E70008C918E7F8C9380818F7E808310927602CE
:103E800008950F931F93CF93DF930E94951F0E9475
:103E90009D1FC8EDD0E088818F77888388818068F6
:103EA000888388818F7D888319BC10927702109255
:103EB0007302109275021092740200EE10E0F80185
:103EC00080818B7F808388818160888342E060E08D
:103ED00080E00E94A01EE1EEF0E080818E7F808372
:103EE000E2EEF0E080818160808380818860808361
:103EF000F80180818E7F8083888180618883DF9153
:103F0000CF911F910F910895E8EDF0E080818F7EB1
:103F10008083E7EDF0E080818160808384E082BF70
:103F200081E0809376020C94411FE8EDF0E08081FF
:103F30008E7F80831092E20008951092DA00109232
:103F4000E10008951F920F920FB60F9211242F9344
:103F50003F934F935F936F937F938F939F93AF9311
:103F6000BF93EF93FF938091E10082FF0BC080919C
:103F7000E20082FF07C08091E1008B7F8093E10027
:103F80000E9418228091DA0080FF1FC08091D80023
:103F900080FF1BC08091DA008E7F8093DA008091D1
:103FA000D90080FF0DC080E189BD82E189BD09B4DF
:103FB00000FEFDCF81E0809377020E94771B05C051
:103FC00019BC109277020E94851B8091E10080FF4E
:103FD00019C08091E20080FF15C08091E2008E7FC1
:103FE0008093E2008091E20080618093E200809102
:103FF000D80080628093D80019BC85E08093770256
:104000000E94891B8091E10084FF30C08091E20012
:1040100084FF2CC080E189BD82E189BD09B400FE26
:10402000FDCF8091D8008F7D8093D8008091E100F2
:104030008F7E8093E1008091E2008F7E8093E2008A
:104040008091E20081608093E20080917302882376
:1040500011F084E007C08091E30087FD02C081E099
:1040600001C083E0809377020E948A1B8091E10067
:1040700083FF29C08091E20083FF25C08091E10089
:10408000877F8093E10082E0809377021092730231
:104090008091E1008E7F8093E1008091E2008E7F2D
:1040A0008093E2008091E20080618093E20042E030
:1040B00060E080E00E94A01E8091F0008860809304
:1040C000F0000E94881BFF91EF91BF91AF919F91EB
:1040D0008F917F916F915F914F913F912F910F90B1
:1040E0000FBE0F901F9018951F920F920FB60F9250
:1040F00011242F933F934F935F936F937F938F93ED
:104100009F93AF93BF93CF93DF93EF93FF93C091B0
:10411000E900CF708091EC00D82FD17080FDD0E8FD
:104120001092E9008091F000877F8093F0007894EE
:104130000E94B8201092E9008091F000886080937E
:10414000F000CD2BCF70C093E900FF91EF91DF918C
:10415000CF91BF91AF919F918F917F916F915F911F
:104160004F913F912F910F900FBE0F901F90189578
:104170001F93CF93DF93CDB7DEB7AA970FB6F8940E
:10418000DEBF0FBECDBFE8E7F2E08091F100819382
:1041900022E0E038F207C9F70E949F1B8091E800F7
:1041A00083FF2EC18091780290917902492F50E0CF
:1041B0004A30510508F024C1FA01E957FF4F0C9429
:1041C0003422803821F0823809F01AC108C0809169
:1041D000740290917502992389F082600FC08091DA
:1041E0007C028F70873008F00BC18093E9008091CA
:1041F000EB0085FB882780F91092E9009091E80098
:10420000977F9093E8008093F1001092F100D1C065
:10421000282F2D7F09F0F4C0882319F0823061F037
:10422000EFC080917A02813009F0EAC0933009F042
:1042300080E0809375022EC080917A0281112AC09D
:1042400080917C028F702FEF280F263008F0D8C0A5
:104250008093E9002091EB0020FF1CC0933021F4F3
:104260008091EB00806214C09091EB00906190937C
:10427000EB0021E030E0A90102C0440F551F8A95F0
:10428000E2F74093EA001092EA008091EB00886028
:104290008093EB001092E9008091E800877F809383
:1042A000E8000E94D51EACC08111AAC010917A020C
:1042B0001F778091E3008078812B8093E3008091C9
:1042C000E800877F8093E8000E94D51E8091E80077
:1042D00080FFFCCF8091E30080688093E3001111A0
:1042E00002C082E001C083E08093770289C08058D9
:1042F000823008F085C080917A0290917B028C3DDB
:1043000053E0950779F583E08A838AE289834FB782
:10431000F894DE01139620E03EE051E2E32FF0E056
:1043200050935700E49120FF03C0E295EF703F5F88
:10433000EF708E2F90E0EA3010F0C79601C0C09663
:104340008D939D932F5F243149F74FBF8091E800F3
:10435000877F8093E8006AE270E0CE0101960E94B8
:10436000E11D16C060917C0270917D02AE014F5F2D
:104370005F4F0E94DD1CBC01892B09F441C0909164
:10438000E800977F9093E80089819A810E943F1E00
:104390008091E8008B778093E80032C0803881F507
:1043A0008091E800877F8093E8008091730280937A
:1043B000F1008091E8008E7772CF811121C0809149
:1043C0007A0290917B0299270297D4F48091E800B9
:1043D000877F8093E80080917A02809373020E9425
:1043E000D51E80917302811106C08091E30087FD84
:1043F00002C081E001C084E0809377020E948B1BA1
:104400008091E80083FF0AC08091E800877F809355
:10441000E8008091EB0080628093EB00AA960FB6D3
:10442000F894DEBF0FBECDBFDF91CF911F910895ED
:104430000895CF93809177028823A1F0C091E9007D
:10444000CF709091EC00892F817090FD80E8C82B8F
:104450001092E9008091E80083FD0E94B820CF709F
:10446000C093E900CF910895EE0FFF1F0590F491DE
:10447000E02D0994692796276927782787277827C9
:104480000895FB01DC0104C08D910190801921F495
:1044900041505040C8F7881B990B0895F999FECFF9
:1044A00092BD81BDF89A992780B50895A8E1B0E042
:1044B00042E050E00C948222262FF999FECF92BD63
:1044C00081BDF89A019700B4021639F01FBA20BDD9
:1044D0000FB6F894FA9AF99A0FBE08950396272F0B
:1044E0000E945D220E945C22252F0E945D22242FC3
:1044F0000C945D220196272F0E945D220C945C2271
:10450000DC01CB01FC01F999FECF06C0F2BDE1BD93
:10451000F89A319600B40D9241505040B8F7089582
:04452000F894FFCF3D
:10452400EF01D81A0D1B4E1B091B051B01E200E904
:1045340000EA00B500B600B700CD008301CC008AC4
:10454400019201940121022302240225022602275A
:10455400022A02B300B4006F007000818283E2007B
:10456400E900EA00B500B600B700CD008301CC0035
:104574008A019201940121022302240225022602C7
:1045840027022A02B300B4006F007000818283F511
:104594009531323393926766363534979694F0F1B9
:1045A400F4F6F740226D6805D904FB047E049704F1
:0245B400B7044A
:00000001FF
