:100000000C9440030C9487030C9487030C9487038F
:100010000C9487030C9487030C9487030C94870338
:100020000C9487030C9487030C945C200C942E2171
:100030000C94EA1A0C9487030C9487030C9487039E
:100040000C9487030C9487030C9487030C94870308
:100050000C9487030C94431B0C9487030C94870324
:100060000C9487030C9487030C9487030C948703E8
:100070000C9487030C9487030C9487030C948703D8
:100080000C9487030C9487030C9487030C948703C8
:100090000C9487030C9487030C9487030C948703B8
:1000A0000C9487030C9487030C94870308070807B4
:1000B0003A073A0787078E088E088E08A5070D08AD
:1000C0001E081E087E088E088E0887082A092A093D
:1000D0003C093C0933093C093C093C092A092A0925
:1000E00038093C093C0938093B153E155F15701568
:1000F00078158315C915C915C915C915C9158615EA
:1001000089158E159B15A815AB15AF15BC159B2130
:10011000C221BA22C221BA220E223122BA22882258
:10012000972229003A003B003C003D003E003F0082
:1001300040004100420043004400450000004600EA
:100140004700480035001E001F002000210022004B
:10015000230024002500260027002D002E002A0061
:1001600049004A004B002B0014001A00080015003B
:1001700017001C0018000C00120013002F003000A4
:1001800031004C004D004E003900040016000700FD
:1001900009000A000B000D000E000F0033003400B0
:1001A00028002A00000000000000E10000001D00FF
:1001B0001B00060019000500110010003600370072
:1001C0003800E500E500000052000000E000E30018
:1001D000E2000000000000002C0000000000000011
:1001E000E600E7006500E400500051004F00010008
:1001F00001000100010001000100010001000100F7
:1002000001000100010001000000010001000100E7
:1002100001000100010001000100010001000100D6
:1002200001000100010001000100010001000100C6
:1002300001000100010001000100010001000100B6
:1002400001000100010001000100010001000100A6
:100250000100010001000100010001000100010096
:100260000100010001000100010001000100010086
:100270000000000000000100010001000100010079
:100280000100010001000100010001000100010066
:100290000100000001000000010001000100000059
:1002A000000000000100000000000000010001004B
:1002B0000100010001000100010001000100010036
:1002C0000100010001000100010001000100010026
:1002D0000100010000000100010001000100010017
:1002E0000100010001000100010001000100010006
:1002F00001000100010001000100010001000100F6
:1003000001000100010001000100010001000100E5
:1003100001000100010001000100010001000100D5
:1003200001000100010001000100010001000100C5
:1003300001000100010001000100010000000000B7
:1003400000000100010001000100010001000100A6
:100350000100010001000100010001000100000096
:100360000100000001000100010000000000000089
:100370000100000000000000010001000100010078
:100380000100010001000100010001000100010065
:100390000100010001000100010001000100010055
:1003A0000000010001000100010001000100010046
:1003B0000100010001000100010001000100010035
:1003C0000100010001000100010001000100010025
:1003D0000100010001000100010001000100010015
:1003E0000100010001000100010001000100010005
:1003F00001000100010001000100010001000100F5
:1004000001000100010001000000000000000100E7
:1004100001000100010001000100010001000100D4
:1004200001000100010001000100000001000000C6
:1004300001000100010000000000000001000000B8
:1004400000000000010001000100010001000100A6
:10045000010000000000000000002A2B280000001E
:100460000000000000000000000000000029000063
:1004700000002C1E3420212224342627252E362D40
:100480003738271E1F202122232425263333362EDA
:1004900037381F0405060708090A0B0C0D0E0F104C
:1004A0001112131415161718191A1B1C1D2F313091
:1004B000232D350405060708090A0B0C0D0E0F1035
:1004C0001112131415161718191A1B1C1D2F313071
:1004D000354C00000000000000000000000000009B
:1004E000000000000000000000000000000000000C
:1004F0000000000000007E0F00D4FFFFFFC70000D7
:1005000000782403770069006C00620061002E000F
:100510007400650063006800200057005400380034
:1005200030002D00470000001603770069006C00C2
:10053000620061002E007400650063006800000026
:100540000403090409025B00030100A0FA09040086
:1005500000010301010009211101000122400007EF
:1005600005810308000A09040100020300000009D4
:10057000211101000122220007058203200001074A
:100580000503032000010904020001030000000923
:100590002111010001226D000705840320000A12C9
:1005A0000100020000000882652300010001020032
:1005B000010660FF0961A1010962150026FF00958F
:1005C00020750881020963150026FF009520750833
:1005D0009102C005010980A101850319012AB70014
:1005E000150126B700950175108100C0050C0901A1
:1005F000A101850419012AA002150126A002950176
:1006000075108100C005010906A1018505050719BE
:10061000E029E715002501950875018102050719F4
:100620000029EF1500250195F075018102050819D3
:10063000012905950575019102950175039101C088
:1006400005010906A101050719E029E715002501A3
:10065000950875018102950175088101050719004A
:1006600029FF150026FF0095067508810005081969
:10067000012905950575019102950175039101C048
:1006800011241FBECFEFDAE0DEBFCDBF04B603FEFC
:1006900027C08091B7029091B802A091B902B091A1
:1006A000BA028730904BA740B04BD1F41092B702FA
:1006B0001092B8021092B9021092BA0214BE84B716
:1006C000877F84BF0FB6F894A895809160008861F9
:1006D00080936000109260000FBEE0E0F8E309959F
:1006E00011E0A0E0B1E0E8E9F6E402C005900D9267
:1006F000A639B107D9F722E0A6E9B1E001C01D9201
:10070000A73BB207E1F70E9482140C944A230C9491
:10071000000081E0089581E008950C948B03089512
:100720000C948F031F93CF93DF9300D000D01F92C0
:10073000CDB7DEB749835A836B83309198018981A5
:100740009A81311114C0662359F0222349F00E9486
:10075000200A182F682F89819A810E94C90903C035
:100760000E94F409182F69817A81812F04C00E94A8
:10077000200A69817A810F900F900F900F900F904F
:10078000DF91CF911F910C949B16FC01262F408185
:1007900051816281738184810C94920381E0089578
:1007A000CF93DF93EC0160E00E94C503BE01DF91AF
:1007B000CF910C949003E1E0F0E0DF0102C0AA0FBA
:1007C000BB1F6A95E2F7BD01DF0102C0AA0FBB1F84
:1007D0004A95E2F7AD01462B01C0EE0F2A95EAF7E4
:1007E000942F9823491302C08E2B0895E0958E23F1
:1007F0000895242F462F682F8091C0010E94DB03AB
:100800000C9486090E94E3120E944C050C94191363
:100810000C94151308950E9418090E940A042FEFE2
:1008200084E39CE0215080409040E1F700C000004C
:100830000C94691B0F931F93CF93DF938C0161E09E
:100840000E94C503EC01B8010E94EA14882309F450
:1008500044C0B801CE010E948D038823F1F1B80194
:10086000CE010E94CE178823C1F1B801CE010E94AB
:100870002018882391F1B801CE010E944B198823DA
:1008800061F1F8018281882309F1CA358DE5D80725
:10089000C1F050F4C115FCE5DF0781F0CE3DDC4529
:1008A000A9F40E94A50F19C0CB35EDE5DE0761F074
:1008B000CC35DD4559F40E942A0E08C00E940B0475
:1008C0000CC00E94330E02C00E94360EC801DF9198
:1008D000CF911F910F910C94890380E0DF91CF910C
:1008E0001F910F910895DF92EF92FF920F931F9344
:1008F000CF93DF93E82FF0E0EE5AFB4FD490282FF0
:1009000026952695269530E0F901EE50FB4F04918F
:10091000877010E0082E02C0159507950A94E2F73B
:1009200001701127F901EE51FB4FE490F12C082ED4
:1009300002C0F594E7940A94E2F791E0E922FF24DB
:10094000F901EE52FB4FC491D0E002C0D595C79596
:100950008A95E2F7C170DD270115110519F081EEC6
:100960000E94A605E114F10419F086EE0E94A60586
:100970008D2D0E94BE06EF2819F086EE0E944806D3
:10098000012B19F081EE0E944806CD2B51F08CE22C
:10099000DF91CF911F910F91FF90EF90DF900C941A
:1009A000BE06DF91CF911F910F91FF90EF90DF90E6
:1009B0000895EF92FF920F931F93CF93DF93EC0173
:1009C000162F0AE08881882309F455C0813009F088
:1009D00043C08981813041F47E0182E0E80EF11C40
:1009E0008A810E94BE0609C0823049F47E01E2E09D
:1009F000EE0EF11C8A810E94A605E7012FC083300C
:100A000041F47E01F2E0EF0EF11C8A810E9448065B
:100A1000F4CF843011F0219621C02A81229680E003
:100A200090E030E0205331092A30310558F4089F16
:100A3000A001099F500D1124C901840F951F219613
:100A40002881EFCF009751F0EFE9FFE03197F1F700
:100A500000C000000197F6CF0E9473042196812FF9
:100A6000882309F4AFCFEFE9FFE03197F1F700C039
:100A700000008150F5CFDF91CF911F910F91FF9032
:100A8000EF90089560E00C94D90408950C94450506
:100A900081E008950C9448050895CF93C82F0E94D3
:100AA00046058C2F0E944A05CF910895CF93DF937E
:100AB000CDB7DEB72B970FB6F894DEBF0FBECDBF14
:100AC0004F83588769877A878B8761110E94590EF7
:100AD0009E012F5F3F4F86E0F90111928A95E9F759
:100AE00085E0FE013796D90101900D928A95E1F7D4
:100AF00089819A814C815D81452B31F09F3F31F492
:100B000091E08F3F19F403C091E001C090E090FFA5
:100B100009C049815A816B817C818D819E810E94AF
:100B2000590D05C0C9010E94CE038111F2CF2B9649
:100B30000FB6F894DEBF0FBECDBFDF91CF91089501
:100B4000FC01808191810E944D0A0895CF938823F2
:100B500009F49CC0C82F8238C1F40E94811981FD1C
:100B600095C069E380910001909101010E94691A8A
:100B70000E948B0E2FEF81EE94E021508040904038
:100B8000E1F700C0000069E319C0833801F50E9455
:100B9000811980FD7BC063E5809100019091010186
:100BA0000E94691A0E948B0E2FEF81EE94E0215073
:100BB00080409040E1F700C0000063E580910001B3
:100BC000909101010E94741ACF910C948B0E84387D
:100BD000C1F40E94811982FD59C067E4809100012F
:100BE000909101010E94691A0E948B0E2FEF81EEF5
:100BF00094E0215080409040E1F700C0000067E49D
:100C0000DDCF8CEF8C0F813AD0F46C2F80910001F6
:100C1000909101010E94E919882349F06C2F80917D
:100C20000001909101010E94741A0E948B0E6C2F9A
:100C300080910001909101010E94691AC5CF80E264
:100C40008C0F883048F4C77081E001C0880FCA95C6
:100C5000EAF70E943C0EB8CFEBE5EC0FE33040F42E
:100C6000F0E0E55CFE4F808190E0CF910C94A719F5
:100C7000C85AC73158F4EC2FF0E0EE0FFF1FE35FC6
:100C8000FE4F80819181CF910C94BD19CF91089531
:100C9000882309F45BC0682F823879F40E94811997
:100CA00081FF54C069E380910001909101010E948D
:100CB000691A0E948B0E69E310C08338B1F40E9458
:100CC000811980FF43C063E580910001909101018B
:100CD0000E94691A0E948B0E63E580910001909139
:100CE00001010E94741A0C948B0E843879F40E94CE
:100CF000811982FF2BC067E480910001909101016E
:100D00000E94691A0E948B0E67E4E7CF8CEF860F72
:100D1000813A18F380E2860F883048F4677081E0EA
:100D200001C0880F6A95EAF70E94420EDCCF8BE57E
:100D3000860F833020F480E090E00C94A719685A65
:100D4000673120F480E090E00C94BD1908951F9362
:100D5000CF93DF93182FEB010E94A605209741F057
:100D60008FE99FE00197F1F700C000002197F6CFCF
:100D7000812FDF91CF911F910C944806893319F090
:100D800060E070E002C060E570E00C94A706882384
:100D900021F00E943C0E0C948B0E0895882321F0C4
:100DA0000E94420E0C948B0E0895CF92DF92EF9228
:100DB000FF920F931F93CF93DF937C01062FC72FD2
:100DC000FC01D281158112951F700E94110E88239B
:100DD00099F0DD2389F08C2F807F803421F080E230
:100DE000800F883048F082E00E94DB0E0E94110ED6
:100DF00091E0D82ED92601C0D12CCC2EC2948FE000
:100E0000C8228C2D90E0FC01EA5AFF4F0C94EE2290
:100E10008C2F807FCF70882311F0C295C07FDD2397
:100E200099F0CC2309F455C180E2800F883010F08E
:100E3000011104C08C2F0E943C0E03C08C2F0E9415
:100E40004C0E0E948B0E45C1802F0E944806CC2379
:100E500009F464C180E2800F883010F0011104C0F1
:100E60008C2F0E94420E03C08C2F0E94520E0E94B3
:100E70008B0E54C18C2F807FCF70803211F0C295C1
:100E8000C07F002319F00130C9F022C0DD2371F0CA
:100E9000112341F0113031F40E946C0E8C2B0E9412
:100EA000740E3CC10E946C0E8C2B1DC0112319F0D6
:100EB000113009F433C10E94810E25C0DD2321F0D9
:100EC000163008F02BC10EC0153008F027C11BC02A
:100ED000DD2361F0112331F0F701858180FFF9C036
:100EE0008F7085838C2F0E94C70618C1112359F07B
:100EF000093309F0FFC0FFEF27EE83E0F1502040F7
:100F00008040E1F7F5C08C2F0E94CE0607C18C2FE0
:100F100086958695837019F0813061F0FFC0DD23DE
:100F200021F0802F9C2F937002C080E090E00E94FF
:100F3000A719FCC0DD2321F0802F9C2F937002C0E5
:100F400080E090E00E94BD19F1C08C2F837079F58C
:100F5000D111E8C0402F429546954770440F440F89
:100F6000202F2F70042E01C0220F0A94EAF704FFED
:100F700008C08FE090E001C0880F4A95EAF780959D
:100F800001C080E0C695C695C370822BC23049F07F
:100F900058F4C13019F00E947A09C4C00E94750942
:100FA000C1C00E947F09BEC00E947309BBC0DD237F
:100FB00019F08C2F817001C08695882309F4B2C086
:100FC000402F429546954770440F440F202F2F70B5
:100FD000042E01C0220F0A94EAF704FF08C08FE034
:100FE00090E001C0880F4A95EAF7809501C080E043
:100FF000C695C695C370822BC23049F058F4C130F3
:1010000019F00E94BE098EC00E94B9098BC00E94CF
:10101000C30988C00E94860985C0CF70DD2339F0DE
:101020008C2F0E949709802F0E94C7067BC0802FBB
:101030000E94CE068C2F0E94A20974C0023F01F1CB
:1010400028F4003F41F0013FA1F03FC0033FF9F019
:10105000043F39F13AC0DD2341F0153008F05EC09D
:101060008C2F8F710E94AE0959C0163008F056C0FF
:10107000F7CFDD2339F08C2F8F710E9497094EC076
:10108000DD23C9F38C2F8F710E94A20947C0DD2395
:1010900029F08C2F8F710E948F0940C00E948C090B
:1010A0003DC0DD2349F0CF718C2F0E94970963E08A
:1010B0008C2F0E94C00E32C081E00E94DB0E1230E5
:1010C00068F182E00E94DB0E29C0DD2331F011239C
:1010D00091F2802F0E94A60521C0112399F20933B5
:1010E00049F49FEFE7EEF3E09150E040F040E1F784
:1010F00000C00000802F0E94480610C04C2F4F7087
:10110000602FC7010E94CC100E947B0A0FC04C2F99
:101110004F70602FC7010E94CF1008C088EF8C0D60
:10112000843020F40E9481190E944D05DD20C9F011
:101130000E940D0E80FD15C0F70112820E94070E5D
:101140000E949709C7010E94D2080E94070EDF91F2
:10115000CF911F910F91FF90EF90DF90CF900C9463
:10116000A209DF91CF911F910F91FF90EF90DF9037
:10117000CF9008950F931F93CF93DF93EC01688175
:1011800079818A810E94580A8C010E94C8090E94B4
:101190006709B801CE010E94D506DF91CF911F915A
:1011A0000F910895CF93DF93EC01988189812B8172
:1011B0003C81232B31F08F3F31F481E09F3F19F4C4
:1011C00003C081E001C080E080FD19C0CE010E9413
:1011D0001A0481110CC00E94110E882381F08A81AB
:1011E000882369F082E0DF91CF910C94DB0ECE0171
:1011F0000E94BA08CE01DF91CF910C94D003DF9109
:10120000CF91089580E090E00E94A71980E090E0DF
:101210000E94BD190E94590E0E94690E0C948B0EFB
:1012200080910001909101010E947F1A0C940209A3
:101230000E94490E0C941009E92FE295EF704E2F91
:1012400050E0FA013297EE30F105B0F4EA59FF4F61
:101250000C94EE22803F91F018F4883E68F40EC0A2
:10126000843F51F40BC0883E48F0813F29F406C00A
:1012700093FB882780F9089580E0089581E0089520
:10128000FC01808191810E944D0A0E941C090895F1
:10129000CF93DF9300D000D01F92CDB7DEB70F9071
:1012A0000F900F900F900F90DF91CF910895CF93F3
:1012B000DF9300D000D000D0CDB7DEB726960FB6B2
:1012C000F894DEBF0FBECDBFDF91CF910895089592
:1012D00008950C9468090C9469090E946B09809325
:1012E000C1010C9402090C946D099091C101892BE4
:1012F0000C946D099091C10189230C946D09909112
:10130000C10189270C946D090C9468090E94840915
:101310008093C0010C94020980E00C94860991E04E
:1013200001C0990F8A95EAF7892F0C94860921E06C
:1013300030E001C0220F8A95EAF78091C001822B2C
:101340000C94860921E030E001C0220F8A95EAF76B
:1013500020958091C00182230C94860921E030E021
:1013600001C0220F8A95EAF78091C00182270C9470
:1013700086099091C001892B0C9486099091C00137
:1013800089230C9486099091C00189270C948609C1
:10139000089521E1929F800D1124E82FE695E695AE
:1013A000E695877051E001C0550F8A95EAF783E012
:1013B000E89FF0011124E756FE4F20E030E070E096
:1013C0004081CB01022E02C0969587950A94E2F7E0
:1013D0008170819584278523842781932F5F3F4FD8
:1013E0002330310569F7089521E1929F800D112482
:1013F000682F669566956695982F977083E0689F2D
:10140000B001112440E050E080E0FB01E40FF51F43
:10141000E756FE4F208130E0092E02C03695279511
:101420000A94E2F721703327042E01C0220F0A9498
:10143000EAF7822B4F5F5F4F4330510531F7089534
:10144000CF92DF92FF920F931F93CF93DF936C01A4
:101450000091C0018091C101082BC7E0D0E010E0ED
:10146000C8010C2E02C0959587950A94E2F780FD7D
:1014700004C02197A8F7F12C07C0FC2EB6018C2FD1
:101480000E94ED110197A9F38F2DDF91CF911F914C
:101490000F91FF90DF90CF900895CF93DF93EC01F1
:1014A0000E94200ABE010E94ED11DF91CF910895A4
:1014B0001F93CF93DF93EB0190919801992321F033
:1014C000CB010E944D0A13C0882349F0CB010E9432
:1014D000200A182F682FCE010E94C90904C0CB0131
:1014E0000E94F409182FBE01812F0E94ED11DF9197
:1014F000CF911F910895EF92FF920F931F93CF9377
:10150000DF938C01892B09F46CC0F12CEE24E39459
:10151000E8012196F8018491843740F4843008F082
:1015200051C0813081F0823019F15BC0853709F4F8
:1015300044C0A8F19CE7980F903708F052C08F770D
:101540000E94480641C00E5F1F4FFE01849190E249
:10155000980F983050F48770FE2D01C0FF0F8A95C8
:10156000EAF78F2F0E945C0E14C00E94A6052DC0C2
:101570000E5F1F4FFE01849190E2980F983060F447
:101580008770FE2D01C0FF0F8A95EAF78F2F0E940A
:10159000620E0E948B0E19C00E94480616C00E5F94
:1015A0001F4FFE01C491CC2381F08FE99FE001978A
:1015B000F1F700C00000C150F6CF0E5F1F4FFE01D3
:1015C000F49003C00E94A6058E018F2D882309F494
:1015D0009FCFEFE9FFE03197F1F700C000008150A5
:1015E000F5CFDF91CF911F910F91FF90EF9008956C
:1015F0001F93CF93DF93C091C20116E08091C30186
:10160000C81799F0D0E01C9FF0011D9FF00D112428
:10161000EC53FE4F408151816281738184819581B9
:101620000E9457092196C770E9CFDF91CF911F9192
:1016300008954091F4015091F5016091F601709187
:10164000F7018091F8019091F9010C9457090F93DB
:101650001F93CF93DF938091F90182958F7009F0EA
:101660005DC08091F601882309F458C08091C201C1
:101670001091C3016091F4017091F501C091F701DF
:10168000D091F80191E06F3F09F090E0292F06E03A
:10169000811709F443C0209721F07F3F21F030E00B
:1016A00003C031E001C0322F90E030FD34C0089F0C
:1016B000F001099FF00D1124DF01AC53BE4F1196CC
:1016C0003C911197371327C03C91361324C01296D2
:1016D0003C91129731111FC013964D915C91149754
:1016E0004C1B5D0B483C5105B0F48091F9018F70A3
:1016F00080618093F901E753FE4F80818F70806194
:10170000808384EF91E00E94D208DF91CF911F91F6
:101710000F910C94F80A01968770BACFDF91CF91A0
:101720001F910F9108959F92AF92BF92CF92DF9237
:10173000EF92FF920F931F93CF93DF93CDB7DEB756
:1017400061970FB6F894DEBF0FBECDBF8C0185E068
:10175000F801DE011D9601900D928A95E1F7F801DE
:10176000E2809091F4016091F5012091F7013091B0
:10177000F8012115310531F06F3F31F481E09F3FD1
:1017800019F403C081E001C080E0F82FF1709F2EB2
:1017900080FD3FC1F80140815181A380B48084EF76
:1017A000C82E81E0D82EF090F601F501E21BF30B74
:1017B000FF2009F4D9C08091F901E83CF10508F057
:1017C00095C0282F207F09F052C0561313C049132B
:1017D00011C0FE2CE1100EC08F7080618093F90162
:1017E0000E94190BC6010E94D2088091F901F801EC
:1017F00085834CC1AB2831F05F3F31F481E04F3F2E
:1018000019F403C081E001C080E080FD03C081E0E5
:101810008E2502C080E090E0F82FF170FF2E80FF4F
:101820001CC08091C2012091C30136E0821709F4E7
:101830000BC190E0389FF001399FF00D1124EC535B
:10184000FE4F6181561306C06081461303C062815A
:10185000E61203C001968770E9CFFE2CEE2009F452
:1018600015C18091F90181608093F90154C056132C
:1018700006C0491304C0E11002C0F80199C0C801B4
:101880000E944009882361F1EE2051F12091F90175
:10189000822F82958F7090E0029774F08091F4010E
:1018A0009091F50198878F831986BB86AA862C872D
:1018B000CE0107960E94D20886E0F801A4EFB1E0BD
:1018C00001900D928A95E1F70E94270B0E94190B57
:1018D0000AC0561711F1C8010E94400981112CC09D
:1018E000C8010E94D208FF24F394D0C0282F207F83
:1018F00081F77A2DB98AA88A6E2D89890E944809B4
:1019000084EF91E00E94D20886E0F60111928A9558
:10191000E9F70E94190BF12CB9C04913DCCFE11093
:10192000DACFF8018583C8010E94D20886E0F6016B
:1019300011928A95E9F7AAC0EE2091F22091F9015F
:10194000822F82958F7090E002970CF4B5CF809132
:10195000F4019091F5019A8389831B82BD82AC8248
:101960002E83CE010196A6CFE83CF10508F044C0D5
:10197000FE2CEE2009F4B4CF561330C049132EC00C
:101980002091F90120FD21C0822F82958F70482F70
:1019900050E041155105C9F0F80125834F3051053C
:1019A00041F08F5F982F9295907F822F8F70892BB7
:1019B0008583C8010E94D20886E0F801A4EFB1E057
:1019C00001900D928A95E1F73CC086E0F801A4EF02
:1019D000B1E001900D928A95E1F758C0C8010E94CC
:1019E0004009811169CF8091F90181608093F901EB
:1019F000C8010E94D2084AC07A2DB98AA88A6E2DE1
:101A000089890E94480986E0F60111928A95E9F7D2
:101A100018C0EE2009F464CFC8010E944009F82ED6
:101A2000882309F45DCF86E0F801A4EFB1E00190CE
:101A30000D928A95E1F784EF91E00E94A0050E9443
:101A4000270B0E94190B22C04D875E878D859E85CE
:101A50000E944D0A292F22952F70223028F49F7062
:101A600039F0811105C00BC0243028F49F7049F46F
:101A7000805E883020F0C8010E94D2089F2CF92C8B
:101A800005C0F8019581907F99F7F9CF8F2D619668
:101A90000FB6F894DEBF0FBECDBFDF91CF911F917F
:101AA0000F91FF90EF90DF90CF90BF90AF909F90FD
:101AB00008951F93CF93DF93CDB7DEB72C970FB662
:101AC000F894DEBF0FBECDBF4F83588769877A87F2
:101AD0008B879C87CE0107960E94930B8823D1F0B9
:101AE0009F8188852A853B85232B31F08F3F31F4F8
:101AF00081E09F3F19F403C081E001C080E080FDD8
:101B000047C04F81588569857A858B859C850E9461
:101B100057093EC086E0FE013796DE01119601901E
:101B20000D928A95E1F7FF81E8856A857B856115CD
:101B3000710531F0EF3F31F481E0FF3F19F403C04C
:101B400081E001C080E080FD23C02091C30130E02E
:101B5000C9010196877099274091C20150E084170E
:101B60009507F1F1F983EA837D836C8396E0929F78
:101B7000D001939FB00D1124AC53BE4FFE0131969E
:101B800001900D929A95E1F78093C3010E94F80AA3
:101B900016E08091C2019091C301891771F1189FDD
:101BA000C00111248C539E4F0E94930B882329F16E
:101BB000E091C2011E9FF0011124EC53FE4F4081C1
:101BC000518162817381848195810E94570980913E
:101BD000C20190E00196877099278093C201D9CF06
:101BE0000E9418091092C3011092C201E4EFF1E0C3
:101BF00086E0DF011D928A95E9F72C960FB6F894DE
:101C0000DEBF0FBECDBFDF91CF911F9108958091B0
:101C1000FA0185958595859508958091FA018770DB
:101C200008959091FA01977081E009F480E0089599
:101C30009091750292FB222720F9281751F080FB22
:101C400092F99093750280917402909175020C94B0
:101C5000220F08958091750282FB882780F991E018
:101C600089270C94180E81E00C94180E80E00C94D7
:101C7000180E80911E02089590911E02892B809368
:101C80001E020895809590911E02892380931E0262
:101C9000089510921E02089590911D02892B809341
:101CA0001D020895809590911D02892380931D0245
:101CB000089510921D02089590911C02892B809323
:101CC0001C020895809590911C02892380931C0228
:101CD000089510921C0208958091FB0108950895C3
:101CE0000C946F0E0C94700E9091750292FD08C0CA
:101CF0009091FB01981721F08093FB010C94720ED8
:101D000008958091FB01882329F01092FB0180E067
:101D10000C94720E0895E0910001F0910101809100
:101D20001E028083E0910001F09101019081809179
:101D30001D02892B8083E0910001F09101019081C7
:101D400080911C02892B80838091FB01882381F084
:101D5000E0910001F09101019081892B80838091B5
:101D60000001909101010E94D31981110E94810EFE
:101D700080910001909101010C948D190C946F0ECB
:101D80009091750292FD10C098E0899F90011124F6
:101D9000262B2093FA010E9497098091FA018595DC
:101DA000859585950C94BE0E0C9497091092FA01B6
:101DB00080E00C94BE0E2091FA01809582238093DE
:101DC000FA01982F977041F430E0482F082E000C4C
:101DD000550B2417350721F49091750292FF07C027
:101DE0008595859585950E94A2090C94D60E089537
:101DF0006FEF7FEF80E090E00C94342380E090E080
:101E00000E941023893E9E4F11F40C948D1480E0A3
:101E1000089582E090E00C94082383E090E00C9415
:101E20000823CF9384E090E00E940823C82F82E229
:101E300090E00E9408232C2F30E0A901582BCA0102
:101E4000CF910895CF93C92F682F84E090E00E942E
:101E500016236C2F82E290E0CF910C941623AB01F5
:101E6000BC018FE090E00C942823AB01BC0183E11E
:101E700090E00C94282360E070E0CB010C94350FC7
:101E800060E070E0CB010E942F0F0C943B0F69EED5
:101E90007EEF80E090E00E94342360E082E090E0FA
:101EA0000E94162360E083E090E00E9416231092C7
:101EB000C10160E084E090E00E94162360E082E2CD
:101EC00090E00E94162360E085E090E00E941623D7
:101ED00060E086E090E00E9416236FEF87E090E0DC
:101EE0000E94162340E050E0BA0188E090E00E9492
:101EF000282360E08DE090E00E94162340E050E04F
:101F0000BA0188E190E00E94282360E087E190E038
:101F10000E94162340E050E0BA018CE190E00E945C
:101F2000282360E070E080E290E00E94342340E0EB
:101F300050E0BA0188E190E00E94282380E00E94EE
:101F4000A6140E94D2140C94400F0C94470F682FD3
:101F50008EE090E00C9416230E94281B60933C02B4
:101F600070933D0280933E0290933F02609338024B
:101F70007093390280933A0290933B02089585B79B
:101F8000806885BF85B7806885BF089581E0089522
:101F90000C94C60F08950C94CA0F0C94CA0F0C949D
:101FA000CD0F0C94CA0F0C94D10F0C94CA0F0E9441
:101FB000BF0F89EC92E10E948D1B0E94D50F0C94FB
:101FC000D30F0E94CB0F0C94CA0F0E94131B0E94C8
:101FD000E1140E94E3130C94CF0F2F923F924F9283
:101FE0005F926F927F928F929F92AF92BF92CF92A9
:101FF000DF92EF92FF920F931F93CF93DF93CDB7B2
:10200000DEB72C970FB6F894DEBF0FBECDBF0E948F
:10201000FA1381110E94AC0F80E292E09C878B87BB
:1020200000E010E0302E802F0E94FD122B013C01B9
:10203000EB85FC8581919191A191B191FC87EB8712
:102040005301420188269926AA26BB2681149104B1
:10205000A104B104B1F40F5F1F4F0630110511F751
:102060008FEF89838A831B820E941C1B8160782FDB
:102070009D838C8349815A816B818D810E94560595
:102080004EC08091400281FD0E940913212CC12C79
:10209000D12C7601C394D501C4018C219D21AE21A0
:1020A000BF21892B8A2B8B2B89F10E94C80F882393
:1020B000C9F02E823F824C205D206E207F2081E07F
:1020C00045284628472809F480E088870E941C1B81
:1020D0008160782F9A8789874E815F8168858A859C
:1020E0000E945605000F111F000F111FF801E05E3E
:1020F000FD4F80819181A281B381C826D926EA262D
:10210000FB26C082D182E282F38209C02394CC0CE8
:10211000DD1CEE1CFF1CF1E12F12BDCF9CCF0E94F5
:10212000811990911F028917F1F00E948119809303
:102130001F022C960FB6F894DEBF0FBECDBFDF9105
:10214000CF911F910F91FF90EF90DF90CF90BF90B4
:10215000AF909F908F907F906F905F904F903F9047
:102160002F900C944D052C960FB6F894DEBF0FBE41
:10217000CDBFDF91CF911F910F91FF90EF90DF9036
:10218000CF90BF90AF909F908F907F906F905F9017
:102190004F903F902F90089580E090E0089508952B
:1021A000880F991FFC01EE5FFA4F85919491089575
:1021B000CF93DF930E94F211EC01811520E5920785
:1021C00008F041C0811540E4940708F0CBC0803E80
:1021D000910520F5803C910508F0B8C0883A91053A
:1021E00070F4853A910508F0A8C08130910509F492
:1021F000A1C008F4EBC0049708F0EBC0E7C08F3B28
:10220000910508F0E3C0885AC82FD0E0CC0FDD1F3D
:10221000C25CDE4F888199819464DCC0811550E2F4
:10222000950750F4C11581E0D80708F0D2C0C83E28
:10223000D10508F4CEC0CAC0811520E3920708F08A
:102240008AC09F7085C0811545E5940708F046C097
:10225000811554E5950708F09DC0C11582E5D807A2
:1022600018F5C11521E5D20708F07FC0CE01F4E0D2
:1022700096958795FA95E1F7282F23703C2F3370B8
:1022800081E090E002C0880F991F3A95E2F79C68C0
:10229000922B2C2F2F702695269540E2249F90019B
:1022A0001124822B932B96C09E01237033279C2FE1
:1022B00096959695C115D34508F05CC041E050E075
:1022C00002C0440F551F2A95E2F780E2989F9001C3
:1022D0001124CA01822B932B9C687CC0811559E57F
:1022E000950798F4C11588E5D80708F058C0C115BE
:1022F00026E5D20708F06AC08C2F0E9486128F71E3
:1023000090E0982F8827906265C081154AE5940770
:1023100008F44AC090568115904208F057C08D2F9E
:102320008F710E9486129E01332730628F71A9013E
:10233000582B4AC081E090E04DC0855AC82FD0E0AC
:10234000C459DE4F888190E0906444C0805C91095C
:102350000E94D0103FC09927D3FF02C0986C3AC0AA
:10236000906C38C09F70906A35C09C2F8827816F11
:10237000906A30C041E050E002C0440F551F2A95DA
:10238000E2F780E2989F90011124CA01822B932BDF
:102390009A6820C0982F8827846F906A1BC09C2F52
:1023A0008827806F906A16C08F700E9486129E01E7
:1023B00094E0369527959A95E1F72F7030E0322F0B
:1023C00022273069A901482BCA0104C080E090E0AF
:1023D00001C0CE01DF91CF9108950E949B160E940B
:1023E000D81008958238910569F1B0F481339105D0
:1023F00009F46DC048F48932910509F463C08A324A
:10240000910509F469C008958533910509F455C013
:1024100089339105B9F00895833E910569F138F447
:10242000803E9105B1F0823E910509F10895863E06
:102430009105A9F1873E9105B9F1843E910509F016
:1024400064C023C02091740220FD4FC021FD4DC007
:1024500008958091740280FD44C08091750280FFD0
:1024600044C08091740284FD42C083EE4DC08091CF
:10247000740282FF38C0F5CF8091740282FD33C0B0
:102480008091750280FD31C0ECCF8091750281FF93
:1024900032C08091740284FD2AC087EE35C08091DD
:1024A000740283FF26C0F5CF8091740283FD21C0A2
:1024B0008091750281FD1FC0ECCF8091740285FD73
:1024C0001CC01DC08091740285FD19C016C080918A
:1024D000740286FD16C017C08091740286FD13C079
:1024E00010C089E311C082EE0FC080EE0DC080E005
:1024F0000BC086EE09C084EE07C089E205C085E303
:1025000003C08AE201C081E390E0089590917402D3
:1025100092FF0DC0282F2871283019F4877F84601E
:1025200006C0282F2471243011F48B7F886093FF1C
:102530000DC0282F2871283119F4877E846106C0C8
:10254000282F2471243111F48B7E8861209175022B
:1025500020FF0DC0382F3871383019F4877F816023
:1025600006C0382F3171313011F48E7F886021FF21
:102570000DC0282F2871283119F4877E816106C08B
:10258000282F2171213111F48E7E886194FD877E80
:10259000089580E008950C94F80E0E94FA138FE3DA
:1025A0009CE90197F1F700C000000E94FA1380E057
:1025B0000E94FD1260FF04C00E94CB120C94691BA4
:1025C00008950C94CD120E94FE0E811102C00E944B
:1025D000A50F0E94090F809340020E94110F909353
:1025E0007502809374020E94E1120E940D0F0E94F6
:1025F00073098091C0010C94840924E0829FC0017A
:102600001124FC01E257FD4F608171818281938129
:102610000895089580EA8A95F1F7089500C0089515
:102620000C940A1308950C9412130C9413130C9425
:1026300012130C941713F894E82FE295EF70F0E062
:1026400031A1282F2F7081E090E001C0880F2A95DA
:10265000EAF7982F9095932391A392A1892B82A3B7
:10266000789408950F931F93CF93DF93C0E8D1E040
:1026700089918F3F11F00E941B1381E0C638D80763
:10268000B9F7CFE6D1E000E811E089918F3F11F072
:102690000E941B130C171D07C1F7DF91CF911F91EB
:1026A0000F9108954F925F926F927F928F929F92B7
:1026B000AF92BF92DF92EF92FF920F931F93CF934F
:1026C000DF938C01C62FD0E0CE0180589E4F7C0155
:1026D000DC019C919F3F09F466C0D62EF894E92F47
:1026E000E295EF70F0E081A19F7021E030E001C041
:1026F000220F9A95EAF7822B81A382A120952823A5
:1027000022A378940E940E13EFE6F1E020E030E07F
:10271000812C912C5401412C512C320143948191F4
:102720008F3FD9F0A82FA295AF70B0E090964C9152
:1027300050E08F70DA0102C0B595A7958A95E2F74F
:10274000A0FD0BC0D301C201022E04C0880F991F47
:10275000AA1FBB1F0A94D2F703C080E090E0DC01FF
:10276000882A992AAA2ABB2A2F5F3F4F2131310597
:10277000B1F6F70180818F3F11F00E941B1361E0D9
:1027800081149104A104B10409F460E08D2D0E942C
:102790001013CC0FDD1FCC0FDD1FC00FD11F88829F
:1027A0009982AA82BB82DF91CF911F910F91FF90F6
:1027B000EF90DF90BF90AF909F908F907F906F9041
:1027C0005F904F9008950E943213E6E7F2E0AEE882
:1027D000B2E011921192119211921D921D921D92CE
:1027E0001D9282E0EE38F807A1F786E00E944514BA
:1027F0000C940204FF920F931F93CF93DF93CDB7F6
:10280000DEB768970FB6F894DEBF0FBECDBF8E015E
:102810000F5F1F4F88E1F80111928A95E9F7F12CBB
:102820006F2DC8010E945213F394F6E0FF12F8CF07
:1028300048E150E0B80186E792E00E94FB22FF24C5
:10284000F394009709F4F12C892B41F088E1F80109
:10285000A6E7B2E001900D928A95E1F72F2D46E0B0
:102860006EE872E086E792E00E9446140E94080437
:102870008F2D68960FB6F894DEBF0FBECDBFDF91E7
:10288000CF911F910F91FF9008950895FF920F939C
:102890001F93CF93DF93F82ED92F8B01C42F2223C0
:1028A00049F081E0809343020E941C1B90934202F6
:1028B00080934102809143028823F1F0809141028C
:1028C000909142020E94341B0597B0F0EF2DFD2F2E
:1028D000D80180E090E04C2F50E08417950754F425
:1028E00001911191219131910D931D932D933D9360
:1028F0000196F3CF10924302DF91CF911F910F9178
:10290000FF9008950E94911A0E94181D0E94311D87
:102910000E94431D0E94E10FFBCF83E290E00E94E2
:102920000823813281F484E290E00E940823803100
:1029300051F485E290E00E94082391E0803109F093
:1029400090E0892F01C080E081700895CF93C82F57
:10295000811102C06FEF01C061E283E290E00E944A
:102960001623C11102C06FEF01C060E184E290E064
:102970000E941623C11102C06FEF01C060E185E221
:1029800090E0CF910C941623089586E290E00E9487
:102990000823682F70E080E090E0089586E290E0E0
:1029A0000C94162380E00E94A61460E070E0CB0136
:1029B0000E94CE140E9416160E94F31681E00C9419
:1029C000A6140E94C4140E948D14811102C00C949C
:1029D000D2140895CF93FB01C281CC23E9F09C016E
:1029E00022513F452031310520F482510E940317C6
:1029F0000CC08031FFE59F0751F481E00E949709E8
:102A000043E062E081E00E94F903C0E018C0813138
:102A10009F45A9F482E0F2CF8031EFE59E0711F4E3
:102A200081E004C081319F4549F482E00E94A209FF
:102A300043E062E081E00E94F90301C0C1E08C2F15
:102A4000CF9108952FEFFC0120830895EF92FF921C
:102A50000F931F93CF93DF93EC01E62EE8818E2F27
:102A600090E0FC013197E331F10508F092C0EC5899
:102A7000FF4F0C94EE22198289E04EC0898182308A
:102A800039F0833061F0813031F50E94281B02C09B
:102A90000E94C5149A838B837C836D837CC08E01D6
:102AA000F12C8F2D0E94FD12F801828373836483C1
:102AB000F3940D5F1F4FF6E0FF12F3CF6CC08981D6
:102AC000823049F46A817B818C819D810E94F4224D
:102AD0000E94CE1460C06E2DCE010E9422155BC0F4
:102AE0004B816A8189810E94E8159C838D8353C044
:102AF0002C813D813227232732274B816A818981AE
:102B00000E94011648C00E94161645C00E94A816D1
:102B100024C00E94AA1699838A833DC06B8170E00D
:102B200089819A81AE014C5F5F4F9827892798274A
:102B30000E94AD1630C06B8170E089819A81AE0130
:102B40004C5F5F4F9827892798270E94D11623C092
:102B50000E94F31620C00E94D51589831CC06B818A
:102B600070E089819A81AE014C5F5F4F9827892779
:102B700098270E9455160FC06B8170E089819A8159
:102B8000AE014C5F5F4F9827892798270E947916DE
:102B900002C08FEF88836E2DCE01DF91CF911F9100
:102BA0000F91FF90EF900C94091C84E0089550E081
:102BB000440F551F22E2629F400D511D11249A01BE
:102BC0006CEC869F200D311D1124C9018796089554
:102BD0000F931F93CF93DF930E94D7158C010E9410
:102BE0000823C82FD0E0DC2FCC27C80101960E9413
:102BF00008239E01282BC901DF91CF911F910F91CE
:102C000008950F931F93CF93DF93122F032F0E94EA
:102C1000D715EC01602F0E941623612FCE0101967B
:102C2000DF91CF911F910F910C941623AF92BF9219
:102C3000CF92DF92EF92FF920F931F93CF93DF9388
:102C4000A12CE12CF12CB12C00E010E0C0E0D0E090
:102C50006701C00ED11EFE01EE0FFF1FEC0DFD1D22
:102C6000EE5DFE4F259134914C2F6B2D8A2D0E94E5
:102C700001162196C131D10571F70E5D1F4FB39436
:102C800086E0B812E3CF8CECE80EF11CA39484E04C
:102C9000A812D9CFDF91CF911F910F91FF90EF90A4
:102CA000DF90CF90BF90AF900895EF92FF920F9377
:102CB0001F93CF93DF93EA017A01E60EF71E8C0192
:102CC000C8018796CE15DF0569F0003323E01207AF
:102CD00020F40E940823888301C0188221960F5F88
:102CE0001F4FEECFDF91CF911F910F91FF90EF908B
:102CF0000895EF92FF920F931F93CF93DF93EA0112
:102D00007A01E60EF71E8C01C8018796CE15DF0505
:102D100059F0003323E0120718F468810E9416234B
:102D200021960F5F1F4FF0CFDF91CF911F910F9131
:102D3000FF90EF900895462F843038F4763028F4D1
:102D4000613118F4672F0C94E81580E090E0089545
:102D500080E1089589EA90E00895EF92FF920F9341
:102D60001F93CF93DF93EA017A01E60EF71E8C01E1
:102D7000C801895A9C4FCE15DF0561F0093A11054B
:102D800020F40E940823888301C0188221960F5FD7
:102D90001F4FEECFDF91CF911F910F91FF90EF90DA
:102DA0000895EF92FF920F931F93CF93DF93EA0161
:102DB0007A01E60EF71E8C01C801895A9C4FCE1588
:102DC000DF0551F0093A110518F468810E941623B5
:102DD00021960F5F1F4FF0CFDF91CF911F910F9181
:102DE000FF90EF900895CF93DF93C7E5D3E060E0C5
:102DF000CE010E9416232196C11584E0D807B9F7A9
:102E0000DF91CF910895DF92EF92FF920F931F937E
:102E1000CF93DF9300D000D0CDB7DEB7F82E8FE090
:102E20008F15E8F18FEF93E00E940823811137C0DE
:102E300007E513E0FF2069F0011584E0180779F138
:102E4000C8010E940823811101C0FA940F5F1F4F2F
:102E5000F1CF19821A821B821C82DD24D39478015F
:102E60008FEFE81AF80AC8010E94082389831A82A2
:102E70008823A9F09FEF980F933058F48A83D98262
:102E80000E5F1F4FC7010E9408238B83882339F0F0
:102E90007801CE0101960E9442058701E0CF0F9094
:102EA0000F900F900F90DF91CF911F910F91FF9096
:102EB000EF90DF9008950F931F93CF93DF93C42F6C
:102EC000D22FFC0182818823C9F0409346020E94E0
:102ED0001C1B909345028093440280E28C0F883043
:102EE00008F057C0C77081E001C0880FCA95EAF7A3
:102EF000DF91CF911F910F910C94C70680914602EC
:102F0000481330C080914402909145020E94341BC6
:102F1000883C910538F510E21D0FCD17B9F080E21D
:102F20008C0F883040F4C77081E001C0880FCA95CB
:102F3000EAF70E94CE06183028F581E09D2F9770A1
:102F400001C0880F9A95EAF70E94C706802F0E9459
:102F5000BE061830F0F4D77081E001C0880FDA9512
:102F6000EAF70AC080E28C0F883098F4C77081E0DD
:102F700001C0880FCA95EAF7DF91CF911F910F9199
:102F80000C94CE06802FDF91CF911F910F910C945E
:102F9000BE06DF91CF911F910F9108950F939C0171
:102FA000CB01233F4CE5340731F188F4283DFCE5A3
:102FB0003F07D9F0293D4CE5340779F1273D3C45E1
:102FC000A9F506E221EE41EE67ED7CE52BC0253F39
:102FD000FCE53F07E1F0A8F0263F3C4539F507E264
:102FE00025EE46EE66EF7CE51DC007E225EE45EED8
:102FF00068ED7CE517C006E221EE40EE63EF7CE56C
:1030000011C007E225EE44EE64EF7CE50BC006E25A
:1030100021EE42EE65EF7CE505C008E221E045EED9
:1030200069ED7CE50E945B1780E008C0FC018281AD
:10303000882319F01092460201C081E00F91089593
:10304000CF93DF93EC01FB018281882309F41FC138
:10305000C230FCE5DF0708F41BC1C6319CE5D90787
:1030600038F09E012A5F3C452930310508F010C137
:103070000E94110F9093750280937402C031ECE5A9
:10308000DE0709F4C3C008F041C0C8308CE5D8079A
:1030900009F49AC0F0F4C430ECE5DE0709F487C007
:1030A00068F4C2308CE5D80709F477C0C330DC453A
:1030B00009F0E3C080917402826076C0C630ECE50E
:1030C000DE0709F46EC008F07BC08091740288604E
:1030D0006BC0CC308CE5D80709F485C068F4CA30E1
:1030E000ECE5DE0709F474C008F079C00E94180905
:1030F00080917402806858C0CE308CE5D80709F4FE
:1031000076C008F07FC0809174028BC0CB3FECE5A5
:10311000DE0709F44FC018F5C3318CE5D80709F470
:103120007DC078F4C131ECE5DE0709F473C0C2312B
:10313000DC4509F0A2C00E941809809174028F77C3
:1031400033C0C5318CE5D80709F472C008F486C0D5
:10315000CA3FDC4509F091C0809175023EC0CF3F67
:10316000FCE5DF0709F45FC058F4CD3F9CE5D907C3
:1031700009F444C008F43FC08091750282602DC0FC
:10318000C130FDE5DF0709F475C008F45DC0C23049
:10319000DD4509F072C080E06EC0809174028160EC
:1031A00003C08091740280618093740266C0809134
:1031B000740211C0809175028260809375025DC0B7
:1031C000809174028062F0CF809174028064ECCFB1
:1031D0008091740288608460E7CF8160EECF809137
:1031E00074028E7FE1CF809174028D7FDDCF80915C
:1031F0007402877FD9CF8091750218C080917502C3
:103200008D7FDBCF809174028F7ECECF8091740250
:103210008F7DCACF809174028F7BC6CF809174025C
:10322000877F8B7FC1CF809175028D7F8E7FC5CFC9
:103230008091740282FB222720F991E0922790FB73
:1032400082F990FB83F9B0CF80917502982F909509
:1032500091708E7F892B90FB81F9AFCF0E94180966
:103260008091740287FB222720F991E0922790FB3E
:1032700087F99ACF81E00E94A70F80917402909104
:1032800075020E94220F0E94180980E001C081E0AF
:10329000DF91CF910895CF93DF9386319C4541F51F
:1032A000EB010E94390E982F8A8120910001309104
:1032B0000101882379F09A7A81E009F480E0809313
:1032C0004702911102C069E201C065E3C9010E9491
:1032D000691A0AC080914702811102C069E201C0E7
:1032E00065E3C9010E94741A0E948B0E80E001C040
:1032F00081E0DF91CF91089590934D0280934C022D
:103300000895E0914C02F0914D02309721F0019028
:10331000F081E02D099480E00895E0914C02F09155
:103320004D02309799F020910C01222359F0209101
:10333000740227FF07C0DC012C9111962C93119782
:1033400025E02C930280F381E02D099408952091CB
:103350004A0230914B022817390771F090934B02C3
:1033600080934A02E0914C02F0914D02309721F097
:103370000680F781E02D099408952091480230914C
:1033800049022817390771F0909349028093480247
:10339000E0914C02F0914D02309721F00084F185CC
:1033A000E02D09940895FC01329680910C01882348
:1033B00031F08091740287FF02C09EE101C096E067
:1033C00080E0915028F021912223D9F38F5FF9CF2B
:1033D0000895662351F120910C012223E9F02091F8
:1033E000740227FF19C0462F4695469546954E31E3
:1033F000E0F4677021E030E002C0220F331F6A95CD
:10340000E2F7FC01E40FF11D828190E028233923CB
:1034100081E0232B69F409C0FC01329608962191C2
:10342000621729F0E817F907D1F780E0089581E0E5
:1034300008959C01FC0132969FEF80E04191461770
:1034400089F09F3F19F4411101C0982F8F5F86309A
:10345000A9F79F3F39F0F901E90FF11D97FDFA95A2
:103460006283089508959C012A5F3F4FFC014281C9
:10347000461301C01282019682179307B9F7089587
:10348000262F2695269526952E3168F4FC01E20F0D
:10349000F11D677021E030E001C0220F6A95EAF764
:1034A0008281282B22830895262F269526952695FE
:1034B0002E3170F4FC01E20FF11D677021E030E065
:1034C00001C0220F6A95EAF7209582812823228382
:1034D000089520910C01222329F02091740227FDE8
:1034E0000C94401A0C94191A20910C01222329F0F3
:1034F0002091740227FD0C94541A0C94331A2091D5
:103500000C01FC013296222331F08091740287FF76
:1035100002C08EE101C086E0DF011D928A95E9F7C5
:103520000895089508950C94921A0C94921ACF93CA
:103530000E94951A0E94FA130E94931AC0E08C2FE1
:103540000E94FD12672B682B692B29F4CF5FC630D0
:10355000B1F780E001C081E0CF9108950C94921AF8
:103560000C94AE1A8091AE02843049F10E94B01AD8
:1035700080E00E944D0510924E0220E488E190E028
:103580000FB6F894A895809360000FBE209360005A
:1035900083B7817F846083BF83B7816083BF789462
:1035A000889583B78E7F83BF0FB6F894A8958091D6
:1035B0006000886180936000109260000FBE0895E3
:1035C0000C94921A0E9418090E9481190E944D05BC
:1035D0000C94E01A1F920F920FB60F9211248F9342
:1035E0009F93AF93BF9380914E02811113C080913E
:1035F000A6029091A702A091A802B091A9024196BB
:10360000A11DB11D8093A6029093A702A093A802CA
:10361000B093A902BF91AF919F918F910F900FBE70
:103620000F901F90189582E084BD93E095BD9AEFAE
:1036300097BD80936E0008952FB7F8948091A602ED
:103640009091A702A091A802B091A9022FBF08955E
:103650002FB7F8946091A6027091A7028091A802FA
:103660009091A9022FBF08959C014FB7F8948091C3
:10367000A6029091A702A091A802B091A9024FBF03
:10368000821B930B089578941F920F920FB60F929E
:1036900011248F939F93AF93BF938091A602909133
:1036A000A702A091A802B091A9020196A11DB11D87
:1036B0008093A6029093A702A093A802B093A902B8
:1036C000BF91AF919F918F910F900FBE0F901F9060
:1036D000189581E08093E00080E28093D8001092FA
:1036E000C9008FE19EE40197F1F700C0000087E078
:1036F00090EBDC018093B7029093B802A093B902DB
:10370000B093BA029CE088E10FB6F894A895809334
:1037100060000FBE90936000FFCF9093970180935D
:10372000960108958091720208959091AE029430AE
:1037300029F580934F027093510260935002909349
:10374000E9008FEF9091E800815095FD06C095ED5E
:103750009A95F1F700008111F5CF8091E80085FF7F
:103760000DC040E050E063E070E08FE492E00E9422
:10377000051E8091E8008E778093E8000895BC01D3
:1037800084E00C94951BBC0183E00C94951BCF93B3
:10379000DF9320910C01222339F02091740227FF3E
:1037A00003C060E224E002C068E021E02093E90069
:1037B0002FEF3091E800215035FD06C035ED3A95E8
:1037C000F1F700002111F5CF2091E80025FF1DC081
:1037D000EC0180910C01811105C040E050E068E0EF
:1037E00070E003C070E040E050E0CE010E94051E92
:1037F0008091E8008E778093E80080E2FE01A2E5E8
:10380000B2E001900D928A95E1F7DF91CF91089592
:103810000895CF93603219F52091AE022430F9F467
:10382000C091E900CF703091EC00232F217030FD62
:1038300020E8C22B22E02093E9002091E80020FF3D
:103840000BC040E050E060E270E00E94051E8091F5
:10385000E8008E778093E800CF70C093E900CF91A5
:1038600008958091AD02811109C00E94E11F0E945C
:103870003E208091E20084608093E20008951092DF
:10388000AD02089508950895089542E061EC81E045
:103890000E945A1F42E261EC84E00E945A1F42E2F9
:1038A00061EC82E00E945A1F42E260EC83E00C94DB
:1038B0005A1F8091B002833009F462C030F4813025
:1038C00071F0823009F49BC008958A3009F487C0F2
:1038D0008B3009F46DC0893009F0A9C020C08091F7
:1038E000AF02813A09F0A3C08091E800877F8093FE
:1038F000E8008091B3029091B402892B21F460E238
:1039000082E592E003C060E080E090E070E00E9419
:103910009B1E8091E8008B778093E800089580914A
:10392000AF02813209F083C08091B3029091B4025A
:10393000009719F0029709F07AC08091E800877F1C
:103940008093E8008091E80082FD05C08091AE027E
:103950008111F8CF6CC02091F3008091F20090E0CB
:10396000922B029729F48091F1008B7F813021F412
:103970008091F100809372028091E8008B7753C0B0
:103980008091AF02813A09F052C08091B3029091C8
:10399000B402892B09F04BC08091E800877F8093A7
:1039A000E8008091E80080FFFCCF80910C0136C0D8
:1039B0008091AF028132D9F58091B3029091B40227
:1039C000892BA9F58091E800877F8093E8000E9409
:1039D0008F1F8091B10280930C010C941809809183
:1039E000AF02813221F58091E800877F8093E80063
:1039F0000E948F1F8091B20280937302089580917C
:103A0000AF02813AA1F48091E800877F8093E800BB
:103A10008091E80080FFFCCF809173028093F100D9
:103A20008091E8008E778093E8000C948F1F0895B2
:103A300084B7877F84BF0FB6F894A8958091600003
:103A4000886180936000109260000FBE90E080E873
:103A50000FB6F89480936100909361000FBE0C94B0
:103A6000D70F0E94E11F0E943E20E2EEF0E080812D
:103A70008460808378940E94D3220E94E50F82E0C4
:103A800091E00C947C19CF93DF93CDB7DEB7A0976C
:103A90000FB6F894DEBF0FBECDBF8091AE02853069
:103AA000A9F48091AE02853079F40E94B21A809117
:103AB000AC028823B1F30E94971A882391F30E94E5
:103AC000EF1D0E941809EDCF0E94E21A0E94ED0F2F
:103AD0008091AE02843011F583E08093E9008091FB
:103AE000E80082FF1BC08091E80085FF0AC040E02B
:103AF00050E060E270E0CE0101960E94501E91E01D
:103B000001C090E08091E8008B778093E8009923D2
:103B100029F060E2CE0101960E942615A0960FB60C
:103B2000F894DEBF0FBECDBFDF91CF9108950C9406
:103B3000991D292F332723303105C9F060F4213036
:103B4000310581F02230310509F041C08BE590E06C
:103B500024E435E040C021323105E1F02232310564
:103B600031F135C082E190E02FE935E034C099278A
:103B70008130910549F028F0029749F5E2E0F5E03F
:103B800005C0E0E4F5E002C0E8E2F5E0849190E0F1
:103B90009F0121C063307105D0F4660F771FFB01D0
:103BA000E157FE4F2081318189E090E014C06330FD
:103BB000710568F4FB01EE0FFF1FE757FE4F2081F0
:103BC0003181FB01EA57FE4F808190E004C080E024
:103BD00090E020E030E0FA0131832083089580E115
:103BE00089BD82E189BD09B400FEFDCF8091D80076
:103BF0008F7D8093D8008091E00082608093E00008
:103C00008091E00081FDFCCF0895CF92DF92EF928A
:103C1000FF920F931F93CF93DF93EC018B017A01F7
:103C20000E94AE1F811133C0E114F10439F0F70195
:103C300080819181081B190BC80FD91FC12CD12C71
:103C40000115110519F18091E80085FD16C08091DC
:103C5000E8008E778093E800E114F10449F0F70161
:103C600080819181C80ED91ED182C08285E00FC0AB
:103C70000E94AE1F882321F30AC089918093F1002E
:103C800001501109FFEFCF1ADF0ADACF80E0DF9190
:103C9000CF911F910F91FF90EF90DF90CF900895FB
:103CA000CF92DF92EF92FF920F931F93CF93DF9308
:103CB000EC018B017A010E94AE1F811133C0E11427
:103CC000F10439F0F70180819181081B190BC80FAD
:103CD000D91FC12CD12C0115110519F18091E800D3
:103CE00085FD16C08091E8008B778093E800E11491
:103CF000F10449F0F70180819181C80ED91ED1826B
:103D0000C08285E00FC00E94AE1F882321F30AC045
:103D10008091F100899301501109FFEFCF1ADF0A5A
:103D2000DACF80E0DF91CF911F910F91FF90EF905C
:103D3000DF90CF9008952091B5023091B6022617FA
:103D4000370748F06115710539F42091E8002E77A6
:103D50002093E80001C0B901FC0120E06115710564
:103D600079F18091AE028823F1F18530F1F18091F3
:103D7000E80083FD3CC08091E80082FD2EC0809168
:103D8000E80080FFEBCF2091F3008091F20090E0FB
:103D9000922B6115710551F08830910538F421910D
:103DA0002093F100615071090196F3CF21E008974B
:103DB00009F020E08091E8008E778093E800CECF74
:103DC0002111CFCF0AC08091AE02882361F08530E7
:103DD00061F08091E80083FD0AC08091E80082FFD5
:103DE000F2CF80E0089582E0089583E0089581E0B5
:103DF00008952091B5023091B6022617370748F092
:103E00006115710539F42091E8002E772093E800C0
:103E100001C0B901FC0120E06115710591F18091AB
:103E2000AE02882309F440C0853009F43FC0809178
:103E3000E80083FD3DC08091E80082FD2FC08091A5
:103E4000E80080FFE9CF2091F3008091F20090E03C
:103E5000922B6115710559F08830910540F4249139
:103E60002093F1003196615071090196F2CF21E063
:103E7000089709F020E08091E8008E778093E800B1
:103E8000CBCF2111CCCF0AC08091AE02882361F044
:103E9000853061F08091E80083FD0AC08091E800E0
:103EA00082FFF2CF80E0089582E0089583E00895D4
:103EB00081E00895982F973068F59093E90098175E
:103EC00039F07091EC002091ED005091F00003C0AA
:103ED000242F762F50E021FD02C09F5FECCF309160
:103EE000EB003E7F3093EB003091ED003D7F30934F
:103EF000ED003091EB0031603093EB007093EC00FB
:103F00002093ED005093F0002091EE0027FDE5CFC7
:103F100080E008958F708093E90081E0089580919A
:103F2000AF0287FF11C08091E80082FD05C080913B
:103F3000AE028111F8CF11C08091E8008B770BC0E1
:103F40008091AE02882349F08091E80080FFF8CF8D
:103F50008091E8008E778093E80008952091E40036
:103F60003091E50095E64091EC00842F817040FF90
:103F700023C08091E80080FD1DC08091AE0288239F
:103F800099F0853099F08091EB0085FD11C040914A
:103F9000E4005091E5002417350729F3915011F002
:103FA0009A01E1CF84E0089582E0089583E00895C6
:103FB00081E0089580E008954091E80042FFDDCF60
:103FC00008950E944F200E945720E0EEF0E080818B
:103FD00081608083E8EDF0E080818F77808319BC79
:103FE000A7EDB0E08C918E7F8C9380818F7E808353
:103FF0001092AD0208950F931F93CF93DF930E9409
:104000004F200E945720C8EDD0E088818F778883A9
:1040100088818068888388818F7D888319BC10920D
:10402000AE021092AA021092AC021092AB0200EE05
:1040300010E0F80180818B7F808388818160888394
:1040400042E060E080E00E945A1FE1EEF0E08081F3
:104050008E7F8083E2EEF0E08081816080838081CA
:1040600088608083F80180818E7F80838881806171
:104070008883DF91CF911F910F910895E8EDF0E0D3
:1040800080818F7E8083E7EDF0E080818160808396
:1040900084E082BF81E08093AD020C94FB1FE8EDC9
:1040A000F0E080818E7F80831092E200089510926C
:1040B000DA001092E10008951F920F920FB60F924E
:1040C00011242F933F934F935F936F937F938F931D
:1040D0009F93AF93BF93EF93FF938091E10082FF93
:1040E0000BC08091E20082FF07C08091E1008B7FCE
:1040F0008093E1000E94D2228091DA0080FF1FC0ED
:104100008091D80080FF1BC08091DA008E7F809361
:10411000DA008091D90080FF0DC080E189BD82E185
:1041200089BD09B400FEFDCF81E08093AE020E94FC
:10413000311C05C019BC1092AE020E943F1C809138
:10414000E10080FF19C08091E20080FF15C08091DE
:10415000E2008E7F8093E2008091E2008061809394
:10416000E2008091D80080628093D80019BC85E07D
:104170008093AE020E94431C8091E10084FF30C016
:104180008091E20084FF2CC080E189BD82E189BD7D
:1041900009B400FEFDCF8091D8008F7D8093D800B8
:1041A0008091E1008F7E8093E1008091E2008F7E1C
:1041B0008093E2008091E20081608093E200809130
:1041C000AA02882311F084E007C08091E30087FDF4
:1041D00002C081E001C083E08093AE020E94441CD3
:1041E0008091E10083FF29C08091E20083FF25C018
:1041F0008091E100877F8093E10082E08093AE02AE
:104200001092AA028091E1008E7F8093E10080915C
:10421000E2008E7F8093E2008091E20080618093D3
:10422000E20042E060E080E00E945A1F8091F000CE
:1042300088608093F0000E94421CFF91EF91BF9133
:10424000AF919F918F917F916F915F914F913F912E
:104250002F910F900FBE0F901F9018951F920F92E5
:104260000FB60F9211242F933F934F935F936F9349
:104270007F938F939F93AF93BF93CF93DF93EF93EE
:10428000FF93C091E900CF708091EC00D82FD170DE
:1042900080FDD0E81092E9008091F000877F809344
:1042A000F00078940E9472211092E9008091F00051
:1042B00088608093F000CD2BCF70C093E900FF9110
:1042C000EF91DF91CF91BF91AF919F918F917F91AE
:1042D0006F915F914F913F912F910F900FBE0F9073
:1042E0001F9018951F93CF93DF93CDB7DEB7AA9792
:1042F0000FB6F894DEBF0FBECDBFEFEAF2E08091BB
:10430000F100819322E0E73BF207C9F70E94591CB4
:104310008091E80083FF2EC18091AF029091B0029E
:10432000492F50E04A30510508F024C1FA01E957FD
:10433000FF4F0C94EE22803821F0823809F01AC128
:1043400008C08091AB029091AC02992389F0826001
:104350000FC08091B3028F70873008F00BC180933B
:10436000E9008091EB0085FB882780F91092E90035
:104370009091E800977F9093E8008093F10010926D
:10438000F100D1C0282F2D7F09F0F4C0882319F047
:10439000823061F0EFC08091B102813009F0EAC053
:1043A000933009F080E08093AC022EC08091B1027E
:1043B00081112AC08091B3028F702FEF280F263011
:1043C00008F0D8C08093E9002091EB0020FF1CC0CA
:1043D000933021F48091EB00806214C09091EB0047
:1043E00090619093EB0021E030E0A90102C0440FFE
:1043F000551F8A95E2F74093EA001092EA008091F7
:10440000EB0088608093EB001092E9008091E80057
:10441000877F8093E8000E948F1FACC08111AAC0E3
:104420001091B1021F778091E3008078812B8093F7
:10443000E3008091E800877F8093E8000E948F1F4F
:104440008091E80080FFFCCF8091E300806880933A
:10445000E300111102C082E001C083E08093AE024C
:1044600089C08058823008F085C08091B102909157
:10447000B2028C3D53E0950779F583E08A838AE2A6
:1044800089834FB7F894DE01139620E03EE051E2B5
:10449000E32FF0E050935700E49120FF03C0E29532
:1044A000EF703F5FEF708E2F90E0EA3010F0C7960C
:1044B00001C0C0968D939D932F5F243149F74FBF64
:1044C0008091E800877F8093E8006AE270E0CE0187
:1044D00001960E949B1E16C06091B3027091B402B7
:1044E000AE014F5F5F4F0E94971DBC01892B09F4FD
:1044F00041C09091E800977F9093E80089819A816C
:104500000E94F91E8091E8008B778093E80032C00A
:10451000803881F58091E800877F8093E800809162
:10452000AA028093F1008091E8008E7772CF81110A
:1045300021C08091B1029091B20299270297D4F4E0
:104540008091E800877F8093E8008091B10280939A
:10455000AA020E948F1F8091AA02811106C0809139
:10456000E30087FD02C081E001C084E08093AE02D9
:104570000E94451C8091E80083FF0AC08091E800FA
:10458000877F8093E8008091EB0080628093EB004E
:10459000AA960FB6F894DEBF0FBECDBFDF91CF91C4
:1045A0001F9108950895CF938091AE028823A1F0C2
:1045B000C091E900CF709091EC00892F817090FD3F
:1045C00080E8C82B1092E9008091E80083FD0E94EA
:1045D0007221CF70C093E900CF910895EE0FFF1FB5
:1045E0000590F491E02D099469279627692778278B
:1045F000872778270895FB01DC0104C08D91019085
:10460000801921F441505040C8F7881B990B089538
:10461000F999FECF92BD81BDF89A992780B508958A
:10462000A8E1B0E042E050E00C943C23262FF99939
:10463000FECF92BD81BDF89A019700B4021639F001
:104640001FBA20BD0FB6F894FA9AF99A0FBE0895D2
:104650000396272F0E9417230E941623252F0E94BE
:104660001723242F0C9417230196272F0E9417231A
:104670000C941623DC01CB01FC01F999FECF06C096
:10468000F2BDE1BDF89A319600B40D924150504010
:08469000B8F70895F894FFCF7C
:10469800FC01921BC71B081CC31BBF1B01E200E9DE
:1046A80000EA00B500B600B700CD008301CC008A4F
:1046B80001920194012102230224022502260227E5
:1046C800022A02B300B4006F007000818283E20006
:1046D800E900EA00B500B600B700CD008301CC00C0
:1046E8008A01920194012102230224022502260252
:1046F80027022A02B300B4006F007000818283F59C
:1047080095313233939267663635349796943730BD
:10471800F1F0C6F4F6F740226D4006B105D3055610
:06472800056F058F05007E
:00000001FF
